:020000040800F2
:100000000050002059200008910E0008930E0008AF
:10001000950E0008970E0008990E000800000000D9
:10002000000000000000000000000000A1380008EF
:100030009B0E0008000000004139000885390008C7
:10004000A1200008A1200008A1200008A12000088C
:10005000A1200008A1200008A1200008A12000087C
:10006000A1200008A1200008A1200008A12000086C
:10007000A1200008A1200008A1200008A12000085C
:10008000A1200008A1200008A1200008A12000084C
:10009000A1200008A1200008A1200008A12000083C
:1000A000A1200008A1200008A1200008A12000082C
:1000B0009D0E0008A1200008A1200008A120000832
:1000C000A1200008A1200008A1200008A12000080C
:1000D000A1200008AD0E0008BD0E0008CD0E0008DE
:1000E000A1200008A1200008A120000800000000B5
:1000F0000000000000000000000000000000000000
:0C01000000000000000000005FF808F1A3
:1001100010B5054C237833B9044B13B10448AFF341
:1001200000800123237010BD440400200000000063
:100130003453000808B5034B1BB103490348AFF320
:10014000008008BD0000000048040020345300086F
:10015000844641EA000313F0030349D1403A23D314
:100160000B6803604B6843608B688360CB68C36037
:100170000B6903614B6943618B698361CB69C3611F
:100180000B6A03624B6A43628B6A8362CB6AC36207
:100190000B6B03634B6B43638B6B8363CB6BC363EF
:1001A00040304031403ADBD230320BD30B68036031
:1001B0004B6843608B688360CB68C360103010313C
:1001C000103AF3D20C3205D351F8043B40F8043B0B
:1001D000043AF9D2043208D0D2071CBF11F8013B0F
:1001E00000F8013B01D30B8803806046704700BFD5
:1001F000082A13D38B07B1D010F00303AED0C3F19C
:100200000403D21ADB071CBF11F8013B00F8013BC5
:10021000A4D331F8023B20F8023B9FE7043AD9D33C
:10022000013A11F8013B00F8013BF9D20B78037059
:100230004B7843708B7883706046704708B5012017
:1002400003F096F9FBE708B5012003F091F9FBE70D
:1002500000B5A7B098E09DF85430012B0FD0002BCB
:1002600040F092809DF853305A0903F01F0301219A
:100270009940624B53F8220003F021FA84E09DF884
:1002800053305A0903F01F03012199405B4B53F887
:10029000220003F037FA77E09DF85330ADF80430D0
:1002A0009DF85430003B18BF01238DF80630002321
:1002B0001A4601A95248006803F04DFE012863D098
:1002C000EE238DF851304FF0FF33BDF894200DF13F
:1002D00051014C4802F0B0FE56E04B4B01939DF8A3
:1002E00053308DF80830259A043A139215A90DF170
:1002F0000900FFF72DFF00231A4601A943480068B3
:1003000003F029FE01283FD0EE238DF851304FF045
:10031000FF33BDF894200DF151013A4802F08CFEF4
:1003200032E03B4B01939DF853308DF80830259A0D
:10033000043A139215A90DF10900FFF709FF0023F4
:100340001A4601A93148006803F005FE01281BD0B8
:10035000EE238DF851304FF0FF33BDF894200DF1AE
:100360005101284802F068FE0EE09DF853308DF8E8
:1003700004309DF854308DF8053000231A4601A949
:100380002448006803F0E7FD4FF0FF3214A9224B28
:10039000186803F021FF0128F6D19DF85230013B87
:1003A0000F2BF1D801A252F823F000BF570200082A
:1003B00099020008DB020008230300086B03000811
:1003C00089030008890300088903000889030008DD
:1003D00089030008890300088903000889030008CD
:1003E0008903000889030008ED03000800231A466A
:1003F00019460A48006803F0AEFDC5E77004002006
:1004000080040020FC07002044080020780400201D
:100410008C08002068040020880400209804002034
:10042000034B0360034B0B6080231360704700BFD6
:100430009C0600209C04002010B5B2B00024002CC3
:1004400040F3B08003F0A9F85A4B186000F04EFF5B
:1004500003220021012003F057FD574B18600022B2
:1004600048210F2003F050FD544B18600022482112
:100470000F2003F049FD524B1860002204210F2089
:1004800003F042FD4F4B186000224C210F2003F077
:100490003BFD4D4B1860002202210F2003F034FD7C
:1004A0004A4B18604A4C0DF1AC0CA646BEE80F0052
:1004B000ACE80F009EE807008CE8070000212BA89D
:1004C00003F021F8434B18600DF1900C04F11C0E61
:1004D000BEE80F00ACE80F009EE807008CE80700BC
:1004E000002124A803F00FF83B4B18600DF1740CA9
:1004F00004F1380EBEE80F00ACE80F009EE80700DC
:100500008CE8070000211DA802F0FDFF334B1860A6
:100510000DF1580C04F1540EBEE80F00ACE80F00CA
:100520009EE807008CE80700002116A802F0EBFF08
:100530002B4B18600DF13C0C04F1700EBEE80F005F
:10054000ACE80F009EE807008CE8070000210FA828
:1005500002F0D9FF234B18600DF1200C04F18C0E32
:10056000BEE80F00ACE80F009EE807008CE807002B
:10057000002108A802F0C7FF1B4B18600DF1040E04
:1005800004F1A80CBCE80F00AEE80F009CE80700DF
:100590008EE80700002101A802F0B5FF134B186098
:1005A00032B010BD02F0F9FF114B43F824000134C2
:1005B00045E700BF74040020980400208804002050
:1005C0007C040020800400207804002068040020BF
:1005D0004C5300088C040020840400206004002098
:1005E0009004002094040020640400206C04002087
:1005F000700400202DE9F04188B000240494059493
:10060000069407942D4B9A6942F020029A619A69E8
:1006100002F020020192019A9A6942F004029A6162
:100620009A6902F004020292029A9A6942F0080260
:100630009A619B6903F008030393039BDFF88080B2
:10064000224648F2B001404601F031FF1D4D2246DE
:1006500043F2F831284601F02AFF02270497059457
:100660000126069604A9404601F008FE48F2B003B0
:10067000049305960694079704A9404601F0FEFDF1
:10068000042304930594069604A9284601F0F6FD78
:1006900043F2F833049305960694079704A9284675
:1006A00001F0ECFD4FF4804304930594069404A9F3
:1006B000284601F0E3FD08B0BDE8F08100100240DB
:1006C00000080140000C014038B5044602784FF4A0
:1006D0000041154801F0EBFE144D627808212846D0
:1006E00001F0E5FEA2781021284601F0E0FEE27854
:1006F0002021284601F0DBFE22794021284601F026
:10070000D6FE62798021284601F0D1FEA2794FF40D
:100710008071284601F0CBFEE2794FF40071284643
:1007200001F0C5FE38BD00BF00080140000C0140CB
:1007300070B506464C1E13E001228021154801F0D9
:10074000B6FE144D00222021284601F0B0FE012003
:1007500002F00EFF01222021284601F0A8FE013CF4
:10076000072C08DD335D002BE6D1002280210948EB
:1007700001F09DFEE5E7074C00221021204601F024
:1007800096FE012002F0F4FE01221021204601F025
:100790008EFE70BD0008014010B50446FFF794FFBF
:1007A00030212046FFF7C4FF10BD000000B583B024
:1007B000ADF804008DF8061000231A4601A903487D
:1007C000006803F0C8FB03B05DF804FB8004002060
:1007D000F8B504460D46294E00224FF480513046AC
:1007E00001F065FE012002F0C3FE01224FF48051AA
:1007F000304601F05CFE012002F0BAFE4FF4804169
:10080000304601F04DFEB0FA80F04009207001261C
:1008100019E01A4F00224FF40051384601F047FE0C
:10082000012002F0A5FE01224FF40051384601F0EC
:100830003EFE4FF48041384601F032FEB0FA80F0BF
:100840004009A0550136AE42E3DB4FF0000C0FE04B
:100850000CEB030014F800E0C3F107026244A15C52
:10086000215404F802E00133032BF1DD0CF1080CF4
:10087000AC4501DA0023F7E7F8BD00BF000C0140EA
:10088000014B185C704700BFF0060020044B1A5C57
:10089000044B1B5C9A4201D0012070470020704736
:1008A000F00600203407002010B582B01021FFF7B9
:1008B0008FFF002418E02A4A82FB0432E317C3EBBF
:1008C000A20303EB4302A4EBC20201219140254A9B
:1008D00052F8230002F016FF234B1B6813BB234B77
:1008E0001A5D234B1A5501340F2C33DC2046FFF7D9
:1008F000CDFF0028F7D02046FFF7C2FF0128DAD04D
:10090000174A82FB0432E317C3EBA20303EB430253
:10091000A4EBC20201219140124A52F8230002F0D6
:10092000CEFED9E7CC238DF8003001238DF80130BD
:100930008DF802402046FFF7A3FF8DF80300FF2348
:100940008DF804304FF0FF3305226946094802F064
:1009500073FBC4E7044B01221A6002B010BD00BF54
:10096000ABAAAA2A7004002000070020F00600208D
:1009700034070020FC07002010B584B066E0BDF805
:100980000C203B4B995C9DF80E30994266D038495B
:100990008B54CC218DF8041002218DF805108DF8B0
:1009A0000620012B14BF002301238DF80730FF23FD
:1009B0008DF808304FF0FF33052201A92D4802F0D1
:1009C0003BFB4BE001340F2C18DC2B4B1B5D012B48
:1009D000F8D1CC238DF8043001238DF805308DF843
:1009E00006408DF80730FF238DF808304FF0FF33B5
:1009F000052201A91F4802F01FFBE3E7002400E0E5
:100A000001342F2C19DC1A4B1B5D012BF8D1CC23A0
:100A10008DF8043002238DF805308DF8064001234F
:100A20008DF80730FF238DF808304FF0FF33052293
:100A300001A9104802F000FBE2E7012002F098FD56
:100A40000B48FFF7A9FE0C48FFF72EFF002203A971
:100A50000A4B186803F0C0FB012890D00021084B16
:100A6000186803F068FC0128E7D10024ABE700BF59
:100A700004070020FC070020F0060020800400206E
:100A80009804002008B50368B3F1804F00D008BD7A
:100A900001F01AFBFBE772B6FEE700B591B0282221
:100AA000002106A804F056FB002301930293039350
:100AB00004930593012206924FF4803307930A9220
:100AC00002220D920E934FF4E0130F9306A801F04B
:100AD0000BFD80B90F2301930221029100230393A0
:100AE0004FF480620492059301A801F02FFF20B912
:100AF00011B05DF804FBFFF7CEFFFFF7CCFF00005D
:100B000008B501F0CFFAFFF7C8FFFFF773FD00F05B
:100B1000E7F900F0FFF900F017FA012209490A4845
:100B200002F0D3FC01220949094802F0CEFC01225F
:100B30000849094802F0C9FCFFF77EFC02F0DEFC20
:100B4000FEE700BF44070020FC07002068070020E4
:100B5000440800208C0700208C0800202DE9F0417B
:100B600000AF8046084611461E46DC1C0B3323F0BE
:100B70000703ADEB030D6D468DF80000C0438DF803
:100B800001008DF8026032460DF10300FFF7E0FA34
:100B900000210DF8041006E015F801C02B5D9C44FF
:100BA00005F804C00131A142F6D3321D4FF0FF33E6
:100BB00092B22946404602F03FFAC82002F0D8FC23
:100BC000BD46BDE8F0810000402A00D970472DE9FC
:100BD000F04F95B005460F4614461E464C220021A4
:100BE00001A804F0B7FA01954FF00B0B8DF808B08F
:100BF0004FF00209CDF84C904FF004088DF80880B2
:100C00000A238DF809304FF0010ACDF84CA0174D9A
:100C100000231A460DEB0801286803F09CF98DF8B3
:100C200008B08DF809A08DF80A60CDF84C9000232B
:100C30001A460DEB0801286803F08DF98DF808803D
:100C400007238DF80930224639460DF10A00FFF7D7
:100C50007FFA5444139400231A460DEB08012868C8
:100C600003F079F915B0BDE8F08F00BF78040020DB
:100C700070B5B6B00221434801F012FC05460421CC
:100C8000414801F00DFC044657E0359B0DF19102FF
:100C90009DF890102398FFF761FF56E0CC238DF864
:100CA00000309DF844308DF80130229E32460DF11F
:100CB00045010DF10200FFF74BFA06F1DA036B4430
:100CC000FF2203F8D82CF21C4FF0FF3392B2694692
:100CD0002E4802F0B1F940E002212A4801F0E0FB81
:100CE00000283CD101212A4B186802F0E8FC36E0CC
:100CF0000221244801F0D4FB012832D10121244BE8
:100D0000186802F0FFFC2CE004211F4801F0C8FB2A
:100D100048BB4FF480711E4B186802F0D0FC22E0F3
:100D20000221184801F0BCFB05460421164801F0D9
:100D3000B7FB0446012002F01BFC002223A9154B3F
:100D4000186803F049FA01289FD0002211A9124B1C
:100D5000186803F041FA0128A0D0012DBCD0002D65
:100D6000C6D0012CD0D0002CDAD10421064801F0E5
:100D700097FB0128D4D14FF48071054B186802F01D
:100D8000C1FCCDE700080140000C0140FC07002039
:100D900074040020780400207C04002000B583B097
:100DA000114B9A6942F001029A619A6902F00102BC
:100DB0000092009ADA6942F08052DA61DB6903F04E
:100DC00080530193019B00220F216FF0010001F07D
:100DD0009FF9064A536823F0E06343F000735360C1
:100DE00003B05DF804FB00BF0010024000000140AA
:100DF00030B589B00446224BDA6942F00102DA616B
:100E0000DB6903F001030193019B02A903A801F030
:100E100079FE069BD3B901F055FE03461948A0FBA5
:100E200003239B0C013B18484FF08042026040F2C4
:100E3000E732C2604360002303618360836101F095
:100E4000B1FF054630B1284609B030BD01F03AFE89
:100E50004300E3E70C4801F075FE05460028F2D197
:100E60001C2001F08DF90F2C01D90125EBE70022A0
:100E700021461C2001F04CF9044B1C60E3E700BF45
:100E80000010024083DE1B43B0070020100000204A
:100E9000FEE7FEE7FEE7FEE7FEE7704708B502481B
:100EA00001F088FE08BD00BFB007002008B5024869
:100EB00002F0ACF908BD00BFFC07002008B50248ED
:100EC00002F0A4F908BD00BF4408002008B502489C
:100ED00002F09CF908BD00BF8C080020704700009C
:100EE00008B50A480A4B03604FF4E133436000231E
:100EF0008360C36003610C2242618361C36102F0BD
:100F00006BF800B908BDFFF7C6FDFBE7FC07002042
:100F10000038014008B50A480A4B03604FF41653E5
:100F2000436000238360C36003610C2242618361DC
:100F3000C36102F051F800B908BDFFF7ACFDFBE753
:100F4000440800200044004008B50A480A4B0360EA
:100F50004FF41653436000238360C36003610C2287
:100F600042618361C36102F037F800B908BDFFF741
:100F700092FDFBE78C0800200048004030B58BB0A4
:100F80000023069307930893099303684F4A9342FB
:100F900007D04F4A934236D04E4A934263D00BB0AB
:100FA00030BD4D4B9A6942F480429A619A6902F4CD
:100FB00080420092009A9A6942F004029A619B6909
:100FC00003F004030193019B4FF400730693022383
:100FD000079303230993414D06A9284601F04EF9D2
:100FE0004FF48063069300240794089406A92846CA
:100FF00001F044F922460521252001F089F8252039
:1010000001F0BEF8CBE7344BDA6942F40032DA6122
:10101000DA6902F400320292029A9A6942F00402FA
:101020009A619B6903F004030393039B04230693D3
:101030000223079303230993284D06A9284601F0AC
:101040001DF90823069300240794089406A928464E
:1010500001F014F922460521262001F059F8262036
:1010600001F08EF89BE71C4BDA6942F48022DA61CA
:10107000DA6902F480220492049A9A6942F0080222
:101080009A619B6903F008030593059B4FF4806305
:1010900006930223079303230993114D06A92846BB
:1010A00001F0ECF84FF400630693002407940894D1
:1010B00006A9284601F0E2F822460521272001F082
:1010C00027F8272001F05CF869E700BF00380140ED
:1010D0000044004000480040001002400008014069
:1010E000000C014010B594B003686D4A934208D0DB
:1010F0006C4A934242D06C4A934200F0888014B00C
:1011000010BD6A4B1B786A4AD35CCC2B18D0694B54
:101110001B6863B103685868644B19784A1CD2B2E3
:101120001A70634B5854511E5B5CFF2B0FD05F4B02
:101130001B7801225E4919445F4802F0C6F9DEE7D8
:101140005C4B01221A60594B00221A70DFE7002421
:10115000019402238DF80830139255490DF10900CE
:10116000FEF7F6FF234601AA02A95448006802F0E0
:10117000CDFF504B1C604D4B1C70D8E7504B1B787B
:10118000012B12D0022B24D04E4A1278D11C8B4254
:1011900027D001334A4A1370494B1B7801224A4930
:1011A00019444A4802F091F9A9E7474A5178127860
:1011B000D243D2B2914205D0414B00221A70424B29
:1011C0001970E9E7424A012111600B443C4A13704F
:1011D000E2E73D4A91783B4A11700133384A137077
:1011E000DAE70024364B1C7003238DF808300432F4
:1011F000139235490DF10900FEF7AAFF0194234629
:1012000001AA02A93348006802F080FFC4E7324B0C
:101210001B78012B12D0022B24D0304A1278D11C1B
:101220008B4227D001332C4A13702B4B1B780122A1
:101230002B4919442B4802F048F960E7284A5178B5
:101240001278D243D2B2914205D0234B00221A70B9
:10125000234B1970E9E7244A012111600B441E4A0F
:101260001370E2E71E4A91781C4A117001331A4A42
:101270001370DAE70024184B1C7004238DF8083033
:101280001A44139216490DF10900FEF761FF01940B
:10129000234601AA02A90F48006802F037FFC4E7FD
:1012A000003801400044004000480040640700202E
:1012B00044070020DC080020FC07002088040020F0
:1012C00088070020F9070020680700204408002054
:1012D000D80800207C040020AC070020F80700207C
:1012E0008C0700208C080020D408002008B50120BD
:1012F00002F001FF014B186008BD00BFE0080020AC
:1013000000B583B04FF0FF3201A90B4B186802F013
:1013100063FF0128F6D1094C4FF0FF31206803F03C
:101320000AF89DF80520064B1A6000231A46194654
:10133000206802F010FEE5E768040020E0080020C5
:101340000400002003688B4201DC0020704700236A
:10135000036001207047000000B587B000230593AB
:1013600000F01CBC00210220FFF720FA012103201D
:10137000FFF71CFA4FF4967002F0FAF800210320F0
:10138000FFF714FAB34A1368013313600023009384
:1013900001231A461946B048006802F00CF910F013
:1013A000010F03D0AB4A136801331360AB4B02AC9F
:1013B00093E8030084E80300204603F01DFF024683
:1013C00004232146A648FFF7FFFB00230593A14A0B
:1013D00013680133136042F6E06105A8FFF7B2FF1E
:1013E00018B19C4A1368013313609E4B02AC93E81A
:1013F000030084E80300204603F0FEFE02460423B7
:1014000021469748FFF7E0FB924A136801331360C7
:101410000023009301231A4602218F48006802F03E
:10142000CAF810F0020F03D08A4A13680133136020
:101430008D4B02AC93E8030084E80300204603F0E0
:10144000DBFE0246042321468548FFF7BDFB00234F
:101450000593804A13680133136043F2C82105A83D
:10146000FFF770FF18B17B4A136801331360012145
:101470000420FFF79BF9774A1368013313600023B8
:10148000009301231A4604217348006802F093F880
:1014900010F0040F03D06F4A136801331360734BCD
:1014A00002AC93E8030084E80300204603F0A4FEA6
:1014B0000246042321466A48FFF786FB654A136803
:1014C000013313600023009301231A460821624868
:1014D000006802F070F810F0080F40F0D783002386
:1014E000009301231A4610215B48006802F063F85C
:1014F00010F0100F40F0EE830023009301231A46F2
:1015000020215548006802F056F810F0200F40F0F6
:10151000F1830023009301231A4640214E480068BE
:1015200002F049F810F0400F40F0F58300230093DB
:1015300001231A4608214848006802F03CF810F0E0
:10154000080F40F0FD830023009301231A46202159
:101550004148006802F02FF810F0200F40F001849D
:101560000023009301231A4640213B48006802F003
:1015700022F810F0400F40F005840023009301236F
:101580001A4610213448006802F015F810F0100FC8
:1015900040F009840023009301231A4608212E48B5
:1015A000006802F008F810F0080F40F011840023E2
:1015B000009301231A4610212748006801F0FBFF21
:1015C00010F0100F40F015840023009301231A46F9
:1015D00040212148006801F0EEFF10F0400F40F07C
:1015E00019840023009301231A4620211A48006819
:1015F00001F0E1FF10F0200F40F01D8449F6580182
:1016000005A8FFF79FFE18B1124A13680133136053
:1016100001210720FFF7CAF84FF4967001F0A8FFE8
:1016200000210720FFF7C2F80A4A1368013313604C
:101630000023009301231A4680210748006801F027
:10164000BAFF10F0800F13D0024A13680133136001
:101650000EE000BF04000020700400208454000845
:10166000440800208C540008945400089C5400083E
:1016700001210920FFF79AF84FF4967001F078FFE6
:1016800000210920FFF792F800230593B14A13685F
:101690000133136043F2B06105A8FFF753FE18B1A0
:1016A000AC4A13680133136000210A20FFF77EF86B
:1016B000A84A1368013313600023009301231A46DC
:1016C0004FF40071A448006801F075FF10F4007F2A
:1016D00003D0A04A136801331360A04B02AC93E817
:1016E000030084E80300204603F086FD024604233D
:1016F00021469B48FFF768FA00230593954A136833
:10170000013313604FF4FA5105A8FFF71BFE18B11F
:10171000904A136801331360924B02AC93E80300C4
:1017200084E80300204603F067FD024604232146B7
:101730008B48FFF749FA00230593864A1368013363
:1017400013604FF2302105A8FFF7FCFD18B1814A64
:10175000136801331360844B02AC93E8030084E800
:101760000300204603F048FD0246042321467C483E
:10177000FFF72AFA00230593764A136801331360B2
:1017800042F6E06105A8FFF7DDFD18B1714A136864
:101790000133136001210720FFF708F84FF496701A
:1017A00001F0E6FE00210720FFF700F80023059373
:1017B000684A1368013313600023009301231A461B
:1017C00080216548006801F0F6FE10F0800F03D01C
:1017D000604A13680133136001210B20FEF7E6FF16
:1017E0004FF4967001F0C4FE00210B20FEF7DEFFDF
:1017F00000230593574A13680133136042F6E061F2
:1018000005A8FFF79FFD18B1524A13680133136012
:1018100001210C20FEF7CAFF4FF4FA7001F0A8FE78
:1018200000210C20FEF7C2FF00230593494A1368EC
:101830000133136040F6B83105A8FFF783FD18B1F6
:10184000444A13680133136001210320FEF7AEFF01
:10185000464A02AB07CA03C31A7002A803F0CCFCC5
:101860000246042302A93E48FFF7AEF90023059380
:10187000384A1368013313603D4905A8FFF762FD3C
:1018800018B1344A1368013313603A4B02AC93E841
:10189000030084E80300204603F0AEFC0246042364
:1018A00021462F48FFF790F900230593294A136832
:1018B0000133136048F6B80105A8FFF743FD18B1DE
:1018C000244A13680133136001210420FEF76EFFE0
:1018D000204A1368013313600023009301231A4642
:1018E00008211D48006801F066FE10F0080F40F066
:1018F000B9820023009301231A461021164800687C
:1019000001F059FE10F0100F40F0BC8201210420BC
:10191000FEF74CFF40F6B83001F02AFE164B02AC41
:1019200093E8030084E80300204603F065FC0246C8
:10193000042321460A48FFF747F900210420FEF757
:1019400035FF4FF4FA6001F013FE024A13680133C9
:10195000136013E00400002070040020A454000869
:1019600044080020AC540008B4540008BC540008DB
:1019700040190100C8540008D05400080022009209
:1019800001231021C948006801F015FE10F0100F66
:1019900000F08E82C64A02AB07CA03C31A8002A8AF
:1019A00003F02AFC0246042302A9C248FFF70CF9FF
:1019B00001210420FEF7FAFE01210420FEF7F6FEC5
:1019C000BD4A1368013313604FF4FA6001F0D0FD93
:1019D00001210420FEF7EAFE01210320FEF7E6FEC6
:1019E00001210420FEF7E2FE4FF4967001F0C0FDE5
:1019F00000210420FEF7DAFE00210320FEF7D6FEC8
:101A000000210420FEF7D2FEAC4B02AC93E80300A9
:101A100084E80300204603F0EFFB0246042321463E
:101A2000A448FFF7D1F800230593A34A13680133B4
:101A30001360A34905A8FFF785FC18B19E4A1368F7
:101A40000133136001210420FEF7B0FE01210420C0
:101A5000FEF7ACFE01210420FEF7A8FE964A1368AB
:101A6000013313600023009301231A464FF4807161
:101A70008E48006801F09FFD10F4807F40F02F82B7
:101A80000023009301231A464FF400718748006831
:101A900001F091FD10F4007F40F0318241F270714D
:101AA00005A8FFF74FFC18B1834A13680133136090
:101AB000844B02AC93E8030084E80300204603F063
:101AC0009BFB0246042321467A48FFF77DF800235A
:101AD0000593794A13680133136045F2F05105A864
:101AE000FFF730FC18B1744A13680133136000210A
:101AF0000420FEF75BFE704A136801331360002177
:101B00000420FEF753FE01210A20FEF74FFE0021BC
:101B10000420FEF74BFE00210420FEF747FE0021C3
:101B20000420FEF743FE00210420FEF73FFE0021C3
:101B30000420FEF73BFE00210420FEF737FE0121C2
:101B40000420FEF733FE00210420FEF72FFE0021C3
:101B50000420FEF72BFE01210420FEF727FE564B42
:101B60001B68153B092B40F2FB81534B1B68202B54
:101B700000F31182059B0133059300231A46194691
:101B80005148006802F0E7F9012001F0F1FC4A4BEE
:101B90001B684E4A1268934240F018824FF0FF31A2
:101BA000494B186802F0C7FB434B1B68013B342BC1
:101BB000D5D801A252F823F0651300088D13000850
:101BC000AD130008D7130008EB1300081114000828
:101BD000311400085B1400086F1400087F1400081B
:101BE0009F140008C51400082D150008951500085D
:101BF000FD1500085F1B00081116000831160008CB
:101C00007116000895160008A9160008B9160008F4
:101C1000DB1600080517000819170008431700080D
:101C2000571700088117000895170008B917000812
:101C3000D9170008FD17000811180008351800080A
:101C400049180008791800088B180008B518000812
:101C5000C9180008D91800080D1900087D190008D6
:101C6000C9190008331A0008451A0008651A000847
:101C70009D1A0008B11A0008DB1A0008EF1A0008C4
:101C8000FF1A0008FF1A0008571B0008104B02AC8F
:101C900093E8030084E80300204603F0ADFA02460F
:101CA000042321460348FEF78FFF18E47004002048
:101CB000D85400084408002004000020E454000820
:101CC00080B50100EC540008E00800200800002066
:101CD000F4540008CA4B02AC93E8030084E8030004
:101CE000204603F089FA024604232146C548FEF740
:101CF0006BFF01E4C44B02AC93E8030084E80300EB
:101D0000204603F079FA024604232146BD48FEF737
:101D10005BFFFFF7FEBBBD4B02AC93E8030084E81A
:101D20000300204603F068FA024604232146B54822
:101D3000FEF74AFFB64A136801331360FFF7F6BB9C
:101D4000B44B02AC93E8030084E80300204603F0A0
:101D500053FA024604232146AA48FEF735FFFFF74F
:101D6000F2BBAD4B02AC93E8030084E803002046CD
:101D700003F042FA024604232146A248FEF724FF5C
:101D8000FFF7EEBBA54B02AC93E8030084E8030029
:101D9000204603F031FA0246042321469948FEF713
:101DA00013FFFFF7EABB9E4B02AC93E8030084E805
:101DB0000300204603F020FA0246042321469148FE
:101DC000FEF702FF924A136801331360FFF7E2BB8C
:101DD000944B02AC93E8030084E80300204603F030
:101DE0000BFA0246042321468648FEF7EDFEFFF774
:101DF000DEBB8D4B02AC93E8030084E80300204671
:101E000003F0FAF90246042321467E48FEF7DCFE81
:101E1000FFF7DABB854B02AC93E8030084E80300CC
:101E2000204603F0E9F90246042321467548FEF7EF
:101E3000CBFEFFF7D6BB7E4B02AC93E8030084E8F1
:101E40000300204603F0D8F90246042321466D48DA
:101E5000FEF7BAFE002305936D4A13680133136041
:101E6000FFF7CCBB734B02AC93E8030084E803009C
:101E7000204603F0C1F90246042321466148FEF7DB
:101E8000A3FE36E56C4B02AC93E8030084E8030044
:101E9000204603F0B1F90246042321465948FEF7D3
:101EA00093FE002305935A4A1368013313602DE50E
:101EB000624A02AB07CA03C31A8002A803F09CF966
:101EC0000246042302A94F48FEF77EFE01210420AA
:101ED000FEF76CFC01210420FEF768FC70E5584B0E
:101EE00002AC93E8030084E80300204603F084F981
:101EF0000246042321464348FEF766FEC0E5002261
:101F00000092012340214F48006801F054FB10F07B
:101F1000400F15D04C4B02AC93E8030084E803005B
:101F2000204603F069F90246042321463548FEF7AE
:101F30004BFE00230593364A136801331360ADE569
:101F4000424B02AC93E8030084E80300204603F010
:101F500053F90246042321462A48FEF735FE9DE543
:101F60000023009301231A464FF48071354800681E
:101F700001F021FB10F4807F3FF4F7AD012109202F
:101F8000FEF714FC4FF4967001F0F2FA00210920DC
:101F9000FEF70CFCE9E50023009301231A464FF4F9
:101FA00080712848006801F006FB10F4807F3FF440
:101FB000E1AD01210B20FEF7F9FB4FF4967001F023
:101FC000D7FA00210B20FEF7F1FBD3E5CC228DF8E8
:101FD000082005228DF8092000218DF80A108DF8BF
:101FE0000B30FF238DF80C304FF0FF3302A9184857
:101FF00001F022F8064B1A68164B1A60CEE500BFB6
:10200000FC54000844080020045500080C55000842
:1020100004000020145500081C5500082455000831
:102020002C550008345500083C550008445500085C
:102030004C550008545500085C55000864550008CC
:10204000705500087004002078550008805500087D
:10205000FC07002008000020FEF740FF0B480C4959
:102060000C4A002302E0D458C4500433C4188C42F4
:10207000F9D3094A094C002301E013600432A2425B
:10208000FBD303F043F8FEF73BFD70470000002050
:1020900044040020B45500084404002038360020D1
:1020A000FEE7000008B5074A136843F01003136009
:1020B000032000F01BF80F20FEF79AFEFEF76EFEDD
:1020C000002008BD00200240034A1168034B1B7822
:1020D0000B441360704700BFE40800200C00002090
:1020E000014B1868704700BFE4080020074AD36816
:1020F00023F4E0631B041B0C000200F4E0600343C4
:1021000043F0BF6343F40033D360704700ED00E059
:1021100000B5194BDB68C3F30223C3F1070CBCF114
:10212000040F28BF4FF0040C03F1040EBEF1060F9C
:1021300018D9033B4FF0FF3E0EFA0CFC21EA0C01CC
:1021400099400EFA03F322EA0303194300280BDB3C
:102150000901C9B200F1604000F5614080F8001348
:102160005DF804FB0023E5E700F00F000901C9B2A8
:10217000024B1954F4E700BF00ED00E014ED00E05D
:10218000002807DB00F01F02400901239340024AA8
:1021900042F82030704700BF00E100E090F82130A5
:1021A000DBB2022B06D004238363002380F82030A7
:1021B000012070470268136823F00E031360026861
:1021C000136823F001031360036CC16B012202FA50
:1021D00003F34B6080F82120002380F8203018465C
:1021E0007047000008B590F82130DBB2022B03D015
:1021F00004238363012008BD0268136823F00E03E3
:1022000013600268136823F0010313600368194A1E
:10221000934214D0143293421FD0143293421ED0F2
:10222000143293421ED0143293421ED01432934281
:1022300002D04FF0807203E04FF4801200E00122E0
:102240000D4B5A60012380F82130002380F82030A4
:10225000436B6BB198470020CDE71022F0E74FF4B5
:102260008072EDE74FF48052EAE74FF48032E7E7FF
:102270000020C0E7080002400000024070B582B0B4
:102280000024A446A6E0804DAA4210D007D97F4D75
:10229000AA420CD005F58035AA4208D013E0A5F576
:1022A0008015AA4203D005F57025AA4207D18A6895
:1022B000002A58D0012A51D04361082403E0A5F533
:1022C0008015AA42F3D0BEF1FF0F4ED80646BEF1EC
:1022D000FF0F4CD84FEA8C0233680F25954023EA54
:1022E000050304FA02F2134333604B6813F0805F76
:1022F0006ED0674B9A6942F001029A619B6903F0C4
:1023000001030193019B4FEA9C02951C614B53F81A
:1023100025600CF003039D000F23AB4026EA030663
:102320005D4B984229D003F58063984200F08E807F
:1023300003F58063984200F08B8003F58063984238
:1023400019D004231AE0CC68BDE7CC680434BAE79E
:10235000CC680834B7E7CC680C34B4E703610824D0
:10236000B1E70024AFE70424ADE7061DAFE7ACF109
:1023700008029200B0E7032300E00023AB403343A0
:102380000232444D45F822304B6813F4801F61D06F
:10239000424A936843EA0E0393604B6813F4001FAC
:1023A0005ED03E4AD36843EA0E03D3604B6813F411
:1023B000003F5BD0394A536843EA0E0353604B68D1
:1023C00013F4803F58D0354A136843EA0E03136074
:1023D0000CF1010C0A6832FA0CF353D0012303FA12
:1023E0000CF302EA030E33EA0202F1D14A68122A20
:1023F0003FF649AF122A3FF666AF01A555F822F025
:10240000AF22000847230008512300086323000877
:10241000C7220008C7220008C7220008C7220008F8
:10242000C7220008C7220008C7220008C7220008E8
:10243000C7220008C7220008C7220008C7220008D8
:10244000C72200084B23000857230008012395E703
:10245000022393E7114A936823EA0E0393609CE7F3
:102460000E4AD36823EA0E03D3609FE70B4A5368F2
:1024700023EA0E035360A2E7084A136823EA0E0317
:102480001360A5E702B070BD0000221000003110FB
:10249000001002400000014000080140000401401B
:1024A0008368194201D001207047002070470AB1AB
:1024B00001617047090401617047000082B0084B58
:1024C0001B68084AA2FB03235B0A00FB03F301938A
:1024D00000BF019B5A1E0192002BF9D102B0704738
:1024E00000000020D34D6210002800F0F18170B58B
:1024F00082B00446036813F0010F2CD0994B5B683F
:1025000003F00C03042B1DD0964B5B6803F00C0307
:10251000082B12D06368B3F5803F41D0002B55D112
:1025200003F1804303F504331A6822F480321A6001
:102530001A6822F480221A6037E08A4B5B6813F431
:10254000803FE7D0874B1B6813F4003F03D06368DC
:10255000002B00F0BF81236813F0020F75D0814B70
:102560005B6813F00C0F5FD07E4B5B6803F00C03CD
:10257000082B54D02369002B00F08A807A4B01226B
:102580001A60FFF7ADFD0546764B1B6813F0020F8E
:1025900075D1FFF7A5FD401B0228F5D903209EE168
:1025A000704A136843F480331360636843B3FFF7E2
:1025B00097FD05466B4B1B6813F4003FCBD1FFF72B
:1025C0008FFD401B6428F5D9032088E1B3F5A02FC7
:1025D00009D0644B1A6822F480321A601A6822F417
:1025E00080221A60E1E703F18043A3F53C331A68C7
:1025F00042F480221A601A6842F480321A60D4E7EA
:10260000FFF76EFD0546574B1B6813F4003FA2D041
:10261000FFF766FD401B6428F5D903205FE1514BAD
:102620005B6813F4803FA5D14E4B1B6813F0020F7B
:1026300003D02369012B40F04F814A4A136823F0ED
:10264000F803616943EAC1031360236813F0080FBC
:1026500033D0A369002B5CD0434B0122C3F8802404
:10266000FFF73EFD05463F4B5B6A13F0020F21D199
:10267000FFF736FD401B0228F5D903202FE1394A28
:10268000136823F0F803616943EAC1031360DCE7D0
:10269000354B00221A60FFF723FD0546314B1B68BE
:1026A00013F0020FD1D0FFF71BFD401B0228F5D914
:1026B000032014E10120FFF701FF236813F0040F4A
:1026C00000F09680274BDB6913F0805F34D1254BF7
:1026D000DA6942F08052DA61DB6903F080530193DA
:1026E000019B0125214B1B6813F4807F26D0E368F2
:1026F000012B3DD0002B53D103F1804303F504336C
:102700001A6A22F001021A621A6A22F004021A629C
:1027100033E0154B0022C3F88024FFF7E1FC0546A7
:10272000104B5B6A13F0020FC7D0FFF7D9FC401BB8
:102730000228F5D90320D2E00025D3E70B4A13681D
:1027400043F480731360FFF7CBFC0646074B1B680E
:1027500013F4807FCBD1FFF7C3FC801B6428F5D92D
:102760000320BCE000100240000042420070004024
:102770005F4A136A43F001031362E36833B3FFF760
:10278000AFFC06465A4B1B6A13F0020F2FD1FFF71E
:10279000A7FC801B41F288339842F3D903209EE0C6
:1027A000052B09D0524B1A6A22F001021A621A6AEA
:1027B00022F004021A62E0E74D4B1A6A42F004026A
:1027C0001A621A6A42F001021A62D6E7FFF788FC21
:1027D0000646474B1B6A13F0020F08D0FFF780FC38
:1027E000801B41F288339842F3D9032077E0E5B9A2
:1027F000E369002B72D03E4A526802F00C02082AAC
:1028000056D0022B17D03B4B00221A66FFF768FC0C
:102810000446374B1B6813F0007F47D0FFF760FC7E
:10282000001B0228F5D9032059E0314AD36923F06F
:102830008053D361DCE72F4B00221A66FFF750FC70
:1028400005462B4B1B6813F0007F06D0FFF748FCB2
:10285000401B0228F5D9032041E0236AB3F5803FED
:102860001AD023494B6823F47413226A606A024326
:1028700013434B601F4B01221A66FFF731FC0446DD
:102880001B4B1B6813F0007F0ED1FFF729FC001BC8
:102890000228F5D9032022E0154A536823F40033B7
:1028A000A1680B435360DCE7002018E0002016E02D
:1028B000012B16D00E4B5B6803F48031226A9142E3
:1028C00011D103F47013626A93420ED1002006E026
:1028D00001207047012002E0012000E0002002B04A
:1028E00070BD0120FBE70120F9E70120F7E700BFF9
:1028F00000100240000042420F4B5B6803F00C02E4
:10290000082A01D00D487047C3F383420C49885C04
:1029100013F4803F0BD0084B5B68C3F34043094A74
:10292000D35C064A02FB00F0B0FBF3F07047064BA5
:1029300003FB00F0704700BF0010024000127A0055
:10294000885500089855000800093D00002800F04F
:10295000A08070B50D460446524B1B6803F0070378
:102960008B420BD24F4A136823F007030B431360CB
:10297000136803F007038B4240F08D80236813F047
:10298000020F17D013F0040F04D0474A536843F4E2
:10299000E0635360236813F0080F04D0424A536881
:1029A00043F460535360404A536823F0F003A16836
:1029B0000B435360236813F0010F31D06368012B80
:1029C00020D0022B25D0384A126812F0020F64D0B2
:1029D00035494A6822F0030213434B60FFF780FB3E
:1029E0000646314B5B6803F00C036268B3EB820F61
:1029F00016D0FFF775FB801B41F288339842F0D95F
:102A0000032045E0284A126812F4003FE0D101207B
:102A10003EE0254A126812F0007FD9D1012037E04C
:102A2000204B1B6803F00703AB420AD91D4A136809
:102A300023F007032B431360136803F00703AB4233
:102A40002DD1236813F0040F06D0174A536823F4DE
:102A5000E063E1680B435360236813F0080F07D06D
:102A6000114A536823F46053216943EAC103536058
:102A7000FFF742FF0C4B5B68C3F303130B4AD35CB5
:102A8000D8400B4B18600B4B1868FEF7B1F90020CB
:102A900070BD012070470120FAE70120F8E701200E
:102AA000F6E700BF00200240001002406C5400080E
:102AB0000000002010000020014B1868704700BF84
:102AC0000000002008B5FFF7F7FF044B5B68C3F375
:102AD0000223034AD35CD84008BD00BF0010024067
:102AE0007C54000808B5FFF7E7FF044B5B68C3F3AD
:102AF000C223034AD35CD84008BD00BF0010024087
:102B00007C5400080F2303600B4B5A6802F0030249
:102B100042605A6802F0F00282605A6802F4E06291
:102B2000C2605B68DB0803F4E0630361034B1B686E
:102B300003F007030B6070470010024000200240C2
:102B40007047000090F83D30DBB2012B27D1022303
:102B500080F83D300268D36843F00103D360036816
:102B6000114A934210D0B3F1804F0DD0A2F59432A8
:102B7000934209D002F58062934205D01A6842F070
:102B800001021A60002070479A6802F00702062AC4
:102B900007D01A6842F001021A6000207047012035
:102BA00070470020704700BF002C014070477047FD
:102BB0007047704710B5044603681A6912F0020F97
:102BC00011D0DA6812F0020F0DD06FF002021A6114
:102BD0000123037703689B6913F0030F70D0FFF79D
:102BE000E6FF0023237723681A6912F0040F12D03E
:102BF000DA6812F0040F0ED06FF004021A6102239B
:102C0000237723689B6913F4407F5FD02046FFF74A
:102C1000CEFF0023237723681A6912F0080F12D021
:102C2000DA6812F0080F0ED06FF008021A61042360
:102C300023772368DB6913F0030F4ED02046FFF79C
:102C4000B6FF0023237723681A6912F0100F12D001
:102C5000DA6812F0100F0ED06FF010021A6108231C
:102C600023772368DB6913F4407F3DD02046FFF7CC
:102C70009EFF0023237723681A6912F0010F03D007
:102C8000DA6812F0010F36D123681A6912F0800F4A
:102C900003D0DA6812F0800F34D123681A6912F079
:102CA000400F03D0DA6812F0400F32D123681A695E
:102CB00012F0200F03D0DA6812F0200F30D110BDCF
:102CC000FFF774FF2046FFF773FF8AE72046FFF700
:102CD0006DFF2046FFF76CFF9BE72046FFF766FF7E
:102CE0002046FFF765FFACE72046FFF75FFF204671
:102CF000FFF75EFFBDE76FF001021A612046FDF7A6
:102D0000C1FEC1E76FF080021A61204600F077F83B
:102D1000C3E76FF040021A612046FFF74AFFC5E79C
:102D20006FF020021A61204600F068F8C7E7000043
:102D300003681B4A90420AD0B0F1804F07D0A2F539
:102D40009432904203D002F58062904203D123F086
:102D500070034A681343124A90420AD0B0F1804F80
:102D600007D0A2F59432904203D002F580629042DF
:102D700003D123F44073CA68134323F080034A69E4
:102D8000134303608B68C3620B688362044B9842F1
:102D900002D00123436170470B690363F9E700BF69
:102DA000002C014040B310B5044690F83D30F3B11B
:102DB000022384F83D30214651F8040BFFF7B8FF99
:102DC000012384F8463084F83E3084F83F3084F89C
:102DD000403084F8413084F8423084F8433084F83D
:102DE000443084F8453084F83D30002010BD80F830
:102DF0003C30FFF7A5FEDBE70120704770477047C6
:102E0000026802F10C0353E8003F23F490730C3284
:102E100042E800310029F3D1026802F1140353E8BB
:102E2000003F23F00103143242E800310029F3D1BE
:102E3000036B012B05D0202380F84230002303636D
:102E40007047026802F10C0353E8003F23F01003BF
:102E50000C3242E800310029F3D1ECE790F8413020
:102E6000DBB2212B01D0022070478368B3F5805F6D
:102E700017D0036A5A1C02621A7803685A60C38C1E
:102E80009BB2013B9BB2C3844BB90268D36823F069
:102E90008003D3600268D36843F04003D36000200E
:102EA00070470369002BE4D1036A1B880268C3F3EF
:102EB00008035360036A02330362E0E710B5044677
:102EC0000268136923F44053C1680B43136183689C
:102ED0000269134342691A430168CB6823F4B05373
:102EE00023F00C031343CB600268536923F440734F
:102EF00081690B4353610268134B9A4220D0FFF75C
:102F0000E1FD024602EB820202EB820263689B0053
:102F1000B2FBF3F20D48A0FB02314909642303FB25
:102F200011231B013233A0FB03235B0903F0F002E2
:102F300002EB011203F00F03216813448B6010BDF4
:102F4000FFF7D0FD0246DDE7003801401F85EB5159
:102F50002DE9F84305460F4616469946DDF82080D0
:102F60002C68246837EA04030CBF4FF0010C4FF0C3
:102F7000000CB4452DD1B8F1FF3FF1D0B8F1000FEE
:102F800005D0FFF7ADF8A0EB09004045E8D92A6865
:102F900002F10C0353E8003F23F4D0730C3242E8F3
:102FA00000310029F3D12A6802F1140353E8003FED
:102FB00023F00103143242E800310029F3D1202329
:102FC00085F8413085F84230002385F840300320F1
:102FD00000E00020BDE8F88360B310B5044690F827
:102FE000413013B3242384F841302268D36823F49A
:102FF0000053D3602046FFF761FF2268136923F472
:10300000904313612268536923F02A0353612268B5
:10301000D36843F40053D36000206064202384F815
:10302000413084F84230606310BD80F84030FDF7D5
:10303000A5FFD7E7012070472DE9F04182B01E4679
:1030400090F84130DBB2202B4BD104460D46904620
:1030500000294AD00AB9012044E000234364212317
:1030600080F84130FFF73CF80746A4F82480A4F824
:103070002680A368B3F5805F02D04FF000080FE010
:103080002369FBB14FF000080AE038F8023B2268E0
:10309000C3F308035360E28C92B2013A92B2E28425
:1030A000E38C9BB28BB100963B46002280212046E8
:1030B000FFF74EFFD8B9002DE7D015F8012B236894
:1030C0005A60E8E7A8460025EAE700963B4600225A
:1030D00040212046FFF73CFF58B9202384F84130B7
:1030E00000E0022002B0BDE8F0810120FAE70320F1
:1030F000F8E70320F6E7704708B50168CA6822F0D0
:103100004002CA60202280F84120FFF7F4FF00202F
:1031100008BD704708B5406A0023C385C384FFF724
:10312000F8FF08BD704790F84230DBB2222B69D11E
:103130008368B3F5805F4FD0826AB3F5805F04D0B7
:10314000002B56D10369002B53D103685B681370C1
:10315000836A01338362C38D9BB2013B9BB2C385FB
:10316000002B51D100B583B00268D36823F020034F
:10317000D3600268D36823F48073D3600268536914
:1031800023F001035361202380F84230002343637E
:10319000036B012B33D100230363026802F10C039C
:1031A00053E8003F23F010030C3242E800310029BD
:1031B000F3D103681A6812F0100F06D000220192B2
:1031C0001A6801925B680193019B818DFFF7AAFF4A
:1031D000002003B05DF804FB0269002AACD1826ACA
:1031E00003685B68C3F308031380836A0233836256
:1031F000B1E703685B6803F07F031370A8E7FDF78E
:1032000071FFE5E7022070470020704730B583B0BA
:10321000044602681368D068516913F00F0505D1A0
:1032200013F0200F02D010F0200F19D12DB111F0A2
:10323000010119D110F4907F16D1216B01297DD0A5
:1032400013F0800F03D010F0800F40F0188113F0BE
:10325000400F03D010F0400F40F0158103B030BD97
:103260002046FFF760FFF9E713F0010F06D010F4D6
:10327000807F03D0626C42F00102626413F0040F9D
:1032800004D019B1626C42F00202626413F0020FC2
:1032900004D019B1626C42F00402626413F0080FAA
:1032A00007D010F0200F00D119B1626C42F0080273
:1032B0006264626C002AD1D013F0200F02D010F0AB
:1032C000200F29D123685B6903F04003626C12F080
:1032D000080F00D163B32046FFF792FD23685B69B6
:1032E00013F0400F20D0226802F1140353E8003F8E
:1032F00023F04003143242E800310029F3D1E36B9C
:1033000073B1634A5A63E06BFEF76CFF0028A5D0E7
:10331000E06B436B9847A1E72046FFF704FFD1E736
:103320002046FFF7F6FE99E72046FFF7F2FE95E705
:103330002046FFF7EEFE002363648FE713F0100FC3
:103340003FF47EAF10F0100F3FF47AAF00230193EB
:103350001368019353680193019B536913F0400F65
:1033600051D0E26B13685B689BB2002B3FF476AFE1
:10337000A18D99427FF672AFE3859369202B37D0F8
:10338000226802F10C0353E8003F23F480730C32EF
:1033900042E800310029F3D1226802F1140353E816
:1033A000003F23F00103143242E800310029F3D139
:1033B000226802F1140353E8003F23F04003143263
:1033C00042E800310029F3D1202384F84230002361
:1033D0002363226802F10C0353E8003F23F010033B
:1033E0000C3242E800310029F3D1E06BFEF7D6FE43
:1033F00002236363A18DE38D9BB2C91A89B2204673
:10340000FFF790FE2AE7A18DE38D9BB2C91A89B21E
:10341000E38D9BB2002B3FF421AF00293FF41EAF98
:10342000226802F10C0353E8003F23F490730C323E
:1034300042E800300028F3D1226802F1140353E877
:10344000003F23F00103143242E800300028F3D19A
:10345000202384F8423000232363226802F10C0306
:1034600053E8003F23F010030C3242E800300028FC
:10347000F3D1022363632046FFF754FEEEE62046B5
:10348000FFF7ECFCEAE62046FFF736FEE6E600BF73
:103490001531000881628285C2850023436422239E
:1034A00080F84230036923B10268D36843F4807323
:1034B000D3600268536943F0010353610268D36823
:1034C00043F02003D3600020704708B590F84230E5
:1034D000DBB2202B08D149B10AB9012008BD002375
:1034E0000363FFF7D7FFF9E70220F7E70120F5E7CD
:1034F000842801D0033070470020704708B501F0E0
:10350000E5F9002008BD2DE9F04387B004460F46D9
:103510004569BDB18669AEB1D0F80480D0F800909D
:10352000B0F90800FFF7E4FF0296019500903B46D2
:1035300022694946404601F05BF90590059807B0BD
:10354000BDE8F08365682668D4F81080B4F90800F7
:10355000FFF7CEFF05AB019300903B461FFA88F2C0
:103560003146284601F07EF90128E7D00020E6E741
:1035700008B500B9012001F0F3FA002008BD1AB91E
:10358000084206D11046704731EA000303D00020FC
:103590007047012070470120704738B51C2000F0AB
:1035A0000BFB044628B1002540F8045B00F0F0F85E
:1035B0002576204638BD2DE9F84378B10C461646ED
:1035C0001D46074611F07F4811D04FF0500383F39A
:1035D0001188BFF36F8FBFF34F8FFEE74FF050039B
:1035E00083F31188BFF36F8FBFF34F8FFEE741B9AD
:1035F0004FF0500383F31188BFF36F8FBFF34F8FEA
:10360000FEE701F041FC50B9089B43B14FF0500375
:1036100083F31188BFF36F8FBFF34F8FFEE701F085
:103620008FF9D7F800902A4621464846FFF7A7FFB2
:10363000F0B116B129EA04033B6001F015FAB8F1C4
:10364000000F12D048B94FF0E0234FF08052C3F87A
:10365000042DBFF34F8FBFF36F8F01F03DFD814607
:1036600010F0007F1AD029F07F494846BDE8F88362
:10367000089B83B166B941460DB141F08061089A5B
:103680002143381D01F0F6FAC146DDF82080D4E769
:103690004FF08071F0E7DDF82080CEE700F012F9FE
:1036A000D7F800902A4621464846FFF768FF18B130
:1036B00016B129EA04043C6000F026F9D3E770B1A2
:1036C00070B50C46054611F07F4F11D04FF05003F6
:1036D00083F31188BFF36F8FBFF34F8FFEE74FF077
:1036E000500383F31188BFF36F8FBFF34F8FFEE753
:1036F00000F0E8F82E6826EA04042C6000F004F9D3
:10370000304670BDF8B568B10D46044611F07F47EC
:1037100011D04FF0500383F31188BFF36F8FBFF3C5
:103720004F8FFEE74FF0500383F31188BFF36F8F85
:10373000BFF34F8FFEE700F10C0601F001F920699D
:1037400023682B4323600AE0216832EA010105D196
:1037500011E0216841F0007101F0FEFA2846B04204
:103760000ED04568036823F07F4213F0806FEBD1E1
:1037700021681142F2D013F0807FEAD01743E8E7C6
:10378000236823EA0703236001F06EF92068F8BD7F
:1037900000F1080343604FF0FF328260C3600361B1
:1037A00000230360704700230361704743684B6048
:1037B0009A688A6051609960086103680133036008
:1037C000704730B40D68B5F1FF3F11D000F1080328
:1037D0001C465B681A68AA42FAD963684B60996014
:1037E0008C606160086103680133036030BC70471E
:1037F0000469F2E70369416882688A604168516040
:103800005A68824206D0002202611A68013A1A60A0
:103810001868704782685A60F5E7000082B000239C
:1038200001930D4B1B68B3F1FF3F08D04FF05003DD
:1038300083F31188BFF36F8FBFF34F8FFEE74FF015
:10384000500383F31188BFF36F8FBFF34F8F019B3A
:10385000002BFCD002B0704714000020064800681E
:10386000006880F3088862B661B6BFF34F8FBFF37C
:103870006F8F00DF00BF000008ED00E04FF08073A5
:1038800040F8043C21F0010140F8081C034B40F8CB
:103890000C3C40F8202C4038704700BF1D38000811
:1038A000074B19680868B0E8F00F80F30988BFF388
:1038B0006F8F4FF0000080F311884EF00D0E7047AF
:1038C000083500204FF0500383F31188BFF36F8F4A
:1038D000BFF34F8F0B4A136801331360012B00D0E5
:1038E00070474FF0E023D3F8043D13F0FF0FF7D0FB
:1038F0004FF0500383F31188BFF36F8FBFF34F8FE7
:10390000FEE700BF14000020094B1B6843B94FF0CD
:10391000500383F31188BFF36F8FBFF34F8FFEE720
:10392000013B034A13600BB983F31188704700BF52
:103930001400002000000000000000000000000053
:10394000EFF30980BFF36F8F0D4B1A6820E9F00F7A
:1039500010602DE908404FF0500080F3118801F00D
:1039600025F94FF0000080F31188BDE80840196880
:103970000868B0E8F00F80F30988BFF36F8F7047D5
:103980000835002008B54FF0500383F31188BFF3CA
:103990006F8FBFF34F8F00F0DBFF28B14FF0E023B4
:1039A0004FF08052C3F8042D002383F3118808BD23
:1039B0004FF0E022002313619361054B1B6805491A
:1039C000A1FB03139B09013B53610723136170475C
:1039D00000000020D34D621010B582B02A4B1A7837
:1039E000D2B20192FF221A701B78DBB28DF803303D
:1039F0009DF8033003F05003244A1370244B072230
:103A00001A6009E0224A1368013B13609DF80330F5
:103A10005B00DBB28DF803309DF8033013F0800FAC
:103A2000F0D11B4B1B68032B08D04FF0500383F3DE
:103A30001188BFF36F8FBFF34F8FFEE71B02144A4D
:103A4000136003F4E0631360019BDBB20E4A137052
:103A50004FF0E023D3F8202D42F47002C3F8202D5C
:103A6000D3F8202D42F07042C3F8202DFFF7A0FFBD
:103A70000024084B1C60FFF7F1FE01F097F8FFF7F8
:103A8000CDFE204602B010BD00E400E0E8080020B2
:103A9000EC08002014000020EFF305830F2B0FD952
:103AA000114A9B5CDBB2114A12789A4208D94FF056
:103AB000500383F31188BFF36F8FBFF34F8FFEE77F
:103AC0004FF0E023D3F80C3D03F4E063084A12689A
:103AD000934208D94FF0500383F31188BFF36F8FDF
:103AE000BFF34F8FFEE77047F0E300E0E8080020E7
:103AF000EC080020124A12F0070F1ED0D11D21F051
:103B00000701C1F5305313440A460E4802600021F4
:103B100041601344083B23F007030B4803605960DE
:103B20001960991A51601360084B1960084B1960AD
:103B3000084B4FF000421A6070474FF43053E4E7EF
:103B4000F408002000350020F0080020FC3400209C
:103B5000F8340020F4340020154B1A461B688342C9
:103B6000FBD3516802EB010C844509D0416800EB9E
:103B7000010C634509D00360904218D01060704773
:103B80004068014451601046F0E710B4094C2468C5
:103B9000A3420AD05B681944416013681B68036044
:103BA000904200D0106010BC70470460F8E7704786
:103BB00000350020F008002070B5054600F0C0FE7A
:103BC000344B1B68A3B1344B1B681D424AD135B13D
:103BD000083515F0070F02D025F007050835002D30
:103BE00042D02E4B1B68AB424DD32D4A146804E0E3
:103BF000FFF780FFE7E722461C466368AB4202D22C
:103C00002368002BF7D1234B1B68A3423DD01668D5
:103C100008362368136063685B1B102B10D960198A
:103C200010F0070F08D04FF0500383F31188BFF353
:103C30006F8FBFF34F8FFEE743606560FFF78CFF28
:103C4000626816490B689B1A0B60164909688B421B
:103C500001D214490B60104B1B68134363600023AF
:103C6000236002E0002600E0002600F0FDFE16F0D2
:103C7000070F0CD04FF0500383F31188BFF36F8F01
:103C8000BFF34F8FFEE70026EFE70026EDE7304653
:103C900070BD00BFF0080020F4340020F83400208C
:103CA00000350020FC34002080B338B50446A0F174
:103CB000080550F8043C164A1268134208D14FF028
:103CC000500383F31188BFF36F8FBFF34F8FFEE76D
:103CD00050F8081C41B14FF0500383F31188BFF333
:103CE0006F8FBFF34F8FFEE723EA020340F8043CD7
:103CF00000F026FE54F8041C064A13680B441360B7
:103D00002846FFF729FF00F0AFFE38BD704700BF1F
:103D1000F4340020F83400200346406A18B11B6BCD
:103D20001868C0F10700704710B50446FFF7CAFDD8
:103D3000A26BE36B9A4204D00024FFF7E5FD204616
:103D400010BD0124F9E710B50446FFF7BBFDA36BD6
:103D500023B90124FFF7D8FD204610BD0024F9E760
:103D600070B504461546866B026C5AB903681BB1E0
:103D700000200136A66370BD406801F0F3F800230F
:103D80006360F6E76DB98068FCF7E2F9226CA3681E
:103D90001344A3606268934219D32368A360284642
:103DA000E7E7C068FCF7D4F9226C5142E3689B1A3C
:103DB000E3602268934202D263680B44E360022D01
:103DC00001D00020D5E726B1013E0020D1E72846EA
:103DD000CFE70020CDE708B50346026C62B1084684
:103DE000D9681144D960D3F804C0614501D319687A
:103DF000D960D968FCF7ACF908BD38B50546FFF7BE
:103E000061FD95F8454064B201E0013C64B2002CCC
:103E10000ADD6B6A43B105F1240000F057FF00286A
:103E2000F3D001F02BF8F0E7FF2385F84530FFF7DA
:103E30006BFDFFF747FD95F8444064B201E0013C9B
:103E400064B2002C0ADD2B6943B105F1100000F0CB
:103E50003DFF0028F3D001F011F8F0E7FF2385F8CB
:103E60004430FFF751FD38BD38B5E0B10D4604468A
:103E7000FFF728FD2368E26B216C01FB02306060D4
:103E80000020A063A360013A02FB0133E360FF233B
:103E900084F8443084F84530FDB9236963B9FFF7ED
:103EA00033FD012038BD4FF0500383F31188BFF379
:103EB0006F8FBFF34F8FFEE704F1100000F006FF95
:103EC0000028ECD04FF0E0234FF08052C3F8042DCF
:103ED000BFF34F8FBFF36F8FE1E704F11000FFF7DF
:103EE00057FC04F12400FFF753FCD8E710B5034654
:103EF00002980C4631B90060C36304640121FFF7E6
:103F0000B3FF10BD0260F7E740B94FF0500383F3F1
:103F10001188BFF36F8FBFF34F8FFEE7F0B583B00B
:103F20000C4615460746A1B101FB00F04830FFF7EB
:103F300043FE064650B1002380F8463000902B46E1
:103F400000F1480221463846FFF7D0FF304603B063
:103F5000F0BD0846EAE7F0B585B0019288B10F469A
:103F60001D460446B1B1022D20D1E36B012B1DD0BB
:103F70004FF0500383F31188BFF36F8FBFF34F8F60
:103F8000FEE74FF0500383F31188BFF36F8FBFF349
:103F90004F8FFEE7036C002BE5D04FF0500383F307
:103FA0001188BFF36F8FBFF34F8FFEE700F06CFFF8
:103FB000064658B9019B002B48D04FF0500383F3BD
:103FC0001188BFF36F8FBFF34F8FFEE700263DE0F0
:103FD0002A4639462046FFF7C3FE636A7BB948B1DB
:103FE0004FF0E0234FF08052C3F8042DBFF34F8F02
:103FF000BFF36F8FFFF788FC012005B0F0BD04F11F
:10400000240000F063FE0028F4D04FF0E0234FF0CE
:104010008052C3F8042DBFF34F8FBFF36F8FE9E7D2
:10402000FFF772FC0020E8E702A800F0D9FE0126A5
:1040300019E0002384F8443021E0002384F845305F
:1040400023E02046FFF7D9FE00F00EFDFFF73AFC13
:10405000A26BE36B9A42BBD3022DB9D0019B002B1C
:10406000DED0002EE0D0FFF74FFC00F069FCFFF738
:1040700029FC94F8442052B2B2F1FF3FD9D094F811
:10408000452052B2B2F1FF3FD7D0FFF73DFC01A966
:1040900002A800F0B1FED8B92046FFF745FE00287F
:1040A000CFD0019904F1100000F0CCFD2046FFF7BD
:1040B000A4FE00F0D9FC0028C8D14FF0E0234FF057
:1040C0008052C3F8042DBFF34F8FBFF36F8FBDE74E
:1040D0002046FFF792FE00F0C7FC00208DE748B1B4
:1040E00008B5002141600160C1600B460A46FFF738
:1040F00032FF08BD704710B5024600210120FFF7CE
:1041000003FF0446FFF7EBFF204610BD2DE9F843FF
:1041100090B10F4616461C460546B1B1022C20D17F
:10412000EB6B012B1DD04FF0500383F31188BFF3CD
:104130006F8FBFF34F8FFEE74FF0500383F311886B
:10414000BFF36F8FBFF34F8FFEE7036C002BE5D0FB
:104150004FF0500383F31188BFF36F8FBFF34F8F7E
:10416000FEE7FFF799FCEFF311894FF0500383F35B
:104170001188BFF36F8FBFF34F8FAA6BEB6B9A421F
:1041800006D3022C04D0002089F31188BDE8F883FF
:1041900095F845804FFA88F8224639462846FFF7B9
:1041A000DFFDB8F1FF3F06D008F101035BB285F8EF
:1041B00045300120E8E76B6A0BB90120E4E705F11F
:1041C000240000F083FD18B126B101203060DBE748
:1041D0000120D9E70120D7E7F0B585B0019290B171
:1041E0000F460446C1B100F04FFE064600BB019BDE
:1041F000002B5ED04FF0500383F31188BFF36F8F15
:10420000BFF34F8FFEE74FF0500383F31188BFF3E6
:104210006F8FBFF34F8FFEE7036C002BE3D04FF09F
:10422000500383F31188BFF36F8FBFF34F8FFEE707
:1042300000263EE039462046FFF7CDFD013DA5634F
:10424000236923B9FFF760FB012005B0F0BD04F13D
:10425000100000F03BFD0028F4D04FF0E0234FF0B9
:104260008052C3F8042DBFF34F8FBFF36F8FE9E780
:10427000FFF74AFB0020E8E702A800F0B1FD0126A5
:1042800021E0002384F8443029E0002384F84530FD
:104290002BE02046FFF7B1FD00F0E6FB09E02046E9
:1042A000FFF7ABFD00F0E0FB2046FFF74CFD0028D8
:1042B0003FD1FFF707FBA56B002DBBD1019B002B66
:1042C000D6D0002ED8D0FFF71FFB00F039FBFFF748
:1042D000F9FA94F844305BB2B3F1FF3FD1D094F8CF
:1042E00045305BB2B3F1FF3FCFD0FFF70DFB01A923
:1042F00002A800F081FD0028D1D12046FFF723FD60
:104300000028C6D0019904F1240000F09BFC20464F
:10431000FFF773FD00F0A8FB0028CAD14FF0E0239F
:104320004FF08052C3F8042DBFF34F8FBFF36F8F50
:10433000BFE7002089E770B584B0019158B1044609
:10434000036C8BB14FF0500383F31188BFF36F8F71
:10435000BFF34F8FFEE74FF0500383F31188BFF395
:104360006F8FBFF34F8FFEE700F08EFD054650B90B
:10437000019B5BB14FF0500383F31188BFF36F8F44
:10438000BFF34F8FFEE70026354655E0064653E063
:10439000013BA36323683BB123694BB9FFF7B4FA30
:1043A0000126304604B070BD00F0A2FE6060F3E765
:1043B00004F1100000F08AFC0028EFD04FF0E02359
:1043C0004FF08052C3F8042DBFF34F8FBFF36F8FB0
:1043D000E4E746B14FF0500383F31188BFF36F8FCA
:1043E000BFF34F8FFEE7FFF78FFADAE702A800F07E
:1043F000F7FC01252AE0002384F8443032E0002352
:1044000084F8453034E0FFF75DFA606800F04CFD59
:104410000646FFF779FA3BE02046FFF7EEFC00F096
:1044200023FB09E02046FFF7E8FC00F01DFB2046D7
:10443000FFF789FC002842D1FFF744FAA36B002B59
:10444000A6D1019B002BC4D0002DCFD0FFF75CFA82
:1044500000F076FAFFF736FA94F844305BB2B3F125
:10446000FF3FC8D094F845305BB2B3F1FF3FC6D0F0
:10447000FFF74AFA01A902A800F0BEFC0028D1D13A
:104480002046FFF760FC0028C6D02368002BBAD076
:10449000019904F1240000F0D5FB2046FFF7ADFCA4
:1044A00000F0E2FA0028C7D14FF0E0234FF080522D
:1044B000C3F8042DBFF34F8FBFF36F8FBCE70EB966
:1044C00000266EE7FFF7FEF92046FFF725FC0146C0
:1044D000606800F0A1FDFFF717FAF1E7084B1B68D1
:1044E0001B6823B9074B4FF0FF321A607047044B2B
:1044F0001B68DB68DB685A68024B1A60704700BFB4
:104500000C350020E43500202DE9F0470746984699
:10451000089DDDF824900A9C266B02F18042013A46
:1045200006EB820626F007064FF0000CBCF10F0FD9
:104530000BD811F80C2004EB0C0383F8342011F88D
:104540000C3013B10CF1010CF0E7002384F8433078
:10455000062D00D90625E56265644FF0000AC4F80F
:1045600048A0201DFFF71FF904F11800FFF71BF901
:104570002461C5F10705A5616462C4F84CA084F804
:1045800050A0424639463046FFF778F92060B9F12D
:10459000000F01D0C9F80040BDE8F08738B500240D
:1045A00007E004EB840293000E481844FFF7F0F88C
:1045B0000134062CF5D90C4D2846FFF7E9F80B4CD1
:1045C0002046FFF7E5F80A48FFF7E2F80948FFF749
:1045D000DFF80948FFF7DCF8084B1D60084B1C604A
:1045E00038BD00BF14350020B8350020CC35002080
:1045F000EC35002018360020043600200C35002051
:104600001035002010B50446FFF75CF9214A136805
:1046100001331360204B1B685BB1204B1B686BB9E7
:104620001D4B1B68DA6AE36A9A4207D81A4B1C6072
:1046300004E0194B1C601368012B28D0184A13683A
:1046400001331360E06A01238340164A11680B436B
:10465000136000EB8000211D134B03EB8000FFF77C
:10466000A5F8FFF751F90D4B1B687BB10A4B1B688E
:10467000DA6AE36A9A4209D24FF0E0234FF080529F
:10468000C3F8042DBFF34F8FBFF36F8F10BDFFF73B
:1046900085FFD3E7A0350020083500200036002034
:1046A000B0350020B43500201435002010B5044684
:1046B00090F8513063B1012B11D0022B0ED04FF086
:1046C000500383F31188BFF36F8FBFF34F8FFEE763
:1046D000006BFFF7E9FA2046FFF7E6FA10BDFFF797
:1046E000E3FAFBE70F4B1B68D3B110B5FFF7EAF80D
:1046F0000D4BDB68DC68201DFFF77CF80B4A136864
:10470000013B1360074A1368013B1360FFF7FCF895
:104710002046FFF7CBFF034B1B68002BE6D110BDF3
:10472000704700BFA435002018360020A0350020B7
:1047300008B5FFF7D7FF074B1B68012BF9D94FF0DE
:10474000E0234FF08052C3F8042DBFF34F8FBFF327
:104750006F8FEEE71435002070B504460D461D4BF3
:104760001E681D4B18680430FFF744F850B91A4B07
:104770001B68DA6A012303FA02F218490B6823EA7C
:1047800002030B60B4F1FF3F0DD03444124B1B68A1
:104790005C60A64210D9124B18680F4B196804319F
:1047A000FFF70FF870BD002DEFD00B4B19680431E7
:1047B0000C48FEF7FBFFF5E70B4B1868064B196832
:1047C0000431FEF7FEFF094B1B68A342EAD9074BF1
:1047D0001C60E7E72C36002008350020B4350020A7
:1047E00010350020043600200C350020E435002070
:1047F00030B587B00B9C7CB10C9DB5B154250495A8
:10480000049D542D1AD04FF0500383F31188BFF349
:104810006F8FBFF34F8FFEE74FF0500383F3118884
:10482000BFF36F8FBFF34F8FFEE74FF0500383F35B
:104830001188BFF36F8FBFF34F8FFEE70C9D2C6382
:10484000022485F8514000240394029505AC01949C
:104850000A9C0094FFF758FE0C98FFF7D3FE0598CA
:1048600007B030BD2DE9F04385B0074688461446B1
:104870001E469000FFF7A0F900B381465420FFF7D1
:104880009BF90546B0B1C0F83090E5B1002385F83A
:104890005130039302950D9B01930C9B009333467B
:1048A000224641463846FFF72FFE2846FFF7AAFE6C
:1048B000012005E04846FFF7F7F9E6E74FF0FF3043
:1048C00005B0BDE8F0834FF0FF30F9E710B588B0D0
:1048D00000240594069407AA06A905A8FBF7A0FDE5
:1048E000059B0293069B019300942346079A0E4969
:1048F0000E48FFF77DFF0E4B186090B14FF050034C
:1049000083F31188BFF36F8FBFF34F8F094B4FF0C5
:10491000FF321A60084B01221A60084B1C60FFF737
:104920005BF808B010BD00BF9C5500083147000877
:10493000E0350020E4350020003600202C36002031
:10494000024A136801331360704700BFAC35002082
:10495000F8B53A4B1B68002B64D1394B1D68013503
:104960001D60C5B9374B1B681B6843B14FF050033E
:1049700083F31188BFF36F8FBFF34F8FFEE7314A88
:104980001168314B186810601960304A13680133A0
:104990001360FFF7A3FD2E4B1B68AB4238D90027ED
:1049A0002C4B1B68DB6A03EB83039A002A4B9B5852
:1049B000012B3CD901273AE00127224B1B681B68D9
:1049C00043B3204B1B68DB68DC6863689D4226D3D9
:1049D000261D3046FEF70EFFA36A1BB104F1180036
:1049E000FEF708FFE36A01229A401C490868024367
:1049F0000A6003EB83039A00314617481044FEF720
:104A0000D5FEE26A134B1B68DB6A9A42D4D2D4E724
:104A10000027D2E70E4B4FF0FF321A60C0E70C4A76
:104A20001360BDE70E4A13680133136000270D4B76
:104A30001B6803B101273846F8BD00BFAC35002024
:104A40002C3600200C35002010350020E8350020E1
:104A5000E43500200835002014350020B43500204E
:104A6000A83500203036002038B5354B1B6843B9D7
:104A70004FF0500383F31188BFF36F8FBFF34F8F55
:104A8000FEE7FEF71FFF2E4B1A68013A1A601B68FB
:104A9000002B4FD12B4B1B680BB900244BE000249B
:104AA000294B1B681BB3284BDB68DC6804F118003A
:104AB000FEF7A0FE251D2846FEF79CFEE06A0123B6
:104AC0008340224A11680B43136000EB80002946A3
:104AD0001F4B03EB8000FEF769FEE26A1D4B1B686B
:104AE000DB6A9A42DCD31C4B01221A60D8E70CB176
:104AF000FFF7F4FC194B1C6884B9174B1C68D4B140
:104B00004FF0E0234FF08052C3F8042DBFF34F8FD6
:104B1000BFF36F8F01240EE0013C07D0FFF718FFB1
:104B20000028F9D00C4B01221A60F5E70B4B00224C
:104B30001A60E2E70024FEF7E7FE204638BD00BF1A
:104B4000AC350020A0350020EC350020B435002025
:104B5000143500200835002030360020A83500200C
:104B600010B5A8B10446104B1B6843B14FF0500379
:104B700083F31188BFF36F8FBFF34F8FFEE7FFF70B
:104B8000DFFE00212046FFF7E7FDFFF76DFF48B984
:104B90004FF0E0234FF08052C3F8042DBFF34F8F46
:104BA000BFF36F8F10BD00BFAC350020204B1B68DA
:104BB0001BB1204B01221A6070471E4B00221A6065
:104BC0001D4B1B68B3FA83F3DBB2C3F11F0303EB86
:104BD00083018A0019498A5842B94FF0500383F380
:104BE0001188BFF36F8FBFF34F8FFEE7134903EBBD
:104BF000830082000A4450684068506003EB830CD5
:104C00004FEA8C0208321144884209D003EB830337
:104C10009A000A4B13445B68DA68094B1A607047C4
:104C2000406862469100054A0A445060EEE700BFC2
:104C3000AC35002030360020B4350020143500207B
:104C40000835002058B110B50C46094A11681831D2
:104C5000FEF7B7FD01212046FFF77EFD10BD4FF0A6
:104C6000500383F31188BFF36F8FBFF34F8FFEE7BD
:104C70000835002070B110B514460246114B1B6870
:104C80008BB94FF0500383F31188BFF36F8FBFF3DD
:104C90004F8FFEE74FF0500383F31188BFF36F8F00
:104CA000BFF34F8FFEE7084B186841F00041816168
:104CB000196818311046FEF779FD01212046FFF7EB
:104CC0004BFD10BDAC3500200835002038B5C36859
:104CD000DC6824B304F118052846FEF78BFD184B59
:104CE0001B682BBB251D2846FEF784FDE06A0123C7
:104CF0008340144A11680B43136000EB800029467F
:104D0000114B03EB8000FEF751FDE26A0F4B1B686D
:104D1000DB6A9A4211D901200D4B186038BD4FF063
:104D2000500383F31188BFF36F8FBFF34F8FFEE7FC
:104D300029460848FEF73AFDE7E70020EEE700BF06
:104D4000AC350020B4350020143500200835002093
:104D500030360020EC35002038B51C4B1B6843B9B9
:104D60004FF0500383F31188BFF36F8FBFF34F8F62
:104D7000FEE741F000410160C468F4B1FEF73AFD7E
:104D8000251D2846FEF736FDE06A01238340104AC0
:104D900011680B43136000EB800029460D4B03EBB9
:104DA0008000FEF703FDE26A0B4B1B68DB6A9A4248
:104DB00002D90A4B01221A6038BD4FF0500383F329
:104DC0001188BFF36F8FBFF34F8FFEE7AC35002024
:104DD000B43500201435002008350020303600207E
:104DE000034B1B680360034B1B684360704700BFA5
:104DF000E83500202C360020D8B170B50C460546A9
:104E000001B3FEF75FFD1B4B19686B68C81A226877
:104E1000B2F1FF3F27D0184E3668D5F800C0B44530
:104E200001D08B4224D9824215D80023236001246B
:104E30001AE04FF0500383F31188BFF36F8FBFF375
:104E40004F8FFEE74FF0500383F31188BFF36F8F4E
:104E5000BFF34F8FFEE75B1A134423602846FFF72A
:104E6000BFFF002400E00024FEF74EFD204670BD89
:104E70000124F9E72C360020E8350020014B0122FF
:104E80001A60704730360020054B1B6833B1054B64
:104E90001B680BB10020704702207047012070474B
:104EA00000360020AC350020002851D038B504462B
:104EB000C36A294A1268D26A934241D28269002A9F
:104EC00005DB254A1268D26AC2F107028261616974
:104ED00003EB8303214A02EB8303994205D01E4B67
:104EE0001B68DB6AE362012038BD251D2846FEF7FA
:104EF00081FCA0B1184B1B68D86AE062012404FA57
:104F000000F3174A11680B43136000EB8000294639
:104F1000124B03EB8000FEF749FC2046E4E7E26A0F
:104F200002EB82039B000D49CB58002BE2D10123F9
:104F300003FA02F20A490B6823EA02030B60D9E77D
:104F4000426C054B1B68DB6A9A4203D30020CBE717
:104F5000002070470120C7E70835002014350020E5
:104F6000B435002000284CD038B50446274B1B68C8
:104F7000834208D04FF0500383F31188BFF36F8F43
:104F8000BFF34F8FFEE7836C43B94FF0500383F3B9
:104F90001188BFF36F8FBFF34F8FFEE7013B836430
:104FA000C16A426C91422ED00BB1002038BD051D64
:104FB0002846FEF71FFC70B9E26A02EB82039B00F1
:104FC0001349CB583BB9012303FA02F211490B688C
:104FD00023EA02030B60606CE062C0F10703A36187
:104FE000012404FA00F30B4A11680B43136000EB31
:104FF00080002946064B03EB8000FEF7D7FB2046D6
:10500000D4E7002070470020D0E700BF083500201B
:1050100014350020B4350020002856D038B5044699
:10502000836C43B94FF0500383F31188BFF36F8F44
:10503000BFF34F8FFEE7426C8A4200D20A46E16A14
:10504000914201D0012B00D038BD204B1B68A342F8
:1050500032D0E262A369002B02DBC2F10702A26137
:10506000626901EB81011A4B03EB81018A42EBD1AA
:10507000251D2846FEF7BEFB70B9E26A02EB8203EB
:105080009B001349CB583BB9012303FA02F21149A3
:105090000B6823EA02030B60E06A012383400D4A98
:1050A00011680B43136000EB80002946084B03EBAB
:1050B0008000FEF77BFBC7E74FF0500383F31188B6
:1050C000BFF36F8FBFF34F8FFEE7704708350020A7
:1050D00014350020B4350020044A13689869136819
:1050E000DB6A1268C3F1070393617047083500203B
:1050F000054B1B6823B1044B1A68936C013393640E
:10510000014B1868704700BF0835002070B50D4E80
:105110000D4D761BB61006D0002455F8043B013423
:105120009847A642F9D1094E094D00F003F9761BC4
:10513000B61006D0002455F8043B01349847A64227
:10514000F9D170BDA8550008A8550008B055000851
:10515000A8550008830730B548D0541E002A3FD018
:105160000346CAB201E0013C3AD303F8012B9D0784
:10517000F9D1032C2DD9CDB245EA05250F2C45EAEE
:10518000054536D9A4F1100222F00F0C03F1200ED0
:10519000E6444FEA121C03F1100242E9045542E9C9
:1051A000025510327245F8D10CF1010214F00C0FC7
:1051B00003EB021204F00F0C13D0ACF1040323F044
:1051C00003030433134442F8045B9342FBD10CF015
:1051D00003042CB1CAB21C4403F8012B9C42FBD13E
:1051E00030BD64461346002CF4D1F9E7034614465B
:1051F000BFE71A46A446E0E720F0030110F00300E1
:10520000C0F1000051F8043B00F1040C4FEACC0C53
:105210006FF000021CBF22FA0CF213434FF0010C96
:105220004CEA0C2C4CEA0C4CA3EB0C0222EA0302D5
:1052300012EACC1204BF51F8043B0430F4D0C2F19E
:10524000000102EA0102B2FA82F2C2F11F0200EB8F
:10525000D2007047024B13B1024800F005B8704706
:105260000000000075520008002301461A46184647
:1052700000F01AB838B5084B084D5B1B9C1007D0DE
:10528000043B1D44013C55F804399847002CF9D1E2
:10529000BDE8384000F054B8B4550008B0550008D7
:1052A000704700BF704700BF2DE9F047DFF87CA0D2
:1052B0000646DAF8000098460F469146FFF7F0FFE1
:1052C0001B4B1B68D3F8484124B365681F2D26DCAF
:1052D0005EB96B1C0235DAF80000636044F8257093
:1052E000FFF7E0FF0020BDE8F087012304EB850114
:1052F000C1F88890D4F88821AB401A43022EC4F834
:105300008821C1F80881E4D1D4F88C211343C4F872
:105310008C31DEE703F5A674C3F84841D5E7DAF827
:105320000000FFF7BFFF4FF0FF30DCE74004002034
:10533000A4550008F8B500BFF8BC08BC9E467047ED
:0C534000F8B500BFF8BC08BC9E467047E2
:10534C00105400083D02000800000000000000009E
:10535C008000000000000000000000001C54000849
:10536C005102000803000000000000008000000053
:10537C0000000000000000002C540008790900080F
:10538C00FFFF000000000000800000000000000093
:10539C000000000038540008710C0008FDFF0000EC
:1053AC0000000000000100000000000000000000F0
:1053BC004454000847020008FDFF000000000000F4
:1053CC0080000000000000000000000050540008A5
:1053DC0001130008FDFF0000000000008000000029
:1053EC000000000000000000605400085913000881
:1053FC00FDFF000000000000800000000000000025
:10540C000000000064656661756C745461736B0018
:10541C0055617274315265616448616E646C6500EB
:10542C004750494F5461736B000000006D757369F0
:10543C00635461736B0000006D7941534354617385
:10544C006B00000047616D65466C61675461736B5E
:10545C000000000047616D655461736B0000000033
:10546C000000000000000000010203040607080908
:10547C0000000000010203042F33312E6D70330045
:10548C002F33322E6D7033002F33332E6D7033006B
:10549C002F33342E6D7033002F35302E6D7033005A
:1054AC002F35312E6D7033002F35322E6D70330049
:1054BC002F7370392E6D7033000000002F35352E90
:1054CC006D7033002F35382E6D7033002F35392D1C
:1054DC00312E6D70330000002F36302E6D7033007E
:1054EC002F36342E6D7033002F33352E6D70330004
:1054FC002F33362E6D7033002F33372E6D703300F3
:10550C002F33382E6D7033002F33392E6D703300DE
:10551C002F34302E6D7033002F34312E6D703300DC
:10552C002F34322E6D7033002F34332E6D703300C8
:10553C002F34342E6D7033002F34352E6D703300B4
:10554C002F34362E6D7033002F35362E6D703300A0
:10555C002F35372E6D7033002F35392D322E6D705F
:10556C00330000002F36312E6D7033002F36332E62
:10557C006D7033002F36322E6D703300020304052C
:10558C00060708090A0B0C0D0E0F10100102000083
:0C559C0049444C450000000018000020AD
:0855A80055520008350100080E
:0455B00011010008DD
:1055B4000024F400130000001300000001000000A8
:1055C40010000000AAAAAAAA0000000004030020F8
:1055D4006C030020D4030020000000000000000041
:1055E40000000000000000000000000000000000B7
:1055F40000000000000000000000000000000000A7
:105604000000000000000000000000000000000096
:105614000000000000000000000000000000000086
:105624000000000000000000000000000000000076
:105634000000000000000000000000000000000066
:105644000000000000000000000000000000000056
:105654000000000000000000000000000000000046
:105664000000000000000000000000000000000036
:1056740001000000000000000E33CDAB34126DE6D3
:10568400ECDE05000B00000000000000000000003C
:105694000000000000000000000000000000000006
:1056A40000000000000000000000000000000000F6
:1056B40000000000000000000000000000000000E6
:1056C40000000000000000000000000000000000D6
:0459F4003436002025
:040000050800205976
:00000001FF
