:020000040800F2
:10000000005000202D230008F10E0008F30E000818
:10001000F50E0008F70E0008F90E000800000000B9
:10002000000000000000000000000000813B00080C
:10003000FB0E000800000000213C0008653C0008A1
:100040007523000875230008752300087523000830
:100050007523000875230008752300087523000820
:100060007523000875230008752300087523000810
:100070007523000875230008752300087523000800
:1000800075230008752300087523000875230008F0
:1000900075230008752300087523000875230008E0
:1000A00075230008752300087523000875230008D0
:1000B000FD0E00087523000875230008752300084D
:1000C00075230008752300087523000875230008B0
:1000D000752300080D0F00081D0F00082D0F0008E4
:1000E0007523000875230008752300080000000030
:1000F0000000000000000000000000000000000000
:0C01000000000000000000005FF808F1A3
:1001100010B5054C237833B9044B13B10448AFF341
:1001200000800123237010BD4C040020000000005B
:100130001456000808B5034B1BB103490348AFF33D
:10014000008008BD00000000500400201456000884
:10015000844641EA000313F0030349D1403A23D314
:100160000B6803604B6843608B688360CB68C36037
:100170000B6903614B6943618B698361CB69C3611F
:100180000B6A03624B6A43628B6A8362CB6AC36207
:100190000B6B03634B6B43638B6B8363CB6BC363EF
:1001A00040304031403ADBD230320BD30B68036031
:1001B0004B6843608B688360CB68C360103010313C
:1001C000103AF3D20C3205D351F8043B40F8043B0B
:1001D000043AF9D2043208D0D2071CBF11F8013B0F
:1001E00000F8013B01D30B8803806046704700BFD5
:1001F000082A13D38B07B1D010F00303AED0C3F19C
:100200000403D21ADB071CBF11F8013B00F8013BC5
:10021000A4D331F8023B20F8023B9FE7043AD9D33C
:10022000013A11F8013B00F8013BF9D20B78037059
:100230004B7843708B7883706046704708B5012017
:1002400003F000FBFBE708B5012003F0FBFAFBE736
:1002500000B5A7B098E09DF85430012B0FD0002BCB
:1002600040F092809DF853305A0903F01F0301219A
:100270009940624B53F8220003F08BFB84E09DF819
:1002800053305A0903F01F03012199405B4B53F887
:10029000220003F0A1FB77E09DF85330ADF8043065
:1002A0009DF85430003B18BF01238DF80630002321
:1002B0001A4601A95248006803F0BDFF012863D027
:1002C000EE238DF851304FF0FF33BDF894200DF13F
:1002D00051014C4803F01AF856E04B4B01939DF83E
:1002E00053308DF80830259A043A139215A90DF170
:1002F0000900FFF72DFF00231A4601A943480068B3
:1003000003F099FF01283FD0EE238DF851304FF0D4
:10031000FF33BDF894200DF151013A4802F0F6FF89
:1003200032E03B4B01939DF853308DF80830259A0D
:10033000043A139215A90DF10900FFF709FF0023F4
:100340001A4601A93148006803F075FF01281BD047
:10035000EE238DF851304FF0FF33BDF894200DF1AE
:100360005101284802F0D2FF0EE09DF853308DF87D
:1003700004309DF854308DF8053000231A4601A949
:100380002448006803F057FF4FF0FF3214A9224BB6
:10039000186804F091F80128F6D19DF85230013B1D
:1003A0000F2BF1D801A252F823F000BF570200082A
:1003B00099020008DB020008230300086B03000811
:1003C00089030008890300088903000889030008DD
:1003D00089030008890300088903000889030008CD
:1003E0008903000889030008ED03000800231A466A
:1003F00019460A48006803F01EFFC5E7780400208C
:100400009004002040080020880800208804002074
:10041000D00800207004002098040020A8040020C8
:10042000034B0360034B0B6080231360704700BFD6
:10043000AC060020AC04002010B5B2B0002405E0EA
:1004400003F015FA5B4B43F824000134022CF7DD6E
:1004500003F00DFA584B186000F0C6FE032200218D
:10046000012003F0C1FE554B1860002248210F20E7
:1004700003F0BAFE524B1860002248210F2003F00F
:10048000B3FE504B1860002204214FF4807003F03B
:10049000ABFE4D4B186000224C210F2003F0A4FE50
:1004A0004A4B1860002202210F2003F09DFE484BAA
:1004B0001860484C0DF1AC0CA646BEE80F00ACE845
:1004C0000F009EE807008CE8070000212BA803F02E
:1004D00084F9414B18600DF1900C04F11C0EBEE83C
:1004E0000F00ACE80F009EE807008CE80700002131
:1004F00024A803F072F9394B18600DF1740C04F163
:10050000380EBEE80F00ACE80F009EE807008CE84C
:10051000070000211DA803F060F9314B18600DF1B0
:10052000580C04F1540EBEE80F00ACE80F009EE832
:1005300007008CE80700002116A803F04EF9294BAC
:1005400018600DF13C0C04F1700EBEE80F00ACE831
:100550000F009EE807008CE8070000210FA803F0B9
:100560003CF9214B18600DF1200C04F18C0EBEE813
:100570000F00ACE80F009EE807008CE807000021A0
:1005800008A803F02AF9194B18600DF1040E04F1C4
:10059000A80CBCE80F00AEE80F009CE807008EE84E
:1005A0000700002101A803F018F9114B186032B0C0
:1005B00010BD00BF7804002084040020A80400209F
:1005C000980400208C04002090040020880400205F
:1005D000700400202C5600089C0400209404002085
:1005E00068040020A0040020A40400206C04002063
:1005F000740400202DE9F04188B00024049405948F
:10060000069407942D4B9A6942F020029A619A69E8
:1006100002F020020192019A9A6942F004029A6162
:100620009A6902F004020292029A9A6942F0080260
:100630009A619B6903F008030393039BDFF88080B2
:10064000224648F2B001404602F09BF81D4D22467A
:1006500043F2F831284602F094F8022704970594F3
:100660000126069604A9404601F072FF48F2B00345
:10067000049305960694079704A9404601F068FF85
:10068000042304930594069604A9284601F060FF0C
:1006900043F2F833049305960694079704A9284675
:1006A00001F056FF4FF4804304930594069404A987
:1006B000284601F04DFF08B0BDE8F081001002406F
:1006C00000080140000C014038B5044602784FF4A0
:1006D0000041154802F055F8144D6278082128466B
:1006E00002F04FF8A2781021284602F04AF8E2788A
:1006F0002021284602F045F822794021284602F0C0
:1007000040F862798021284602F03BF8A2794FF444
:100710008071284602F035F8E2794FF400712846DE
:1007200002F02FF838BD00BF00080140000C014066
:1007300070B506464C1E13E001228021154802F0D8
:1007400020F8144D00222021284602F01AF801203A
:1007500003F078F801222021284602F012F8013C2B
:10076000072C08DD335D002BE6D1002280210948EB
:1007700002F007F8E5E7074C00221021204602F0BE
:1007800000F8012003F05EF801221021204601F05C
:10079000F8FF70BD0008014010B50446FFF794FF54
:1007A00030212046FFF7C4FF10BD000000B583B024
:1007B000ADF804008DF8061000231A4601A903487D
:1007C000006803F038FD03B05DF804FB90040020DE
:1007D000F8B504460D46294E00224FF480513046AC
:1007E00001F0CFFF012003F02DF801224FF48051DA
:1007F000304601F0C6FF012003F024F84FF4804199
:10080000304601F0B7FFB0FA80F0400920700126B1
:1008100019E01A4F00224FF40051384601F0B1FFA1
:10082000012003F00FF801224FF40051384601F087
:10083000A8FF4FF48041384601F09CFFB0FA80F0E9
:100840004009A0550136AE42E3DB4FF0000C0FE04B
:100850000CEB030014F800E0C3F107026244A15C52
:10086000215404F802E00133032BF1DD0CF1080CF4
:10087000AC4501DA0023F7E7F8BD00BF000C0140EA
:10088000014B185C704700BF00070020044B1A5C46
:10089000044B1B5C9A4201D0012070470020704736
:1008A000000700206407002010B582B03021FFF758
:1008B0008FFF002418E02A4A82FB0432E317C3EBBF
:1008C000A20303EB4302A4EBC20201219140254A9B
:1008D00052F8230003F080F8234B1B6813BB234B13
:1008E0001A5D234B1A5501342F2C33DC2046FFF7B9
:1008F000CDFF0028F7D02046FFF7C2FF0128DAD04D
:10090000174A82FB0432E317C3EBA20303EB430253
:10091000A4EBC20201219140124A52F8230003F0D5
:1009200038F8D9E7CC238DF8003001238DF8013059
:100930008DF802402046FFF7A3FF8DF80300FF2348
:100940008DF804304FF0FF3305226946094802F064
:10095000DDFCC4E7044B01221A6002B010BD00BFE9
:10096000ABAAAA2A78040020300700200007002044
:10097000640700204008002010B584B066E0BDF890
:100980000C203B4B995C9DF80E30994266D038495B
:100990008B54CC218DF8041002218DF805108DF8B0
:1009A0000620012B14BF002301238DF80730FF23FD
:1009B0008DF808304FF0FF33052201A92D4802F0D1
:1009C000A5FC4BE001342F2C18DC2B4B1B5D012BBD
:1009D000F8D1CC238DF8043001238DF805308DF843
:1009E00006408DF80730FF238DF808304FF0FF33B5
:1009F000052201A91F4802F089FCE3E7002400E07A
:100A000001342F2C19DC1A4B1B5D012BF8D1CC23A0
:100A10008DF8043002238DF805308DF8064001234F
:100A20008DF80730FF238DF808304FF0FF33052293
:100A300001A9104802F06AFCE2E7012002F002FF7F
:100A40000B48FFF7A9FE0C48FFF72EFF002203A971
:100A50000A4B186803F030FD012890D00021084BA4
:100A6000186803F0D8FD0128E7D10024ABE700BFE8
:100A700034070020400800200007002090040020D8
:100A8000A804002008B50368B3F1804F00D008BD6A
:100A900001F084FCFBE772B6FEE700B591B02822B6
:100AA000002106A804F0C6FC0023019302930393DF
:100AB00004930593012206924FF4803307930A9220
:100AC00002220D920E934FF4E0130F9306A801F04B
:100AD00075FE80B90F230193022102910023039335
:100AE0004FF480620492059301A802F099F820B9AE
:100AF00011B05DF804FBFFF7CEFFFFF7CCFF00005D
:100B000008B501F039FCFFF7C8FFFFF773FD00F0EF
:100B100017FA00F02FFA00F047FA012209490A48B3
:100B200002F03DFE01220949094802F038FE012287
:100B30000849094802F033FEFFF77EFC02F048FE48
:100B4000FEE700BF9407002040080020B8070020FF
:100B500088080020D8070020D00800202DE9F041A7
:100B600000AF8046084611461E46DC1C0B3323F0BE
:100B70000703ADEB030D6D468DF80000C0438DF803
:100B800001008DF8026032460DF10300FFF7E0FA34
:100B900000210DF8041006E015F801C02B5D9C44FF
:100BA00005F804C00131A142F6D3321D4FF0FF33E6
:100BB00092B22946404602F0A9FBC82002F042FE4C
:100BC000BD46BDE8F0810000402A00D9704770B5ED
:100BD00094B006460D4614464C22002101A804F0AC
:100BE00029FC01960B238DF808300223139304236C
:100BF0008DF8083007238DF80930224629460DF17B
:100C00000A00FFF7A5FA0134139400231A4601A93C
:100C10000248006803F00FFB14B070BD8804002088
:100C200010B594B004464C22002101A804F002FC47
:100C3000019404238DF808300123139303238DF8C6
:100C4000093000231A4601A90248006803F0F3FAAC
:100C500014B010BD8804002010B594B004464C2296
:100C6000002101A804F0E6FB019404238DF808306C
:100C7000012313930A238DF8093000231A4601A992
:100C80000248006803F0D7FA14B010BD88040020B1
:100C900030B595B005460C464C22002101A804F061
:100CA000C9FB01950B238DF8083002231393012310
:100CB0008DF809308DF80A4000231A4601A903482F
:100CC000006803F0B8FA15B030BD00BF88040020FA
:100CD00070B5B6B00221434801F04CFD0546042131
:100CE000414801F047FD044657E0359B0DF1910264
:100CF0009DF890102398FFF731FF56E0CC238DF834
:100D000000309DF844308DF80130229E32460DF1BE
:100D100045010DF10200FFF71BFA06F1DA036B44FF
:100D2000FF2203F8D82CF21C4FF0FF3392B2694631
:100D30002E4802F0EBFA40E002212A4801F01AFDA9
:100D400000283CD101212A4B186802F022FE36E02F
:100D50000221244801F00EFD012832D10121244B4B
:100D6000186802F039FE2CE004211F4801F002FD52
:100D700048BB4FF480711E4B186802F00AFE22E057
:100D80000221184801F0F6FC05460421164801F03E
:100D9000F1FC0446012002F055FD002223A9154B69
:100DA000186803F089FB01289FD0002211A9124B7B
:100DB000186803F081FB0128A0D0012DBCD0002DC4
:100DC000C6D0012CD0D0002CDAD10421064801F085
:100DD000D1FC0128D4D14FF48071054B186802F082
:100DE000FBFDCDE700080140000C01404008002059
:100DF00084040020880400208C04002000B583B007
:100E0000114B9A6942F001029A619A6902F001025B
:100E10000092009ADA6942F08052DA61DB6903F0ED
:100E200080530193019B00220F216FF0010001F01C
:100E3000D9FA064A536823F0E06343F00073536025
:100E400003B05DF804FB00BF001002400000014049
:100E500030B589B00446224BDA6942F00102DA610A
:100E6000DB6903F001030193019B02A903A801F0D0
:100E7000B3FF069BD3B901F08FFF03461948A0FBCF
:100E800003239B0C013B18484FF08042026040F264
:100E9000E732C2604360002303618360836102F034
:100EA000EBF8054630B1284609B030BD01F074FFBB
:100EB0004300E3E70C4801F0AFFF05460028F2D1FC
:100EC0001C2001F0C7FA0F2C01D90125EBE7002205
:100ED00021461C2001F086FA044B1C60E3E700BFAA
:100EE0000010024083DE1B43F8070020140000209E
:100EF000FEE7FEE7FEE7FEE7FEE7704708B50248BB
:100F000001F0C2FF08BD00BFF807002008B5024885
:100F100002F0E6FA08BD00BF4008002008B502480C
:100F200002F0DEFA08BD00BF8808002008B50248BC
:100F300002F0D6FA08BD00BFD008002070470000BC
:100F400008B50A480A4B03604FF4E13343600023BD
:100F50008360C36003610C2242618361C36102F05C
:100F6000A5F900B908BDFFF796FDFBE74008002092
:100F70000038014008B50A480A4B03604FF4165385
:100F8000436000238360C36003610C22426183617C
:100F9000C36102F08BF900B908BDFFF77CFDFBE7E8
:100FA000880800200044004008B50A480A4B036046
:100FB0004FF41653436000238360C36003610C2227
:100FC00042618361C36102F071F900B908BDFFF7A6
:100FD00062FDFBE7D00800200048004030B58BB030
:100FE0000023069307930893099303684F4A93429B
:100FF00007D04F4A934236D04E4A934263D00BB04B
:1010000030BD4D4B9A6942F480429A619A6902F46C
:1010100080420092009A9A6942F004029A619B69A8
:1010200003F004030193019B4FF400730693022322
:10103000079303230993414D06A9284601F088FA36
:101040004FF48063069300240794089406A9284669
:1010500001F07EFA22460521252001F0C3F9252062
:1010600001F0F8F9CBE7344BDA6942F40032DA6187
:10107000DA6902F400320292029A9A6942F004029A
:101080009A619B6903F004030393039B0423069373
:101090000223079303230993284D06A9284601F04C
:1010A00057FA0823069300240794089406A92846B3
:1010B00001F04EFA22460521262001F093F9262060
:1010C00001F0C8F99BE71C4BDA6942F48022DA612F
:1010D000DA6902F480220492049A9A6942F00802C2
:1010E0009A619B6903F008030593059B4FF48063A5
:1010F00006930223079303230993114D06A928465B
:1011000001F026FA4FF40063069300240794089434
:1011100006A9284601F01CFA22460521272001F0E5
:1011200061F9272001F096F969E700BF0038014016
:101130000044004000480040001002400008014008
:10114000000C01400268224B9A4200D0704710B553
:1011500094B0204B1B78204AD35CCC2B19D01F4B6A
:101160001B6863B1036858681A4B19784A1CD2B2DD
:101170001A70194B5854511E5B5CFF2B10D0154B45
:101180001B78012214491944154802F008FB14B0D9
:1011900010BD124B01221A600E4B00221A70DEE7BE
:1011A0000024019402238DF8083013920A490DF1AE
:1011B0000900FEF7CDFF234601AA02A909480068ED
:1011C00003F014F9054B1C60024B1C70D7E700BFFD
:1011D00000380140B40700209407002018090020BF
:1011E000400800209804002010B50024002C00DDE9
:1011F00010BD012003F0EFF8024B43F82400013446
:10120000F4E700BF7009002000B583B04FF0FF3253
:1012100001A90F4B186803F04FF90128F6D19DF88A
:1012200004300C4C4FF0FF3154F8230003F0F3F975
:101230009DF804009DF80520074B43F8202000236B
:101240001A46194654F8200002F0F5FFDEE700BF09
:1012500070040020700900200800002003688B4201
:1012600001DC00207047002303600120704700006C
:1012700070B586B00023059367E000230093012337
:101280001A461946B648006802F0FFFA10F0010F3E
:101290001CD0B44A13680133136017E001230722FE
:1012A000B149B248FFF790FC04230722B049B14886
:1012B000FFF78AFC01210320FFF778FA41F6583046
:1012C00002F0C0FAA74A136801331360A54B1B68EC
:1012D000193B192B40F2A78400231A461946A64849
:1012E000006802F0A8FF059B01330593012002F07E
:1012F000A9FA9C4B1B68A14A1268934240F0E4870C
:10130000984B1B689E4A1268934217D0CC228DF8E6
:101310000C2005228DF80D2000218DF80E108DF87F
:101320000F30FF238DF810304FF0FF3303A995489D
:1013300001F0ECFF8B4B1A68914B1A6000231A46A0
:1013400019468D48006802F076FF4FF0FF318A4B56
:10135000186803F060F9834B1B68352BB6D801A2DF
:1013600052F823F07B1200089D1200083D1400087B
:1013700063140008791400089F140008B1140008D1
:10138000D5140008EB1400080F15000825150008F7
:101390004915000899150008BF150008EB1500084D
:1013A00005160008171600083D1600084F1600081D
:1013B0007316000885160008AB160008C116000851
:1013C000DB160008F51600080F17000821170008A3
:1013D000451700086B17000891170008B31700089D
:1013E000CD170008FB170008231800083D18000857
:1013F000791800089F180008B5180008011900089E
:10140000171900083D1900085B1900087F1900082A
:1014100099190008B3190008C9190008ED19000846
:10142000031A0008271A0008451A0008691A00085C
:10143000CD1200088D1A0008A51B00080023009398
:1014400001231A464FF400114548006802F01DFAC6
:1014500010F4001F3FF43AAF424A1368013313609F
:1014600034E70423072248494248FFF7ADFB3D4AD1
:1014700013680133136029E70023009301231A4600
:101480004FF480313648406802F0FFF910F4803F95
:101490003FF41CAF334A13680133136016E7002191
:1014A0000120FFF783F92F4A1368013313600DE71A
:1014B0000023009301231A4602212948006802F004
:1014C000E4F910F0020F3FF401AF264A136801332C
:1014D0001360FBE6042307222C492648FFF774FB20
:1014E000204A136801331360F0E6002300930123C0
:1014F0001A4604211A48006802F0C7F910F0040FD8
:101500003FF4E4AE174A136801331360DEE60423A8
:1015100007221F491748FFF757FB124A1368013388
:101520001360D3E60023009301231A4602210C48DE
:10153000006802F0AAF910F0020F3FF4C7AE094AA2
:10154000136801331360C1E60423072211490948D7
:10155000FFF73AFB034A136801331360B6E600BF96
:10156000780400200800002064570008D0080020FC
:101570006C57000888080020700900200C0000202B
:101580000400002040080020745700087C57000821
:10159000845700088C5700080023009301231A4643
:1015A0004FF40011AB48006802F06FF910F4001F0F
:1015B0003FF48CAEA84A13680133136086E6A74B4C
:1015C00003AC93E8030084E80300204603F084FFA3
:1015D000024604232146A248FFF7F6FA9E4A136802
:1015E000013313600023059370E642F6F82105A845
:1015F000FFF734FE00283FF469AE974A13680133C1
:10160000136063E600210920FFF7D0F8924A1368BF
:10161000013313605AE60023009301231A464FF466
:1016200000318C48406802F030F910F4003F3FF47C
:101630004DAE894A13680133136047E600210C2040
:10164000FFF7B4F8844A1368013313603EE60023C1
:10165000009301231A4619467E48406802F015F9A6
:1016600010F0010F3FF432AE7B4A13680133136070
:101670002CE601211020FFF799F8774A136801330F
:10168000136023E60023009301231A464FF48041A0
:101690007048006802F0F9F810F4804F3FF416AE7D
:1016A0006D4A13680133136010E600210A20FFF72A
:1016B0007DF8694A1368013313600023059305E63A
:1016C00041F2883105A8FFF7C9FD00283FF4FEADBF
:1016D000614A136801331360F8E504230722614966
:1016E0005F48FFF771FA5C4A136801331360002307
:1016F0000593EBE544F6206105A8FFF7AFFD002850
:101700003FF4E4AD544A136801331360DEE5002171
:101710000420FFF74BF8504A136801331360D5E5F6
:101720000023009301231A4680214A48406802F0B2
:10173000ACF810F0800F3FF4C9AD474A136801338D
:101740001360C3E50423072247494548FFF73CFAE5
:1017500000210620FFF72AF800210720FFF726F8CE
:101760003D4A136801331360B0E500230093012361
:101770001A464FF400013748006802F086F810F46A
:10178000000F3FF4A3AD344A1368013313609DE5A5
:101790000423072235493248FFF716FA00210820B2
:1017A000FFF704F82C4A13680133136000230593F4
:1017B0008CE541F6583105A8FFF750FD00283FF4AD
:1017C00085AD254A1368013313607FE504230722A2
:1017D00027492348FFF7F8F901210D20FEF7E6FF1E
:1017E0004FF4FA7002F02EF800210D20FEF7DEFF14
:1017F000194A13680133136068E50023009301233D
:101800001A4640211348406802F03FF810F0400F9C
:101810003FF45CAD104A1368013313600023059355
:1018200054E541F2707105A8FFF718FD00283FF458
:101830004DAD094A13680133136047E504230722BD
:101840000C490748FFF7C0F9034A136801331360D6
:101850003CE500BF7804002008000020A4580008E0
:1018600088080020945700089C570008A4570008D7
:10187000AC570008B45700080023009301231A4610
:101880004FF48051BB48006801F0FFFF10F4805F07
:101890003FF41CADB84A13680133136016E5042306
:1018A0000722B649B648FFF78FF9B34A13680133E8
:1018B00013600BE50023009301231A464FF4805177
:1018C000AC48006801F0E1FF10F4805F11D1002303
:1018D000009301231A460421A648406801F0D5FF71
:1018E00010F0040F3FF4F2ACA34A13680133136005
:1018F000ECE404230722A149A148FFF765F9E6E7D4
:10190000042307229F499E48FFF75EF99A4A13680D
:1019100001331360DAE40023009301231A464FF4E5
:1019200080519448006801F0B0FF10F4805F3FF4EC
:10193000CDAC914A136801331360C7E40021022043
:10194000FEF734FF042307228F498D48FFF73CF947
:10195000894A136801331360B8E40023009301231C
:101960001A4620218348406801F08FFF10F0200FB5
:101970003FF4ACAC804A136801331360A6E404233F
:10198000072282497E48FFF71FF97B4A136801331B
:1019900013600023059399E443F6982105A8FFF707
:1019A0005DFC00283FF492AC734A13680133136066
:1019B0008CE40423072276497148FFF705F96E4A43
:1019C00013680133136081E40023009301231A4656
:1019D00002216848406801F058FF10F0020F3FF400
:1019E00075AC654A1368013313606FE40423072262
:1019F00068496348FFF7E8F85F4A136801331360EA
:101A000064E40023009301231A46082159484068E2
:101A100001F03BFF10F0080F3FF458AC564A136832
:101A20000133136052E400210B20FEF7BFFE0423B4
:101A3000072259495248FFF7C7F84F4A1368013344
:101A4000136043E40023009301231A461021494800
:101A5000406801F01AFF10F0100F3FF437AC464A0F
:101A600013680133136031E400210F20FEF79EFE5E
:101A70000423072249494248FFF7A6F83E4A136863
:101A8000013313604648FFF7CBF81FE43C4D28466E
:101A9000FFF7C6F8424C2046FFF7C2F82846FFF78A
:101AA000DBF82046FFF7D8F804212846FFF7F0F8C6
:101AB00001212046FFF7ECF801210020FEF776FE19
:101AC00001210846FEF772FE01210220FEF76EFE9C
:101AD00001210320FEF76AFE01210420FEF766FEC5
:101AE00001210520FEF762FE01210620FEF75EFEC1
:101AF00001210720FEF75AFE01210820FEF756FEBD
:101B000001210920FEF752FE01210A20FEF74EFEB8
:101B100001210B20FEF74AFE01210C20FEF746FEB4
:101B200001210F20FEF742FE01211020FEF73EFEAC
:101B300001210E20FEF73AFE00211220FEF736FEAC
:101B400000211120FEF732FE4FF4FA7001F07AFE08
:101B500000210E20FEF72AFE01211220FEF726FEAC
:101B600001211120FEF722FE034B33221A60FFF7FA
:101B7000ADBB00BF7804002008000020BC5700085F
:101B800088080020C4570008CC570008D457000824
:101B9000DC570008E4570008EC570008F457000829
:101BA000D008002001210020FEF700FE0121084698
:101BB000FEF7FCFD01210220FEF7F8FD00210320C5
:101BC000FEF7F4FD01210420FEF7F0FD00210520C1
:101BD000FEF7ECFD01210620FEF7E8FD01210720BC
:101BE000FEF7E4FD01210820FEF7E0FD01210920B8
:101BF000FEF7DCFD01210A20FEF7D8FD01210B20B4
:101C0000FEF7D4FD01210C20FEF7D0FD01210F20AD
:101C1000FEF7CCFD00211020FEF7C8FD984B3322C3
:101C20001A60FFF753BB0021964B186801F0B1FE14
:101C3000044610F0800504D0934B1B68002B00F085
:101C40002B8125B9904B1B68012B00F0338114F0D8
:101C5000080504D08C4B5B68002B00F0358125B95A
:101C6000894B5B68012B00F03D8114F0200504D006
:101C7000854B9B68002B00F03F8125B9824B9B6808
:101C8000012B00F0478114F4807504D07E4BDB6893
:101C9000002B00F04A8125B97B4BDB68012B00F05B
:101CA000528114F4007504D0774B1B69002B00F0AF
:101CB000548125B9744B1B69012B00F05C8114F031
:101CC000100504D0704B5B69002B00F05E8125B9D4
:101CD0006D4B5B69012B00F0668114F0400504D068
:101CE000694B9B69002B00F0688125B9664B9B69A5
:101CF000012B00F0708114F4806504D0624BDB6925
:101D0000002B00F0728125B95F4BDB69012B00F0DD
:101D10007A8114F4006404D05B4B1B6A002B00F042
:101D20007C8124B9584B1B6A012B00F08481544BF1
:101D30001B68193B192B3FF6CFAA0021514B18689D
:101D400001F027FE044600F4C035B5F5C03F00F0B1
:101D50007C8125B94D4B1B68012B00F0858104F473
:101D60001025B5F5102F00F0888125B9474B5B6829
:101D7000012B00F0918104F48815B5F5881F00F05F
:101D8000948125B9414B9B68012B00F09D8104F49F
:101D90004035B5F5403F00F0A08125B93B4BDB68ED
:101DA000012B00F0A98104F4C025B5F5C02F00F087
:101DB000AC8125B9354B1B69012B00F0B58104F4CA
:101DC0002025B5F5202F00F0B88125B92F4B5B6990
:101DD000012B00F0E98104F48415B5F5841F00F0AF
:101DE000EC8125B9294B9B69012B00F0F58104F4A6
:101DF0009015B5F5901F00F0F88125B9234BDB69EC
:101E0000012B00F0018204F42035B5F5203F00F0ED
:101E1000048225B91D4B1B6A012B00F00D8204F4CE
:101E20009025B5F5902F00F0108225B9174B5B6A0D
:101E3000012B00F0198204F40825B5F5082F00F0F5
:101E40001C8225B9114B9B6A012B00F0258204F4FA
:101E5000A024B4F5A02F00F02882002C7FF43CAA27
:101E60000A4BDB6A012B7FF437AA0722084909488D
:101E7000FEF7AAFE054B0022DA62FFF72DBA00BF7B
:101E800008000020780400204C0900201C090020D4
:101E900064570008D00800200126AF4B1E600423C1
:101EA0000722AE49AE48FEF78FFE31460520FEF709
:101EB0007DFCC6E6AA48FEF7B3FE0021A64B1960DA
:101EC0000520FEF773FCC2E60126A34B5E600423E7
:101ED0000722A449A248FEF777FE31460520FEF707
:101EE00065FCBCE69E48FEF79BFE00219A4B5960BC
:101EF0000520FEF75BFCB8E60126974B9E600423A5
:101F0000072299499648FEF75FFE31460520FEF705
:101F10004DFCB2E69248FEF783FE00210520FEF755
:101F200045FC8D4B00229A60ADE601268A4BDE60AF
:101F3000042307228D498A48FEF746FE31460520D4
:101F4000FEF734FCA7E68648FEF76AFE0021824BC6
:101F5000D9600520FEF72AFCA3E601267E4B1E6110
:101F60000423072282497E48FEF72EFE31460520D3
:101F7000FEF71CFC9DE67A48FEF752FE0021764BE8
:101F800019610520FEF712FC99E60126724B5E618D
:101F90000423072277497248FEF716FE31460520D2
:101FA000FEF704FC93E66E48FEF73AFE00216A4B0A
:101FB00059610520FEF7FAFB8FE60126664B9E610C
:101FC000042307226C496648FEF7FEFD31460520D2
:101FD000FEF7ECFB89E66248FEF722FE00215E4B2D
:101FE00099610520FEF7E2FB85E601265A4BDE618A
:101FF0000423072261495A48FEF7E6FD31460520D1
:10200000FEF7D4FB7FE65648FEF70AFE0021524B4E
:10201000D9610520FEF7CAFB7BE601254E4B1D6208
:102020000423072256494E48FEF7CEFD29460520D7
:10203000FEF7BCFB75E64A48FEF7F2FD0021464B71
:1020400019620520FEF7B2FB71E64E4B1B68002BB0
:102050007FF47FAE4B4B01221A60042307224A49CA
:102060004A48FEF7B1FD74E6072249494748FEF7A2
:10207000ABFD444B00221A6071E6424B5B68002BBB
:102080007FF473AE3F4B01225A600423072241497B
:102090003E48FEF799FD68E607223D493B48FEF7BA
:1020A00093FD384B00225A6065E6364B9B68002B47
:1020B0007FF467AE334B01229A600423072236492E
:1020C0003248FEF781FD5CE6072231492F48FEF7D2
:1020D0007BFD2C4B00229A6059E62A4BDB68002BD3
:1020E0007FF45BAE274B0122DA60042307222B49E1
:1020F0002648FEF769FD50E6072225492348FEF7EA
:1021000063FD204B0022DA604DE61E4B1B69002B5D
:102110007FF44FAE1B4B01221A6104230722204992
:102120001A48FEF751FD44E6072219491748FEF701
:102130004BFD144B00221A6141E6124B5B69002BE8
:102140007FF443AE0F4B01225A6104230722154945
:102150000E48FEF739FD38E64C090020FC57000810
:1021600088080020045800080C580008145800087B
:102170001C580008245800082C580008345800083F
:102180003C5800081C09002044580008D0080020D2
:10219000645700084C580008545800085C58000860
:1021A000645800086C580008072254495448FEF748
:1021B0000BFD544B00225A610DE6524B9B69002BDC
:1021C0007FF40FAE4F4B01229A61042307224E4940
:1021D0004B48FEF7F9FC04E6072248494848FEF759
:1021E000F3FC484B00229A6101E6464BDB69002B69
:1021F0007FF403AE434B0122DA61042307224349F3
:102200003F48FEF7E1FCF8E507223C493C48FEF771
:10221000DBFC3C4B0022DA61F5E53A4B1B6A002BF4
:102220007FF4F7AD374B01221A62042307223849A5
:102230003348FEF7C9FCECE5072230493048FEF789
:10224000C3FC304B00221A62E9E52E4B5B6A002B7F
:102250007FF4EBAD2B4B01225A62042307222D4958
:102260002748FEF7B1FCE0E5072224492448FEF7A1
:10227000ABFC244B00225A62DDE5224B9B6A002B0B
:102280007FF4DFAD1F4B01229A620423072222490B
:102290001B48FEF799FCD4E5072218491848FEF7B9
:1022A00093FC184B00229A62D1E5164BDB6A002B97
:1022B0007FF4D3AD134B0122DA62042307221749BE
:1022C0000F48FEF781FCC8E5CC228DF80C200522D2
:1022D0008DF80D2000218DF80E108DF80F30FF23A2
:1022E0008DF810304FF0FF3303A90D4801F00EF8C0
:1022F0000C4B1A680C4B1A60FFF702B864570008C1
:10230000D00800201C090020745800087C580008E0
:10231000845800088C580008945800089C580008FD
:1023200040080020080000200C000020FEF706FEF8
:102330000B480C490C4A002302E0D458C450043323
:10234000C4188C42F9D3094A094C002301E01360F8
:102350000432A242FBD303F049F8FEF7D1FB7047E9
:10236000000000204C040020D85800084C04002035
:10237000C8360020FEE7000008B5074A136843F09E
:1023800010031360032000F01BF80F20FEF760FD20
:10239000FEF734FD002008BD00200240034A11680A
:1023A000034B1B780B441360704700BF7409002077
:1023B00010000020014B1868704700BF740900200E
:1023C000074AD36823F4E0631B041B0C000200F4EB
:1023D000E060034343F0BF6343F40033D3607047CE
:1023E00000ED00E000B5194BDB68C3F30223C3F135
:1023F000070CBCF1040F28BF4FF0040C03F1040ECE
:10240000BEF1060F18D9033B4FF0FF3E0EFA0CFC4D
:1024100021EA0C0199400EFA03F322EA030319435F
:1024200000280BDB0901C9B200F1604000F56140F2
:1024300080F800135DF804FB0023E5E700F00F00CF
:102440000901C9B2024B1954F4E700BF00ED00E0E6
:1024500014ED00E0002807DB00F01F024009012313
:102460009340024A42F82030704700BF00E100E08C
:1024700090F82130DBB2022B06D0042383630023C3
:1024800080F82030012070470268136823F00E03A3
:1024900013600268136823F001031360036CC16BBF
:1024A000012202FA03F34B6080F82120002380F818
:1024B000203018467047000008B590F82130DBB294
:1024C000022B03D004238363012008BD0268136834
:1024D00023F00E0313600268136823F001031360F6
:1024E0000368194A934214D0143293421FD0143215
:1024F00093421ED0143293421ED0143293421ED007
:102500001432934202D04FF0807203E04FF48012F5
:1025100000E001220D4B5A60012380F82130002396
:1025200080F82030436B6BB198470020CDE7102234
:10253000F0E74FF48072EDE74FF48052EAE74FF492
:102540008032E7E70020C0E70800024000000240B8
:1025500070B582B00024A446A6E0804DAA4210D0F7
:1025600007D97F4DAA420CD005F58035AA4208D084
:1025700013E0A5F58015AA4203D005F57025AA42FF
:1025800007D18A68002A58D0012A51D04361082413
:1025900003E0A5F58015AA42F3D0BEF1FF0F4ED897
:1025A0000646BEF1FF0F4CD84FEA8C0233680F2568
:1025B000954023EA050304FA02F2134333604B68A3
:1025C00013F0805F6ED0674B9A6942F001029A6106
:1025D0009B6903F001030193019B4FEA9C02951C48
:1025E000614B53F825600CF003039D000F23AB40B3
:1025F00026EA03065D4B984229D003F58063984292
:1026000000F08E8003F58063984200F08B8003F524
:102610008063984219D004231AE0CC68BDE7CC68E7
:102620000434BAE7CC680834B7E7CC680C34B4E7B4
:1026300003610824B1E70024AFE70424ADE7061DD9
:10264000AFE7ACF108029200B0E7032300E00023FB
:10265000AB4033430232444D45F822304B6813F40B
:10266000801F61D0424A936843EA0E0393604B682F
:1026700013F4001F5ED03E4AD36843EA0E03D360D2
:102680004B6813F4003F5BD0394A536843EA0E03AA
:1026900053604B6813F4803F58D0354A136843EABF
:1026A0000E0313600CF1010C0A6832FA0CF353D0DC
:1026B000012303FA0CF302EA030E33EA0202F1D11A
:1026C0004A68122A3FF649AF122A3FF666AF01A5C3
:1026D00055F822F0832500081B260008252600084F
:1026E000372600089B2500089B2500089B2500082D
:1026F0009B2500089B2500089B2500089B250008BA
:102700009B2500089B2500089B2500089B250008A9
:102710009B2500089B2500081F2600082B26000883
:10272000012395E7022393E7114A936823EA0E03F6
:1027300093609CE70E4AD36823EA0E03D3609FE7B9
:102740000B4A536823EA0E035360A2E7084A136852
:1027500023EA0E031360A5E702B070BD000022104B
:10276000000031100010024000000140000801404C
:10277000000401408368194201D001207047002005
:1027800070470AB101617047090401617047000098
:1027900082B0084B1B68084AA2FB03235B0A00FBBC
:1027A00003F3019300BF019B5A1E0192002BF9D144
:1027B00002B0704700000020D34D6210002800F0E6
:1027C000F18170B582B00446036813F0010F2CD07C
:1027D000994B5B6803F00C03042B1DD0964B5B6890
:1027E00003F00C03082B12D06368B3F5803F41D08F
:1027F000002B55D103F1804303F504331A6822F40A
:1028000080321A601A6822F480221A6037E08A4BFC
:102810005B6813F4803FE7D0874B1B6813F4003FDD
:1028200003D06368002B00F0BF81236813F0020F10
:1028300075D0814B5B6813F00C0F5FD07E4B5B68EB
:1028400003F00C03082B54D02369002B00F08A807E
:102850007A4B01221A60FFF7ADFD0546764B1B68E7
:1028600013F0020F75D1FFF7A5FD401B0228F5D923
:1028700003209EE1704A136843F480331360636859
:1028800043B3FFF797FD05466B4B1B6813F4003FFE
:10289000CBD1FFF78FFD401B6428F5D9032088E1D9
:1028A000B3F5A02F09D0644B1A6822F480321A6065
:1028B0001A6822F480221A60E1E703F18043A3F54D
:1028C0003C331A6842F480221A601A6842F480325B
:1028D0001A60D4E7FFF76EFD0546574B1B6813F4EB
:1028E000003FA2D0FFF766FD401B6428F5D9032006
:1028F0005FE1514B5B6813F4803FA5D14E4B1B68E1
:1029000013F0020F03D02369012B40F04F814A4A94
:10291000136823F0F803616943EAC1031360236875
:1029200013F0080F33D0A369002B5CD0434B012276
:10293000C3F88024FFF73EFD05463F4B5B6A13F06A
:10294000020F21D1FFF736FD401B0228F5D90320E5
:102950002FE1394A136823F0F803616943EAC103A0
:102960001360DCE7354B00221A60FFF723FD0546B4
:10297000314B1B6813F0020FD1D0FFF71BFD401B3A
:102980000228F5D9032014E10120FFF701FF236895
:1029900013F0040F00F09680274BDB6913F0805F83
:1029A00034D1254BDA6942F08052DA61DB6903F0F9
:1029B00080530193019B0125214B1B6813F4807FF9
:1029C00026D0E368012B3DD0002B53D103F1804387
:1029D00003F504331A6A22F001021A621A6A22F01D
:1029E00004021A6233E0154B0022C3F88024FFF77B
:1029F000E1FC0546104B5B6A13F0020FC7D0FFF7EE
:102A0000D9FC401B0228F5D90320D2E00025D3E7EA
:102A10000B4A136843F480731360FFF7CBFC064640
:102A2000074B1B6813F4807FCBD1FFF7C3FC801BDF
:102A30006428F5D90320BCE00010024000004242A7
:102A4000007000405F4A136A43F001031362E368B9
:102A500033B3FFF7AFFC06465A4B1B6A13F0020F65
:102A60002FD1FFF7A7FC801B41F288339842F3D99E
:102A700003209EE0052B09D0524B1A6A22F0010276
:102A80001A621A6A22F004021A62E0E74D4B1A6ACF
:102A900042F004021A621A6A42F001021A62D6E790
:102AA000FFF788FC0646474B1B6A13F0020F08D05D
:102AB000FFF780FC801B41F288339842F3D9032052
:102AC00077E0E5B9E369002B72D03E4A526802F024
:102AD0000C02082A56D0022B17D03B4B00221A6654
:102AE000FFF768FC0446374B1B6813F0007F47D0A4
:102AF000FFF760FC001B0228F5D9032059E0314A9A
:102B0000D36923F08053D361DCE72F4B00221A6690
:102B1000FFF750FC05462B4B1B6813F0007F06D0D7
:102B2000FFF748FC401B0228F5D9032041E0236A47
:102B3000B3F5803F1AD023494B6823F47413226AFB
:102B4000606A024313434B601F4B01221A66FFF772
:102B500031FC04461B4B1B6813F0007F0ED1FFF7BE
:102B600029FC001B0228F5D9032022E0154A5368EE
:102B700023F40033A1680B435360DCE7002018E026
:102B8000002016E0012B16D00E4B5B6803F4803159
:102B9000226A914211D103F47013626A93420ED1FA
:102BA000002006E001207047012002E0012000E043
:102BB000002002B070BD0120FBE70120F9E70120F1
:102BC000F7E700BF00100240000042420F4B5B6875
:102BD00003F00C02082A01D00D487047C3F383426A
:102BE0000C49885C13F4803F0BD0084B5B68C3F33F
:102BF0004043094AD35C064A02FB00F0B0FBF3F005
:102C00007047064B03FB00F0704700BF0010024006
:102C100000127A00AC580008BC58000800093D00BA
:102C2000002800F0A08070B50D460446524B1B688A
:102C300003F007038B420BD24F4A136823F00703BC
:102C40000B431360136803F007038B4240F08D8041
:102C5000236813F0020F17D013F0040F04D0474A73
:102C6000536843F4E0635360236813F0080F04D003
:102C7000424A536843F460535360404A536823F018
:102C8000F003A1680B435360236813F0010F31D0A8
:102C90006368012B20D0022B25D0384A126812F02D
:102CA000020F64D035494A6822F0030213434B6097
:102CB000FFF780FB0646314B5B6803F00C0362684C
:102CC000B3EB820F16D0FFF775FB801B41F2883300
:102CD0009842F0D9032045E0284A126812F4003FD8
:102CE000E0D101203EE0254A126812F0007FD9D1E0
:102CF000012037E0204B1B6803F00703AB420AD9E1
:102D00001D4A136823F007032B431360136803F075
:102D10000703AB422DD1236813F0040F06D0174AE6
:102D2000536823F4E063E1680B435360236813F0B6
:102D3000080F07D0114A536823F46053216943EA0E
:102D4000C1035360FFF742FF0C4B5B68C3F30313EF
:102D50000B4AD35CD8400B4B18600B4B1868FEF73E
:102D600077F8002070BD012070470120FAE70120AC
:102D7000F8E70120F6E700BF002002400010024003
:102D80004C5700080000002014000020014B186878
:102D9000704700BF0000002008B5FFF7F7FF044BA5
:102DA0005B68C3F30223034AD35CD84008BD00BF6D
:102DB000001002405C57000808B5FFF7E7FF044B1E
:102DC0005B68C3F3C223034AD35CD84008BD00BF8D
:102DD000001002405C5700080F2303600B4B5A6839
:102DE00002F0030242605A6802F0F00282605A6800
:102DF00002F4E062C2605B68DB0803F4E063036135
:102E0000034B1B6803F007030B6070470010024080
:102E1000002002407047000090F83D30DBB2012BEB
:102E200027D1022380F83D300268D36843F00103C4
:102E3000D3600368114A934210D0B3F1804F0DD094
:102E4000A2F59432934209D002F58062934205D0F4
:102E50001A6842F001021A60002070479A6802F076
:102E60000702062A07D01A6842F001021A60002001
:102E70007047012070470020704700BF002C0140C0
:102E8000704770477047704710B5044603681A6969
:102E900012F0020F11D0DA6812F0020F0DD06FF0AD
:102EA00002021A610123037703689B6913F0030F81
:102EB00070D0FFF7E6FF0023237723681A6912F02A
:102EC000040F12D0DA6812F0040F0ED06FF0040273
:102ED0001A610223237723689B6913F4407F5FD034
:102EE0002046FFF7CEFF0023237723681A6912F0EC
:102EF000080F12D0DA6812F0080F0ED06FF0080237
:102F00001A61042323772368DB6913F0030F4ED083
:102F10002046FFF7B6FF0023237723681A6912F0D3
:102F2000100F12D0DA6812F0100F0ED06FF01002EE
:102F30001A61082323772368DB6913F4407F3DD0AF
:102F40002046FFF79EFF0023237723681A6912F0BB
:102F5000010F03D0DA6812F0010F36D123681A6925
:102F600012F0800F03D0DA6812F0800F34D123689A
:102F70001A6912F0400F03D0DA6812F0400F32D114
:102F800023681A6912F0200F03D0DA6812F0200FBC
:102F900030D110BDFFF774FF2046FFF773FF8AE7BB
:102FA0002046FFF76DFF2046FFF76CFF9BE72046AA
:102FB000FFF766FF2046FFF765FFACE72046FFF707
:102FC0005FFF2046FFF75EFFBDE76FF001021A6169
:102FD0002046FDF757FDC1E76FF080021A612046D9
:102FE00000F077F8C3E76FF040021A612046FFF760
:102FF0004AFFC5E76FF020021A61204600F068F82A
:10300000C7E7000003681B4A90420AD0B0F1804F26
:1030100007D0A2F59432904203D002F5806290422C
:1030200003D123F070034A681343124A90420AD036
:10303000B0F1804F07D0A2F59432904203D002F550
:103040008062904203D123F44073CA68134323F093
:1030500080034A69134303608B68C3620B68836211
:10306000044B984202D00123436170470B6903630C
:10307000F9E700BF002C014040B310B5044690F8BA
:103080003D30F3B1022384F83D30214651F8040B62
:10309000FFF7B8FF012384F8463084F83E3084F807
:1030A0003F3084F8403084F8413084F8423084F86E
:1030B000433084F8443084F8453084F83D300020B3
:1030C00010BD80F83C30FFF7A5FEDBE7012070471C
:1030D00070477047026802F10C0353E8003F23F485
:1030E00090730C3242E800310029F3D1026802F1FA
:1030F000140353E8003F23F00103143242E8003187
:103100000029F3D1036B012B05D0202380F8423036
:10311000002303637047026802F10C0353E8003F89
:1031200023F010030C3242E800310029F3D1ECE720
:1031300090F84130DBB2212B01D002207047836828
:10314000B3F5805F17D0036A5A1C02621A780368CD
:103150005A60C38C9BB2013B9BB2C3844BB90268DB
:10316000D36823F08003D3600268D36843F0400340
:10317000D360002070470369002BE4D1036A1B88E9
:103180000268C3F308035360036A02330362E0E793
:1031900010B504460268136923F44053C1680B4319
:1031A000136183680269134342691A430168CB685B
:1031B00023F4B05323F00C031343CB60026853692C
:1031C00023F4407381690B4353610268134B9A42A5
:1031D00020D0FFF7E1FD024602EB820202EB820201
:1031E00063689B00B2FBF3F20D48A0FB0231490972
:1031F000642303FB11231B013233A0FB03235B0970
:1032000003F0F00202EB011203F00F0321681344F4
:103210008B6010BDFFF7D0FD0246DDE700380140AE
:103220001F85EB512DE9F84305460F461646994692
:10323000DDF820802C68246837EA04030CBF4FF0C7
:10324000010C4FF0000CB4452DD1B8F1FF3FF1D087
:10325000B8F1000F05D0FFF7ADF8A0EB090040452D
:10326000E8D92A6802F10C0353E8003F23F4D07335
:103270000C3242E800310029F3D12A6802F114032C
:1032800053E8003F23F00103143242E800310029E3
:10329000F3D1202385F8413085F84230002385F8AA
:1032A0004030032000E00020BDE8F88360B310B593
:1032B000044690F8413013B3242384F84130226847
:1032C000D36823F40053D3602046FFF761FF2268E0
:1032D000136923F4904313612268536923F02A038E
:1032E00053612268D36843F40053D36000206064C4
:1032F000202384F8413084F84230606310BD80F8A8
:103300004030FDF76BFED7E7012070472DE9F04113
:1033100082B01E4690F84130DBB2202B4BD10446E0
:103320000D46904600294AD00AB9012044E0002306
:103330004364212380F84130FFF73CF80746A4F8A6
:103340002480A4F82680A368B3F5805F02D04FF0F4
:1033500000080FE02369FBB14FF000080AE038F8DD
:10336000023B2268C3F308035360E28C92B2013A35
:1033700092B2E284E38C9BB28BB100963B46002272
:1033800080212046FFF74EFFD8B9002DE7D015F871
:10339000012B23685A60E8E7A8460025EAE7009673
:1033A0003B46002240212046FFF73CFF58B920232E
:1033B00084F8413000E0022002B0BDE8F081012035
:1033C000FAE70320F8E70320F6E7704708B501683D
:1033D000CA6822F04002CA60202280F84120FFF72C
:1033E000F4FF002008BD704708B5406A0023C3857C
:1033F000C384FFF7F8FF08BD704790F84230DBB296
:10340000222B69D18368B3F5805F4FD0826AB3F510
:10341000805F04D0002B56D10369002B53D1036881
:103420005B681370836A01338362C38D9BB2013B77
:103430009BB2C385002B51D100B583B00268D3681D
:1034400023F02003D3600268D36823F48073D36031
:103450000268536923F001035361202380F842304E
:1034600000234363036B012B33D100230363026802
:1034700002F10C0353E8003F23F010030C3242E842
:1034800000310029F3D103681A6812F0100F06D03A
:10349000002201921A6801925B680193019B818D61
:1034A000FFF7AAFF002003B05DF804FB0269002AC1
:1034B000ACD1826A03685B68C3F308031380836A34
:1034C00002338362B1E703685B6803F07F03137024
:1034D000A8E7FDF737FEE5E70220704700207047B8
:1034E00030B583B0044602681368D068516913F0A0
:1034F0000F0505D113F0200F02D010F0200F19D1C5
:103500002DB111F0010119D110F4907F16D1216B6A
:1035100001297DD013F0800F03D010F0800F40F010
:10352000188113F0400F03D010F0400F40F01581C8
:1035300003B030BD2046FFF760FFF9E713F0010F3D
:1035400006D010F4807F03D0626C42F00102626406
:1035500013F0040F04D019B1626C42F002026264ED
:1035600013F0020F04D019B1626C42F004026264DD
:1035700013F0080F07D010F0200F00D119B1626CC2
:1035800042F008026264626C002AD1D013F0200F6E
:1035900002D010F0200F29D123685B6903F04003AB
:1035A000626C12F0080F00D163B32046FFF792FD62
:1035B00023685B6913F0400F20D0226802F11403E6
:1035C00053E8003F23F04003143242E80031002961
:1035D000F3D1E36B73B1634A5A63E06BFEF76CFFA0
:1035E0000028A5D0E06B436B9847A1E72046FFF782
:1035F00004FFD1E72046FFF7F6FE99E72046FFF7E4
:10360000F2FE95E72046FFF7EEFE002363648FE7A6
:1036100013F0100F3FF47EAF10F0100F3FF47AAFAD
:10362000002301931368019353680193019B53692D
:1036300013F0400F51D0E26B13685B689BB2002B14
:103640003FF476AFA18D99427FF672AFE38593691F
:10365000202B37D0226802F10C0353E8003F23F4FB
:1036600080730C3242E800310029F3D1226802F164
:10367000140353E8003F23F00103143242E8003101
:103680000029F3D1226802F1140353E8003F23F02C
:103690004003143242E800310029F3D1202384F89A
:1036A000423000232363226802F10C0353E8003FF9
:1036B00023F010030C3242E800310029F3D1E06B13
:1036C000FEF7D6FE02236363A18DE38D9BB2C91A78
:1036D00089B22046FFF790FE2AE7A18DE38D9BB2C9
:1036E000C91A89B2E38D9BB2002B3FF421AF0029A8
:1036F0003FF41EAF226802F10C0353E8003F23F4AD
:1037000090730C3242E800300028F3D1226802F1B5
:10371000140353E8003F23F00103143242E8003061
:103720000028F3D1202384F8423000232363226849
:1037300002F10C0353E8003F23F010030C3242E87F
:1037400000300028F3D1022363632046FFF754FEC4
:10375000EEE62046FFF7ECFCEAE62046FFF736FEF1
:10376000E6E600BFE933000881628285C285002356
:103770004364222380F84230036923B10268D3688E
:1037800043F48073D3600268536943F001035361CB
:103790000268D36843F02003D3600020704708B567
:1037A00090F84230DBB2202B08D149B10AB9012090
:1037B00008BD00230363FFF7D7FFF9E70220F7E70F
:1037C0000120F5E7842801D00330704700207047BE
:1037D00008B501F0EBF9002008BD2DE9F04387B0F2
:1037E00004460F464569BDB18669AEB1D0F8048084
:1037F000D0F80090B0F90800FFF7E4FF02960195B9
:1038000000903B4622694946404601F061F9059027
:10381000059807B0BDE8F08365682668D4F8108085
:10382000B4F90800FFF7CEFF05AB019300903B46CB
:103830001FFA88F23146284601F084F90128E7D0C2
:103840000020E6E708B500B9012001F0F9FA0020F0
:1038500008BD1AB9084206D11046704731EA000384
:1038600003D000207047012070470120704738B511
:103870001C2000F011FB044628B1002540F8045B31
:1038800000F0F0F82576204638BD2DE9F84378B1F0
:103890000C4616461D46074611F07F4811D04FF0E2
:1038A000500383F31188BFF36F8FBFF34F8FFEE791
:1038B0004FF0500383F31188BFF36F8FBFF34F8F27
:1038C000FEE741B94FF0500383F31188BFF36F8FC8
:1038D000BFF34F8FFEE701F047FC50B9089B43B19F
:1038E0004FF0500383F31188BFF36F8FBFF34F8FF7
:1038F000FEE701F095F9D7F800902A4621464846A0
:10390000FFF7A7FFF0B116B129EA04033B6001F00D
:103910001BFAB8F1000F12D048B94FF0E0234FF076
:103920008052C3F8042DBFF34F8FBFF36F8F01F0A8
:1039300043FD814610F0007F1AD029F07F494846A8
:10394000BDE8F883089B83B166B941460DB141F0EB
:103950008061089A2143381D01F0FCFAC146DDF868
:103960002080D4E74FF08071F0E7DDF82080CEE7CB
:1039700000F018F9D7F800902A4621464846FFF78C
:1039800068FF18B116B129EA04043C6000F02CF974
:10399000D3E770B170B50C46054611F07F4F11D0DA
:1039A0004FF0500383F31188BFF36F8FBFF34F8F36
:1039B000FEE74FF0500383F31188BFF36F8FBFF31F
:1039C0004F8FFEE700F0EEF82E6826EA04042C6024
:1039D00000F00AF9304670BDF8B568B10D460446EE
:1039E00011F07F4711D04FF0500383F31188BFF3DC
:1039F0006F8FBFF34F8FFEE74FF0500383F31188B3
:103A0000BFF36F8FBFF34F8FFEE700F10C0601F09D
:103A100007F9206923682B4323600AE0216832EA12
:103A2000010105D111E0216841F0007101F004FBB2
:103A30002846B0420ED04568036823F07F4213F059
:103A4000806FEBD121681142F2D013F0807FEAD071
:103A50001743E8E7236823EA0703236001F074F9BA
:103A60002068F8BD00F1080343604FF0FF32826028
:103A7000C360036100230360704700230361704744
:103A800043684B609A688A60516099600861036876
:103A900001330360704730B40D68B5F1FF3F11D0BA
:103AA00000F108031C465B681A68AA42FAD96368E9
:103AB0004B6099608C60616008610368013303604A
:103AC00030BC70470469F2E70369416882688A6024
:103AD000416851605A68824206D0002202611A6829
:103AE000013A1A601868704782685A60F5E700006A
:103AF00082B0002301930D4B1B68B3F1FF3F08D048
:103B00004FF0500383F31188BFF36F8FBFF34F8FD4
:103B1000FEE74FF0500383F31188BFF36F8FBFF3BD
:103B20004F8F019B002BFCD002B070471800002083
:103B300006480068006880F3088862B661B6BFF383
:103B40004F8FBFF36F8F00DF00BF000008ED00E074
:103B50004FF0807340F8043C21F0010140F8081C4C
:103B6000034B40F80C3C40F8202C4038704700BF15
:103B7000F13A000800000000000000000000000012
:103B8000074B19680868B0E8F00F80F30988BFF3A5
:103B90006F8F4FF0000080F311884EF00D0E7047CC
:103BA000983500204FF0500383F31188BFF36F8FD7
:103BB000BFF34F8F0B4A136801331360012B00D002
:103BC00070474FF0E023D3F8043D13F0FF0FF7D018
:103BD0004FF0500383F31188BFF36F8FBFF34F8F04
:103BE000FEE700BF18000020094B1B6843B94FF0E7
:103BF000500383F31188BFF36F8FBFF34F8FFEE73E
:103C0000013B034A13600BB983F31188704700BF6F
:103C1000180000200000000000000000000000006C
:103C2000EFF30980BFF36F8F0D4B1A6820E9F00F97
:103C300010602DE908404FF0500080F3118801F02A
:103C400025F94FF0000080F31188BDE8084019689D
:103C50000868B0E8F00F80F30988BFF36F8F7047F2
:103C60009835002008B54FF0500383F31188BFF357
:103C70006F8FBFF34F8F00F0DBFF28B14FF0E023D1
:103C80004FF08052C3F8042D002383F3118808BD40
:103C90004FF0E022002313619361054B1B68054937
:103CA000A1FB03139B09013B536107231361704779
:103CB00000000020D34D621010B582B02A4B1A7854
:103CC000D2B20192FF221A701B78DBB28DF803305A
:103CD0009DF8033003F05003244A1370244B07224D
:103CE0001A6009E0224A1368013B13609DF8033013
:103CF0005B00DBB28DF803309DF8033013F0800FCA
:103D0000F0D11B4B1B68032B08D04FF0500383F3FB
:103D10001188BFF36F8FBFF34F8FFEE71B02144A6A
:103D2000136003F4E0631360019BDBB20E4A13706F
:103D30004FF0E023D3F8202D42F47002C3F8202D79
:103D4000D3F8202D42F07042C3F8202DFFF7A0FFDA
:103D50000024084B1C60FFF7EBFE01F097F8FFF71B
:103D6000C7FE204602B010BD00E400E07809002044
:103D70007C09002018000020EFF305830F2B0FD9DA
:103D8000114A9B5CDBB2114A12789A4208D94FF073
:103D9000500383F31188BFF36F8FBFF34F8FFEE79C
:103DA0004FF0E023D3F80C3D03F4E063084A1268B7
:103DB000934208D94FF0500383F31188BFF36F8FFC
:103DC000BFF34F8FFEE77047F0E300E07809002073
:103DD0007C090020124A12F0070F1ED0D11D21F0DD
:103DE0000701C1F5305313440A460E480260002112
:103DF00041601344083B23F007030B4803605960FC
:103E00001960991A51601360084B1960084B1960CA
:103E1000084B4FF000421A6070474FF43053E4E70C
:103E20008409002090350020800900208C35002076
:103E30008835002084350020154B1A461B688342C4
:103E4000FBD3516802EB010C844509D0416800EBBB
:103E5000010C634509D00360904218D01060704790
:103E60004068014451601046F0E710B4094C2468E2
:103E7000A3420AD05B681944416013681B68036061
:103E8000904200D0106010BC70470460F8E77047A3
:103E9000903500208009002070B5054600F0C0FE76
:103EA000344B1B68A3B1344B1B681D424AD135B15A
:103EB000083515F0070F02D025F007050835002D4D
:103EC00042D02E4B1B68AB424DD32D4A146804E000
:103ED000FFF780FFE7E722461C466368AB4202D249
:103EE0002368002BF7D1234B1B68A3423DD01668F3
:103EF00008362368136063685B1B102B10D96019A8
:103F000010F0070F08D04FF0500383F31188BFF370
:103F10006F8FBFF34F8FFEE743606560FFF78CFF45
:103F2000626816490B689B1A0B60164909688B4238
:103F300001D214490B60104B1B68134363600023CC
:103F4000236002E0002600E0002600F0FDFE16F0EF
:103F5000070F0CD04FF0500383F31188BFF36F8F1E
:103F6000BFF34F8FFEE70026EFE70026EDE7304670
:103F700070BD00BF800900208435002088350020F6
:103F8000903500208C35002080B338B50446A0F170
:103F9000080550F8043C164A1268134208D14FF045
:103FA000500383F31188BFF36F8FBFF34F8FFEE78A
:103FB00050F8081C41B14FF0500383F31188BFF350
:103FC0006F8FBFF34F8FFEE723EA020340F8043CF4
:103FD00000F026FE54F8041C064A13680B441360D4
:103FE0002846FFF729FF00F0AFFE38BD704700BF3D
:103FF00084350020883500200346406A18B11B6BC9
:104000001868C0F10700704710B50446FFF7CAFDF5
:10401000A26BE36B9A4204D00024FFF7E5FD204633
:1040200010BD0124F9E710B50446FFF7BBFDA36BF3
:1040300023B90124FFF7D8FD204610BD0024F9E77D
:1040400070B504461546866B026C5AB903681BB1FD
:1040500000200136A66370BD406801F0F3F800232C
:104060006360F6E76DB98068FCF772F8226CA368AC
:104070001344A3606268934219D32368A36028465F
:10408000E7E7C068FCF764F8226C5142E3689B1ACA
:10409000E3602268934202D263680B44E360022D1E
:1040A00001D00020D5E726B1013E0020D1E7284607
:1040B000CFE70020CDE708B50346026C62B10846A1
:1040C000D9681144D960D3F804C0614501D3196897
:1040D000D960D968FCF73CF808BD38B50546FFF74C
:1040E00061FD95F8454064B201E0013C64B2002CEA
:1040F0000ADD6B6A43B105F1240000F057FF002888
:10410000F3D001F02BF8F0E7FF2385F84530FFF7F7
:104110006BFDFFF747FD95F8444064B201E0013CB8
:1041200064B2002C0ADD2B6943B105F1100000F0E8
:104130003DFF0028F3D001F011F8F0E7FF2385F8E8
:104140004430FFF751FD38BD38B5E0B10D460446A7
:10415000FFF728FD2368E26B216C01FB02306060F1
:104160000020A063A360013A02FB0133E360FF2358
:1041700084F8443084F84530FDB9236963B9FFF70A
:1041800033FD012038BD4FF0500383F31188BFF396
:104190006F8FBFF34F8FFEE704F1100000F006FFB2
:1041A0000028ECD04FF0E0234FF08052C3F8042DEC
:1041B000BFF34F8FBFF36F8FE1E704F11000FFF7FC
:1041C00051FC04F12400FFF74DFCD8E710B503467D
:1041D00002980C4631B90060C36304640121FFF703
:1041E000B3FF10BD0260F7E740B94FF0500383F30F
:1041F0001188BFF36F8FBFF34F8FFEE7F0B583B029
:104200000C4615460746A1B101FB00F04830FFF708
:1042100043FE064650B1002380F8463000902B46FE
:1042200000F1480221463846FFF7D0FF304603B080
:10423000F0BD0846EAE7F0B585B0019288B10F46B7
:104240001D460446B1B1022D20D1E36B012B1DD0D8
:104250004FF0500383F31188BFF36F8FBFF34F8F7D
:10426000FEE74FF0500383F31188BFF36F8FBFF366
:104270004F8FFEE7036C002BE5D04FF0500383F324
:104280001188BFF36F8FBFF34F8FFEE700F06CFF15
:10429000064658B9019B002B48D04FF0500383F3DA
:1042A0001188BFF36F8FBFF34F8FFEE700263DE00D
:1042B0002A4639462046FFF7C3FE636A7BB948B1F8
:1042C0004FF0E0234FF08052C3F8042DBFF34F8F1F
:1042D000BFF36F8FFFF788FC012005B0F0BD04F13C
:1042E000240000F063FE0028F4D04FF0E0234FF0EC
:1042F0008052C3F8042DBFF34F8FBFF36F8FE9E7F0
:10430000FFF772FC0020E8E702A800F0D9FE0126C2
:1043100019E0002384F8443021E0002384F845307C
:1043200023E02046FFF7D9FE00F00EFDFFF73AFC30
:10433000A26BE36B9A42BBD3022DB9D0019B002B39
:10434000DED0002EE0D0FFF74FFC00F069FCFFF755
:1043500029FC94F8442052B2B2F1FF3FD9D094F82E
:10436000452052B2B2F1FF3FD7D0FFF73DFC01A983
:1043700002A800F0B1FED8B92046FFF745FE00289C
:10438000CFD0019904F1100000F0CCFD2046FFF7DA
:10439000A4FE00F0D9FC0028C8D14FF0E0234FF074
:1043A0008052C3F8042DBFF34F8FBFF36F8FBDE76B
:1043B0002046FFF792FE00F0C7FC00208DE748B1D1
:1043C00008B5002141600160C1600B460A46FFF755
:1043D00032FF08BD704710B5024600210120FFF7EB
:1043E00003FF0446FFF7EBFF204610BD2DE9F8431D
:1043F00090B10F4616461C460546B1B1022C20D19D
:10440000EB6B012B1DD04FF0500383F31188BFF3EA
:104410006F8FBFF34F8FFEE74FF0500383F3118888
:10442000BFF36F8FBFF34F8FFEE7036C002BE5D018
:104430004FF0500383F31188BFF36F8FBFF34F8F9B
:10444000FEE7FFF799FCEFF311894FF0500383F378
:104450001188BFF36F8FBFF34F8FAA6BEB6B9A423C
:1044600006D3022C04D0002089F31188BDE8F8831C
:1044700095F845804FFA88F8224639462846FFF7D6
:10448000DFFDB8F1FF3F06D008F101035BB285F80C
:1044900045300120E8E76B6A0BB90120E4E705F13C
:1044A000240000F083FD18B126B101203060DBE765
:1044B0000120D9E70120D7E7F0B585B0019290B18E
:1044C0000F460446C1B100F04FFE064600BB019BFB
:1044D000002B5ED04FF0500383F31188BFF36F8F32
:1044E000BFF34F8FFEE74FF0500383F31188BFF304
:1044F0006F8FBFF34F8FFEE7036C002BE3D04FF0BD
:10450000500383F31188BFF36F8FBFF34F8FFEE724
:1045100000263EE039462046FFF7CDFD013DA5636C
:10452000236923B9FFF760FB012005B0F0BD04F15A
:10453000100000F03BFD0028F4D04FF0E0234FF0D6
:104540008052C3F8042DBFF34F8FBFF36F8FE9E79D
:10455000FFF74AFB0020E8E702A800F0B1FD0126C2
:1045600021E0002384F8443029E0002384F845301A
:104570002BE02046FFF7B1FD00F0E6FB09E0204606
:10458000FFF7ABFD00F0E0FB2046FFF74CFD0028F5
:104590003FD1FFF707FBA56B002DBBD1019B002B83
:1045A000D6D0002ED8D0FFF71FFB00F039FBFFF765
:1045B000F9FA94F844305BB2B3F1FF3FD1D094F8EC
:1045C00045305BB2B3F1FF3FCFD0FFF70DFB01A940
:1045D00002A800F081FD0028D1D12046FFF723FD7D
:1045E0000028C6D0019904F1240000F09BFC20466D
:1045F000FFF773FD00F0A8FB0028CAD14FF0E023BD
:104600004FF08052C3F8042DBFF34F8FBFF36F8F6D
:10461000BFE7002089E770B584B0019158B1044626
:10462000036C8BB14FF0500383F31188BFF36F8F8E
:10463000BFF34F8FFEE74FF0500383F31188BFF3B2
:104640006F8FBFF34F8FFEE700F08EFD054650B928
:10465000019B5BB14FF0500383F31188BFF36F8F61
:10466000BFF34F8FFEE70026354655E0064653E080
:10467000013BA36323683BB123694BB9FFF7B4FA4D
:104680000126304604B070BD00F0A2FE6060F3E782
:1046900004F1100000F08AFC0028EFD04FF0E02376
:1046A0004FF08052C3F8042DBFF34F8FBFF36F8FCD
:1046B000E4E746B14FF0500383F31188BFF36F8FE7
:1046C000BFF34F8FFEE7FFF78FFADAE702A800F09B
:1046D000F7FC01252AE0002384F8443032E000236F
:1046E00084F8453034E0FFF75DFA606800F04CFD77
:1046F0000646FFF779FA3BE02046FFF7EEFC00F0B4
:1047000023FB09E02046FFF7E8FC00F01DFB2046F4
:10471000FFF789FC002842D1FFF744FAA36B002B76
:10472000A6D1019B002BC4D0002DCFD0FFF75CFA9F
:1047300000F076FAFFF736FA94F844305BB2B3F142
:10474000FF3FC8D094F845305BB2B3F1FF3FC6D00D
:10475000FFF74AFA01A902A800F0BEFC0028D1D157
:104760002046FFF760FC0028C6D02368002BBAD093
:10477000019904F1240000F0D5FB2046FFF7ADFCC1
:1047800000F0E2FA0028C7D14FF0E0234FF080524A
:10479000C3F8042DBFF34F8FBFF36F8FBCE70EB983
:1047A00000266EE7FFF7FEF92046FFF725FC0146DD
:1047B000606800F0A1FDFFF717FAF1E7084B1B68EE
:1047C0001B6823B9074B4FF0FF321A607047044B48
:1047D0001B68DB68DB685A68024B1A60704700BFD1
:1047E0009C350020743600202DE9F0470746984696
:1047F000089DDDF824900A9C266B02F18042013A64
:1048000006EB820626F007064FF0000CBCF10F0FF6
:104810000BD811F80C2004EB0C0383F8342011F8AA
:104820000C3013B10CF1010CF0E7002384F8433095
:10483000062D00D90625E56265644FF0000AC4F82C
:1048400048A0201DFFF719F904F11800FFF715F92A
:104850002461C5F10705A5616462C4F84CA084F821
:1048600050A0424639463046FFF772F92060B9F150
:10487000000F01D0C9F80040BDE8F08738B500242A
:1048800007E004EB840293000E481844FFF7EAF8AF
:104890000134062CF5D90C4D2846FFF7E3F80B4CF4
:1048A0002046FFF7DFF80A48FFF7DCF80948FFF772
:1048B000D9F80948FFF7D6F8084B1D60084B1C6073
:1048C00038BD00BFA4350020483600205C360020EB
:1048D0007C360020A8360020943600209C3500202D
:1048E000A035002010B50446FFF75CF9214A136893
:1048F00001331360204B1B685BB1204B1B686BB905
:104900001D4B1B68DA6AE36A9A4207D81A4B1C608F
:1049100004E0194B1C601368012B28D0184A136857
:1049200001331360E06A01238340164A11680B4388
:10493000136000EB8000211D134B03EB8000FFF799
:104940009FF8FFF751F90D4B1B687BB10A4B1B68B1
:10495000DA6AE36A9A4209D24FF0E0234FF08052BC
:10496000C3F8042DBFF34F8FBFF36F8F10BDFFF758
:1049700085FFD3E7303600209835002090360020A0
:104980004036002044360020A435002010B50446EF
:1049900090F8513063B1012B11D0022B0ED04FF0A3
:1049A000500383F31188BFF36F8FBFF34F8FFEE780
:1049B000006BFFF7E9FA2046FFF7E6FA10BDFFF7B4
:1049C000E3FAFBE70F4B1B68D3B110B5FFF7EAF82A
:1049D0000D4BDB68DC68201DFFF776F80B4A136887
:1049E000013B1360074A1368013B1360FFF7FCF8B3
:1049F0002046FFF7CBFF034B1B68002BE6D110BD11
:104A0000704700BF34360020A83600203036002022
:104A100008B5FFF7D7FF074B1B68012BF9D94FF0FB
:104A2000E0234FF08052C3F8042DBFF34F8FBFF344
:104A30006F8FEEE7A435002070B504460D461D4B80
:104A40001E681D4B18680430FFF73EF850B91A4B2A
:104A50001B68DA6A012303FA02F218490B6823EA99
:104A600002030B60B4F1FF3F0DD03444124B1B68BE
:104A70005C60A64210D9124B18680F4B19680431BC
:104A8000FFF709F870BD002DEFD00B4B196804310A
:104A90000C48FEF7F5FFF5E70B4B1868064B196855
:104AA0000431FEF7F8FF094B1B68A342EAD9074B14
:104AB0001C60E7E7BC360020983500204436002013
:104AC000A0350020943600209C350020743600204C
:104AD00030B587B00B9C7CB10C9DB5B154250495C5
:104AE000049D542D1AD04FF0500383F31188BFF367
:104AF0006F8FBFF34F8FFEE74FF0500383F31188A2
:104B0000BFF36F8FBFF34F8FFEE74FF0500383F378
:104B10001188BFF36F8FBFF34F8FFEE70C9D2C639F
:104B2000022485F8514000240394029505AC0194B9
:104B30000A9C0094FFF758FE0C98FFF7D3FE0598E7
:104B400007B030BD2DE9F04385B0074688461446CE
:104B50001E469000FFF7A0F900B381465420FFF7EE
:104B60009BF90546B0B1C0F83090E5B1002385F857
:104B70005130039302950D9B01930C9B0093334698
:104B8000224641463846FFF72FFE2846FFF7AAFE89
:104B9000012005E04846FFF7F7F9E6E74FF0FF3060
:104BA00005B0BDE8F0834FF0FF30F9E710B588B0ED
:104BB00000240594069407AA06A905A8FBF730FC73
:104BC000059B0293069B019300942346079A0E4986
:104BD0000E48FFF77DFF0E4B186090B14FF0500369
:104BE00083F31188BFF36F8FBFF34F8F094B4FF0E3
:104BF000FF321A60084B01221A60084B1C60FFF755
:104C00005BF808B010BD00BFC0580008114A00088A
:104C1000703600207436002090360020BC3600200C
:104C2000024A136801331360704700BF3C3600200E
:104C3000F8B53A4B1B68002B64D1394B1D68013520
:104C40001D60C5B9374B1B681B6843B14FF050035B
:104C500083F31188BFF36F8FBFF34F8FFEE7314AA5
:104C60001168314B186810601960304A13680133BD
:104C70001360FFF7A3FD2E4B1B68AB4238D900270A
:104C80002C4B1B68DB6A03EB83039A002A4B9B586F
:104C9000012B3CD901273AE00127224B1B681B68F6
:104CA00043B3204B1B68DB68DC6863689D4226D3F6
:104CB000261D3046FEF708FFA36A1BB104F1180059
:104CC000FEF702FFE36A01229A401C49086802438A
:104CD0000A6003EB83039A00314617481044FEF73D
:104CE000CFFEE26A134B1B68DB6A9A42D4D2D4E748
:104CF0000027D2E70E4B4FF0FF321A60C0E70C4A94
:104D00001360BDE70E4A13680133136000270D4B93
:104D10001B6803B101273846F8BD00BF3C360020B0
:104D2000BC3600209C350020A035002078360020BD
:104D30007436002098350020A43500204436002029
:104D400038360020C036002038B5354B1B6843B9D3
:104D50004FF0500383F31188BFF36F8FBFF34F8F72
:104D6000FEE7FEF71FFF2E4B1A68013A1A601B6818
:104D7000002B4FD12B4B1B680BB900244BE00024B8
:104D8000294B1B681BB3284BDB68DC6804F1180057
:104D9000FEF79AFE251D2846FEF796FEE06A0123DF
:104DA0008340224A11680B43136000EB80002946C0
:104DB0001F4B03EB8000FEF763FEE26A1D4B1B688E
:104DC000DB6A9A42DCD31C4B01221A60D8E70CB193
:104DD000FFF7F4FC194B1C6884B9174B1C68D4B15D
:104DE0004FF0E0234FF08052C3F8042DBFF34F8FF4
:104DF000BFF36F8F01240EE0013C07D0FFF718FFCF
:104E00000028F9D00C4B01221A60F5E70B4B002269
:104E10001A60E2E70024FEF7E7FE204638BD00BF37
:104E20003C360020303600207C36002044360020FE
:104E3000A435002098350020C036002038360020E8
:104E400010B5A8B10446104B1B6843B14FF0500396
:104E500083F31188BFF36F8FBFF34F8FFEE7FFF728
:104E6000DFFE00212046FFF7E7FDFFF76DFF48B9A1
:104E70004FF0E0234FF08052C3F8042DBFF34F8F63
:104E8000BFF36F8F10BD00BF3C360020204B1B6866
:104E90001BB1204B01221A6070471E4B00221A6082
:104EA0001D4B1B68B3FA83F3DBB2C3F11F0303EBA3
:104EB00083018A0019498A5842B94FF0500383F39D
:104EC0001188BFF36F8FBFF34F8FFEE7134903EBDA
:104ED000830082000A4450684068506003EB830CF2
:104EE0004FEA8C0208321144884209D003EB830355
:104EF0009A000A4B13445B68DA68094B1A607047E2
:104F0000406862469100054A0A445060EEE700BFDF
:104F10003C360020C036002044360020A435002056
:104F20009835002058B110B50C46094A116818315F
:104F3000FEF7B1FD01212046FFF77EFD10BD4FF0C9
:104F4000500383F31188BFF36F8FBFF34F8FFEE7DA
:104F50009835002070B110B514460246114B1B68FD
:104F60008BB94FF0500383F31188BFF36F8FBFF3FA
:104F70004F8FFEE74FF0500383F31188BFF36F8F1D
:104F8000BFF34F8FFEE7084B186841F00041816185
:104F9000196818311046FEF773FD01212046FFF70E
:104FA0004BFD10BD3C3600209835002038B5C36855
:104FB000DC6824B304F118052846FEF785FD184B7C
:104FC0001B682BBB251D2846FEF77EFDE06A0123EA
:104FD0008340144A11680B43136000EB800029469C
:104FE000114B03EB8000FEF74BFDE26A0F4B1B6891
:104FF000DB6A9A4211D901200D4B186038BD4FF081
:10500000500383F31188BFF36F8FBFF34F8FFEE719
:1050100029460848FEF734FDE7E70020EEE700BF29
:105020003C36002044360020A4350020983500206E
:10503000C03600207C36002038B51C4B1B6843B9B5
:105040004FF0500383F31188BFF36F8FBFF34F8F7F
:10505000FEE741F000410160C468F4B1FEF734FDA1
:10506000251D2846FEF730FDE06A01238340104AE3
:1050700011680B43136000EB800029460D4B03EBD6
:105080008000FEF7FDFCE26A0B4B1B68DB6A9A426C
:1050900002D90A4B01221A6038BD4FF0500383F346
:1050A0001188BFF36F8FBFF34F8FFEE73C360020B0
:1050B00044360020A435002098350020C03600205A
:1050C000034B1B680360034B1B684360704700BFC2
:1050D00078360020BC360020D8B170B50C460546A5
:1050E00001B3FEF75FFD1B4B19686B68C81A226895
:1050F000B2F1FF3F27D0184E3668D5F800C0B4454E
:1051000001D08B4224D9824215D800232360012488
:105110001AE04FF0500383F31188BFF36F8FBFF392
:105120004F8FFEE74FF0500383F31188BFF36F8F6B
:10513000BFF34F8FFEE75B1A134423602846FFF747
:10514000BFFF002400E00024FEF74EFD204670BDA6
:105150000124F9E7BC36002078360020014B0122FB
:105160001A607047C0360020054B1B6833B1054BF1
:105170001B680BB100207047022070470120704768
:10518000903600203C360020002851D038B5044627
:10519000C36A294A1268D26A934241D28269002ABC
:1051A00005DB254A1268D26AC2F107028261616991
:1051B00003EB8303214A02EB8303994205D01E4B84
:1051C0001B68DB6AE362012038BD251D2846FEF717
:1051D0007BFCA0B1184B1B68D86AE062012404FA7A
:1051E00000F3174A11680B43136000EB8000294657
:1051F000124B03EB8000FEF743FC2046E4E7E26A33
:1052000002EB82039B000D49CB58002BE2D1012316
:1052100003FA02F20A490B6823EA02030B60D9E79A
:10522000426C054B1B68DB6A9A4203D30020CBE734
:10523000002070470120C7E798350020A4350020E2
:105240004436002000284CD038B50446274B1B6854
:10525000834208D04FF0500383F31188BFF36F8F60
:10526000BFF34F8FFEE7836C43B94FF0500383F3D6
:105270001188BFF36F8FBFF34F8FFEE7013B83644D
:10528000C16A426C91422ED00BB1002038BD051D81
:105290002846FEF719FC70B9E26A02EB82039B0014
:1052A0001349CB583BB9012303FA02F211490B68A9
:1052B00023EA02030B60606CE062C0F10703A361A4
:1052C000012404FA00F30B4A11680B43136000EB4E
:1052D00080002946064B03EB8000FEF7D1FB2046F9
:1052E000D4E7002070470020D0E700BF98350020A9
:1052F000A435002044360020002856D038B5044696
:10530000836C43B94FF0500383F31188BFF36F8F61
:10531000BFF34F8FFEE7426C8A4200D20A46E16A31
:10532000914201D0012B00D038BD204B1B68A34215
:1053300032D0E262A369002B02DBC2F10702A26154
:10534000626901EB81011A4B03EB81018A42EBD1C7
:10535000251D2846FEF7B8FB70B9E26A02EB82030E
:105360009B001349CB583BB9012303FA02F21149C0
:105370000B6823EA02030B60E06A012383400D4AB5
:1053800011680B43136000EB80002946084B03EBC8
:105390008000FEF775FBC7E74FF0500383F31188D9
:1053A000BFF36F8FBFF34F8FFEE770479835002034
:1053B000A435002044360020044A13689869136815
:1053C000DB6A1268C3F107039361704798350020C8
:1053D000054B1B6823B1044B1A68936C013393642B
:1053E000014B1868704700BF9835002070B50D4E0E
:1053F0000D4D761BB61006D0002455F8043B013441
:105400009847A642F9D1094E094D00F003F9761BE1
:10541000B61006D0002455F8043B01349847A64244
:10542000F9D170BDCC580008CC580008D4580008F9
:10543000CC580008830730B548D0541E002A3FD00E
:105440000346CAB201E0013C3AD303F8012B9D07A1
:10545000F9D1032C2DD9CDB245EA05250F2C45EA0B
:10546000054536D9A4F1100222F00F0C03F1200EED
:10547000E6444FEA121C03F1100242E9045542E9E6
:10548000025510327245F8D10CF1010214F00C0FE4
:1054900003EB021204F00F0C13D0ACF1040323F061
:1054A00003030433134442F8045B9342FBD10CF032
:1054B00003042CB1CAB21C4403F8012B9C42FBD15B
:1054C00030BD64461346002CF4D1F9E70346144678
:1054D000BFE71A46A446E0E720F0030110F00300FE
:1054E000C0F1000051F8043B00F1040C4FEACC0C71
:1054F0006FF000021CBF22FA0CF213434FF0010CB4
:105500004CEA0C2C4CEA0C4CA3EB0C0222EA0302F2
:1055100012EACC1204BF51F8043B0430F4D0C2F1BB
:10552000000102EA0102B2FA82F2C2F11F0200EBAC
:10553000D2007047024B13B1024800F005B8704723
:105540000000000055550008002301461A46184681
:1055500000F01AB838B5084B084D5B1B9C1007D0FB
:10556000043B1D44013C55F804399847002CF9D1FF
:10557000BDE8384000F054B8D8580008D4580008A6
:10558000704700BF704700BF2DE9F047DFF87CA0EF
:105590000646DAF8000098460F469146FFF7F0FFFE
:1055A0001B4B1B68D3F8484124B365681F2D26DCCC
:1055B0005EB96B1C0235DAF80000636044F82570B0
:1055C000FFF7E0FF0020BDE8F087012304EB850131
:1055D000C1F88890D4F88821AB401A43022EC4F851
:1055E0008821C1F80881E4D1D4F88C211343C4F890
:1055F0008C31DEE703F5A674C3F84841D5E7DAF845
:105600000000FFF7BFFF4FF0FF30DCE74804002049
:10561000C8580008F8B500BFF8BC08BC9E467047E3
:0C562000F8B500BFF8BC08BC9E467047FF
:10562C00F05600083D0200080000000000000000D9
:10563C00800000000000000000000000FC56000884
:10564C005102000803000000000000008000000070
:10565C0000000000000000000C5700087909000849
:10566C00FFFF0000000000008000000000000000B0
:10567C000000000018570008D10C0008FDFF0000C6
:10568C00000000000001000000000000000000000D
:10569C002457000847020008FDFF0000000000002E
:1056AC0080000000000000000000000030570008DF
:1056BC0009120008FDFF000000000000800000003F
:1056CC0000000000000000004057000871120008A4
:1056DC00FDFF000000000000800000000000000042
:1056EC000000000064656661756C745461736B0036
:1056FC0055617274315265616448616E646C650009
:10570C004750494F5461736B000000006D7573690D
:10571C00635461736B0000006D79415343546173A2
:10572C006B00000047616D65466C61675461736B7B
:10573C000000000047616D655461736B0000000050
:10574C000000000000000000010203040607080925
:10575C0000000000010203042F36382E6D70330058
:10576C002F30312E6D7033002F30322E6D70330090
:10577C002F30332E6D7033002F30342E6D7033007C
:10578C002F30352E6D7033002F30372E6D70330067
:10579C002F31322E6D7033002F31342E6D7033005B
:1057AC002F31352E6D7033002F31382E6D70330044
:1057BC002F31392E6D7033002F32302E6D70330037
:1057CC002F32312E6D7033002F32322E6D7033002C
:1057DC002F32332E6D7033002F32342E6D70330018
:1057EC002F32352E6D7033002F33302E6D70330009
:1057FC002F30382E6D7033002F30392E6D703300F2
:10580C002F31302E6D7033002F31312E6D703300EF
:10581C002F31332E6D7033002F32362E6D703300D6
:10582C002F32372E6D7033002F32392E6D703300BE
:10583C002F32382E6D7033002F37302E6D703300B1
:10584C002F37382E6D7033002F37362E6D70330096
:10585C002F37372E6D7033002F37332E6D7033008A
:10586C002F37322E6D7033002F37342E6D7033007E
:10587C002F37312E6D7033002F38302E6D70330072
:10588C002F37352E6D7033002F37392E6D70330056
:10589C002F36392E6D7033002F30362E6D7033004D
:1058AC0002030405060708090A0B0C0D0E0F101055
:1058BC000102000049444C4500000000200000207B
:0858CC00355500083501000804
:0458D40011010008B6
:1058D8000024F400330000003300000064000000DE
:1058E8000100000010000000AAAAAAAA00000000F7
:1058F800000000000C03002074030020DC030020DB
:10590800000000000000000000000000000000008F
:10591800000000000000000000000000000000007F
:10592800000000000000000000000000000000006F
:10593800000000000000000000000000000000005F
:10594800000000000000000000000000000000004F
:10595800000000000000000000000000000000003F
:10596800000000000000000000000000000000002F
:10597800000000000000000000000000000000001F
:10598800000000000000000000000000000000000F
:1059980000000000000000000100000000000000FE
:1059A8000E33CDAB34126DE6ECDE05000B000000C3
:1059B80000000000000000000000000000000000DF
:1059C80000000000000000000000000000000000CF
:1059D80000000000000000000000000000000000BF
:1059E80000000000000000000000000000000000AF
:0C5D18000000000000000000C436002065
:040000050800232D9F
:00000001FF
