:020000040800F2
:1000000000500020A12A0008151000081710000851
:10001000191000081B1000081D1000080000000047
:10002000000000000000000000000000214B00085C
:100030001F10000800000000C14B0008054C00081C
:10004000E92A0008E92A0008E92A0008E92A000844
:10005000E92A0008E92A0008E92A0008E92A000834
:10006000E92A0008E92A0008E92A0008E92A000824
:10007000E92A0008E92A0008E92A0008E92A000814
:10008000E92A0008E92A0008E92A0008E92A000804
:10009000E92A0008E92A0008E92A0008E92A0008F4
:1000A000E92A0008E92A0008E92A0008E92A0008E4
:1000B00021100008E92A0008E92A0008E92A0008B6
:1000C000E92A0008E92A0008E92A0008E92A0008C4
:1000D000E92A0008311000084110000851100008FA
:1000E000E92A0008E92A0008E92A000800000000BF
:1000F0000000000000000000000000000000000000
:0C01000000000000000000005FF808F1A3
:1001100010B5054C237833B9044B13B10448AFF341
:1001200000800123237010BD0C050020000000009A
:10013000B465000808B5034B1BB103490348AFF38E
:10014000008008BD0000000010050020B465000814
:10015000844641EA000313F0030349D1403A23D314
:100160000B6803604B6843608B688360CB68C36037
:100170000B6903614B6943618B698361CB69C3611F
:100180000B6A03624B6A43628B6A8362CB6AC36207
:100190000B6B03634B6B43638B6B8363CB6BC363EF
:1001A00040304031403ADBD230320BD30B68036031
:1001B0004B6843608B688360CB68C360103010313C
:1001C000103AF3D20C3205D351F8043B40F8043B0B
:1001D000043AF9D2043208D0D2071CBF11F8013B0F
:1001E00000F8013B01D30B8803806046704700BFD5
:1001F000082A13D38B07B1D010F00303AED0C3F19C
:100200000403D21ADB071CBF11F8013B00F8013BC5
:10021000A4D331F8023B20F8023B9FE7043AD9D33C
:10022000013A11F8013B00F8013BF9D20B78037059
:100230004B7843708B7883706046704708B5012017
:1002400004F0D2FAFBE708B5012004F0CDFAFBE791
:1002500008B5012004F0C8FAFBE7000000B5A7B01C
:1002600098E09DF85430012B0FD0002B40F0928085
:100270009DF853305A0903F01F0301219940624B46
:1002800053F8220004F057FB84E09DF853305A09DC
:1002900003F01F03012199405B4B53F8220004F047
:1002A0006DFB77E09DF85330ADF804309DF8543085
:1002B000003B18BF01238DF8063000231A4601A920
:1002C0005248006804F087FF012863D0EE238DF8C0
:1002D00051304FF0FF33BDF894200DF151014C48DF
:1002E00003F0E6FF56E04B4B01939DF853308DF839
:1002F0000830259A043A139215A90DF10900FFF769
:1003000027FF00231A4601A94348006804F063FF51
:1003100001283FD0EE238DF851304FF0FF33BDF868
:1003200094200DF151013A4803F0C2FF32E03B4BFB
:1003300001939DF853308DF80830259A043A1392B2
:1003400015A90DF10900FFF703FF00231A4601A9C3
:100350003148006804F03FFF01281BD0EE238DF8E0
:1003600051304FF0FF33BDF894200DF15101284872
:1003700003F09EFF0EE09DF853308DF804309DF899
:1003800054308DF8053000231A4601A9244800682E
:1003900004F021FF4FF0FF3214A9224B186805F03A
:1003A0005BF80128F6D19DF85230013B0F2BF1D8B4
:1003B00001A252F823F000BF63020008A502000862
:1003C000E70200082F0300087703000895030008E0
:1003D000950300089503000895030008950300089D
:1003E000950300089503000895030008950300088D
:1003F00095030008F903000800231A4619460A4825
:10040000006804F0E8FEC5E7400500206005002014
:10041000E40900202C0A002058050020740A00205E
:10042000380500206805002078050020034B036094
:10043000034B0B6080231360704700BF7C070020D4
:100440007C05002010B5C0B0002405E004F0E1F9FF
:100450006B4B43F824000134042CF7DD04F0D9F988
:10046000684B186000F052FF03220021012004F0C5
:100470008BFE654B1860002248210F2004F084FE9B
:10048000624B1860002248210F2004F07DFE604B73
:10049000186000220421802004F076FE5D4B186075
:1004A00000224C210F2004F06FFE5B4B18600022ED
:1004B00002210F2004F068FE584B1860584C0DF1D3
:1004C000E40CA646BEE80F00ACE80F009EE807006B
:1004D0008CE80700002139A804F051F9514B18604D
:1004E0000DF1C80C04F11C0EBEE80F00ACE80F00C3
:1004F0009EE807008CE80700002132A804F03FF9CD
:10050000494B18600DF1AC0C04F1380EBEE80F0039
:10051000ACE80F009EE807008CE8070000212BA83C
:1005200004F02DF9414B18600DF1900C04F1540EBC
:10053000BEE80F00ACE80F009EE807008CE807005B
:10054000002124A804F01BF9394B18600DF1740C3C
:1005500004F1700EBEE80F00ACE80F009EE8070043
:100560008CE8070000211DA804F009F9314B186040
:100570000DF1580C04F18C0EBEE80F00ACE80F0032
:100580009EE807008CE80700002116A804F0F7F8A1
:10059000294B18600DF13C0C04F1A80EBEE80F00C9
:1005A000ACE80F009EE807008CE8070000210FA8C8
:1005B00004F0E5F8214B18600DF1200C04F1C40E95
:1005C000BEE80F00ACE80F009EE807008CE80700CB
:1005D000002108A804F0D3F8194B18600DF1040CA1
:1005E000E0340FCCACE80F0094E807008CE807007B
:1005F000002101A804F0C3F8124B186040B010BDF0
:1006000040050020540500207805002068050020E2
:100610005C050020600500205805002038050020FA
:10062000CC6500086C050020640500203005002022
:100630007005002074050020340500203C050020D2
:10064000280500202C0500202DE9F04188B0002469
:100650000494059406940794294B9A6942F0200269
:100660009A619A6902F020020192019A9A6942F015
:1006700004029A619A6902F004020292029A9A694B
:1006800042F008029A619B6903F008030393039BFD
:10069000DFF87080224648F2B001404602F02BFCA1
:1006A000194E224643F2F831304602F024FC02276C
:1006B000049705940125069504A9404602F002FB23
:1006C00048F2B003049305950694079704A94046A1
:1006D00002F0F8FA44F2040304930594069504A981
:1006E000304602F0EFFA43F2F8330493059506948E
:1006F000079704A9304602F0E5FA08B0BDE8F0819A
:100700000010024000080140000C014038B50446CA
:1007100002784FF40041154802F0EDFB144D627869
:100720000821284602F0E7FBA2781021284602F0B3
:10073000E2FBE2782021284602F0DDFB227940210D
:10074000284602F0D8FB62798021284602F0D3FBCC
:10075000A2794FF48071284602F0CDFBE2794FF484
:100760000071284602F0C7FB38BD00BF00080140F9
:10077000000C014070B506464C1E13E0012280219A
:10078000154802F0B8FB144D00222021284602F043
:10079000B2FB012004F028F801222021284602F0B3
:1007A000AAFB013C072C08DD335D002BE6D10022BB
:1007B0008021094802F09FFBE5E7074C0022102149
:1007C000204602F098FB012004F00EF801221021CF
:1007D000204602F090FB70BD0008014010B50446B1
:1007E000FFF794FF70212046FFF7C4FF10BD000003
:1007F00000B583B0ADF804008DF8061000231A464A
:1008000001A90348006804F0E6FC03B05DF804FBAE
:1008100060050020F8B504460D46294E00224FF42D
:100820008051304602F067FB012003F0DDFF01221A
:100830004FF48051304602F05EFB012003F0D4FFFC
:100840004FF48041304602F04FFBB0FA80F040098F
:100850002070012619E01A4F00224FF4005138464B
:1008600002F049FB012003F0BFFF01224FF40051C9
:10087000384602F040FB4FF48041384602F034FB2A
:10088000B0FA80F04009A0550136AE42E3DB4FF0EC
:10089000000C0FE00CEB030014F800E0C3F10702BA
:1008A0006244A15C215404F802E00133032BF1DD22
:1008B0000CF1080CAC4501DA0023F7E7F8BD00BFE6
:1008C000000C0140014B185C704700BFD0070020AE
:1008D000044B1A5C044B1B5C9A4201D00120704708
:1008E00000207047D0070020B408002010B582B067
:1008F0007021FFF78FFF002418E02A4A82FB0432A0
:10090000E317C3EBA20303EB4302A4EBC2020121F2
:100910009140254A52F8230004F030F8234B1B681D
:1009200013BB234B1A5D234B1A5501346F2C33DC58
:100930002046FFF7CDFF0028F7D02046FFF7C2FF83
:100940000128DAD0174A82FB0432E317C3EBA20373
:1009500003EB4302A4EBC20201219140124A52F878
:10096000230003F0E8FFD9E7CC238DF80030012302
:100970008DF801308DF802402046FFF7A3FF8DF877
:100980000300FF238DF804304FF0FF330522694642
:10099000094803F08DFCC4E7044B01221A6002B041
:1009A00010BD00BFABAAAA2A4005002040080020C5
:1009B000D0070020B4080020E409002010B584B05E
:1009C0004CE000213B4B186804F0F5FD01283CD1B8
:1009D000002400E001346F2C18DC374B1B5D012B29
:1009E000F8D1CC238DF8043001238DF805308DF833
:1009F00006408DF80730FF238DF808304FF0FF33A5
:100A0000052201A92D4803F053FCE3E7002400E090
:100A100001346F2C19DC2A4B1B5D012BF8D1CC2340
:100A20008DF8043002238DF805308DF8064001233F
:100A30008DF80730FF238DF808304FF0FF33052283
:100A400001A91E4803F034FCE2E7012003F0CCFECC
:100A50001B48FFF7C3FE1848FFF748FF002203A911
:100A6000184B186804F0F8FC0128AAD1BDF80C2036
:100A7000134B995C9DF80E309942EFD010498B547E
:100A8000CC218DF8041002218DF805108DF8062078
:100A9000012B14BF002301238DF80730FF238DF8AD
:100AA00008304FF0FF33052201A9044803F000FC91
:100AB000D4E700BF78050020D0070020E40900201B
:100AC000440800206005002008B50368B3F1804F9A
:100AD00000D008BD02F01CF8FBE772B6FEE700B5D7
:100AE00095B0282200210DEB020005F073FC0023D5
:100AF0000593069307930893099301930293039335
:100B0000049309230A934FF480330B9301220E922E
:100B100010920222119212934FF4E01313930AA839
:100B200002F00CFAC8B90F230593022106910023A5
:100B300007934FF480620892099305A802F030FCF5
:100B400068B9012301934FF40073029301A802F0E6
:100B500021FD30B915B05DF804FBFFF7BEFFFFF7CC
:100B6000BCFFFFF7BAFF000008B501F0BFFFFFF7B9
:100B7000B6FFFFF769FD00F075FA00F08DFA00F09E
:100B8000A5FA00F06DF9012209490A4803F0D9FDE0
:100B900001220949094803F0D4FD01220849094806
:100BA00003F0CFFDFFF74EFC03F0E4FDFEE700BFCE
:100BB00024090020E4090020480900202C0A002014
:100BC00068090020740A00202DE9F04100AF80463A
:100BD000084611461E46DC1C0B3323F00703ADEB21
:100BE000030D6D468DF80000C0438DF801008DF8AF
:100BF000026032460DF10300FFF7AAFA00210DF85A
:100C0000041006E015F801C02B5D9C4405F804C0F3
:100C10000131A142F6D3321D4FF0FF3392B2294683
:100C2000404603F045FBC82003F0DEFDBD46BDE8AD
:100C3000F0810000402A00D9704770B594B0064694
:100C40000D4614464C22002101A805F0C3FB019675
:100C500004238DF8083007238DF8093022462946F1
:100C60000DF10A00FFF774FA0134139400231A46B9
:100C700001A90348006804F0AEFA14B070BD00BFCB
:100C80005805002010B594B004464C22002101A85C
:100C900005F0A0FB019404238DF808300123139381
:100CA0000A238DF8093000231A4601A9024800687A
:100CB00004F091FA14B010BD5805002030B595B07D
:100CC00005460C464C22002101A805F083FB019546
:100CD0000B238DF808300223139301238DF809307C
:100CE0008DF80A4000231A4601A90348006804F061
:100CF00072FA15B030BD00BF5805002010B594B091
:100D000004464C22002101A805F064FB0194042351
:100D10008DF808300123139303238DF80930002345
:100D20001A4601A90248006804F055FA14B010BD33
:100D30005805002070B5B6B00221434802F0D4F83F
:100D400005460421414802F0CFF8044657E0359BA0
:100D50000DF191029DF890102398FFF735FF56E0B2
:100D6000CC238DF800309DF844308DF80130229E60
:100D700032460DF145010DF10200FFF7E9F906F1E8
:100D8000DA036B44FF2203F8D82CF21C4FF0FF3338
:100D900092B269462E4803F08BFA40E002212A48BD
:100DA00002F0A2F800283CD101212A4B186803F078
:100DB000C2FD36E00221244802F096F8012832D123
:100DC0000121244B186803F0D9FD2CE004211F48B1
:100DD00002F08AF848BB4FF480711E4B186803F08C
:100DE000AAFD22E00221184802F07EF805460421FF
:100DF000164802F079F80446012003F0F5FC0022C1
:100E000023A9154B186804F027FB01289FD0002266
:100E100011A9124B186804F01FFB0128A0D0012D66
:100E2000BCD0002DC6D0012CD0D0002CDAD10421AA
:100E3000064802F059F80128D4D14FF48071054BCF
:100E4000186803F09BFDCDE700080140000C01404D
:100E5000E409002054050020580500205C0500200E
:100E600000B583B00023ADF804308DF80630009350
:100E700019481A4B03604FF0FF3343604FF48073FF
:100E8000836002F041FFF0B900238DF804308DF843
:100E900005308DF80630012201A90F4802F0C6FD89
:100EA000A0B901228DF800208DF801208DF80220D4
:100EB00000238DF803306946074802F09FFE40B9D1
:100EC00003B05DF804FBFFF708FEDDE7FFF705FE62
:100ED000E7E7FFF702FEF3E788090020002800405B
:100EE00002680C4B9A4200D0704700B583B002F004
:100EF00009F8094BDA6942F00062DA61DB6903F054
:100F000000630193019B054B0122C3F83C2403B00D
:100F10005DF804FB0028004000100240000042423F
:100F200000B583B0114B9A6942F001029A619A6947
:100F300002F001020092009ADA6942F08052DA610E
:100F4000DB6903F080530193019B00220F216FF0B6
:100F5000010001F001FE064A536823F0E06343F00C
:100F60000073536003B05DF804FB00BF0010024043
:100F70000000014030B589B00446224BDA6942F0E6
:100F80000102DA61DB6903F001030193019B02A90D
:100F900003A802F0E1FA069BD3B902F0BDFA0346BA
:100FA0001948A0FB03239B0C013B18484FF08042DB
:100FB000026040F2E732C260436000230361836055
:100FC000836103F02BF8054630B1284609B030BDE7
:100FD00002F0A2FA4300E3E70C4802F0EFFE0546F8
:100FE0000028F2D11C2001F0EFFD0F2C01D90125C2
:100FF000EBE7002221461C2001F0AEFD044B1C60F3
:10100000E3E700BF0010024083DE1B439C09002081
:10101000D8000020FEE7FEE7FEE7FEE7FEE77047A8
:1010200008B5024802F002FF08BD00BF9C0900207D
:1010300008B5024803F026FA08BD00BFE409002005
:1010400008B5024803F01EFA08BD00BF2C0A0020B4
:1010500008B5024803F016FA08BD00BF740A002064
:101060007047000008B50A480A4B03604FF4E133AB
:10107000436000238360C36003610C22426183618B
:10108000C36103F0E5F800B908BDFFF726FDFBE7F3
:10109000E40900200038014008B50A480A4B036003
:1010A0004FF41653436000238360C36003610C2236
:1010B00042618361C36103F0CBF800B908BDFFF75B
:1010C0000CFDFBE72C0A00200044004008B50A484C
:1010D0000A4B03604FF41653436000238360C360E0
:1010E00003610C2242618361C36103F0B1F800B96E
:1010F00008BDFFF7F2FCFBE7740A0020004800403F
:1011000030B58BB0002306930793089309930368C7
:101110004F4A934207D04F4A934236D04E4A9342A9
:1011200063D00BB030BD4D4B9A6942F480429A6156
:101130009A6902F480420092009A9A6942F004028D
:101140009A619B6903F004030193019B4FF40073C0
:1011500006930223079303230993414D06A92846CA
:1011600001F0B0FD4FF480630693002407940894C7
:1011700006A9284601F0A6FD22460521252001F0FA
:10118000EBFC252001F020FDCBE7344BDA6942F47B
:101190000032DA61DA6902F400320292029A9A6944
:1011A00042F004029A619B6903F004030393039BDA
:1011B000042306930223079303230993284D06A9CA
:1011C000284601F07FFD0823069300240794089425
:1011D00006A9284601F076FD22460521262001F0C9
:1011E000BBFC262001F0F0FC9BE71C4BDA6942F4C3
:1011F0008022DA61DA6902F480220492049A9A6900
:1012000042F008029A619B6903F008030593059B6D
:101210004FF4806306930223079303230993114D30
:1012200006A9284601F04EFD4FF400630693002402
:101230000794089406A9284601F044FD224605219A
:10124000272001F089FC272001F0BEFC69E700BFE0
:1012500000380140004400400048004000100240B7
:1012600000080140000C01400268224B9A4200D065
:10127000704710B594B0204B1B78204AD35CCC2B20
:1012800019D01F4B1B6863B1036858681A4B197853
:101290004A1CD2B21A70194B5854511E5B5CFF2B7A
:1012A00010D0154B1B78012214491944154803F03E
:1012B00048FA14B010BD124B01221A600E4B0022E6
:1012C0001A70DEE70024019402238DF8083013928F
:1012D0000A490DF10900FEF73BFF234601AA02A9C6
:1012E0000948006804F052F8054B1C60024B1C7062
:1012F000D7E700BF0038014044090020240900203E
:10130000BC0A0020E40900206805002008B501207F
:1013100004F031F8014B186008BD00BF1C0B002021
:1013200010B504460028D4BF002101212C20FFF76E
:101330005FFA012CD4BF002101212D20FFF758FABC
:10134000022CD4BF002101213020FFF751FA032CD9
:10135000D4BF002101213120FFF74AFA042CD4BF69
:10136000002101213220FFF743FA052CD4BF0021D0
:1013700001213320FFF73CFA062CD4BF00210121C4
:101380002E20FFF735FA072CD4BF002101212F2092
:10139000FFF72EFA082CD4BF002101213420FFF7DB
:1013A00027FA092CD4BF002101213520FFF720FAAC
:1013B0000A2CD4BF002101213620FFF719FA0B2C8B
:1013C000D4BF002101213720FFF712FA0C2CD4BF23
:1013D000002101213820FFF70BFA0D2CD4BF00218A
:1013E00001213920FFF704FA0E2CD4BF002101217E
:1013F0003A20FFF7FDF90F2CD4BF002101213B203B
:10140000FFF7F6F910BD000010B582B0514B6C46E5
:1014100093E8030084E80300204605F02DF8024617
:10142000042321464C48FFF705FC01214220FFF729
:10143000DFF901214420FFF7DBF901214120FFF70B
:10144000D7F901214620FFF7D3F901214820FFF702
:10145000CFF901214720FFF7CBF90020FFF760FF0C
:101460004FF47A7003F0C0F900214220FFF7C0F971
:1014700000214420FFF7BCF900214120FFF7B8F913
:1014800000214620FFF7B4F900214820FFF7B0F90A
:1014900000214720FFF7ACF9304C2068FFF740FFF0
:1014A0004FF47A7003F0A0F901214220FFF7A0F970
:1014B00001214420FFF79CF901214120FFF798F911
:1014C00001214620FFF794F901214820FFF790F908
:1014D00001214720FFF78CF90020FFF721FF4FF48F
:1014E0007A7003F081F900214220FFF781F9002191
:1014F0004420FFF77DF900214120FFF779F9002111
:101500004620FFF775F900214820FFF771F9002107
:101510004720FFF76DF92068FFF702FF2368022BD1
:1015200007D00E4B186801381860FFF7F9FE02B0BB
:1015300010BD0B4B6C4693E8030084E80300204683
:1015400004F09AFF0246042321460648FFF772FB87
:10155000E7E700BF50670008740A0020D0000020B1
:10156000586700082C0A0020F0B585B009E2744BDA
:1015700002AC93E8030084E80300204604F07CFFFB
:101580000246042321466F48FFF754FB74E06E4B7C
:1015900002AC93E8030084E80300204604F06CFFEB
:1015A0000246042321466748FFF744FB64E0674B8B
:1015B00002AC93E8030084E80300204604F05CFFDB
:1015C0000246042321465F48FFF734FB54E0604B9A
:1015D00002AC93E8030084E80300204604F04CFFCB
:1015E0000246042321465748FFF724FB44E0594BA9
:1015F00002AC93E8030084E80300204604F03CFFBB
:101600000246042321464F48FFF714FB34E0524BB7
:1016100002AC93E8030084E80300204604F02CFFAA
:101620000246042321464748FFF704FB24E04B4BC6
:1016300002AC93E8030084E80300204604F01CFF9A
:101640000246042321463F48FFF7F4FA14E0444BD6
:1016500002AC93E8030084E80300204604F00CFF8A
:101660000246042321463748FFF7E4FA04E0FFF777
:10167000CBFE3C4B01229A550136432E00F380806D
:10168000394FB95D394CA4FB01321309184603EBFD
:101690004303A1EBC301C9B20125002300932B46EC
:1016A0002A4605FA01F1DFF8C8C05CF8200003F013
:1016B000BEF8BB5DA4FB0324240904EB4404A3EBA4
:1016C000C404E4B2A54035EA0003D5D1294C012178
:1016D000A05DFFF78DF84FF4FA7003F085F8002154
:1016E000A05DFFF785F80A2E3FF441AF0C2E3FF4C2
:1016F0004EAF0E2E3FF45BAF0F2E3FF468AF122EAD
:101700003FF475AF182E82D01A2E90D01C2E9ED08A
:10171000144B9B5D002BAFD1174B9B5D002BA6D0CC
:10172000164B02AC93E8030084E80300204604F063
:10173000A3FE0246042321460248FFF77BFA98E7FE
:1017400060670008740A0020686700087067000876
:1017500078670008806700088867000890670008BD
:1017600098670008CC0A002004000020ABAAAAAAAF
:1017700040050020480000208C000020A0670008E1
:101780000023009301231A464FF40061BE484068CD
:1017900003F04DF810F4006F40F0F5800023009343
:1017A00001231A464FF40071B748406803F03FF830
:1017B00010F4007F40F0F7800023009301231A46C5
:1017C0004FF48061B048406803F031F810F4806F46
:1017D00040F0F9800023009301231A464FF48071F2
:1017E000A948406803F023F810F4807F40F0FB80A4
:1017F0000023009301231A461946A348406803F0CA
:1018000016F810F0010F40F0FE8000230093012332
:101810001A4602219C48406803F009F810F0020FB4
:1018200040F001810023009301231A4604219648C9
:10183000406802F0FCFF10F0040F40F00481002328
:10184000009301231A4608218F48406802F0EFFFF9
:1018500010F0080F40F007810023009301231A467F
:101860004FF400118848806802F0E1FF10F4001F77
:1018700015D0864A136801331360052B00F02481CC
:10188000834B02AC93E8030084E80300204604F095
:10189000F3FD0246042321467E48FFF7CBF90023DF
:1018A000009301231A464FF480017748806802F0C4
:1018B000BEFF10F4800F40F00D81774B1B680A2BA0
:1018C00000F01C810023009301231A464FF4F0110D
:1018D0006D48C06802F0ABFF00F4F013B3F5F01FE1
:1018E00000F01F810023009301231A46042166485B
:1018F000006902F09CFF10F0040F07D0674B1B78C3
:1019000023B9674B18680F2840F31F810023009309
:1019100001231A4608215C48006902F088FF10F094
:10192000080F07D05F4B1B7823B95D4B18680F2851
:1019300040F322810023009301231A4604215248D8
:10194000006802F074FF10F0040F40F02C810023B7
:10195000009301231A4604214B48C06802F067FF38
:1019600010F0040F40F024810023009301231A4655
:1019700008214548C06802F05AFF10F0080F40F0F7
:101980002081002679E6484B02AC93E8030084E806
:101990000300204604F070FD0246042321463D4822
:1019A000FFF748F9FAE6414B02AC93E8030084E8FC
:1019B0000300204604F060FD02460423214635481A
:1019C000FFF738F9F8E63A4B02AC93E8030084E8F5
:1019D0000300204604F050FD0246042321462D4812
:1019E000FFF728F9F6E6334B02AC93E8030084E8EE
:1019F0000300204604F040FD02460423214625480A
:101A0000FFF718F9F4E62C4B02AC93E8030084E8E6
:101A10000300204604F030FD0246042321461D4801
:101A2000FFF708F9F1E6254B02AC93E8030084E8E0
:101A30000300204604F020FD0246042321461548F9
:101A4000FFF7F8F8EEE61E4B02AC93E8030084E8DB
:101A50000300204604F010FD0246042321460D48F1
:101A6000FFF7E8F8EBE6174B02AC93E8030084E8D5
:101A70000300204604F000FD0246042321460548E9
:101A8000FFF7D8F8E8E600BF40050020C80A0020AC
:101A9000A8670008740A0020C40A0020C00A0020B9
:101AA000D0000020C10A0020B0670008B867000815
:101AB000C0670008C8670008D0670008D86700083A
:101AC000E0670008E8670008FFF79EFC414B002232
:101AD0001A60E4E6404B02AC93E8030084E803009C
:101AE000204604F0C9FC0246042321463B48FFF788
:101AF000A1F83B4A136801331360DEE6394B02ACB0
:101B000093E8030084E80300204604F0B5FC024695
:101B1000042321463148FFF78DF8314B0B221A6020
:101B2000D0E600210A20FEF763FE2F4B02AC93E8BB
:101B3000030084E80300204604F09EFC02460423D0
:101B400021462648FFF776F8CCE6284A0121117095
:101B500008441860FFF7E4FB254B02AC93E8030050
:101B600084E80300204604F087FC02460423214653
:101B70001A48FFF75FF8C9E61E4A012111700844B0
:101B80001860FFF7CDFB1A4B02AC93E8030084E822
:101B90000300204604F070FC0246042321460F484F
:101BA000FFF748F8C6E600210120FEF721FECEE649
:101BB00001214A20FEF71CFE00214920FEF718FEF5
:101BC000D2E601214920FEF713FE00214A20FEF74C
:101BD0000FFED6E6C80A0020F0670008740A00204D
:101BE000C40A0020F867000800680008C00A002046
:101BF00008680008C10A002003688B4201DC00204D
:101C0000704701207047000000B583B04FF0FF32ED
:101C100001A90B4B186803F01FFC0128F6D1094CF1
:101C20004FF0FF31206803F0C6FC9DF80520064BFD
:101C30001A6000231A461946206803F0CCFAE5E73B
:101C4000380500201C0B0020100B002070B586B05A
:101C50000023059380E00023009301231A461946D0
:101C6000CA48006802F0E3FD10F0010F34D0C84B01
:101C700008221A60C74B02221A602DE0002300934D
:101C800001231A461946C148006802F0D0FD10F041
:101C9000010F21D0BE4B07221A60BE4A13680133E0
:101CA000136019E0BC4A0021D1540133432BF9DD04
:101CB000BA4B02AD93E8030085E80300284604F020
:101CC000DBFB024604232946B548FEF7B3FF002399
:101CD0000593B04B58221A60AE4B1B68033B1A2B7E
:101CE00040F2AB860023009301231A460221A74845
:101CF000006802F09CFD10F0020F02D0A54B2822D4
:101D00001A60059B01330593A24B1B68A54A126814
:101D1000934217D0CC228DF8082005228DF8092097
:101D200000218DF80A108DF80B30FF238DF80C3050
:101D30004FF0FF3302A99C4802F0BAFA954B1A689B
:101D4000984B1A6000231A4619469848006803F019
:101D500042FA012002F048FD4FF0FF31934B186822
:101D600003F029FC8B4B1D686B1E632BB4D801A2BA
:101D700052F823F07D1C0008051F0008BD1F000855
:101D8000EB20000803210008252100084721000856
:101D9000A1210008B9210008DB2100080122000868
:101DA000552200087B22000895220008ED22000839
:101DB000392300085D230008B1230008D723000859
:101DC0002B2400085124000863240008D91C0008B3
:101DD000D91C0008D91C0008D91C0008D91C00080F
:101DE000D91C0008D91C00088724000835250008E4
:101DF0004F250008732500088B250008D91C000812
:101E0000D91C0008D91C0008D91C0008D91C0008DE
:101E10001D260008CB260008E52600080927000833
:101E200021270008D91C0008D91C0008D91C00086B
:101E3000D91C0008D91C000883270008292800089D
:101E400043280008572800086F280008D91C0008FC
:101E5000D91C0008D91C0008D91C0008D91C00088E
:101E6000D1280008B5290008D91C0008D91C000891
:101E7000D91C0008D91C0008D91C0008D91C00086E
:101E8000D91C0008D91C0008D91C0008D91C00085E
:101E9000D91C0008D91C0008D91C0008D91C00084E
:101EA000D91C0008D91C0008D91C0008D91C00083E
:101EB000D91C0008D91C0008D91C0008D91C00082E
:101EC000D91C0008D91C0008D91C0008D91C00081E
:101ED000091F00081F1F0008631F00087B1F000860
:101EE000D91C0008D91C0008D91C0008D91C0008FE
:101EF000D91C0008D91C0008D91C0008D91C0008EE
:101F0000571C00080023D1E6294905A8FFF774FEF5
:101F100000283FF4E1AE01351E4B1D60DCE60121D7
:101F20000220FEF765FC002204A9224801F0E0FD32
:101F30009DF810209DF81130C3EB03139C004FF463
:101F4000616303FB02449DF812301C441A4B18686D
:101F5000FFF7E6F9002305930E4A13680133136077
:101F6000BAE64AF6C87105A8FFF746FE00283FF416
:101F7000B3AE0135074B1D60AEE600214B20FEF7E6
:101F800037FC044B03221A60A6E600BF4005002080
:101F9000180B0020100B0020CC0A0020106800084D
:101FA0002C0A0020140B0020E40900201C0B002048
:101FB0004019010088090020D00000200023009370
:101FC00001231A460221BC48006902F030FC10F0DF
:101FD000020F53D10023009301231A461946B64835
:101FE000006902F024FC10F0010F3FF475AE0121EE
:101FF0003E20FEF7FDFB4FF4FA7002F0F5FB0021E6
:102000003E20FEF7F5FB0121AC4B83F843104B203B
:10201000FEF7EEFBAA4B186801381860FFF780F94D
:10202000A84B02AD93E8030085E80300284604F0BE
:1020300023FA024604232946A348FEF7FBFD41F696
:10204000583002F0D1FB00214220FEF7D1FB0021E5
:102050004420FEF7CDFB00214620FEF7C9FB0021FE
:102060004820FEF7C5FB00214720FEF7C1FB0023F7
:102070000593964A1368013313602DE601213F2032
:10208000FEF7B6FB4FF4FA7002F0AEFB00213F20E2
:10209000FEF7AEFB8E4B02AD93E8030085E803002C
:1020A000284604F0E9F90246042329468648FEF74B
:1020B000C1FD01214B20FEF79BFB00214220FEF7D2
:1020C00097FB00214420FEF793FB00214620FEF7FA
:1020D0008FFB00214820FEF78BFB00214720FEF7F5
:1020E00087FB7A4B06221A6074E747F2305105A845
:1020F000FFF782FD00283FF4EFAD0135734B1D6003
:10210000EAE501213F20FEF773FB4FF4FA7002F07D
:102110006BFB00213F20FEF76BFB6C4A1368013319
:102120001360D9E50022009201230821624800686B
:1021300002F07DFB10F0080F7FF4CEAD634A136808
:1021400001331360C8E5634B1B68072B15DC624B3A
:1021500002AD93E8030085E80300284604F08CF9FB
:102160000246042329465848FEF764FD00230593E0
:10217000564A136801331360AEE5584B02AD93E83D
:10218000030085E80300284604F076F9024604239C
:1021900029464D48FEF74EFD4C4B0A221A609BE53E
:1021A0004AF2280105A8FFF727FD00283FF494AD67
:1021B0000135464B1D608FE501210320FEF718FB1A
:1021C0004FF4FA7002F010FB00210320FEF710FB21
:1021D0003E4A1368013313607EE500230093012318
:1021E0001A464FF480513448006802F020FB10F486
:1021F000805F3FF471AD354A1368013313606BE5BE
:10220000374B02AD93E8030085E80300284604F04D
:1022100033F90246042329462B48FEF70BFD002123
:102220000E20FEF7E5FA00214820FEF7E1FA2D4BDB
:1022300093E8030085E80300284604F01DF90246F0
:10224000012329462848FEF7F5FC204A136801338C
:10225000136041E50023009301231A464FF4000167
:102260001548806802F0E3FA10F4000F3FF434AD33
:10227000164A1368013313602EE500215B20FEF738
:10228000B7FA00214920FEF7B3FA104A1368013368
:10229000136021E50023009301231A46022106481A
:1022A000C06802F0C4FA10F0020F3FF415AD074AFF
:1022B0001368013313600FE540050020CC0A0020AD
:1022C000D000002018680008740A0020100B0020BD
:1022D00020680008180B00202868000830680008F3
:1022E00038680008406800082C0A0020BF4B02AD87
:1022F00093E8030085E80300284604F0BDF8024691
:1023000001232946BA48FEF795FC00215920FEF723
:102310006FFAB84B93E8030085E80300284604F001
:10232000ABF8024604232946B348FEF783FCB34AC0
:10233000136801331360CFE40023009301231A468E
:102340001946AF48C06802F072FA10F0010F3FF46E
:10235000C3ACAA4A136801331360BDE4A94B02ADB4
:1023600093E8030085E80300284604F085F8024658
:10237000012329469E48FEF75DFC00215A20FEF706
:1023800037FA00214720FEF733FA9F4B93E803000A
:1023900085E80300284604F06FF802460423294626
:1023A0009548FEF747FC954A13680133136093E4A0
:1023B0000023009301231A464FF4006190480068FF
:1023C00002F035FA10F4006F3FF486AC8B4A1368C4
:1023D0000133136080E48D4B02AD93E8030085E880
:1023E0000300284604F048F80246012329468048A5
:1023F000FEF720FC00210F20FEF7FAF9002146200D
:10240000FEF7F6F9824B93E8030085E803002846BF
:1024100004F032F80246042329467748FEF70AFC06
:10242000764A13680133136056E4002300930123B6
:102430001A464FF480417248006802F0F8F910F42F
:10244000804F3FF449AC6D4A13680133136043E495
:1024500000212B20FEF7CCF9684A13680133136082
:102460003AE40023009301231A464FF400416448E4
:10247000006802F0DCF910F4004F3FF42DAC5F4B24
:1024800032221A6028E45A4E3046FEF737FC01210A
:102490004B20FEF7ADF901214820FEF7A9F90121F3
:1024A0004920FEF7A5F901214A20FEF7A1F90121F3
:1024B0004720FEF79DF901214620FEF799F90121F9
:1024C0004B20FEF795F901214220FEF791F90121F9
:1024D0004420FEF78DF901214120FEF789F9002102
:1024E0000220FEF785F901214320FEF781F9012141
:1024F0004520FEF77DF901210C20FEF779F9042132
:102500003046FEF7DBFB434B02AD93E8030085E862
:102510000300284603F0B0FF024604232946304654
:10252000FEF788FB00230593344A136801331360D8
:10253000FFF7D2BB49F2704105A8FFF75DFB002809
:102540003FF4CAAB01352D4B1D60FFF7C5BB002121
:102550004320FEF74DF900214520FEF749F90021FF
:102560000C20FEF745F9254A136801331360FFF785
:10257000B3BB294905A8FFF73FFB00283FF4ACABEC
:1025800001351E4B1D60FFF7A7BB00214B20FEF756
:102590002FF900214820FEF72BF900214920FEF7F2
:1025A00027F900214A20FEF723F900214720FEF7F2
:1025B0001FF900214620FEF71BF900214B20FEF7F2
:1025C00017F900214220FEF713F900214420FEF7FD
:1025D0000FF900214120FEF70BF900210846FEF714
:1025E00007F9064B00221A60FFF776BB486800081F
:1025F0002C0A002050680008740A0020100B0020EC
:1026000040050020586800086068000868680008F5
:10261000706800087868000898340100DF4E304682
:10262000FEF76CFB01214B20FEF7E2F80121482068
:10263000FEF7DEF801214920FEF7DAF801214A20F1
:10264000FEF7D6F801214720FEF7D2F801214620F7
:10265000FEF7CEF801214B20FEF7CAF801214220F7
:10266000FEF7C6F801214420FEF7C2F801214120FF
:10267000FEF7BEF801214320FEF7BAF801214520FC
:10268000FEF7B6F801210C20FEF7B2F80021022077
:10269000FEF7AEF804213046FEF710FBC04B02AD4A
:1026A00093E8030085E80300284603F0E5FE0246B0
:1026B000042329463046FEF7BDFA00230593B94AA4
:1026C000136801331360FFF707BB48F2E80105A860
:1026D000FFF792FA00283FF4FFAA0135B14B1D60C5
:1026E000FFF7FABA00214320FEF782F800214520C7
:1026F000FEF77EF800210C20FEF77AF8A94A13684D
:1027000001331360FFF7E8BAA74905A8FFF774FA89
:1027100000283FF4E1AA0135A24B1D60FFF7DCBAA7
:1027200000214B20FEF764F800214820FEF760F8F6
:1027300000214920FEF75CF800214A20FEF758F8F6
:1027400000214720FEF754F800214620FEF750F8FC
:1027500000214B20FEF74CF800214220FEF748F8FC
:1027600000214420FEF744F800214120FEF740F804
:1027700000210846FEF73CF88A4B00221A60FFF75A
:10278000ABBA864E3046FEF7B9FA01214B20FEF770
:102790002FF801214820FEF72BF801214920FEF7F0
:1027A00027F801214A20FEF723F801214720FEF7F0
:1027B0001FF801214620FEF71BF801214B20FEF7F0
:1027C00017F801214220FEF713F801214420FEF7FB
:1027D0000FF801214120FEF70BF800214320FEF7FE
:1027E00007F800214520FEF703F800210220FDF73D
:1027F000FFFF04213046FEF761FA6C4B02AD93E80F
:10280000030085E80300284603F036FE0246042351
:1028100029463046FEF70EFA00230593614A1368F5
:1028200001331360FFF758BA4DF6C02105A8FFF732
:10283000E3F900283FF450AA01355A4B1D60FFF719
:102840004BBA01210C20FDF7D3FF564A1368013320
:102850001360FFF741BA544905A8FFF7CDF90028E6
:102860003FF43AAA01354F4B1D60FFF735BA0021FE
:102870004B20FDF7BDFF00214820FDF7B9FF0021E7
:102880004920FDF7B5FF00214A20FDF7B1FF0021E7
:102890004720FDF7ADFF00214620FDF7A9FF0021ED
:1028A0004B20FDF7A5FF00214220FDF7A1FF0021ED
:1028B0004420FDF79DFF00214120FDF799FF0021F5
:1028C0000846FDF795FF374B00221A60FFF704BA60
:1028D000324D2846FEF712FA354E3046FEF70EFA14
:1028E0002846FEF7CFF93046FEF7CCF904213046F2
:1028F000FEF7E4F901212846FEF7E0F90021462021
:10290000FDF776FF00214A20FDF772FF00214920E4
:10291000FDF76EFF00214820FDF76AFF00214B20E4
:10292000FDF766FF00214220FDF762FF00214420F1
:10293000FDF75EFF00214120FDF75AFF00214420F2
:10294000FDF756FF01210020FDF752FF01210F2066
:10295000FDF74EFF01215A20FDF74AFF01215920C2
:10296000FDF746FF01215B20FDF742FF01210E200C
:10297000FDF73EFF00210220FDF73AFF0121084646
:10298000FDF736FF01212B20FDF732FF054B00221A
:102990001A601020FEF7C4FCFFF79EB92C0A002035
:1029A00080680008100B0020983401008868000837
:1029B000740A002001214620FDF71AFF01214A2058
:1029C000FDF716FF01214920FDF712FF01214820E4
:1029D000FDF70EFF01214B20FDF70AFF01214220E8
:1029E000FDF706FF01214420FDF702FF01214720EA
:1029F000FDF7FEFE01214120FDF7FAFE01214420F2
:102A0000FDF7F6FE01210A20FDF7F2FE00210C2061
:102A1000FDF7EEFE00251B4B1D601B4B1D601B4B85
:102A20001D701B4B1D701B4B10221A602846FEF7B1
:102A300077FC194B1D60FFF74FB9002204A9174816
:102A400001F056F89DF810209DF81130C3EB0313E8
:102A50009B004FF4616101FB02339DF81220134487
:102A60001B1B41F2A172934202D90B4B1E221A602A
:102A7000084B1B68002B7FF435A9074B1E221A60F8
:102A8000FFF730B9C40A0020C80A0020C00A00209D
:102A9000C10A0020D0000020100B0020880900206F
:102AA000FEF7DEFA0B480C490C4A002302E0D4582A
:102AB000C4500433C4188C42F9D3094A094C00238A
:102AC00001E013600432A242FBD303F05FFCFEF787
:102AD0004BF87047000000200C050020D06800086B
:102AE0000C05002074380020FEE7000008B5074AF6
:102AF000136843F010031360032000F01BF80F204D
:102B0000FEF738FAFEF70CFA002008BD002002405C
:102B1000034A1168034B1B780B441360704700BFD6
:102B2000200B0020D4000020014B1868704700BF24
:102B3000200B0020074AD36823F4E0631B041B0C1E
:102B4000000200F4E060034343F0BF6343F400334A
:102B5000D360704700ED00E000B5194BDB68C3F3AC
:102B60000223C3F1070CBCF1040F28BF4FF0040C83
:102B700003F1040EBEF1060F18D9033B4FF0FF3EE0
:102B80000EFA0CFC21EA0C0199400EFA03F322EA3A
:102B90000303194300280BDB0901C9B200F16040AF
:102BA00000F5614080F800135DF804FB0023E5E7C1
:102BB00000F00F000901C9B2024B1954F4E700BF3D
:102BC00000ED00E014ED00E0002807DB00F01F023C
:102BD000400901239340024A42F82030704700BF69
:102BE00000E100E090F82130DBB2022B06D0042394
:102BF0008363002380F82030012070470268136847
:102C000023F00E0313600268136823F001031360BE
:102C1000036CC16B012202FA03F34B6080F82120A0
:102C2000002380F8203018467047000008B590F85F
:102C30002130DBB2022B03D004238363012008BDC3
:102C40000268136823F00E0313600268136823F010
:102C5000010313600368194A934214D0143293425B
:102C60001FD0143293421ED0143293421ED014321D
:102C700093421ED01432934202D04FF0807203E090
:102C80004FF4801200E001220D4B5A60012380F8BE
:102C90002130002380F82030436B6BB1984700202F
:102CA000CDE71022F0E74FF48072EDE74FF4805249
:102CB000EAE74FF48032E7E70020C0E7080002406F
:102CC0000000024070B582B00024A446A6E0804D0A
:102CD000AA4210D007D97F4DAA420CD005F5803505
:102CE000AA4208D013E0A5F58015AA4203D005F545
:102CF0007025AA4207D18A68002A58D0012A51D0EB
:102D00004361082403E0A5F58015AA42F3D0BEF183
:102D1000FF0F4ED80646BEF1FF0F4CD84FEA8C028B
:102D200033680F25954023EA050304FA02F21343A2
:102D300033604B6813F0805F6ED0674B9A6942F046
:102D400001029A619B6903F001030193019B4FEA21
:102D50009C02951C614B53F825600CF003039D0009
:102D60000F23AB4026EA03065D4B984229D003F5BA
:102D70008063984200F08E8003F58063984200F0F3
:102D80008B8003F58063984219D004231AE0CC6845
:102D9000BDE7CC680434BAE7CC680834B7E7CC6840
:102DA0000C34B4E703610824B1E70024AFE704243E
:102DB000ADE7061DAFE7ACF108029200B0E70323D0
:102DC00000E00023AB4033430232444D45F822304B
:102DD0004B6813F4801F61D0424A936843EA0E03A4
:102DE00093604B6813F4001F5ED03E4AD36843EAF9
:102DF0000E03D3604B6813F4003F5BD0394A53682D
:102E000043EA0E0353604B6813F4803F58D0354AB1
:102E1000136843EA0E0313600CF1010C0A6832FADE
:102E20000CF353D0012303FA0CF302EA030E33EA46
:102E30000202F1D14A68122A3FF649AF122A3FF640
:102E400066AF01A555F822F0F72C00088F2D000879
:102E5000992D0008AB2D00080F2D00080F2D00083C
:102E60000F2D00080F2D00080F2D00080F2D000852
:102E70000F2D00080F2D00080F2D00080F2D000842
:102E80000F2D00080F2D00080F2D0008932D0008AE
:102E90009F2D0008012395E7022393E7114A9368C9
:102EA00023EA0E0393609CE70E4AD36823EA0E03DD
:102EB000D3609FE70B4A536823EA0E035360A2E7EF
:102EC000084A136823EA0E031360A5E702B070BD39
:102ED00000002210000031100010024000000140EC
:102EE00000080140000401408368194201D001201C
:102EF0007047002070470AB1016170470904016101
:102F000070470000014B01221A62704700000E4218
:102F100082B0084B1B68084AA2FB03235B0A00FB34
:102F200003F3019300BF019B5A1E0192002BF9D1BC
:102F300002B0704700000020D34D6210002800F05E
:102F4000F18170B582B00446036813F0010F2CD0F4
:102F5000994B5B6803F00C03042B1DD0964B5B6808
:102F600003F00C03082B12D06368B3F5803F41D007
:102F7000002B55D103F1804303F504331A6822F482
:102F800080321A601A6822F480221A6037E08A4B75
:102F90005B6813F4803FE7D0874B1B6813F4003F56
:102FA00003D06368002B00F0BF81236813F0020F89
:102FB00075D0814B5B6813F00C0F5FD07E4B5B6864
:102FC00003F00C03082B54D02369002B00F08A80F7
:102FD0007A4B01221A60FFF7A7FD0546764B1B6866
:102FE00013F0020F75D1FFF79FFD401B0228F5D9A2
:102FF00003209EE1704A136843F4803313606368D2
:1030000043B3FFF791FD05466B4B1B6813F4003F7C
:10301000CBD1FFF789FD401B6428F5D9032088E157
:10302000B3F5A02F09D0644B1A6822F480321A60DD
:103030001A6822F480221A60E1E703F18043A3F5C5
:103040003C331A6842F480221A601A6842F48032D3
:103050001A60D4E7FFF768FD0546574B1B6813F469
:10306000003FA2D0FFF760FD401B6428F5D9032084
:103070005FE1514B5B6813F4803FA5D14E4B1B6859
:1030800013F0020F03D02369012B40F04F814A4A0D
:10309000136823F0F803616943EAC10313602368EE
:1030A00013F0080F33D0A369002B5CD0434B0122EF
:1030B000C3F88024FFF738FD05463F4B5B6A13F0E9
:1030C000020F21D1FFF730FD401B0228F5D9032064
:1030D0002FE1394A136823F0F803616943EAC10319
:1030E0001360DCE7354B00221A60FFF71DFD054633
:1030F000314B1B6813F0020FD1D0FFF715FD401BB9
:103100000228F5D9032014E10120FFF701FF23680D
:1031100013F0040F00F09680274BDB6913F0805FFB
:1031200034D1254BDA6942F08052DA61DB6903F071
:1031300080530193019B0125214B1B6813F4807F71
:1031400026D0E368012B3DD0002B53D103F18043FF
:1031500003F504331A6A22F001021A621A6A22F095
:1031600004021A6233E0154B0022C3F88024FFF7F3
:10317000DBFC0546104B5B6A13F0020FC7D0FFF76C
:10318000D3FC401B0228F5D90320D2E00025D3E769
:103190000B4A136843F480731360FFF7C5FC0646BF
:1031A000074B1B6813F4807FCBD1FFF7BDFC801B5E
:1031B0006428F5D90320BCE0001002400000424220
:1031C000007000405F4A136A43F001031362E36832
:1031D00033B3FFF7A9FC06465A4B1B6A13F0020FE4
:1031E0002FD1FFF7A1FC801B41F288339842F3D91D
:1031F00003209EE0052B09D0524B1A6A22F00102EF
:103200001A621A6A22F004021A62E0E74D4B1A6A47
:1032100042F004021A621A6A42F001021A62D6E708
:10322000FFF782FC0646474B1B6A13F0020F08D0DB
:10323000FFF77AFC801B41F288339842F3D90320D0
:1032400077E0E5B9E369002B72D03E4A526802F09C
:103250000C02082A56D0022B17D03B4B00221A66CC
:10326000FFF762FC0446374B1B6813F0007F47D022
:10327000FFF75AFC001B0228F5D9032059E0314A18
:10328000D36923F08053D361DCE72F4B00221A6609
:10329000FFF74AFC05462B4B1B6813F0007F06D056
:1032A000FFF742FC401B0228F5D9032041E0236AC6
:1032B000B3F5803F1AD023494B6823F47413226A74
:1032C000606A024313434B601F4B01221A66FFF7EB
:1032D0002BFC04461B4B1B6813F0007F0ED1FFF73D
:1032E00023FC001B0228F5D9032022E0154A53686D
:1032F00023F40033A1680B435360DCE7002018E09F
:10330000002016E0012B16D00E4B5B6803F48031D1
:10331000226A914211D103F47013626A93420ED172
:10332000002006E001207047012002E0012000E0BB
:10333000002002B070BD0120FBE70120F9E7012069
:10334000F7E700BF00100240000042420F4B5B68ED
:1033500003F00C02082A01D00D487047C3F38342E2
:103360000C49885C13F4803F0BD0084B5B68C3F3B7
:103370004043094AD35C064A02FB00F0B0FBF3F07D
:103380007047064B03FB00F0704700BF001002407F
:1033900000127A0090680008A068000800093D004B
:1033A000002800F0A08070B50D460446524B1B6803
:1033B00003F007038B420BD24F4A136823F0070335
:1033C0000B431360136803F007038B4240F08D80BA
:1033D000236813F0020F17D013F0040F04D0474AEC
:1033E000536843F4E0635360236813F0080F04D07C
:1033F000424A536843F460535360404A536823F091
:10340000F003A1680B435360236813F0010F31D020
:103410006368012B20D0022B25D0384A126812F0A5
:10342000020F64D035494A6822F0030213434B600F
:10343000FFF77AFB0646314B5B6803F00C036268CA
:10344000B3EB820F16D0FFF76FFB801B41F288337E
:103450009842F0D9032045E0284A126812F4003F50
:10346000E0D101203EE0254A126812F0007FD9D158
:10347000012037E0204B1B6803F00703AB420AD959
:103480001D4A136823F007032B431360136803F0EE
:103490000703AB422DD1236813F0040F06D0174A5F
:1034A000536823F4E063E1680B435360236813F02F
:1034B000080F07D0114A536823F46053216943EA87
:1034C000C1035360FFF742FF0C4B5B68C3F3031368
:1034D0000B4AD35CD8400B4B18600B4B1868FDF7B8
:1034E00049FD002070BD012070470120FAE701204E
:1034F000F8E70120F6E700BF00200240001002407C
:103500003867000800000020D8000020014B186830
:10351000704700BF0000002008B5FFF7F7FF044B1D
:103520005B68C3F30223034AD35CD84008BD00BFE5
:10353000001002404867000808B5FFF7E7FF044B9A
:103540005B68C3F3C223034AD35CD84008BD00BF05
:1035500000100240486700080F2303600B4B5A68B5
:1035600002F0030242605A6802F0F00282605A6878
:1035700002F4E062C2605B68DB0803F4E0630361AD
:10358000034B1B6803F007030B60704700100240F9
:103590000020024070B582B00446036813F0010FAA
:1035A00036D03F4BDB6913F0805F49D13C4BDA6981
:1035B00042F08052DA61DB6903F080530193019B92
:1035C0000125384B1B6813F4807F3BD0344B1B6ABA
:1035D00013F4407313D0626802F440729A420ED022
:1035E0002F4A136A23F440702F490126C1F8406422
:1035F0000026C1F84064106213F0010F36D1284A4A
:10360000136A23F4407361680B431362002D3ED1AB
:10361000236813F0020F06D0214A536823F4404375
:10362000A1680B435360236813F0100F34D01C4A79
:10363000536823F48003E1680B43536000202CE0BF
:103640000025BEE7174A136843F480731360FFF741
:103650006BFA0646134B1B6813F4807FB6D1FFF755
:1036600063FA801B6428F5D9032016E0FFF75CFAA3
:1036700006460B4B1B6A13F0020FC0D1FFF754FA3A
:10368000801B41F288339842F3D9032005E0D369C7
:1036900023F08053D361BBE7002002B070BD00BFB0
:1036A00000100240007000400000424208B50228AD
:1036B0004ED0102803D0012828D0002008BD2B4B65
:1036C0005A68186810F08070F8D0C2F38343284914
:1036D000C85C12F4803F15D0244B5B68C3F34043B1
:1036E000244AD25C244BB3FBF2F303FB00F01F4BE4
:1036F0005B6813F4800FE1D14000204BA3FB003046
:103700004008DBE71E4B03FB00F0F0E7174B1B6A9A
:1037100040F202321A40B2F5817F24D003F44073A4
:10372000B3F5007F04D0B3F5407F09D00020C5E792
:103730000E4A526A12F0020FF5D049F64040BDE73A
:103740000A4B186810F40030B8D04FF22440B5E7A7
:10375000FFF7F2FE054B5B68C3F3813301335B0077
:10376000B0FBF3F0AAE74FF40040A7E700100240D7
:10377000A4680008B468000800127A00ABAAAAAADC
:1037800000093D0010B4026894691FFA84FCD369F3
:10379000916988B2844505D0D06980B240EA014081
:1037A00010BC704798B240EA0440F9E70368186A11
:1037B0005B6A9BB243EA00407047002302E001339A
:1037C0000A38C0B20928FAD81B01DBB21843704787
:1037D000030903EB830300F00F0000EB4300C0B2CA
:1037E0007047000010F0030F14D10D4BA3FB002312
:1037F0005B09642202FB13039BB26BB9084BA3FB6A
:103800000023DB094FF4C87202FB130080B228B911
:10381000012070470020704701207047002070474A
:103820001F85EB5100F5FA6C022921D801EB410309
:10383000C1EBC3011E4BA3FB011302EB5303634413
:1038400000F2CF7003EB90031A4AA2FB0020A3EB17
:10385000501303EBD01304331748A0FB03201A1AAC
:1038600000EB52008008C0EBC000181AC0B27047CD
:1038700001EB4103C1EBC3010D4BA3FB011302EBB1
:103880005303634403EB9C030A4AA2FB0C2CA3EBF7
:103890005C1303EBDC1302330748A0FB03201A1A66
:1038A00000EB52008008C0EBC000181ADEE700BF32
:1038B000398EE3381F85EB51254992242DE9F843D1
:1038C00080460F4690F80F90447B857B002603E0EE
:1038D0001E2D1FD801350136BE423DD2012CF7D036
:1038E000032CF5D0052CF3D0072CF1D0082CEFD009
:1038F0000A2CEDD00C2CEBD0042C15D0062C13D0B8
:10390000092C11D00B2C0FD0022CE4D11B2D12D876
:103910000135E0E70C2C02D001340125DBE709F189
:10392000010901252C46D6E71D2D01D80135D2E726
:1039300001340125CFE71C2D04D01D2DCBD101343E
:103940000125C8E71FFA89F0FFF74CFF08B10135E0
:10395000C1E701340125BEE788F80F90E1B288F88D
:103960000D10EAB288F80E204846FFF75BFF88F892
:103970000C00BDE8F88338B50446FFF7D5F80546D6
:1039800023685A6812F0200F07D1FFF7CDF8401BCB
:10399000B0F57A7FF4D9032004E05A6842F01002AF
:1039A0005A60002038BD38B504460268536823F0D9
:1039B00010035360FFF7B8F8054623685B6813F0FF
:1039C000200F07D1FFF7B0F8401BB0F57A7FF4D98C
:1039D000032000E0002038BD38B505460C46FFF74F
:1039E000CAFF08B1012038BD2B68220C9A612B68F0
:1039F000A4B2DC612846FFF7D6FF0028F3D00120EF
:103A0000F1E738B505460C46FFF7B5FF08B10120D0
:103A100038BD2B68220C1A622B68A4B25C6228465F
:103A2000FFF7C1FF0028F3D00120F1E770B50028AF
:103A300057D00D460646002955D0037C012B54D0A3
:103A40000123037402234374BAB908784B78C3EB9B
:103A500003139C004FF4616303FB00448878044423
:103A600021463046FFF7B8FF0546C8B104237374FA
:103A7000002333740125284670BD0878FFF7A8FE9F
:103A80004FF4616400FB04F46878FFF7A1FEC0EB1B
:103A9000001004EB8004A878FFF79AFE0444DFE7E7
:103AA0003268536823F0050353603046FFF77EFE0B
:103AB000B0F1FF3F01D0844204D801237374002386
:103AC0003374D8E700F5A83101F5C0713046FFF72F
:103AD00098FF0028F1D00423737400233374012568
:103AE000C9E70125C7E70125C5E70225C3E70000AF
:103AF00000286FD02DE9F8430C46154607460029EB
:103B00006AD003685B6813F0040F02D00120BDE89F
:103B1000F883FFF737FE0646334BA3FB0023DB0A8F
:103B20004FF4616202FB13023049A1FB0201480914
:103B3000C1F347116170C0EB0010A2EB8002A270CC
:103B40002B4A964210D82370002D4BD02078FFF7D7
:103B500034FE20706078FFF730FE6070A078FFF7C9
:103B60002CFEA0700020D2E7224AA2FB03284FEAD5
:103B7000181808EB4802A3EBC20323703846FFF77E
:103B800015FE8146B0F1FF3F06D0864202D2A0EB7F
:103B9000060901E04FF0FF39174800FB186631466F
:103BA0003846FFF719FFC8B9B9F1FF3F0AD009EB52
:103BB00006013846FFF725FF90B941463846FFF722
:103BC0007DFEC1E749463846FFF71BFF0028F4D0C9
:103BD00001209CE701207047012098E7012096E72B
:103BE000012094E7002092E7C5B3A29189888888D4
:103BF0007F510100ABAAAAAA8051010000285AD027
:103C000038B50D460446002957D0037C012B56D009
:103C10000123037402234374BAB9CB78C3734B787E
:103C200043738B788373A27B617BE07BFFF7FAFDA4
:103C3000207328702046FFF7A5FD224B984211D82B
:103C4000012363740020207438BDC878FFF7C0FDDD
:103C5000E0736878FFF7BCFD6073A878FFF7B8FDE4
:103C6000A073E0E7184DA5FB00352D0C174B03FBA7
:103C7000150529462046FFF7AFFE28B104236374DB
:103C8000002323740120DFE72046FFF78FFDB0F10A
:103C9000FF3FD5D08542D3D900F5A83101F5C071D9
:103CA0002046FFF7AEFE0028CAD004236374002329
:103CB00023740120C8E7012070470120C4E70220D7
:103CC000C2E700BF8F5F010007452EC2805101008F
:103CD000C0B138B505460268536823F00803536045
:103CE000FEF722FF04462B685B6813F0080F07D12C
:103CF000FEF71AFF001BB0F57A7FF4D9032000E02D
:103D0000002038BD01207047002850D010B504466F
:103D1000437C4BB1022363742046FFF7D9FF38B1CF
:103D200004236374012010BD0374FDF7D9F8F1E793
:103D30002046FFF720FE28BB2268536823F00703C4
:103D40005360A36823B11B4A136B23F00103136371
:103D5000184AD36A23F46073A1680B43D362636883
:103D6000B3F1FF3F12D02268C3F303419160226890
:103D70009BB2D3602046FFF716FE88B1042363741C
:103D80000120D0E7042363740120CCE70120FFF772
:103D90008DFC08B1431EE6E7042363740120C2E7EB
:103DA0000023E37301236373A3736374BBE70120F0
:103DB000704700BF006C00407047000090F83D3035
:103DC000DBB2012B27D1022380F83D300268D36893
:103DD00043F00103D3600368114A934210D0B3F15A
:103DE000804F0DD0A2F59432934209D002F5806243
:103DF000934205D01A6842F001021A600020704711
:103E00009A6802F00702062A07D01A6842F00102F7
:103E10001A6000207047012070470020704700BFE3
:103E2000002C0140704770477047704710B504463A
:103E300003681A6912F0020F11D0DA6812F0020F4B
:103E40000DD06FF002021A610123037703689B69AA
:103E500013F0030F70D0FFF7E6FF002323772368EA
:103E60001A6912F0040F12D0DA6812F0040F0ED0A3
:103E70006FF004021A610223237723689B6913F40D
:103E8000407F5FD02046FFF7CEFF002323772368D3
:103E90001A6912F0080F12D0DA6812F0080F0ED06B
:103EA0006FF008021A61042323772368DB6913F09B
:103EB000030F4ED02046FFF7B6FF00232377236879
:103EC0001A6912F0100F12D0DA6812F0100F0ED02B
:103ED0006FF010021A61082323772368DB6913F45B
:103EE000407F3DD02046FFF79EFF002323772368C5
:103EF0001A6912F0010F03D0DA6812F0010F36D1FF
:103F000023681A6912F0800F03D0DA6812F0800F6C
:103F100034D123681A6912F0400F03D0DA6812F026
:103F2000400F32D123681A6912F0200F03D0DA68EB
:103F300012F0200F30D110BDFFF774FF2046FFF7BD
:103F400073FF8AE72046FFF76DFF2046FFF76CFFFF
:103F50009BE72046FFF766FF2046FFF765FFACE7CB
:103F60002046FFF75FFF2046FFF75EFFBDE76FF0DB
:103F700001021A612046FCF7A7FDC1E76FF080023D
:103F80001A61204600F077F8C3E76FF040021A612B
:103F90002046FFF74AFFC5E76FF020021A6120466E
:103FA00000F068F8C7E7000003681B4A90420AD097
:103FB000B0F1804F07D0A2F59432904203D002F5C1
:103FC0008062904203D123F070034A681343124A7F
:103FD00090420AD0B0F1804F07D0A2F594329042BF
:103FE00003D002F58062904203D123F44073CA6883
:103FF000134323F080034A69134303608B68C36251
:104000000B688362044B984202D0012343617047DE
:104010000B690363F9E700BF002C014040B310B502
:10402000044690F83D30F3B1022384F83D30214638
:1040300051F8040BFFF7B8FF012384F8463084F8E9
:104040003E3084F83F3084F8403084F8413084F8C2
:10405000423084F8433084F8443084F8453084F8A2
:104060003D30002010BD80F83C30FFF7A5FEDBE7B7
:104070000120704770477047026802F10C0353E853
:10408000003F23F490730C3242E800310029F3D151
:10409000026802F1140353E8003F23F001031432D5
:1040A00042E800310029F3D1036B012B05D0202316
:1040B00080F84230002303637047026802F10C036A
:1040C00053E8003F23F010030C3242E8003100298E
:1040D000F3D1ECE790F84130DBB2212B01D0022084
:1040E00070478368B3F5805F17D0036A5A1C026279
:1040F0001A7803685A60C38C9BB2013B9BB2C3849D
:104100004BB90268D36823F08003D3600268D36898
:1041100043F04003D360002070470369002BE4D1D3
:10412000036A1B880268C3F308035360036A0233FF
:104130000362E0E710B504460268136923F44053B4
:10414000C1680B43136183680269134342691A43D0
:104150000168CB6823F4B05323F00C031343CB6006
:104160000268536923F4407381690B435361026809
:10417000134B9A4220D0FFF7CFF9024602EB82029E
:1041800002EB820263689B00B2FBF3F20D48A0FBD6
:1041900002314909642303FB11231B013233A0FBC5
:1041A00003235B0903F0F00202EB011203F00F039B
:1041B000216813448B6010BDFFF7BEF90246DDE7AE
:1041C000003801401F85EB512DE9F84305460F46A5
:1041D00016469946DDF820802C68246837EA0403E7
:1041E0000CBF4FF0010C4FF0000CB4452DD1B8F1CD
:1041F000FF3FF1D0B8F1000F05D0FEF795FCA0EB22
:1042000009004045E8D92A6802F10C0353E8003F51
:1042100023F4D0730C3242E800310029F3D12A682C
:1042200002F1140353E8003F23F00103143242E883
:1042300000310029F3D1202385F8413085F8423040
:10424000002385F84030032000E00020BDE8F8831B
:1042500060B310B5044690F8413013B3242384F8BA
:1042600041302268D36823F40053D3602046FFF71F
:1042700061FF2268136923F4904313612268536934
:1042800023F02A0353612268D36843F40053D360B8
:1042900000206064202384F8413084F84230606359
:1042A00010BD80F84030FCF72BFFD7E701207047A6
:1042B0002DE9F04182B01E4690F84130DBB2202B50
:1042C0004BD104460D46904600294AD00AB9012038
:1042D00044E000234364212380F84130FEF724FCAE
:1042E0000746A4F82480A4F82680A368B3F5805F6D
:1042F00002D04FF000080FE02369FBB14FF0000837
:104300000AE038F8023B2268C3F308035360E28CEA
:1043100092B2013A92B2E284E38C9BB28BB10096E6
:104320003B46002280212046FFF74EFFD8B9002DE2
:10433000E7D015F8012B23685A60E8E7A846002566
:10434000EAE700963B46002240212046FFF73CFF6B
:1043500058B9202384F8413000E0022002B0BDE8C3
:10436000F0810120FAE70320F8E70320F6E7704721
:1043700008B50168CA6822F04002CA60202280F8AD
:104380004120FFF7F4FF002008BD704708B5406AE0
:104390000023C385C384FFF7F8FF08BD704790F87A
:1043A0004230DBB2222B69D18368B3F5805F4FD0F6
:1043B000826AB3F5805F04D0002B56D10369002BCD
:1043C00053D103685B681370836A01338362C38DC2
:1043D0009BB2013B9BB2C385002B51D100B583B08A
:1043E0000268D36823F02003D3600268D36823F403
:1043F0008073D3600268536923F001035361202363
:1044000080F8423000234363036B012B33D1002338
:104410000363026802F10C0353E8003F23F010032A
:104420000C3242E800310029F3D103681A6812F017
:10443000100F06D0002201921A6801925B68019366
:10444000019B818DFFF7AAFF002003B05DF804FBFC
:104450000269002AACD1826A03685B68C3F308036F
:104460001380836A02338362B1E703685B6803F0F9
:104470007F031370A8E7FCF7F7FEE5E7022070471B
:104480000020704730B583B0044602681368D068D6
:10449000516913F00F0505D113F0200F02D010F071
:1044A000200F19D12DB111F0010119D110F4907F15
:1044B00016D1216B01297DD013F0800F03D010F0AD
:1044C000800F40F0188113F0400F03D010F0400F20
:1044D00040F0158103B030BD2046FFF760FFF9E7DB
:1044E00013F0010F06D010F4807F03D0626C42F00D
:1044F0000102626413F0040F04D019B1626C42F03F
:104500000202626413F0020F04D019B1626C42F02F
:104510000402626413F0080F07D010F0200F00D1DE
:1045200019B1626C42F008026264626C002AD1D058
:1045300013F0200F02D010F0200F29D123685B69FF
:1045400003F04003626C12F0080F00D163B3204601
:10455000FFF792FD23685B6913F0400F20D02268BB
:1045600002F1140353E8003F23F04003143242E801
:1045700000310029F3D1E36B73B1634A5A63E06BF6
:10458000FEF754FB0028A5D0E06B436B9847A1E7EA
:104590002046FFF704FFD1E72046FFF7F6FE99E734
:1045A0002046FFF7F2FE95E72046FFF7EEFE0023D8
:1045B00063648FE713F0100F3FF47EAF10F0100F1D
:1045C0003FF47AAF0023019313680193536801937A
:1045D000019B536913F0400F51D0E26B13685B6885
:1045E0009BB2002B3FF476AFA18D99427FF672AF5C
:1045F000E3859369202B37D0226802F10C0353E83E
:10460000003F23F480730C3242E800310029F3D1DB
:10461000226802F1140353E8003F23F0010314322F
:1046200042E800310029F3D1226802F1140353E873
:10463000003F23F04003143242E800310029F3D157
:10464000202384F8423000232363226802F10C0304
:1046500053E8003F23F010030C3242E800310029F8
:10466000F3D1E06BFEF7BEFA02236363A18DE38D05
:104670009BB2C91A89B22046FFF790FE2AE7A18DA6
:10468000E38D9BB2C91A89B2E38D9BB2002B3FF434
:1046900021AF00293FF41EAF226802F10C0353E85A
:1046A000003F23F490730C3242E800300028F3D12D
:1046B000226802F1140353E8003F23F0010314328F
:1046C00042E800300028F3D1202384F84230002350
:1046D0002363226802F10C0353E8003F23F0100328
:1046E0000C3242E800300028F3D1022363632046F5
:1046F000FFF754FEEEE62046FFF7ECFCEAE6204624
:10470000FFF736FEE6E600BF8D4300088162828532
:10471000C28500234364222380F84230036923B119
:104720000268D36843F48073D3600268536943F02E
:10473000010353610268D36843F02003D360002073
:10474000704708B590F84230DBB2202B08D149B150
:104750000AB9012008BD00230363FFF7D7FFF9E77B
:104760000220F7E70120F5E7842801D003307047E5
:104770000020704708B501F0E9F9002008BD2DE9D7
:10478000F04387B004460F464569BDB18669AEB1B6
:10479000D0F80480D0F80090B0F90800FFF7E4FFEB
:1047A0000296019500903B4622694946404601F039
:1047B0005FF90590059807B0BDE8F0836568266845
:1047C000D4F81080B4F90800FFF7CEFF05AB0193D1
:1047D00000903B461FFA88F23146284601F082F9E4
:1047E0000128E7D00020E6E708B500B9012001F074
:1047F000F7FA002008BD1AB9084206D110467047E2
:1048000031EA000303D000207047012070470120E7
:10481000704738B51C2000F00FFB044628B1002576
:1048200040F8045B00F0F0F82576204638BD2DE90D
:10483000F84378B10C4616461D46074611F07F48EE
:1048400011D04FF0500383F31188BFF36F8FBFF384
:104850004F8FFEE74FF0500383F31188BFF36F8F44
:10486000BFF34F8FFEE741B94FF0500383F3118838
:10487000BFF36F8FBFF34F8FFEE701F045FC50B9D8
:10488000089B43B14FF0500383F31188BFF36F8F40
:10489000BFF34F8FFEE701F093F9D7F800902A4657
:1048A00021464846FFF7A7FFF0B116B129EA0403F5
:1048B0003B6001F019FAB8F1000F12D048B94FF07F
:1048C000E0234FF08052C3F8042DBFF34F8FBFF3A6
:1048D0006F8F01F041FD814610F0007F1AD029F062
:1048E0007F494846BDE8F883089B83B166B94146D5
:1048F0000DB141F08061089A2143381D01F0FAFAA8
:10490000C146DDF82080D4E74FF08071F0E7DDF894
:104910002080CEE700F016F9D7F800902A4621460D
:104920004846FFF768FF18B116B129EA04043C6055
:1049300000F02AF9D3E770B170B50C46054611F0C6
:104940007F4F11D04FF0500383F31188BFF36F8F67
:10495000BFF34F8FFEE74FF0500383F31188BFF38F
:104960006F8FBFF34F8FFEE700F0ECF82E6826EA5A
:1049700004042C6000F008F9304670BDF8B568B149
:104980000D46044611F07F4711D04FF0500383F3DA
:104990001188BFF36F8FBFF34F8FFEE74FF05003C7
:1049A00083F31188BFF36F8FBFF34F8FFEE700F1E2
:1049B0000C0601F005F9206923682B4323600AE007
:1049C000216832EA010105D111E0216841F000714E
:1049D00001F002FB2846B0420ED04568036823F080
:1049E0007F4213F0806FEBD121681142F2D013F0B7
:1049F000807FEAD01743E8E7236823EA07032360B0
:104A000001F072F92068F8BD00F1080343604FF02F
:104A1000FF328260C360036100230360704700239C
:104A20000361704743684B609A688A60516099607F
:104A30000861036801330360704730B40D68B5F155
:104A4000FF3F11D000F108031C465B681A68AA42B8
:104A5000FAD963684B6099608C6061600861036893
:104A60000133036030BC70470469F2E703694168B1
:104A700082688A60416851605A68824206D000228A
:104A800002611A68013A1A601868704782685A60B1
:104A9000F5E7000082B0002301930D4B1B68B3F1D2
:104AA000FF3F08D04FF0500383F31188BFF36F8F9F
:104AB000BFF34F8FFEE74FF0500383F31188BFF32E
:104AC0006F8FBFF34F8F019B002BFCD002B070475C
:104AD000DC00002006480068006880F3088862B6A1
:104AE00061B6BFF34F8FBFF36F8F00DF00BF0000D1
:104AF00008ED00E04FF0807340F8043C21F0010124
:104B000040F8081C034B40F80C3C40F8202C40387F
:104B1000704700BF954A0008000000000000000038
:104B2000074B19680868B0E8F00F80F30988BFF3F5
:104B30006F8F4FF0000080F311884EF00D0E70471C
:104B4000443700204FF0500383F31188BFF36F8F79
:104B5000BFF34F8F0B4A136801331360012B00D052
:104B600070474FF0E023D3F8043D13F0FF0FF7D068
:104B70004FF0500383F31188BFF36F8FBFF34F8F54
:104B8000FEE700BFDC000020094B1B6843B94FF073
:104B9000500383F31188BFF36F8FBFF34F8FFEE78E
:104BA000013B034A13600BB983F31188704700BFC0
:104BB000DC000020000000000000000000000000F9
:104BC000EFF30980BFF36F8F0D4B1A6820E9F00FE8
:104BD00010602DE908404FF0500080F3118801F07B
:104BE00025F94FF0000080F31188BDE808401968EE
:104BF0000868B0E8F00F80F30988BFF36F8F704743
:104C00004437002008B54FF0500383F31188BFF3F9
:104C10006F8FBFF34F8F00F0DBFF28B14FF0E02321
:104C20004FF08052C3F8042D002383F3118808BD90
:104C30004FF0E022002313619361054B1B68054987
:104C4000A1FB03139B09013B5361072313617047C9
:104C500000000020D34D621010B582B02A4B1A78A4
:104C6000D2B20192FF221A701B78DBB28DF80330AA
:104C70009DF8033003F05003244A1370244B07229D
:104C80001A6009E0224A1368013B13609DF8033063
:104C90005B00DBB28DF803309DF8033013F0800F1A
:104CA000F0D11B4B1B68032B08D04FF0500383F34C
:104CB0001188BFF36F8FBFF34F8FFEE71B02144ABB
:104CC000136003F4E0631360019BDBB20E4A1370C0
:104CD0004FF0E023D3F8202D42F47002C3F8202DCA
:104CE000D3F8202D42F07042C3F8202DFFF7A0FF2B
:104CF0000024084B1C60FFF7EDFE01F097F8FFF76A
:104D0000C9FE204602B010BD00E400E0240B0020E4
:104D1000280B0020DC000020EFF305830F2B0FD9B8
:104D2000114A9B5CDBB2114A12789A4208D94FF0C3
:104D3000500383F31188BFF36F8FBFF34F8FFEE7EC
:104D40004FF0E023D3F80C3D03F4E063084A126807
:104D5000934208D94FF0500383F31188BFF36F8F4C
:104D6000BFF34F8FFEE77047F0E300E0240B002015
:104D7000280B0020124A12F0070F1ED0D11D21F07F
:104D80000701C1F5305313440A460E480260002162
:104D900041601344083B23F007030B48036059604C
:104DA0001960991A51601360084B1960084B19601B
:104DB000084B4FF000421A6070474FF43053E4E75D
:104DC000300B00203C3700202C0B0020383700200F
:104DD0003437002030370020154B1A461B688342B9
:104DE000FBD3516802EB010C844509D0416800EB0C
:104DF000010C634509D00360904218D010607047E1
:104E00004068014451601046F0E710B4094C246832
:104E1000A3420AD05B681944416013681B680360B1
:104E2000904200D0106010BC70470460F8E77047F3
:104E30003C3700202C0B002070B5054600F0C0FE6A
:104E4000344B1B68A3B1344B1B681D424AD135B1AA
:104E5000083515F0070F02D025F007050835002D9D
:104E600042D02E4B1B68AB424DD32D4A146804E050
:104E7000FFF780FFE7E722461C466368AB4202D299
:104E80002368002BF7D1234B1B68A3423DD0166843
:104E900008362368136063685B1B102B10D96019F8
:104EA00010F0070F08D04FF0500383F31188BFF3C1
:104EB0006F8FBFF34F8FFEE743606560FFF78CFF96
:104EC000626816490B689B1A0B60164909688B4289
:104ED00001D214490B60104B1B681343636000231D
:104EE000236002E0002600E0002600F0FDFE16F040
:104EF000070F0CD04FF0500383F31188BFF36F8F6F
:104F0000BFF34F8FFEE70026EFE70026EDE73046C0
:104F100070BD00BF2C0B002030370020343700203C
:104F20003C3700203837002080B338B50446A0F164
:104F3000080550F8043C164A1268134208D14FF095
:104F4000500383F31188BFF36F8FBFF34F8FFEE7DA
:104F500050F8081C41B14FF0500383F31188BFF3A0
:104F60006F8FBFF34F8FFEE723EA020340F8043C44
:104F700000F026FE54F8041C064A13680B44136024
:104F80002846FFF729FF00F0AFFE38BD704700BF8D
:104F900030370020343700200346406A18B11B6BBD
:104FA0001868C0F10700704710B50446FFF7CAFD46
:104FB000A26BE36B9A4204D00024FFF7E5FD204684
:104FC00010BD0124F9E710B50446FFF7BBFDA36B44
:104FD00023B90124FFF7D8FD204610BD0024F9E7CE
:104FE00070B504461546866B026C5AB903681BB14E
:104FF00000200136A66370BD406801F0F3F800237D
:105000006360F6E76DB98068FBF7A2F8226CA368CD
:105010001344A3606268934219D32368A3602846AF
:10502000E7E7C068FBF794F8226C5142E3689B1AEB
:10503000E3602268934202D263680B44E360022D6E
:1050400001D00020D5E726B1013E0020D1E7284657
:10505000CFE70020CDE708B50346026C62B10846F1
:10506000D9681144D960D3F804C0614501D31968E7
:10507000D960D968FBF76CF808BD38B50546FFF76D
:1050800061FD95F8454064B201E0013C64B2002C3A
:105090000ADD6B6A43B105F1240000F057FF0028D8
:1050A000F3D001F02BF8F0E7FF2385F84530FFF748
:1050B0006BFDFFF747FD95F8444064B201E0013C09
:1050C00064B2002C0ADD2B6943B105F1100000F039
:1050D0003DFF0028F3D001F011F8F0E7FF2385F839
:1050E0004430FFF751FD38BD38B5E0B10D460446F8
:1050F000FFF728FD2368E26B216C01FB0230606042
:105100000020A063A360013A02FB0133E360FF23A8
:1051100084F8443084F84530FDB9236963B9FFF75A
:1051200033FD012038BD4FF0500383F31188BFF3E6
:105130006F8FBFF34F8FFEE704F1100000F006FF02
:105140000028ECD04FF0E0234FF08052C3F8042D3C
:10515000BFF34F8FBFF36F8FE1E704F11000FFF74C
:1051600053FC04F12400FFF74FFCD8E710B50346C9
:1051700002980C4631B90060C36304640121FFF753
:10518000B3FF10BD0260F7E740B94FF0500383F35F
:105190001188BFF36F8FBFF34F8FFEE7F0B583B079
:1051A0000C4615460746A1B101FB00F04830FFF759
:1051B00043FE064650B1002380F8463000902B464F
:1051C00000F1480221463846FFF7D0FF304603B0D1
:1051D000F0BD0846EAE7F0B585B0019288B10F4608
:1051E0001D460446B1B1022D20D1E36B012B1DD029
:1051F0004FF0500383F31188BFF36F8FBFF34F8FCE
:10520000FEE74FF0500383F31188BFF36F8FBFF3B6
:105210004F8FFEE7036C002BE5D04FF0500383F374
:105220001188BFF36F8FBFF34F8FFEE700F06CFF65
:10523000064658B9019B002B48D04FF0500383F32A
:105240001188BFF36F8FBFF34F8FFEE700263DE05D
:105250002A4639462046FFF7C3FE636A7BB948B148
:105260004FF0E0234FF08052C3F8042DBFF34F8F6F
:10527000BFF36F8FFFF788FC012005B0F0BD04F18C
:10528000240000F063FE0028F4D04FF0E0234FF03C
:105290008052C3F8042DBFF34F8FBFF36F8FE9E740
:1052A000FFF772FC0020E8E702A800F0D9FE012613
:1052B00019E0002384F8443021E0002384F84530CD
:1052C00023E02046FFF7D9FE00F00EFDFFF73AFC81
:1052D000A26BE36B9A42BBD3022DB9D0019B002B8A
:1052E000DED0002EE0D0FFF74FFC00F069FCFFF7A6
:1052F00029FC94F8442052B2B2F1FF3FD9D094F87F
:10530000452052B2B2F1FF3FD7D0FFF73DFC01A9D3
:1053100002A800F0B1FED8B92046FFF745FE0028EC
:10532000CFD0019904F1100000F0CCFD2046FFF72A
:10533000A4FE00F0D9FC0028C8D14FF0E0234FF0C4
:105340008052C3F8042DBFF34F8FBFF36F8FBDE7BB
:105350002046FFF792FE00F0C7FC00208DE748B121
:1053600008B5002141600160C1600B460A46FFF7A5
:1053700032FF08BD704710B5024600210120FFF73B
:1053800003FF0446FFF7EBFF204610BD2DE9F8436D
:1053900090B10F4616461C460546B1B1022C20D1ED
:1053A000EB6B012B1DD04FF0500383F31188BFF33B
:1053B0006F8FBFF34F8FFEE74FF0500383F31188D9
:1053C000BFF36F8FBFF34F8FFEE7036C002BE5D069
:1053D0004FF0500383F31188BFF36F8FBFF34F8FEC
:1053E000FEE7FFF799FCEFF311894FF0500383F3C9
:1053F0001188BFF36F8FBFF34F8FAA6BEB6B9A428D
:1054000006D3022C04D0002089F31188BDE8F8836C
:1054100095F845804FFA88F8224639462846FFF726
:10542000DFFDB8F1FF3F06D008F101035BB285F85C
:1054300045300120E8E76B6A0BB90120E4E705F18C
:10544000240000F083FD18B126B101203060DBE7B5
:105450000120D9E70120D7E7F0B585B0019290B1DE
:105460000F460446C1B100F04FFE064600BB019B4B
:10547000002B5ED04FF0500383F31188BFF36F8F82
:10548000BFF34F8FFEE74FF0500383F31188BFF354
:105490006F8FBFF34F8FFEE7036C002BE3D04FF00D
:1054A000500383F31188BFF36F8FBFF34F8FFEE775
:1054B00000263EE039462046FFF7CDFD013DA563BD
:1054C000236923B9FFF760FB012005B0F0BD04F1AB
:1054D000100000F03BFD0028F4D04FF0E0234FF027
:1054E0008052C3F8042DBFF34F8FBFF36F8FE9E7EE
:1054F000FFF74AFB0020E8E702A800F0B1FD012613
:1055000021E0002384F8443029E0002384F845306A
:105510002BE02046FFF7B1FD00F0E6FB09E0204656
:10552000FFF7ABFD00F0E0FB2046FFF74CFD002845
:105530003FD1FFF707FBA56B002DBBD1019B002BD3
:10554000D6D0002ED8D0FFF71FFB00F039FBFFF7B5
:10555000F9FA94F844305BB2B3F1FF3FD1D094F83C
:1055600045305BB2B3F1FF3FCFD0FFF70DFB01A990
:1055700002A800F081FD0028D1D12046FFF723FDCD
:105580000028C6D0019904F1240000F09BFC2046BD
:10559000FFF773FD00F0A8FB0028CAD14FF0E0230D
:1055A0004FF08052C3F8042DBFF34F8FBFF36F8FBE
:1055B000BFE7002089E770B584B0019158B1044677
:1055C000036C8BB14FF0500383F31188BFF36F8FDF
:1055D000BFF34F8FFEE74FF0500383F31188BFF303
:1055E0006F8FBFF34F8FFEE700F08EFD054650B979
:1055F000019B5BB14FF0500383F31188BFF36F8FB2
:10560000BFF34F8FFEE70026354655E0064653E0D0
:10561000013BA36323683BB123694BB9FFF7B4FA9D
:105620000126304604B070BD00F0A2FE6060F3E7D2
:1056300004F1100000F08AFC0028EFD04FF0E023C6
:105640004FF08052C3F8042DBFF34F8FBFF36F8F1D
:10565000E4E746B14FF0500383F31188BFF36F8F37
:10566000BFF34F8FFEE7FFF78FFADAE702A800F0EB
:10567000F7FC01252AE0002384F8443032E00023BF
:1056800084F8453034E0FFF75DFA606800F04CFDC7
:105690000646FFF779FA3BE02046FFF7EEFC00F004
:1056A00023FB09E02046FFF7E8FC00F01DFB204645
:1056B000FFF789FC002842D1FFF744FAA36B002BC7
:1056C000A6D1019B002BC4D0002DCFD0FFF75CFAF0
:1056D00000F076FAFFF736FA94F844305BB2B3F193
:1056E000FF3FC8D094F845305BB2B3F1FF3FC6D05E
:1056F000FFF74AFA01A902A800F0BEFC0028D1D1A8
:105700002046FFF760FC0028C6D02368002BBAD0E3
:10571000019904F1240000F0D5FB2046FFF7ADFC11
:1057200000F0E2FA0028C7D14FF0E0234FF080529A
:10573000C3F8042DBFF34F8FBFF36F8FBCE70EB9D3
:1057400000266EE7FFF7FEF92046FFF725FC01462D
:10575000606800F0A1FDFFF717FAF1E7084B1B683E
:105760001B6823B9074B4FF0FF321A607047044B98
:105770001B68DB68DB685A68024B1A60704700BF21
:1057800048370020203800202DE9F047074698468A
:10579000089DDDF824900A9C266B02F18042013AB4
:1057A00006EB820626F007064FF0000CBCF10F0F47
:1057B0000BD811F80C2004EB0C0383F8342011F8FB
:1057C0000C3013B10CF1010CF0E7002384F84330E6
:1057D000062D00D90625E56265644FF0000AC4F87D
:1057E00048A0201DFFF71BF904F11800FFF717F977
:1057F0002461C5F10705A5616462C4F84CA084F872
:1058000050A0424639463046FFF774F92060B9F19E
:10581000000F01D0C9F80040BDE8F08738B500247A
:1058200007E004EB840293000E481844FFF7ECF8FD
:105830000134062CF5D90C4D2846FFF7E5F80B4C42
:105840002046FFF7E1F80A48FFF7DEF80948FFF7BE
:10585000DBF80948FFF7D8F8084B1D60084B1C60BF
:1058600038BD00BF50370020F43700200838002032
:1058700028380020543800204038002048370020C5
:105880004C37002010B50446FFF75CF9214A136835
:1058900001331360204B1B685BB1204B1B686BB955
:1058A0001D4B1B68DA6AE36A9A4207D81A4B1C60E0
:1058B00004E0194B1C601368012B28D0184A1368A8
:1058C00001331360E06A01238340164A11680B43D9
:1058D000136000EB8000211D134B03EB8000FFF7EA
:1058E000A1F8FFF751F90D4B1B687BB10A4B1B6800
:1058F000DA6AE36A9A4209D24FF0E0234FF080520D
:10590000C3F8042DBFF34F8FBFF36F8F10BDFFF7A8
:1059100085FFD3E7DC370020443700203C380020E7
:10592000EC370020F03700205037002010B5044637
:1059300090F8513063B1012B11D0022B0ED04FF0F3
:10594000500383F31188BFF36F8FBFF34F8FFEE7D0
:10595000006BFFF7E9FA2046FFF7E6FA10BDFFF704
:10596000E3FAFBE70F4B1B68D3B110B5FFF7EAF87A
:105970000D4BDB68DC68201DFFF778F80B4A1368D5
:10598000013B1360074A1368013B1360FFF7FCF803
:105990002046FFF7CBFF034B1B68002BE6D110BD61
:1059A000704700BFE037002054380020DC3700206B
:1059B00008B5FFF7D7FF074B1B68012BF9D94FF04C
:1059C000E0234FF08052C3F8042DBFF34F8FBFF395
:1059D0006F8FEEE75037002070B504460D461D4B23
:1059E0001E681D4B18680430FFF740F850B91A4B79
:1059F0001B68DA6A012303FA02F218490B6823EAEA
:105A000002030B60B4F1FF3F0DD03444124B1B680E
:105A10005C60A64210D9124B18680F4B196804310C
:105A2000FFF70BF870BD002DEFD00B4B1968043158
:105A30000C48FEF7F7FFF5E70B4B1868064B1968A3
:105A40000431FEF7FAFF094B1B68A342EAD9074B62
:105A50001C60E7E76838002044370020F03700205A
:105A60004C370020403800204837002020380020E4
:105A700030B587B00B9C7CB10C9DB5B15425049515
:105A8000049D542D1AD04FF0500383F31188BFF3B7
:105A90006F8FBFF34F8FFEE74FF0500383F31188F2
:105AA000BFF36F8FBFF34F8FFEE74FF0500383F3C9
:105AB0001188BFF36F8FBFF34F8FFEE70C9D2C63F0
:105AC000022485F8514000240394029505AC01940A
:105AD0000A9C0094FFF758FE0C98FFF7D3FE059838
