:020000040800F2
:1000000000500020952700080D0F00080F0F000872
:10001000110F0008130F0008150F00080000000062
:10002000000000000000000000000000E13F0008A8
:10003000170F00080000000081400008C5400008BC
:10004000DD270008DD270008DD270008DD27000880
:10005000DD270008DD270008DD270008DD27000870
:10006000DD270008DD270008DD270008DD27000860
:10007000DD270008DD270008DD270008DD27000850
:10008000DD270008DD270008DD270008DD27000840
:10009000DD270008DD270008DD270008DD27000830
:1000A000DD270008DD270008DD270008DD27000820
:1000B000190F0008DD270008DD270008DD270008EC
:1000C000DD270008DD270008DD270008DD27000800
:1000D000DD270008290F0008390F0008490F000824
:1000E000DD270008DD270008DD27000800000000EC
:1000F0000000000000000000000000000000000000
:0C01000000000000000000005FF808F1A3
:1001100010B5054C237833B9044B13B10448AFF341
:1001200000800123237010BD140500200000000092
:10013000745A000808B5034B1BB103490348AFF3D9
:10014000008008BD0000000018050020745A000857
:10015000844641EA000313F0030349D1403A23D314
:100160000B6803604B6843608B688360CB68C36037
:100170000B6903614B6943618B698361CB69C3611F
:100180000B6A03624B6A43628B6A8362CB6AC36207
:100190000B6B03634B6B43638B6B8363CB6BC363EF
:1001A00040304031403ADBD230320BD30B68036031
:1001B0004B6843608B688360CB68C360103010313C
:1001C000103AF3D20C3205D351F8043B40F8043B0B
:1001D000043AF9D2043208D0D2071CBF11F8013B0F
:1001E00000F8013B01D30B8803806046704700BFD5
:1001F000082A13D38B07B1D010F00303AED0C3F19C
:100200000403D21ADB071CBF11F8013B00F8013BC5
:10021000A4D331F8023B20F8023B9FE7043AD9D33C
:10022000013A11F8013B00F8013BF9D20B78037059
:100230004B7843708B7883706046704708B5012017
:1002400003F034FDFBE708B5012003F02FFDFBE7C9
:1002500008B5012003F02AFDFBE7000000B5A7B0B8
:1002600098E09DF85430012B0FD0002B40F0928085
:100270009DF853305A0903F01F0301219940624B46
:1002800053F8220003F0B9FD84E09DF853305A0979
:1002900003F01F03012199405B4B53F8220003F048
:1002A000CFFD77E09DF85330ADF804309DF8543021
:1002B000003B18BF01238DF8063000231A4601A920
:1002C0005248006804F0E7F9012863D0EE238DF866
:1002D00051304FF0FF33BDF894200DF151014C48DF
:1002E00003F048FA56E04B4B01939DF853308DF8DC
:1002F0000830259A043A139215A90DF10900FFF769
:1003000027FF00231A4601A94348006804F0C3F9F7
:1003100001283FD0EE238DF851304FF0FF33BDF868
:1003200094200DF151013A4803F024FA32E03B4B9E
:1003300001939DF853308DF80830259A043A1392B2
:1003400015A90DF10900FFF703FF00231A4601A9C3
:100350003148006804F09FF901281BD0EE238DF886
:1003600051304FF0FF33BDF894200DF15101284872
:1003700003F000FA0EE09DF853308DF804309DF83C
:1003800054308DF8053000231A4601A9244800682E
:1003900004F081F94FF0FF3214A9224B186804F0E1
:1003A000BBFA0128F6D19DF85230013B0F2BF1D852
:1003B00001A252F823F000BF63020008A502000862
:1003C000E70200082F0300087703000895030008E0
:1003D000950300089503000895030008950300089D
:1003E000950300089503000895030008950300088D
:1003F00095030008F903000800231A4619460A4825
:10040000006804F048F9C5E74805002068050020A9
:10041000D8090020200A002060050020680A00207A
:10042000400500207005002080050020034B03607C
:10043000034B0B6080231360704700BF84070020CC
:100440008405002010B5C0B0002405E003F043FC93
:100450006B4B43F824000134042CF7DD03F03BFC24
:10046000684B186000F0CEFE03220021012004F04A
:10047000EBF8654B1860002248210F2004F0E4F8E7
:10048000624B1860002248210F2004F0DDF8604B19
:10049000186000220421802004F0D6F85D4B18601B
:1004A00000224C210F2004F0CFF85B4B1860002293
:1004B00002210F2004F0C8F8584B1860584C0DF179
:1004C000E40CA646BEE80F00ACE80F009EE807006B
:1004D0008CE80700002139A803F0B3FB514B1860EA
:1004E0000DF1C80C04F11C0EBEE80F00ACE80F00C3
:1004F0009EE807008CE80700002132A803F0A1FB6A
:10050000494B18600DF1AC0C04F1380EBEE80F0039
:10051000ACE80F009EE807008CE8070000212BA83C
:1005200003F08FFB414B18600DF1900C04F1540E59
:10053000BEE80F00ACE80F009EE807008CE807005B
:10054000002124A803F07DFB394B18600DF1740CD9
:1005500004F1700EBEE80F00ACE80F009EE8070043
:100560008CE8070000211DA803F06BFB314B1860DD
:100570000DF1580C04F18C0EBEE80F00ACE80F0032
:100580009EE807008CE80700002116A803F059FB3D
:10059000294B18600DF13C0C04F1A80EBEE80F00C9
:1005A000ACE80F009EE807008CE8070000210FA8C8
:1005B00003F047FB214B18600DF1200C04F1C40E31
:1005C000BEE80F00ACE80F009EE807008CE80700CB
:1005D000002108A803F035FB194B18600DF1040C3D
:1005E000E0340FCCACE80F0094E807008CE807007B
:1005F000002101A803F025FB124B186040B010BD8C
:10060000480500205C0500208005002070050020C2
:1006100064050020680500206005002040050020DA
:100620008C5A0008740500206C0500203805002055
:10063000780500207C0500203C05002044050020B2
:1006400030050020340500202DE9F04188B0002459
:100650000494059406940794294B9A6942F0200269
:100660009A619A6902F020020192019A9A6942F015
:1006700004029A619A6902F004020292029A9A694B
:1006800042F008029A619B6903F008030393039BFD
:10069000DFF87080224648F2B001404602F0A5FA29
:1006A000194E224643F2F831304602F09EFA0227F4
:1006B000049705940125069504A9404602F07CF9AB
:1006C00048F2B003049305950694079704A94046A1
:1006D00002F072F944F2040304930594069504A908
:1006E000304602F069F943F2F83304930595069415
:1006F000079704A9304602F05FF908B0BDE8F08121
:100700000010024000080140000C014038B50446CA
:1007100002784FF40041154802F067FA144D6278F0
:100720000821284602F061FAA2781021284602F03A
:100730005CFAE2782021284602F057FA227940211B
:10074000284602F052FA62798021284602F04DFADA
:10075000A2794FF48071284602F047FAE2794FF40B
:100760000071284602F041FA38BD00BF0008014080
:10077000000C014070B506464C1E13E0012280219A
:10078000154802F032FA144D00222021284602F0CA
:100790002CFA012003F08AFA01222021284602F0D7
:1007A00024FA013C072C08DD335D002BE6D1002242
:1007B0008021094802F019FAE5E7074C00221021D0
:1007C000204602F012FA012003F070FA01221021F3
:1007D000204602F00AFA70BD0008014010B5044638
:1007E000FFF794FF70212046FFF7C4FF10BD000003
:1007F00000B583B0ADF804008DF8061000231A464A
:1008000001A90348006803F046FF03B05DF804FB4C
:1008100068050020F8B504460D46294E00224FF425
:100820008051304602F0E1F9012003F03FFA012245
:100830004FF48051304602F0D8F9012003F036FA27
:100840004FF48041304602F0C9F9B0FA80F0400917
:100850002070012619E01A4F00224FF4005138464B
:1008600002F0C3F9012003F021FA01224FF40051F4
:10087000384602F0BAF94FF48041384602F0AEF93A
:10088000B0FA80F04009A0550136AE42E3DB4FF0EC
:10089000000C0FE00CEB030014F800E0C3F10702BA
:1008A0006244A15C215404F802E00133032BF1DD22
:1008B0000CF1080CAC4501DA0023F7E7F8BD00BFE6
:1008C000000C0140014B185C704700BFD8070020A6
:1008D000044B1A5C044B1B5C9A4201D00120704708
:1008E00000207047D8070020BC08002010B582B057
:1008F0007021FFF78FFF002418E02A4A82FB0432A0
:10090000E317C3EBA20303EB4302A4EBC2020121F2
:100910009140254A52F8230003F092FA234B1B68BA
:1009200013BB234B1A5D234B1A5501346F2C33DC58
:100930002046FFF7CDFF0028F7D02046FFF7C2FF83
:100940000128DAD0174A82FB0432E317C3EBA20373
:1009500003EB4302A4EBC20201219140124A52F878
:10096000230003F04AFAD9E7CC238DF800300123A5
:100970008DF801308DF802402046FFF7A3FF8DF877
:100980000300FF238DF804304FF0FF330522694642
:10099000094802F0EFFEC4E7044B01221A6002B0DE
:1009A00010BD00BFABAAAA2A4805002048080020B5
:1009B000D8070020BC080020D809002010B584B05A
:1009C00066E0BDF80C203B4B995C9DF80E309942D7
:1009D00066D038498B54CC218DF8041002218DF853
:1009E00005108DF80620012B14BF002301238DF87C
:1009F0000730FF238DF808304FF0FF33052201A99F
:100A00002D4802F0B7FE4BE001346F2C18DC2B4B65
:100A10001B5D012BF8D1CC238DF8043001238DF818
:100A200005308DF806408DF80730FF238DF808302B
:100A30004FF0FF33052201A91F4802F09BFEE3E7B8
:100A4000002400E001346F2C19DC1A4B1B5D012BD4
:100A5000F8D1CC238DF8043002238DF805308DF8C1
:100A6000064001238DF80730FF238DF808304FF042
:100A7000FF33052201A9104802F07CFEE2E70120C5
:100A800003F014F90B48FFF7A9FE0C48FFF72EFFFF
:100A9000002203A90A4B186803F03EFF012890D0FA
:100AA0000021084B186803F0E6FF0128E7D1002475
:100AB000ABE700BF4C080020D8090020D807002071
:100AC000680500208005002008B50368B3F1804F59
:100AD00000D008BD01F096FEFBE772B6FEE700B558
:100AE00091B02822002106A804F0D4FE002301932F
:100AF0000293039304930593012206924FF48033EB
:100B000007930A9202220D920E934FF4E0130F9373
:100B100006A802F087F880B90F2301930221029101
:100B2000002303934FF480620492059301A802F01E
:100B3000ABFA20B911B05DF804FBFFF7CEFFFFF769
:100B4000CCFF000008B501F04BFEFFF7C8FFFFF730
:100B50007BFD00F003FA00F01BFA00F033FA0122EB
:100B600009490A4803F04FF801220949094803F0EE
:100B70004AF801220849094803F045F8FFF762FCEA
:100B800003F05AF8FEE700BF2C090020D809002026
:100B900050090020200A002070090020680A002067
:100BA0002DE9F04100AF8046084611461E46DC1C88
:100BB0000B3323F00703ADEB030D6D468DF80000FA
:100BC000C0438DF801008DF8026032460DF103003C
:100BD000FFF7BEFA00210DF8041006E015F801C079
:100BE0002B5D9C4405F804C00131A142F6D3321DAF
:100BF0004FF0FF3392B22946404602F0BBFDC820B9
:100C000003F054F8BD46BDE8F0810000402A00D949
:100C100070472DE9F04F95B005460F4614461E4625
:100C20004C22002101A804F035FE01954FF00B0B7A
:100C30008DF808B04FF00209CDF84C904FF0040841
:100C40008DF808800A238DF809304FF0010ACDF89D
:100C50004CA0174D00231A460DEB0801286803F03D
:100C60001AFD8DF808B08DF809A08DF80A60CDF84E
:100C70004C9000231A460DEB0801286803F00BFD89
:100C80008DF8088007238DF80930224639460DF18A
:100C90000A00FFF75DFA5444139400231A460DEB43
:100CA0000801286803F0F7FC15B0BDE8F08F00BF1D
:100CB0006005002010B594B004464C22002101A824
:100CC00004F0E8FD019404238DF808300123139308
:100CD00003238DF8093000231A4601A90248006851
:100CE00003F0D9FC14B010BD6005002070B5B6B09B
:100CF0000221434801F072FF05460421414801F0FA
:100D00006DFF044657E0359B0DF191029DF8901060
:100D10002398FFF745FF56E0CC238DF800309DF86F
:100D200044308DF80130229E32460DF145010DF11F
:100D30000200FFF70DFA06F1DA036B44FF2203F815
:100D4000D82CF21C4FF0FF3392B269462E4802F0C5
:100D500011FD40E002212A4801F040FF00283CD16B
:100D600001212A4B186803F048F836E00221244894
:100D700001F034FF012832D10121244B186803F01F
:100D80005FF82CE004211F4801F028FF48BB4FF416
:100D900080711E4B186803F030F822E002211848D9
:100DA00001F01CFF05460421164801F017FF044618
:100DB000012002F07BFF002223A9154B186803F0E5
:100DC000ABFD01289FD0002211A9124B186803F037
:100DD000A3FD0128A0D0012DBCD0002DC6D0012C30
:100DE000D0D0002CDAD10421064801F0F7FE01280A
:100DF000D4D14FF48071054B186803F021F8CDE78A
:100E000000080140000C0140D80900205C050020CA
:100E1000600500206405002000B583B0114B9A697D
:100E200042F001029A619A6902F001020092009A6E
:100E3000DA6942F08052DA61DB6903F08053019392
:100E4000019B00220F216FF0010001F0FFFC064A18
:100E5000536823F0E06343F00073536003B05DF820
:100E600004FB00BF001002400000014030B589B013
:100E70000446224BDA6942F00102DA61DB6903F0D1
:100E800001030193019B02A903A802F0D9F9069B73
:100E9000D3B902F0B5F903461948A0FB03239B0C14
:100EA000013B18484FF08042026040F2E732C260D6
:100EB0004360002303618360836102F011FB0546F8
:100EC00030B1284609B030BD02F09AF94300E3E79B
:100ED0000C4802F0D5F905460028F2D11C2001F09B
:100EE000EDFC0F2C01D90125EBE7002221461C2047
:100EF00001F0ACFC044B1C60E3E700BF00100240B3
:100F000083DE1B4390090020DC000020FEE7FEE7A3
:100F1000FEE7FEE7FEE7704708B5024802F0E8F991
:100F200008BD00BF9009002008B5024802F00CFD82
:100F300008BD00BFD809002008B5024802F004FD32
:100F400008BD00BF200A002008B5024802F0FCFCE2
:100F500008BD00BF680A00207047000008B50A48B5
:100F60000A4B03604FF4E133436000238360C360A6
:100F700003610C2242618361C36102F0CBFB00B9C3
:100F800008BDFFF7AAFDFBE7D809002000380140A3
:100F900008B50A480A4B03604FF416534360002318
:100FA0008360C36003610C2242618361C36102F00C
:100FB000B1FB00B908BDFFF790FDFBE7200A002058
:100FC0000044004008B50A480A4B03604FF416532A
:100FD000436000238360C36003610C22426183612C
:100FE000C36102F097FB00B908BDFFF776FDFBE790
:100FF000680A00200048004030B58BB000230693FB
:1010000007930893099303684F4A934207D04F4AC6
:10101000934236D04E4A934263D00BB030BD4D4B15
:101020009A6942F480429A619A6902F4804200927D
:10103000009A9A6942F004029A619B6903F00403E2
:101040000193019B4FF4007306930223079303233C
:101050000993414D06A9284601F0AEFC4FF4806388
:10106000069300240794089406A9284601F0A4FCDE
:1010700022460521252001F0E9FB252001F01EFC78
:10108000CBE7344BDA6942F40032DA61DA6902F410
:1010900000320292029A9A6942F004029A619B69B4
:1010A00003F004030393039B042306930223079393
:1010B00003230993284D06A9284601F07DFC082347
:1010C000069300240794089406A9284601F074FCAE
:1010D00022460521262001F0B9FB262001F0EEFB77
:1010E0009BE71C4BDA6942F48022DA61DA6902F488
:1010F00080220492049A9A6942F008029A619B69DC
:1011000003F008030593059B4FF4806306930223C5
:10111000079303230993114D06A9284601F04CFCBF
:101120004FF40063069300240794089406A9284608
:1011300001F042FC22460521272001F087FB2720F1
:1011400001F0BCFB69E700BF0038014000440040EB
:10115000004800400010024000080140000C01401F
:101160000268224B9A4200D0704710B594B0204BD1
:101170001B78204AD35CCC2B19D01F4B1B6863B162
:10118000036858681A4B19784A1CD2B21A70194B66
:101190005854511E5B5CFF2B10D0154B1B7801225D
:1011A00014491944154802F02EFD14B010BD124B1D
:1011B00001221A600E4B00221A70DEE7002401940F
:1011C00002238DF8083013920A490DF10900FEF749
:1011D000BFFF234601AA02A90948006803F036FBB5
:1011E000054B1C60024B1C70D7E700BF0038014064
:1011F0004C0900202C090020B00A0020D80900204A
:101200007005002008B5012003F015FB014B1860A4
:1012100008BD00BF100B002010B504460028D4BF45
:10122000002101212C20FFF7E3FA012CD4BF00217B
:1012300001212D20FFF7DCFA022CD4BF002101216F
:101240003020FFF7D5FA032CD4BF00210121312033
:10125000FFF7CEFA042CD4BF002101213220FFF782
:10126000C7FA052CD4BF002101213320FFF7C0FAB3
:10127000062CD4BF002101212E20FFF7B9FA072C3C
:10128000D4BF002101212F20FFF7B2FA082CD4BFD0
:10129000002101213420FFF7ABFA092CD4BF002133
:1012A00001213520FFF7A4FA0A2CD4BF0021012127
:1012B0003620FFF79DFA0B2CD4BF002101213720E7
:1012C000FFF796FA0C2CD4BF002101213820FFF73C
:1012D0008FFA0D2CD4BF002101213920FFF788FAA5
:1012E0000E2CD4BF002101213A20FFF781FA0F2CE8
:1012F000D4BF002101213B20FFF77AFA10BD000086
:1013000010B582B0224B6C4693E8030084E80300DA
:10131000204604F011FB0246042321461D48FFF736
:1013200075FC01214220FFF763FA01214420FFF7F9
:101330005FFA01214120FFF75BFA4FF4FA6002F0F7
:10134000B5FC00214220FFF753FA00214420FFF7AB
:101350004FFA00214120FFF74BFA0F4B1B68022B7D
:1013600007D00D4B186801381860FFF755FF02B021
:1013700010BD0A4B93E8030084E80300204604F004
:10138000DBFA0246042321460248FFF73FFCE8E768
:10139000105C0008200A0020D4000020185C00081F
:1013A000F0B585B00BE2754B02AC93E8030084E81E
:1013B0000300204604F0C0FA024604232146704888
:1013C000FFF724FC71E06F4B02AC93E8030084E864
:1013D0000300204604F0B0FA024604232146684880
:1013E000FFF714FC61E0684B02AC93E8030084E86B
:1013F0000300204604F0A0FA024604232146604878
:10140000FFF704FC51E0614B02AC93E8030084E871
:101410000300204604F090FA02460423214658486F
:10142000FFF7F4FB41E05A4B02AC93E8030084E879
:101430000300204604F080FA024604232146504867
:10144000FFF7E4FB31E0534B02AC93E8030084E880
:101450000300204604F070FA02460423214648485F
:10146000FFF7D4FB21E04C4B02AC93E8030084E887
:101470000300204604F060FA024604232146404857
:10148000FFF7C4FB11E0454B02AC93E8030084E88E
:101490000300204604F050FA02460423214638484F
:1014A000FFF7B4FB01E0FFF72BFF3D4B01229A55FC
:1014B0000136432E00F382803A4FB95D3A4CA4FBCB
:1014C00001321309184603EB4303A1EBC301C9B270
:1014D0000125002300932B462A4605FA01F1DFF887
:1014E000CCC05CF8200002F004FCBB5DA4FB03242C
:1014F000240904EB4404A3EBC404E4B2A54035EA98
:101500000003D5D12A4C0121A05DFFF771F94FF4FA
:10151000FA7002F0CBFB0021A05DFFF769F9204BC8
:101520009B5D002BC4D1234B9B5D002BBBD00A2EAF
:101530003FF439AF0C2E3FF446AF0E2E3FF453AFBD
:101540000F2E3FF460AF122E3FF46DAF182E3FF414
:101550007AAF1A2E87D01C2E95D0174B02AC93E889
:10156000030084E80300204604F0E6F90246042361
:1015700021460348FFF74AFB97E700BF205C0008BD
:10158000200A0020285C0008305C0008385C000855
:10159000405C0008485C0008505C0008585C00088B
:1015A000C00A002004000020ABAAAAAA4805002017
:1015B000480000208C000020605C0008002300939D
:1015C00001231A464FF40061BE48406802F091FBC7
:1015D00010F4006F40F0F5800023009301231A46B9
:1015E0004FF40071B748406802F083FB10F4007FAD
:1015F00040F0F7800023009301231A464FF48061E6
:10160000B048406802F075FB10F4806F40F0F9803C
:101610000023009301231A464FF48071A9484068C3
:1016200002F067FB10F4807F40F0FB800023009302
:1016300001231A461946A348406802F05AFB10F0ED
:10164000010F40F0FE800023009301231A4602217F
:101650009C48406802F04DFB10F0020F40F0018101
:101660000023009301231A4604219648406802F0A3
:1016700040FB10F0040F40F004810023009301238D
:101680001A4608218F48406802F033FB10F0080F1B
:1016900040F007810023009301231A464FF4001104
:1016A0008848806802F025FB10F4001F15D0864A98
:1016B000136801331360052B00F02481834B02ACC7
:1016C00093E8030084E80300204604F035F902465D
:1016D000042321467E48FFF799FA00230093012353
:1016E0001A464FF480017748806802F002FB10F43C
:1016F000800F40F01181774B1B680A2B00F020818E
:101700000023009301231A464FF4F0116D48C0687E
:1017100002F0EFFA00F4F013B3F5F01F00F02381AC
:101720000023009301231A4604216648006902F051
:10173000E0FA10F0040F07D0674B1B7823B9674B12
:1017400018680F2840F323810023009301231A46D1
:1017500008215C48006902F0CCFA10F0080F07D0AD
:101760005F4B1B7823B95D4B18680F2840F3268127
:101770000023009301231A4604215248006802F016
:10178000B8FA10F0040F40F03081002300930123D9
:101790001A4604214B48C06802F0ABFA10F0040F5F
:1017A00040F028810023009301231A460821454870
:1017B000C06802F09EFA10F0080F40F02481002665
:1017C00077E6484B02AC93E8030084E80300204628
:1017D00004F0B2F80246042321463D48FFF716FA0A
:1017E000FAE6414B02AC93E8030084E8030020468C
:1017F00004F0A2F80246042321463548FFF706FA12
:10180000F8E63A4B02AC93E8030084E80300204674
:1018100004F092F80246042321462D48FFF7F6F91A
:10182000F6E6334B02AC93E8030084E8030020465D
:1018300004F082F80246042321462548FFF7E6F922
:10184000F4E62C4B02AC93E8030084E80300204646
:1018500004F072F80246042321461D48FFF7D6F92A
:10186000F1E6254B02AC93E8030084E80300204630
:1018700004F062F80246042321461548FFF7C6F932
:10188000EEE61E4B02AC93E8030084E8030020461A
:1018900004F052F80246042321460D48FFF7B6F93A
:1018A000EBE6174B02AC93E8030084E80300204604
:1018B00004F042F80246042321460548FFF7A6F942
:1018C000E8E600BF48050020BC0A0020685C00086C
:1018D000200A0020B80A0020B40A0020D40000200A
:1018E000B50A0020705C0008785C0008805C000885
:1018F000885C0008905C0008985C0008A05C000808
:10190000A85C0008FFF7FCFC434B00221A6041F67C
:10191000583002F0CBF9D1E6404B02AC93E803001B
:1019200084E80300204604F007F802460423214619
:101930003B48FFF76BF93B4A136801331360DAE663
:10194000394B02AC93E8030084E80300204603F01F
:10195000F3FF0246042321463148FFF757F9314B84
:101960000B221A60CCE600210A20FEF741FF2F4B24
:1019700002AC93E8030084E80300204603F0DCFF98
:101980000246042321462648FFF740F9C8E6284AC4
:101990000121117008441860FFF73EFC254B02AC92
:1019A00093E8030084E80300204603F0C5FF0246E5
:1019B000042321461A48FFF729F9C5E61E4A0121EA
:1019C000117008441860FFF727FC1A4B02AC93E82B
:1019D000030084E80300204603F0AEFF0246042320
:1019E00021460F48FFF712F9C2E600210120FEF759
:1019F000FFFECAE601214A20FEF7FAFE0021492037
:101A0000FEF7F6FECEE601214920FEF7F1FE0021A9
:101A10004A20FEF7EDFED2E6BC0A0020B05C0008CA
:101A2000200A0020B80A0020B85C0008C05C00084A
:101A3000B40A0020C85C0008B50A002003688B4285
:101A400001DC0020704701207047000000B583B022
:101A50004FF0FF3201A90B4B186802F05DFF01281F
:101A6000F6D1094C4FF0FF31206803F004F89DF8DF
:101A70000520064B1A6000231A461946206802F01A
:101A80000AFEE5E740050020100B0020040B0020B3
:101A900010B586B00023059374E000230093012362
:101AA0001A461946AF48006802F023F910F0010FFA
:101AB00021D0AD4A1368013313601CE0AB4A00210A
:101AC000D1540133432BF9DDA94BAA4A1A60AA4B22
:101AD00003AC93E8030084E80300204603F02CFFE6
:101AE000024604232146A548FFF790F800230593FA
:101AF0009D4B58221A609C4B1B68013B1C2B07D83E
:101B00009B4B1B68002B40F33A86013B984A1360BD
:101B10000023009301231A4602219248006802F034
:101B2000E8F810F0020F02D08F4B28221A60059BB4
:101B3000013305938C4B1B68914A1268934217D06E
:101B4000CC228DF80C2005228DF80D2000218DF877
:101B50000E108DF80F30FF238DF810304FF0FF334B
:101B600003A9884801F006FE7F4B1A68844B1A606F
:101B700000231A4619468448006802F08CFD0120B3
:101B800002F094F84FF0FF317F4B186802F073FFBA
:101B9000754B1C68631E5A2BADD801A252F823F076
:101BA0009B1A00080D1D0008911D00089F1E0008CB
:101BB000B71E0008D91E0008FB1E0008551F0008AC
:101BC0006D1F00088F1F0008B51F000809200008BE
:101BD0002F20000849200008A1200008ED2000085F
:101BE00011210008652100088B210008DF21000871
:101BF0000D220008F71A0008F71A0008F71A000863
:101C0000F71A0008F71A0008F71A0008F71A000870
:101C1000F71A000831220008CB220008E32200084E
:101C2000072300081F230008F71A0008F71A000806
:101C3000F71A0008F71A0008F71A0008B12300087D
:101C40004D240008672400088B240008A324000802
:101C5000F71A0008F71A0008F71A0008F71A000820
:101C6000F71A00080525000899250008B325000883
:101C7000C7250008DF250008F71A0008F71A000832
:101C8000F71A0008F71A0008F71A0008412600089A
:101C90000D270008F71A0008F71A0008F71A0008BD
:101CA000F71A0008F71A0008F71A0008F71A0008D0
:101CB000F71A0008F71A0008F71A0008F71A0008C0
:101CC000F71A0008F71A0008F71A0008F71A0008B0
:101CD000F71A0008F71A0008F71A0008F71A0008A0
:101CE000F71A0008F71A0008F71A0008F71A000890
:101CF000F71A0008F71A0008F71A0008111D000863
:101D0000271D00083D1D0008551D00080023D9E6C9
:101D10001E4905A8FFF792FE00283FF4ECAE0134FF
:101D2000114B1C60E7E601210220FEF761FD002354
:101D300005930D4A136801331360DCE64AF6C87157
:101D400005A8FFF77BFE00283FF4D5AE0134064B13
:101D50001C60D0E600214B20FEF74AFD024B032217
:101D60001A60C8E648050020040B0020C00A0020C5
:101D7000D0000020808D5B00D05C0008680A002045
:101D8000080B0020D8090020100B0020401901008A
:101D90000023009301231A460221B448006901F090
:101DA000A8FF10F0020F4BD10023009301231A4625
:101DB0001946AE48006901F09CFF10F0010F3FF496
:101DC0009AAE01213E20FEF713FD4FF4FA7001F0A8
:101DD0006DFF00213E20FEF70BFD0121A44B83F88F
:101DE00043104B20FEF704FDA24B18680138186021
:101DF000FFF712FAA04B03AC93E8030084E803005A
:101E0000204603F099FD0246042321469B48FEF735
:101E1000FDFE41F6583001F049FF00214220FEF757
:101E2000E7FC00214420FEF7E3FC00214620FEF7FA
:101E3000DFFC00230593924A1368013313605AE6CE
:101E400001213F20FEF7D4FC4FF4FA7001F02EFF81
:101E500000213F20FEF7CCFC8A4B03AC93E8030043
:101E600084E80300204603F067FD02460423214670
:101E70008248FEF7CBFE01214B20FEF7B9FC002182
:101E80004220FEF7B5FC00214420FEF7B1FC002102
:101E90004620FEF7ADFC7A4B06221A6084E748F232
:101EA000D04105A8FFF7CAFD00283FF424AE013455
:101EB000734B1C601FE601213F20FEF799FC4FF495
:101EC000FA7001F0F3FE00213F20FEF791FC6C4A0E
:101ED0001368013313600EE60022009201230821EB
:101EE0006248006801F005FF10F0080F7FF403AEB0
:101EF000634A136801331360FDE5634B1B68072BCE
:101F000015DC624B03AC93E8030084E80300204631
:101F100003F012FD0246042321465848FEF776FEE0
:101F200000230593564A136801331360E3E5584BC9
:101F300003AC93E8030084E80300204603F0FCFCB4
:101F40000246042321464D48FEF760FE4C4B0A2210
:101F50001A60D0E54AF2280105A8FFF76FFD0028B6
:101F60003FF4C9AD0134464B1C60C4E50121032098
:101F7000FEF73EFC4FF4FA7001F098FE00210320BA
:101F8000FEF736FC3E4A136801331360B3E50023C5
:101F9000009301231A464FF480513448006801F041
:101FA000A8FE10F4805F3FF4A6AD354A13680133F4
:101FB0001360A0E500210E20FEF71AFC0021482046
:101FC000FEF716FC334B03AC93E8030084E80300F0
:101FD000204603F0B1FC0246042321462748FEF7C1
:101FE00015FE2D4B93E8030084E80300204603F020
:101FF000A3FC0246012321462848FEF707FE204A9B
:1020000013680133136076E50023009301231A4619
:102010004FF400011548806801F06BFE10F4000FCA
:102020003FF469AD164A13680133136063E500217C
:102030005B20FEF7DDFB00214920FEF7D9FB104AAB
:1020400013680133136056E50023009301231A46F9
:1020500002210648C06801F04CFE10F0020F3FF468
:102060004AAD074A13680133136044E54805002070
:10207000C00A0020D4000020D85C0008200A0020FC
:10208000040B0020E05C00080C0B0020E85C00085A
:10209000F05C0008F85C0008005D0008680A002099
:1020A00000215920FEF7A4FBB54B03AC93E80300D5
:1020B00084E80300204603F03FFC0246012321464A
:1020C000B048FEF7A3FDB04B93E8030084E803009B
:1020D000204603F031FC024604232146AB48FEF7BC
:1020E00095FDAB4A13680133136004E500230093A8
:1020F00001231A461946A748C06801F0FAFD10F0FE
:10210000010F3FF4F8ACA24A136801331360F2E404
:1021100000215A20FEF76CFB00214720FEF768FBE8
:102120009D4B03AC93E8030084E80300204603F0D2
:1021300003FC0246012321469248FEF767FD974BB8
:1021400093E8030084E80300204603F0F5FB024611
:10215000042321468D48FEF759FD8D4A136801334B
:102160001360C8E40023009301231A464FF4006172
:102170008848006801F0BDFD10F4006F3FF4BBAC6F
:10218000834A136801331360B5E400210F20FEF782
:102190002FFB00214620FEF72BFB814B03AC93E87D
:1021A000030084E80300204603F0C6FB0246012337
:1021B00021467448FEF72AFD7A4B93E8030084E831
:1021C0000300204603F0B8FB0246042321466F4873
:1021D000FEF71CFD6E4A1368013313608BE4002385
:1021E000009301231A464FF480416A48006801F0C9
:1021F00080FD10F4804F3FF47EAC00212B20FEF7D1
:10220000F7FA634A13680133136074E40023009300
:1022100001231A464FF400415E48006801F069FD51
:1022200010F4004F3FF467AC594B32221A6062E45D
:102230005448FEF73FFD01214B20FEF7D9FA01215A
:102240004820FEF7D5FA01214920FEF7D1FA0121F5
:102250004A20FEF7CDFA01214720FEF7C9FA0121F5
:102260004620FEF7C5FA01214B20FEF7C1FA0121F5
:102270004220FEF7BDFA01214420FEF7B9FA012100
:102280004120FEF7B5FA01214320FEF7B1FA012102
:102290004520FEF7ADFA01210C20FEF7A9FA424BCA
:1022A00003AC93E8030084E80300204603F044FBFA
:1022B0000246042321463548FEF7A8FC0023059377
:1022C000334A13680133136015E449F2704105A8DD
:1022D000FFF7B4FB00283FF40EAC01342C4B1C601C
:1022E00009E400214320FEF783FA00214520FEF790
:1022F0007FFA00210C20FEF77BFA254A1368013390
:102300001360FFF7F8BB294905A8FFF797FB0028E2
:102310003FF4F1AB01341E4B1C60FFF7ECBB002116
:102320004B20FEF765FA00214820FEF761FA0021F4
:102330004920FEF75DFA00214A20FEF759FA0021F4
:102340004720FEF755FA00214620FEF751FA0021FA
:102350004B20FEF74DFA00214220FEF749FA0021FA
:102360004420FEF745FA00214120FEF741FA002102
:102370000846FEF73DFA064B00221A60FFF7BBBB8A
:10238000085D0008680A0020105D0008200A00208F
:10239000040B002048050020185D0008205D00089F
:1023A000285D0008305D0008385D000898340100A1
:1023B000CF48FEF77FFC01214B20FEF719FA0121DF
:1023C0004820FEF715FA01214920FEF711FA0121F4
:1023D0004A20FEF70DFA01214720FEF709FA0121F4
:1023E0004620FEF705FA01214B20FEF701FA0121F4
:1023F0004220FEF7FDF901214420FEF7F9F9012101
:102400004120FEF7F5F901214320FEF7F1F9012102
:102410004520FEF7EDF901210C20FEF7E9F9B54B57
:1024200003AC93E8030084E80300204603F084FA39
:10243000024604232146B048FEF7E8FB002305933B
:10244000AE4A136801331360FFF755BB48F2E80149
:1024500005A8FFF7F3FA00283FF44DAB0134A74B72
:102460001C60FFF748BB00214320FEF7C1F90021A3
:102470004520FEF7BDF900210C20FEF7B9F99F4A6F
:10248000136801331360FFF736BB9D4905A8FFF7BA
:10249000D5FA00283FF42FAB0134984B1C60FFF7AE
:1024A0002ABB00214B20FEF7A3F900214820FEF7AC
:1024B0009FF900214920FEF79BF900214A20FEF7F1
:1024C00097F900214720FEF793F900214620FEF7F7
:1024D0008FF900214B20FEF78BF900214220FEF7F7
:1024E00087F900214420FEF783F900214120FEF7FF
:1024F0007FF900210846FEF77BF9804B00221A6025
:10250000FFF7F9BA7A48FEF7D5FB01214B20FEF719
:102510006FF901214820FEF76BF901214920FEF7F0
:1025200067F901214A20FEF763F901214720FEF7F0
:102530005FF901214620FEF75BF901214B20FEF7F0
:1025400057F901214220FEF753F901214420FEF7FB
:102550004FF901214120FEF74BF900214320FEF7FE
:1025600047F900214520FEF743F9664B03AC93E899
:10257000030084E80300204603F0DEF9024604234A
:1025800021465D48FEF742FB002305935B4A136832
:1025900001331360FFF7AFBA4DF6C02105A8FFF76E
:1025A0004DFA00283FF4A7AA0134544B1C60FFF7F2
:1025B000A2BA01210C20FEF71BF9504A136801331F
:1025C0001360FFF798BA4E4905A8FFF737FA0028BD
:1025D0003FF491AA0134494B1C60FFF78CBA0021EB
:1025E0004B20FEF705F900214820FEF701F90021F4
:1025F0004920FEF7FDF800214A20FEF7F9F80021F6
:102600004720FEF7F5F800214620FEF7F1F80021FB
:102610004B20FEF7EDF800214220FEF7E9F80021FB
:102620004420FEF7E5F800214120FEF7E1F8002103
:102630000846FEF7DDF8314B00221A60FFF75BBA5F
:102640001020314B1860FEF7E7FD2B48FEF732FBF8
:102650002748FEF72FFB00214620FEF7C9F800218E
:102660004A20FEF7C5F800214920FEF7C1F80021F5
:102670004820FEF7BDF800214B20FEF7B9F80021F5
:102680004220FEF7B5F800214420FEF7B1F8002102
:102690004120FEF7ADF800214420FEF7A9F8012102
:1026A0000020FEF7A5F801210F20FEF7A1F8012177
:1026B0005A20FEF79DF801215920FEF799F80121D3
:1026C0005B20FEF795F801210E20FEF791F800211E
:1026D0000220FEF78DF801210846FEF789F8012156
:1026E0002B20FEF785F8054B00221A60FFF703BA8E
:1026F000680A0020405D0008200A0020040B00202A
:1027000098340100485D0008D400002001214620D3
:10271000FEF76EF801214A20FEF76AF801214920F0
:10272000FEF766F801214820FEF762F801214B20F0
:10273000FEF75EF801214220FEF75AF801214420FD
:10274000FEF756F801214720FEF752F801214120FB
:10275000FEF74EF801214420FEF74AF801210A2035
:10276000FEF746F800210C20FEF742F80023064A47
:102770001360064A1360064A1360FFF7BCB9044BA6
:102780001E221A60FFF7C4B9B80A0020BC0A002054
:10279000040B0020FEF7E0FB0B480C490C4A002319
:1027A00002E0D458C4500433C4188C42F9D3094A07
:1027B000094C002301E013600432A242FBD303F072
:1027C00045F8FEF7BFF9704700000020140500200F
:1027D0007C5D00081405002068380020FEE700003A
:1027E00008B5074A136843F010031360032000F094
:1027F0001BF80F20FEF73AFBFEF70EFB002008BD8A
:1028000000200240034A1168034B1B780B441360FD
:10281000704700BF140B0020D8000020014B18683F
:10282000704700BF140B0020074AD36823F4E0630D
:102830001B041B0C000200F4E060034343F0BF6381
:1028400043F40033D360704700ED00E000B5194B4E
:10285000DB68C3F30223C3F1070CBCF1040F28BFEC
:102860004FF0040C03F1040EBEF1060F18D9033B20
:102870004FF0FF3E0EFA0CFC21EA0C0199400EFAD3
:1028800003F322EA0303194300280BDB0901C9B251
:1028900000F1604000F5614080F800135DF804FB32
:1028A0000023E5E700F00F000901C9B2024B1954FB
:1028B000F4E700BF00ED00E014ED00E0002807DBC6
:1028C00000F01F02400901239340024A42F82030E1
:1028D000704700BF00E100E090F82130DBB2022B2E
:1028E00006D004238363002380F820300120704742
:1028F0000268136823F00E0313600268136823F064
:1029000001031360036CC16B012202FA03F34B60F5
:1029100080F82120002380F82030184670470000FE
:1029200008B590F82130DBB2022B03D00423836377
:10293000012008BD0268136823F00E0313600268CB
:10294000136823F0010313600368194A934214D0FB
:10295000143293421FD0143293421ED01432934249
:102960001ED0143293421ED01432934202D04FF044
:10297000807203E04FF4801200E001220D4B5A6098
:10298000012380F82130002380F82030436B6BB1A5
:1029900098470020CDE71022F0E74FF48072EDE772
:1029A0004FF48052EAE74FF48032E7E70020C0E7B7
:1029B000080002400000024070B582B00024A44626
:1029C000A6E0804DAA4210D007D97F4DAA420CD074
:1029D00005F58035AA4208D013E0A5F58015AA4276
:1029E00003D005F57025AA4207D18A68002A58D07D
:1029F000012A51D04361082403E0A5F58015AA42BD
:102A0000F3D0BEF1FF0F4ED80646BEF1FF0F4CD8F3
:102A10004FEA8C0233680F25954023EA050304FA38
:102A200002F2134333604B6813F0805F6ED0674B44
:102A30009A6942F001029A619B6903F001030193D4
:102A4000019B4FEA9C02951C614B53F825600CF0EA
:102A500003039D000F23AB4026EA03065D4B98421B
:102A600029D003F58063984200F08E8003F58063DF
:102A7000984200F08B8003F58063984219D00423BC
:102A80001AE0CC68BDE7CC680434BAE7CC680834F7
:102A9000B7E7CC680C34B4E703610824B1E700243D
:102AA000AFE70424ADE7061DAFE7ACF108029200E2
:102AB000B0E7032300E00023AB4033430232444D30
:102AC00045F822304B6813F4801F61D0424A936866
:102AD00043EA0E0393604B6813F4001F5ED03E4A36
:102AE000D36843EA0E03D3604B6813F4003F5BD016
:102AF000394A536843EA0E0353604B6813F4803F2E
:102B000058D0354A136843EA0E0313600CF1010CE8
:102B10000A6832FA0CF353D0012303FA0CF302EAE9
:102B2000030E33EA0202F1D14A68122A3FF649AF96
:102B3000122A3FF666AF01A555F822F0EB290008EE
:102B4000832A00088D2A00089F2A0008032A00080B
:102B5000032A0008032A0008032A0008032A0008A1
:102B6000032A0008032A0008032A0008032A000891
:102B7000032A0008032A0008032A0008032A000881
:102B8000872A0008932A0008012395E7022393E788
:102B9000114A936823EA0E0393609CE70E4AD368B8
:102BA00023EA0E03D3609FE70B4A536823EA0E0320
:102BB0005360A2E7084A136823EA0E031360A5E7EF
:102BC00002B070BD00002210000031100010024061
:102BD00000000140000801400004014083681942E0
:102BE00001D001207047002070470AB10161704791
:102BF000090401617047000082B0084B1B68084A55
:102C0000A2FB03235B0A00FB03F3019300BF019BBC
:102C10005A1E0192002BF9D102B07047000000202B
:102C2000D34D6210002800F0F18170B582B00446E7
:102C3000036813F0010F2CD0994B5B6803F00C0371
:102C4000042B1DD0964B5B6803F00C03082B12D0AD
:102C50006368B3F5803F41D0002B55D103F1804329
:102C600003F504331A6822F480321A601A6822F4D9
:102C700080221A6037E08A4B5B6813F4803FE7D00C
:102C8000874B1B6813F4003F03D06368002B00F0F0
:102C9000BF81236813F0020F75D0814B5B6813F07E
:102CA0000C0F5FD07E4B5B6803F00C03082B54D0F5
:102CB0002369002B00F08A807A4B01221A60FFF70B
:102CC000ADFD0546764B1B6813F0020F75D1FFF77B
:102CD000A5FD401B0228F5D903209EE1704A136828
:102CE00043F480331360636843B3FFF797FD0546F1
:102CF0006B4B1B6813F4003FCBD1FFF78FFD401BDC
:102D00006428F5D9032088E1B3F5A02F09D0644BDE
:102D10001A6822F480321A601A6822F480221A603B
:102D2000E1E703F18043A3F53C331A6842F48022C3
:102D30001A601A6842F480321A60D4E7FFF76EFD19
:102D40000546574B1B6813F4003FA2D0FFF766FD02
:102D5000401B6428F5D903205FE1514B5B6813F4F5
:102D6000803FA5D14E4B1B6813F0020F03D023699F
:102D7000012B40F04F814A4A136823F0F803616940
:102D800043EAC1031360236813F0080F33D0A3692B
:102D9000002B5CD0434B0122C3F88024FFF73EFD9B
:102DA00005463F4B5B6A13F0020F21D1FFF736FD5A
:102DB000401B0228F5D903202FE1394A136823F07C
:102DC000F803616943EAC1031360DCE7354B002275
:102DD0001A60FFF723FD0546314B1B6813F0020F05
:102DE000D1D0FFF71BFD401B0228F5D9032014E1C9
:102DF0000120FFF701FF236813F0040F00F0968015
:102E0000274BDB6913F0805F34D1254BDA6942F040
:102E10008052DA61DB6903F080530193019B012545
:102E2000214B1B6813F4807F26D0E368012B3DD033
:102E3000002B53D103F1804303F504331A6A22F0C7
:102E400001021A621A6A22F004021A6233E0154B78
:102E50000022C3F88024FFF7E1FC0546104B5B6AB3
:102E600013F0020FC7D0FFF7D9FC401B0228F5D999
:102E70000320D2E00025D3E70B4A136843F48073A4
:102E80001360FFF7CBFC0646074B1B6813F4807FEB
:102E9000CBD1FFF7C3FC801B6428F5D90320BCE02D
:102EA0000010024000004242007000405F4A136A76
:102EB00043F001031362E36833B3FFF7AFFC064648
:102EC0005A4B1B6A13F0020F2FD1FFF7A7FC801B90
:102ED00041F288339842F3D903209EE0052B09D0B4
:102EE000524B1A6A22F001021A621A6A22F0040294
:102EF0001A62E0E74D4B1A6A42F004021A621A6A3B
:102F000042F001021A62D6E7FFF788FC0646474BFB
:102F10001B6A13F0020F08D0FFF780FC801B41F200
:102F200088339842F3D9032077E0E5B9E369002BB1
:102F300072D03E4A526802F00C02082A56D0022B88
:102F400017D03B4B00221A66FFF768FC0446374B4C
:102F50001B6813F0007F47D0FFF760FC001B0228BE
:102F6000F5D9032059E0314AD36923F08053D36166
:102F7000DCE72F4B00221A66FFF750FC05462B4B6F
:102F80001B6813F0007F06D0FFF748FC401B0228A7
:102F9000F5D9032041E0236AB3F5803F1AD02349D5
:102FA0004B6823F47413226A606A024313434B6034
:102FB0001F4B01221A66FFF731FC04461B4B1B68AE
:102FC00013F0007F0ED1FFF729FC001B0228F5D972
:102FD000032022E0154A536823F40033A1680B4311
:102FE0005360DCE7002018E0002016E0012B16D02B
:102FF0000E4B5B6803F48031226A914211D103F4D5
:103000007013626A93420ED1002006E001207047DF
:10301000012002E0012000E0002002B070BD01208C
:10302000FBE70120F9E70120F7E700BF00100240AD
:10303000000042420F4B5B6803F00C02082A01D0EB
:103040000D487047C3F383420C49885C13F4803FFA
:103050000BD0084B5B68C3F34043094AD35C064A74
:1030600002FB00F0B0FBF3F07047064B03FB00F0EF
:10307000704700BF0010024000127A00505D000847
:10308000605D000800093D00002800F0A08070B5D8
:103090000D460446524B1B6803F007038B420BD2CC
:1030A0004F4A136823F007030B431360136803F0C0
:1030B00007038B4240F08D80236813F0020F17D076
:1030C00013F0040F04D0474A536843F4E06353609D
:1030D000236813F0080F04D0424A536843F4605346
:1030E0005360404A536823F0F003A1680B435360D8
:1030F000236813F0010F31D06368012B20D0022B1D
:1031000025D0384A126812F0020F64D035494A6857
:1031100022F0030213434B60FFF780FB0646314B5E
:103120005B6803F00C036268B3EB820F16D0FFF705
:1031300075FB801B41F288339842F0D9032045E0AB
:10314000284A126812F4003FE0D101203EE0254AEF
:10315000126812F0007FD9D1012037E0204B1B68A4
:1031600003F00703AB420AD91D4A136823F0070393
:103170002B431360136803F00703AB422DD1236880
:1031800013F0040F06D0174A536823F4E063E16894
:103190000B435360236813F0080F07D0114A53689C
:1031A00023F46053216943EAC1035360FFF742FFF0
:1031B0000C4B5B68C3F303130B4AD35CD8400B4B37
:1031C00018600B4B1868FDF751FE002070BD012000
:1031D00070470120FAE70120F8E70120F6E700BF79
:1031E0000020024000100240F85B000800000020B0
:1031F000DC000020014B1868704700BF0000002071
:1032000008B5FFF7F7FF044B5B68C3F30223034ADB
:10321000D35CD84008BD00BF00100240085C000825
:1032200008B5FFF7E7FF044B5B68C3F3C223034A0B
:10323000D35CD84008BD00BF00100240085C000805
:103240000F2303600B4B5A6802F0030242605A6876
:1032500002F0F00282605A6802F4E062C2605B68C9
:10326000DB0803F4E0630361034B1B6803F007030F
:103270000B607047001002400020024070470000C1
:1032800090F83D30DBB2012B27D1022380F83D308E
:103290000268D36843F00103D3600368114A934284
:1032A00010D0B3F1804F0DD0A2F59432934209D0E3
:1032B00002F58062934205D01A6842F001021A605A
:1032C000002070479A6802F00702062A07D01A68A1
:1032D00042F001021A600020704701207047002070
:1032E000704700BF002C014070477047704770471F
:1032F00010B5044603681A6912F0020F11D0DA689B
:1033000012F0020F0DD06FF002021A610123037751
:1033100003689B6913F0030F70D0FFF7E6FF0023EB
:10332000237723681A6912F0040F12D0DA6812F0BA
:10333000040F0ED06FF004021A6102232377236872
:103340009B6913F4407F5FD02046FFF7CEFF002338
:10335000237723681A6912F0080F12D0DA6812F086
:10336000080F0ED06FF008021A6104232377236838
:10337000DB6913F0030F4ED02046FFF7B6FF0023A2
:10338000237723681A6912F0100F12D0DA6812F04E
:10339000100F0ED06FF010021A61082323772368F4
:1033A000DB6913F4407F3DD02046FFF79EFF0023EA
:1033B000237723681A6912F0010F03D0DA6812F03C
:1033C000010F36D123681A6912F0800F03D0DA6832
:1033D00012F0800F34D123681A6912F0400F03D025
:1033E000DA6812F0400F32D123681A6912F0200F08
:1033F00003D0DA6812F0200F30D110BDFFF774FF50
:103400002046FFF773FF8AE72046FFF76DFF20464F
:10341000FFF76CFF9BE72046FFF766FF2046FFF7AC
:1034200065FFACE72046FFF75FFF2046FFF75EFF32
:10343000BDE76FF001021A612046FDF745FBC1E7C9
:103440006FF080021A61204600F077F8C3E76FF052
:1034500040021A612046FFF74AFFC5E76FF02002DD
:103460001A61204600F068F8C7E7000003681B4AAD
:1034700090420AD0B0F1804F07D0A2F5943290422A
:1034800003D002F58062904203D123F070034A68B2
:103490001343124A90420AD0B0F1804F07D0A2F5F0
:1034A0009432904203D002F58062904203D123F41B
:1034B0004073CA68134323F080034A6913430360CF
:1034C0008B68C3620B688362044B984202D001236D
:1034D000436170470B690363F9E700BF002C0140AB
:1034E00040B310B5044690F83D30F3B1022384F8A0
:1034F0003D30214651F8040BFFF7B8FF012384F853
:10350000463084F83E3084F83F3084F8403084F808
:10351000413084F8423084F8433084F8443084F8F1
:10352000453084F83D30002010BD80F83C30FFF776
:10353000A5FEDBE70120704770477047026802F183
:103540000C0353E8003F23F490730C3242E800313F
:103550000029F3D1026802F1140353E8003F23F07D
:103560000103143242E800310029F3D1036B012B2F
:1035700005D0202380F8423000230363704702689F
:1035800002F10C0353E8003F23F010030C3242E831
:1035900000310029F3D1ECE790F84130DBB2212B68
:1035A00001D0022070478368B3F5805F17D0036AAB
:1035B0005A1C02621A7803685A60C38C9BB2013BA2
:1035C0009BB2C3844BB90268D36823F08003D360F5
:1035D0000268D36843F04003D3600020704703695A
:1035E000002BE4D1036A1B880268C3F3080353600D
:1035F000036A02330362E0E710B504460268136908
:1036000023F44053C1680B43136183680269134379
:1036100042691A430168CB6823F4B05323F00C03CA
:103620001343CB600268536923F4407381690B43F1
:1036300053610268134B9A4220D0FFF7E1FD024626
:1036400002EB820202EB820263689B00B2FBF3F2A0
:103650000D48A0FB02314909642303FB11231B0120
:103660003233A0FB03235B0903F0F00202EB0112EB
:1036700003F00F03216813448B6010BDFFF7D0FDEA
:103680000246DDE7003801401F85EB512DE9F84384
:1036900005460F4616469946DDF820802C682468BA
:1036A00037EA04030CBF4FF0010C4FF0000CB44597
:1036B0002DD1B8F1FF3FF1D0B8F1000F05D0FFF7E1
:1036C000ADF8A0EB09004045E8D92A6802F10C03E7
:1036D00053E8003F23F4D0730C3242E80031002954
:1036E000F3D12A6802F1140353E8003F23F00103E9
:1036F000143242E800310029F3D1202385F841300B
:1037000085F84230002385F84030032000E0002097
:10371000BDE8F88360B310B5044690F8413013B3A8
:10372000242384F841302268D36823F40053D36003
:103730002046FFF761FF2268136923F49043136169
:103740002268536923F02A0353612268D36843F443
:103750000053D36000206064202384F8413084F853
:103760004230606310BD80F84030FDF745FCD7E77C
:10377000012070472DE9F04182B01E4690F841309B
:10378000DBB2202B4BD104460D46904600294AD08F
:103790000AB9012044E000234364212380F841302A
:1037A000FFF73CF80746A4F82480A4F82680A36815
:1037B000B3F5805F02D04FF000080FE02369FBB142
:1037C0004FF000080AE038F8023B2268C3F3080310
:1037D0005360E28C92B2013A92B2E284E38C9BB2E3
:1037E0008BB100963B46002280212046FFF74EFF1A
:1037F000D8B9002DE7D015F8012B23685A60E8E707
:10380000A8460025EAE700963B46002240212046D4
:10381000FFF73CFF58B9202384F8413000E0022034
:1038200002B0BDE8F0810120FAE70320F8E70320A9
:10383000F6E7704708B50168CA6822F04002CA601E
:10384000202280F84120FFF7F4FF002008BD7047D8
:1038500008B5406A0023C385C384FFF7F8FF08BD9D
:10386000704790F84230DBB2222B69D18368B3F500
:10387000805F4FD0826AB3F5805F04D0002B56D1B1
:103880000369002B53D103685B681370836A0133AB
:103890008362C38D9BB2013B9BB2C385002B51D188
:1038A00000B583B00268D36823F02003D3600268B8
:1038B000D36823F48073D3600268536923F0010353
:1038C0005361202380F8423000234363036B012BB4
:1038D00033D100230363026802F10C0353E8003F75
:1038E00023F010030C3242E800310029F3D10368C1
:1038F0001A6812F0100F06D0002201921A68019285
:103900005B680193019B818DFFF7AAFF002003B044
:103910005DF804FB0269002AACD1826A03685B6827
:10392000C3F308031380836A02338362B1E7036839
:103930005B6803F07F031370A8E7FDF711FCE5E770
:10394000022070470020704730B583B004460268FB
:103950001368D068516913F00F0505D113F0200FDB
:1039600002D010F0200F19D12DB111F0010119D1A1
:1039700010F4907F16D1216B01297DD013F0800FB8
:1039800003D010F0800F40F0188113F0400F03D0E7
:1039900010F0400F40F0158103B030BD2046FFF716
:1039A00060FFF9E713F0010F06D010F4807F03D019
:1039B000626C42F00102626413F0040F04D019B18A
:1039C000626C42F00202626413F0020F04D019B17B
:1039D000626C42F00402626413F0080F07D010F02A
:1039E000200F00D119B1626C42F008026264626C6F
:1039F000002AD1D013F0200F02D010F0200F29D1CF
:103A000023685B6903F04003626C12F0080F00D179
:103A100063B32046FFF792FD23685B6913F0400F04
:103A200020D0226802F1140353E8003F23F0400342
:103A3000143242E800310029F3D1E36B73B1634AD9
:103A40005A63E06BFEF76CFF0028A5D0E06B436B78
:103A50009847A1E72046FFF704FFD1E72046FFF78C
:103A6000F6FE99E72046FFF7F2FE95E72046FFF7BE
:103A7000EEFE002363648FE713F0100F3FF47EAF78
:103A800010F0100F3FF47AAF0023019313680193F5
:103A900053680193019B536913F0400F51D0E26BBF
:103AA00013685B689BB2002B3FF476AFA18D9942FF
:103AB0007FF672AFE3859369202B37D0226802F13D
:103AC0000C0353E8003F23F480730C3242E80031CA
:103AD0000029F3D1226802F1140353E8003F23F0D8
:103AE0000103143242E800310029F3D1226802F1C7
:103AF000140353E8003F23F04003143242E800313E
:103B00000029F3D1202384F8423000232363226864
:103B100002F10C0353E8003F23F010030C3242E89B
:103B200000310029F3D1E06BFEF7D6FE0223636378
:103B3000A18DE38D9BB2C91A89B22046FFF790FE92
:103B40002AE7A18DE38D9BB2C91A89B2E38D9BB29E
:103B5000002B3FF421AF00293FF41EAF226802F191
:103B60000C0353E8003F23F490730C3242E800301A
:103B70000028F3D1226802F1140353E8003F23F038
:103B80000103143242E800300028F3D1202384F8E6
:103B9000423000232363226802F10C0353E8003F04
:103BA00023F010030C3242E800300028F3D1022346
:103BB00063632046FFF754FEEEE62046FFF7ECFC79
:103BC000EAE62046FFF736FEE6E600BF5138000879
:103BD00081628285C28500234364222380F84230BB
:103BE000036923B10268D36843F48073D360026829
:103BF000536943F0010353610268D36843F0200323
:103C0000D3600020704708B590F84230DBB2202B1B
:103C100008D149B10AB9012008BD00230363FFF7A9
:103C2000D7FFF9E70220F7E70120F5E7842801D064
:103C3000033070470020704708B501F0E7F9002015
:103C400008BD2DE9F04387B004460F464569BDB174
:103C50008669AEB1D0F80480D0F80090B0F90800C1
:103C6000FFF7E4FF0296019500903B462269494622
:103C7000404601F05DF90590059807B0BDE8F08376
:103C800065682668D4F81080B4F90800FFF7CEFF05
:103C900005AB019300903B461FFA88F23146284657
:103CA00001F080F90128E7D00020E6E708B500B967
:103CB000012001F0F5FA002008BD1AB9084206D12A
:103CC0001046704731EA000303D0002070470120FE
:103CD00070470120704738B51C2000F00DFB0446EA
:103CE00028B1002540F8045B00F0F0F82576204666
:103CF00038BD2DE9F84378B10C4616461D460746F7
:103D000011F07F4811D04FF0500383F31188BFF3B7
:103D10006F8FBFF34F8FFEE74FF0500383F311888F
:103D2000BFF36F8FBFF34F8FFEE741B94FF05003E2
:103D300083F31188BFF36F8FBFF34F8FFEE701F05E
:103D400043FC50B9089B43B14FF0500383F31188F3
:103D5000BFF36F8FBFF34F8FFEE701F091F9D7F8F4
:103D600000902A4621464846FFF7A7FFF0B116B15A
:103D700029EA04033B6001F017FAB8F1000F12D0F2
:103D800048B94FF0E0234FF08052C3F8042DBFF341
:103D90004F8FBFF36F8F01F03FFD814610F0007F22
:103DA0001AD029F07F494846BDE8F883089B83B1C3
:103DB00066B941460DB141F08061089A2143381D32
:103DC00001F0F8FAC146DDF82080D4E74FF08071A9
:103DD000F0E7DDF82080CEE700F014F9D7F8009086
:103DE0002A4621464846FFF768FF18B116B129EA6E
:103DF00004043C6000F028F9D3E770B170B50C46BC
:103E0000054611F07F4F11D04FF0500383F3118816
:103E1000BFF36F8FBFF34F8FFEE74FF0500383F375
:103E20001188BFF36F8FBFF34F8FFEE700F0EAF802
:103E30002E6826EA04042C6000F006F9304670BDB6
:103E4000F8B568B10D46044611F07F4711D04FF028
:103E5000500383F31188BFF36F8FBFF34F8FFEE7DB
:103E60004FF0500383F31188BFF36F8FBFF34F8F71
:103E7000FEE700F10C0601F003F9206923682B43EB
:103E800023600AE0216832EA010105D111E02168CE
:103E900041F0007101F000FB2846B0420ED04568A9
:103EA000036823F07F4213F0806FEBD12168114249
:103EB000F2D013F0807FEAD01743E8E7236823EAC3
:103EC0000703236001F070F92068F8BD00F10803D2
:103ED00043604FF0FF328260C360036100230360E0
:103EE000704700230361704743684B609A688A609B
:103EF000516099600861036801330360704730B412
:103F00000D68B5F1FF3F11D000F108031C465B6856
:103F10001A68AA42FAD963684B6099608C60616044
:103F2000086103680133036030BC70470469F2E73D
:103F30000369416882688A60416851605A688242B8
:103F400006D0002202611A68013A1A6018687047A8
:103F500082685A60F5E7000082B0002301930D4BA0
:103F60001B68B3F1FF3F08D04FF0500383F3118873
:103F7000BFF36F8FBFF34F8FFEE74FF0500383F314
:103F80001188BFF36F8FBFF34F8F019B002BFCD0C5
:103F900002B07047E000002006480068006880F327
:103FA000088862B661B6BFF34F8FBFF36F8F00DF33
:103FB00000BF000008ED00E04FF0807340F8043CC3
:103FC00021F0010140F8081C034B40F80C3C40F87C
:103FD000202C4038704700BF593F00080000000007
:103FE000074B19680868B0E8F00F80F30988BFF341
:103FF0006F8F4FF0000080F311884EF00D0E704768
:10400000383700204FF0500383F31188BFF36F8FD0
:10401000BFF34F8F0B4A136801331360012B00D09D
:1040200070474FF0E023D3F8043D13F0FF0FF7D0B3
:104030004FF0500383F31188BFF36F8FBFF34F8F9F
:10404000FEE700BFE0000020094B1B6843B94FF0BA
:10405000500383F31188BFF36F8FBFF34F8FFEE7D9
:10406000013B034A13600BB983F31188704700BF0B
:10407000E000002000000000000000000000000040
:10408000EFF30980BFF36F8F0D4B1A6820E9F00F33
:1040900010602DE908404FF0500080F3118801F0C6
:1040A00025F94FF0000080F31188BDE80840196839
:1040B0000868B0E8F00F80F30988BFF36F8F70478E
:1040C0003837002008B54FF0500383F31188BFF351
:1040D0006F8FBFF34F8F00F0DBFF28B14FF0E0236D
:1040E0004FF08052C3F8042D002383F3118808BDDC
:1040F0004FF0E022002313619361054B1B680549D3
:10410000A1FB03139B09013B536107231361704714
:1041100000000020D34D621010B582B02A4B1A78EF
:10412000D2B20192FF221A701B78DBB28DF80330F5
:104130009DF8033003F05003244A1370244B0722E8
:104140001A6009E0224A1368013B13609DF80330AE
:104150005B00DBB28DF803309DF8033013F0800F65
:10416000F0D11B4B1B68032B08D04FF0500383F397
:104170001188BFF36F8FBFF34F8FFEE71B02144A06
:10418000136003F4E0631360019BDBB20E4A13700B
:104190004FF0E023D3F8202D42F47002C3F8202D15
:1041A000D3F8202D42F07042C3F8202DFFF7A0FF76
:1041B0000024084B1C60FFF7EFFE01F097F8FFF7B3
:1041C000CBFE204602B010BD00E400E0180B00203A
:1041D0001C0B0020E0000020EFF305830F2B0FD90C
:1041E000114A9B5CDBB2114A12789A4208D94FF00F
:1041F000500383F31188BFF36F8FBFF34F8FFEE738
:104200004FF0E023D3F80C3D03F4E063084A126852
:10421000934208D94FF0500383F31188BFF36F8F97
:10422000BFF34F8FFEE77047F0E300E0180B00206C
:104230001C0B0020124A12F0070F1ED0D11D21F0D6
:104240000701C1F5305313440A460E4802600021AD
:1042500041601344083B23F007030B480360596097
:104260001960991A51601360084B1960084B196066
:10427000084B4FF000421A6070474FF43053E4E7A8
:10428000240B002030370020200B00202C3700208A
:104290002837002024370020154B1A461B6883421C
:1042A000FBD3516802EB010C844509D0416800EB57
:1042B000010C634509D00360904218D0106070472C
:1042C0004068014451601046F0E710B4094C24687E
:1042D000A3420AD05B681944416013681B680360FD
:1042E000904200D0106010BC70470460F8E770473F
:1042F00030370020200B002070B5054600F0C0FECE
:10430000344B1B68A3B1344B1B681D424AD135B1F5
:10431000083515F0070F02D025F007050835002DE8
:1043200042D02E4B1B68AB424DD32D4A146804E09B
:10433000FFF780FFE7E722461C466368AB4202D2E4
:104340002368002BF7D1234B1B68A3423DD016688E
:1043500008362368136063685B1B102B10D9601943
:1043600010F0070F08D04FF0500383F31188BFF30C
:104370006F8FBFF34F8FFEE743606560FFF78CFFE1
:10438000626816490B689B1A0B60164909688B42D4
:1043900001D214490B60104B1B6813436360002368
:1043A000236002E0002600E0002600F0FDFE16F08B
:1043B000070F0CD04FF0500383F31188BFF36F8FBA
:1043C000BFF34F8FFEE70026EFE70026EDE730460C
:1043D00070BD00BF200B00202437002028370020AC
:1043E000303700202C37002080B338B50446A0F1C8
:1043F000080550F8043C164A1268134208D14FF0E1
:10440000500383F31188BFF36F8FBFF34F8FFEE725
:1044100050F8081C41B14FF0500383F31188BFF3EB
:104420006F8FBFF34F8FFEE723EA020340F8043C8F
:1044300000F026FE54F8041C064A13680B4413606F
:104440002846FFF729FF00F0AFFE38BD704700BFD8
:1044500024370020283700200346406A18B11B6B20
:104460001868C0F10700704710B50446FFF7CAFD91
:10447000A26BE36B9A4204D00024FFF7E5FD2046CF
:1044800010BD0124F9E710B50446FFF7BBFDA36B8F
:1044900023B90124FFF7D8FD204610BD0024F9E719
:1044A00070B504461546866B026C5AB903681BB199
:1044B00000200136A66370BD406801F0F3F80023C8
:1044C0006360F6E76DB98068FBF742FE226CA36873
:1044D0001344A3606268934219D32368A3602846FB
:1044E000E7E7C068FBF734FE226C5142E3689B1A91
:1044F000E3602268934202D263680B44E360022DBA
:1045000001D00020D5E726B1013E0020D1E72846A2
:10451000CFE70020CDE708B50346026C62B108463C
:10452000D9681144D960D3F804C0614501D3196832
:10453000D960D968FBF70CFE08BD38B50546FFF712
:1045400061FD95F8454064B201E0013C64B2002C85
:104550000ADD6B6A43B105F1240000F057FF002823
:10456000F3D001F02BF8F0E7FF2385F84530FFF793
:104570006BFDFFF747FD95F8444064B201E0013C54
:1045800064B2002C0ADD2B6943B105F1100000F084
:104590003DFF0028F3D001F011F8F0E7FF2385F884
:1045A0004430FFF751FD38BD38B5E0B10D46044643
:1045B000FFF728FD2368E26B216C01FB023060608D
:1045C0000020A063A360013A02FB0133E360FF23F4
:1045D00084F8443084F84530FDB9236963B9FFF7A6
:1045E00033FD012038BD4FF0500383F31188BFF332
:1045F0006F8FBFF34F8FFEE704F1100000F006FF4E
:104600000028ECD04FF0E0234FF08052C3F8042D87
:10461000BFF34F8FBFF36F8FE1E704F11000FFF797
:1046200055FC04F12400FFF751FCD8E710B5034610
:1046300002980C4631B90060C36304640121FFF79E
:10464000B3FF10BD0260F7E740B94FF0500383F3AA
:104650001188BFF36F8FBFF34F8FFEE7F0B583B0C4
:104660000C4615460746A1B101FB00F04830FFF7A4
:1046700043FE064650B1002380F8463000902B469A
:1046800000F1480221463846FFF7D0FF304603B01C
:10469000F0BD0846EAE7F0B585B0019288B10F4653
:1046A0001D460446B1B1022D20D1E36B012B1DD074
:1046B0004FF0500383F31188BFF36F8FBFF34F8F19
:1046C000FEE74FF0500383F31188BFF36F8FBFF302
:1046D0004F8FFEE7036C002BE5D04FF0500383F3C0
:1046E0001188BFF36F8FBFF34F8FFEE700F06CFFB1
:1046F000064658B9019B002B48D04FF0500383F376
:104700001188BFF36F8FBFF34F8FFEE700263DE0A8
:104710002A4639462046FFF7C3FE636A7BB948B193
:104720004FF0E0234FF08052C3F8042DBFF34F8FBA
:10473000BFF36F8FFFF788FC012005B0F0BD04F1D7
:10474000240000F063FE0028F4D04FF0E0234FF087
:104750008052C3F8042DBFF34F8FBFF36F8FE9E78B
:10476000FFF772FC0020E8E702A800F0D9FE01265E
:1047700019E0002384F8443021E0002384F8453018
:1047800023E02046FFF7D9FE00F00EFDFFF73AFCCC
:10479000A26BE36B9A42BBD3022DB9D0019B002BD5
:1047A000DED0002EE0D0FFF74FFC00F069FCFFF7F1
:1047B00029FC94F8442052B2B2F1FF3FD9D094F8CA
:1047C000452052B2B2F1FF3FD7D0FFF73DFC01A91F
:1047D00002A800F0B1FED8B92046FFF745FE002838
:1047E000CFD0019904F1100000F0CCFD2046FFF776
:1047F000A4FE00F0D9FC0028C8D14FF0E0234FF010
:104800008052C3F8042DBFF34F8FBFF36F8FBDE706
:104810002046FFF792FE00F0C7FC00208DE748B16C
:1048200008B5002141600160C1600B460A46FFF7F0
:1048300032FF08BD704710B5024600210120FFF786
:1048400003FF0446FFF7EBFF204610BD2DE9F843B8
:1048500090B10F4616461C460546B1B1022C20D138
:10486000EB6B012B1DD04FF0500383F31188BFF386
:104870006F8FBFF34F8FFEE74FF0500383F3118824
:10488000BFF36F8FBFF34F8FFEE7036C002BE5D0B4
:104890004FF0500383F31188BFF36F8FBFF34F8F37
:1048A000FEE7FFF799FCEFF311894FF0500383F314
:1048B0001188BFF36F8FBFF34F8FAA6BEB6B9A42D8
:1048C00006D3022C04D0002089F31188BDE8F883B8
:1048D00095F845804FFA88F8224639462846FFF772
:1048E000DFFDB8F1FF3F06D008F101035BB285F8A8
:1048F00045300120E8E76B6A0BB90120E4E705F1D8
:10490000240000F083FD18B126B101203060DBE700
:104910000120D9E70120D7E7F0B585B0019290B129
:104920000F460446C1B100F04FFE064600BB019B96
:10493000002B5ED04FF0500383F31188BFF36F8FCD
:10494000BFF34F8FFEE74FF0500383F31188BFF39F
:104950006F8FBFF34F8FFEE7036C002BE3D04FF058
:10496000500383F31188BFF36F8FBFF34F8FFEE7C0
:1049700000263EE039462046FFF7CDFD013DA56308
:10498000236923B9FFF760FB012005B0F0BD04F1F6
:10499000100000F03BFD0028F4D04FF0E0234FF072
:1049A0008052C3F8042DBFF34F8FBFF36F8FE9E739
:1049B000FFF74AFB0020E8E702A800F0B1FD01265E
:1049C00021E0002384F8443029E0002384F84530B6
:1049D0002BE02046FFF7B1FD00F0E6FB09E02046A2
:1049E000FFF7ABFD00F0E0FB2046FFF74CFD002891
:1049F0003FD1FFF707FBA56B002DBBD1019B002B1F
:104A0000D6D0002ED8D0FFF71FFB00F039FBFFF700
:104A1000F9FA94F844305BB2B3F1FF3FD1D094F887
:104A200045305BB2B3F1FF3FCFD0FFF70DFB01A9DB
:104A300002A800F081FD0028D1D12046FFF723FD18
:104A40000028C6D0019904F1240000F09BFC204608
:104A5000FFF773FD00F0A8FB0028CAD14FF0E02358
:104A60004FF08052C3F8042DBFF34F8FBFF36F8F09
:104A7000BFE7002089E770B584B0019158B10446C2
:104A8000036C8BB14FF0500383F31188BFF36F8F2A
:104A9000BFF34F8FFEE74FF0500383F31188BFF34E
:104AA0006F8FBFF34F8FFEE700F08EFD054650B9C4
:104AB000019B5BB14FF0500383F31188BFF36F8FFD
:104AC000BFF34F8FFEE70026354655E0064653E01C
:104AD000013BA36323683BB123694BB9FFF7B4FAE9
:104AE0000126304604B070BD00F0A2FE6060F3E71E
:104AF00004F1100000F08AFC0028EFD04FF0E02312
:104B00004FF08052C3F8042DBFF34F8FBFF36F8F68
:104B1000E4E746B14FF0500383F31188BFF36F8F82
:104B2000BFF34F8FFEE7FFF78FFADAE702A800F036
:104B3000F7FC01252AE0002384F8443032E000230A
:104B400084F8453034E0FFF75DFA606800F04CFD12
:104B50000646FFF779FA3BE02046FFF7EEFC00F04F
:104B600023FB09E02046FFF7E8FC00F01DFB204690
:104B7000FFF789FC002842D1FFF744FAA36B002B12
:104B8000A6D1019B002BC4D0002DCFD0FFF75CFA3B
:104B900000F076FAFFF736FA94F844305BB2B3F1DE
:104BA000FF3FC8D094F845305BB2B3F1FF3FC6D0A9
:104BB000FFF74AFA01A902A800F0BEFC0028D1D1F3
:104BC0002046FFF760FC0028C6D02368002BBAD02F
:104BD000019904F1240000F0D5FB2046FFF7ADFC5D
:104BE00000F0E2FA0028C7D14FF0E0234FF08052E6
:104BF000C3F8042DBFF34F8FBFF36F8FBCE70EB91F
:104C000000266EE7FFF7FEF92046FFF725FC014678
:104C1000606800F0A1FDFFF717FAF1E7084B1B6889
:104C20001B6823B9074B4FF0FF321A607047044BE3
:104C30001B68DB68DB685A68024B1A60704700BF6C
:104C40003C370020143800202DE9F04707469846ED
:104C5000089DDDF824900A9C266B02F18042013AFF
:104C600006EB820626F007064FF0000CBCF10F0F92
:104C70000BD811F80C2004EB0C0383F8342011F846
:104C80000C3013B10CF1010CF0E7002384F8433031
:104C9000062D00D90625E56265644FF0000AC4F8C8
:104CA00048A0201DFFF71DF904F11800FFF719F9BE
:104CB0002461C5F10705A5616462C4F84CA084F8BD
:104CC00050A0424639463046FFF776F92060B9F1E8
:104CD000000F01D0C9F80040BDE8F08738B50024C6
:104CE00007E004EB840293000E481844FFF7EEF847
:104CF0000134062CF5D90C4D2846FFF7E7F80B4C8C
:104D00002046FFF7E3F80A48FFF7E0F80948FFF705
:104D1000DDF80948FFF7DAF8084B1D60084B1C6006
:104D200038BD00BF44370020E8370020FC370020A2
:104D30001C38002048380020343800203C37002040
:104D40004037002010B50446FFF75CF9214A13688C
:104D500001331360204B1B685BB1204B1B686BB9A0
:104D60001D4B1B68DA6AE36A9A4207D81A4B1C602B
:104D700004E0194B1C601368012B28D0184A1368F3
:104D800001331360E06A01238340164A11680B4324
:104D9000136000EB8000211D134B03EB8000FFF735
:104DA000A3F8FFF751F90D4B1B687BB10A4B1B6849
:104DB000DA6AE36A9A4209D24FF0E0234FF0805258
:104DC000C3F8042DBFF34F8FBFF36F8F10BDFFF7F4
:104DD00085FFD3E7D0370020383700203038002057
:104DE000E0370020E43700204437002010B50446A7
:104DF00090F8513063B1012B11D0022B0ED04FF03F
:104E0000500383F31188BFF36F8FBFF34F8FFEE71B
:104E1000006BFFF7E9FA2046FFF7E6FA10BDFFF74F
:104E2000E3FAFBE70F4B1B68D3B110B5FFF7EAF8C5
:104E30000D4BDB68DC68201DFFF77AF80B4A13681E
:104E4000013B1360074A1368013B1360FFF7FCF84E
:104E50002046FFF7CBFF034B1B68002BE6D110BDAC
:104E6000704700BFD437002048380020D0370020DA
:104E700008B5FFF7D7FF074B1B68012BF9D94FF097
:104E8000E0234FF08052C3F8042DBFF34F8FBFF3E0
:104E90006F8FEEE74437002070B504460D461D4B7A
:104EA0001E681D4B18680430FFF742F850B91A4BC2
:104EB0001B68DA6A012303FA02F218490B6823EA35
:104EC00002030B60B4F1FF3F0DD03444124B1B685A
:104ED0005C60A64210D9124B18680F4B1968043158
:104EE000FFF70DF870BD002DEFD00B4B19680431A2
:104EF0000C48FEF7F9FFF5E70B4B1868064B1968ED
:104F00000431FEF7FCFF094B1B68A342EAD9074BAB
:104F10001C60E7E75C38002038370020E4370020C9
:104F200040370020343800203C370020143800205F
:104F300030B587B00B9C7CB10C9DB5B15425049560
:104F4000049D542D1AD04FF0500383F31188BFF302
:104F50006F8FBFF34F8FFEE74FF0500383F311883D
:104F6000BFF36F8FBFF34F8FFEE74FF0500383F314
:104F70001188BFF36F8FBFF34F8FFEE70C9D2C633B
:104F8000022485F8514000240394029505AC019455
:104F90000A9C0094FFF758FE0C98FFF7D3FE059883
:104FA00007B030BD2DE9F04385B00746884614466A
:104FB0001E469000FFF7A0F900B381465420FFF78A
:104FC0009BF90546B0B1C0F83090E5B1002385F8F3
:104FD0005130039302950D9B01930C9B0093334634
:104FE000224641463846FFF72FFE2846FFF7AAFE25
:104FF000012005E04846FFF7F7F9E6E74FF0FF30FC
:1050000005B0BDE8F0834FF0FF30F9E710B588B088
:1050100000240594069407AA06A905A8FBF706FA3A
:10502000059B0293069B019300942346079A0E4921
:105030000E48FFF77DFF0E4B186090B14FF0500304
:1050400083F31188BFF36F8FBFF34F8F094B4FF07E
:10505000FF321A60084B01221A60084B1C60FFF7F0
:105060005BF808B010BD00BF645D0008714E000819
:105070001038002014380020303800205C38002020
:10508000024A136801331360704700BFDC37002009
:10509000F8B53A4B1B68002B64D1394B1D680135BC
:1050A0001D60C5B9374B1B681B6843B14FF05003F7
:1050B00083F31188BFF36F8FBFF34F8FFEE7314A41
:1050C0001168314B186810601960304A1368013359
:1050D0001360FFF7A3FD2E4B1B68AB4238D90027A6
:1050E0002C4B1B68DB6A03EB83039A002A4B9B580B
:1050F000012B3CD901273AE00127224B1B681B6892
:1051000043B3204B1B68DB68DC6863689D4226D391
:10511000261D3046FEF70CFFA36A1BB104F11800F0
:10512000FEF706FFE36A01229A401C490868024321
:105130000A6003EB83039A00314617481044FEF7D8
:10514000D3FEE26A134B1B68DB6A9A42D4D2D4E7DF
:105150000027D2E70E4B4FF0FF321A60C0E70C4A2F
:105160001360BDE70E4A13680133136000270D4B2F
:105170001B6803B101273846F8BD00BFDC370020AB
:105180005C3800203C3700204037002018380020D1
:10519000143800203837002044370020E43700203E
:1051A000D83700206038002038B5354B1B6843B92C
:1051B0004FF0500383F31188BFF36F8FBFF34F8F0E
:1051C000FEE7FEF71FFF2E4B1A68013A1A601B68B4
:1051D000002B4FD12B4B1B680BB900244BE0002454
:1051E000294B1B681BB3284BDB68DC6804F11800F3
:1051F000FEF79EFE251D2846FEF79AFEE06A012373
:105200008340224A11680B43136000EB800029465B
:105210001F4B03EB8000FEF767FEE26A1D4B1B6825
:10522000DB6A9A42DCD31C4B01221A60D8E70CB12E
:10523000FFF7F4FC194B1C6884B9174B1C68D4B1F8
:105240004FF0E0234FF08052C3F8042DBFF34F8F8F
:10525000BFF36F8F01240EE0013C07D0FFF718FF6A
:105260000028F9D00C4B01221A60F5E70B4B002205
:105270001A60E2E70024FEF7E7FE204638BD00BFD3
:10528000DC370020D03700201C380020E437002015
:10529000443700203837002060380020D8370020FD
:1052A00010B5A8B10446104B1B6843B14FF0500332
:1052B00083F31188BFF36F8FBFF34F8FFEE7FFF7C4
:1052C000DFFE00212046FFF7E7FDFFF76DFF48B93D
:1052D0004FF0E0234FF08052C3F8042DBFF34F8FFF
:1052E000BFF36F8F10BD00BFDC370020204B1B6861
:1052F0001BB1204B01221A6070471E4B00221A601E
:105300001D4B1B68B3FA83F3DBB2C3F11F0303EB3E
:1053100083018A0019498A5842B94FF0500383F338
:105320001188BFF36F8FBFF34F8FFEE7134903EB75
:10533000830082000A4450684068506003EB830C8D
:105340004FEA8C0208321144884209D003EB8303F0
:105350009A000A4B13445B68DA68094B1A6070477D
:10536000406862469100054A0A445060EEE700BF7B
:10537000DC37002060380020E4370020443700206C
:105380003837002058B110B50C46094A1168183159
:10539000FEF7B5FD01212046FFF77EFD10BD4FF061
:1053A000500383F31188BFF36F8FBFF34F8FFEE776
:1053B0003837002070B110B514460246114B1B68F7
:1053C0008BB94FF0500383F31188BFF36F8FBFF396
:1053D0004F8FFEE74FF0500383F31188BFF36F8FB9
:1053E000BFF34F8FFEE7084B186841F00041816121
:1053F000196818311046FEF777FD01212046FFF7A6
:105400004BFD10BDDC3700203837002038B5C368AD
:10541000DC6824B304F118052846FEF789FD184B13
:105420001B682BBB251D2846FEF782FDE06A012381
:105430008340144A11680B43136000EB8000294637
:10544000114B03EB8000FEF74FFDE26A0F4B1B6828
:10545000DB6A9A4211D901200D4B186038BD4FF01C
:10546000500383F31188BFF36F8FBFF34F8FFEE7B5
:1054700029460848FEF738FDE7E70020EEE700BFC1
:10548000DC370020E4370020443700203837002084
:10549000603800201C38002038B51C4B1B6843B90D
:1054A0004FF0500383F31188BFF36F8FBFF34F8F1B
:1054B000FEE741F000410160C468F4B1FEF738FD39
:1054C000251D2846FEF734FDE06A01238340104A7B
:1054D00011680B43136000EB800029460D4B03EB72
:1054E0008000FEF701FDE26A0B4B1B68DB6A9A4203
:1054F00002D90A4B01221A6038BD4FF0500383F3E2
:105500001188BFF36F8FBFF34F8FFEE7DC370020AA
:10551000E43700204437002038370020603800206E
:10552000034B1B680360034B1B684360704700BF5D
:10553000183800205C380020D8B170B50C460546FC
:1055400001B3FEF75FFD1B4B19686B68C81A226830
:10555000B2F1FF3F27D0184E3668D5F800C0B445E9
:1055600001D08B4224D9824215D800232360012424
:105570001AE04FF0500383F31188BFF36F8FBFF32E
:105580004F8FFEE74FF0500383F31188BFF36F8F07
:10559000BFF34F8FFEE75B1A134423602846FFF7E3
:1055A000BFFF002400E00024FEF74EFD204670BD42
:1055B0000124F9E75C38002018380020014B012253
:1055C0001A60704760380020054B1B6833B1054BEB
:1055D0001B680BB100207047022070470120704704
:1055E00030380020DC370020002851D038B5044680
:1055F000C36A294A1268D26A934241D28269002A58
:1056000005DB254A1268D26AC2F10702826161692C
:1056100003EB8303214A02EB8303994205D01E4B1F
:105620001B68DB6AE362012038BD251D2846FEF7B2
:105630007FFCA0B1184B1B68D86AE062012404FA11
:1056400000F3174A11680B43136000EB80002946F2
:10565000124B03EB8000FEF747FC2046E4E7E26ACA
:1056600002EB82039B000D49CB58002BE2D10123B2
:1056700003FA02F20A490B6823EA02030B60D9E736
:10568000426C054B1B68DB6A9A4203D30020CBE7D0
:10569000002070470120C7E738370020443700203A
:1056A000E437002000284CD038B50446274B1B684F
:1056B000834208D04FF0500383F31188BFF36F8FFC
:1056C000BFF34F8FFEE7836C43B94FF0500383F372
:1056D0001188BFF36F8FBFF34F8FFEE7013B8364E9
:1056E000C16A426C91422ED00BB1002038BD051D1D
:1056F0002846FEF71DFC70B9E26A02EB82039B00AC
:105700001349CB583BB9012303FA02F211490B6844
:1057100023EA02030B60606CE062C0F10703A3613F
:10572000012404FA00F30B4A11680B43136000EBE9
:1057300080002946064B03EB8000FEF7D5FB204690
:10574000D4E7002070470020D0E700BF38370020A2
:1057500044370020E4370020002856D038B50446EE
:10576000836C43B94FF0500383F31188BFF36F8FFD
:10577000BFF34F8FFEE7426C8A4200D20A46E16ACD
:10578000914201D0012B00D038BD204B1B68A342B1
:1057900032D0E262A369002B02DBC2F10702A261F0
:1057A000626901EB81011A4B03EB81018A42EBD163
:1057B000251D2846FEF7BCFB70B9E26A02EB8203A6
:1057C0009B001349CB583BB9012303FA02F211495C
:1057D0000B6823EA02030B60E06A012383400D4A51
:1057E00011680B43136000EB80002946084B03EB64
:1057F0008000FEF779FBC7E74FF0500383F3118871
:10580000BFF36F8FBFF34F8FFEE77047383700202D
:1058100044370020E4370020044A1368986913686D
:10582000DB6A1268C3F107039361704738370020C1
:10583000054B1B6823B1044B1A68936C01339364C6
:10584000014B1868704700BF3837002070B50D4E07
:105850000D4D761BB61006D0002455F8043B0134DC
:105860009847A642F9D1094E094D00F003F9761B7D
:10587000B61006D0002455F8043B01349847A642E0
:10588000F9D170BD705D0008705D0008785D00089A
:10589000705D0008830730B548D0541E002A3FD001
:1058A0000346CAB201E0013C3AD303F8012B9D073D
:1058B000F9D1032C2DD9CDB245EA05250F2C45EAA7
:1058C000054536D9A4F1100222F00F0C03F1200E89
:1058D000E6444FEA121C03F1100242E9045542E982
:1058E000025510327245F8D10CF1010214F00C0F80
:1058F00003EB021204F00F0C13D0ACF1040323F0FD
:1059000003030433134442F8045B9342FBD10CF0CD
:1059100003042CB1CAB21C4403F8012B9C42FBD1F6
:1059200030BD64461346002CF4D1F9E70346144613
:10593000BFE71A46A446E0E720F0030110F0030099
:10594000C0F1000051F8043B00F1040C4FEACC0C0C
:105950006FF000021CBF22FA0CF213434FF0010C4F
:105960004CEA0C2C4CEA0C4CA3EB0C0222EA03028E
:1059700012EACC1204BF51F8043B0430F4D0C2F157
:10598000000102EA0102B2FA82F2C2F11F0200EB48
:10599000D2007047024B13B1024800F005B87047BF
:1059A00000000000B5590008002301461A461846B9
:1059B00000F01AB838B5084B084D5B1B9C1007D097
:1059C000043B1D44013C55F804399847002CF9D19B
:1059D000BDE8384000F054B87C5D0008785D0008F0
:1059E000704700BF704700BF2DE9F047DFF87CA08B
:1059F0000646DAF8000098460F469146FFF7F0FF9A
:105A00001B4B1B68D3F8484124B365681F2D26DC67
:105A10005EB96B1C0235DAF80000636044F825704B
:105A2000FFF7E0FF0020BDE8F087012304EB8501CC
:105A3000C1F88890D4F88821AB401A43022EC4F8EC
:105A40008821C1F80881E4D1D4F88C211343C4F82B
:105A50008C31DEE703F5A674C3F84841D5E7DAF8E0
:105A60000000FFF7BFFF4FF0FF30DCE7100500201C
:105A70006C5D0008F8B500BFF8BC08BC9E467047D6
:0C5A8000F8B500BFF8BC08BC9E4670479B
:105A8C00885B00083D0200080000000000000000D8
:105A9C00800000000000000000000000945B000883
:105AAC005D02000803000000000000008000000000
:105ABC000000000000000000A45B0008BD09000805
:105ACC00FFFF00000000000080000000000000004C
