:020000040800F2
:1000000000500020C5240008C90E0008CB0E0008CF
:10001000CD0E0008CF0E0008D10E00080000000031
:10002000000000000000000000000000113D00087A
:10003000D30E000800000000B13D0008F53D0008A7
:100040000D2500080D2500080D2500080D250008C8
:100050000D2500080D2500080D2500080D250008B8
:100060000D2500080D2500080D2500080D250008A8
:100070000D2500080D2500080D2500080D25000898
:100080000D2500080D2500080D2500080D25000888
:100090000D2500080D2500080D2500080D25000878
:1000A0000D2500080D2500080D2500080D25000868
:1000B000D50E00080D2500080D2500080D250008A7
:1000C0000D2500080D2500080D2500080D25000848
:1000D0000D250008E50E0008F50E0008050F0008C4
:1000E0000D2500080D2500080D2500080000000062
:1000F0000000000000000000000000000000000000
:0C01000000000000000000005FF808F1A3
:1001100010B5054C237833B9044B13B10448AFF341
:1001200000800123237010BD440400200000000063
:100130004857000808B5034B1BB103490348AFF308
:10014000008008BD00000000480400204857000857
:10015000844641EA000313F0030349D1403A23D314
:100160000B6803604B6843608B688360CB68C36037
:100170000B6903614B6943618B698361CB69C3611F
:100180000B6A03624B6A43628B6A8362CB6AC36207
:100190000B6B03634B6B43638B6B8363CB6BC363EF
:1001A00040304031403ADBD230320BD30B68036031
:1001B0004B6843608B688360CB68C360103010313C
:1001C000103AF3D20C3205D351F8043B40F8043B0B
:1001D000043AF9D2043208D0D2071CBF11F8013B0F
:1001E00000F8013B01D30B8803806046704700BFD5
:1001F000082A13D38B07B1D010F00303AED0C3F19C
:100200000403D21ADB071CBF11F8013B00F8013BC5
:10021000A4D331F8023B20F8023B9FE7043AD9D33C
:10022000013A11F8013B00F8013BF9D20B78037059
:100230004B7843708B7883706046704708B5012017
:1002400003F0CCFBFBE708B5012003F0C7FBFBE79D
:1002500000B5A7B098E09DF85430012B0FD0002BCB
:1002600040F092809DF853305A0903F01F0301219A
:100270009940624B53F8220003F057FC84E09DF84C
:1002800053305A0903F01F03012199405B4B53F887
:10029000220003F06DFC77E09DF85330ADF8043098
:1002A0009DF85430003B18BF01238DF80630002321
:1002B0001A4601A95248006804F085F8012863D065
:1002C000EE238DF851304FF0FF33BDF894200DF13F
:1002D00051014C4803F0E6F856E04B4B01939DF872
:1002E00053308DF80830259A043A139215A90DF170
:1002F0000900FFF72DFF00231A4601A943480068B3
:1003000004F061F801283FD0EE238DF851304FF012
:10031000FF33BDF894200DF151013A4803F0C2F8C3
:1003200032E03B4B01939DF853308DF80830259A0D
:10033000043A139215A90DF10900FFF709FF0023F4
:100340001A4601A93148006804F03DF801281BD085
:10035000EE238DF851304FF0FF33BDF894200DF1AE
:100360005101284803F09EF80EE09DF853308DF8B7
:1003700004309DF854308DF8053000231A4601A949
:100380002448006804F01FF84FF0FF3214A9224BF4
:10039000186804F059F90128F6D19DF85230013B54
:1003A0000F2BF1D801A252F823F000BF570200082A
:1003B00099020008DB020008230300086B03000811
:1003C00089030008890300088903000889030008DD
:1003D00089030008890300088903000889030008CD
:1003E0008903000889030008ED03000800231A466A
:1003F00019460A48006803F0E6FFC5E770040020CC
:1004000084040020240800206C0800207C040020C4
:10041000B4080020680400208C0400209C04002004
:10042000034B0360034B0B6080231360704700BFD6
:10043000A0060020A004002010B5B2B0002405E002
:1004400003F0E1FA5B4B43F824000134012CF7DDA3
:1004500003F0D9FA584B186000F0B2FE03220021D5
:10046000012003F089FF554B1860002248210F201E
:1004700003F082FF524B1860002248210F2003F046
:100480007BFF504B1860002204214FF4807003F072
:1004900073FF4D4B186000224C210F2003F06CFFBE
:1004A0004A4B1860002202210F2003F065FF484BE1
:1004B0001860484C0DF1AC0CA646BEE80F00ACE845
:1004C0000F009EE807008CE8070000212BA803F02E
:1004D00050FA414B18600DF1900C04F11C0EBEE86F
:1004E0000F00ACE80F009EE807008CE80700002131
:1004F00024A803F03EFA394B18600DF1740C04F196
:10050000380EBEE80F00ACE80F009EE807008CE84C
:10051000070000211DA803F02CFA314B18600DF1E3
:10052000580C04F1540EBEE80F00ACE80F009EE832
:1005300007008CE80700002116A803F01AFA294BDF
:1005400018600DF13C0C04F1700EBEE80F00ACE831
:100550000F009EE807008CE8070000210FA803F0B9
:1005600008FA214B18600DF1200C04F18C0EBEE846
:100570000F00ACE80F009EE807008CE807000021A0
:1005800008A803F0F6F9194B18600DF1040E04F1F8
:10059000A80CBCE80F00AEE80F009CE807008EE84E
:1005A0000700002101A803F0E4F9114B186032B0F4
:1005B00010BD00BF70040020780400209C040020BF
:1005C0008C04002080040020840400207C0400208F
:1005D0006804002060570008900400208804002070
:1005E000600400209404002098040020640400208B
:1005F0006C0400202DE9F04188B000240494059497
:10060000069407942D4B9A6942F020029A619A69E8
:1006100002F020020192019A9A6942F004029A6162
:100620009A6902F004020292029A9A6942F0080260
:100630009A619B6903F008030393039BDFF88080B2
:10064000224648F2B001404602F067F91D4D2246AD
:1006500043F2F831284602F060F902270497059426
:100660000126069604A9404602F03EF848F2B0037F
:10067000049305960694079704A9404602F034F8BF
:10068000042304930594069604A9284602F02CF846
:1006900043F2F833049305960694079704A9284675
:1006A00002F022F84FF4804304930594069404A9C1
:1006B000284602F019F808B0BDE8F08100100240A9
:1006C00000080140000C014038B5044602784FF4A0
:1006D0000041154802F021F9144D6278082128469E
:1006E00002F01BF9A2781021284602F016F9E278F0
:1006F0002021284602F011F922794021284602F0F3
:100700000CF962798021284602F007F9A2794FF4AA
:100710008071284602F001F9E2794FF40071284611
:1007200002F0FBF838BD00BF00080140000C01409A
:1007300070B506464C1E13E001228021154802F0D8
:10074000ECF8144D00222021284602F0E6F80120A2
:1007500003F044F901222021284602F0DEF8013C92
:10076000072C08DD335D002BE6D1002280210948EB
:1007700002F0D3F8E5E7074C00221021204602F0F2
:10078000CCF8012003F02AF901221021204602F0C2
:10079000C4F870BD0008014010B50446FFF794FF8F
:1007A00040212046FFF7C4FF10BD000000B583B014
:1007B000ADF804008DF8061000231A4601A903487D
:1007C000006803F000FE03B05DF804FB8404002021
:1007D000F8B504460D46294E00224FF480513046AC
:1007E00002F09BF8012003F0F9F801224FF4805148
:1007F000304602F092F8012003F0F0F84FF4804107
:10080000304602F083F8B0FA80F0400920700126EB
:1008100019E01A4F00224FF40051384602F07DF8DB
:10082000012003F0DBF801224FF40051384602F0BA
:1008300074F84FF48041384602F068F8B0FA80F05E
:100840004009A0550136AE42E3DB4FF0000C0FE04B
:100850000CEB030014F800E0C3F107026244A15C52
:10086000215404F802E00133032BF1DD0CF1080CF4
:10087000AC4501DA0023F7E7F8BD00BF000C0140EA
:10088000014B185C704700BFF4060020044B1A5C53
:10089000044B1B5C9A4201D0012070470020704736
:1008A000F40600205807002010B582B02021FFF781
:1008B0008FFF002418E02A4A82FB0432E317C3EBBF
:1008C000A20303EB4302A4EBC20201219140254A9B
:1008D00052F8230003F04CF9234B1B6813BB234B46
:1008E0001A5D234B1A5501341F2C33DC2046FFF7C9
:1008F000CDFF0028F7D02046FFF7C2FF0128DAD04D
:10090000174A82FB0432E317C3EBA20303EB430253
:10091000A4EBC20201219140124A52F8230003F0D5
:1009200004F9D9E7CC238DF8003001238DF801308C
:100930008DF802402046FFF7A3FF8DF80300FF2348
:100940008DF804304FF0FF3305226946094802F064
:10095000A9FDC4E7044B01221A6002B010BD00BF1C
:10096000ABAAAA2A7004002014070020F406002075
:10097000580700202408002010B584B066E0BDF8B8
:100980000C203B4B995C9DF80E30994266D038495B
:100990008B54CC218DF8041002218DF805108DF8B0
:1009A0000620012B14BF002301238DF80730FF23FD
:1009B0008DF808304FF0FF33052201A92D4802F0D1
:1009C00071FD4BE001341F2C18DC2B4B1B5D012B00
:1009D000F8D1CC238DF8043001238DF805308DF843
:1009E00006408DF80730FF238DF808304FF0FF33B5
:1009F000052201A91F4802F055FDE3E7002400E0AD
:100A000001343F2C19DC1A4B1B5D012BF8D1CC2390
:100A10008DF8043002238DF805308DF8064001234F
:100A20008DF80730FF238DF808304FF0FF33052293
:100A300001A9104802F036FDE2E7012002F0CEFFE6
:100A40000B48FFF7A9FE0C48FFF72EFF002203A971
:100A50000A4B186803F0F8FD012890D00021084BDC
:100A6000186803F0A0FE0128E7D10024ABE700BF1F
:100A70001807002024080020F40600208404002029
:100A80009C04002008B50368B3F1804F00D008BD76
:100A900001F050FDFBE772B6FEE700B591B02822E9
:100AA000002106A804F08EFD002301930293039316
:100AB00004930593012206924FF4803307930A9220
:100AC00002220D920E934FF4E0130F9306A801F04B
:100AD00041FF80B90F230193022102910023039368
:100AE0004FF480620492059301A802F065F920B9E1
:100AF00011B05DF804FBFFF7CEFFFFF7CCFF00005D
:100B000008B501F005FDFFF7C8FFFFF773FD00F022
:100B100003FA00F01BFA00F033FA012209490A48EF
:100B200002F009FF01220949094802F004FF0122ED
:100B30000849094802F0FFFEFFF77EFC02F014FFAF
:100B4000FEE700BF78070020240800209C07002053
:100B50006C080020BC070020B40800202DE9F041FB
:100B600000AF8046084611461E46DC1C0B3323F0BE
:100B70000703ADEB030D6D468DF80000C0438DF803
:100B800001008DF8026032460DF10300FFF7E0FA34
:100B900000210DF8041006E015F801C02B5D9C44FF
:100BA00005F804C00131A142F6D3321D4FF0FF33E6
:100BB00092B22946404602F075FCC82002F00EFFB2
:100BC000BD46BDE8F0810000402A00D970472DE9FC
:100BD000F04F95B005460F4614461E464C220021A4
:100BE00001A804F0EFFC01954FF00B0B8DF808B055
:100BF0004FF00209CDF84C904FF004088DF80880B2
:100C00000A238DF809304FF0010ACDF84CA0174D9A
:100C100000231A460DEB0801286803F0D4FB8DF879
:100C200008B08DF809A08DF80A60CDF84C9000232B
:100C30001A460DEB0801286803F0C5FB8DF8088003
:100C400007238DF80930224639460DF10A00FFF7D7
:100C50007FFA5444139400231A460DEB08012868C8
:100C600003F0B1FB15B0BDE8F08F00BF7C0400209D
:100C700010B594B004464C22002101A804F0A2FC57
:100C8000019404238DF808300123139302238DF877
:100C9000093000231A4601A90248006803F093FBBB
:100CA00014B010BD7C04002070B5B6B002214348DA
:100CB00001F02CFE05460421414801F027FE0446C0
:100CC00057E0359B0DF191029DF890102398FFF7A6
:100CD00045FF56E0CC238DF800309DF844308DF868
:100CE0000130229E32460DF145010DF10200FFF761
:100CF0002FFA06F1DA036B44FF2203F8D82CF21C1A
:100D00004FF0FF3392B269462E4802F0CBFB40E031
:100D100002212A4801F0FAFD00283CD101212A4B8A
:100D2000186802F002FF36E00221244801F0EEFDCF
:100D3000012832D10121244B186802F019FF2CE060
:100D400004211F4801F0E2FD48BB4FF480711E4BA7
:100D5000186802F0EAFE22E00221184801F0D6FDF0
:100D600005460421164801F0D1FD0446012002F099
:100D700035FE002223A9154B186803F065FC0128F5
:100D80009FD0002211A9124B186803F05DFC0128C6
:100D9000A0D0012DBCD0002DC6D0012CD0D0002C6D
:100DA000DAD10421064801F0B1FD0128D4D14FF475
:100DB0008071054B186802F0DBFECDE700080140AA
:100DC000000C014024080020780400207C0400204E
:100DD0008004002000B583B0114B9A6942F00102F3
:100DE0009A619A6902F001020092009ADA6942F06F
:100DF0008052DA61DB6903F080530193019B00228A
:100E00000F216FF0010001F0B9FB064A536823F08F
:100E1000E06343F00073536003B05DF804FB00BF70
:100E2000001002400000014030B589B00446224B5A
:100E3000DA6942F00102DA61DB6903F00103019330
:100E4000019B02A903A802F093F8069BD3B902F014
:100E50006FF803461948A0FB03239B0C013B18487D
:100E60004FF08042026040F2E732C26043600023EC
:100E700003618360836102F0CBF9054630B12846F7
:100E800009B030BD02F054F84300E3E70C4802F02B
:100E90008FF805460028F2D11C2001F0A7FB0F2C8B
:100EA00001D90125EBE7002221461C2001F066FB59
:100EB000044B1C60E3E700BF0010024083DE1B43CD
:100EC000DC07002010000020FEE7FEE7FEE7FEE75B
:100ED000FEE7704708B5024802F0A2F808BD00BF5F
:100EE000DC07002008B5024802F0C6FB08BD00BFC1
:100EF0002408002008B5024802F0BEFB08BD00BF70
:100F00006C08002008B5024802F0B6FB08BD00BF1F
:100F1000B40800207047000008B50A480A4B036077
:100F20004FF4E133436000238360C36003610C220C
:100F300042618361C36102F085FA00B908BDFFF721
:100F4000AAFDFBE7240800200038014008B50A4844
:100F50000A4B03604FF41653436000238360C36061
:100F600003610C2242618361C36102F06BFA00B934
:100F700008BDFFF790FDFBE76C080020004400402F
:100F800008B50A480A4B03604FF416534360002328
:100F90008360C36003610C2242618361C36102F01C
:100FA00051FA00B908BDFFF776FDFBE7B408002051
:100FB0000048004030B58BB0002306930793089398
:100FC000099303684F4A934207D04F4A934236D061
:100FD0004E4A934263D00BB030BD4D4B9A6942F4F8
:100FE00080429A619A6902F480420092009A9A695A
:100FF00042F004029A619B6903F004030193019B90
:101000004FF4007306930223079303230993414D82
:1010100006A9284601F068FB4FF48063069300247C
:101020000794089406A9284601F05EFB2246052194
:10103000252001F0A3FA252001F0D8FACBE7344BA4
:10104000DA6942F40032DA61DA6902F400320292BB
:10105000029A9A6942F004029A619B6903F00403C0
:101060000393039B0423069302230793032309930B
:10107000284D06A9284601F037FB082306930024D3
:101080000794089406A9284601F02EFB2246052164
:10109000262001F073FA262001F0A8FA9BE71C4BEA
:1010A000DA6942F48022DA61DA6902F48022049279
:1010B000049A9A6942F008029A619B6903F0080356
:1010C0000593059B4FF48063069302230793032344
:1010D0000993114D06A9284601F006FB4FF4006361
:1010E000069300240794089406A9284601F0FCFA08
:1010F00022460521272001F041FA272001F076FA47
:1011000069E700BF0038014000440040004800404B
:101110000010024000080140000C01400268224B10
:101120009A4200D0704710B594B0204B1B78204AEB
:10113000D35CCC2B19D01F4B1B6863B10368586874
:101140001A4B19784A1CD2B21A70194B5854511EB6
:101150005B5CFF2B10D0154B1B78012214491944FE
:10116000154802F0E8FB14B010BD124B01221A60C2
:101170000E4B00221A70DEE70024019402238DF842
:10118000083013920A490DF10900FEF7E1FF2346EA
:1011900001AA02A90948006803F0F0F9054B1C6098
:1011A000024B1C70D7E700BF0038014098070020B1
:1011B00078070020FC080020240800208C04002070
:1011C00010B50024002C00DD10BD012003F0CBF988
:1011D000024B43F824000134F4E700BF5409002017
:1011E00000B583B04FF0FF3201A90F4B186803F030
:1011F0002BFA0128F6D19DF804300C4C4FF0FF314A
:1012000054F8230003F0CFFA9DF804009DF8052060
:10121000074B43F8202000231A46194654F82000B3
:1012200003F0D1F8DEE700BF680400205409002075
:101230000400002003688B4201DC0020704700237B
:10124000036001207047000030B587B0002305938C
:1012500073E00023009301231A462021BD48006853
:1012600002F0DFFB10F0200F47D0BB4A13680133B8
:10127000136001213720FFF799FA002305933CE022
:101280004FF47A5105A8FFF7D5FF002835D0B24AB0
:1012900013680133136000213720FFF787FA2CE031
:1012A0000023009301231A461946AA48006802F059
:1012B000B8FB10F0010F20D0A74A13680133136068
:1012C0001BE001230722A549A548FFF77DFC042365
:1012D0000722A449A448FFF777FC43F6982002F0C0
:1012E0007DFB01212E20FFF761FA01213220FFF75B
:1012F0005DFA994A136801331360974B1B68053BED
:101300001C2B40F2E787944B1B681A3B072B41F2DA
:101310007980059B0133059300231A4619469348AB
:10132000006803F050F8012002F058FB8A4B1B685C
:101330008F4A1268934241F0A1804FF0FF318B4BEE
:10134000186803F030FA844B1B68362BD5D801A2FD
:1013500052F823F05312000881120008A11200086D
:10136000C31200083114000855140008771400084F
:101370009D140008C3140008F5140008FD140008AB
:101380001315000839150008811500089B15000881
:10139000AD150008D3150008F9150008131600084C
:1013A000391600085D160008731600089716000825
:1013B000B9160008DF160008FD16000823170008FC
:1013C000591700087D170008A3170008BD1700086B
:1013D000D3170008F9170008131800083918000877
:1013E0007D18000897180008B9180008D3180008DD
:1013F000E91800080F190008891A0008F11D0008F3
:101400000D1E0008351E00085B1E0008771E000830
:10141000931E0008CF1E0008EB1E0008131F0008D3
:101420002F1F0008FB120008891F00083F21000839
:101430000023009301231A4620214648006802F049
:10144000F0FA10F0200F3FF458AF434A136801330D
:10145000136052E701210846FFF7A8F94FF47A70AC
:1014600002F0BCFA00210120FFF7A0F93A4A136804
:101470000133136041E70023009301231A464FF420
:1014800080613448006802F0CCFA10F4806F3FF4B9
:1014900034AF314A1368013313602EE70023009301
:1014A00001231A464FF400512A48006802F0B9FAA5
:1014B00010F4005F3FF421AF274A13680133136033
:1014C0001BE7012307222B492548FFF77DFB00215D
:1014D0000820FFF76BF901213120FFF767F901219F
:1014E0003320FFF763F91C4A1368013313600023AC
:1014F000059302E70133184A1360FEE6042307222E
:101500001D491948FFF760FB134A13680133136044
:10151000F3E60023009301231A464FF400210D48FF
:10152000006802F07EFA10F4002F3FF4E6AE0A4A9B
:10153000136801331360E0E6042307220F490A48C9
:10154000FFF742FB044A136801331360002305933D
:10155000D3E600BF70040020040000209858000863
:101560006C080020A0580008B4080020540900208E
:1015700008000020A8580008B0580008B858000813
:1015800049F6404105A8FFF755FE00283FF4B5AEE7
:10159000B04A136801331360AFE601210C20FFF756
:1015A00005F9AC4A136801331360A6E600230093E3
:1015B00001231A464FF48041A748006802F031FA2F
:1015C00010F4804F3FF499AEA24A136801331360C0
:1015D00093E601210720FFF7E9F84FF47A7002F053
:1015E000FDF900210720FFF7E1F89A4A136801335B
:1015F00013600023059380E647F2305105A8FFF7FA
:1016000019FE00283FF479AE924A13680133136043
:1016100073E60423062291499148FFF7D5FA002189
:101620000920FFF7C3F801210B20FFF7BFF8894A13
:1016300013680133136060E60022009201234FF427
:1016400000418548006802F0ECF910F4004F7FF487
:1016500054AE804A1368013313604EE60423072218
:1016600080497F48FFF7B0FA7A4A13680133136064
:1016700043E60023009301231A4640217648006880
:1016800002F0CFF910F0400F3FF437AE714A136803
:101690000133136031E601210620FFF787F84FF48C
:1016A000FA7002F09BF900210620FFF77FF8694AE3
:1016B00013680133136020E60023009301231A46C8
:1016C0004FF480316448006802F0ABF910F4803FB9
:1016D0003FF413AE5F4A1368013313600DE6002137
:1016E0000A20FFF763F8042307225F495C48FFF7ED
:1016F0006BFA584A136801331360FEE50023009328
:1017000001231A464FF480215348006802F089F9FA
:1017100010F4802F3FF4F1AD4E4A1368013313608B
:10172000EBE50123072251495148FFF74DFA00210B
:101730000D20FFF73BF801210F20FFF737F80121BB
:101740002F20FFF733F801212D20FFF72FF8414A12
:10175000136801331360D0E50023009301231A4678
:1017600080213D48006802F05CF910F0800F3FF4E2
:10177000C4AD384A136801331360BEE50121362039
:10178000FFF714F84FF4FA7002F028F90021362020
:10179000FFF70CF82F4A13680133136000230593F9
:1017A000ABE54AF2F87105A8FFF744FD00283FF4C5
:1017B000A4AD284A1368013313609EE50423072271
:1017C0002C492748FFF700FA224A136801331360B7
:1017D00093E50023009301231A464FF480111E481D
:1017E000006802F01EF910F4801F3FF486AD194A1C
:1017F00013680133136080E500211020FEF7D6FF47
:1018000001212020FEF7D2FF124A13680133136032
:1018100073E50023009301231A464FF400110E488C
:10182000006802F0FEF810F4001F3FF466AD094AAC
:1018300013680133136060E5042307220E4908484A
:10184000FFF7C2F9034A13680133136000230593BD
:1018500053E500BF0400002070040020C0580008B9
:10186000B4080020C8580008D0580008D85800080C
:101870006C080020E0580008E858000846F2905133
:1018800005A8FFF7D7FC00283FF437AD754A136869
:101890000133136031E50423072273497348FFF7CE
:1018A00093F900211120FEF781FF6E4A136801337E
:1018B00013600023059320E541F2707105A8FFF73E
:1018C000B9FC00283FF419AD664A13680133136070
:1018D00013E50423072266496448FFF775F9614A56
:1018E00013680133136008E50023009301231A46AF
:1018F0004FF480015F48006802F093F810F4800F05
:101900003FF4FBAC574A136801331360F5E4002140
:101910000B20FEF74BFF00210C20FEF747FF0021B4
:101920000F20FEF743FF00212020FEF73FFF00219C
:101930002D20FEF73BFF00212E20FEF737FF002170
:101940002F20FEF733FF00213120FEF72FFF00216B
:101950003220FEF72BFF00213320FEF727FF464DF4
:101960002846FFF785F9414C0423072243492046C6
:10197000FFF72AF941F2883002F030F801212B20DC
:10198000FEF714FF4FF4FA6002F028F8012122203C
:10199000FEF70CFF4FF4FA6002F020F8012124203A
:1019A000FEF704FF4FF4FA6002F018F8012123203B
:1019B000FEF7FCFE4FF4FA6002F010F8012125203A
:1019C000FEF7F4FE4FF4FA6002F008F80121282037
:1019D000FEF7ECFE4FF4FA6002F000F80121262039
:1019E000FEF7E4FE4FF4FA6001F0F8FF0121272032
:1019F000FEF7DCFE4FF4FA6001F0F0FF01212A202F
:101A0000FEF7D4FE4FF4FA6001F0E8FF012129202F
:101A1000FEF7CCFE4FF4FA6001F0E0FF0121212037
:101A2000FEF7C4FE00212B20FEF7C0FE01211F207F
:101A3000FEF7BCFE00211220FEF7B8FE01230722AC
:101A40000F492846FFF7C0F8C82001F0C7FF04235C
:101A500007220C492046FFF7B7F8024A1368013302
:101A600013604AE404000020F0580008B408002085
:101A7000F8580008700400206C0800200059000885
:101A800008590008105900080023009301231A4642
:101A90004FF40071B048006801F0C3FF10F4007FFC
:101AA00004D0AE4B5B68002B00F0D780002300937E
:101AB00001231A464FF40061A748006801F0B1FF06
:101AC00010F4006F04D0A54B9B68002B00F0D7806A
:101AD0000023009301231A464FF480519E4800686A
:101AE00001F09FFF10F4805F04D09C4BDB68002B5B
:101AF00000F0D7800023009301231A461946964828
:101B0000406801F08EFF10F0010F04D0934B1B6969
:101B1000002B00F0D8800023009301231A460221F5
:101B20008D48406801F07DFF10F0020F04D08B4B10
:101B30005B69002B00F0D9800023009301231A4633
:101B40004FF400318448006801F06BFF10F4003F4F
:101B500004D0824B9B69002B00F0D98000230093B6
:101B600001231A4680217C48406801F05AFF10F09A
:101B7000800F04D0794BDB69002B00F0DA80002362
:101B8000009301231A4608217348406801F049FF79
:101B900010F0080F04D0714B1B6A002B00F0F2808C
:101BA0000023009301231A4610216B48406801F07E
:101BB00038FF10F0100F04D0684B5B6A002B00F068
:101BC000F3800023009301231A464FF4807162488A
:101BD000006801F026FF10F4807F04D05F4B9B6A01
:101BE000002B00F0F3805D4B5B68012B7FF485AB2D
:101BF0005A4B9B68012B7FF480AB584BDB68012B61
:101C00007FF47BAB554B1B69012B7FF476AB534BB9
:101C10005B69012B7FF471AB504B9B69012B7FF407
:101C20006CAB4E4BDB69012B7FF467AB4B4B1B6AF4
:101C3000012B7FF462AB494B5B6A012B7FF45DABF8
:101C4000464B9B6A012B7FF458AB454A136801331E
:101C5000136000230593FFF750BB404B01225A60ED
:101C600000211320FEF7A2FD00212220FEF79EFD99
:101C7000042307223B493C48FEF7A6FF16E7374BF3
:101C800001229A6000211420FEF790FD00212420FB
:101C9000FEF78CFD0423072234493348FEF794FFF6
:101CA00016E72E4B0122DA6000211520FEF77EFD9B
:101CB00000212320FEF77AFD042307222C492A481D
:101CC000FEF782FF16E7254B01221A61002116203C
:101CD000FEF76CFD00212520FEF768FD0423072296
:101CE00024492148FEF770FF15E71C4B01225A6179
:101CF00000211720FEF75AFD00212820FEF756FD8F
:101D0000042307221C491848FEF75EFF14E7134B13
:101D100001229A6100211820FEF748FD00212620AB
:101D2000FEF744FD0423072214490F48FEF74CFF39
:101D300014E70A4B0122DA6100211920FEF736FD73
:101D400000212720FEF732FD042307220C49064814
:101D5000FEF73AFF13E700BF7004002000090020DF
:101D60000400002018590008B40800202059000879
:101D7000285900083059000838590008405900080F
:101D800048590008734B01221A6200211A20FEF7FD
:101D90000DFD00212A20FEF709FD042307226E49CC
:101DA0006E48FEF711FFFBE66A4B01225A620021E2
:101DB0001B20FEF7FBFC00212920FEF7F7FC042383
:101DC000072267496548FEF7FFFEFAE6614B0122EC
:101DD0009A6200211C20FEF7E9FC00212120FEF779
:101DE000E5FC042307225F495C48FEF7EDFEFAE6B6
:101DF0004FF4FA5105A8FFF71DFA00283FF47DAA19
:101E0000594A136801331360FFF777BA0423072296
:101E100056495248FEF7D8FE42F6E06001F0DEFD7A
:101E200001213020FEF7C2FC4F4A136801331360D2
:101E3000FFF763BA0023009301231A4620214C4880
:101E4000406801F0EEFD10F0200F3FF456AA464A1C
:101E5000136801331360FFF750BA04230722454982
:101E60003E48FEF7B1FE404A136801331360002379
:101E70000593FFF742BA4FF4FA5105A8FFF7DAF9D4
:101E800000283FF43AAA384A136801331360FFF779
:101E900034BA0423072238493048FEF795FE002162
:101EA0003020FEF783FC01213520FEF77FFC4FF444
:101EB000967001F093FD00213520FEF777FC2A4A49
:101EC00013680133136000230593FFF716BA4EF62B
:101ED000602105A8FFF7AEF900283FF40EAA224AB8
:101EE000136801331360FFF708BA0423072223495C
:101EF0002348FEF769FE0423072222491748FEF70C
:101F000063FE194A13680133136000230593FFF73A
:101F1000F4B946F2905105A8FFF78CF900283FF478
:101F2000ECA9114A136801331360FFF7E6B90021E9
:101F30002C20FEF73BFC00213020FEF737FC00216F
:101F40001F20FEF733FC084A136801331360FFF7C4
:101F5000D4B900BF0009002050590008B40800207F
:101F6000585900086059000804000020685900080A
:101F70007004002070590008785900088059000842
:101F80006C08002088590008CF48FEF771FECF4842
:101F9000FEF76EFE00210120FEF708FC0021022062
:101FA000FEF704FC00210320FEF700FC00210420C2
:101FB000FEF7FCFB00210520FEF7F8FB00210620C0
:101FC000FEF7F4FB00210720FEF7F0FB01210820BB
:101FD000FEF7ECFB01210920FEF7E8FB01210B20B5
:101FE000FEF7E4FB01210C20FEF7E0FB01210D20B0
:101FF000FEF7DCFB00210E20FEF7D8FB01210F20AD
:10200000FEF7D4FB01211020FEF7D0FB01211120A7
:10201000FEF7CCFB01211220FEF7C8FB01211320A3
:10202000FEF7C4FB01211420FEF7C0FB012115209F
:10203000FEF7BCFB01211620FEF7B8FB012117209B
:10204000FEF7B4FB01211820FEF7B0FB0121192097
:10205000FEF7ACFB01211A20FEF7A8FB01211B2093
:10206000FEF7A4FB01211C20FEF7A0FB01211F208D
:10207000FEF79CFB01212020FEF798FB0021222087
:10208000FEF794FB00212420FEF790FB0021232083
:10209000FEF78CFB00212520FEF788FB002128207D
:1020A000FEF784FB00212620FEF780FB002127207D
:1020B000FEF77CFB00212A20FEF778FB0021292077
:1020C000FEF774FB00212120FEF770FB00212B207E
:1020D000FEF76CFB01212C20FEF768FB01212D206F
:1020E000FEF764FB01212E20FEF760FB01212F206B
:1020F000FEF75CFB01213020FEF758FB0121312067
:10210000FEF754FB01213220FEF750FB0121332062
:10211000FEF74CFB01210A20FEF748FB0121342089
:10212000FEF744FB4FF47A7001F058FC0021342094
:10213000FEF73CFB664B34221A60FFF7DEB8002145
:102140000120FEF733FB00210220FEF72FFB0021C8
:102150000320FEF72BFB00210420FEF727FB0021C4
:102160000520FEF723FB00210620FEF71FFB0021C0
:102170000720FEF71BFB01210820FEF717FB0121BA
:102180000920FEF713FB00210B20FEF70FFB0021B7
:102190000C20FEF70BFB01210D20FEF707FB0021B1
:1021A0000E20FEF703FB00210F20FEF7FFFA0121AE
:1021B0001020FEF7FBFA01211120FEF7F7FA0121AA
:1021C0001220FEF7F3FA01211320FEF7EFFA0121A6
:1021D0001420FEF7EBFA01211520FEF7E7FA0121A2
:1021E0001620FEF7E3FA01211720FEF7DFFA01219E
:1021F0001820FEF7DBFA01211920FEF7D7FA01219A
:102200001A20FEF7D3FA01211B20FEF7CFFA012195
:102210001C20FEF7CBFA00211F20FEF7C7FA002191
:102220002020FEF7C3FA00212220FEF7BFFA00218A
:102230002420FEF7BBFA00212320FEF7B7FA002185
:102240002520FEF7B3FA00212820FEF7AFFA00217F
:102250002620FEF7ABFA00212720FEF7A7FA00217F
:102260002A20FEF7A3FA00212920FEF79FFA002179
:102270002120FEF79BFA00212B20FEF797FA01217F
:102280002C20FEF793FA00212D20FEF78FFA002173
:102290002E20FEF78BFA00212F20FEF787FA00216F
:1022A0003020FEF783FA00213120FEF77FFA00216B
:1022B0003220FEF77BFA00213320FEF777FA044B39
:1022C00034221A60FFF719B86C080020B408002007
:1022D000040000200023009301231A4610217448B3
:1022E000006801F09EFB10F0100F4AD1002300930C
:1022F00001231A4608216E48006801F092FB10F095
:10230000080F4BD10023009301231A46042168488B
:10231000006801F086FB10F0040F4CD100230093FD
:1023200001231A4602216248006801F07AFB10F08E
:10233000020F4DD10023009301231A4640215C482F
:10234000006801F06EFB10F0400F4ED100230093A7
:1023500001231A4680215648006801F062FB10F004
:10236000800F3EF4D0AF01213620FEF71FFA4FF464
:10237000FA7001F033FB00213620FEF717FAFEF762
:10238000C2BF01210220FEF711FA4FF4FA7001F0EA
:1023900025FB00210220FEF709FAA7E7012103200F
:1023A000FEF704FA4FF4FA7001F018FB0021032045
:1023B000FEF7FCF9A6E701210420FEF7F7F94FF438
:1023C000FA7001F00BFB00210420FEF7EFF9A5E7FE
:1023D00001210520FEF7EAF94FF4FA7001F0FEFA48
:1023E00000210520FEF7E2F9A4E701210620FEF70F
:1023F000DDF94FF4FA7001F0F1FA00210620FEF742
:10240000D5F9A3E700212A4B586801F08EFB10F0A4
:10241000400402D0274B1B68E3B1002C7EF479AF57
:10242000244B1B68002B3EF474AF00210F20FEF7F5
:10243000BDF900212D20FEF7B9F900212F20FEF76C
:10244000B5F901210E20FEF7B1F91A4B00221A60EE
:10245000FEF75FBF01210F20FEF7A8F901212D2013
:10246000FEF7A4F901212F20FEF7A0F900210E208C
:10247000FEF79CF90F4B01221A60CEE7CC228DF8B3
:102480000C2005228DF80D2000218DF80E108DF8FE
:102490000F30FF238DF810304FF0FF3303A90648AB
:1024A00001F000F8054B1A68054B1A60FEF745BFAE
:1024B000700400205009002024080020040000209F
:1024C00008000020FEF726FD0B480C490C4A0023AB
:1024D00002E0D458C4500433C4188C42F9D3094ADA
:1024E000094C002301E013600432A242FBD303F045
:1024F00045F8FEF705FB704700000020440400206B
:10250000BC59000844040020AC360020FEE700005F
:1025100008B5074A136843F010031360032000F066
:102520001BF80F20FEF780FCFEF754FC002008BDCE
:1025300000200240034A1168034B1B780B441360D0
:10254000704700BF580900200C000020014B18689C
:10255000704700BF58090020074AD36823F4E0639E
:102560001B041B0C000200F4E060034343F0BF6354
:1025700043F40033D360704700ED00E000B5194B21
:10258000DB68C3F30223C3F1070CBCF1040F28BFBF
:102590004FF0040C03F1040EBEF1060F18D9033BF3
:1025A0004FF0FF3E0EFA0CFC21EA0C0199400EFAA6
:1025B00003F322EA0303194300280BDB0901C9B224
:1025C00000F1604000F5614080F800135DF804FB05
:1025D0000023E5E700F00F000901C9B2024B1954CE
:1025E000F4E700BF00ED00E014ED00E0002807DB99
:1025F00000F01F02400901239340024A42F82030B4
:10260000704700BF00E100E090F82130DBB2022B00
:1026100006D004238363002380F820300120704714
:102620000268136823F00E0313600268136823F036
:1026300001031360036CC16B012202FA03F34B60C8
:1026400080F82120002380F82030184670470000D1
:1026500008B590F82130DBB2022B03D0042383634A
:10266000012008BD0268136823F00E03136002689E
:10267000136823F0010313600368194A934214D0CE
:10268000143293421FD0143293421ED0143293421C
:102690001ED0143293421ED01432934202D04FF017
:1026A000807203E04FF4801200E001220D4B5A606B
:1026B000012380F82130002380F82030436B6BB178
:1026C00098470020CDE71022F0E74FF48072EDE745
:1026D0004FF48052EAE74FF48032E7E70020C0E78A
:1026E000080002400000024070B582B00024A446F9
:1026F000A6E0804DAA4210D007D97F4DAA420CD047
:1027000005F58035AA4208D013E0A5F58015AA4248
:1027100003D005F57025AA4207D18A68002A58D04F
:10272000012A51D04361082403E0A5F58015AA428F
:10273000F3D0BEF1FF0F4ED80646BEF1FF0F4CD8C6
:102740004FEA8C0233680F25954023EA050304FA0B
:1027500002F2134333604B6813F0805F6ED0674B17
:102760009A6942F001029A619B6903F001030193A7
:10277000019B4FEA9C02951C614B53F825600CF0BD
:1027800003039D000F23AB4026EA03065D4B9842EE
:1027900029D003F58063984200F08E8003F58063B2
:1027A000984200F08B8003F58063984219D004238F
:1027B0001AE0CC68BDE7CC680434BAE7CC680834CA
:1027C000B7E7CC680C34B4E703610824B1E7002410
:1027D000AFE70424ADE7061DAFE7ACF108029200B5
:1027E000B0E7032300E00023AB4033430232444D03
:1027F00045F822304B6813F4801F61D0424A936839
:1028000043EA0E0393604B6813F4001F5ED03E4A08
:10281000D36843EA0E03D3604B6813F4003F5BD0E8
:10282000394A536843EA0E0353604B6813F4803F00
:1028300058D0354A136843EA0E0313600CF1010CBB
:102840000A6832FA0CF353D0012303FA0CF302EABC
:10285000030E33EA0202F1D14A68122A3FF649AF69
:10286000122A3FF666AF01A555F822F01B27000893
:10287000B3270008BD270008CF270008332700082A
:1028800033270008332700083327000833270008C0
:1028900033270008332700083327000833270008B0
:1028A00033270008332700083327000833270008A0
:1028B000B7270008C3270008012395E7022393E701
:1028C000114A936823EA0E0393609CE70E4AD3688B
:1028D00023EA0E03D3609FE70B4A536823EA0E03F3
:1028E0005360A2E7084A136823EA0E031360A5E7C2
:1028F00002B070BD00002210000031100010024034
:1029000000000140000801400004014083681942B2
:1029100001D001207047002070470AB10161704763
:10292000090401617047000082B0084B1B68084A27
:10293000A2FB03235B0A00FB03F3019300BF019B8F
:102940005A1E0192002BF9D102B0704700000020FE
:10295000D34D6210002800F0F18170B582B00446BA
:10296000036813F0010F2CD0994B5B6803F00C0344
:10297000042B1DD0964B5B6803F00C03082B12D080
:102980006368B3F5803F41D0002B55D103F18043FC
:1029900003F504331A6822F480321A601A6822F4AC
:1029A00080221A6037E08A4B5B6813F4803FE7D0DF
:1029B000874B1B6813F4003F03D06368002B00F0C3
:1029C000BF81236813F0020F75D0814B5B6813F051
:1029D0000C0F5FD07E4B5B6803F00C03082B54D0C8
:1029E0002369002B00F08A807A4B01221A60FFF7DE
:1029F000ADFD0546764B1B6813F0020F75D1FFF74E
:102A0000A5FD401B0228F5D903209EE1704A1368FA
:102A100043F480331360636843B3FFF797FD0546C3
:102A20006B4B1B6813F4003FCBD1FFF78FFD401BAE
:102A30006428F5D9032088E1B3F5A02F09D0644BB1
:102A40001A6822F480321A601A6822F480221A600E
:102A5000E1E703F18043A3F53C331A6842F4802296
:102A60001A601A6842F480321A60D4E7FFF76EFDEC
:102A70000546574B1B6813F4003FA2D0FFF766FDD5
:102A8000401B6428F5D903205FE1514B5B6813F4C8
:102A9000803FA5D14E4B1B6813F0020F03D0236972
:102AA000012B40F04F814A4A136823F0F803616913
:102AB00043EAC1031360236813F0080F33D0A369FE
:102AC000002B5CD0434B0122C3F88024FFF73EFD6E
:102AD00005463F4B5B6A13F0020F21D1FFF736FD2D
:102AE000401B0228F5D903202FE1394A136823F04F
:102AF000F803616943EAC1031360DCE7354B002248
:102B00001A60FFF723FD0546314B1B6813F0020FD7
:102B1000D1D0FFF71BFD401B0228F5D9032014E19B
:102B20000120FFF701FF236813F0040F00F09680E7
:102B3000274BDB6913F0805F34D1254BDA6942F013
:102B40008052DA61DB6903F080530193019B012518
:102B5000214B1B6813F4807F26D0E368012B3DD006
:102B6000002B53D103F1804303F504331A6A22F09A
:102B700001021A621A6A22F004021A6233E0154B4B
:102B80000022C3F88024FFF7E1FC0546104B5B6A86
:102B900013F0020FC7D0FFF7D9FC401B0228F5D96C
:102BA0000320D2E00025D3E70B4A136843F4807377
:102BB0001360FFF7CBFC0646074B1B6813F4807FBE
:102BC000CBD1FFF7C3FC801B6428F5D90320BCE000
:102BD0000010024000004242007000405F4A136A49
:102BE00043F001031362E36833B3FFF7AFFC06461B
:102BF0005A4B1B6A13F0020F2FD1FFF7A7FC801B63
:102C000041F288339842F3D903209EE0052B09D086
:102C1000524B1A6A22F001021A621A6A22F0040266
:102C20001A62E0E74D4B1A6A42F004021A621A6A0D
:102C300042F001021A62D6E7FFF788FC0646474BCE
:102C40001B6A13F0020F08D0FFF780FC801B41F2D3
:102C500088339842F3D9032077E0E5B9E369002B84
:102C600072D03E4A526802F00C02082A56D0022B5B
:102C700017D03B4B00221A66FFF768FC0446374B1F
:102C80001B6813F0007F47D0FFF760FC001B022891
:102C9000F5D9032059E0314AD36923F08053D36139
:102CA000DCE72F4B00221A66FFF750FC05462B4B42
:102CB0001B6813F0007F06D0FFF748FC401B02287A
:102CC000F5D9032041E0236AB3F5803F1AD02349A8
:102CD0004B6823F47413226A606A024313434B6007
:102CE0001F4B01221A66FFF731FC04461B4B1B6881
:102CF00013F0007F0ED1FFF729FC001B0228F5D945
:102D0000032022E0154A536823F40033A1680B43E3
:102D10005360DCE7002018E0002016E0012B16D0FD
:102D20000E4B5B6803F48031226A914211D103F4A7
:102D30007013626A93420ED1002006E001207047B2
:102D4000012002E0012000E0002002B070BD01205F
:102D5000FBE70120F9E70120F7E700BF0010024080
:102D6000000042420F4B5B6803F00C02082A01D0BE
:102D70000D487047C3F383420C49885C13F4803FCD
:102D80000BD0084B5B68C3F34043094AD35C064A47
:102D900002FB00F0B0FBF3F07047064B03FB00F0C2
:102DA000704700BF0010024000127A0090590008DE
:102DB000A059000800093D00002800F0A08070B56F
:102DC0000D460446524B1B6803F007038B420BD29F
:102DD0004F4A136823F007030B431360136803F093
:102DE00007038B4240F08D80236813F0020F17D049
:102DF00013F0040F04D0474A536843F4E063536070
:102E0000236813F0080F04D0424A536843F4605318
:102E10005360404A536823F0F003A1680B435360AA
:102E2000236813F0010F31D06368012B20D0022BEF
:102E300025D0384A126812F0020F64D035494A682A
:102E400022F0030213434B60FFF780FB0646314B31
:102E50005B6803F00C036268B3EB820F16D0FFF7D8
:102E600075FB801B41F288339842F0D9032045E07E
:102E7000284A126812F4003FE0D101203EE0254AC2
:102E8000126812F0007FD9D1012037E0204B1B6877
:102E900003F00703AB420AD91D4A136823F0070366
:102EA0002B431360136803F00703AB422DD1236853
:102EB00013F0040F06D0174A536823F4E063E16867
:102EC0000B435360236813F0080F07D0114A53686F
:102ED00023F46053216943EAC1035360FFF742FFC3
:102EE0000C4B5B68C3F303130B4AD35CD8400B4B0A
:102EF00018600B4B1868FDF797FF002070BD01208C
:102F000070470120FAE70120F8E70120F6E700BF4B
:102F100000200240001002408058000800000020FD
:102F200010000020014B1868704700BF000000200F
:102F300008B5FFF7F7FF044B5B68C3F30223034AAE
:102F4000D35CD84008BD00BF001002409058000874
:102F500008B5FFF7E7FF044B5B68C3F3C223034ADE
:102F6000D35CD84008BD00BF001002409058000854
:102F70000F2303600B4B5A6802F0030242605A6849
:102F800002F0F00282605A6802F4E062C2605B689C
:102F9000DB0803F4E0630361034B1B6803F00703E2
:102FA0000B60704700100240002002407047000094
:102FB00090F83D30DBB2012B27D1022380F83D3061
:102FC0000268D36843F00103D3600368114A934257
:102FD00010D0B3F1804F0DD0A2F59432934209D0B6
:102FE00002F58062934205D01A6842F001021A602D
:102FF000002070479A6802F00702062A07D01A6874
:1030000042F001021A600020704701207047002042
:10301000704700BF002C01407047704770477047F1
:1030200010B5044603681A6912F0020F11D0DA686D
:1030300012F0020F0DD06FF002021A610123037724
:1030400003689B6913F0030F70D0FFF7E6FF0023BE
:10305000237723681A6912F0040F12D0DA6812F08D
:10306000040F0ED06FF004021A6102232377236845
:103070009B6913F4407F5FD02046FFF7CEFF00230B
:10308000237723681A6912F0080F12D0DA6812F059
:10309000080F0ED06FF008021A610423237723680B
:1030A000DB6913F0030F4ED02046FFF7B6FF002375
:1030B000237723681A6912F0100F12D0DA6812F021
:1030C000100F0ED06FF010021A61082323772368C7
:1030D000DB6913F4407F3DD02046FFF79EFF0023BD
:1030E000237723681A6912F0010F03D0DA6812F00F
:1030F000010F36D123681A6912F0800F03D0DA6805
:1031000012F0800F34D123681A6912F0400F03D0F7
:10311000DA6812F0400F32D123681A6912F0200FDA
:1031200003D0DA6812F0200F30D110BDFFF774FF22
:103130002046FFF773FF8AE72046FFF76DFF204622
:10314000FFF76CFF9BE72046FFF766FF2046FFF77F
:1031500065FFACE72046FFF75FFF2046FFF75EFF05
:10316000BDE76FF001021A612046FDF78BFCC1E755
:103170006FF080021A61204600F077F8C3E76FF025
:1031800040021A612046FFF74AFFC5E76FF02002B0
:103190001A61204600F068F8C7E7000003681B4A80
:1031A00090420AD0B0F1804F07D0A2F594329042FD
:1031B00003D002F58062904203D123F070034A6885
:1031C0001343124A90420AD0B0F1804F07D0A2F5C3
:1031D0009432904203D002F58062904203D123F4EE
:1031E0004073CA68134323F080034A6913430360A2
:1031F0008B68C3620B688362044B984202D0012340
:10320000436170470B690363F9E700BF002C01407D
:1032100040B310B5044690F83D30F3B1022384F872
:103220003D30214651F8040BFFF7B8FF012384F825
:10323000463084F83E3084F83F3084F8403084F8DB
:10324000413084F8423084F8433084F8443084F8C4
:10325000453084F83D30002010BD80F83C30FFF749
:10326000A5FEDBE70120704770477047026802F156
:103270000C0353E8003F23F490730C3242E8003112
:103280000029F3D1026802F1140353E8003F23F050
:103290000103143242E800310029F3D1036B012B02
:1032A00005D0202380F84230002303637047026872
:1032B00002F10C0353E8003F23F010030C3242E804
:1032C00000310029F3D1ECE790F84130DBB2212B3B
:1032D00001D0022070478368B3F5805F17D0036A7E
:1032E0005A1C02621A7803685A60C38C9BB2013B75
:1032F0009BB2C3844BB90268D36823F08003D360C8
:103300000268D36843F04003D3600020704703692C
:10331000002BE4D1036A1B880268C3F308035360DF
:10332000036A02330362E0E710B5044602681369DA
:1033300023F44053C1680B4313618368026913434C
:1033400042691A430168CB6823F4B05323F00C039D
:103350001343CB600268536923F4407381690B43C4
:1033600053610268134B9A4220D0FFF7E1FD0246F9
:1033700002EB820202EB820263689B00B2FBF3F273
:103380000D48A0FB02314909642303FB11231B01F3
:103390003233A0FB03235B0903F0F00202EB0112BE
:1033A00003F00F03216813448B6010BDFFF7D0FDBD
:1033B0000246DDE7003801401F85EB512DE9F84357
:1033C00005460F4616469946DDF820802C6824688D
:1033D00037EA04030CBF4FF0010C4FF0000CB4456A
:1033E0002DD1B8F1FF3FF1D0B8F1000F05D0FFF7B4
:1033F000ADF8A0EB09004045E8D92A6802F10C03BA
:1034000053E8003F23F4D0730C3242E80031002926
:10341000F3D12A6802F1140353E8003F23F00103BB
:10342000143242E800310029F3D1202385F84130DD
:1034300085F84230002385F84030032000E000206A
:10344000BDE8F88360B310B5044690F8413013B37B
:10345000242384F841302268D36823F40053D360D6
:103460002046FFF761FF2268136923F4904313613C
:103470002268536923F02A0353612268D36843F416
:103480000053D36000206064202384F8413084F826
:103490004230606310BD80F84030FDF78BFDD7E708
:1034A000012070472DE9F04182B01E4690F841306E
:1034B000DBB2202B4BD104460D46904600294AD062
:1034C0000AB9012044E000234364212380F84130FD
:1034D000FFF73CF80746A4F82480A4F82680A368E8
:1034E000B3F5805F02D04FF000080FE02369FBB115
:1034F0004FF000080AE038F8023B2268C3F30803E3
:103500005360E28C92B2013A92B2E284E38C9BB2B5
:103510008BB100963B46002280212046FFF74EFFEC
:10352000D8B9002DE7D015F8012B23685A60E8E7D9
:10353000A8460025EAE700963B46002240212046A7
:10354000FFF73CFF58B9202384F8413000E0022007
:1035500002B0BDE8F0810120FAE70320F8E703207C
:10356000F6E7704708B50168CA6822F04002CA60F1
:10357000202280F84120FFF7F4FF002008BD7047AB
:1035800008B5406A0023C385C384FFF7F8FF08BD70
:10359000704790F84230DBB2222B69D18368B3F5D3
:1035A000805F4FD0826AB3F5805F04D0002B56D184
:1035B0000369002B53D103685B681370836A01337E
:1035C0008362C38D9BB2013B9BB2C385002B51D15B
:1035D00000B583B00268D36823F02003D36002688B
:1035E000D36823F48073D3600268536923F0010326
:1035F0005361202380F8423000234363036B012B87
:1036000033D100230363026802F10C0353E8003F47
:1036100023F010030C3242E800310029F3D1036893
:103620001A6812F0100F06D0002201921A68019257
:103630005B680193019B818DFFF7AAFF002003B017
:103640005DF804FB0269002AACD1826A03685B68FA
:10365000C3F308031380836A02338362B1E703680C
:103660005B6803F07F031370A8E7FDF757FDE5E7FC
:10367000022070470020704730B583B004460268CE
:103680001368D068516913F00F0505D113F0200FAE
:1036900002D010F0200F19D12DB111F0010119D174
:1036A00010F4907F16D1216B01297DD013F0800F8B
:1036B00003D010F0800F40F0188113F0400F03D0BA
:1036C00010F0400F40F0158103B030BD2046FFF7E9
:1036D00060FFF9E713F0010F06D010F4807F03D0EC
:1036E000626C42F00102626413F0040F04D019B15D
:1036F000626C42F00202626413F0020F04D019B14E
:10370000626C42F00402626413F0080F07D010F0FC
:10371000200F00D119B1626C42F008026264626C41
:10372000002AD1D013F0200F02D010F0200F29D1A1
:1037300023685B6903F04003626C12F0080F00D14C
:1037400063B32046FFF792FD23685B6913F0400FD7
:1037500020D0226802F1140353E8003F23F0400315
:10376000143242E800310029F3D1E36B73B1634AAC
:103770005A63E06BFEF76CFF0028A5D0E06B436B4B
:103780009847A1E72046FFF704FFD1E72046FFF75F
:10379000F6FE99E72046FFF7F2FE95E72046FFF791
:1037A000EEFE002363648FE713F0100F3FF47EAF4B
:1037B00010F0100F3FF47AAF0023019313680193C8
:1037C00053680193019B536913F0400F51D0E26B92
:1037D00013685B689BB2002B3FF476AFA18D9942D2
:1037E0007FF672AFE3859369202B37D0226802F110
:1037F0000C0353E8003F23F480730C3242E800319D
:103800000029F3D1226802F1140353E8003F23F0AA
:103810000103143242E800310029F3D1226802F199
:10382000140353E8003F23F04003143242E8003110
:103830000029F3D1202384F8423000232363226837
:1038400002F10C0353E8003F23F010030C3242E86E
:1038500000310029F3D1E06BFEF7D6FE022363634B
:10386000A18DE38D9BB2C91A89B22046FFF790FE65
:103870002AE7A18DE38D9BB2C91A89B2E38D9BB271
:10388000002B3FF421AF00293FF41EAF226802F164
:103890000C0353E8003F23F490730C3242E80030ED
:1038A0000028F3D1226802F1140353E8003F23F00B
:1038B0000103143242E800300028F3D1202384F8B9
:1038C000423000232363226802F10C0353E8003FD7
:1038D00023F010030C3242E800300028F3D1022319
:1038E00063632046FFF754FEEEE62046FFF7ECFC4C
:1038F000EAE62046FFF736FEE6E600BF813500081F
:1039000081628285C28500234364222380F842308D
:10391000036923B10268D36843F48073D3600268FB
:10392000536943F0010353610268D36843F02003F5
:10393000D3600020704708B590F84230DBB2202BEE
:1039400008D149B10AB9012008BD00230363FFF77C
:10395000D7FFF9E70220F7E70120F5E7842801D037
:10396000033070470020704708B501F0E7F90020E8
:1039700008BD2DE9F04387B004460F464569BDB147
:103980008669AEB1D0F80480D0F80090B0F9080094
:10399000FFF7E4FF0296019500903B4622694946F5
:1039A000404601F05DF90590059807B0BDE8F08349
:1039B00065682668D4F81080B4F90800FFF7CEFFD8
:1039C00005AB019300903B461FFA88F2314628462A
:1039D00001F080F90128E7D00020E6E708B500B93A
:1039E000012001F0F5FA002008BD1AB9084206D1FD
:1039F0001046704731EA000303D0002070470120D1
:103A000070470120704738B51C2000F00DFB0446BC
:103A100028B1002540F8045B00F0F0F82576204638
:103A200038BD2DE9F84378B10C4616461D460746C9
:103A300011F07F4811D04FF0500383F31188BFF38A
:103A40006F8FBFF34F8FFEE74FF0500383F3118862
:103A5000BFF36F8FBFF34F8FFEE741B94FF05003B5
:103A600083F31188BFF36F8FBFF34F8FFEE701F031
:103A700043FC50B9089B43B14FF0500383F31188C6
:103A8000BFF36F8FBFF34F8FFEE701F091F9D7F8C7
:103A900000902A4621464846FFF7A7FFF0B116B12D
:103AA00029EA04033B6001F017FAB8F1000F12D0C5
:103AB00048B94FF0E0234FF08052C3F8042DBFF314
:103AC0004F8FBFF36F8F01F03FFD814610F0007FF5
:103AD0001AD029F07F494846BDE8F883089B83B196
:103AE00066B941460DB141F08061089A2143381D05
:103AF00001F0F8FAC146DDF82080D4E74FF080717C
:103B0000F0E7DDF82080CEE700F014F9D7F8009058
:103B10002A4621464846FFF768FF18B116B129EA40
:103B200004043C6000F028F9D3E770B170B50C468E
:103B3000054611F07F4F11D04FF0500383F31188E9
:103B4000BFF36F8FBFF34F8FFEE74FF0500383F348
:103B50001188BFF36F8FBFF34F8FFEE700F0EAF8D5
:103B60002E6826EA04042C6000F006F9304670BD89
:103B7000F8B568B10D46044611F07F4711D04FF0FB
:103B8000500383F31188BFF36F8FBFF34F8FFEE7AE
:103B90004FF0500383F31188BFF36F8FBFF34F8F44
:103BA000FEE700F10C0601F003F9206923682B43BE
:103BB00023600AE0216832EA010105D111E02168A1
:103BC00041F0007101F000FB2846B0420ED045687C
:103BD000036823F07F4213F0806FEBD1216811421C
:103BE000F2D013F0807FEAD01743E8E7236823EA96
:103BF0000703236001F070F92068F8BD00F10803A5
:103C000043604FF0FF328260C360036100230360B2
:103C1000704700230361704743684B609A688A606D
:103C2000516099600861036801330360704730B4E4
:103C30000D68B5F1FF3F11D000F108031C465B6829
:103C40001A68AA42FAD963684B6099608C60616017
:103C5000086103680133036030BC70470469F2E710
:103C60000369416882688A60416851605A6882428B
:103C700006D0002202611A68013A1A60186870477B
:103C800082685A60F5E7000082B0002301930D4B73
:103C90001B68B3F1FF3F08D04FF0500383F3118846
:103CA000BFF36F8FBFF34F8FFEE74FF0500383F3E7
:103CB0001188BFF36F8FBFF34F8F019B002BFCD098
:103CC00002B070471400002006480068006880F3C6
:103CD000088862B661B6BFF34F8FBFF36F8F00DF06
:103CE00000BF000008ED00E04FF0807340F8043C96
:103CF00021F0010140F8081C034B40F80C3C40F84F
:103D0000202C4038704700BF893C000800000000AC
:103D1000074B19680868B0E8F00F80F30988BFF313
:103D20006F8F4FF0000080F311884EF00D0E70473A
:103D30007C3500204FF0500383F31188BFF36F8F61
:103D4000BFF34F8F0B4A136801331360012B00D070
:103D500070474FF0E023D3F8043D13F0FF0FF7D086
:103D60004FF0500383F31188BFF36F8FBFF34F8F72
:103D7000FEE700BF14000020094B1B6843B94FF059
:103D8000500383F31188BFF36F8FBFF34F8FFEE7AC
:103D9000013B034A13600BB983F31188704700BFDE
:103DA00014000020000000000000000000000000DF
:103DB000EFF30980BFF36F8F0D4B1A6820E9F00F06
:103DC00010602DE908404FF0500080F3118801F099
:103DD00025F94FF0000080F31188BDE8084019680C
:103DE0000868B0E8F00F80F30988BFF36F8F704761
:103DF0007C35002008B54FF0500383F31188BFF3E2
:103E00006F8FBFF34F8F00F0DBFF28B14FF0E0233F
:103E10004FF08052C3F8042D002383F3118808BDAE
:103E20004FF0E022002313619361054B1B680549A5
:103E3000A1FB03139B09013B5361072313617047E7
:103E400000000020D34D621010B582B02A4B1A78C2
:103E5000D2B20192FF221A701B78DBB28DF80330C8
:103E60009DF8033003F05003244A1370244B0722BB
:103E70001A6009E0224A1368013B13609DF8033081
:103E80005B00DBB28DF803309DF8033013F0800F38
:103E9000F0D11B4B1B68032B08D04FF0500383F36A
:103EA0001188BFF36F8FBFF34F8FFEE71B02144AD9
:103EB000136003F4E0631360019BDBB20E4A1370DE
:103EC0004FF0E023D3F8202D42F47002C3F8202DE8
:103ED000D3F8202D42F07042C3F8202DFFF7A0FF49
:103EE0000024084B1C60FFF7EFFE01F097F8FFF786
:103EF000CBFE204602B010BD00E400E05C090020CB
:103F00006009002014000020EFF305830F2B0FD968
:103F1000114A9B5CDBB2114A12789A4208D94FF0E1
:103F2000500383F31188BFF36F8FBFF34F8FFEE70A
:103F30004FF0E023D3F80C3D03F4E063084A126825
:103F4000934208D94FF0500383F31188BFF36F8F6A
:103F5000BFF34F8FFEE77047F0E300E05C090020FD
:103F600060090020124A12F0070F1ED0D11D21F067
:103F70000701C1F5305313440A460E480260002180
:103F800041601344083B23F007030B48036059606A
:103F90001960991A51601360084B1960084B196039
:103FA000084B4FF000421A6070474FF43053E4E77B
:103FB0006809002074350020640900207035002055
:103FC0006C35002068350020154B1A461B6883426B
:103FD000FBD3516802EB010C844509D0416800EB2A
:103FE000010C634509D00360904218D010607047FF
:103FF0004068014451601046F0E710B4094C246851
:10400000A3420AD05B681944416013681B680360CF
:10401000904200D0106010BC70470460F8E7704711
:10402000743500206409002070B5054600F0C0FE1C
:10403000344B1B68A3B1344B1B681D424AD135B1C8
:10404000083515F0070F02D025F007050835002DBB
:1040500042D02E4B1B68AB424DD32D4A146804E06E
:10406000FFF780FFE7E722461C466368AB4202D2B7
:104070002368002BF7D1234B1B68A3423DD0166861
:1040800008362368136063685B1B102B10D9601916
:1040900010F0070F08D04FF0500383F31188BFF3DF
:1040A0006F8FBFF34F8FFEE743606560FFF78CFFB4
:1040B000626816490B689B1A0B60164909688B42A7
:1040C00001D214490B60104B1B681343636000233B
:1040D000236002E0002600E0002600F0FDFE16F05E
:1040E000070F0CD04FF0500383F31188BFF36F8F8D
:1040F000BFF34F8FFEE70026EFE70026EDE73046DF
:1041000070BD00BF64090020683500206C350020B8
:10411000743500207035002080B338B50446A0F116
:10412000080550F8043C164A1268134208D14FF0B3
:10413000500383F31188BFF36F8FBFF34F8FFEE7F8
:1041400050F8081C41B14FF0500383F31188BFF3BE
:104150006F8FBFF34F8FFEE723EA020340F8043C62
:1041600000F026FE54F8041C064A13680B44136042
:104170002846FFF729FF00F0AFFE38BD704700BFAB
:10418000683500206C3500200346406A18B11B6B6F
:104190001868C0F10700704710B50446FFF7CAFD64
:1041A000A26BE36B9A4204D00024FFF7E5FD2046A2
:1041B00010BD0124F9E710B50446FFF7BBFDA36B62
:1041C00023B90124FFF7D8FD204610BD0024F9E7EC
:1041D00070B504461546866B026C5AB903681BB16C
:1041E00000200136A66370BD406801F0F3F800239B
:1041F0006360F6E76DB98068FBF7AAFF226CA368DD
:104200001344A3606268934219D32368A3602846CD
:10421000E7E7C068FBF79CFF226C5142E3689B1AFA
:10422000E3602268934202D263680B44E360022D8C
:1042300001D00020D5E726B1013E0020D1E7284675
:10424000CFE70020CDE708B50346026C62B108460F
:10425000D9681144D960D3F804C0614501D3196805
:10426000D960D968FBF774FF08BD38B50546FFF77C
:1042700061FD95F8454064B201E0013C64B2002C58
:104280000ADD6B6A43B105F1240000F057FF0028F6
:10429000F3D001F02BF8F0E7FF2385F84530FFF766
:1042A0006BFDFFF747FD95F8444064B201E0013C27
:1042B00064B2002C0ADD2B6943B105F1100000F057
:1042C0003DFF0028F3D001F011F8F0E7FF2385F857
:1042D0004430FFF751FD38BD38B5E0B10D46044616
:1042E000FFF728FD2368E26B216C01FB0230606060
:1042F0000020A063A360013A02FB0133E360FF23C7
:1043000084F8443084F84530FDB9236963B9FFF778
:1043100033FD012038BD4FF0500383F31188BFF304
:104320006F8FBFF34F8FFEE704F1100000F006FF20
:104330000028ECD04FF0E0234FF08052C3F8042D5A
:10434000BFF34F8FBFF36F8FE1E704F11000FFF76A
:1043500055FC04F12400FFF751FCD8E710B50346E3
:1043600002980C4631B90060C36304640121FFF771
:10437000B3FF10BD0260F7E740B94FF0500383F37D
:104380001188BFF36F8FBFF34F8FFEE7F0B583B097
:104390000C4615460746A1B101FB00F04830FFF777
:1043A00043FE064650B1002380F8463000902B466D
:1043B00000F1480221463846FFF7D0FF304603B0EF
:1043C000F0BD0846EAE7F0B585B0019288B10F4626
:1043D0001D460446B1B1022D20D1E36B012B1DD047
:1043E0004FF0500383F31188BFF36F8FBFF34F8FEC
:1043F000FEE74FF0500383F31188BFF36F8FBFF3D5
:104400004F8FFEE7036C002BE5D04FF0500383F392
:104410001188BFF36F8FBFF34F8FFEE700F06CFF83
:10442000064658B9019B002B48D04FF0500383F348
:104430001188BFF36F8FBFF34F8FFEE700263DE07B
:104440002A4639462046FFF7C3FE636A7BB948B166
:104450004FF0E0234FF08052C3F8042DBFF34F8F8D
:10446000BFF36F8FFFF788FC012005B0F0BD04F1AA
:10447000240000F063FE0028F4D04FF0E0234FF05A
:104480008052C3F8042DBFF34F8FBFF36F8FE9E75E
:10449000FFF772FC0020E8E702A800F0D9FE012631
:1044A00019E0002384F8443021E0002384F84530EB
:1044B00023E02046FFF7D9FE00F00EFDFFF73AFC9F
:1044C000A26BE36B9A42BBD3022DB9D0019B002BA8
:1044D000DED0002EE0D0FFF74FFC00F069FCFFF7C4
:1044E00029FC94F8442052B2B2F1FF3FD9D094F89D
:1044F000452052B2B2F1FF3FD7D0FFF73DFC01A9F2
:1045000002A800F0B1FED8B92046FFF745FE00280A
:10451000CFD0019904F1100000F0CCFD2046FFF748
:10452000A4FE00F0D9FC0028C8D14FF0E0234FF0E2
:104530008052C3F8042DBFF34F8FBFF36F8FBDE7D9
:104540002046FFF792FE00F0C7FC00208DE748B13F
:1045500008B5002141600160C1600B460A46FFF7C3
:1045600032FF08BD704710B5024600210120FFF759
:1045700003FF0446FFF7EBFF204610BD2DE9F8438B
:1045800090B10F4616461C460546B1B1022C20D10B
:10459000EB6B012B1DD04FF0500383F31188BFF359
:1045A0006F8FBFF34F8FFEE74FF0500383F31188F7
:1045B000BFF36F8FBFF34F8FFEE7036C002BE5D087
:1045C0004FF0500383F31188BFF36F8FBFF34F8F0A
:1045D000FEE7FFF799FCEFF311894FF0500383F3E7
:1045E0001188BFF36F8FBFF34F8FAA6BEB6B9A42AB
:1045F00006D3022C04D0002089F31188BDE8F8838B
:1046000095F845804FFA88F8224639462846FFF744
:10461000DFFDB8F1FF3F06D008F101035BB285F87A
:1046200045300120E8E76B6A0BB90120E4E705F1AA
:10463000240000F083FD18B126B101203060DBE7D3
:104640000120D9E70120D7E7F0B585B0019290B1FC
:104650000F460446C1B100F04FFE064600BB019B69
:10466000002B5ED04FF0500383F31188BFF36F8FA0
:10467000BFF34F8FFEE74FF0500383F31188BFF372
:104680006F8FBFF34F8FFEE7036C002BE3D04FF02B
:10469000500383F31188BFF36F8FBFF34F8FFEE793
:1046A00000263EE039462046FFF7CDFD013DA563DB
:1046B000236923B9FFF760FB012005B0F0BD04F1C9
:1046C000100000F03BFD0028F4D04FF0E0234FF045
:1046D0008052C3F8042DBFF34F8FBFF36F8FE9E70C
:1046E000FFF74AFB0020E8E702A800F0B1FD012631
:1046F00021E0002384F8443029E0002384F8453089
:104700002BE02046FFF7B1FD00F0E6FB09E0204674
:10471000FFF7ABFD00F0E0FB2046FFF74CFD002863
:104720003FD1FFF707FBA56B002DBBD1019B002BF1
:10473000D6D0002ED8D0FFF71FFB00F039FBFFF7D3
:10474000F9FA94F844305BB2B3F1FF3FD1D094F85A
:1047500045305BB2B3F1FF3FCFD0FFF70DFB01A9AE
:1047600002A800F081FD0028D1D12046FFF723FDEB
:104770000028C6D0019904F1240000F09BFC2046DB
:10478000FFF773FD00F0A8FB0028CAD14FF0E0232B
:104790004FF08052C3F8042DBFF34F8FBFF36F8FDC
:1047A000BFE7002089E770B584B0019158B1044695
:1047B000036C8BB14FF0500383F31188BFF36F8FFD
:1047C000BFF34F8FFEE74FF0500383F31188BFF321
:1047D0006F8FBFF34F8FFEE700F08EFD054650B997
:1047E000019B5BB14FF0500383F31188BFF36F8FD0
:1047F000BFF34F8FFEE70026354655E0064653E0EF
:10480000013BA36323683BB123694BB9FFF7B4FABB
:104810000126304604B070BD00F0A2FE6060F3E7F0
:1048200004F1100000F08AFC0028EFD04FF0E023E4
:104830004FF08052C3F8042DBFF34F8FBFF36F8F3B
:10484000E4E746B14FF0500383F31188BFF36F8F55
:10485000BFF34F8FFEE7FFF78FFADAE702A800F009
:10486000F7FC01252AE0002384F8443032E00023DD
:1048700084F8453034E0FFF75DFA606800F04CFDE5
:104880000646FFF779FA3BE02046FFF7EEFC00F022
:1048900023FB09E02046FFF7E8FC00F01DFB204663
:1048A000FFF789FC002842D1FFF744FAA36B002BE5
:1048B000A6D1019B002BC4D0002DCFD0FFF75CFA0E
:1048C00000F076FAFFF736FA94F844305BB2B3F1B1
:1048D000FF3FC8D094F845305BB2B3F1FF3FC6D07C
:1048E000FFF74AFA01A902A800F0BEFC0028D1D1C6
:1048F0002046FFF760FC0028C6D02368002BBAD002
:10490000019904F1240000F0D5FB2046FFF7ADFC2F
:1049100000F0E2FA0028C7D14FF0E0234FF08052B8
:10492000C3F8042DBFF34F8FBFF36F8FBCE70EB9F1
:1049300000266EE7FFF7FEF92046FFF725FC01464B
:10494000606800F0A1FDFFF717FAF1E7084B1B685C
:104950001B6823B9074B4FF0FF321A607047044BB6
:104960001B68DB68DB685A68024B1A60704700BF3F
:1049700080350020583600202DE9F047074698463C
:10498000089DDDF824900A9C266B02F18042013AD2
:1049900006EB820626F007064FF0000CBCF10F0F65
:1049A0000BD811F80C2004EB0C0383F8342011F819
:1049B0000C3013B10CF1010CF0E7002384F8433004
:1049C000062D00D90625E56265644FF0000AC4F89B
:1049D00048A0201DFFF71DF904F11800FFF719F991
:1049E0002461C5F10705A5616462C4F84CA084F890
:1049F00050A0424639463046FFF776F92060B9F1BB
:104A0000000F01D0C9F80040BDE8F08738B5002498
:104A100007E004EB840293000E481844FFF7EEF819
:104A20000134062CF5D90C4D2846FFF7E7F80B4C5E
:104A30002046FFF7E3F80A48FFF7E0F80948FFF7D8
:104A4000DDF80948FFF7DAF8084B1D60084B1C60D9
:104A500038BD00BF883500202C36002040360020AD
:104A6000603600208C36002078360020803500200B
:104A70008435002010B50446FFF75CF9214A13681D
:104A800001331360204B1B685BB1204B1B686BB973
:104A90001D4B1B68DA6AE36A9A4207D81A4B1C60FE
:104AA00004E0194B1C601368012B28D0184A1368C6
:104AB00001331360E06A01238340164A11680B43F7
:104AC000136000EB8000211D134B03EB8000FFF708
:104AD000A3F8FFF751F90D4B1B687BB10A4B1B681C
:104AE000DA6AE36A9A4209D24FF0E0234FF080522B
:104AF000C3F8042DBFF34F8FBFF36F8F10BDFFF7C7
:104B000085FFD3E7143600207C3500207436002062
:104B100024360020283600208835002010B50446B1
:104B200090F8513063B1012B11D0022B0ED04FF011
:104B3000500383F31188BFF36F8FBFF34F8FFEE7EE
:104B4000006BFFF7E9FA2046FFF7E6FA10BDFFF722
:104B5000E3FAFBE70F4B1B68D3B110B5FFF7EAF898
:104B60000D4BDB68DC68201DFFF77AF80B4A1368F1
:104B7000013B1360074A1368013B1360FFF7FCF821
:104B80002046FFF7CBFF034B1B68002BE6D110BD7F
:104B9000704700BF183600208C36002014360020E5
:104BA00008B5FFF7D7FF074B1B68012BF9D94FF06A
:104BB000E0234FF08052C3F8042DBFF34F8FBFF3B3
:104BC0006F8FEEE78835002070B504460D461D4B0B
:104BD0001E681D4B18680430FFF742F850B91A4B95
:104BE0001B68DA6A012303FA02F218490B6823EA08
:104BF00002030B60B4F1FF3F0DD03444124B1B682D
:104C00005C60A64210D9124B18680F4B196804312A
:104C1000FFF70DF870BD002DEFD00B4B1968043174
:104C20000C48FEF7F9FFF5E70B4B1868064B1968BF
:104C30000431FEF7FCFF094B1B68A342EAD9074B7E
:104C40001C60E7E7A03600207C35002028360020D5
:104C5000843500207836002080350020583600202A
:104C600030B587B00B9C7CB10C9DB5B15425049533
:104C7000049D542D1AD04FF0500383F31188BFF3D5
:104C80006F8FBFF34F8FFEE74FF0500383F3118810
:104C9000BFF36F8FBFF34F8FFEE74FF0500383F3E7
:104CA0001188BFF36F8FBFF34F8FFEE70C9D2C630E
:104CB000022485F8514000240394029505AC019428
:104CC0000A9C0094FFF758FE0C98FFF7D3FE059856
:104CD00007B030BD2DE9F04385B00746884614463D
:104CE0001E469000FFF7A0F900B381465420FFF75D
:104CF0009BF90546B0B1C0F83090E5B1002385F8C6
:104D00005130039302950D9B01930C9B0093334606
:104D1000224641463846FFF72FFE2846FFF7AAFEF7
:104D2000012005E04846FFF7F7F9E6E74FF0FF30CE
:104D300005B0BDE8F0834FF0FF30F9E710B588B05B
:104D400000240594069407AA06A905A8FBF768FBAA
:104D5000059B0293069B019300942346079A0E49F4
:104D60000E48FFF77DFF0E4B186090B14FF05003D7
:104D700083F31188BFF36F8FBFF34F8F094B4FF051
:104D8000FF321A60084B01221A60084B1C60FFF7C3
:104D90005BF808B010BD00BFA4590008A14B000883
:104DA000543600205836002074360020A0360020EB
:104DB000024A136801331360704700BF2036002099
:104DC000F8B53A4B1B68002B64D1394B1D6801358F
:104DD0001D60C5B9374B1B681B6843B14FF05003CA
:104DE00083F31188BFF36F8FBFF34F8FFEE7314A14
:104DF0001168314B186810601960304A136801332C
:104E00001360FFF7A3FD2E4B1B68AB4238D9002778
:104E10002C4B1B68DB6A03EB83039A002A4B9B58DD
:104E2000012B3CD901273AE00127224B1B681B6864
:104E300043B3204B1B68DB68DC6863689D4226D364
:104E4000261D3046FEF70CFFA36A1BB104F11800C3
:104E5000FEF706FFE36A01229A401C4908680243F4
:104E60000A6003EB83039A00314617481044FEF7AB
:104E7000D3FEE26A134B1B68DB6A9A42D4D2D4E7B2
:104E80000027D2E70E4B4FF0FF321A60C0E70C4A02
:104E90001360BDE70E4A13680133136000270D4B02
:104EA0001B6803B101273846F8BD00BF203600203B
:104EB000A036002080350020843500205C3600209C
:104EC000583600207C350020883500202836002008
:104ED0001C360020A436002038B5354B1B6843B97A
:104EE0004FF0500383F31188BFF36F8FBFF34F8FE1
:104EF000FEE7FEF71FFF2E4B1A68013A1A601B6887
:104F0000002B4FD12B4B1B680BB900244BE0002426
:104F1000294B1B681BB3284BDB68DC6804F11800C5
:104F2000FEF79EFE251D2846FEF79AFEE06A012345
:104F30008340224A11680B43136000EB800029462E
:104F40001F4B03EB8000FEF767FEE26A1D4B1B68F8
:104F5000DB6A9A42DCD31C4B01221A60D8E70CB101
:104F6000FFF7F4FC194B1C6884B9174B1C68D4B1CB
:104F70004FF0E0234FF08052C3F8042DBFF34F8F62
:104F8000BFF36F8F01240EE0013C07D0FFF718FF3D
:104F90000028F9D00C4B01221A60F5E70B4B0022D8
:104FA0001A60E2E70024FEF7E7FE204638BD00BFA6
:104FB00020360020143600206036002028360020DD
:104FC000883500207C350020A43600201C360020C7
:104FD00010B5A8B10446104B1B6843B14FF0500305
:104FE00083F31188BFF36F8FBFF34F8FFEE7FFF797
:104FF000DFFE00212046FFF7E7FDFFF76DFF48B910
:105000004FF0E0234FF08052C3F8042DBFF34F8FD1
:10501000BFF36F8F10BD00BF20360020204B1B68F0
:105020001BB1204B01221A6070471E4B00221A60F0
:105030001D4B1B68B3FA83F3DBB2C3F11F0303EB11
:1050400083018A0019498A5842B94FF0500383F30B
:105050001188BFF36F8FBFF34F8FFEE7134903EB48
:10506000830082000A4450684068506003EB830C60
:105070004FEA8C0208321144884209D003EB8303C3
:105080009A000A4B13445B68DA68094B1A60704750
:10509000406862469100054A0A445060EEE700BF4E
:1050A00020360020A4360020283600208835002035
:1050B0007C35002058B110B50C46094A11681831EA
:1050C000FEF7B5FD01212046FFF77EFD10BD4FF034
:1050D000500383F31188BFF36F8FBFF34F8FFEE749
:1050E0007C35002070B110B514460246114B1B6888
:1050F0008BB94FF0500383F31188BFF36F8FBFF369
:105100004F8FFEE74FF0500383F31188BFF36F8F8B
:10511000BFF34F8FFEE7084B186841F000418161F3
:10512000196818311046FEF777FD01212046FFF778
:105130004BFD10BD203600207C35002038B5C368FB
:10514000DC6824B304F118052846FEF789FD184BE6
:105150001B682BBB251D2846FEF782FDE06A012354
:105160008340144A11680B43136000EB800029460A
:10517000114B03EB8000FEF74FFDE26A0F4B1B68FB
:10518000DB6A9A4211D901200D4B186038BD4FF0EF
:10519000500383F31188BFF36F8FBFF34F8FFEE788
:1051A00029460848FEF738FDE7E70020EEE700BF94
:1051B0002036002028360020883500207C3500204D
:1051C000A43600206036002038B51C4B1B6843B95C
:1051D0004FF0500383F31188BFF36F8FBFF34F8FEE
:1051E000FEE741F000410160C468F4B1FEF738FD0C
:1051F000251D2846FEF734FDE06A01238340104A4E
:1052000011680B43136000EB800029460D4B03EB44
:105210008000FEF701FDE26A0B4B1B68DB6A9A42D5
:1052200002D90A4B01221A6038BD4FF0500383F3B4
:105230001188BFF36F8FBFF34F8FFEE7203600203A
:1052400028360020883500207C350020A436002038
:10525000034B1B680360034B1B684360704700BF30
:105260005C360020A0360020D8B170B50C4605464B
:1052700001B3FEF75FFD1B4B19686B68C81A226803
:10528000B2F1FF3F27D0184E3668D5F800C0B445BC
:1052900001D08B4224D9824215D8002323600124F7
:1052A0001AE04FF0500383F31188BFF36F8FBFF301
:1052B0004F8FFEE74FF0500383F31188BFF36F8FDA
:1052C000BFF34F8FFEE75B1A134423602846FFF7B6
:1052D000BFFF002400E00024FEF74EFD204670BD15
:1052E0000124F9E7A03600205C360020014B0122A2
:1052F0001A607047A4360020054B1B6833B1054B7C
:105300001B680BB1002070470220704701207047D6
:105310007436002020360020002851D038B50446CD
:10532000C36A294A1268D26A934241D28269002A2A
:1053300005DB254A1268D26AC2F1070282616169FF
:1053400003EB8303214A02EB8303994205D01E4BF2
:105350001B68DB6AE362012038BD251D2846FEF785
:105360007FFCA0B1184B1B68D86AE062012404FAE4
:1053700000F3174A11680B43136000EB80002946C5
:10538000124B03EB8000FEF747FC2046E4E7E26A9D
:1053900002EB82039B000D49CB58002BE2D1012385
:1053A00003FA02F20A490B6823EA02030B60D9E709
:1053B000426C054B1B68DB6A9A4203D30020CBE7A3
:1053C000002070470120C7E77C3500208835002089
:1053D0002836002000284CD038B50446274B1B68DF
:1053E000834208D04FF0500383F31188BFF36F8FCF
:1053F000BFF34F8FFEE7836C43B94FF0500383F345
:105400001188BFF36F8FBFF34F8FFEE7013B8364BB
:10541000C16A426C91422ED00BB1002038BD051DEF
:105420002846FEF71DFC70B9E26A02EB82039B007E
:105430001349CB583BB9012303FA02F211490B6817
:1054400023EA02030B60606CE062C0F10703A36112
:10545000012404FA00F30B4A11680B43136000EBBC
:1054600080002946064B03EB8000FEF7D5FB204663
:10547000D4E7002070470020D0E700BF7C35002033
:105480008835002028360020002856D038B504463C
:10549000836C43B94FF0500383F31188BFF36F8FD0
:1054A000BFF34F8FFEE7426C8A4200D20A46E16AA0
:1054B000914201D0012B00D038BD204B1B68A34284
:1054C00032D0E262A369002B02DBC2F10702A261C3
:1054D000626901EB81011A4B03EB81018A42EBD136
:1054E000251D2846FEF7BCFB70B9E26A02EB820379
:1054F0009B001349CB583BB9012303FA02F211492F
:105500000B6823EA02030B60E06A012383400D4A23
:1055100011680B43136000EB80002946084B03EB36
:105520008000FEF779FBC7E74FF0500383F3118843
:10553000BFF36F8FBFF34F8FFEE770477C350020BE
:105540008835002028360020044A136898691368BB
:10555000DB6A1268C3F10703936170477C35002052
:10556000054B1B6823B1044B1A68936C0133936499
:10557000014B1868704700BF7C35002070B50D4E98
:105580000D4D761BB61006D0002455F8043B0134AF
:105590009847A642F9D1094E094D00F0D5F8761B7F
:1055A000B61006D0002455F8043B01349847A642B3
:1055B000F9D170BDB0590008B0590008B8590008B9
:1055C000B0590008830730B548D0541E002A3FD098
:1055D0000346CAB201E0013C3AD303F8012B9D0710
:1055E000F9D1032C2DD9CDB245EA05250F2C45EA7A
:1055F000054536D9A4F1100222F00F0C03F1200E5C
:10560000E6444FEA121C03F1100242E9045542E954
:10561000025510327245F8D10CF1010214F00C0F52
:1056200003EB021204F00F0C13D0ACF1040323F0CF
:1056300003030433134442F8045B9342FBD10CF0A0
:1056400003042CB1CAB21C4403F8012B9C42FBD1C9
:1056500030BD64461346002CF4D1F9E703461446E6
:10566000BFE71A46A446E0E7024B13B1024800F038
:1056700005B8704700000000895600080023014665
:105680001A46184600F01AB838B5084B084D5B1B8F
:105690009C1007D0043B1D44013C55F80439984741
:1056A000002CF9D1BDE8384000F054B8BC590008CE
:1056B000B8590008704700BF704700BF2DE9F04798
:1056C000DFF87CA00646DAF8000098460F469146BF
:1056D000FFF7F0FF1B4B1B68D3F8484124B3656804
:1056E0001F2D26DC5EB96B1C0235DAF80000636002
:1056F00044F82570FFF7E0FF0020BDE8F0870123A4
:1057000004EB8501C1F88890D4F88821AB401A4396
:10571000022EC4F88821C1F80881E4D1D4F88C2184
:105720001343C4F88C31DEE703F5A674C3F848418F
:10573000D5E7DAF80000FFF7BFFF4FF0FF30DCE7F6
:1057400040040020AC590008F8B500BFF8BC08BC04
:105750009E467047F8B500BFF8BC08BC9E4670472F
:10576000245800083D02000800000000000000006E
:105770008000000000000000000000003058000819
:10578000510200080300000000000000800000003B
:1057900000000000000000004058000879090008DF
:1057A000FFFF00000000000080000000000000007B
:1057B000000000004C580008A90C0008FDFF000084
:1057C00000000000000100000000000000000000D8
:1057D0005858000847020008FDFF000000000000C4
:1057E0008000000000000000000000006458000875
:1057F000E1110008FDFF0000000000008000000033
:105800000000000000000000745800084912000861
:10581000FDFF00000000000080000000000000000C
:105820000000000064656661756C745461736B0000
:1058300055617274315265616448616E646C6500D3
:105840004750494F5461736B000000006D757369D8
:10585000635461736B0000006D794153435461736D
:105860006B00000047616D65466C61675461736B46
:105870000000000047616D655461736B000000001B
:1058800000000000000000000102030406070809F0
:1058900000000000010203042F30322E6D7033002F
:1058A0002F30332E6D7033002F31342E6D70330056
:1058B0002F31352E6D7033002F31362E6D70330041
:1058C0002F342E6D703300002F31382E6D70330061
:1058D0002F32302E6D7033002F32312E6D70330029
:1058E0002F32332E6D7033002F32352E6D70330012
:1058F0002F32362E6D7033002F32372E6D703300FD
:105900002F32382E6D7033002F33302E6D703300F0
:105910002F33312E6D7033002F33322E6D703300E4
:105920002F33332E6D7033002F34312E6D703300D2
:105930002F33352E6D7033002F33362E6D703300BC
:105940002F33372E6D7033002F33382E6D703300A8
:105950002F34302E6D7033002F33392E6D7033009D
:105960002F33342E6D7033002F34322E6D70330090
:105970002F34332E6D7033002F34342E6D7033007E
:105980002F34352E6D7033002F34362E6D7033006A
:1059900002030405060708090A0B0C0D0E0F101070
:1059A0000102000049444C4500000000180000209E
:0859B0006956000835010008EA
:0459B80011010008D1
:1059BC000024F400640000006400000001000000FA
:1059CC0010000000AAAAAAAA0000000004030020EC
:1059DC006C030020D4030020000000000000000035
:1059EC0000000000000000000000000000000000AB
:1059FC00000000000000000000000000000000009B
:105A0C00000000000000000000000000000000008A
:105A1C00000000000000000000000000000000007A
:105A2C00000000000000000000000000000000006A
:105A3C00000000000000000000000000000000005A
:105A4C00000000000000000000000000000000004A
:105A5C00000000000000000000000000000000003A
:105A6C00000000000000000000000000000000002A
:105A7C0001000000000000000E33CDAB34126DE6C7
:105A8C00ECDE05000B000000000000000000000030
:105A9C0000000000000000000000000000000000FA
:105AAC0000000000000000000000000000000000EA
:105ABC0000000000000000000000000000000000DA
:105ACC0000000000000000000000000000000000CA
