:020000040800F2
:1000000000500020AD250008C90E0008CB0E0008E6
:10001000CD0E0008CF0E0008D10E00080000000031
:10002000000000000000000000000000013E000889
:10003000D30E000800000000A13E0008E53E0008C5
:10004000F5250008F5250008F5250008F525000828
:10005000F5250008F5250008F5250008F525000818
:10006000F5250008F5250008F5250008F525000808
:10007000F5250008F5250008F5250008F5250008F8
:10008000F5250008F5250008F5250008F5250008E8
:10009000F5250008F5250008F5250008F5250008D8
:1000A000F5250008F5250008F5250008F5250008C8
:1000B000D50E0008F5250008F5250008F5250008EF
:1000C000F5250008F5250008F5250008F5250008A8
:1000D000F5250008E50E0008F50E0008050F0008DC
:1000E000F5250008F5250008F525000800000000AA
:1000F0000000000000000000000000000000000000
:0C01000000000000000000005FF808F1A3
:1001100010B5054C237833B9044B13B10448AFF341
:1001200000800123237010BD440400200000000063
:100130003858000808B5034B1BB103490348AFF317
:10014000008008BD00000000480400203858000866
:10015000844641EA000313F0030349D1403A23D314
:100160000B6803604B6843608B688360CB68C36037
:100170000B6903614B6943618B698361CB69C3611F
:100180000B6A03624B6A43628B6A8362CB6AC36207
:100190000B6B03634B6B43638B6B8363CB6BC363EF
:1001A00040304031403ADBD230320BD30B68036031
:1001B0004B6843608B688360CB68C360103010313C
:1001C000103AF3D20C3205D351F8043B40F8043B0B
:1001D000043AF9D2043208D0D2071CBF11F8013B0F
:1001E00000F8013B01D30B8803806046704700BFD5
:1001F000082A13D38B07B1D010F00303AED0C3F19C
:100200000403D21ADB071CBF11F8013B00F8013BC5
:10021000A4D331F8023B20F8023B9FE7043AD9D33C
:10022000013A11F8013B00F8013BF9D20B78037059
:100230004B7843708B7883706046704708B5012017
:1002400003F040FCFBE708B5012003F03BFCFBE7B3
:1002500000B5A7B098E09DF85430012B0FD0002BCB
:1002600040F092809DF853305A0903F01F0301219A
:100270009940624B53F8220003F0CBFC84E09DF8D8
:1002800053305A0903F01F03012199405B4B53F887
:10029000220003F0E1FC77E09DF85330ADF8043024
:1002A0009DF85430003B18BF01238DF80630002321
:1002B0001A4601A95248006804F0FDF8012863D0ED
:1002C000EE238DF851304FF0FF33BDF894200DF13F
:1002D00051014C4803F05AF956E04B4B01939DF8FD
:1002E00053308DF80830259A043A139215A90DF170
:1002F0000900FFF72DFF00231A4601A943480068B3
:1003000004F0D9F801283FD0EE238DF851304FF09A
:10031000FF33BDF894200DF151013A4803F036F94E
:1003200032E03B4B01939DF853308DF80830259A0D
:10033000043A139215A90DF10900FFF709FF0023F4
:100340001A4601A93148006804F0B5F801281BD00D
:10035000EE238DF851304FF0FF33BDF894200DF1AE
:100360005101284803F012F90EE09DF853308DF842
:1003700004309DF854308DF8053000231A4601A949
:100380002448006804F097F84FF0FF3214A9224B7C
:10039000186804F0D1F90128F6D19DF85230013BDC
:1003A0000F2BF1D801A252F823F000BF570200082A
:1003B00099020008DB020008230300086B03000811
:1003C00089030008890300088903000889030008DD
:1003D00089030008890300088903000889030008CD
:1003E0008903000889030008ED03000800231A466A
:1003F00019460A48006804F05EF8C5E7700400205A
:100400008404002030080020780800207C040020AC
:10041000C0080020680400208C0400209C040020F8
:10042000034B0360034B0B6080231360704700BFD6
:10043000A0060020A004002010B5B2B0002405E002
:1004400003F055FB5B4B43F824000134012CF7DD2E
:1004500003F04DFB584B186000F064FF03220021AD
:10046000012004F001F8554B1860002248210F20AC
:1004700003F0FAFF524B1860002248210F2003F0CE
:10048000F3FF504B1860002204214FF4807003F0FA
:10049000EBFF4D4B186000224C210F2003F0E4FFCE
:1004A0004A4B1860002202210F2003F0DDFF484B69
:1004B0001860484C0DF1AC0CA646BEE80F00ACE845
:1004C0000F009EE807008CE8070000212BA803F02E
:1004D000C4FA414B18600DF1900C04F11C0EBEE8FB
:1004E0000F00ACE80F009EE807008CE80700002131
:1004F00024A803F0B2FA394B18600DF1740C04F122
:10050000380EBEE80F00ACE80F009EE807008CE84C
:10051000070000211DA803F0A0FA314B18600DF16F
:10052000580C04F1540EBEE80F00ACE80F009EE832
:1005300007008CE80700002116A803F08EFA294B6B
:1005400018600DF13C0C04F1700EBEE80F00ACE831
:100550000F009EE807008CE8070000210FA803F0B9
:100560007CFA214B18600DF1200C04F18C0EBEE8D2
:100570000F00ACE80F009EE807008CE807000021A0
:1005800008A803F06AFA194B18600DF1040E04F183
:10059000A80CBCE80F00AEE80F009CE807008EE84E
:1005A0000700002101A803F058FA114B186032B07F
:1005B00010BD00BF70040020780400209C040020BF
:1005C0008C04002080040020840400207C0400208F
:1005D000680400205058000890040020880400207F
:1005E000600400209404002098040020640400208B
:1005F0006C0400202DE9F04188B000240494059497
:10060000069407942D4B9A6942F020029A619A69E8
:1006100002F020020192019A9A6942F004029A6162
:100620009A6902F004020292029A9A6942F0080260
:100630009A619B6903F008030393039BDFF88080B2
:10064000224648F2B001404602F0DBF91D4D224639
:1006500043F2F831284602F0D4F9022704970594B2
:100660000126069604A9404602F0B2F848F2B0030B
:10067000049305960694079704A9404602F0A8F84B
:10068000042304930594069604A9284602F0A0F8D2
:1006900043F2F833049305960694079704A9284675
:1006A00002F096F84FF4804304930594069404A94D
:1006B000284602F08DF808B0BDE8F0810010024035
:1006C00000080140000C014038B5044602784FF4A0
:1006D0000041154802F095F9144D6278082128462A
:1006E00002F08FF9A2781021284602F08AF9E27808
:1006F0002021284602F085F922794021284602F07F
:1007000080F962798021284602F07BF9A2794FF4C2
:100710008071284602F075F9E2794FF4007128469D
:1007200002F06FF938BD00BF00080140000C014025
:1007300070B506464C1E13E001228021154802F0D8
:1007400060F9144D00222021284602F05AF90120B8
:1007500003F0B8F901222021284602F052F9013CA9
:10076000072C08DD335D002BE6D1002280210948EB
:1007700002F047F9E5E7074C00221021204602F07D
:1007800040F9012003F09EF901221021204602F0D9
:1007900038F970BD0008014010B50446FFF794FF1A
:1007A00040212046FFF7C4FF10BD000000B583B014
:1007B000ADF804008DF8061000231A4601A903487D
:1007C000006803F078FE03B05DF804FB84040020A9
:1007D000F8B504460D46294E00224FF480513046AC
:1007E00002F00FF9012003F06DF901224FF480515E
:1007F000304602F006F9012003F064F94FF480411D
:10080000304602F0F7F8B0FA80F040092070012677
:1008100019E01A4F00224FF40051384602F0F1F867
:10082000012003F04FF901224FF40051384602F045
:10083000E8F84FF48041384602F0DCF8B0FA80F076
:100840004009A0550136AE42E3DB4FF0000C0FE04B
:100850000CEB030014F800E0C3F107026244A15C52
:10086000215404F802E00133032BF1DD0CF1080CF4
:10087000AC4501DA0023F7E7F8BD00BF000C0140EA
:10088000014B185C704700BFF4060020044B1A5C53
:10089000044B1B5C9A4201D0012070470020704736
:1008A000F40600205807002010B582B02021FFF781
:1008B0008FFF002418E02A4A82FB0432E317C3EBBF
:1008C000A20303EB4302A4EBC20201219140254A9B
:1008D00052F8230003F0C0F9234B1B6813BB234BD2
:1008E0001A5D234B1A5501341F2C33DC2046FFF7C9
:1008F000CDFF0028F7D02046FFF7C2FF0128DAD04D
:10090000174A82FB0432E317C3EBA20303EB430253
:10091000A4EBC20201219140124A52F8230003F0D5
:1009200078F9D9E7CC238DF8003001238DF8013018
:100930008DF802402046FFF7A3FF8DF80300FF2348
:100940008DF804304FF0FF3305226946094802F064
:100950001DFEC4E7044B01221A6002B010BD00BFA7
:10096000ABAAAA2A7004002014070020F406002075
:10097000580700203008002010B584B066E0BDF8AC
:100980000C203B4B995C9DF80E30994266D038495B
:100990008B54CC218DF8041002218DF805108DF8B0
:1009A0000620012B14BF002301238DF80730FF23FD
:1009B0008DF808304FF0FF33052201A92D4802F0D1
:1009C000E5FD4BE001341F2C18DC2B4B1B5D012B8C
:1009D000F8D1CC238DF8043001238DF805308DF843
:1009E00006408DF80730FF238DF808304FF0FF33B5
:1009F000052201A91F4802F0C9FDE3E7002400E039
:100A000001343F2C19DC1A4B1B5D012BF8D1CC2390
:100A10008DF8043002238DF805308DF8064001234F
:100A20008DF80730FF238DF808304FF0FF33052293
:100A300001A9104802F0AAFDE2E7012003F042F804
:100A40000B48FFF7A9FE0C48FFF72EFF002203A971
:100A50000A4B186803F070FE012890D00021084B63
:100A6000186803F018FF0128E7D10024ABE700BFA6
:100A70001807002030080020F4060020840400201D
:100A80009C04002008B50368B3F1804F00D008BD76
:100A900001F0C4FDFBE772B6FEE700B591B0282275
:100AA000002106A804F006FE00230193029303939D
:100AB00004930593012206924FF4803307930A9220
:100AC00002220D920E934FF4E0130F9306A801F04B
:100AD000B5FF80B90F2301930221029100230393F4
:100AE0004FF480620492059301A802F0D9F920B96D
:100AF00011B05DF804FBFFF7CEFFFFF7CCFF00005D
:100B000008B501F079FDFFF7C8FFFFF773FD00F0AE
:100B100003FA00F01BFA00F033FA012209490A48EF
:100B200002F07DFF01220949094802F078FF012205
:100B30000849094802F073FFFFF77EFC02F088FFC6
:100B4000FEE700BF78070020300800209C07002047
:100B500078080020C0070020C00800202DE9F041DF
:100B600000AF8046084611461E46DC1C0B3323F0BE
:100B70000703ADEB030D6D468DF80000C0438DF803
:100B800001008DF8026032460DF10300FFF7E0FA34
:100B900000210DF8041006E015F801C02B5D9C44FF
:100BA00005F804C00131A142F6D3321D4FF0FF33E6
:100BB00092B22946404602F0E9FCC82002F082FFCA
:100BC000BD46BDE8F0810000402A00D970472DE9FC
:100BD000F04F95B005460F4614461E464C220021A4
:100BE00001A804F067FD01954FF00B0B8DF808B0DC
:100BF0004FF00209CDF84C904FF004088DF80880B2
:100C00000A238DF809304FF0010ACDF84CA0174D9A
:100C100000231A460DEB0801286803F04CFC8DF800
:100C200008B08DF809A08DF80A60CDF84C9000232B
:100C30001A460DEB0801286803F03DFC8DF808808A
:100C400007238DF80930224639460DF10A00FFF7D7
:100C50007FFA5444139400231A460DEB08012868C8
:100C600003F029FC15B0BDE8F08F00BF7C04002024
:100C700010B594B004464C22002101A804F01AFDDE
:100C8000019404238DF808300123139302238DF877
:100C9000093000231A4601A90248006803F00BFC42
:100CA00014B010BD7C04002070B5B6B002214348DA
:100CB00001F0A0FE05460421414801F09BFE0446D8
:100CC00057E0359B0DF191029DF890102398FFF7A6
:100CD00045FF56E0CC238DF800309DF844308DF868
:100CE0000130229E32460DF145010DF10200FFF761
:100CF0002FFA06F1DA036B44FF2203F8D82CF21C1A
:100D00004FF0FF3392B269462E4802F03FFC40E0BC
:100D100002212A4801F06EFE00283CD101212A4B15
:100D2000186802F076FF36E00221244801F062FEE6
:100D3000012832D10121244B186802F08DFF2CE0EC
:100D400004211F4801F056FE48BB4FF480711E4B32
:100D5000186802F05EFF22E00221184801F04AFE06
:100D600005460421164801F045FE0446012002F024
:100D7000A9FE002223A9154B186803F0DDFC012809
:100D80009FD0002211A9124B186803F0D5FC01284E
:100D9000A0D0012DBCD0002DC6D0012CD0D0002C6D
:100DA000DAD10421064801F025FE0128D4D14FF400
:100DB0008071054B186802F04FFFCDE70008014035
:100DC000000C014030080020780400207C04002042
:100DD0008004002000B583B0114B9A6942F00102F3
:100DE0009A619A6902F001020092009ADA6942F06F
:100DF0008052DA61DB6903F080530193019B00228A
:100E00000F216FF0010001F02DFC064A536823F01A
:100E1000E06343F00073536003B05DF804FB00BF70
:100E2000001002400000014030B589B00446224B5A
:100E3000DA6942F00102DA61DB6903F00103019330
:100E4000019B02A903A802F007F9069BD3B902F09F
:100E5000E3F803461948A0FB03239B0C013B184809
:100E60004FF08042026040F2E732C26043600023EC
:100E700003618360836102F03FFA054630B1284682
:100E800009B030BD02F0C8F84300E3E70C4802F0B7
:100E900003F905460028F2D11C2001F01BFC0F2CA1
:100EA00001D90125EBE7002221461C2001F0DAFBE5
:100EB000044B1C60E3E700BF0010024083DE1B43CD
:100EC000E407002010000020FEE7FEE7FEE7FEE753
:100ED000FEE7704708B5024802F016F908BD00BFEA
:100EE000E407002008B5024802F03AFC08BD00BF44
:100EF0003008002008B5024802F032FC08BD00BFEF
:100F00007808002008B5024802F02AFC08BD00BF9E
:100F1000C00800207047000008B50A480A4B03606B
:100F20004FF4E133436000238360C36003610C220C
:100F300042618361C36102F0F9FA00B908BDFFF7AD
:100F4000AAFDFBE7300800200038014008B50A4838
:100F50000A4B03604FF41653436000238360C36061
:100F600003610C2242618361C36102F0DFFA00B9C0
:100F700008BDFFF790FDFBE7780800200044004023
:100F800008B50A480A4B03604FF416534360002328
:100F90008360C36003610C2242618361C36102F01C
:100FA000C5FA00B908BDFFF776FDFBE7C0080020D1
:100FB0000048004030B58BB0002306930793089398
:100FC000099303684F4A934207D04F4A934236D061
:100FD0004E4A934263D00BB030BD4D4B9A6942F4F8
:100FE00080429A619A6902F480420092009A9A695A
:100FF00042F004029A619B6903F004030193019B90
:101000004FF4007306930223079303230993414D82
:1010100006A9284601F0DCFB4FF480630693002408
:101020000794089406A9284601F0D2FB2246052120
:10103000252001F017FB252001F04CFBCBE7344BBA
:10104000DA6942F40032DA61DA6902F400320292BB
:10105000029A9A6942F004029A619B6903F00403C0
:101060000393039B0423069302230793032309930B
:10107000284D06A9284601F0ABFB0823069300245F
:101080000794089406A9284601F0A2FB22460521F0
:10109000262001F0E7FA262001F01CFB9BE71C4B01
:1010A000DA6942F48022DA61DA6902F48022049279
:1010B000049A9A6942F008029A619B6903F0080356
:1010C0000593059B4FF48063069302230793032344
:1010D0000993114D06A9284601F07AFB4FF40063ED
:1010E000069300240794089406A9284601F070FB93
:1010F00022460521272001F0B5FA272001F0EAFA5F
:1011000069E700BF0038014000440040004800404B
:101110000010024000080140000C014010B594B0DE
:1011200003686D4A934208D06C4A934242D06C4A9D
:10113000934200F0888014B010BD6A4B1B786A4A55
:10114000D35CCC2B18D0694B1B6863B1036858681B
:10115000644B19784A1CD2B21A70634B5854511E12
:101160005B5CFF2B0FD05F4B1B7801225E4919445B
:101170005F4802F054FCDEE75C4B01221A60594BD9
:1011800000221A70DFE70024019402238DF8083052
:10119000139255490DF10900FEF7DAFF234601AA23
:1011A00002A95448006803F061FA504B1C604D4B93
:1011B0001C70D8E7504B1B78012B12D0022B24D087
:1011C0004E4A1278D11C8B4227D001334A4A137001
:1011D000494B1B7801224A4919444A4802F01FFC36
:1011E000A9E7474A51781278D243D2B2914205D04A
:1011F000414B00221A70424B1970E9E7424A012123
:1012000011600B443C4A1370E2E73D4A91783B4A37
:1012100011700133384A1370DAE70024364B1C7022
:1012200003238DF808300432139235490DF109007B
:10123000FEF78EFF0194234601AA02A933480068F5
:1012400003F014FAC4E7324B1B78012B12D0022BA7
:1012500024D0304A1278D11C8B4227D001332C4A3B
:1012600013702B4B1B7801222B4919442B4802F099
:10127000D6FB60E7284A51781278D243D2B2914225
:1012800005D0234B00221A70234B1970E9E7244A3A
:10129000012111600B441E4A1370E2E71E4A917847
:1012A0001C4A117001331A4A1370DAE70024184BF4
:1012B0001C7004238DF808301A44139216490DF15E
:1012C0000900FEF745FF0194234601AA02A90F4831
:1012D000006803F0CBF9C4E7003801400044004047
:1012E00000480040980700207807002010090020DF
:1012F000300800208C040020BC0700202D080020AE
:101300009C070020780800200C09002080040020A1
:10131000E00700202C080020C0070020C0080020A3
:101320000809002010B50024002C00DD10BD0120AC
:1013300003F091F9024B43F824000134F4E700BFB5
:101340006809002000B583B04FF0FF3201A90F4BB0
:10135000186803F0F1F90128F6D19DF804300C4C1F
:101360004FF0FF3154F8230003F095FA9DF8040084
:101370009DF80520074B43F8202000231A46194604
:1013800054F8200003F097F8DEE700BF680400205F
:10139000680900200400002003688B4201DC002063
:1013A00070470023036001207047000030B587B00C
:1013B0000023059359E00023009301231A4680215E
:1013C000BC48406802F0A1FB10F0800F2DD0BA4A53
:1013D00013680133136001213720FFF7E7F9002379
:1013E000059322E043F2C82105A8FFF7D5FFE0B13D
:1013F000B14A13680133136000213720FFF7D6F993
:1014000013E00023009301231A461946A9480068F7
:1014100002F07BFB10F0010F03D0A74A13680133E1
:101420001360A54A136801331360A34B1B68053B87
:101430001C2B40F2D287A04B1B681A3B072B41F2B2
:101440004A80059B0133059300231A4619469B48A1
:10145000006803F030F8012002F034FB964B1B6863
:10146000974A1268934241F072804FF0FF31934BDC
:10147000186803F010FA904B1B68362BD5D801A2E0
:1014800052F823F0B7130008E5130008031400080E
:101490006115000893150008B7150008D915000854
:1014A000FF15000825160008571600085F160008EB
:1014B000751600089B160008E1160008FB160008C8
:1014C0000D17000833170008591700087317000894
:1014D00099170008BF170008D5170008F91700086A
:1014E000271800084D1800086B180008911800080C
:1014F000C7180008EB180008111900082B1900087C
:10150000411900086719000881190008A719000887
:10151000ED190008071A0008291A0008431A0008E4
:10152000591A00087F1A0008F91B00081D1F00083F
:10153000391F0008611F0008871F0008A31F00084B
:10154000BF1F0008F31F00080F2000083720000805
:10155000532000082B1400087720000851220008AF
:101560000123072257495848FFF72EFB042307227F
:1015700056495748FFF728FB01212E20FFF716F99F
:1015800001213220FFF712F94B4A1368013313602F
:101590004BE70023009301231A46202145480068A9
:1015A00002F0B3FA10F0200F3FF43FAF424A136845
:1015B0000133136039E701210846FFF7F7F84FF4CC
:1015C0007A7002F07FFA00210120FFF7EFF83A4A23
:1015D00013680133136028E70023009301231A46A0
:1015E0004FF480613348006802F08FFA10F4806F86
:1015F0003FF41BAF304A13680133136015E7002333
:10160000009301231A464FF400512A48006802F063
:101610007CFA10F4005F3FF408AF274A13680133E7
:10162000136002E7012307222A492748FFF7CCFA73
:1016300000210820FFF7BAF801213120FFF7B6F8A2
:1016400001213320FFF7B2F81B4A136801331360FE
:1016500000230593E9E60133174A1360E5E6042306
:1016600007221D491A48FFF7AFFA134A13680133DE
:101670001360DAE60023009301231A464FF4002199
:101680000C48006802F041FA10F4002F3FF4CDAE90
:10169000094A136801331360C7E6042307220F4980
:1016A0000B48FFF791FA044A1368013313600023D3
:1016B0000593BAE6700400200400002068090020A9
:1016C0000800002088590008780800209059000878
:1016D000C008002098590008A0590008A85900081F
:1016E00049F6404105A8FFF757FE00283FF49DAE9C
:1016F000B34A13680133136097E601210C20FFF70A
:1017000055F8AF4A1368013313608EE60023009347
:1017100001231A464FF48041AA48006802F0F5F907
:1017200010F4804F3FF481AEA54A13680133136073
:101730007BE601210720FFF739F84FF47A7002F0B9
:10174000C1F900210720FFF731F89D4A13680133E2
:1017500013600023059368E647F2305105A8FFF7B0
:101760001BFE00283FF461AE954A136801331360F5
:101770005BE60423062294499448FFF725FA0021EA
:101780000920FFF713F801210B20FFF70FF88C4A0F
:1017900013680133136048E60023009301231A46BF
:1017A0004FF400418748006802F0AFF910F4004F91
:1017B0003FF43BAE824A13680133136035E60423DD
:1017C000072283498148FFF7FFF97D4A13680133F7
:1017D00013602AE60023009301231A46402179482A
:1017E000006802F092F910F0400F3FF41EAE744A08
:1017F00013680133136018E601210620FEF7D6FFB7
:101800000423072273497148FFF7DEF94FF4FA7099
:1018100002F058F900210620FEF7C8FF684A136855
:101820000133136001E60023009301231A464FF4AD
:1018300080316448006802F068F910F4803F3FF49A
:10184000F4AD5F4A136801331360EEE500210A200E
:10185000FEF7ACFF042307225F495C48FFF7B4F9A9
:10186000574A136801331360DFE500230093012317
:101870001A464FF480215348006802F046F910F4EC
:10188000802F3FF4D2AD4E4A136801331360CCE58C
:101890000123072251495248FFF796F900210D20F4
:1018A000FEF784FF01210F20FEF780FF01212F208A
:1018B000FEF77CFF01212D20FEF778FF404A1368D8
:1018C00001331360B1E50023009301231A46802100
:1018D0003C48006802F019F910F0800F3FF4A5AD04
:1018E000374A1368013313609FE501213620FEF764
:1018F0005DFF4FF4FA7002F0E5F800213620FEF7A4
:1019000055FF2F4A136801331360002305938CE5BC
:101910004AF2F87105A8FFF73FFD00283FF485ADB6
:10192000274A1368013313607FE5042307222D49FA
:101930002648FFF749F9224A13680133136074E51A
:101940000023009301231A464FF480111D480068BC
:1019500002F0DBF810F4801F3FF467AD184A1368FB
:101960000133136061E500211020FEF71FFF012104
:101970002020FEF71BFF124A13680133136054E561
:101980000023009301231A464FF400110D4800680C
:1019900002F0BBF810F4001F3FF447AD084A13688B
:1019A0000133136041E5042307220F490748FFF77D
:1019B0000BF9034A1368013313600023059334E5E0
:1019C0000400002070040020B0590008C008002066
:1019D000B8590008C0590008C8590008D059000873
:1019E00078080020D8590008E059000846F29051C4
:1019F00005A8FFF7D1FC00283FF417AD754A13681E
:101A00000133136011E50423072273497348FFF77C
:101A1000DBF800211120FEF7C9FE6E4A136801337E
:101A200013600023059300E541F2707105A8FFF7EC
:101A3000B3FC00283FF4F9AC664A13680133136025
:101A4000F3E40423072266496448FFF7BDF8614ABE
:101A5000136801331360E8E40023009301231A465E
:101A60004FF480015F48006802F04FF810F4800FD7
:101A70003FF4DBAC574A136801331360D5E400210F
:101A80000B20FEF793FE00210C20FEF78FFE0021B5
:101A90000F20FEF78BFE00212020FEF787FE00219D
:101AA0002D20FEF783FE00212E20FEF77FFE002171
:101AB0002F20FEF77BFE00213120FEF777FE00216C
:101AC0003220FEF773FE00213320FEF76FFE464DF5
:101AD0002846FFF7CDF8414C04230722434920460E
:101AE000FFF772F841F2883001F0ECFF01212B2062
:101AF000FEF75CFE4FF4FA6001F0E4FF01212220C2
:101B0000FEF754FE4FF4FA6001F0DCFF01212420BF
:101B1000FEF74CFE4FF4FA6001F0D4FF01212320C0
:101B2000FEF744FE4FF4FA6001F0CCFF01212520BE
:101B3000FEF73CFE4FF4FA6001F0C4FF01212820BB
:101B4000FEF734FE4FF4FA6001F0BCFF01212620BD
:101B5000FEF72CFE4FF4FA6001F0B4FF01212720BC
:101B6000FEF724FE4FF4FA6001F0ACFF01212A20B9
:101B7000FEF71CFE4FF4FA6001F0A4FF01212920BA
:101B8000FEF714FE4FF4FA6001F09CFF01212120C2
:101B9000FEF70CFE00212B20FEF708FE01211F207E
:101BA000FEF704FE00211220FEF700FE01230722AB
:101BB0000F492846FFF708F8C82001F083FF0423E7
:101BC00007220C492046FEF7FFFF024A1368013343
:101BD00013602AE404000020E8590008C00800202F
:101BE000F05900087004002078080020F859000817
:101BF000005A0008085A00080023009301231A46DF
:101C00004FF40071B748006801F07FFF10F4007FC7
:101C100040F0B3800023009301231A464FF4006183
:101C2000B048006801F071FF10F4006F40F0B78019
:101C30000023009301231A464FF48071A9480068DD
:101C400001F063FF10F4807F40F0BB80002300931D
:101C500001231A461946A348406801F056FF10F0C8
:101C6000010F40F0C0800023009301231A46022197
:101C70009C48406801F049FF10F0020F40F0C58019
:101C80000023009301231A464FF400319548006861
:101C900001F03BFF10F4003F40F0C98000230093A7
:101CA00001231A4680218F48406801F02EFF10F072
:101CB000800F40F0CE800023009301231A461021AC
:101CC0008848406801F021FF10F0100F40F0D380E9
:101CD0000023009301231A4608218248406801F03E
:101CE00014FF10F0080F40F0D88000230093012368
:101CF0001A464FF480517B48006801F006FF10F44B
:101D0000805F40F0DC80784B5B68012B7FF48DAB0B
:101D1000754B9B68012B7FF488AB734BDB68012B01
:101D20007FF483AB704B1B69012B7FF47EAB6E4B52
:101D30005B69012B7FF479AB6B4B9B69012B7FF4C3
:101D400074AB694BDB69012B7FF46FAB664B1B6A8D
:101D5000012B7FF46AAB644B5B6A012B7FF465ABAC
:101D6000614B9B6A012B7FF460AB604A13680133BF
:101D7000136000230593FFF758BB5B4B01225A60A9
:101D800000211320FEF712FD00212220FEF70EFD98
:101D90000423072256495748FEF716FF3AE7524BED
:101DA00001229A6000211420FEF700FD002124206A
:101DB000FEF7FCFC042307224F494E48FEF704FFC0
:101DC00036E7494B0122DA6000211520FEF7EEFCD0
:101DD00000212320FEF7EAFC042307224749454857
:101DE000FEF7F2FE32E7404B01221A610021162075
:101DF000FEF7DCFC00212520FEF7D8FC0423072297
:101E00003F493C48FEF7E0FE2DE7374B01225A617F
:101E100000211720FEF7CAFC00212820FEF7C6FC8F
:101E20000423072237493348FEF7CEFE28E72E4B1E
:101E300001229A6100211820FEF7B8FC002126201B
:101E4000FEF7B4FC042307222F492A48FEF7BCFE04
:101E500024E7254B0122DA6100211920FEF7A6FCB8
:101E600000212720FEF7A2FC04230722274921484E
:101E7000FEF7AAFE1FE71C4B01221A6200211A205E
:101E8000FEF794FC00212A20FEF790FC0423072291
:101E90001F491848FEF798FE1AE7134B01225A62B1
:101EA00000211B20FEF782FC00212920FEF77EFC8A
:101EB0000423072217490F48FEF786FE15E70A4B51
:101EC00001229A6200211C20FEF770FC00212120D3
:101ED000FEF76CFC042307220F490648FEF774FE48
:101EE00011E700BF70040020140900200400002046
:101EF000105A0008C0080020185A0008205A00088C
:101F0000285A0008305A0008385A0008405A000879
:101F1000485A0008505A0008585A000840F6B8318C
:101F200005A8FFF739FA00283FF47FAABF4A1368D3
:101F300001331360FFF779BA04230722BC49BD4877
:101F4000FEF742FE42F6E06001F0BCFD01213020C8
:101F5000FEF72CFCB54A136801331360FFF765BA2E
:101F60000023009301231A462021B348406801F062
:101F7000CCFD10F0200F3FF458AAAC4A136801338F
:101F80001360FFF752BA04230722AC49A948FEF7B1
:101F90001BFEA64A13680133136000230593FFF765
:101FA00044BA4FF4FA5105A8FFF7F6F900283FF4B8
:101FB0003CAA9E4A136801331360FFF736BA042324
:101FC00007229F499B48FEF7FFFD01213520FEF7C0
:101FD000EDFB4FF4FA7001F075FD00213520FEF79E
:101FE000E5FB924A13680133136000230593FFF762
:101FF0001CBA4AF6C87105A8FFF7CEF900283FF4CD
:1020000014AA8A4A136801331360FFF70EBA042337
:1020100007228C498C48FEF7D7FD042307228B4901
:102020008448FEF7D1FD814A136801331360002311
:102030000593FFF7FAB946F2905105A8FFF7ACF9FE
:1020400000283FF4F2A9794A136801331360FFF7BF
:10205000ECB900212C20FEF7A9FB00213020FEF76F
:10206000A5FB00211F20FEF7A1FB704A1368013376
:102070001360FFF7DAB97448FEF7FAFD6D48FEF712
:10208000F7FD00210120FEF791FB00210220FEF761
:102090008DFB00210320FEF789FB00210420FEF7C1
:1020A00085FB00210520FEF781FB00210620FEF7BD
:1020B0007DFB00210720FEF779FB01210820FEF7B8
:1020C00075FB01210920FEF771FB01210B20FEF7B2
:1020D0006DFB01210C20FEF769FB01210D20FEF7AD
:1020E00065FB00210E20FEF761FB01210F20FEF7AA
:1020F0005DFB01211020FEF759FB01211120FEF7A5
:1021000055FB01211220FEF751FB01211320FEF7A0
:102110004DFB01211420FEF749FB01211520FEF79C
:1021200045FB01211620FEF741FB01211720FEF798
:102130003DFB01211820FEF739FB01211920FEF794
:1021400035FB01211A20FEF731FB01211B20FEF790
:102150002DFB01211C20FEF729FB01211F20FEF78A
:1021600025FB01212020FEF721FB00212220FEF784
:102170001DFB00212420FEF719FB00212320FEF780
:1021800015FB00212520FEF711FB00212820FEF77A
:102190000DFB00212620FEF709FB00212720FEF77A
:1021A00005FB00212A20FEF701FB00212920FEF774
:1021B000FDFA00212120FEF7F9FA00212B20FEF77D
:1021C000F5FA01212C20FEF7F1FA01212D20FEF76E
:1021D000EDFA01212E20FEF7E9FA01212F20FEF76A
:1021E000E5FA01213020FEF7E1FA01213120FEF766
:1021F000DDFA01213220FEF7D9FA01213320FEF762
:10220000D5FA01210A20FEF7D1FA01213420FEF788
:10221000CDFA4FF47A7001F055FC00213420FEF71E
:10222000C5FA024B34221A60FFF7FFB80400002001
:10223000605A0008C008002070040020685A000896
:10224000705A0008785A000878080020805A000860
:1022500000210120FEF7AAFA00210220FEF7A6FACB
:1022600000210320FEF7A2FA00210420FEF79EFAC7
:1022700000210520FEF79AFA00210620FEF796FAC3
:1022800000210720FEF792FA01210820FEF78EFABE
:1022900001210920FEF78AFA00210B20FEF786FAB9
:1022A00000210C20FEF782FA01210D20FEF77EFAB4
:1022B00000210E20FEF77AFA00210F20FEF776FAB1
:1022C00001211020FEF772FA01211120FEF76EFAAB
:1022D00001211220FEF76AFA01211320FEF766FAA7
:1022E00001211420FEF762FA01211520FEF75EFAA3
:1022F00001211620FEF75AFA01211720FEF756FA9F
:1023000001211820FEF752FA01211920FEF74EFA9A
:1023100001211A20FEF74AFA01211B20FEF746FA96
:1023200001211C20FEF742FA00211F20FEF73EFA91
:1023300000212020FEF73AFA00212220FEF736FA8B
:1023400000212420FEF732FA00212320FEF72EFA86
:1023500000212520FEF72AFA00212820FEF726FA80
:1023600000212620FEF722FA00212720FEF71EFA80
:1023700000212A20FEF71AFA00212920FEF716FA7A
:1023800000212120FEF712FA00212B20FEF70EFA81
:1023900001212C20FEF70AFA00212D20FEF706FA73
:1023A00000212E20FEF702FA00212F20FEF7FEF971
:1023B00000213020FEF7FAF900213120FEF7F6F96E
:1023C00000213220FEF7F2F900213320FEF7EEF96A
:1023D0006C4B34221A60FFF728B8002300930123C6
:1023E0001A4610216848006801F08FFB10F0100FAA
:1023F00038D10023009301231A460821624800685F
:1024000001F083FB10F0080F3FD10023009301235C
:102410001A4604215C48006801F077FB10F0040FB5
:1024200046D10023009301231A4602215648006832
:1024300001F06BFB10F0020F3EF4FDAF012105200F
:10244000FEF7B4F90423072250495148FEF7BCFBBC
:102450004FF4FA7001F036FB00210520FEF7A6F9D3
:10246000FEF7E9BF01210220FEF7A0F904230722AD
:1024700048494748FEF7A8FB4FF4FA7001F022FBE9
:1024800000210220FEF792F9B3E701210320FEF7B5
:102490008DF90423072240493D48FEF795FB4FF490
:1024A000FA7001F00FFB00210320FEF77FF9ACE783
:1024B00001210420FEF77AF9042307223749344822
:1024C000FEF782FB4FF4FA7001F0FCFA00210420C1
:1024D000FEF76CF9A5E700212B4B586801F099FB3A
:1024E00010F0400402D02E4B1B68E3B1002C7EF4A8
:1024F000A8AF2B4B1B68002B3EF4A3AF00210F208D
:10250000FEF754F900212D20FEF750F900212F206D
:10251000FEF74CF901210E20FEF748F9204B00226E
:102520001A60FEF78EBF01210F20FEF73FF901214F
:102530002D20FEF73BF901212F20FEF737F900216E
:102540000E20FEF733F9164B01221A60CEE7CC229B
:102550008DF80C2005228DF80D2000218DF80E102D
:102560008DF80F30FF238DF810304FF0FF3303A9A3
:102570000C4801F00BF8034B1A680B4B1A60FEF77E
:1025800074BF00BF0400002070040020A05A00089F
:10259000C0080020885A0008905A0008985A00087D
:1025A000640900203008002008000020FEF7B2FC7B
:1025B0000B480C490C4A002302E0D458C4500433A1
:1025C000C4188C42F9D3094A094C002301E0136076
:1025D0000432A242FBD303F049F8FEF791FA7047A8
:1025E0000000002044040020D45A000844040020C5
:1025F000C0360020FEE7000008B5074A136843F024
:1026000010031360032000F01BF80F20FEF70CFCF2
:10261000FEF7E0FB002008BD00200240034A1168DD
:10262000034B1B780B441360704700BF6C090020FC
:102630000C000020014B1868704700BF6C09002097
:10264000074AD36823F4E0631B041B0C000200F468
:10265000E060034343F0BF6343F40033D36070474B
:1026600000ED00E000B5194BDB68C3F30223C3F1B2
:10267000070CBCF1040F28BF4FF0040C03F1040E4B
:10268000BEF1060F18D9033B4FF0FF3E0EFA0CFCCB
:1026900021EA0C0199400EFA03F322EA03031943DD
:1026A00000280BDB0901C9B200F1604000F5614070
:1026B00080F800135DF804FB0023E5E700F00F004D
:1026C0000901C9B2024B1954F4E700BF00ED00E064
:1026D00014ED00E0002807DB00F01F024009012391
:1026E0009340024A42F82030704700BF00E100E00A
:1026F00090F82130DBB2022B06D004238363002341
:1027000080F82030012070470268136823F00E0320
:1027100013600268136823F001031360036CC16B3C
:10272000012202FA03F34B6080F82120002380F895
:10273000203018467047000008B590F82130DBB211
:10274000022B03D004238363012008BD02681368B1
:1027500023F00E0313600268136823F00103136073
:102760000368194A934214D0143293421FD0143292
:1027700093421ED0143293421ED0143293421ED084
:102780001432934202D04FF0807203E04FF4801273
:1027900000E001220D4B5A60012380F82130002314
:1027A00080F82030436B6BB198470020CDE71022B2
:1027B000F0E74FF48072EDE74FF48052EAE74FF410
:1027C0008032E7E70020C0E7080002400000024036
:1027D00070B582B00024A446A6E0804DAA4210D075
:1027E00007D97F4DAA420CD005F58035AA4208D002
:1027F00013E0A5F58015AA4203D005F57025AA427D
:1028000007D18A68002A58D0012A51D04361082490
:1028100003E0A5F58015AA42F3D0BEF1FF0F4ED814
:102820000646BEF1FF0F4CD84FEA8C0233680F25E5
:10283000954023EA050304FA02F2134333604B6820
:1028400013F0805F6ED0674B9A6942F001029A6183
:102850009B6903F001030193019B4FEA9C02951CC5
:10286000614B53F825600CF003039D000F23AB4030
:1028700026EA03065D4B984229D003F5806398420F
:1028800000F08E8003F58063984200F08B8003F5A2
:102890008063984219D004231AE0CC68BDE7CC6865
:1028A0000434BAE7CC680834B7E7CC680C34B4E732
:1028B00003610824B1E70024AFE70424ADE7061D57
:1028C000AFE7ACF108029200B0E7032300E0002379
:1028D000AB4033430232444D45F822304B6813F489
:1028E000801F61D0424A936843EA0E0393604B68AD
:1028F00013F4001F5ED03E4AD36843EA0E03D36050
:102900004B6813F4003F5BD0394A536843EA0E0327
:1029100053604B6813F4803F58D0354A136843EA3C
:102920000E0313600CF1010C0A6832FA0CF353D059
:10293000012303FA0CF302EA030E33EA0202F1D197
:102940004A68122A3FF649AF122A3FF666AF01A540
:1029500055F822F0032800089B280008A528000845
:10296000B72800081B2800081B2800081B2800089F
:102970001B2800081B2800081B2800081B2800082B
:102980001B2800081B2800081B2800081B2800081B
:102990001B2800081B2800089F280008AB280008F7
:1029A000012395E7022393E7114A936823EA0E0374
:1029B00093609CE70E4AD36823EA0E03D3609FE737
:1029C0000B4A536823EA0E035360A2E7084A1368D0
:1029D00023EA0E031360A5E702B070BD00002210C9
:1029E00000003110001002400000014000080140CA
:1029F000000401408368194201D001207047002083
:102A000070470AB101617047090401617047000015
:102A100082B0084B1B68084AA2FB03235B0A00FB39
:102A200003F3019300BF019B5A1E0192002BF9D1C1
:102A300002B0704700000020D34D6210002800F063
:102A4000F18170B582B00446036813F0010F2CD0F9
:102A5000994B5B6803F00C03042B1DD0964B5B680D
:102A600003F00C03082B12D06368B3F5803F41D00C
:102A7000002B55D103F1804303F504331A6822F487
:102A800080321A601A6822F480221A6037E08A4B7A
:102A90005B6813F4803FE7D0874B1B6813F4003F5B
:102AA00003D06368002B00F0BF81236813F0020F8E
:102AB00075D0814B5B6813F00C0F5FD07E4B5B6869
:102AC00003F00C03082B54D02369002B00F08A80FC
:102AD0007A4B01221A60FFF7ADFD0546764B1B6865
:102AE00013F0020F75D1FFF7A5FD401B0228F5D9A1
:102AF00003209EE1704A136843F4803313606368D7
:102B000043B3FFF797FD05466B4B1B6813F4003F7B
:102B1000CBD1FFF78FFD401B6428F5D9032088E156
:102B2000B3F5A02F09D0644B1A6822F480321A60E2
:102B30001A6822F480221A60E1E703F18043A3F5CA
:102B40003C331A6842F480221A601A6842F48032D8
:102B50001A60D4E7FFF76EFD0546574B1B6813F468
:102B6000003FA2D0FFF766FD401B6428F5D9032083
:102B70005FE1514B5B6813F4803FA5D14E4B1B685E
:102B800013F0020F03D02369012B40F04F814A4A12
:102B9000136823F0F803616943EAC10313602368F3
:102BA00013F0080F33D0A369002B5CD0434B0122F4
:102BB000C3F88024FFF73EFD05463F4B5B6A13F0E8
:102BC000020F21D1FFF736FD401B0228F5D9032063
:102BD0002FE1394A136823F0F803616943EAC1031E
:102BE0001360DCE7354B00221A60FFF723FD054632
:102BF000314B1B6813F0020FD1D0FFF71BFD401BB8
:102C00000228F5D9032014E10120FFF701FF236812
:102C100013F0040F00F09680274BDB6913F0805F00
:102C200034D1254BDA6942F08052DA61DB6903F076
:102C300080530193019B0125214B1B6813F4807F76
:102C400026D0E368012B3DD0002B53D103F1804304
:102C500003F504331A6A22F001021A621A6A22F09A
:102C600004021A6233E0154B0022C3F88024FFF7F8
:102C7000E1FC0546104B5B6A13F0020FC7D0FFF76B
:102C8000D9FC401B0228F5D90320D2E00025D3E768
:102C90000B4A136843F480731360FFF7CBFC0646BE
:102CA000074B1B6813F4807FCBD1FFF7C3FC801B5D
:102CB0006428F5D90320BCE0001002400000424225
:102CC000007000405F4A136A43F001031362E36837
:102CD00033B3FFF7AFFC06465A4B1B6A13F0020FE3
:102CE0002FD1FFF7A7FC801B41F288339842F3D91C
:102CF00003209EE0052B09D0524B1A6A22F00102F4
:102D00001A621A6A22F004021A62E0E74D4B1A6A4C
:102D100042F004021A621A6A42F001021A62D6E70D
:102D2000FFF788FC0646474B1B6A13F0020F08D0DA
:102D3000FFF780FC801B41F288339842F3D90320CF
:102D400077E0E5B9E369002B72D03E4A526802F0A1
:102D50000C02082A56D0022B17D03B4B00221A66D1
:102D6000FFF768FC0446374B1B6813F0007F47D021
:102D7000FFF760FC001B0228F5D9032059E0314A17
:102D8000D36923F08053D361DCE72F4B00221A660E
:102D9000FFF750FC05462B4B1B6813F0007F06D055
:102DA000FFF748FC401B0228F5D9032041E0236AC5
:102DB000B3F5803F1AD023494B6823F47413226A79
:102DC000606A024313434B601F4B01221A66FFF7F0
:102DD00031FC04461B4B1B6813F0007F0ED1FFF73C
:102DE00029FC001B0228F5D9032022E0154A53686C
:102DF00023F40033A1680B435360DCE7002018E0A4
:102E0000002016E0012B16D00E4B5B6803F48031D6
:102E1000226A914211D103F47013626A93420ED177
:102E2000002006E001207047012002E0012000E0C0
:102E3000002002B070BD0120FBE70120F9E701206E
:102E4000F7E700BF00100240000042420F4B5B68F2
:102E500003F00C02082A01D00D487047C3F38342E7
:102E60000C49885C13F4803F0BD0084B5B68C3F3BC
:102E70004043094AD35C064A02FB00F0B0FBF3F082
:102E80007047064B03FB00F0704700BF0010024084
:102E900000127A00A85A0008B85A000800093D003C
:102EA000002800F0A08070B50D460446524B1B6808
:102EB00003F007038B420BD24F4A136823F007033A
:102EC0000B431360136803F007038B4240F08D80BF
:102ED000236813F0020F17D013F0040F04D0474AF1
:102EE000536843F4E0635360236813F0080F04D081
:102EF000424A536843F460535360404A536823F096
:102F0000F003A1680B435360236813F0010F31D025
:102F10006368012B20D0022B25D0384A126812F0AA
:102F2000020F64D035494A6822F0030213434B6014
:102F3000FFF780FB0646314B5B6803F00C036268C9
:102F4000B3EB820F16D0FFF775FB801B41F288337D
:102F50009842F0D9032045E0284A126812F4003F55
:102F6000E0D101203EE0254A126812F0007FD9D15D
:102F7000012037E0204B1B6803F00703AB420AD95E
:102F80001D4A136823F007032B431360136803F0F3
:102F90000703AB422DD1236813F0040F06D0174A64
:102FA000536823F4E063E1680B435360236813F034
:102FB000080F07D0114A536823F46053216943EA8C
:102FC000C1035360FFF742FF0C4B5B68C3F303136D
:102FD0000B4AD35CD8400B4B18600B4B1868FDF7BD
:102FE00023FF002070BD012070470120FAE7012077
:102FF000F8E70120F6E700BF002002400010024081
:10300000705900080000002010000020014B1868D3
:10301000704700BF0000002008B5FFF7F7FF044B22
:103020005B68C3F30223034AD35CD84008BD00BFEA
:10303000001002408059000808B5FFF7E7FF044B75
:103040005B68C3F3C223034AD35CD84008BD00BF0A
:1030500000100240805900080F2303600B4B5A6890
:1030600002F0030242605A6802F0F00282605A687D
:1030700002F4E062C2605B68DB0803F4E0630361B2
:10308000034B1B6803F007030B60704700100240FE
:10309000002002407047000090F83D30DBB2012B69
:1030A00027D1022380F83D300268D36843F0010342
:1030B000D3600368114A934210D0B3F1804F0DD012
:1030C000A2F59432934209D002F58062934205D072
:1030D0001A6842F001021A60002070479A6802F0F4
:1030E0000702062A07D01A6842F001021A6000207F
:1030F0007047012070470020704700BF002C01403E
:10310000704770477047704710B5044603681A69E6
:1031100012F0020F11D0DA6812F0020F0DD06FF02A
:1031200002021A610123037703689B6913F0030FFE
:1031300070D0FFF7E6FF0023237723681A6912F0A7
:10314000040F12D0DA6812F0040F0ED06FF00402F0
:103150001A610223237723689B6913F4407F5FD0B1
:103160002046FFF7CEFF0023237723681A6912F069
:10317000080F12D0DA6812F0080F0ED06FF00802B4
:103180001A61042323772368DB6913F0030F4ED001
:103190002046FFF7B6FF0023237723681A6912F051
:1031A000100F12D0DA6812F0100F0ED06FF010026C
:1031B0001A61082323772368DB6913F4407F3DD02D
:1031C0002046FFF79EFF0023237723681A6912F039
:1031D000010F03D0DA6812F0010F36D123681A69A3
:1031E00012F0800F03D0DA6812F0800F34D1236818
:1031F0001A6912F0400F03D0DA6812F0400F32D192
:1032000023681A6912F0200F03D0DA6812F0200F39
:1032100030D110BDFFF774FF2046FFF773FF8AE738
:103220002046FFF76DFF2046FFF76CFF9BE7204627
:10323000FFF766FF2046FFF765FFACE72046FFF784
:103240005FFF2046FFF75EFFBDE76FF001021A61E6
:103250002046FDF717FCC1E76FF080021A61204697
:1032600000F077F8C3E76FF040021A612046FFF7DD
:103270004AFFC5E76FF020021A61204600F068F8A7
:10328000C7E7000003681B4A90420AD0B0F1804FA4
:1032900007D0A2F59432904203D002F580629042AA
:1032A00003D123F070034A681343124A90420AD0B4
:1032B000B0F1804F07D0A2F59432904203D002F5CE
:1032C0008062904203D123F44073CA68134323F011
:1032D00080034A69134303608B68C3620B6883628F
:1032E000044B984202D00123436170470B6903638A
:1032F000F9E700BF002C014040B310B5044690F838
:103300003D30F3B1022384F83D30214651F8040BDF
:10331000FFF7B8FF012384F8463084F83E3084F884
:103320003F3084F8403084F8413084F8423084F8EB
:10333000433084F8443084F8453084F83D30002030
:1033400010BD80F83C30FFF7A5FEDBE70120704799
:1033500070477047026802F10C0353E8003F23F402
:1033600090730C3242E800310029F3D1026802F177
:10337000140353E8003F23F00103143242E8003104
:103380000029F3D1036B012B05D0202380F84230B4
:10339000002303637047026802F10C0353E8003F07
:1033A00023F010030C3242E800310029F3D1ECE79E
:1033B00090F84130DBB2212B01D0022070478368A6
:1033C000B3F5805F17D0036A5A1C02621A7803684B
:1033D0005A60C38C9BB2013B9BB2C3844BB9026859
:1033E000D36823F08003D3600268D36843F04003BE
:1033F000D360002070470369002BE4D1036A1B8867
:103400000268C3F308035360036A02330362E0E710
:1034100010B504460268136923F44053C1680B4396
:10342000136183680269134342691A430168CB68D8
:1034300023F4B05323F00C031343CB6002685369A9
:1034400023F4407381690B4353610268134B9A4222
:1034500020D0FFF7E1FD024602EB820202EB82027E
:1034600063689B00B2FBF3F20D48A0FB02314909EF
:10347000642303FB11231B013233A0FB03235B09ED
:1034800003F0F00202EB011203F00F032168134472
:103490008B6010BDFFF7D0FD0246DDE7003801402C
:1034A0001F85EB512DE9F84305460F461646994610
:1034B000DDF820802C68246837EA04030CBF4FF045
:1034C000010C4FF0000CB4452DD1B8F1FF3FF1D005
:1034D000B8F1000F05D0FFF7ADF8A0EB09004045AB
:1034E000E8D92A6802F10C0353E8003F23F4D073B3
:1034F0000C3242E800310029F3D12A6802F11403AA
:1035000053E8003F23F00103143242E80031002960
:10351000F3D1202385F8413085F84230002385F827
:103520004030032000E00020BDE8F88360B310B510
:10353000044690F8413013B3242384F841302268C4
:10354000D36823F40053D3602046FFF761FF22685D
:10355000136923F4904313612268536923F02A030B
:1035600053612268D36843F40053D3600020606441
:10357000202384F8413084F84230606310BD80F825
:103580004030FDF717FDD7E7012070472DE9F041E6
:1035900082B01E4690F84130DBB2202B4BD104465E
:1035A0000D46904600294AD00AB9012044E0002384
:1035B0004364212380F84130FFF73CF80746A4F824
:1035C0002480A4F82680A368B3F5805F02D04FF072
:1035D00000080FE02369FBB14FF000080AE038F85B
:1035E000023B2268C3F308035360E28C92B2013AB3
:1035F00092B2E284E38C9BB28BB100963B460022F0
:1036000080212046FFF74EFFD8B9002DE7D015F8EE
:10361000012B23685A60E8E7A8460025EAE70096F0
:103620003B46002240212046FFF73CFF58B92023AB
:1036300084F8413000E0022002B0BDE8F0810120B2
:10364000FAE70320F8E70320F6E7704708B50168BA
:10365000CA6822F04002CA60202280F84120FFF7A9
:10366000F4FF002008BD704708B5406A0023C385F9
:10367000C384FFF7F8FF08BD704790F84230DBB213
:10368000222B69D18368B3F5805F4FD0826AB3F58E
:10369000805F04D0002B56D10369002B53D10368FF
:1036A0005B681370836A01338362C38D9BB2013BF5
:1036B0009BB2C385002B51D100B583B00268D3689B
:1036C00023F02003D3600268D36823F48073D360AF
:1036D0000268536923F001035361202380F84230CC
:1036E00000234363036B012B33D100230363026880
:1036F00002F10C0353E8003F23F010030C3242E8C0
:1037000000310029F3D103681A6812F0100F06D0B7
:10371000002201921A6801925B680193019B818DDE
:10372000FFF7AAFF002003B05DF804FB0269002A3E
:10373000ACD1826A03685B68C3F308031380836AB1
:1037400002338362B1E703685B6803F07F031370A1
:10375000A8E7FDF7E3FCE5E702207047002070478B
:1037600030B583B0044602681368D068516913F01D
:103770000F0505D113F0200F02D010F0200F19D142
:103780002DB111F0010119D110F4907F16D1216BE8
:1037900001297DD013F0800F03D010F0800F40F08E
:1037A000188113F0400F03D010F0400F40F0158146
:1037B00003B030BD2046FFF760FFF9E713F0010FBB
:1037C00006D010F4807F03D0626C42F00102626484
:1037D00013F0040F04D019B1626C42F0020262646B
:1037E00013F0020F04D019B1626C42F0040262645B
:1037F00013F0080F07D010F0200F00D119B1626C40
:1038000042F008026264626C002AD1D013F0200FEB
:1038100002D010F0200F29D123685B6903F0400328
:10382000626C12F0080F00D163B32046FFF792FDDF
:1038300023685B6913F0400F20D0226802F1140363
:1038400053E8003F23F04003143242E800310029DE
:10385000F3D1E36B73B1634A5A63E06BFEF76CFF1D
:103860000028A5D0E06B436B9847A1E72046FFF7FF
:1038700004FFD1E72046FFF7F6FE99E72046FFF761
:10388000F2FE95E72046FFF7EEFE002363648FE724
:1038900013F0100F3FF47EAF10F0100F3FF47AAF2B
:1038A000002301931368019353680193019B5369AB
:1038B00013F0400F51D0E26B13685B689BB2002B92
:1038C0003FF476AFA18D99427FF672AFE38593699D
:1038D000202B37D0226802F10C0353E8003F23F479
:1038E00080730C3242E800310029F3D1226802F1E2
:1038F000140353E8003F23F00103143242E800317F
:103900000029F3D1226802F1140353E8003F23F0A9
:103910004003143242E800310029F3D1202384F817
:10392000423000232363226802F10C0353E8003F76
:1039300023F010030C3242E800310029F3D1E06B90
:10394000FEF7D6FE02236363A18DE38D9BB2C91AF5
:1039500089B22046FFF790FE2AE7A18DE38D9BB246
:10396000C91A89B2E38D9BB2002B3FF421AF002925
:103970003FF41EAF226802F10C0353E8003F23F42A
:1039800090730C3242E800300028F3D1226802F133
:10399000140353E8003F23F00103143242E80030DF
:1039A0000028F3D1202384F84230002323632268C7
:1039B00002F10C0353E8003F23F010030C3242E8FD
:1039C00000300028F3D1022363632046FFF754FE42
:1039D000EEE62046FFF7ECFCEAE62046FFF736FE6F
:1039E000E6E600BF6936000881628285C285002351
:1039F0004364222380F84230036923B10268D3680C
:103A000043F48073D3600268536943F00103536148
:103A10000268D36843F02003D3600020704708B5E4
:103A200090F84230DBB2202B08D149B10AB901200D
:103A300008BD00230363FFF7D7FFF9E70220F7E78C
:103A40000120F5E7842801D003307047002070473B
:103A500008B501F0EBF9002008BD2DE9F04387B06F
:103A600004460F464569BDB18669AEB1D0F8048001
:103A7000D0F80090B0F90800FFF7E4FF0296019536
:103A800000903B4622694946404601F061F90590A5
:103A9000059807B0BDE8F08365682668D4F8108003
:103AA000B4F90800FFF7CEFF05AB019300903B4649
:103AB0001FFA88F23146284601F084F90128E7D040
:103AC0000020E6E708B500B9012001F0F9FA00206E
:103AD00008BD1AB9084206D11046704731EA000302
:103AE00003D000207047012070470120704738B58F
:103AF0001C2000F011FB044628B1002540F8045BAF
:103B000000F0F0F82576204638BD2DE9F84378B16D
:103B10000C4616461D46074611F07F4811D04FF05F
:103B2000500383F31188BFF36F8FBFF34F8FFEE70E
:103B30004FF0500383F31188BFF36F8FBFF34F8FA4
:103B4000FEE741B94FF0500383F31188BFF36F8F45
:103B5000BFF34F8FFEE701F047FC50B9089B43B11C
:103B60004FF0500383F31188BFF36F8FBFF34F8F74
:103B7000FEE701F095F9D7F800902A46214648461D
:103B8000FFF7A7FFF0B116B129EA04033B6001F08B
:103B90001BFAB8F1000F12D048B94FF0E0234FF0F4
:103BA0008052C3F8042DBFF34F8FBFF36F8F01F026
:103BB00043FD814610F0007F1AD029F07F49484626
:103BC000BDE8F883089B83B166B941460DB141F069
:103BD0008061089A2143381D01F0FCFAC146DDF8E6
:103BE0002080D4E74FF08071F0E7DDF82080CEE749
:103BF00000F018F9D7F800902A4621464846FFF70A
:103C000068FF18B116B129EA04043C6000F02CF9F1
:103C1000D3E770B170B50C46054611F07F4F11D057
:103C20004FF0500383F31188BFF36F8FBFF34F8FB3
:103C3000FEE74FF0500383F31188BFF36F8FBFF39C
:103C40004F8FFEE700F0EEF82E6826EA04042C60A1
:103C500000F00AF9304670BDF8B568B10D4604466B
:103C600011F07F4711D04FF0500383F31188BFF359
:103C70006F8FBFF34F8FFEE74FF0500383F3118830
:103C8000BFF36F8FBFF34F8FFEE700F10C0601F01B
:103C900007F9206923682B4323600AE0216832EA90
:103CA000010105D111E0216841F0007101F004FB30
:103CB0002846B0420ED04568036823F07F4213F0D7
:103CC000806FEBD121681142F2D013F0807FEAD0EF
:103CD0001743E8E7236823EA0703236001F074F938
:103CE0002068F8BD00F1080343604FF0FF328260A6
:103CF000C3600361002303607047002303617047C2
:103D000043684B609A688A605160996008610368F3
:103D100001330360704730B40D68B5F1FF3F11D037
:103D200000F108031C465B681A68AA42FAD9636866
:103D30004B6099608C6061600861036801330360C7
:103D400030BC70470469F2E70369416882688A60A1
:103D5000416851605A68824206D0002202611A68A6
:103D6000013A1A601868704782685A60F5E70000E7
:103D700082B0002301930D4B1B68B3F1FF3F08D0C5
:103D80004FF0500383F31188BFF36F8FBFF34F8F52
:103D9000FEE74FF0500383F31188BFF36F8FBFF33B
:103DA0004F8F019B002BFCD002B070471400002005
:103DB00006480068006880F3088862B661B6BFF301
:103DC0004F8FBFF36F8F00DF00BF000008ED00E0F2
:103DD0004FF0807340F8043C21F0010140F8081CCA
:103DE000034B40F80C3C40F8202C4038704700BF93
:103DF000713D00080000000000000000000000000D
:103E0000074B19680868B0E8F00F80F30988BFF322
:103E10006F8F4FF0000080F311884EF00D0E704749
:103E2000903500204FF0500383F31188BFF36F8F5C
:103E3000BFF34F8F0B4A136801331360012B00D07F
:103E400070474FF0E023D3F8043D13F0FF0FF7D095
:103E50004FF0500383F31188BFF36F8FBFF34F8F81
:103E6000FEE700BF14000020094B1B6843B94FF068
:103E7000500383F31188BFF36F8FBFF34F8FFEE7BB
:103E8000013B034A13600BB983F31188704700BFED
:103E900014000020000000000000000000000000EE
:103EA000EFF30980BFF36F8F0D4B1A6820E9F00F15
:103EB00010602DE908404FF0500080F3118801F0A8
:103EC00025F94FF0000080F31188BDE8084019681B
:103ED0000868B0E8F00F80F30988BFF36F8F704770
:103EE0009035002008B54FF0500383F31188BFF3DD
:103EF0006F8FBFF34F8F00F0DBFF28B14FF0E0234F
:103F00004FF08052C3F8042D002383F3118808BDBD
:103F10004FF0E022002313619361054B1B680549B4
:103F2000A1FB03139B09013B5361072313617047F6
:103F300000000020D34D621010B582B02A4B1A78D1
:103F4000D2B20192FF221A701B78DBB28DF80330D7
:103F50009DF8033003F05003244A1370244B0722CA
:103F60001A6009E0224A1368013B13609DF8033090
:103F70005B00DBB28DF803309DF8033013F0800F47
:103F8000F0D11B4B1B68032B08D04FF0500383F379
:103F90001188BFF36F8FBFF34F8FFEE71B02144AE8
:103FA000136003F4E0631360019BDBB20E4A1370ED
:103FB0004FF0E023D3F8202D42F47002C3F8202DF7
:103FC000D3F8202D42F07042C3F8202DFFF7A0FF58
:103FD0000024084B1C60FFF7EBFE01F097F8FFF799
:103FE000C7FE204602B010BD00E400E070090020CA
:103FF0007409002014000020EFF305830F2B0FD964
:10400000114A9B5CDBB2114A12789A4208D94FF0F0
:10401000500383F31188BFF36F8FBFF34F8FFEE719
:104020004FF0E023D3F80C3D03F4E063084A126834
:10403000934208D94FF0500383F31188BFF36F8F79
:10404000BFF34F8FFEE77047F0E300E070090020F8
:1040500074090020124A12F0070F1ED0D11D21F062
:104060000701C1F5305313440A460E48026000218F
:1040700041601344083B23F007030B480360596079
:104080001960991A51601360084B1960084B196048
:10409000084B4FF000421A6070474FF43053E4E78A
:1040A0007C09002088350020780900208435002014
:1040B000803500207C350020154B1A461B68834252
:1040C000FBD3516802EB010C844509D0416800EB39
:1040D000010C634509D00360904218D0106070470E
:1040E0004068014451601046F0E710B4094C246860
:1040F000A3420AD05B681944416013681B680360DF
:10410000904200D0106010BC70470460F8E7704720
:10411000883500207809002070B5054600F0C0FE03
:10412000344B1B68A3B1344B1B681D424AD135B1D7
:10413000083515F0070F02D025F007050835002DCA
:1041400042D02E4B1B68AB424DD32D4A146804E07D
:10415000FFF780FFE7E722461C466368AB4202D2C6
:104160002368002BF7D1234B1B68A3423DD0166870
:1041700008362368136063685B1B102B10D9601925
:1041800010F0070F08D04FF0500383F31188BFF3EE
:104190006F8FBFF34F8FFEE743606560FFF78CFFC3
:1041A000626816490B689B1A0B60164909688B42B6
:1041B00001D214490B60104B1B681343636000234A
:1041C000236002E0002600E0002600F0FDFE16F06D
:1041D000070F0CD04FF0500383F31188BFF36F8F9C
:1041E000BFF34F8FFEE70026EFE70026EDE73046EE
:1041F00070BD00BF780900207C350020803500208C
:10420000883500208435002080B338B50446A0F1FD
:10421000080550F8043C164A1268134208D14FF0C2
:10422000500383F31188BFF36F8FBFF34F8FFEE707
:1042300050F8081C41B14FF0500383F31188BFF3CD
:104240006F8FBFF34F8FFEE723EA020340F8043C71
:1042500000F026FE54F8041C064A13680B44136051
:104260002846FFF729FF00F0AFFE38BD704700BFBA
:104270007C350020803500200346406A18B11B6B56
:104280001868C0F10700704710B50446FFF7CAFD73
:10429000A26BE36B9A4204D00024FFF7E5FD2046B1
:1042A00010BD0124F9E710B50446FFF7BBFDA36B71
:1042B00023B90124FFF7D8FD204610BD0024F9E7FB
:1042C00070B504461546866B026C5AB903681BB17B
:1042D00000200136A66370BD406801F0F3F80023AA
:1042E0006360F6E76DB98068FBF732FF226CA36864
:1042F0001344A3606268934219D32368A3602846DD
:10430000E7E7C068FBF724FF226C5142E3689B1A81
:10431000E3602268934202D263680B44E360022D9B
:1043200001D00020D5E726B1013E0020D1E7284684
:10433000CFE70020CDE708B50346026C62B108461E
:10434000D9681144D960D3F804C0614501D3196814
:10435000D960D968FBF7FCFE08BD38B50546FFF704
:1043600061FD95F8454064B201E0013C64B2002C67
:104370000ADD6B6A43B105F1240000F057FF002805
:10438000F3D001F02BF8F0E7FF2385F84530FFF775
:104390006BFDFFF747FD95F8444064B201E0013C36
:1043A00064B2002C0ADD2B6943B105F1100000F066
:1043B0003DFF0028F3D001F011F8F0E7FF2385F866
:1043C0004430FFF751FD38BD38B5E0B10D46044625
:1043D000FFF728FD2368E26B216C01FB023060606F
:1043E0000020A063A360013A02FB0133E360FF23D6
:1043F00084F8443084F84530FDB9236963B9FFF788
:1044000033FD012038BD4FF0500383F31188BFF313
:104410006F8FBFF34F8FFEE704F1100000F006FF2F
:104420000028ECD04FF0E0234FF08052C3F8042D69
:10443000BFF34F8FBFF36F8FE1E704F11000FFF779
:1044400051FC04F12400FFF74DFCD8E710B50346FA
:1044500002980C4631B90060C36304640121FFF780
:10446000B3FF10BD0260F7E740B94FF0500383F38C
:104470001188BFF36F8FBFF34F8FFEE7F0B583B0A6
:104480000C4615460746A1B101FB00F04830FFF786
:1044900043FE064650B1002380F8463000902B467C
:1044A00000F1480221463846FFF7D0FF304603B0FE
:1044B000F0BD0846EAE7F0B585B0019288B10F4635
:1044C0001D460446B1B1022D20D1E36B012B1DD056
:1044D0004FF0500383F31188BFF36F8FBFF34F8FFB
:1044E000FEE74FF0500383F31188BFF36F8FBFF3E4
:1044F0004F8FFEE7036C002BE5D04FF0500383F3A2
:104500001188BFF36F8FBFF34F8FFEE700F06CFF92
:10451000064658B9019B002B48D04FF0500383F357
:104520001188BFF36F8FBFF34F8FFEE700263DE08A
:104530002A4639462046FFF7C3FE636A7BB948B175
:104540004FF0E0234FF08052C3F8042DBFF34F8F9C
:10455000BFF36F8FFFF788FC012005B0F0BD04F1B9
:10456000240000F063FE0028F4D04FF0E0234FF069
:104570008052C3F8042DBFF34F8FBFF36F8FE9E76D
:10458000FFF772FC0020E8E702A800F0D9FE012640
:1045900019E0002384F8443021E0002384F84530FA
:1045A00023E02046FFF7D9FE00F00EFDFFF73AFCAE
:1045B000A26BE36B9A42BBD3022DB9D0019B002BB7
:1045C000DED0002EE0D0FFF74FFC00F069FCFFF7D3
:1045D00029FC94F8442052B2B2F1FF3FD9D094F8AC
:1045E000452052B2B2F1FF3FD7D0FFF73DFC01A901
:1045F00002A800F0B1FED8B92046FFF745FE00281A
:10460000CFD0019904F1100000F0CCFD2046FFF757
:10461000A4FE00F0D9FC0028C8D14FF0E0234FF0F1
:104620008052C3F8042DBFF34F8FBFF36F8FBDE7E8
:104630002046FFF792FE00F0C7FC00208DE748B14E
:1046400008B5002141600160C1600B460A46FFF7D2
:1046500032FF08BD704710B5024600210120FFF768
:1046600003FF0446FFF7EBFF204610BD2DE9F8439A
:1046700090B10F4616461C460546B1B1022C20D11A
:10468000EB6B012B1DD04FF0500383F31188BFF368
:104690006F8FBFF34F8FFEE74FF0500383F3118806
:1046A000BFF36F8FBFF34F8FFEE7036C002BE5D096
:1046B0004FF0500383F31188BFF36F8FBFF34F8F19
:1046C000FEE7FFF799FCEFF311894FF0500383F3F6
:1046D0001188BFF36F8FBFF34F8FAA6BEB6B9A42BA
:1046E00006D3022C04D0002089F31188BDE8F8839A
:1046F00095F845804FFA88F8224639462846FFF754
:10470000DFFDB8F1FF3F06D008F101035BB285F889
:1047100045300120E8E76B6A0BB90120E4E705F1B9
:10472000240000F083FD18B126B101203060DBE7E2
:104730000120D9E70120D7E7F0B585B0019290B10B
:104740000F460446C1B100F04FFE064600BB019B78
:10475000002B5ED04FF0500383F31188BFF36F8FAF
:10476000BFF34F8FFEE74FF0500383F31188BFF381
:104770006F8FBFF34F8FFEE7036C002BE3D04FF03A
:10478000500383F31188BFF36F8FBFF34F8FFEE7A2
:1047900000263EE039462046FFF7CDFD013DA563EA
:1047A000236923B9FFF760FB012005B0F0BD04F1D8
:1047B000100000F03BFD0028F4D04FF0E0234FF054
:1047C0008052C3F8042DBFF34F8FBFF36F8FE9E71B
:1047D000FFF74AFB0020E8E702A800F0B1FD012640
:1047E00021E0002384F8443029E0002384F8453098
:1047F0002BE02046FFF7B1FD00F0E6FB09E0204684
:10480000FFF7ABFD00F0E0FB2046FFF74CFD002872
:104810003FD1FFF707FBA56B002DBBD1019B002B00
:10482000D6D0002ED8D0FFF71FFB00F039FBFFF7E2
:10483000F9FA94F844305BB2B3F1FF3FD1D094F869
:1048400045305BB2B3F1FF3FCFD0FFF70DFB01A9BD
:1048500002A800F081FD0028D1D12046FFF723FDFA
:104860000028C6D0019904F1240000F09BFC2046EA
:10487000FFF773FD00F0A8FB0028CAD14FF0E0233A
:104880004FF08052C3F8042DBFF34F8FBFF36F8FEB
:10489000BFE7002089E770B584B0019158B10446A4
:1048A000036C8BB14FF0500383F31188BFF36F8F0C
:1048B000BFF34F8FFEE74FF0500383F31188BFF330
:1048C0006F8FBFF34F8FFEE700F08EFD054650B9A6
:1048D000019B5BB14FF0500383F31188BFF36F8FDF
:1048E000BFF34F8FFEE70026354655E0064653E0FE
:1048F000013BA36323683BB123694BB9FFF7B4FACB
:104900000126304604B070BD00F0A2FE6060F3E7FF
:1049100004F1100000F08AFC0028EFD04FF0E023F3
:104920004FF08052C3F8042DBFF34F8FBFF36F8F4A
:10493000E4E746B14FF0500383F31188BFF36F8F64
:10494000BFF34F8FFEE7FFF78FFADAE702A800F018
:10495000F7FC01252AE0002384F8443032E00023EC
:1049600084F8453034E0FFF75DFA606800F04CFDF4
:104970000646FFF779FA3BE02046FFF7EEFC00F031
:1049800023FB09E02046FFF7E8FC00F01DFB204672
:10499000FFF789FC002842D1FFF744FAA36B002BF4
:1049A000A6D1019B002BC4D0002DCFD0FFF75CFA1D
:1049B00000F076FAFFF736FA94F844305BB2B3F1C0
:1049C000FF3FC8D094F845305BB2B3F1FF3FC6D08B
:1049D000FFF74AFA01A902A800F0BEFC0028D1D1D5
:1049E0002046FFF760FC0028C6D02368002BBAD011
:1049F000019904F1240000F0D5FB2046FFF7ADFC3F
:104A000000F0E2FA0028C7D14FF0E0234FF08052C7
:104A1000C3F8042DBFF34F8FBFF36F8FBCE70EB900
:104A200000266EE7FFF7FEF92046FFF725FC01465A
:104A3000606800F0A1FDFFF717FAF1E7084B1B686B
:104A40001B6823B9074B4FF0FF321A607047044BC5
:104A50001B68DB68DB685A68024B1A60704700BF4E
:104A6000943500206C3600202DE9F0470746984623
:104A7000089DDDF824900A9C266B02F18042013AE1
:104A800006EB820626F007064FF0000CBCF10F0F74
:104A90000BD811F80C2004EB0C0383F8342011F828
:104AA0000C3013B10CF1010CF0E7002384F8433013
:104AB000062D00D90625E56265644FF0000AC4F8AA
:104AC00048A0201DFFF719F904F11800FFF715F9A8
:104AD0002461C5F10705A5616462C4F84CA084F89F
:104AE00050A0424639463046FFF772F92060B9F1CE
:104AF000000F01D0C9F80040BDE8F08738B50024A8
:104B000007E004EB840293000E481844FFF7EAF82C
:104B10000134062CF5D90C4D2846FFF7E3F80B4C71
:104B20002046FFF7DFF80A48FFF7DCF80948FFF7EF
:104B3000D9F80948FFF7D6F8084B1D60084B1C60F0
:104B400038BD00BF9C350020403600205436002080
:104B500074360020A03600208C36002094350020CA
:104B60009835002010B50446FFF75CF9214A136818
:104B700001331360204B1B685BB1204B1B686BB982
:104B80001D4B1B68DA6AE36A9A4207D81A4B1C600D
:104B900004E0194B1C601368012B28D0184A1368D5
:104BA00001331360E06A01238340164A11680B4306
:104BB000136000EB8000211D134B03EB8000FFF717
:104BC0009FF8FFF751F90D4B1B687BB10A4B1B682F
:104BD000DA6AE36A9A4209D24FF0E0234FF080523A
:104BE000C3F8042DBFF34F8FBFF36F8F10BDFFF7D6
:104BF00085FFD3E728360020903500208836002036
:104C0000383600203C3600209C35002010B5044684
:104C100090F8513063B1012B11D0022B0ED04FF020
:104C2000500383F31188BFF36F8FBFF34F8FFEE7FD
:104C3000006BFFF7E9FA2046FFF7E6FA10BDFFF731
:104C4000E3FAFBE70F4B1B68D3B110B5FFF7EAF8A7
:104C50000D4BDB68DC68201DFFF776F80B4A136804
:104C6000013B1360074A1368013B1360FFF7FCF830
:104C70002046FFF7CBFF034B1B68002BE6D110BD8E
:104C8000704700BF2C360020A036002028360020B8
:104C900008B5FFF7D7FF074B1B68012BF9D94FF079
:104CA000E0234FF08052C3F8042DBFF34F8FBFF3C2
:104CB0006F8FEEE79C35002070B504460D461D4B06
:104CC0001E681D4B18680430FFF73EF850B91A4BA8
:104CD0001B68DA6A012303FA02F218490B6823EA17
:104CE00002030B60B4F1FF3F0DD03444124B1B683C
:104CF0005C60A64210D9124B18680F4B196804313A
:104D0000FFF709F870BD002DEFD00B4B1968043187
:104D10000C48FEF7F5FFF5E70B4B1868064B1968D2
:104D20000431FEF7F8FF094B1B68A342EAD9074B91
:104D30001C60E7E7B4360020903500203C360020A8
:104D4000983500208C360020943500206C360020E9
:104D500030B587B00B9C7CB10C9DB5B15425049542
:104D6000049D542D1AD04FF0500383F31188BFF3E4
:104D70006F8FBFF34F8FFEE74FF0500383F311881F
:104D8000BFF36F8FBFF34F8FFEE74FF0500383F3F6
:104D90001188BFF36F8FBFF34F8FFEE70C9D2C631D
:104DA000022485F8514000240394029505AC019437
:104DB0000A9C0094FFF758FE0C98FFF7D3FE059865
:104DC00007B030BD2DE9F04385B00746884614464C
:104DD0001E469000FFF7A0F900B381465420FFF76C
:104DE0009BF90546B0B1C0F83090E5B1002385F8D5
:104DF0005130039302950D9B01930C9B0093334616
:104E0000224641463846FFF72FFE2846FFF7AAFE06
:104E1000012005E04846FFF7F7F9E6E74FF0FF30DD
:104E200005B0BDE8F0834FF0FF30F9E710B588B06A
:104E300000240594069407AA06A905A8FBF7F0FA32
:104E4000059B0293069B019300942346079A0E4903
:104E50000E48FFF77DFF0E4B186090B14FF05003E6
:104E600083F31188BFF36F8FBFF34F8F094B4FF060
:104E7000FF321A60084B01221A60084B1C60FFF7D2
:104E80005BF808B010BD00BFBC5A0008914C000888
:104E9000683600206C36002088360020B4360020AA
:104EA000024A136801331360704700BF3436002094
:104EB000F8B53A4B1B68002B64D1394B1D6801359E
:104EC0001D60C5B9374B1B681B6843B14FF05003D9
:104ED00083F31188BFF36F8FBFF34F8FFEE7314A23
:104EE0001168314B186810601960304A136801333B
:104EF0001360FFF7A3FD2E4B1B68AB4238D9002788
:104F00002C4B1B68DB6A03EB83039A002A4B9B58EC
:104F1000012B3CD901273AE00127224B1B681B6873
:104F200043B3204B1B68DB68DC6863689D4226D373
:104F3000261D3046FEF708FFA36A1BB104F11800D6
:104F4000FEF702FFE36A01229A401C490868024307
:104F50000A6003EB83039A00314617481044FEF7BA
:104F6000CFFEE26A134B1B68DB6A9A42D4D2D4E7C5
:104F70000027D2E70E4B4FF0FF321A60C0E70C4A11
:104F80001360BDE70E4A13680133136000270D4B11
:104F90001B6803B101273846F8BD00BF3436002036
:104FA000B43600209435002098350020703600205B
:104FB0006C360020903500209C3500203C360020C7
:104FC00030360020B836002038B5354B1B6843B961
:104FD0004FF0500383F31188BFF36F8FBFF34F8FF0
:104FE000FEE7FEF71FFF2E4B1A68013A1A601B6896
:104FF000002B4FD12B4B1B680BB900244BE0002436
:10500000294B1B681BB3284BDB68DC6804F11800D4
:10501000FEF79AFE251D2846FEF796FEE06A01235C
:105020008340224A11680B43136000EB800029463D
:105030001F4B03EB8000FEF763FEE26A1D4B1B680B
:10504000DB6A9A42DCD31C4B01221A60D8E70CB110
:10505000FFF7F4FC194B1C6884B9174B1C68D4B1DA
:105060004FF0E0234FF08052C3F8042DBFF34F8F71
:10507000BFF36F8F01240EE0013C07D0FFF718FF4C
:105080000028F9D00C4B01221A60F5E70B4B0022E7
:105090001A60E2E70024FEF7E7FE204638BD00BFB5
:1050A0003436002028360020743600203C3600209C
:1050B0009C35002090350020B83600203036002086
:1050C00010B5A8B10446104B1B6843B14FF0500314
:1050D00083F31188BFF36F8FBFF34F8FFEE7FFF7A6
:1050E000DFFE00212046FFF7E7FDFFF76DFF48B91F
:1050F0004FF0E0234FF08052C3F8042DBFF34F8FE1
:10510000BFF36F8F10BD00BF34360020204B1B68EB
:105110001BB1204B01221A6070471E4B00221A60FF
:105120001D4B1B68B3FA83F3DBB2C3F11F0303EB20
:1051300083018A0019498A5842B94FF0500383F31A
:105140001188BFF36F8FBFF34F8FFEE7134903EB57
:10515000830082000A4450684068506003EB830C6F
:105160004FEA8C0208321144884209D003EB8303D2
:105170009A000A4B13445B68DA68094B1A6070475F
:10518000406862469100054A0A445060EEE700BF5D
:1051900034360020B83600203C3600209C350020F4
:1051A0009035002058B110B50C46094A11681831E5
:1051B000FEF7B1FD01212046FFF77EFD10BD4FF047
:1051C000500383F31188BFF36F8FBFF34F8FFEE758
:1051D0009035002070B110B514460246114B1B6883
:1051E0008BB94FF0500383F31188BFF36F8FBFF378
:1051F0004F8FFEE74FF0500383F31188BFF36F8F9B
:10520000BFF34F8FFEE7084B186841F00041816102
:10521000196818311046FEF773FD01212046FFF78B
:105220004BFD10BD343600209035002038B5C368E2
:10523000DC6824B304F118052846FEF785FD184BF9
:105240001B682BBB251D2846FEF77EFDE06A012367
:105250008340144A11680B43136000EB8000294619
:10526000114B03EB8000FEF74BFDE26A0F4B1B680E
:10527000DB6A9A4211D901200D4B186038BD4FF0FE
:10528000500383F31188BFF36F8FBFF34F8FFEE797
:1052900029460848FEF734FDE7E70020EEE700BFA7
:1052A000343600203C3600209C350020903500200C
:1052B000B83600207436002038B51C4B1B6843B943
:1052C0004FF0500383F31188BFF36F8FBFF34F8FFD
:1052D000FEE741F000410160C468F4B1FEF734FD1F
:1052E000251D2846FEF730FDE06A01238340104A61
:1052F00011680B43136000EB800029460D4B03EB54
:105300008000FEF7FDFCE26A0B4B1B68DB6A9A42E9
:1053100002D90A4B01221A6038BD4FF0500383F3C3
:105320001188BFF36F8FBFF34F8FFEE73436002035
:105330003C3600209C35002090350020B8360020F7
:10534000034B1B680360034B1B684360704700BF3F
:1053500070360020B4360020D8B170B50C46054632
:1053600001B3FEF75FFD1B4B19686B68C81A226812
:10537000B2F1FF3F27D0184E3668D5F800C0B445CB
:1053800001D08B4224D9824215D800232360012406
:105390001AE04FF0500383F31188BFF36F8FBFF310
:1053A0004F8FFEE74FF0500383F31188BFF36F8FE9
:1053B000BFF34F8FFEE75B1A134423602846FFF7C5
:1053C000BFFF002400E00024FEF74EFD204670BD24
:1053D0000124F9E7B436002070360020014B012289
:1053E0001A607047B8360020054B1B6833B1054B77
:1053F0001B680BB1002070470220704701207047E6
:105400008836002034360020002851D038B50446B4
:10541000C36A294A1268D26A934241D28269002A39
:1054200005DB254A1268D26AC2F10702826161690E
:1054300003EB8303214A02EB8303994205D01E4B01
:105440001B68DB6AE362012038BD251D2846FEF794
:105450007BFCA0B1184B1B68D86AE062012404FAF7
:1054600000F3174A11680B43136000EB80002946D4
:10547000124B03EB8000FEF743FC2046E4E7E26AB0
:1054800002EB82039B000D49CB58002BE2D1012394
:1054900003FA02F20A490B6823EA02030B60D9E718
:1054A000426C054B1B68DB6A9A4203D30020CBE7B2
:1054B000002070470120C7E7903500209C35002070
:1054C0003C36002000284CD038B50446274B1B68DA
:1054D000834208D04FF0500383F31188BFF36F8FDE
:1054E000BFF34F8FFEE7836C43B94FF0500383F354
:1054F0001188BFF36F8FBFF34F8FFEE7013B8364CB
:10550000C16A426C91422ED00BB1002038BD051DFE
:105510002846FEF719FC70B9E26A02EB82039B0091
:105520001349CB583BB9012303FA02F211490B6826
:1055300023EA02030B60606CE062C0F10703A36121
:10554000012404FA00F30B4A11680B43136000EBCB
:1055500080002946064B03EB8000FEF7D1FB204676
:10556000D4E7002070470020D0E700BF903500202E
:105570009C3500203C360020002856D038B5044623
:10558000836C43B94FF0500383F31188BFF36F8FDF
:10559000BFF34F8FFEE7426C8A4200D20A46E16AAF
:1055A000914201D0012B00D038BD204B1B68A34293
:1055B00032D0E262A369002B02DBC2F10702A261D2
:1055C000626901EB81011A4B03EB81018A42EBD145
:1055D000251D2846FEF7B8FB70B9E26A02EB82038C
:1055E0009B001349CB583BB9012303FA02F211493E
:1055F0000B6823EA02030B60E06A012383400D4A33
:1056000011680B43136000EB80002946084B03EB45
:105610008000FEF775FBC7E74FF0500383F3118856
:10562000BFF36F8FBFF34F8FFEE7704790350020B9
:105630009C3500203C360020044A136898691368A2
:10564000DB6A1268C3F1070393617047903500204D
:10565000054B1B6823B1044B1A68936C01339364A8
:10566000014B1868704700BF9035002070B50D4E93
:105670000D4D761BB61006D0002455F8043B0134BE
:105680009847A642F9D1094E094D00F0D5F8761B8E
:10569000B61006D0002455F8043B01349847A642C2
:1056A000F9D170BDC85A0008C85A0008D05A00087D
:1056B000C85A0008830730B548D0541E002A3FD08E
:1056C0000346CAB201E0013C3AD303F8012B9D071F
:1056D000F9D1032C2DD9CDB245EA05250F2C45EA89
:1056E000054536D9A4F1100222F00F0C03F1200E6B
:1056F000E6444FEA121C03F1100242E9045542E964
:10570000025510327245F8D10CF1010214F00C0F61
:1057100003EB021204F00F0C13D0ACF1040323F0DE
:1057200003030433134442F8045B9342FBD10CF0AF
:1057300003042CB1CAB21C4403F8012B9C42FBD1D8
:1057400030BD64461346002CF4D1F9E703461446F5
:10575000BFE71A46A446E0E7024B13B1024800F047
:1057600005B8704700000000795700080023014683
:105770001A46184600F01AB838B5084B084D5B1B9E
:105780009C1007D0043B1D44013C55F80439984750
:10579000002CF9D1BDE8384000F054B8D45A0008C4
:1057A000D05A0008704700BF704700BF2DE9F0478E
:1057B000DFF87CA00646DAF8000098460F469146CE
:1057C000FFF7F0FF1B4B1B68D3F8484124B3656813
:1057D0001F2D26DC5EB96B1C0235DAF80000636011
:1057E00044F82570FFF7E0FF0020BDE8F0870123B3
:1057F00004EB8501C1F88890D4F88821AB401A43A6
:10580000022EC4F88821C1F80881E4D1D4F88C2193
:105810001343C4F88C31DEE703F5A674C3F848419E
:10582000D5E7DAF80000FFF7BFFF4FF0FF30DCE705
:1058300040040020C45A0008F8B500BFF8BC08BCFA
:105840009E467047F8B500BFF8BC08BC9E4670473E
:10585000145900083D02000800000000000000008C
:105860008000000000000000000000002059000837
:10587000510200080300000000000000800000004A
:1058800000000000000000003059000879090008FD
:10589000FFFF00000000000080000000000000008A
:1058A000000000003C590008A90C0008FDFF0000A2
:1058B00000000000000100000000000000000000E7
:1058C0004859000847020008FDFF000000000000E2
:1058D0008000000000000000000000005459000893
:1058E00045130008FDFF00000000000080000000DC
:1058F000000000000000000064590008AD1300081B
:10590000FDFF00000000000080000000000000001B
:105910000000000064656661756C745461736B000F
:1059200055617274315265616448616E646C6500E2
:105930004750494F5461736B000000006D757369E7
:10594000635461736B0000006D794153435461737C
:105950006B00000047616D65466C61675461736B55
:105960000000000047616D655461736B000000002A
:1059700000000000000000000102030406070809FF
:1059800000000000010203042F30322E6D7033003E
:105990002F30332E6D7033002F31342E6D70330065
:1059A0002F31352E6D7033002F31362E6D70330050
:1059B0002F342E6D703300002F31382E6D70330070
:1059C0002F31392E6D7033002F32302E6D70330031
:1059D0002F32312E6D7033002F32332E6D70330025
:1059E0002F32352E6D7033002F32362E6D7033000E
:1059F0002F32372E6D7033002F32382E6D703300FA
:105A00002F33302E6D7033002F33312E6D703300F5
:105A10002F33322E6D7033002F33332E6D703300E1
:105A20002F33342E6D7033002F33352E6D703300CD
:105A30002F33362E6D7033002F33372E6D703300B9
:105A40002F33382E6D7033002F33392E6D703300A5
:105A50002F34302E6D7033002F34312E6D703300A3
:105A60002F34322E6D7033002F34332E6D7033008F
:105A70002F34342E6D7033002F34352E6D7033007B
:105A80002F34362E6D7033002F30352E6D7033006D
:105A90002F30362E6D7033002F31312E6D70330064
:105AA0002F31322E6D7033000203040506070809FA
:105AB0000A0B0C0D0E0F10100102000049444C455A
:085AC0000000000018000020A6
:085AC8005957000835010008E0
:045AD00011010008B8
