:020000040800F2
:1000000000500020552900082D0F00082F0F000870
:10001000310F0008330F0008350F00080000000002
:10002000000000000000000000000000A1410008E6
:10003000370F000800000000414200088542000818
:100040009D2900089D2900089D2900089D29000878
:100050009D2900089D2900089D2900089D29000868
:100060009D2900089D2900089D2900089D29000858
:100070009D2900089D2900089D2900089D29000848
:100080009D2900089D2900089D2900089D29000838
:100090009D2900089D2900089D2900089D29000828
:1000A0009D2900089D2900089D2900089D29000818
:1000B000390F00089D2900089D2900089D29000886
:1000C0009D2900089D2900089D2900089D290008F8
:1000D0009D290008490F0008590F0008690F000802
:1000E0009D2900089D2900089D29000800000000A6
:1000F0000000000000000000000000000000000000
:0C01000000000000000000005FF808F1A3
:1001100010B5054C237833B9044B13B10448AFF341
:1001200000800123237010BD140500200000000092
:10013000345C000808B5034B1BB103490348AFF317
:10014000008008BD0000000018050020345C000895
:10015000844641EA000313F0030349D1403A23D314
:100160000B6803604B6843608B688360CB68C36037
:100170000B6903614B6943618B698361CB69C3611F
:100180000B6A03624B6A43628B6A8362CB6AC36207
:100190000B6B03634B6B43638B6B8363CB6BC363EF
:1001A00040304031403ADBD230320BD30B68036031
:1001B0004B6843608B688360CB68C360103010313C
:1001C000103AF3D20C3205D351F8043B40F8043B0B
:1001D000043AF9D2043208D0D2071CBF11F8013B0F
:1001E00000F8013B01D30B8803806046704700BFD5
:1001F000082A13D38B07B1D010F00303AED0C3F19C
:100200000403D21ADB071CBF11F8013B00F8013BC5
:10021000A4D331F8023B20F8023B9FE7043AD9D33C
:10022000013A11F8013B00F8013BF9D20B78037059
:100230004B7843708B7883706046704708B5012017
:1002400003F014FEFBE708B5012003F00FFEFBE707
:1002500008B5012003F00AFEFBE7000000B5A7B0D7
:1002600098E09DF85430012B0FD0002B40F0928085
:100270009DF853305A0903F01F0301219940624B46
:1002800053F8220003F099FE84E09DF853305A0998
:1002900003F01F03012199405B4B53F8220003F048
:1002A000AFFE77E09DF85330ADF804309DF8543040
:1002B000003B18BF01238DF8063000231A4601A920
:1002C0005248006804F0C7FA012863D0EE238DF885
:1002D00051304FF0FF33BDF894200DF151014C48DF
:1002E00003F028FB56E04B4B01939DF853308DF8FB
:1002F0000830259A043A139215A90DF10900FFF769
:1003000027FF00231A4601A94348006804F0A3FA16
:1003100001283FD0EE238DF851304FF0FF33BDF868
:1003200094200DF151013A4803F004FB32E03B4BBD
:1003300001939DF853308DF80830259A043A1392B2
:1003400015A90DF10900FFF703FF00231A4601A9C3
:100350003148006804F07FFA01281BD0EE238DF8A5
:1003600051304FF0FF33BDF894200DF15101284872
:1003700003F0E0FA0EE09DF853308DF804309DF85C
:1003800054308DF8053000231A4601A9244800682E
:1003900004F061FA4FF0FF3214A9224B186804F000
:1003A0009BFB0128F6D19DF85230013B0F2BF1D871
:1003B00001A252F823F000BF63020008A502000862
:1003C000E70200082F0300087703000895030008E0
:1003D000950300089503000895030008950300089D
:1003E000950300089503000895030008950300088D
:1003F00095030008F903000800231A4619460A4825
:10040000006804F028FAC5E74805002068050020C8
:10041000D8090020200A002060050020680A00207A
:10042000400500207005002080050020034B03607C
:10043000034B0B6080231360704700BF84070020CC
:100440008405002010B5C0B0002405E003F023FDB2
:100450006B4B43F824000134042CF7DD03F01BFD43
:10046000684B186000F0DEFE03220021012004F03A
:10047000CBF9654B1860002248210F2004F0C4F925
:10048000624B1860002248210F2004F0BDF9604B38
:10049000186000220421802004F0B6F95D4B18603A
:1004A00000224C210F2004F0AFF95B4B18600022B2
:1004B00002210F2004F0A8F9584B1860584C0DF198
:1004C000E40CA646BEE80F00ACE80F009EE807006B
:1004D0008CE80700002139A803F093FC514B186009
:1004E0000DF1C80C04F11C0EBEE80F00ACE80F00C3
:1004F0009EE807008CE80700002132A803F081FC89
:10050000494B18600DF1AC0C04F1380EBEE80F0039
:10051000ACE80F009EE807008CE8070000212BA83C
:1005200003F06FFC414B18600DF1900C04F1540E78
:10053000BEE80F00ACE80F009EE807008CE807005B
:10054000002124A803F05DFC394B18600DF1740CF8
:1005500004F1700EBEE80F00ACE80F009EE8070043
:100560008CE8070000211DA803F04BFC314B1860FC
:100570000DF1580C04F18C0EBEE80F00ACE80F0032
:100580009EE807008CE80700002116A803F039FC5C
:10059000294B18600DF13C0C04F1A80EBEE80F00C9
:1005A000ACE80F009EE807008CE8070000210FA8C8
:1005B00003F027FC214B18600DF1200C04F1C40E50
:1005C000BEE80F00ACE80F009EE807008CE80700CB
:1005D000002108A803F015FC194B18600DF1040C5C
:1005E000E0340FCCACE80F0094E807008CE807007B
:1005F000002101A803F005FC124B186040B010BDAB
:10060000480500205C0500208005002070050020C2
:1006100064050020680500206005002040050020DA
:100620004C5C0008740500206C0500203805002093
:10063000780500207C0500203C05002044050020B2
:1006400030050020340500202DE9F04188B0002459
:100650000494059406940794294B9A6942F0200269
:100660009A619A6902F020020192019A9A6942F015
:1006700004029A619A6902F004020292029A9A694B
:1006800042F008029A619B6903F008030393039BFD
:10069000DFF87080224648F2B001404602F085FB48
:1006A000194E224643F2F831304602F07EFB022713
:1006B000049705940125069504A9404602F05CFACA
:1006C00048F2B003049305950694079704A94046A1
:1006D00002F052FA44F2040304930594069504A927
:1006E000304602F049FA43F2F83304930595069434
:1006F000079704A9304602F03FFA08B0BDE8F08140
:100700000010024000080140000C014038B50446CA
:1007100002784FF40041154802F047FB144D62780F
:100720000821284602F041FBA2781021284602F059
:100730003CFBE2782021284602F037FB2279402159
:10074000284602F032FB62798021284602F02DFB18
:10075000A2794FF48071284602F027FBE2794FF42A
:100760000071284602F021FB38BD00BF000801409F
:10077000000C014070B506464C1E13E0012280219A
:10078000154802F012FB144D00222021284602F0E9
:100790000CFB012003F06AFB01222021284602F015
:1007A00004FB013C072C08DD335D002BE6D1002261
:1007B0008021094802F0F9FAE5E7074C00221021F0
:1007C000204602F0F2FA012003F050FB0122102132
:1007D000204602F0EAFA70BD0008014010B5044658
:1007E000FFF794FF70212046FFF7C4FF10BD000003
:1007F00000B583B0ADF804008DF8061000231A464A
:1008000001A90348006804F026F803B05DF804FB72
:1008100068050020F8B504460D46294E00224FF425
:100820008051304602F0C1FA012003F01FFB012283
:100830004FF48051304602F0B8FA012003F016FB65
:100840004FF48041304602F0A9FAB0FA80F0400936
:100850002070012619E01A4F00224FF4005138464B
:1008600002F0A3FA012003F001FB01224FF4005132
:10087000384602F09AFA4FF48041384602F08EFA78
:10088000B0FA80F04009A0550136AE42E3DB4FF0EC
:10089000000C0FE00CEB030014F800E0C3F10702BA
:1008A0006244A15C215404F802E00133032BF1DD22
:1008B0000CF1080CAC4501DA0023F7E7F8BD00BFE6
:1008C000000C0140014B185C704700BFD8070020A6
:1008D000044B1A5C044B1B5C9A4201D00120704708
:1008E00000207047D8070020BC08002010B582B057
:1008F0007021FFF78FFF002418E02A4A82FB0432A0
:10090000E317C3EBA20303EB4302A4EBC2020121F2
:100910009140254A52F8230003F072FB234B1B68D9
:1009200013BB234B1A5D234B1A5501346F2C33DC58
:100930002046FFF7CDFF0028F7D02046FFF7C2FF83
:100940000128DAD0174A82FB0432E317C3EBA20373
:1009500003EB4302A4EBC20201219140124A52F878
:10096000230003F02AFBD9E7CC238DF800300123C4
:100970008DF801308DF802402046FFF7A3FF8DF877
:100980000300FF238DF804304FF0FF330522694642
:10099000094802F0CFFFC4E7044B01221A6002B0FD
:1009A00010BD00BFABAAAA2A4805002048080020B5
:1009B000D8070020BC080020D809002010B584B05A
:1009C0004CE000213B4B186804F035F901283CD17C
:1009D000002400E001346F2C18DC374B1B5D012B29
:1009E000F8D1CC238DF8043001238DF805308DF833
:1009F00006408DF80730FF238DF808304FF0FF33A5
:100A0000052201A92D4802F095FFE3E7002400E04C
:100A100001346F2C19DC2A4B1B5D012BF8D1CC2340
:100A20008DF8043002238DF805308DF8064001233F
:100A30008DF80730FF238DF808304FF0FF33052283
:100A400001A91E4802F076FFE2E7012003F00EFA4A
:100A50001B48FFF7C3FE1848FFF748FF002203A911
:100A6000184B186804F038F80128AAD1BDF80C20FA
:100A7000134B995C9DF80E309942EFD010498B547E
:100A8000CC218DF8041002218DF805108DF8062078
:100A9000012B14BF002301238DF80730FF238DF8AD
:100AA00008304FF0FF33052201A9044802F042FF4D
:100AB000D4E700BF80050020D8070020D809002017
:100AC0004C0800206805002008B50368B3F1804F8A
:100AD00000D008BD01F076FFFBE772B6FEE700B577
:100AE00091B02822002106A804F0B4FF002301934E
:100AF0000293039304930593012206924FF48033EB
:100B000007930A9202220D920E934FF4E0130F9373
:100B100006A802F067F980B90F2301930221029120
:100B2000002303934FF480620492059301A802F01E
:100B30008BFB20B911B05DF804FBFFF7CEFFFFF788
:100B4000CCFF000008B501F02BFFFFF7C8FFFFF74F
:100B50007BFD00F013FA00F02BFA00F043FA0122BB
:100B600009490A4803F02FF901220949094803F00D
:100B70002AF901220849094803F025F9FFF762FC28
:100B800003F03AF9FEE700BF2C090020D809002045
:100B900050090020200A002070090020680A002067
:100BA0002DE9F04100AF8046084611461E46DC1C88
:100BB0000B3323F00703ADEB030D6D468DF80000FA
:100BC000C0438DF801008DF8026032460DF103003C
:100BD000FFF7BEFA00210DF8041006E015F801C079
:100BE0002B5D9C4405F804C00131A142F6D3321DAF
:100BF0004FF0FF3392B22946404602F09BFEC820D8
:100C000003F034F9BD46BDE8F0810000402A00D968
:100C1000704770B594B006460D4614464C2200212C
:100C200001A804F017FF019604238DF8083007236C
:100C30008DF80930224629460DF10A00FFF788FA9F
:100C40000134139400231A4601A90348006803F0F5
:100C500002FE14B070BD00BF6005002010B594B056
:100C600004464C22002101A804F0F4FE0194042360
:100C70008DF80830012313930A238DF809300023DF
:100C80001A4601A90248006803F0E5FD14B010BD42
:100C90006005002030B595B005460C464C22002179
:100CA00001A804F0D7FE01950B238DF8083002232C
:100CB000139301238DF809308DF80A4000231A465A
:100CC00001A90348006803F0C6FD15B030BD00BFA0
:100CD0006005002010B594B004464C22002101A804
:100CE00004F0B8FE019404238DF808300123139317
:100CF00003238DF8093000231A4601A90248006831
:100D000003F0A9FD14B010BD6005002070B5B6B0A9
:100D10000221434802F042F805460421414802F00E
:100D20003DF8044657E0359B0DF191029DF8901077
:100D30002398FFF735FF56E0CC238DF800309DF85F
:100D400044308DF80130229E32460DF145010DF1FF
:100D50000200FFF7FDF906F1DA036B44FF2203F806
:100D6000D82CF21C4FF0FF3392B269462E4802F0A5
:100D7000E1FD40E002212A4802F010F800283CD1B1
:100D800001212A4B186803F018F936E002212448A3
:100D900002F004F8012832D10121244B186803F035
:100DA0002FF92CE004211F4801F0F8FF48BB4FF455
:100DB00080711E4B186803F000F922E002211848E8
:100DC00001F0ECFF05460421164801F0E7FF044658
:100DD000012003F04BF8002223A9154B186803F0FB
:100DE0007BFE01289FD0002211A9124B186803F046
:100DF00073FE0128A0D0012DBCD0002DC6D0012C3F
:100E0000D0D0002CDAD10421064801F0C7FF012818
:100E1000D4D14FF48071054B186803F0F1F8CDE799
:100E200000080140000C0140D80900205C050020AA
:100E3000600500206405002000B583B0114B9A695D
:100E400042F001029A619A6902F001020092009A4E
:100E5000DA6942F08052DA61DB6903F08053019372
:100E6000019B00220F216FF0010001F0CFFD064A27
:100E7000536823F0E06343F00073536003B05DF800
:100E800004FB00BF001002400000014030B589B0F3
:100E90000446224BDA6942F00102DA61DB6903F0B1
:100EA00001030193019B02A903A802F0A9FA069B82
:100EB000D3B902F085FA03461948A0FB03239B0C23
:100EC000013B18484FF08042026040F2E732C260B6
:100ED0004360002303618360836102F0E1FB054608
:100EE00030B1284609B030BD02F06AFA4300E3E7AA
:100EF0000C4802F0A5FA05460028F2D11C2001F0AA
:100F0000BDFD0F2C01D90125EBE7002221461C2055
:100F100001F07CFD044B1C60E3E700BF00100240C1
:100F200083DE1B4390090020DC000020FEE7FEE783
:100F3000FEE7FEE7FEE7704708B5024802F0B8FAA0
:100F400008BD00BF9009002008B5024802F0DCFD92
:100F500008BD00BFD809002008B5024802F0D4FD42
:100F600008BD00BF200A002008B5024802F0CCFDF1
:100F700008BD00BF680A00207047000008B50A4895
:100F80000A4B03604FF4E133436000238360C36086
:100F900003610C2242618361C36102F09BFC00B9D2
:100FA00008BDFFF79AFDFBE7D80900200038014093
:100FB00008B50A480A4B03604FF4165343600023F8
:100FC0008360C36003610C2242618361C36102F0EC
:100FD00081FC00B908BDFFF780FDFBE7200A002077
:100FE0000044004008B50A480A4B03604FF416530A
:100FF000436000238360C36003610C22426183610C
:10100000C36102F067FC00B908BDFFF766FDFBE7AE
:10101000680A00200048004030B58BB000230693DA
:1010200007930893099303684F4A934207D04F4AA6
:10103000934236D04E4A934263D00BB030BD4D4BF5
:101040009A6942F480429A619A6902F4804200925D
:10105000009A9A6942F004029A619B6903F00403C2
:101060000193019B4FF4007306930223079303231C
:101070000993414D06A9284601F07EFD4FF4806397
:10108000069300240794089406A9284601F074FDED
:1010900022460521252001F0B9FC252001F0EEFCB7
:1010A000CBE7344BDA6942F40032DA61DA6902F4F0
:1010B00000320292029A9A6942F004029A619B6994
:1010C00003F004030393039B042306930223079373
:1010D00003230993284D06A9284601F04DFD082356
:1010E000069300240794089406A9284601F044FDBD
:1010F00022460521262001F089FC262001F0BEFCB5
:101100009BE71C4BDA6942F48022DA61DA6902F467
:1011100080220492049A9A6942F008029A619B69BB
:1011200003F008030593059B4FF4806306930223A5
:10113000079303230993114D06A9284601F01CFDCE
:101140004FF40063069300240794089406A92846E8
:1011500001F012FD22460521272001F057FC27202F
:1011600001F08CFC69E700BF0038014000440040FA
:10117000004800400010024000080140000C0140FF
:101180000268224B9A4200D0704710B594B0204BB1
:101190001B78204AD35CCC2B19D01F4B1B6863B142
:1011A000036858681A4B19784A1CD2B21A70194B46
:1011B0005854511E5B5CFF2B10D0154B1B7801223D
:1011C00014491944154802F0FEFD14B010BD124B2D
:1011D00001221A600E4B00221A70DEE700240194EF
:1011E00002238DF8083013920A490DF10900FEF729
:1011F000AFFF234601AA02A90948006803F006FCD4
:10120000054B1C60024B1C70D7E700BF0038014043
:101210004C0900202C090020B00A0020D809002029
:101220007005002008B5012003F0E5FB014B1860B4
:1012300008BD00BF100B002010B504460028D4BF25
:10124000002101212C20FFF7D3FA012CD4BF00216B
:1012500001212D20FFF7CCFA022CD4BF002101215F
:101260003020FFF7C5FA032CD4BF00210121312023
:10127000FFF7BEFA042CD4BF002101213220FFF772
:10128000B7FA052CD4BF002101213320FFF7B0FAB3
:10129000062CD4BF002101212E20FFF7A9FA072C2C
:1012A000D4BF002101212F20FFF7A2FA082CD4BFC0
:1012B000002101213420FFF79BFA092CD4BF002123
:1012C00001213520FFF794FA0A2CD4BF0021012117
:1012D0003620FFF78DFA0B2CD4BF002101213720D7
:1012E000FFF786FA0C2CD4BF002101213820FFF72C
:1012F0007FFA0D2CD4BF002101213920FFF778FAA5
:101300000E2CD4BF002101213A20FFF771FA0F2CD7
:10131000D4BF002101213B20FFF76AFA10BD000075
:1013200010B582B0414B6C4693E8030084E803009B
:10133000204604F0E1FB0246042321463C48FFF727
:1013400065FC01214220FFF753FA01214420FFF7F9
:101350004FFA01214120FFF74BFA01214620FFF708
:1013600047FA0020FFF768FF4FF47A7002F07EFD25
:1013700000214220FFF73CFA00214420FFF738FA11
:1013800000214120FFF734FA00214620FFF730FA10
:10139000284C2068FFF750FF4FF47A7002F066FD8A
:1013A00001214220FFF724FA01214420FFF720FA0F
:1013B00001214120FFF71CFA01214620FFF718FA0E
:1013C0000020FFF739FF4FF47A7002F04FFD002143
:1013D0004220FFF70DFA00214420FFF709FA00210F
:1013E0004120FFF705FA00214620FFF701FA2068A7
:1013F000FFF722FF2368022B07D00E4B1868013835
:101400001860FFF719FF02B010BD0B4B6C4693E854
:10141000030084E80300204604F06EFB0246042328
:1014200021460648FFF7F2FBE7E700BFD05D000862
:10143000680A0020D4000020D85D0008200A00209F
:10144000F0B585B013E2784B02AC93E8030084E872
:101450000300204604F050FB024604232146734853
:10146000FFF7D4FB7AE0724B02AC93E8030084E808
:101470000300204604F040FB0246042321466B484B
:10148000FFF7C4FB6AE06B4B02AC93E8030084E80F
:101490000300204604F030FB024604232146634843
:1014A000FFF7B4FB5AE0644B02AC93E8030084E816
:1014B0000300204604F020FB0246042321465B483B
:1014C000FFF7A4FB4AE05D4B02AC93E8030084E81D
:1014D0000300204604F010FB024604232146534833
:1014E000FFF794FB3AE0564B02AC93E8030084E824
:1014F0000300204604F000FB0246042321464B482B
:10150000FFF784FB2AE04F4B02AC93E8030084E82A
:101510000300204604F0F0FA024604232146434823
:10152000FFF774FB1AE0484B02AC93E8030084E831
:101530000300204604F0E0FA0246042321463B481B
:10154000FFF764FB0AE0FFF7EBFE404A1368A3F5E0
:10155000DA53183B13603E4B01229A550136432E55
:1015600000F384803B4FB95D3B4CA4FB013213096F
:10157000184603EB4303A1EBC301C9B201250023C5
:1015800000932B462A4605FA01F1DFF8D0C05CF83B
:10159000200002F08EFCBB5DA4FB0324240904EBB5
:1015A0004404A3EBC404E4B2A54035EA0003D5D15A
:1015B0002B4C0121A05DFFF71BF94FF4FA7002F0EC
:1015C00055FC0021A05DFFF713F90A2E3FF43BAF55
:1015D0000C2E3FF448AF0E2E3FF455AF0F2E3FF4C4
:1015E00062AF122E3FF46FAF182E3FF47CAF1A2E6D
:1015F00089D01C2E97D0164B9B5D002BAED1194B7A
:101600009B5D002B9FD0184B02AC93E8030084E84D
:101610000300204604F070FA0246042321460348E2
:10162000FFF7F4FA97E700BFE05D0008680A0020C2
:10163000E85D0008F05D0008F85D0008005E000845
:10164000085E0008105E0008185E0008D000002048
:10165000C00A002004000020ABAAAAAA4805002066
:10166000480000208C000020205E0008002300932A
:1016700001231A464FF40061BE48406802F019FC8D
:1016800010F4006F40F0F5800023009301231A4608
:101690004FF40071B748406802F00BFC10F4007F73
:1016A00040F0F7800023009301231A464FF4806135
:1016B000B048406802F0FDFB10F4806F40F0F98004
:1016C0000023009301231A464FF48071A948406813
:1016D00002F0EFFB10F4807F40F0FB8000230093CA
:1016E00001231A461946A348406802F0E2FB10F0B5
:1016F000010F40F0FE800023009301231A460221CF
:101700009C48406802F0D5FB10F0020F40F00181C8
:101710000023009301231A4604219648406802F0F2
:10172000C8FB10F0040F40F0048100230093012354
:101730001A4608218F48406802F0BBFB10F0080FE2
:1017400040F007810023009301231A464FF4001153
:101750008848806802F0ADFB10F4001F15D0864A5F
:10176000136801331360052B00F02481834B02AC16
:1017700093E8030084E80300204604F0BDF9024624
:10178000042321467E48FFF741FA002300930123FA
:101790001A464FF480017748806802F08AFB10F403
:1017A000800F40F01781774B1B680A2B00F02681D1
:1017B0000023009301231A464FF4F0116D48C068CE
:1017C00002F077FB00F4F013B3F5F01F00F029816D
:1017D0000023009301231A4604216648006902F0A1
:1017E00068FB10F0040F07D0674B1B7823B9674BD9
:1017F00018680F2840F329810023009301231A461B
:1018000008215C48006902F054FB10F0080F07D073
:101810005F4B1B7823B95D4B18680F2840F32C8170
:101820000023009301231A4604215248006802F065
:1018300040FB10F0040F40F0368100230093012399
:101840001A4604214B48C06802F033FB10F0040F25
:1018500040F02E810023009301231A4608214548B9
:10186000C06802F026FB10F0080F40F02A81002625
:1018700075E6484B02AC93E8030084E80300204679
:1018800004F03AF90246042321463D48FFF7BEF929
:10189000FAE6414B02AC93E8030084E803002046DB
:1018A00004F02AF90246042321463548FFF7AEF931
:1018B000F8E63A4B02AC93E8030084E803002046C4
:1018C00004F01AF90246042321462D48FFF79EF939
:1018D000F6E6334B02AC93E8030084E803002046AD
:1018E00004F00AF90246042321462548FFF78EF941
:1018F000F4E62C4B02AC93E8030084E80300204696
:1019000004F0FAF80246042321461D48FFF77EF949
:10191000F1E6254B02AC93E8030084E8030020467F
:1019200004F0EAF80246042321461548FFF76EF951
:10193000EEE61E4B02AC93E8030084E80300204669
:1019400004F0DAF80246042321460D48FFF75EF959
:10195000EBE6174B02AC93E8030084E80300204653
:1019600004F0CAF80246042321460548FFF74EF961
:10197000E8E600BF48050020BC0A0020285E0008F9
:10198000680A0020B80A0020B40A0020D400002011
:10199000B50A0020305E0008385E0008405E00088E
:1019A000485E0008505E0008585E0008605E00084F
:1019B000685E0008FFF7B4FC464B00221A6041F64F
:1019C000583002F053FA444A1368A3F5DA53183B2F
:1019D0001360CBE6414B02AC93E8030084E80300BC
:1019E000204604F089F80246042321463C48FFF7CC
:1019F0000DF93C4A136801331360D4E63A4B02AC4C
:101A000093E8030084E80300204604F075F80246DA
:101A1000042321463248FFF7F9F8324B0B221A60B3
:101A2000C6E600210A20FEF7E3FE304B02AC93E845
:101A3000030084E80300204604F05EF80246042315
:101A400021462748FFF7E2F8C2E6294A0121117032
:101A500008441860FFF7F0FB264B02AC93E8030044
:101A600084E80300204604F047F802460423214698
:101A70001B48FFF7CBF8BFE61F4A0121117008444D
:101A80001860FFF7D9FB1B4B02AC93E8030084E816
:101A90000300204604F030F8024604232146104893
:101AA000FFF7B4F8BCE600210120FEF7A1FEC4E672
:101AB00001214A20FEF79CFE00214920FEF798FEF6
:101AC000C8E601214920FEF793FE00214A20FEF7D7
:101AD0008FFECCE6BC0A0020D0000020705E00081B
:101AE000680A0020B80A0020785E0008805E0008BE
:101AF000B40A0020885E0008B50A002003688B4203
:101B000001DC0020704701207047000000B583B061
:101B10004FF0FF3201A90B4B186802F0DDFF0128DE
:101B2000F6D1094C4FF0FF31206803F084F89DF89E
:101B30000520064B1A6000231A461946206802F059
:101B40008AFEE5E740050020100B0020040B002072
:101B500030B587B00023059393E000230093012361
:101B60001A461946C848006802F0A3F910F0010FA0
:101B700037D0C64B08221A60C54B02221A6030E0EB
:101B80000023009301231A461946BF48006802F05B
:101B900090F910F0010F24D0BC4B07221A60BC4A08
:101BA0001368013313601CE0BA4A0021D154013399
:101BB000432BF9DDB84BB94A1A60B94B03AC93E833
:101BC000030084E80300204603F096FF0246042346
:101BD0002146B448FFF71AF800230593AC4B58226E
:101BE0001A60AB4B1B68DA1E1A2A02D9593B012B2B
:101BF0000DD8A94B1B68002B40F39686013BA64AE3
:101C00001360A94B1B6813B9A14B1E221A60002355
:101C1000009301231A4602219B48006802F049F90B
:101C200010F0020F02D09A4B28221A60059B013354
:101C30000593974B1B689D4A1268934217D0CC229C
:101C40008DF80C2005228DF80D2000218DF80E1046
:101C50008DF80F30FF238DF810304FF0FF3303A9BC
:101C6000934801F067FE8A4B1A68904B1A60002374
:101C70001A4619468F48006802F0EDFD012002F077
:101C8000F5F84FF0FF318B4B186802F0D4FF804B12
:101C90001C68631E632BA4D801A252F823F000BF76
:101CA000811B0008311E0008CD1E0008E71F000838
:101CB000FF1F000821200008432000089D20000885
:101CC000B5200008D7200008FD2000085121000899
:101CD0007721000891210008ED2100083922000831
:101CE0005D220008B1220008D72200082B2300083B
:101CF00059230008E31B0008E31B0008E31B00084E
:101D0000E31B0008E31B0008E31B0008E31B0008BB
:101D1000E31B00087D2300082B240008452400084D
:101D20006924000881240008E31B0008E31B000865
:101D3000E31B0008E31B0008E31B0008152500084F
:101D4000BB250008D5250008F92500081126000844
:101D5000E31B0008E31B0008E31B0008E31B00086B
:101D6000E31B000873260008112700082B27000832
:101D70003F27000857270008E31B0008E31B000863
:101D8000E31B0008E31B0008E31B0008B927000859
:101D90009D280008E31B0008E31B0008E31B000864
:101DA000E31B0008E31B0008E31B0008E31B00081B
:101DB000E31B0008E31B0008E31B0008E31B00080B
:101DC000E31B0008E31B0008E31B0008E31B0008FB
:101DD000E31B0008E31B0008E31B0008E31B0008EB
:101DE000E31B0008E31B0008E31B0008E31B0008DB
:101DF000E31B0008E31B0008E31B0008351E000876
:101E00004B1E00086F1E0008BD1E0008E31B0008E3
:101E1000E31B0008E31B0008E31B0008E31B0008AA
:101E2000E31B0008E31B0008E31B00085B1B000822
:101E30000023BDE6204905A8FFF760FE00283FF417
:101E4000D0AE0134124B1C60CBE601210220FEF71C
:101E5000CFFC114B114A1A60134B1868FFF7ECF9CD
:101E6000002305930A4A136801331360B9E64AF662
:101E7000C87105A8FFF742FE00283FF4B2AE013456
:101E8000034B1C60ADE600BF480500200C0B002092
:101E9000040B0020C00A0020D0000020808D5B00D1
:101EA000905E0008200A0020D4000020080B0020CB
:101EB000D8090020100B00204019010000214B2000
:101EC000FEF796FCBB4B03221A608AE600230093C0
:101ED00001231A460221B848006901F0EAFF10F018
:101EE000020F51D10023009301231A461946B2482C
:101EF000006901F0DEFF10F0010F3FF472AE012126
:101F00003E20FEF775FC4FF4FA7001F0AFFF0021A0
:101F10003E20FEF76DFC0121A84B83F843104B20B7
:101F2000FEF766FCA64B186801381860FFF784F9C5
:101F3000A44B03AC93E8030084E80300204603F0BD
:101F4000DBFD0246042321469F48FEF75FFE41F673
:101F5000583001F08BFF9D4A1368A3F5DA53183B04
:101F6000136000214220FEF743FC00214420FEF7CD
:101F70003FFC00214620FEF73BFC002305938D4AE1
:101F80001368013313602CE601213F20FEF730FC7B
:101F90004FF4FA7001F06AFF00213F20FEF728FCA1
:101FA0008B4B03AC93E8030084E80300204603F066
:101FB000A3FD0246042321468348FEF727FE0121A4
:101FC0004B20FEF715FC00214220FEF711FC0021FA
:101FD0004420FEF70DFC00214620FEF709FC754B5E
:101FE00006221A607EE747F2305105A8FFF786FD0A
:101FF00000283FF4F6AD01346E4B1C60F1E5012181
:102000003F20FEF7F5FB4FF4FA7001F02FFF00219F
:102010003F20FEF7EDFB674A136801331360E0E5EC
:1020200000220092012308216348006801F041FF6B
:1020300010F0080F7FF4D5AD5E4A136801331360CA
:10204000CFE5644B1B68072B15DC634B03AC93E8AF
:10205000030084E80300204603F04EFD02460423FB
:1020600021465948FEF7D2FD00230593514A1368D3
:1020700001331360B5E5594B03AC93E8030084E8E2
:102080000300204603F038FD0246042321464E4853
:10209000FEF7BCFD474B0A221A60A2E54AF228016E
:1020A00005A8FFF72BFD00283FF49BAD0134414B01
:1020B0001C6096E501210320FEF79AFB4FF4FA70AD
:1020C00001F0D4FE00210320FEF792FB394A136889
:1020D0000133136085E50023009301231A464FF472
:1020E00080513548006801F0E4FE10F4805F3FF451
:1020F00078AD304A13680133136072E5384B03AC96
:1021000093E8030084E80300204603F0F5FC024650
:10211000042321462C48FEF779FD00210E20FEF70E
:1021200067FB00214820FEF763FB2E4B93E803007A
:1021300084E80300204603F0DFFC02460123214629
:102140002948FEF763FD1B4A13680133136048E515
:102150000023009301231A464FF4000116488068BB
:1021600001F0A7FE10F4000F3FF43BAD114A1368D5
:102170000133136035E500215B20FEF739FB0021B8
:102180004920FEF735FB0B4A13680133136028E53D
:102190000023009301231A4602210748C06801F07A
:1021A00088FE10F0020F3FF41CAD024A13680133A1
:1021B000136016E5040B002048050020C00A00202B
:1021C000D4000020985E0008680A0020D00000209B
:1021D000A05E00080C0B0020A85E0008B05E00089E
:1021E000B85E0008C05E0008200A0020BD4B03ACAA
:1021F00093E8030084E80300204603F07DFC0246D8
:1022000001232146B848FEF701FD00215920FEF7C1
:10221000EFFAB64B93E8030084E80300204603F08E
:102220006BFC024604232146B148FEF7EFFCB14A9D
:10223000136801331360D4E40023009301231A468A
:102240001946AD48C06801F034FE10F0010F3FF4AC
:10225000C8ACA84A136801331360C2E4A74B03ACAF
:1022600093E8030084E80300204603F045FC02469F
:10227000012321469C48FEF7C9FC00215A20FEF7A5
:10228000B7FA00214720FEF7B3FA9D4B93E803000D
:1022900084E80300204603F02FFC02460423214675
:1022A0009348FEF7B3FC934A13680133136098E434
:1022B0000023009301231A464FF400618E48006802
:1022C00001F0F7FD10F4006F3FF48BAC894A1368FE
:1022D0000133136085E48B4B03AC93E8030084E87F
:1022E0000300204603F008FC0246012321467E48F5
:1022F000FEF78CFC00210F20FEF77AFA0021462021
:10230000FEF776FA804B93E8030084E8030020464A
:1023100003F0F2FB0246042321467548FEF776FCE3
:10232000744A1368013313605BE4002300930123B4
:102330001A464FF480417048006801F0BAFD10F46D
:10234000804F3FF44EAC00212B20FEF751FA694A32
:1023500013680133136044E40023009301231A46F9
:102360004FF400416448006801F0A3FD10F4004FF1
:102370003FF437AC5F4B32221A6032E45A4D2846A4
:10238000FEF7A8FC01214B20FEF732FA012148207C
:10239000FEF72EFA01214920FEF72AFA01214A20F0
:1023A000FEF726FA01214720FEF722FA01214620F6
:1023B000FEF71EFA01214B20FEF71AFA01214220F6
:1023C000FEF716FA01214420FEF712FA01214120FE
:1023D000FEF70EFA00210220FEF70AFA012143203F
:1023E000FEF706FA01214520FEF702FA01210C2032
:1023F000FEF7FEF904212846FEF74CFC434B03ACE4
:1024000093E8030084E80300204603F075FB0246CE
:10241000042321462846FEF7F9FB00230593354A9D
:10242000136801331360FFF7DCBB49F2704105A864
:10243000FFF764FB00283FF4D4AB01342D4B1C6044
:10244000FFF7CFBB00214320FEF7D2F90021452042
:10245000FEF7CEF900210C20FEF7CAF9254A1368D1
:1024600001331360FFF7BDBB294905A8FFF746FB01
:1024700000283FF4B6AB01341E4B1C60FFF7B1BB24
:1024800000214B20FEF7B4F900214820FEF7B0F9F7
:1024900000214920FEF7ACF900214A20FEF7A8F9F7
:1024A00000214720FEF7A4F900214620FEF7A0F9FD
:1024B00000214B20FEF79CF900214220FEF798F9FD
:1024C00000214420FEF794F900214120FEF790F905
:1024D00000210846FEF78CF9064B00221A60FFF730
:1024E00080BB00BFC85E0008200A0020D05E000844
:1024F000680A0020040B002048050020D85E000870
:10250000E05E0008E85E0008F05E0008F85E000883
:1025100098340100DB4D2846FEF7DCFB01214B20FF
:10252000FEF766F901214820FEF762F901214920F2
:10253000FEF75EF901214A20FEF75AF901214720F2
:10254000FEF756F901214620FEF752F901214B20F2
:10255000FEF74EF901214220FEF74AF901214420FD
:10256000FEF746F901214120FEF742F901214320FF
:10257000FEF73EF901214520FEF73AF901210C2032
:10258000FEF736F904212846FEF784FBBE4B03AC68
:1025900093E8030084E80300204603F0ADFA024606
:1025A000042321462846FEF731FB00230593B74A52
:1025B000136801331360FFF714BB48F2E80105A864
:1025C000FFF79CFA00283FF40CAB0134AF4B1C60C2
:1025D000FFF707BB00214320FEF70AF90021452041
:1025E000FEF706F900210C20FEF702F9A74A13684E
:1025F00001331360FFF7F5BAA54905A8FFF77EFA86
:1026000000283FF4EEAA0134A04B1C60FFF7E9BAA2
:1026100000214B20FEF7ECF800214820FEF7E8F8F7
:1026200000214920FEF7E4F800214A20FEF7E0F8F7
:1026300000214720FEF7DCF800214620FEF7D8F8FD
:1026400000214B20FEF7D4F800214220FEF7D0F8FD
:1026500000214420FEF7CCF800214120FEF7C8F805
:1026600000210846FEF7C4F8884B00221A60FFF7E5
:10267000B8BA844D2846FEF72DFB01214B20FEF70A
:10268000B7F801214820FEF7B3F801214920FEF7F1
:10269000AFF801214A20FEF7ABF801214720FEF7F1
:1026A000A7F801214620FEF7A3F801214B20FEF7F1
:1026B0009FF801214220FEF79BF801214420FEF7FC
:1026C00097F801214120FEF793F800214320FEF7FF
:1026D0008FF800214520FEF78BF804212846FEF7ED
:1026E000D9FA6C4B03AC93E8030084E8030020465E
:1026F00003F002FA0246042321462846FEF786FA32
:1027000000230593614A136801331360FFF769BA28
:102710004DF6C02105A8FFF7F1F900283FF461AAA2
:1027200001345A4B1C60FFF75CBA01210C20FEF704
:102730005FF8564A136801331360FFF752BA5449E1
:1027400005A8FFF7DBF900283FF44BAA01344F4BF3
:102750001C60FFF746BA00214B20FEF749F8002124
:102760004820FEF745F800214920FEF741F80021F6
:102770004A20FEF73DF800214720FEF739F80021F6
:102780004620FEF735F800214B20FEF731F80021F6
:102790004220FEF72DF800214420FEF729F8002101
:1027A0004120FEF725F800210846FEF721F8374BB7
:1027B00000221A60FFF715BA324C2046FEF78AFA5B
:1027C000354D2846FEF786FA2046FEF747FA28469A
:1027D000FEF744FA04212846FEF75CFA0121204660
:1027E000FEF758FA00214620FEF702F800214A20A1
:1027F000FDF7FEFF00214920FDF7FAFF00214820E8
:10280000FDF7F6FF00214B20FDF7F2FF00214220EB
:10281000FDF7EEFF00214420FDF7EAFF00214120F3
:10282000FDF7E6FF00214420FDF7E2FF0121002033
:10283000FDF7DEFF01210F20FDF7DAFF01215A200D
:10284000FDF7D6FF01215920FDF7D2FF01215B20C2
:10285000FDF7CEFF01210E20FDF7CAFF0021022067
:10286000FDF7C6FF01210846FDF7C2FF01212B201D
:10287000FDF7BEFF054B00221A601020FEF7DCFCBE
:10288000FFF7AFB9200A0020005F0008040B00200A
:1028900098340100085F0008680A002001214620E2
:1028A000FDF7A6FF01214A20FDF7A2FF01214920E3
:1028B000FDF79EFF01214820FDF79AFF01214B20E3
:1028C000FDF796FF01214220FDF792FF01214420F0
:1028D000FDF78EFF01214720FDF78AFF01214120EE
:1028E000FDF786FF01214420FDF782FF01210A2028
:1028F000FDF77EFF00210C20FDF77AFF00240D4B31
:102900001C600D4B1C600D4B1C700D4B1C700D4B57
:1029100010221A602046FEF78FFC0B4B1C600B4BFD
:102920000B4A1A60FFF75DB9074B1E221A60FFF7CA
:1029300068B900BFB80A0020BC0A0020B40A002011
:10294000B50A0020D4000020040B0020D000002095
:10295000808D5B00FEF710FB0B480C490C4A0023EE
:1029600002E0D458C4500433C4188C42F9D3094A45
:10297000094C002301E013600432A242FBD303F0B0
:1029800045F8FEF7DFF8704700000020140500202E
:102990003C5F00081405002068380020FEE70000B6
:1029A00008B5074A136843F010031360032000F0D2
:1029B0001BF80F20FEF76AFAFEF73EFA002008BD6A
:1029C00000200240034A1168034B1B780B4413603C
:1029D000704700BF140B0020D8000020014B18687E
:1029E000704700BF140B0020074AD36823F4E0634C
:1029F0001B041B0C000200F4E060034343F0BF63C0
:102A000043F40033D360704700ED00E000B5194B8C
:102A1000DB68C3F30223C3F1070CBCF1040F28BF2A
:102A20004FF0040C03F1040EBEF1060F18D9033B5E
:102A30004FF0FF3E0EFA0CFC21EA0C0199400EFA11
:102A400003F322EA0303194300280BDB0901C9B28F
:102A500000F1604000F5614080F800135DF804FB70
:102A60000023E5E700F00F000901C9B2024B195439
:102A7000F4E700BF00ED00E014ED00E0002807DB04
:102A800000F01F02400901239340024A42F820301F
:102A9000704700BF00E100E090F82130DBB2022B6C
:102AA00006D004238363002380F820300120704780
:102AB0000268136823F00E0313600268136823F0A2
:102AC00001031360036CC16B012202FA03F34B6034
:102AD00080F82120002380F820301846704700003D
:102AE00008B590F82130DBB2022B03D004238363B6
:102AF000012008BD0268136823F00E03136002680A
:102B0000136823F0010313600368194A934214D039
:102B1000143293421FD0143293421ED01432934287
:102B20001ED0143293421ED01432934202D04FF082
:102B3000807203E04FF4801200E001220D4B5A60D6
:102B4000012380F82130002380F82030436B6BB1E3
:102B500098470020CDE71022F0E74FF48072EDE7B0
:102B60004FF48052EAE74FF48032E7E70020C0E7F5
:102B7000080002400000024070B582B00024A44664
:102B8000A6E0804DAA4210D007D97F4DAA420CD0B2
:102B900005F58035AA4208D013E0A5F58015AA42B4
:102BA00003D005F57025AA4207D18A68002A58D0BB
:102BB000012A51D04361082403E0A5F58015AA42FB
:102BC000F3D0BEF1FF0F4ED80646BEF1FF0F4CD832
:102BD0004FEA8C0233680F25954023EA050304FA77
:102BE00002F2134333604B6813F0805F6ED0674B83
:102BF0009A6942F001029A619B6903F00103019313
:102C0000019B4FEA9C02951C614B53F825600CF028
:102C100003039D000F23AB4026EA03065D4B984259
:102C200029D003F58063984200F08E8003F580631D
:102C3000984200F08B8003F58063984219D00423FA
:102C40001AE0CC68BDE7CC680434BAE7CC68083435
:102C5000B7E7CC680C34B4E703610824B1E700247B
:102C6000AFE70424ADE7061DAFE7ACF10802920020
:102C7000B0E7032300E00023AB4033430232444D6E
:102C800045F822304B6813F4801F61D0424A9368A4
:102C900043EA0E0393604B6813F4001F5ED03E4A74
:102CA000D36843EA0E03D3604B6813F4003F5BD054
:102CB000394A536843EA0E0353604B6813F4803F6C
:102CC00058D0354A136843EA0E0313600CF1010C27
:102CD0000A6832FA0CF353D0012303FA0CF302EA28
:102CE000030E33EA0202F1D14A68122A3FF649AFD5
:102CF000122A3FF666AF01A555F822F0AB2B00086B
:102D0000432C00084D2C00085F2C0008C32B000842
:102D1000C32B0008C32B0008C32B0008C32B0008DB
:102D2000C32B0008C32B0008C32B0008C32B0008CB
:102D3000C32B0008C32B0008C32B0008C32B0008BB
:102D4000472C0008532C0008012395E7022393E742
:102D5000114A936823EA0E0393609CE70E4AD368F6
:102D600023EA0E03D3609FE70B4A536823EA0E035E
:102D70005360A2E7084A136823EA0E031360A5E72D
:102D800002B070BD0000221000003110001002409F
:102D9000000001400008014000040140836819421E
:102DA00001D001207047002070470AB101617047CF
:102DB000090401617047000082B0084B1B68084A93
:102DC000A2FB03235B0A00FB03F3019300BF019BFB
:102DD0005A1E0192002BF9D102B07047000000206A
:102DE000D34D6210002800F0F18170B582B0044626
:102DF000036813F0010F2CD0994B5B6803F00C03B0
:102E0000042B1DD0964B5B6803F00C03082B12D0EB
:102E10006368B3F5803F41D0002B55D103F1804367
:102E200003F504331A6822F480321A601A6822F417
:102E300080221A6037E08A4B5B6813F4803FE7D04A
:102E4000874B1B6813F4003F03D06368002B00F02E
:102E5000BF81236813F0020F75D0814B5B6813F0BC
:102E60000C0F5FD07E4B5B6803F00C03082B54D033
:102E70002369002B00F08A807A4B01221A60FFF749
:102E8000ADFD0546764B1B6813F0020F75D1FFF7B9
:102E9000A5FD401B0228F5D903209EE1704A136866
:102EA00043F480331360636843B3FFF797FD05462F
:102EB0006B4B1B6813F4003FCBD1FFF78FFD401B1A
:102EC0006428F5D9032088E1B3F5A02F09D0644B1D
:102ED0001A6822F480321A601A6822F480221A607A
:102EE000E1E703F18043A3F53C331A6842F4802202
:102EF0001A601A6842F480321A60D4E7FFF76EFD58
:102F00000546574B1B6813F4003FA2D0FFF766FD40
:102F1000401B6428F5D903205FE1514B5B6813F433
:102F2000803FA5D14E4B1B6813F0020F03D02369DD
:102F3000012B40F04F814A4A136823F0F80361697E
:102F400043EAC1031360236813F0080F33D0A36969
:102F5000002B5CD0434B0122C3F88024FFF73EFDD9
:102F600005463F4B5B6A13F0020F21D1FFF736FD98
:102F7000401B0228F5D903202FE1394A136823F0BA
:102F8000F803616943EAC1031360DCE7354B0022B3
:102F90001A60FFF723FD0546314B1B6813F0020F43
:102FA000D1D0FFF71BFD401B0228F5D9032014E107
:102FB0000120FFF701FF236813F0040F00F0968053
:102FC000274BDB6913F0805F34D1254BDA6942F07F
:102FD0008052DA61DB6903F080530193019B012584
:102FE000214B1B6813F4807F26D0E368012B3DD072
:102FF000002B53D103F1804303F504331A6A22F006
:1030000001021A621A6A22F004021A6233E0154BB6
:103010000022C3F88024FFF7E1FC0546104B5B6AF1
:1030200013F0020FC7D0FFF7D9FC401B0228F5D9D7
:103030000320D2E00025D3E70B4A136843F48073E2
:103040001360FFF7CBFC0646074B1B6813F4807F29
:10305000CBD1FFF7C3FC801B6428F5D90320BCE06B
:103060000010024000004242007000405F4A136AB4
:1030700043F001031362E36833B3FFF7AFFC064686
:103080005A4B1B6A13F0020F2FD1FFF7A7FC801BCE
:1030900041F288339842F3D903209EE0052B09D0F2
:1030A000524B1A6A22F001021A621A6A22F00402D2
:1030B0001A62E0E74D4B1A6A42F004021A621A6A79
:1030C00042F001021A62D6E7FFF788FC0646474B3A
:1030D0001B6A13F0020F08D0FFF780FC801B41F23F
:1030E00088339842F3D9032077E0E5B9E369002BF0
:1030F00072D03E4A526802F00C02082A56D0022BC7
:1031000017D03B4B00221A66FFF768FC0446374B8A
:103110001B6813F0007F47D0FFF760FC001B0228FC
:10312000F5D9032059E0314AD36923F08053D361A4
:10313000DCE72F4B00221A66FFF750FC05462B4BAD
:103140001B6813F0007F06D0FFF748FC401B0228E5
:10315000F5D9032041E0236AB3F5803F1AD0234913
:103160004B6823F47413226A606A024313434B6072
:103170001F4B01221A66FFF731FC04461B4B1B68EC
:1031800013F0007F0ED1FFF729FC001B0228F5D9B0
:10319000032022E0154A536823F40033A1680B434F
:1031A0005360DCE7002018E0002016E0012B16D069
:1031B0000E4B5B6803F48031226A914211D103F413
:1031C0007013626A93420ED1002006E0012070471E
:1031D000012002E0012000E0002002B070BD0120CB
:1031E000FBE70120F9E70120F7E700BF00100240EC
:1031F000000042420F4B5B6803F00C02082A01D02A
:103200000D487047C3F383420C49885C13F4803F38
:103210000BD0084B5B68C3F34043094AD35C064AB2
:1032200002FB00F0B0FBF3F07047064B03FB00F02D
:10323000704700BF0010024000127A00105F0008C3
:10324000205F000800093D00002800F0A08070B554
:103250000D460446524B1B6803F007038B420BD20A
:103260004F4A136823F007030B431360136803F0FE
:1032700007038B4240F08D80236813F0020F17D0B4
:1032800013F0040F04D0474A536843F4E0635360DB
:10329000236813F0080F04D0424A536843F4605384
:1032A0005360404A536823F0F003A1680B43536016
:1032B000236813F0010F31D06368012B20D0022B5B
:1032C00025D0384A126812F0020F64D035494A6896
:1032D00022F0030213434B60FFF780FB0646314B9D
:1032E0005B6803F00C036268B3EB820F16D0FFF744
:1032F00075FB801B41F288339842F0D9032045E0EA
:10330000284A126812F4003FE0D101203EE0254A2D
:10331000126812F0007FD9D1012037E0204B1B68E2
:1033200003F00703AB420AD91D4A136823F00703D1
:103330002B431360136803F00703AB422DD12368BE
:1033400013F0040F06D0174A536823F4E063E168D2
:103350000B435360236813F0080F07D0114A5368DA
:1033600023F46053216943EAC1035360FFF742FF2E
:103370000C4B5B68C3F303130B4AD35CD8400B4B75
:1033800018600B4B1868FDF781FD002070BD01200F
:1033900070470120FAE70120F8E70120F6E700BFB7
:1033A0000020024000100240B85D0008000000202C
:1033B000DC000020014B1868704700BF00000020AF
:1033C00008B5FFF7F7FF044B5B68C3F30223034A1A
:1033D000D35CD84008BD00BF00100240C85D0008A3
:1033E00008B5FFF7E7FF044B5B68C3F3C223034A4A
:1033F000D35CD84008BD00BF00100240C85D000883
:103400000F2303600B4B5A6802F0030242605A68B4
:1034100002F0F00282605A6802F4E062C2605B6807
:10342000DB0803F4E0630361034B1B6803F007034D
:103430000B607047001002400020024070470000FF
:1034400090F83D30DBB2012B27D1022380F83D30CC
:103450000268D36843F00103D3600368114A9342C2
:1034600010D0B3F1804F0DD0A2F59432934209D021
:1034700002F58062934205D01A6842F001021A6098
:10348000002070479A6802F00702062A07D01A68DF
:1034900042F001021A6000207047012070470020AE
:1034A000704700BF002C014070477047704770475D
:1034B00010B5044603681A6912F0020F11D0DA68D9
:1034C00012F0020F0DD06FF002021A610123037790
:1034D00003689B6913F0030F70D0FFF7E6FF00232A
:1034E000237723681A6912F0040F12D0DA6812F0F9
:1034F000040F0ED06FF004021A61022323772368B1
:103500009B6913F4407F5FD02046FFF7CEFF002376
:10351000237723681A6912F0080F12D0DA6812F0C4
:10352000080F0ED06FF008021A6104232377236876
:10353000DB6913F0030F4ED02046FFF7B6FF0023E0
:10354000237723681A6912F0100F12D0DA6812F08C
:10355000100F0ED06FF010021A6108232377236832
:10356000DB6913F4407F3DD02046FFF79EFF002328
:10357000237723681A6912F0010F03D0DA6812F07A
:10358000010F36D123681A6912F0800F03D0DA6870
:1035900012F0800F34D123681A6912F0400F03D063
:1035A000DA6812F0400F32D123681A6912F0200F46
:1035B00003D0DA6812F0200F30D110BDFFF774FF8E
:1035C0002046FFF773FF8AE72046FFF76DFF20468E
:1035D000FFF76CFF9BE72046FFF766FF2046FFF7EB
:1035E00065FFACE72046FFF75FFF2046FFF75EFF71
:1035F000BDE76FF001021A612046FDF765FAC1E7E9
:103600006FF080021A61204600F077F8C3E76FF090
:1036100040021A612046FFF74AFFC5E76FF020021B
:103620001A61204600F068F8C7E7000003681B4AEB
:1036300090420AD0B0F1804F07D0A2F59432904268
:1036400003D002F58062904203D123F070034A68F0
:103650001343124A90420AD0B0F1804F07D0A2F52E
:103660009432904203D002F58062904203D123F459
:103670004073CA68134323F080034A69134303600D
:103680008B68C3620B688362044B984202D00123AB
:10369000436170470B690363F9E700BF002C0140E9
:1036A00040B310B5044690F83D30F3B1022384F8DE
:1036B0003D30214651F8040BFFF7B8FF012384F891
:1036C000463084F83E3084F83F3084F8403084F847
:1036D000413084F8423084F8433084F8443084F830
:1036E000453084F83D30002010BD80F83C30FFF7B5
:1036F000A5FEDBE70120704770477047026802F1C2
:103700000C0353E8003F23F490730C3242E800317D
:103710000029F3D1026802F1140353E8003F23F0BB
:103720000103143242E800310029F3D1036B012B6D
:1037300005D0202380F842300023036370470268DD
:1037400002F10C0353E8003F23F010030C3242E86F
:1037500000310029F3D1ECE790F84130DBB2212BA6
:1037600001D0022070478368B3F5805F17D0036AE9
:103770005A1C02621A7803685A60C38C9BB2013BE0
:103780009BB2C3844BB90268D36823F08003D36033
:103790000268D36843F04003D36000207047036998
:1037A000002BE4D1036A1B880268C3F3080353604B
:1037B000036A02330362E0E710B504460268136946
:1037C00023F44053C1680B431361836802691343B8
:1037D00042691A430168CB6823F4B05323F00C0309
:1037E0001343CB600268536923F4407381690B4330
:1037F00053610268134B9A4220D0FFF7E1FD024665
:1038000002EB820202EB820263689B00B2FBF3F2DE
:103810000D48A0FB02314909642303FB11231B015E
:103820003233A0FB03235B0903F0F00202EB011229
:1038300003F00F03216813448B6010BDFFF7D0FD28
:103840000246DDE7003801401F85EB512DE9F843C2
:1038500005460F4616469946DDF820802C682468F8
:1038600037EA04030CBF4FF0010C4FF0000CB445D5
:103870002DD1B8F1FF3FF1D0B8F1000F05D0FFF71F
:10388000ADF8A0EB09004045E8D92A6802F10C0325
:1038900053E8003F23F4D0730C3242E80031002992
:1038A000F3D12A6802F1140353E8003F23F0010327
:1038B000143242E800310029F3D1202385F8413049
:1038C00085F84230002385F84030032000E00020D6
:1038D000BDE8F88360B310B5044690F8413013B3E7
:1038E000242384F841302268D36823F40053D36042
:1038F0002046FFF761FF2268136923F490431361A8
:103900002268536923F02A0353612268D36843F481
:103910000053D36000206064202384F8413084F891
:103920004230606310BD80F84030FDF775FBD7E78B
:10393000012070472DE9F04182B01E4690F84130D9
:10394000DBB2202B4BD104460D46904600294AD0CD
:103950000AB9012044E000234364212380F8413068
:10396000FFF73CF80746A4F82480A4F82680A36853
:10397000B3F5805F02D04FF000080FE02369FBB180
:103980004FF000080AE038F8023B2268C3F308034E
:103990005360E28C92B2013A92B2E284E38C9BB221
:1039A0008BB100963B46002280212046FFF74EFF58
:1039B000D8B9002DE7D015F8012B23685A60E8E745
:1039C000A8460025EAE700963B4600224021204613
:1039D000FFF73CFF58B9202384F8413000E0022073
:1039E00002B0BDE8F0810120FAE70320F8E70320E8
:1039F000F6E7704708B50168CA6822F04002CA605D
:103A0000202280F84120FFF7F4FF002008BD704716
:103A100008B5406A0023C385C384FFF7F8FF08BDDB
:103A2000704790F84230DBB2222B69D18368B3F53E
:103A3000805F4FD0826AB3F5805F04D0002B56D1EF
:103A40000369002B53D103685B681370836A0133E9
:103A50008362C38D9BB2013B9BB2C385002B51D1C6
:103A600000B583B00268D36823F02003D3600268F6
:103A7000D36823F48073D3600268536923F0010391
:103A80005361202380F8423000234363036B012BF2
:103A900033D100230363026802F10C0353E8003FB3
:103AA00023F010030C3242E800310029F3D10368FF
:103AB0001A6812F0100F06D0002201921A680192C3
:103AC0005B680193019B818DFFF7AAFF002003B083
:103AD0005DF804FB0269002AACD1826A03685B6866
:103AE000C3F308031380836A02338362B1E7036878
:103AF0005B6803F07F031370A8E7FDF741FBE5E780
:103B0000022070470020704730B583B00446026839
:103B10001368D068516913F00F0505D113F0200F19
:103B200002D010F0200F19D12DB111F0010119D1DF
:103B300010F4907F16D1216B01297DD013F0800FF6
:103B400003D010F0800F40F0188113F0400F03D025
:103B500010F0400F40F0158103B030BD2046FFF754
:103B600060FFF9E713F0010F06D010F4807F03D057
:103B7000626C42F00102626413F0040F04D019B1C8
:103B8000626C42F00202626413F0020F04D019B1B9
:103B9000626C42F00402626413F0080F07D010F068
:103BA000200F00D119B1626C42F008026264626CAD
:103BB000002AD1D013F0200F02D010F0200F29D10D
:103BC00023685B6903F04003626C12F0080F00D1B8
:103BD00063B32046FFF792FD23685B6913F0400F43
:103BE00020D0226802F1140353E8003F23F0400381
:103BF000143242E800310029F3D1E36B73B1634A18
:103C00005A63E06BFEF76CFF0028A5D0E06B436BB6
:103C10009847A1E72046FFF704FFD1E72046FFF7CA
:103C2000F6FE99E72046FFF7F2FE95E72046FFF7FC
:103C3000EEFE002363648FE713F0100F3FF47EAFB6
:103C400010F0100F3FF47AAF002301931368019333
:103C500053680193019B536913F0400F51D0E26BFD
:103C600013685B689BB2002B3FF476AFA18D99423D
:103C70007FF672AFE3859369202B37D0226802F17B
:103C80000C0353E8003F23F480730C3242E8003108
:103C90000029F3D1226802F1140353E8003F23F016
:103CA0000103143242E800310029F3D1226802F105
:103CB000140353E8003F23F04003143242E800317C
:103CC0000029F3D1202384F84230002323632268A3
:103CD00002F10C0353E8003F23F010030C3242E8DA
:103CE00000310029F3D1E06BFEF7D6FE02236363B7
:103CF000A18DE38D9BB2C91A89B22046FFF790FED1
:103D00002AE7A18DE38D9BB2C91A89B2E38D9BB2DC
:103D1000002B3FF421AF00293FF41EAF226802F1CF
:103D20000C0353E8003F23F490730C3242E8003058
:103D30000028F3D1226802F1140353E8003F23F076
:103D40000103143242E800300028F3D1202384F824
:103D5000423000232363226802F10C0353E8003F42
:103D600023F010030C3242E800300028F3D1022384
:103D700063632046FFF754FEEEE62046FFF7ECFCB7
:103D8000EAE62046FFF736FEE6E600BF113A0008F5
:103D900081628285C28500234364222380F84230F9
:103DA000036923B10268D36843F48073D360026867
:103DB000536943F0010353610268D36843F0200361
:103DC000D3600020704708B590F84230DBB2202B5A
:103DD00008D149B10AB9012008BD00230363FFF7E8
:103DE000D7FFF9E70220F7E70120F5E7842801D0A3
:103DF000033070470020704708B501F0E7F9002054
:103E000008BD2DE9F04387B004460F464569BDB1B2
:103E10008669AEB1D0F80480D0F80090B0F90800FF
:103E2000FFF7E4FF0296019500903B462269494660
:103E3000404601F05DF90590059807B0BDE8F083B4
:103E400065682668D4F81080B4F90800FFF7CEFF43
:103E500005AB019300903B461FFA88F23146284695
:103E600001F080F90128E7D00020E6E708B500B9A5
:103E7000012001F0F5FA002008BD1AB9084206D168
:103E80001046704731EA000303D00020704701203C
:103E900070470120704738B51C2000F00DFB044628
:103EA00028B1002540F8045B00F0F0F825762046A4
:103EB00038BD2DE9F84378B10C4616461D46074635
:103EC00011F07F4811D04FF0500383F31188BFF3F6
:103ED0006F8FBFF34F8FFEE74FF0500383F31188CE
:103EE000BFF36F8FBFF34F8FFEE741B94FF0500321
:103EF00083F31188BFF36F8FBFF34F8FFEE701F09D
:103F000043FC50B9089B43B14FF0500383F3118831
:103F1000BFF36F8FBFF34F8FFEE701F091F9D7F832
:103F200000902A4621464846FFF7A7FFF0B116B198
:103F300029EA04033B6001F017FAB8F1000F12D030
:103F400048B94FF0E0234FF08052C3F8042DBFF37F
:103F50004F8FBFF36F8F01F03FFD814610F0007F60
:103F60001AD029F07F494846BDE8F883089B83B101
:103F700066B941460DB141F08061089A2143381D70
:103F800001F0F8FAC146DDF82080D4E74FF08071E7
:103F9000F0E7DDF82080CEE700F014F9D7F80090C4
:103FA0002A4621464846FFF768FF18B116B129EAAC
:103FB00004043C6000F028F9D3E770B170B50C46FA
:103FC000054611F07F4F11D04FF0500383F3118855
:103FD000BFF36F8FBFF34F8FFEE74FF0500383F3B4
:103FE0001188BFF36F8FBFF34F8FFEE700F0EAF841
:103FF0002E6826EA04042C6000F006F9304670BDF5
:10400000F8B568B10D46044611F07F4711D04FF066
:10401000500383F31188BFF36F8FBFF34F8FFEE719
:104020004FF0500383F31188BFF36F8FBFF34F8FAF
:10403000FEE700F10C0601F003F9206923682B4329
:1040400023600AE0216832EA010105D111E021680C
:1040500041F0007101F000FB2846B0420ED04568E7
:10406000036823F07F4213F0806FEBD12168114287
:10407000F2D013F0807FEAD01743E8E7236823EA01
:104080000703236001F070F92068F8BD00F1080310
:1040900043604FF0FF328260C3600361002303601E
:1040A000704700230361704743684B609A688A60D9
:1040B000516099600861036801330360704730B450
:1040C0000D68B5F1FF3F11D000F108031C465B6895
:1040D0001A68AA42FAD963684B6099608C60616083
:1040E000086103680133036030BC70470469F2E77C
:1040F0000369416882688A60416851605A688242F7
:1041000006D0002202611A68013A1A6018687047E6
:1041100082685A60F5E7000082B0002301930D4BDE
:104120001B68B3F1FF3F08D04FF0500383F31188B1
:10413000BFF36F8FBFF34F8FFEE74FF0500383F352
:104140001188BFF36F8FBFF34F8F019B002BFCD003
:1041500002B07047E000002006480068006880F365
:10416000088862B661B6BFF34F8FBFF36F8F00DF71
:1041700000BF000008ED00E04FF0807340F8043C01
:1041800021F0010140F8081C034B40F80C3C40F8BA
:10419000202C4038704700BF194100080000000083
:1041A000074B19680868B0E8F00F80F30988BFF37F
:1041B0006F8F4FF0000080F311884EF00D0E7047A6
:1041C000383700204FF0500383F31188BFF36F8F0F
:1041D000BFF34F8F0B4A136801331360012B00D0DC
:1041E00070474FF0E023D3F8043D13F0FF0FF7D0F2
:1041F0004FF0500383F31188BFF36F8FBFF34F8FDE
:10420000FEE700BFE0000020094B1B6843B94FF0F8
:10421000500383F31188BFF36F8FBFF34F8FFEE717
:10422000013B034A13600BB983F31188704700BF49
:10423000E00000200000000000000000000000007E
:10424000EFF30980BFF36F8F0D4B1A6820E9F00F71
:1042500010602DE908404FF0500080F3118801F004
:1042600025F94FF0000080F31188BDE80840196877
:104270000868B0E8F00F80F30988BFF36F8F7047CC
:104280003837002008B54FF0500383F31188BFF38F
:104290006F8FBFF34F8F00F0DBFF28B14FF0E023AB
:1042A0004FF08052C3F8042D002383F3118808BD1A
:1042B0004FF0E022002313619361054B1B68054911
:1042C000A1FB03139B09013B536107231361704753
:1042D00000000020D34D621010B582B02A4B1A782E
:1042E000D2B20192FF221A701B78DBB28DF8033034
:1042F0009DF8033003F05003244A1370244B072227
:104300001A6009E0224A1368013B13609DF80330EC
:104310005B00DBB28DF803309DF8033013F0800FA3
:10432000F0D11B4B1B68032B08D04FF0500383F3D5
:104330001188BFF36F8FBFF34F8FFEE71B02144A44
:10434000136003F4E0631360019BDBB20E4A137049
:104350004FF0E023D3F8202D42F47002C3F8202D53
:10436000D3F8202D42F07042C3F8202DFFF7A0FFB4
:104370000024084B1C60FFF7EFFE01F097F8FFF7F1
:10438000CBFE204602B010BD00E400E0180B002078
:104390001C0B0020E0000020EFF305830F2B0FD94A
:1043A000114A9B5CDBB2114A12789A4208D94FF04D
:1043B000500383F31188BFF36F8FBFF34F8FFEE776
:1043C0004FF0E023D3F80C3D03F4E063084A126891
:1043D000934208D94FF0500383F31188BFF36F8FD6
:1043E000BFF34F8FFEE77047F0E300E0180B0020AB
:1043F0001C0B0020124A12F0070F1ED0D11D21F015
:104400000701C1F5305313440A460E4802600021EB
:1044100041601344083B23F007030B4803605960D5
:104420001960991A51601360084B1960084B1960A4
:10443000084B4FF000421A6070474FF43053E4E7E6
:10444000240B002030370020200B00202C370020C8
:104450002837002024370020154B1A461B6883425A
:10446000FBD3516802EB010C844509D0416800EB95
:10447000010C634509D00360904218D0106070476A
:104480004068014451601046F0E710B4094C2468BC
:10449000A3420AD05B681944416013681B6803603B
:1044A000904200D0106010BC70470460F8E770477D
:1044B00030370020200B002070B5054600F0C0FE0C
:1044C000344B1B68A3B1344B1B681D424AD135B134
:1044D000083515F0070F02D025F007050835002D27
:1044E00042D02E4B1B68AB424DD32D4A146804E0DA
:1044F000FFF780FFE7E722461C466368AB4202D223
:104500002368002BF7D1234B1B68A3423DD01668CC
:1045100008362368136063685B1B102B10D9601981
:1045200010F0070F08D04FF0500383F31188BFF34A
:104530006F8FBFF34F8FFEE743606560FFF78CFF1F
:10454000626816490B689B1A0B60164909688B4212
:1045500001D214490B60104B1B68134363600023A6
:10456000236002E0002600E0002600F0FDFE16F0C9
:10457000070F0CD04FF0500383F31188BFF36F8FF8
:10458000BFF34F8FFEE70026EFE70026EDE730464A
:1045900070BD00BF200B00202437002028370020EA
:1045A000303700202C37002080B338B50446A0F106
:1045B000080550F8043C164A1268134208D14FF01F
:1045C000500383F31188BFF36F8FBFF34F8FFEE764
:1045D00050F8081C41B14FF0500383F31188BFF32A
:1045E0006F8FBFF34F8FFEE723EA020340F8043CCE
:1045F00000F026FE54F8041C064A13680B441360AE
:104600002846FFF729FF00F0AFFE38BD704700BF16
:1046100024370020283700200346406A18B11B6B5E
:104620001868C0F10700704710B50446FFF7CAFDCF
:10463000A26BE36B9A4204D00024FFF7E5FD20460D
:1046400010BD0124F9E710B50446FFF7BBFDA36BCD
:1046500023B90124FFF7D8FD204610BD0024F9E757
:1046600070B504461546866B026C5AB903681BB1D7
:1046700000200136A66370BD406801F0F3F8002306
:104680006360F6E76DB98068FBF762FD226CA36892
:104690001344A3606268934219D32368A360284639
:1046A000E7E7C068FBF754FD226C5142E3689B1AB0
:1046B000E3602268934202D263680B44E360022DF8
:1046C00001D00020D5E726B1013E0020D1E72846E1
:1046D000CFE70020CDE708B50346026C62B108467B
:1046E000D9681144D960D3F804C0614501D3196871
:1046F000D960D968FBF72CFD08BD38B50546FFF732
:1047000061FD95F8454064B201E0013C64B2002CC3
:104710000ADD6B6A43B105F1240000F057FF002861
:10472000F3D001F02BF8F0E7FF2385F84530FFF7D1
:104730006BFDFFF747FD95F8444064B201E0013C92
:1047400064B2002C0ADD2B6943B105F1100000F0C2
:104750003DFF0028F3D001F011F8F0E7FF2385F8C2
:104760004430FFF751FD38BD38B5E0B10D46044681
:10477000FFF728FD2368E26B216C01FB02306060CB
:104780000020A063A360013A02FB0133E360FF2332
:1047900084F8443084F84530FDB9236963B9FFF7E4
:1047A00033FD012038BD4FF0500383F31188BFF370
:1047B0006F8FBFF34F8FFEE704F1100000F006FF8C
:1047C0000028ECD04FF0E0234FF08052C3F8042DC6
:1047D000BFF34F8FBFF36F8FE1E704F11000FFF7D6
:1047E00055FC04F12400FFF751FCD8E710B503464F
:1047F00002980C4631B90060C36304640121FFF7DD
:10480000B3FF10BD0260F7E740B94FF0500383F3E8
:104810001188BFF36F8FBFF34F8FFEE7F0B583B002
:104820000C4615460746A1B101FB00F04830FFF7E2
:1048300043FE064650B1002380F8463000902B46D8
:1048400000F1480221463846FFF7D0FF304603B05A
:10485000F0BD0846EAE7F0B585B0019288B10F4691
:104860001D460446B1B1022D20D1E36B012B1DD0B2
:104870004FF0500383F31188BFF36F8FBFF34F8F57
:10488000FEE74FF0500383F31188BFF36F8FBFF340
:104890004F8FFEE7036C002BE5D04FF0500383F3FE
:1048A0001188BFF36F8FBFF34F8FFEE700F06CFFEF
:1048B000064658B9019B002B48D04FF0500383F3B4
:1048C0001188BFF36F8FBFF34F8FFEE700263DE0E7
:1048D0002A4639462046FFF7C3FE636A7BB948B1D2
:1048E0004FF0E0234FF08052C3F8042DBFF34F8FF9
:1048F000BFF36F8FFFF788FC012005B0F0BD04F116
:10490000240000F063FE0028F4D04FF0E0234FF0C5
:104910008052C3F8042DBFF34F8FBFF36F8FE9E7C9
:10492000FFF772FC0020E8E702A800F0D9FE01269C
:1049300019E0002384F8443021E0002384F8453056
:1049400023E02046FFF7D9FE00F00EFDFFF73AFC0A
:10495000A26BE36B9A42BBD3022DB9D0019B002B13
:10496000DED0002EE0D0FFF74FFC00F069FCFFF72F
:1049700029FC94F8442052B2B2F1FF3FD9D094F808
:10498000452052B2B2F1FF3FD7D0FFF73DFC01A95D
:1049900002A800F0B1FED8B92046FFF745FE002876
:1049A000CFD0019904F1100000F0CCFD2046FFF7B4
:1049B000A4FE00F0D9FC0028C8D14FF0E0234FF04E
:1049C0008052C3F8042DBFF34F8FBFF36F8FBDE745
:1049D0002046FFF792FE00F0C7FC00208DE748B1AB
:1049E00008B5002141600160C1600B460A46FFF72F
:1049F00032FF08BD704710B5024600210120FFF7C5
:104A000003FF0446FFF7EBFF204610BD2DE9F843F6
:104A100090B10F4616461C460546B1B1022C20D176
:104A2000EB6B012B1DD04FF0500383F31188BFF3C4
:104A30006F8FBFF34F8FFEE74FF0500383F3118862
:104A4000BFF36F8FBFF34F8FFEE7036C002BE5D0F2
:104A50004FF0500383F31188BFF36F8FBFF34F8F75
:104A6000FEE7FFF799FCEFF311894FF0500383F352
:104A70001188BFF36F8FBFF34F8FAA6BEB6B9A4216
:104A800006D3022C04D0002089F31188BDE8F883F6
:104A900095F845804FFA88F8224639462846FFF7B0
:104AA000DFFDB8F1FF3F06D008F101035BB285F8E6
:104AB00045300120E8E76B6A0BB90120E4E705F116
:104AC000240000F083FD18B126B101203060DBE73F
:104AD0000120D9E70120D7E7F0B585B0019290B168
:104AE0000F460446C1B100F04FFE064600BB019BD5
:104AF000002B5ED04FF0500383F31188BFF36F8F0C
:104B0000BFF34F8FFEE74FF0500383F31188BFF3DD
:104B10006F8FBFF34F8FFEE7036C002BE3D04FF096
:104B2000500383F31188BFF36F8FBFF34F8FFEE7FE
:104B300000263EE039462046FFF7CDFD013DA56346
:104B4000236923B9FFF760FB012005B0F0BD04F134
:104B5000100000F03BFD0028F4D04FF0E0234FF0B0
:104B60008052C3F8042DBFF34F8FBFF36F8FE9E777
:104B7000FFF74AFB0020E8E702A800F0B1FD01269C
:104B800021E0002384F8443029E0002384F84530F4
:104B90002BE02046FFF7B1FD00F0E6FB09E02046E0
:104BA000FFF7ABFD00F0E0FB2046FFF74CFD0028CF
:104BB0003FD1FFF707FBA56B002DBBD1019B002B5D
:104BC000D6D0002ED8D0FFF71FFB00F039FBFFF73F
:104BD000F9FA94F844305BB2B3F1FF3FD1D094F8C6
:104BE00045305BB2B3F1FF3FCFD0FFF70DFB01A91A
:104BF00002A800F081FD0028D1D12046FFF723FD57
:104C00000028C6D0019904F1240000F09BFC204646
:104C1000FFF773FD00F0A8FB0028CAD14FF0E02396
:104C20004FF08052C3F8042DBFF34F8FBFF36F8F47
:104C3000BFE7002089E770B584B0019158B1044600
:104C4000036C8BB14FF0500383F31188BFF36F8F68
:104C5000BFF34F8FFEE74FF0500383F31188BFF38C
:104C60006F8FBFF34F8FFEE700F08EFD054650B902
:104C7000019B5BB14FF0500383F31188BFF36F8F3B
:104C8000BFF34F8FFEE70026354655E0064653E05A
:104C9000013BA36323683BB123694BB9FFF7B4FA27
:104CA0000126304604B070BD00F0A2FE6060F3E75C
:104CB00004F1100000F08AFC0028EFD04FF0E02350
:104CC0004FF08052C3F8042DBFF34F8FBFF36F8FA7
:104CD000E4E746B14FF0500383F31188BFF36F8FC1
:104CE000BFF34F8FFEE7FFF78FFADAE702A800F075
:104CF000F7FC01252AE0002384F8443032E0002349
:104D000084F8453034E0FFF75DFA606800F04CFD50
:104D10000646FFF779FA3BE02046FFF7EEFC00F08D
:104D200023FB09E02046FFF7E8FC00F01DFB2046CE
:104D3000FFF789FC002842D1FFF744FAA36B002B50
:104D4000A6D1019B002BC4D0002DCFD0FFF75CFA79
:104D500000F076FAFFF736FA94F844305BB2B3F11C
:104D6000FF3FC8D094F845305BB2B3F1FF3FC6D0E7
:104D7000FFF74AFA01A902A800F0BEFC0028D1D131
:104D80002046FFF760FC0028C6D02368002BBAD06D
:104D9000019904F1240000F0D5FB2046FFF7ADFC9B
:104DA00000F0E2FA0028C7D14FF0E0234FF0805224
:104DB000C3F8042DBFF34F8FBFF36F8FBCE70EB95D
:104DC00000266EE7FFF7FEF92046FFF725FC0146B7
:104DD000606800F0A1FDFFF717FAF1E7084B1B68C8
:104DE0001B6823B9074B4FF0FF321A607047044B22
:104DF0001B68DB68DB685A68024B1A60704700BFAB
:104E00003C370020143800202DE9F047074698462B
:104E1000089DDDF824900A9C266B02F18042013A3D
:104E200006EB820626F007064FF0000CBCF10F0FD0
:104E30000BD811F80C2004EB0C0383F8342011F884
:104E40000C3013B10CF1010CF0E7002384F843306F
:104E5000062D00D90625E56265644FF0000AC4F806
:104E600048A0201DFFF71DF904F11800FFF719F9FC
:104E70002461C5F10705A5616462C4F84CA084F8FB
:104E800050A0424639463046FFF776F92060B9F126
:104E9000000F01D0C9F80040BDE8F08738B5002404
:104EA00007E004EB840293000E481844FFF7EEF885
:104EB0000134062CF5D90C4D2846FFF7E7F80B4CCA
:104EC0002046FFF7E3F80A48FFF7E0F80948FFF744
:104ED000DDF80948FFF7DAF8084B1D60084B1C6045
:104EE00038BD00BF44370020E8370020FC370020E1
:104EF0001C38002048380020343800203C3700207F
:104F00004037002010B50446FFF75CF9214A1368CA
:104F100001331360204B1B685BB1204B1B686BB9DE
:104F20001D4B1B68DA6AE36A9A4207D81A4B1C6069
:104F300004E0194B1C601368012B28D0184A136831
:104F400001331360E06A01238340164A11680B4362
:104F5000136000EB8000211D134B03EB8000FFF773
:104F6000A3F8FFF751F90D4B1B687BB10A4B1B6887
:104F7000DA6AE36A9A4209D24FF0E0234FF0805296
:104F8000C3F8042DBFF34F8FBFF36F8F10BDFFF732
:104F900085FFD3E7D0370020383700203038002095
:104FA000E0370020E43700204437002010B50446E5
:104FB00090F8513063B1012B11D0022B0ED04FF07D
:104FC000500383F31188BFF36F8FBFF34F8FFEE75A
:104FD000006BFFF7E9FA2046FFF7E6FA10BDFFF78E
:104FE000E3FAFBE70F4B1B68D3B110B5FFF7EAF804
:104FF0000D4BDB68DC68201DFFF77AF80B4A13685D
:10500000013B1360074A1368013B1360FFF7FCF88C
:105010002046FFF7CBFF034B1B68002BE6D110BDEA
:10502000704700BFD437002048380020D037002018
:1050300008B5FFF7D7FF074B1B68012BF9D94FF0D5
:10504000E0234FF08052C3F8042DBFF34F8FBFF31E
:105050006F8FEEE74437002070B504460D461D4BB8
:105060001E681D4B18680430FFF742F850B91A4B00
:105070001B68DA6A012303FA02F218490B6823EA73
:1050800002030B60B4F1FF3F0DD03444124B1B6898
:105090005C60A64210D9124B18680F4B1968043196
:1050A000FFF70DF870BD002DEFD00B4B19680431E0
:1050B0000C48FEF7F9FFF5E70B4B1868064B19682B
:1050C0000431FEF7FCFF094B1B68A342EAD9074BEA
:1050D0001C60E7E75C38002038370020E437002008
:1050E00040370020343800203C370020143800209E
:1050F00030B587B00B9C7CB10C9DB5B1542504959F
:10510000049D542D1AD04FF0500383F31188BFF340
:105110006F8FBFF34F8FFEE74FF0500383F311887B
:10512000BFF36F8FBFF34F8FFEE74FF0500383F352
:105130001188BFF36F8FBFF34F8FFEE70C9D2C6379
:10514000022485F8514000240394029505AC019493
:105150000A9C0094FFF758FE0C98FFF7D3FE0598C1
:1051600007B030BD2DE9F04385B0074688461446A8
:105170001E469000FFF7A0F900B381465420FFF7C8
:105180009BF90546B0B1C0F83090E5B1002385F831
:105190005130039302950D9B01930C9B0093334672
:1051A000224641463846FFF72FFE2846FFF7AAFE63
:1051B000012005E04846FFF7F7F9E6E74FF0FF303A
:1051C00005B0BDE8F0834FF0FF30F9E710B588B0C7
:1051D00000240594069407AA06A905A8FBF726F95A
:1051E000059B0293069B019300942346079A0E4960
:1051F0000E48FFF77DFF0E4B186090B14FF0500343
:1052000083F31188BFF36F8FBFF34F8F094B4FF0BC
:10521000FF321A60084B01221A60084B1C60FFF72E
:105220005BF808B010BD00BF245F000831500008D3
:105230001038002014380020303800205C3800205E
:10524000024A136801331360704700BFDC37002047
:10525000F8B53A4B1B68002B64D1394B1D680135FA
:105260001D60C5B9374B1B681B6843B14FF0500335
:1052700083F31188BFF36F8FBFF34F8FFEE7314A7F
:105280001168314B186810601960304A1368013397
:105290001360FFF7A3FD2E4B1B68AB4238D90027E4
:1052A0002C4B1B68DB6A03EB83039A002A4B9B5849
:1052B000012B3CD901273AE00127224B1B681B68D0
:1052C00043B3204B1B68DB68DC6863689D4226D3D0
:1052D000261D3046FEF70CFFA36A1BB104F118002F
:1052E000FEF706FFE36A01229A401C490868024360
:1052F0000A6003EB83039A00314617481044FEF717
:10530000D3FEE26A134B1B68DB6A9A42D4D2D4E71D
:105310000027D2E70E4B4FF0FF321A60C0E70C4A6D
:105320001360BDE70E4A13680133136000270D4B6D
:105330001B6803B101273846F8BD00BFDC370020E9
:105340005C3800203C37002040370020183800200F
:10535000143800203837002044370020E43700207C
:10536000D83700206038002038B5354B1B6843B96A
:105370004FF0500383F31188BFF36F8FBFF34F8F4C
:10538000FEE7FEF71FFF2E4B1A68013A1A601B68F2
:10539000002B4FD12B4B1B680BB900244BE0002492
:1053A000294B1B681BB3284BDB68DC6804F1180031
:1053B000FEF79EFE251D2846FEF79AFEE06A0123B1
:1053C0008340224A11680B43136000EB800029469A
:1053D0001F4B03EB8000FEF767FEE26A1D4B1B6864
:1053E000DB6A9A42DCD31C4B01221A60D8E70CB16D
:1053F000FFF7F4FC194B1C6884B9174B1C68D4B137
:105400004FF0E0234FF08052C3F8042DBFF34F8FCD
:10541000BFF36F8F01240EE0013C07D0FFF718FFA8
:105420000028F9D00C4B01221A60F5E70B4B002243
:105430001A60E2E70024FEF7E7FE204638BD00BF11
:10544000DC370020D03700201C380020E437002053
:10545000443700203837002060380020D83700203B
:1054600010B5A8B10446104B1B6843B14FF0500370
:1054700083F31188BFF36F8FBFF34F8FFEE7FFF702
:10548000DFFE00212046FFF7E7FDFFF76DFF48B97B
:105490004FF0E0234FF08052C3F8042DBFF34F8F3D
:1054A000BFF36F8F10BD00BFDC370020204B1B689F
:1054B0001BB1204B01221A6070471E4B00221A605C
:1054C0001D4B1B68B3FA83F3DBB2C3F11F0303EB7D
:1054D00083018A0019498A5842B94FF0500383F377
:1054E0001188BFF36F8FBFF34F8FFEE7134903EBB4
:1054F000830082000A4450684068506003EB830CCC
:105500004FEA8C0208321144884209D003EB83032E
:105510009A000A4B13445B68DA68094B1A607047BB
:10552000406862469100054A0A445060EEE700BFB9
:10553000DC37002060380020E437002044370020AA
:105540003837002058B110B50C46094A1168183197
:10555000FEF7B5FD01212046FFF77EFD10BD4FF09F
:10556000500383F31188BFF36F8FBFF34F8FFEE7B4
:105570003837002070B110B514460246114B1B6835
:105580008BB94FF0500383F31188BFF36F8FBFF3D4
:105590004F8FFEE74FF0500383F31188BFF36F8FF7
:1055A000BFF34F8FFEE7084B186841F0004181615F
:1055B000196818311046FEF777FD01212046FFF7E4
:1055C0004BFD10BDDC3700203837002038B5C368EC
:1055D000DC6824B304F118052846FEF789FD184B52
:1055E0001B682BBB251D2846FEF782FDE06A0123C0
:1055F0008340144A11680B43136000EB8000294676
:10560000114B03EB8000FEF74FFDE26A0F4B1B6866
:10561000DB6A9A4211D901200D4B186038BD4FF05A
:10562000500383F31188BFF36F8FBFF34F8FFEE7F3
:1056300029460848FEF738FDE7E70020EEE700BFFF
:10564000DC370020E43700204437002038370020C2
:10565000603800201C38002038B51C4B1B6843B94B
:105660004FF0500383F31188BFF36F8FBFF34F8F59
:10567000FEE741F000410160C468F4B1FEF738FD77
:10568000251D2846FEF734FDE06A01238340104AB9
:1056900011680B43136000EB800029460D4B03EBB0
:1056A0008000FEF701FDE26A0B4B1B68DB6A9A4241
:1056B00002D90A4B01221A6038BD4FF0500383F320
:1056C0001188BFF36F8FBFF34F8FFEE7DC370020E9
:1056D000E4370020443700203837002060380020AD
:1056E000034B1B680360034B1B684360704700BF9C
:1056F000183800205C380020D8B170B50C4605463B
:1057000001B3FEF75FFD1B4B19686B68C81A22686E
:10571000B2F1FF3F27D0184E3668D5F800C0B44527
:1057200001D08B4224D9824215D800232360012462
:105730001AE04FF0500383F31188BFF36F8FBFF36C
:105740004F8FFEE74FF0500383F31188BFF36F8F45
:10575000BFF34F8FFEE75B1A134423602846FFF721
:10576000BFFF002400E00024FEF74EFD204670BD80
:105770000124F9E75C38002018380020014B012291
:105780001A60704760380020054B1B6833B1054B29
:105790001B680BB100207047022070470120704742
:1057A00030380020DC370020002851D038B50446BE
:1057B000C36A294A1268D26A934241D28269002A96
:1057C00005DB254A1268D26AC2F10702826161696B
:1057D00003EB8303214A02EB8303994205D01E4B5E
:1057E0001B68DB6AE362012038BD251D2846FEF7F1
:1057F0007FFCA0B1184B1B68D86AE062012404FA50
:1058000000F3174A11680B43136000EB8000294630
:10581000124B03EB8000FEF747FC2046E4E7E26A08
:1058200002EB82039B000D49CB58002BE2D10123F0
:1058300003FA02F20A490B6823EA02030B60D9E774
:10584000426C054B1B68DB6A9A4203D30020CBE70E
:10585000002070470120C7E7383700204437002078
:10586000E437002000284CD038B50446274B1B688D
:10587000834208D04FF0500383F31188BFF36F8F3A
:10588000BFF34F8FFEE7836C43B94FF0500383F3B0
:105890001188BFF36F8FBFF34F8FFEE7013B836427
:1058A000C16A426C91422ED00BB1002038BD051D5B
:1058B0002846FEF71DFC70B9E26A02EB82039B00EA
:1058C0001349CB583BB9012303FA02F211490B6883
:1058D00023EA02030B60606CE062C0F10703A3617E
:1058E000012404FA00F30B4A11680B43136000EB28
:1058F00080002946064B03EB8000FEF7D5FB2046CF
:10590000D4E7002070470020D0E700BF38370020E0
:1059100044370020E4370020002856D038B504462C
:10592000836C43B94FF0500383F31188BFF36F8F3B
:10593000BFF34F8FFEE7426C8A4200D20A46E16A0B
:10594000914201D0012B00D038BD204B1B68A342EF
:1059500032D0E262A369002B02DBC2F10702A2612E
:10596000626901EB81011A4B03EB81018A42EBD1A1
:10597000251D2846FEF7BCFB70B9E26A02EB8203E4
:105980009B001349CB583BB9012303FA02F211499A
:105990000B6823EA02030B60E06A012383400D4A8F
:1059A00011680B43136000EB80002946084B03EBA2
:1059B0008000FEF779FBC7E74FF0500383F31188AF
:1059C000BFF36F8FBFF34F8FFEE77047383700206C
:1059D00044370020E4370020044A136898691368AC
:1059E000DB6A1268C3F10703936170473837002000
:1059F000054B1B6823B1044B1A68936C0133936405
:105A0000014B1868704700BF3837002070B50D4E45
:105A10000D4D761BB61006D0002455F8043B01341A
:105A20009847A642F9D1094E094D00F003F9761BBB
:105A3000B61006D0002455F8043B01349847A6421E
:105A4000F9D170BD305F0008305F0008385F000892
:105A5000305F0008830730B548D0541E002A3FD07D
:105A60000346CAB201E0013C3AD303F8012B9D077B
:105A7000F9D1032C2DD9CDB245EA05250F2C45EAE5
:105A8000054536D9A4F1100222F00F0C03F1200EC7
:105A9000E6444FEA121C03F1100242E9045542E9C0
:105AA000025510327245F8D10CF1010214F00C0FBE
:105AB00003EB021204F00F0C13D0ACF1040323F03B
:105AC00003030433134442F8045B9342FBD10CF00C
:105AD00003042CB1CAB21C4403F8012B9C42FBD135
