:020000040800F2
:1000000000500020A92400081D0F00081F0F000841
:10001000210F0008230F0008250F00080000000032
:10002000000000000000000000000000F13C00089B
:10003000270F000800000000913D0008D53D000892
:10004000F1240008F1240008F1240008F12400083C
:10005000F1240008F1240008F1240008F12400082C
:10006000F1240008F1240008F1240008F12400081C
:10007000F1240008F1240008F1240008F12400080C
:10008000F1240008F1240008F1240008F1240008FC
:10009000F1240008F1240008F1240008F1240008EC
:1000A000F1240008F1240008F1240008F1240008DC
:1000B000290F0008F1240008F1240008F1240008A9
:1000C000F1240008F1240008F1240008F1240008BC
:1000D000F1240008390F0008490F0008590F0008E3
:1000E000F1240008F1240008F124000800000000B9
:1000F0000000000000000000000000000000000000
:0C01000000000000000000005FF808F1A3
:1001100010B5054C237833B9044B13B10448AFF341
:1001200000800123237010BD140500200000000092
:100130008457000808B5034B1BB103490348AFF3CC
:10014000008008BD0000000018050020845700084A
:10015000844641EA000313F0030349D1403A23D314
:100160000B6803604B6843608B688360CB68C36037
:100170000B6903614B6943618B698361CB69C3611F
:100180000B6A03624B6A43628B6A8362CB6AC36207
:100190000B6B03634B6B43638B6B8363CB6BC363EF
:1001A00040304031403ADBD230320BD30B68036031
:1001B0004B6843608B688360CB68C360103010313C
:1001C000103AF3D20C3205D351F8043B40F8043B0B
:1001D000043AF9D2043208D0D2071CBF11F8013B0F
:1001E00000F8013B01D30B8803806046704700BFD5
:1001F000082A13D38B07B1D010F00303AED0C3F19C
:100200000403D21ADB071CBF11F8013B00F8013BC5
:10021000A4D331F8023B20F8023B9FE7043AD9D33C
:10022000013A11F8013B00F8013BF9D20B78037059
:100230004B7843708B7883706046704708B5012017
:1002400003F0BEFBFBE708B5012003F0B9FBFBE7B9
:1002500008B5012003F0B4FBFBE7000000B5A7B030
:1002600098E09DF85430012B0FD0002B40F0928085
:100270009DF853305A0903F01F0301219940624B46
:1002800053F8220003F043FC84E09DF853305A09F0
:1002900003F01F03012199405B4B53F8220003F048
:1002A00059FC77E09DF85330ADF804309DF8543098
:1002B000003B18BF01238DF8063000231A4601A920
:1002C0005248006804F06FF8012863D0EE238DF8DF
:1002D00051304FF0FF33BDF894200DF151014C48DF
:1002E00003F0D2F856E04B4B01939DF853308DF854
:1002F0000830259A043A139215A90DF10900FFF769
:1003000027FF00231A4601A94348006804F04BF870
:1003100001283FD0EE238DF851304FF0FF33BDF868
:1003200094200DF151013A4803F0AEF832E03B4B16
:1003300001939DF853308DF80830259A043A1392B2
:1003400015A90DF10900FFF703FF00231A4601A9C3
:100350003148006804F027F801281BD0EE238DF8FF
:1003600051304FF0FF33BDF894200DF15101284872
:1003700003F08AF80EE09DF853308DF804309DF8B4
:1003800054308DF8053000231A4601A9244800682E
:1003900004F009F84FF0FF3214A9224B186804F05A
:1003A00043F90128F6D19DF85230013B0F2BF1D8CB
:1003B00001A252F823F000BF63020008A502000862
:1003C000E70200082F0300087703000895030008E0
:1003D000950300089503000895030008950300089D
:1003E000950300089503000895030008950300088D
:1003F00095030008F903000800231A4619460A4825
:10040000006803F0D0FFC5E748050020680500201C
:10041000E40900202C0A002060050020740A002056
:10042000400500207005002080050020034B03607C
:10043000034B0B6080231360704700BF84070020CC
:100440008405002010B5C0B0002405E003F0CDFA0B
:100450006B4B43F824000134042CF7DD03F0C5FA9C
:10046000684B186000F088FF03220021012003F090
:1004700073FF654B1860002248210F2003F06CFFCA
:10048000624B1860002248210F2003F065FF604B8B
:10049000186000220421802003F05EFF5D4B18608D
:1004A00000224C210F2003F057FF5B4B1860002205
:1004B00002210F2003F050FF584B1860584C0DF1EB
:1004C000E40CA646BEE80F00ACE80F009EE807006B
:1004D0008CE80700002139A803F03DFA514B186061
:1004E0000DF1C80C04F11C0EBEE80F00ACE80F00C3
:1004F0009EE807008CE80700002132A803F02BFAE1
:10050000494B18600DF1AC0C04F1380EBEE80F0039
:10051000ACE80F009EE807008CE8070000212BA83C
:1005200003F019FA414B18600DF1900C04F1540ED0
:10053000BEE80F00ACE80F009EE807008CE807005B
:10054000002124A803F007FA394B18600DF1740C50
:1005500004F1700EBEE80F00ACE80F009EE8070043
:100560008CE8070000211DA803F0F5F9314B186055
:100570000DF1580C04F18C0EBEE80F00ACE80F0032
:100580009EE807008CE80700002116A803F0E3F9B5
:10059000294B18600DF13C0C04F1A80EBEE80F00C9
:1005A000ACE80F009EE807008CE8070000210FA8C8
:1005B00003F0D1F9214B18600DF1200C04F1C40EA9
:1005C000BEE80F00ACE80F009EE807008CE80700CB
:1005D000002108A803F0BFF9194B18600DF1040CB5
:1005E000E0340FCCACE80F0094E807008CE807007B
:1005F000002101A803F0AFF9124B186040B010BD04
:10060000480500205C0500208005002070050020C2
:1006100064050020680500206005002040050020DA
:100620009C570008740500206C0500203805002048
:10063000780500207C0500203C05002044050020B2
:1006400030050020340500202DE9F04188B0002459
:1006500004940594069407942D4B9A6942F0200265
:100660009A619A6902F020020192019A9A6942F015
:1006700004029A619A6902F004020292029A9A694B
:1006800042F008029A619B6903F008030393039BFD
:10069000DFF88080224648F2B001404602F02FF990
:1006A0001D4D224643F2F831284602F028F9022770
:1006B000049705940126069604A9404602F006F820
:1006C00048F2B003049305960694079704A94046A0
:1006D00001F0FCFF042304930594069604A9284620
:1006E00001F0F4FF43F2F83304930596069407975C
:1006F00004A9284601F0EAFF4FF4804304930594CF
:10070000069404A9284601F0E1FF08B0BDE8F08195
:100710000010024000080140000C014038B50446BA
:1007200002784FF40041154802F0E9F8144D627860
:100730000821284602F0E3F8A2781021284602F0AA
:10074000DEF8E2782021284602F0D9F8227940210B
:10075000284602F0D4F862798021284602F0CFF8CA
:10076000A2794FF48071284602F0C9F8E2794FF47B
:100770000071284602F0C3F838BD00BF00080140F0
:10078000000C014070B506464C1E13E0012280218A
:10079000154802F0B4F8144D00222021284602F03A
:1007A000AEF8012003F00CF901222021284602F0C6
:1007B000A6F8013C072C08DD335D002BE6D10022B2
:1007C0008021094802F09BF8E5E7074C0022102140
:1007D000204602F094F8012003F0F2F801221021E3
:1007E000204602F08CF870BD0008014010B50446A8
:1007F000FFF794FF70212046FFF7C4FF10BD0000F3
:1008000000B583B0ADF804008DF8061000231A4639
:1008100001A90348006803F0C6FD03B05DF804FBBE
:1008200068050020F8B504460D46294E00224FF415
:100830008051304602F063F8012003F0C1F8012234
:100840004FF48051304602F05AF8012003F0B8F816
:100850004FF48041304602F04BF8B0FA80F0400986
:100860002070012619E01A4F00224FF4005138463B
:1008700002F045F8012003F0A3F801224FF40051E3
:10088000384602F03CF84FF48041384602F030F828
:10089000B0FA80F04009A0550136AE42E3DB4FF0DC
:1008A000000C0FE00CEB030014F800E0C3F10702AA
:1008B0006244A15C215404F802E00133032BF1DD12
:1008C0000CF1080CAC4501DA0023F7E7F8BD00BFD6
:1008D000000C0140014B185C704700BFD807002096
:1008E000044B1A5C044B1B5C9A4201D001207047F8
:1008F00000207047D8070020BC08002010B582B047
:100900007021FFF78FFF002418E02A4A82FB04328F
:10091000E317C3EBA20303EB4302A4EBC2020121E2
:100920009140254A52F8230003F014F9234B1B6829
:1009300013BB234B1A5D234B1A5501346F2C33DC48
:100940002046FFF7CDFF0028F7D02046FFF7C2FF73
:100950000128DAD0174A82FB0432E317C3EBA20363
:1009600003EB4302A4EBC20201219140124A52F868
:10097000230003F0CCF8D9E7CC238DF80030012315
:100980008DF801308DF802402046FFF7A3FF8DF867
:100990000300FF238DF804304FF0FF330522694632
:1009A000094802F071FDC4E7044B01221A6002B04D
:1009B00010BD00BFABAAAA2A4805002048080020A5
:1009C000D8070020BC080020E409002010B584B03E
:1009D00066E0BDF80C203B4B995C9DF80E309942C7
:1009E00066D038498B54CC218DF8041002218DF843
:1009F00005108DF80620012B14BF002301238DF86C
:100A00000730FF238DF808304FF0FF33052201A98E
:100A10002D4802F039FD4BE001346F2C18DC2B4BD4
:100A20001B5D012BF8D1CC238DF8043001238DF808
:100A300005308DF806408DF80730FF238DF808301B
:100A40004FF0FF33052201A91F4802F01DFDE3E727
:100A5000002400E001346F2C19DC1A4B1B5D012BC4
:100A6000F8D1CC238DF8043002238DF805308DF8B1
:100A7000064001238DF80730FF238DF808304FF032
:100A8000FF33052201A9104802F0FEFCE2E7012035
:100A900002F096FF0B48FFF7A9FE0C48FFF72EFF68
:100AA000002203A90A4B186803F0BEFD012890D06C
:100AB0000021084B186803F066FE0128E7D10024E6
:100AC000ABE700BF4C080020E4090020D807002055
:100AD000680500208005002008B50368B3F1804F49
:100AE00000D008BD01F018FDFBE772B6FEE700B5C7
:100AF00091B02822002106A804F054FD00230193A0
:100B00000293039304930593012206924FF48033DA
:100B100007930A9202220D920E934FF4E0130F9363
:100B200006A801F009FF80B90F2301930221029169
:100B3000002303934FF480620492059301A802F00E
:100B40002DF920B911B05DF804FBFFF7CEFFFFF7D8
:100B5000CCFF000008B501F0CDFCFFF7C8FFFFF7A0
:100B600073FD00F003FA00F01BFA00F033FA0122E3
:100B700009490A4802F0D1FE01220949094802F058
:100B8000CCFE01220849094802F0C7FEFFF75AFCD3
:100B900002F0DCFEFEE700BF2C090020E409002083
:100BA000500900202C0A002074090020740A00203B
:100BB0002DE9F04100AF8046084611461E46DC1C78
:100BC0000B3323F00703ADEB030D6D468DF80000EA
:100BD000C0438DF801008DF8026032460DF103002C
:100BE000FFF7B6FA00210DF8041006E015F801C071
:100BF0002B5D9C4405F804C00131A142F6D3321D9F
:100C00004FF0FF3392B22946404602F03DFCC82027
:100C100002F0D6FEBD46BDE8F0810000402A00D9B2
:100C200070472DE9F04F95B005460F4614461E4615
:100C30004C22002101A804F0B5FC01954FF00B0BEC
:100C40008DF808B04FF00209CDF84C904FF0040831
:100C50008DF808800A238DF809304FF0010ACDF88D
:100C60004CA0174D00231A460DEB0801286803F02D
:100C70009AFB8DF808B08DF809A08DF80A60CDF8C0
:100C80004C9000231A460DEB0801286803F08BFBFB
:100C90008DF8088007238DF80930224639460DF17A
:100CA0000A00FFF755FA5444139400231A460DEB3B
:100CB0000801286803F077FB15B0BDE8F08F00BF8E
:100CC0006005002010B594B004464C22002101A814
:100CD00004F068FC019404238DF808300123139379
:100CE00003238DF8093000231A4601A90248006841
:100CF00003F059FB14B010BD6005002070B5B6B00C
:100D00000221434801F0F4FD05460421414801F069
:100D1000EFFD044657E0359B0DF191029DF89010D0
:100D20002398FFF745FF56E0CC238DF800309DF85F
:100D300044308DF80130229E32460DF145010DF10F
:100D40000200FFF705FA06F1DA036B44FF2203F80D
:100D5000D82CF21C4FF0FF3392B269462E4802F0B5
:100D600093FB40E002212A4801F0C2FD00283CD15B
:100D700001212A4B186802F0CAFE36E002212448FD
:100D800001F0B6FD012832D10121244B186802F090
:100D9000E1FE2CE004211F4801F0AAFD48BB4FF4FE
:100DA00080711E4B186802F0B2FE22E00221184842
:100DB00001F09EFD05460421164801F099FD044608
:100DC000012002F0FDFD002223A9154B186803F055
:100DD0002BFC01289FD0002211A9124B186803F0A8
:100DE00023FC0128A0D0012DBCD0002DC6D0012CA1
:100DF000D0D0002CDAD10421064801F079FD012879
:100E0000D4D14FF48071054B186802F0A3FECDE7F2
:100E100000080140000C0140E40900205C050020AE
:100E2000600500206405002000B583B0114B9A696D
:100E300042F001029A619A6902F001020092009A5E
:100E4000DA6942F08052DA61DB6903F08053019382
:100E5000019B00220F216FF0010001F081FB064A87
:100E6000536823F0E06343F00073536003B05DF810
:100E700004FB00BF001002400000014030B589B003
:100E80000446224BDA6942F00102DA61DB6903F0C1
:100E900001030193019B02A903A802F05BF8069BE2
:100EA000D3B902F037F803461948A0FB03239B0C83
:100EB000013B18484FF08042026040F2E732C260C6
:100EC0004360002303618360836102F093F9054668
:100ED00030B1284609B030BD02F01CF84300E3E70A
:100EE0000C4802F057F805460028F2D11C2001F00A
:100EF0006FFB0F2C01D90125EBE7002221461C20B6
:100F000001F02EFB044B1C60E3E700BF0010024021
:100F100083DE1B4398090020E0000020FEE7FEE787
:100F2000FEE7FEE7FEE7704708B5024802F06AF800
:100F300008BD00BF9809002008B5024802F08EFBEA
:100F400008BD00BFE409002008B5024802F086FB96
:100F500008BD00BF2C0A002008B5024802F07EFB45
:100F600008BD00BF740A00207047000008B50A4899
:100F70000A4B03604FF4E133436000238360C36096
:100F800003610C2242618361C36102F04DFA00B932
:100F900008BDFFF7AAFDFBE7E40900200038014087
:100FA00008B50A480A4B03604FF416534360002308
:100FB0008360C36003610C2242618361C36102F0FC
:100FC00033FA00B908BDFFF790FDFBE72C0A0020BB
:100FD0000044004008B50A480A4B03604FF416531A
:100FE000436000238360C36003610C22426183611C
:100FF000C36102F019FA00B908BDFFF776FDFBE7FF
:10100000740A00200048004030B58BB000230693DE
:1010100007930893099303684F4A934207D04F4AB6
:10102000934236D04E4A934263D00BB030BD4D4B05
:101030009A6942F480429A619A6902F4804200926D
:10104000009A9A6942F004029A619B6903F00403D2
:101050000193019B4FF4007306930223079303232C
:101060000993414D06A9284601F030FB4FF48063F7
:10107000069300240794089406A9284601F026FB4D
:1010800022460521252001F06BFA252001F0A0FA67
:10109000CBE7344BDA6942F40032DA61DA6902F400
:1010A00000320292029A9A6942F004029A619B69A4
:1010B00003F004030393039B042306930223079383
:1010C00003230993284D06A9284601F0FFFA0823B7
:1010D000069300240794089406A9284601F0F6FA1E
:1010E00022460521262001F03BFA262001F070FA65
:1010F0009BE71C4BDA6942F48022DA61DA6902F478
:1011000080220492049A9A6942F008029A619B69CB
:1011100003F008030593059B4FF4806306930223B5
:10112000079303230993114D06A9284601F0CEFA2F
:101130004FF40063069300240794089406A92846F8
:1011400001F0C4FA22460521272001F009FA2720E0
:1011500001F03EFA69E700BF00380140004400405A
:10116000004800400010024000080140000C01400F
:1011700010B594B003686D4A934208D06C4A93420C
:1011800042D06C4A934200F0888014B010BD6A4B84
:101190001B786A4AD35CCC2B18D0694B1B6863B1AF
:1011A00003685868644B19784A1CD2B21A70634BB2
:1011B0005854511E5B5CFF2B0FD05F4B1B780122F4
:1011C0005E4919445F4802F0A8FBDEE75C4B012250
:1011D0001A60594B00221A70DFE7002401940223A1
:1011E0008DF80830139255490DF10900FEF7B0FF54
:1011F000234601AA02A95448006803F0AFF9504BF6
:101200001C604D4B1C70D8E7504B1B78012B12D043
:10121000022B24D04E4A1278D11C8B4227D00133A6
:101220004A4A1370494B1B7801224A4919444A48DB
:1012300002F073FBA9E7474A51781278D243D2B241
:10124000914205D0414B00221A70424B1970E9E7D8
:10125000424A012111600B443C4A1370E2E73D4AC7
:1012600091783B4A11700133384A1370DAE7002451
:10127000364B1C7003238DF8083004321392354925
:101280000DF10900FEF764FF0194234601AA02A9AB
:101290003348006803F062F9C4E7324B1B78012B36
:1012A00012D0022B24D0304A1278D11C8B4227D086
:1012B00001332C4A13702B4B1B7801222B49194404
:1012C0002B4802F02AFB60E7284A51781278D24373
:1012D000D2B2914205D0234B00221A70234B1970D1
:1012E000E9E7244A012111600B441E4A1370E2E72A
:1012F0001E4A91781C4A117001331A4A1370DAE7BA
:101300000024184B1C7004238DF808301A441392E3
:1013100016490DF10900FEF71BFF0194234601AAAF
:1013200002A90F48006803F019F9C4E7003801402A
:1013300000440040004800404C0900202C090020D7
:10134000C40A0020E4090020700500207009002074
:10135000E1090020500900202C0A0020C00A0020CA
:101360006405002094090020E00900207409002091
:10137000740A0020BC0A002008B5012003F0E3F83D
:10138000014B186008BD00BF200B002010B582B0D3
:1013900004460028D4BF002101212C20FFF730FA99
:1013A000012CD4BF002101212D20FFF729FA022CA6
:1013B000D4BF002101213020FFF722FA032CD4BF33
:1013C000002101213120FFF71BFA042CD4BF00219A
:1013D00001213220FFF714FA052CD4BF002101218E
:1013E0003320FFF70DFA062CD4BF002101212E2057
:1013F000FFF706FA072CD4BF002101212F20FFF7A9
:10140000FFF9082CD4BF002101213420FFF7F8F99F
:10141000092CD4BF002101213520FFF7F1F90A2C56
:10142000D4BF002101213620FFF7EAF90B2CD4BFED
:10143000002101213720FFF7E3F90C2CD4BF002154
:1014400001213820FFF7DCF90D2CD4BF0021012148
:101450003920FFF7D5F90E2CD4BF002101213A2005
:10146000FFF7CEF90F2CD4BF002101213B20FFF75D
:10147000C7F9012C01D002B010BD0B4B1B78002B1B
:10148000F9D1094B01221A70084B6C4693E803000E
:1014900084E80300204604F0D7F8024604232146DE
:1014A0000348FFF7BBFBE6E7C90A00202059000804
:1014B0002C0A002010B582B00B4B6C4693E8030059
:1014C00084E80300204604F0BFF8024604232146C6
:1014D0000648FFF7A3FB064B186801381860FFF7B2
:1014E00055FF02B010BD00BF285900082C0A00208B
:1014F000D4000020F0B585B0E2E1734B02AC93E874
:10150000030084E80300204604F09EF8024604230A
:1015100021466E48FFF782FB71E06D4B02AC93E809
:10152000030084E80300204604F08EF802460423FA
:1015300021466648FFF772FB61E0664B02AC93E818
:10154000030084E80300204604F07EF802460423EA
:1015500021465E48FFF762FB51E05F4B02AC93E827
:10156000030084E80300204604F06EF802460423DA
:1015700021465648FFF752FB41E0584B02AC93E836
:10158000030084E80300204604F05EF802460423CA
:1015900021464E48FFF742FB31E0514B02AC93E845
:1015A000030084E80300204604F04EF802460423BA
:1015B00021464648FFF732FB21E04A4B02AC93E854
:1015C000030084E80300204604F03EF802460423AA
:1015D00021463E48FFF722FB11E0434B02AC93E863
:1015E000030084E80300204604F02EF8024604239A
:1015F00021463648FFF712FB01E0FFF75BFF01369B
:10160000432E00F38180394FB95D394CA4FB013280
:101610001309184603EB4303A1EBC301C9B201252B
:10162000002300932B462A4605FA01F1DFF8C4C0D7
:101630005CF8200002F0E7F9BB5DA4FB0324240959
:1016400004EB4404A3EBC404E4B2A54035EA000370
:10165000D5D1294C0121A05DFFF7D2F84FF4FA70E3
:1016600002F0AEF90021A05DFFF7CAF8234B9B5DA5
:10167000002BC4D0224B9B5D002BBED00A2E3FF422
:101680003CAF0C2E3FF449AF0E2E3FF456AF0F2E59
:101690003FF463AF122E3FF470AF182E3FF47DAFCE
:1016A0001A2E8AD01C2E98D0164B02AC93E8030059
:1016B00084E80300204603F0C7FF024604232146C6
:1016C0000248FFF7ABFA9AE7305900082C0A0020CD
:1016D0003859000840590008485900085059000876
:1016E0005859000860590008685900080400002093
:1016F000ABAAAAAA4805002048000020D40A00206E
:101700008C000020705900080023009301231A4622
:101710004FF40061B848406802F075F910F4006FAA
:1017200040F0D0800023009301231A464FF400714B
:10173000B148406802F067F910F4007F40F0D280B1
:101740000023009301231A464FF48061AA484068A1
:1017500002F059F910F4806F40F0D4800023009318
:1017600001231A464FF48071A348406802F04BF9F8
:1017700010F4807F40F0D6800023009301231A46A6
:1017800019469D48406802F03EF910F0010F40F004
:10179000D9800023009301231A460221964840680D
:1017A00002F031F910F0020F40F0DC8000230093CA
:1017B00001231A4604219048406802F024F910F0F1
:1017C000040F40F0DF800023009301231A46082114
:1017D0008948406802F017F910F0080F40F0E280E5
:1017E0000023009301231A464FF4001182488068B9
:1017F00002F009F910F4001F19D0804A1368013370
:101800001360052B00F0DE807D4B02AC93E80300F3
:1018100084E80300204603F017FF02460423214614
:101820007848FFF7FBF9784A136801331360002307
:10183000009301231A464FF480016F48806802F03C
:10184000E2F810F4800F40F0C3806C4B1B68092B4A
:1018500000F0F0800023009301231A464FF4F011AA
:101860006548006902F0CFF810F4F01F40F0F580F1
:10187000614D0026009601231A460421286902F0D2
:10188000C2F800F00404009601231A4608212869D2
:1018900002F0B9F800F00803234304D05B4B18684A
:1018A0000F2840F3EE800023009301231A46042101
:1018B0005148006802F0A7F810F0040F40F0F880DB
:1018C00000269DE6524B02AC93E8030084E8030037
:1018D000204603F0B9FE0246042321464948FFF79B
:1018E0009DF91FE74B4B02AC93E8030084E803002B
:1018F000204603F0A9FE0246042321464148FFF793
:101900008DF91DE7444B02AC93E8030084E8030023
:10191000204603F099FE0246042321463948FFF78A
:101920007DF91BE73D4B02AC93E8030084E803001C
:10193000204603F089FE0246042321463148FFF782
:101940006DF919E7364B02AC93E8030084E8030015
:10195000204603F079FE0246042321462948FFF77A
:101960005DF916E72F4B02AC93E8030084E803000F
:10197000204603F069FE0246042321462148FFF772
:101980004DF913E7284B02AC93E8030084E8030009
:10199000204603F059FE0246042321461948FFF76A
:1019A0003DF910E7214B02AC93E8030084E8030003
:1019B000204603F049FE0246042321461148FFF762
:1019C0002DF90DE7FFF776FD0C4B00221A601BE79F
:1019D000174B02AC93E8030084E80300204603F0B1
:1019E00033FE0246042321460648FFF717F9064A4C
:1019F00013680133136028E748050020D00A00204F
:101A0000785900082C0A0020CC0A0020D4000020BD
:101A10008059000888590008905900089859000812
:101A2000A0590008A8590008B0590008B859000882
:101A3000C0590008214B02AC93E8030084E803007E
:101A4000204603F001FE0246042321461C48FFF70E
:101A5000E5F81C4B09221A60FCE600210A20FEF77B
:101A6000CFFE194B02AC93E8030084E80300204644
:101A700003F0EAFD0246042321461148FFF7CEF8A1
:101A8000F6E6124A0121117008441860FFF77EFC47
:101A90000F4B02AC93E8030084E80300204603F0F8
:101AA000D3FD0246042321460548FFF7B7F8FAE6BE
:101AB00000210120FEF7A4FE02E700BFC85900087C
:101AC0002C0A0020D00A0020D0590008C80A0020A3
:101AD000D859000803688B4201DC002070470023BE
:101AE000036001207047000000B583B04FF0FF3263
:101AF00001A90B4B186802F097FD0128F6D1094C9B
:101B00004FF0FF31206802F03EFE9DF80520064BA5
:101B10001A6000231A461946206802F044FCE5E7E3
:101B200040050020200B0020180B002010B586B0C7
:101B30000023059300F00DBCB54A0021D1540133B8
:101B4000432BF9DDB34BB44A1A600130B34B186034
:101B5000DCE30023F4E70023009301231A4619462F
:101B6000AF48006801F04FFF10F0010F00F0CE8386
:101B7000AC4B03AC93E8030084E80300204603F079
:101B800063FD024604232146A748FFF747F80121D9
:101B90000220FEF735FEA14A136801331360B5E356
:101BA0000023009301231A4602219D48006901F099
:101BB0002AFF10F0020F34D10023009301231A46AC
:101BC00019469748006901F01EFF10F0010F00F060
:101BD0009D8301213C20FEF713FE4FF4FA7001F0C3
:101BE000EFFE00213C20FEF70BFEFFF763FC41F601
:101BF000583001F0E5FE8D4B03AC93E8030084E818
:101C00000300204603F020FD0246042321468848B5
:101C1000FFF704F800230593804A1368013313602B
:101C200074E301213D20FEF7EBFD4FF4FA7001F063
:101C3000C7FE00213D20FEF7E3FD7E4B03AC93E899
:101C4000030084E80300204603F0FEFC0246042360
:101C500021467748FEF7E2FF704B06221A60ABE799
:101C600048F2D04105A8FFF735FF002800F04E8369
:101C70006A4A13680133136048E301213D20FEF7EF
:101C8000BFFD4FF4FA7001F09BFE00213D20FEF7EE
:101C9000B7FD624A13680133136037E300230093F2
:101CA00001231A4608215E48006801F0ACFE10F0DE
:101CB000080F40F02B83594A13680133136025E362
:101CC0005D4B1B68072B15DC5C4B03AC93E80300F2
:101CD00084E80300204603F0B7FC024604232146B3
:101CE0005348FEF79BFF002305934C4A13680133CA
:101CF00013600BE3524B03AC93E8030084E803004A
:101D0000204603F0A1FC0246042321464848FEF782
:101D100085FF424B0A221A60F8E24AF2280105A820
:101D2000FFF7D8FE002800F0F1823C4A1368013327
:101D30001360EBE201210420FEF762FD4FF4FA701C
:101D400001F03EFE00210420FEF75AFD334A1368DD
:101D500001331360DAE20023009301231A464FF4A3
:101D600080512F48006801F04EFE10F4805F00F0B3
:101D7000CD822A4A136801331360C7E200210E2086
:101D8000FEF73EFD01214820FEF73AFD2D4B03AC46
:101D900093E8030084E80300204603F055FC024664
:101DA000042321462248FEF739FF274B93E803001E
:101DB00084E80300204603F047FC02460123214645
:101DC0001948FEF72BFF154A1368013313609DE293
:101DD0000023009301231A464FF400011048806845
:101DE00001F011FE10F4000F00F090820B4A13680E
:101DF000013313608AE200215B20FEF701FD01211F
:101E00004920FEF7FDFC054A1368013313607DE2AB
:101E1000D40A0020D0000020808D5B00180B002029
:101E200048050020E0590008740A0020E85900081D
:101E30002C0A0020F05900081C0B0020F85900085B
:101E4000005A0008085A0008105A0008002300939E
:101E500001231A460221A348C06801F0D4FD10F006
:101E6000020F00F05382A04A1368013313604DE261
:101E700000215920FEF7C4FC9C4B03AC93E80300FF
:101E800084E80300204603F0DFFB024601232146DD
:101E90009748FEF7C3FE974B93E8030084E80300DE
:101EA000204603F0D1FB0246012321469248FEF76B
:101EB000B5FE8D4A13680133136027E200230093B7
:101EC00001231A4619468748C06801F09CFD10F0AE
:101ED000010F00F01B82844A13680133136015E27E
:101EE00000215A20FEF78CFC01214720FEF788FCD8
:101EF000824B03AC93E8030084E80300204603F020
:101F0000A3FB0246012321467948FEF787FE7C4B5E
:101F100093E8030084E80300204603F095FB0246A3
:101F2000012321467448FEF779FE6F4A1368013396
:101F30001360EBE10023009301231A464FF4006184
:101F40006848006801F05FFD10F4006F00F0DE816A
:101F5000654A136801331360D8E100210F20FEF7B2
:101F60004FFC01214620FEF74BFC664B03AC93E887
:101F7000030084E80300204603F066FB02460123C9
:101F800021465B48FEF74AFE5F4B93E8030084E876
:101F90000300204603F058FB024601232146564821
:101FA000FEF73CFE504A136801331360AEE1002394
:101FB000009301231A464FF480414A48006801F01B
:101FC00022FD10F4804F00F0A18100212B20FEF7AC
:101FD00017FC454A13680133136097E1002300930F
:101FE00001231A464FF400413E48006801F00BFD02
:101FF00010F4004F00F08A813B4B20221A6085E1EB
:1020000001214B20FEF7FCFB01214820FEF7F8FBE5
:1020100001214920FEF7F4FB01214A20FEF7F0FBE5
:1020200001214720FEF7ECFB01214620FEF7E8FBEB
:1020300001214B20FEF7E4FB01214220FEF7E0FBEB
:1020400001214420FEF7DCFB01214120FEF7D8FBF3
:1020500001214320FEF7D4FB01214520FEF7D0FBF0
:102060002A4B03AC93E8030084E80300204603F006
:10207000EBFA0246042321461F48FEF7CFFD244811
:1020800001F09EFC00214B20FEF7BAFB0021482006
:10209000FEF7B6FB00214920FEF7B2FB00214A20E3
:1020A000FEF7AEFB00214720FEF7AAFB00214620E9
:1020B000FEF7A6FB00214B20FEF7A2FB00214220E9
:1020C000FEF79EFB00214420FEF79AFB00214120F1
:1020D000FEF796FB00210846FEF792FB024B00221A
:1020E0001A6013E148050020180B0020185A000858
:1020F000740A0020205A00082C0A0020285A0008E0
:10210000305A0008385A0008405A0008485A000857
:10211000084C010001214B20FEF772FB01214820F1
:10212000FEF76EFB01214920FEF76AFB01214A20E0
:10213000FEF766FB01214720FEF762FB01214620E6
:10214000FEF75EFB01214B20FEF75AFB01214220E6
:10215000FEF756FB01214420FEF752FB01214120EE
:10216000FEF74EFB01214320FEF74AFB01214520EB
:10217000FEF746FBBF4B03AC93E8030084E8030083
:10218000204603F061FA024604232146BA48FEF7CE
:1021900045FDBA4801F014FC00214B20FEF730FB4E
:1021A00000214820FEF72CFB00214920FEF728FBE8
:1021B00000214A20FEF724FB00214720FEF720FBE8
:1021C00000214620FEF71CFB00214B20FEF718FBE8
:1021D00000214220FEF714FB00214420FEF710FBF3
:1021E00000214120FEF70CFB00210846FEF708FB0A
:1021F000A34B00221A6089E0A24B03AC93E80300D2
:1022000084E80300204603F01FFA02460423214617
:102210009948FEF703FD994801F0D2FB00210846DA
:10222000FEF7EEFA964B00221A606FE01020964BF4
:102230001860FFF7ABF89048FEF744FD9348FEF7AF
:1022400041FD00214620FEF7DBFA00214A20FEF77F
:10225000D7FA00214920FEF7D3FA00214820FEF7E3
:10226000CFFA00214B20FEF7CBFA00214220FEF7E7
:10227000C7FA00214420FEF7C3FA00214120FEF7EF
:10228000BFFA00214420FEF7BBFA01210020FEF72F
:10229000B7FA01210F20FEF7B3FA01215A20FEF709
:1022A000AFFA01215920FEF7ABFA01215B20FEF7BE
:1022B000A7FA01210E20FEF7A3FA00210220FEF763
:1022C0009FFA01210846FEF79BFA01212B20FEF719
:1022D00097FA10206C4B1860FFF758F80021462041
:1022E000FEF78EFA00214A20FEF78AFA00214920E3
:1022F000FEF786FA00214820FEF782FA00214B20E3
:10230000FEF77EFA01210A20FEF77AFA604B1B687D
:10231000002B7FDD013B5E4A13605D4B1A685D4B0D
:102320009A427BD05A4A1368013B1360059B0133E4
:10233000059300231A4619465748006802F033F8FF
:10234000012001F03DFB4E4B1B68544A126893423A
:1023500077D14FF0FF31504B186802F014FA484B18
:102360001868431E282BD1D801A252F823F000BFD1
:10237000531B0008571B0008A11B0008611C000824
:102380007B1C00089D1C0008C11C00081B1D0008C8
:10239000351D0008571D00087D1D0008D11D0008CF
:1023A000F71D00084D1E0008711E0008BD1E000824
:1023B000E11E0008351F00085B1F0008AF1F000862
:1023C000DD1F00080D2300080D2300080D23000861
:1023D0000D2300080D2300080D2300080D2300081D
:1023E0000D2300080120000815210008F92100082C
:1023F0000D2300080D2300080D2300080D230008FD
:102400000D2300080D2300080D2300082D220008CD
:10241000D32200081A4B1E221A607EE7204B93E855
:1024200003000390ADF81010090C8DF8121003A8EA
:1024300003F00AF90246042303A90F48FEF7EEFB56
:1024400070E7CC228DF80C2005228DF80D2000219C
:102450008DF80E108DF80F30FF238DF810304FF0EF
:10246000FF3303A90F4801F00FF8054B1A680B4B17
:102470001A606EE7505A00082C0A0020683C0100E0
:10248000180B0020585A0008D4000020740A0020BD
:10249000D0000020C0270900200B0020D800002019
:1024A000605A0008E4090020FEF75EFD0B480C4965
:1024B0000C4A002302E0D458C4500433C4188C42A0
:1024C000F9D3094A094C002301E013600432A24207
:1024D000FBD303F043F8FEF73DFB704700000020FC
:1024E00014050020945A00081405002078380020B4
:1024F000FEE7000008B5074A136843F010031360B5
:10250000032000F01BF80F20FEF7B8FCFEF78CFC50
:10251000002008BD00200240034A1168034B1B78CD
:102520000B441360704700BF240B0020DC00002028
:10253000014B1868704700BF240B0020074AD3687E
:1025400023F4E0631B041B0C000200F4E06003436F
:1025500043F0BF6343F40033D360704700ED00E005
:1025600000B5194BDB68C3F30223C3F1070CBCF1C0
:10257000040F28BF4FF0040C03F1040EBEF1060F48
:1025800018D9033B4FF0FF3E0EFA0CFC21EA0C0178
:1025900099400EFA03F322EA0303194300280BDBE8
:1025A0000901C9B200F1604000F5614080F80013F4
:1025B0005DF804FB0023E5E700F00F000901C9B254
:1025C000024B1954F4E700BF00ED00E014ED00E009
:1025D000002807DB00F01F02400901239340024A54
:1025E00042F82030704700BF00E100E090F8213051
:1025F000DBB2022B06D004238363002380F8203053
:10260000012070470268136823F00E03136002680C
:10261000136823F001031360036CC16B012202FAFB
:1026200003F34B6080F82120002380F82030184607
:102630007047000008B590F82130DBB2022B03D0C0
:1026400004238363012008BD0268136823F00E038E
:1026500013600268136823F0010313600368194ACA
:10266000934214D0143293421FD0143293421ED09E
:10267000143293421ED0143293421ED0143293422D
:1026800002D04FF0807203E04FF4801200E001228C
:102690000D4B5A60012380F82130002380F8203050
:1026A000436B6BB198470020CDE71022F0E74FF461
:1026B0008072EDE74FF48052EAE74FF48032E7E7AB
:1026C0000020C0E7080002400000024070B582B060
:1026D0000024A446A6E0804DAA4210D007D97F4D21
:1026E000AA420CD005F58035AA4208D013E0A5F522
:1026F0008015AA4203D005F57025AA4207D18A6841
:10270000002A58D0012A51D04361082403E0A5F5DE
:102710008015AA42F3D0BEF1FF0F4ED80646BEF197
:10272000FF0F4CD84FEA8C0233680F25954023EAFF
:10273000050304FA02F2134333604B6813F0805F21
:102740006ED0674B9A6942F001029A619B6903F06F
:1027500001030193019B4FEA9C02951C614B53F8C6
:1027600025600CF003039D000F23AB4026EA03060F
:102770005D4B984229D003F58063984200F08E802B
:1027800003F58063984200F08B8003F580639842E4
:1027900019D004231AE0CC68BDE7CC680434BAE74A
:1027A000CC680834B7E7CC680C34B4E7036108247C
:1027B000B1E70024AFE70424ADE7061DAFE7ACF1B5
:1027C00008029200B0E7032300E00023AB4033434C
:1027D0000232444D45F822304B6813F4801F61D01B
:1027E000424A936843EA0E0393604B6813F4001F58
:1027F0005ED03E4AD36843EA0E03D3604B6813F4BD
:10280000003F5BD0394A536843EA0E0353604B687C
:1028100013F4803F58D0354A136843EA0E0313601F
:102820000CF1010C0A6832FA0CF353D0012303FABD
:102830000CF302EA030E33EA0202F1D14A68122ACB
:102840003FF649AF122A3FF666AF01A555F822F0D0
:10285000FF26000897270008A1270008B3270008D3
:102860001727000817270008172700081727000850
:102870001727000817270008172700081727000840
:102880001727000817270008172700081727000830
:10289000172700089B270008A7270008012395E7B2
:1028A000022393E7114A936823EA0E0393609CE79F
:1028B0000E4AD36823EA0E03D3609FE70B4A53689E
:1028C00023EA0E035360A2E7084A136823EA0E03C3
:1028D0001360A5E702B070BD0000221000003110A7
:1028E00000100240000001400008014000040140C7
:1028F0008368194201D001207047002070470AB157
:1029000001617047090401617047000082B0084B03
:102910001B68084AA2FB03235B0A00FB03F3019335
:1029200000BF019B5A1E0192002BF9D102B07047E3
:1029300000000020D34D6210002800F0F18170B536
:1029400082B00446036813F0010F2CD0994B5B68EA
:1029500003F00C03042B1DD0964B5B6803F00C03B3
:10296000082B12D06368B3F5803F41D0002B55D1BE
:1029700003F1804303F504331A6822F480321A60AD
:102980001A6822F480221A6037E08A4B5B6813F4DD
:10299000803FE7D0874B1B6813F4003F03D0636888
:1029A000002B00F0BF81236813F0020F75D0814B1C
:1029B0005B6813F00C0F5FD07E4B5B6803F00C0379
:1029C000082B54D02369002B00F08A807A4B012217
:1029D0001A60FFF7ADFD0546764B1B6813F0020F3A
:1029E00075D1FFF7A5FD401B0228F5D903209EE114
:1029F000704A136843F480331360636843B3FFF78E
:102A000097FD05466B4B1B6813F4003FCBD1FFF7D6
:102A10008FFD401B6428F5D9032088E1B3F5A02F72
:102A200009D0644B1A6822F480321A601A6822F4C2
:102A300080221A60E1E703F18043A3F53C331A6872
:102A400042F480221A601A6842F480321A60D4E795
:102A5000FFF76EFD0546574B1B6813F4003FA2D0ED
:102A6000FFF766FD401B6428F5D903205FE1514B59
:102A70005B6813F4803FA5D14E4B1B6813F0020F27
:102A800003D02369012B40F04F814A4A136823F099
:102A9000F803616943EAC1031360236813F0080F68
:102AA00033D0A369002B5CD0434B0122C3F88024B0
:102AB000FFF73EFD05463F4B5B6A13F0020F21D145
:102AC000FFF736FD401B0228F5D903202FE1394AD4
:102AD000136823F0F803616943EAC1031360DCE77C
:102AE000354B00221A60FFF723FD0546314B1B686A
:102AF00013F0020FD1D0FFF71BFD401B0228F5D9C0
:102B0000032014E10120FFF701FF236813F0040FF5
:102B100000F09680274BDB6913F0805F34D1254BA2
:102B2000DA6942F08052DA61DB6903F08053019385
:102B3000019B0125214B1B6813F4807F26D0E3689D
:102B4000012B3DD0002B53D103F1804303F5043317
:102B50001A6A22F001021A621A6A22F004021A6248
:102B600033E0154B0022C3F88024FFF7E1FC054653
:102B7000104B5B6A13F0020FC7D0FFF7D9FC401B64
:102B80000228F5D90320D2E00025D3E70B4A1368C9
:102B900043F480731360FFF7CBFC0646074B1B68BA
:102BA00013F4807FCBD1FFF7C3FC801B6428F5D9D9
:102BB0000320BCE0001002400000424200700040D0
:102BC0005F4A136A43F001031362E36833B3FFF70C
:102BD000AFFC06465A4B1B6A13F0020F2FD1FFF7CA
:102BE000A7FC801B41F288339842F3D903209EE072
:102BF000052B09D0524B1A6A22F001021A621A6A96
:102C000022F004021A62E0E74D4B1A6A42F0040215
:102C10001A621A6A42F001021A62D6E7FFF788FCCC
:102C20000646474B1B6A13F0020F08D0FFF780FCE3
:102C3000801B41F288339842F3D9032077E0E5B94D
:102C4000E369002B72D03E4A526802F00C02082A57
:102C500056D0022B17D03B4B00221A66FFF768FCB8
:102C60000446374B1B6813F0007F47D0FFF760FC2A
:102C7000001B0228F5D9032059E0314AD36923F01B
:102C80008053D361DCE72F4B00221A66FFF750FC1C
:102C900005462B4B1B6813F0007F06D0FFF748FC5E
:102CA000401B0228F5D9032041E0236AB3F5803F99
:102CB0001AD023494B6823F47413226A606A0243D2
:102CC00013434B601F4B01221A66FFF731FC044689
:102CD0001B4B1B6813F0007F0ED1FFF729FC001B74
:102CE0000228F5D9032022E0154A536823F4003363
:102CF000A1680B435360DCE7002018E0002016E0D9
:102D0000012B16D00E4B5B6803F48031226A91428E
:102D100011D103F47013626A93420ED1002006E0D1
:102D200001207047012002E0012000E0002002B0F5
:102D300070BD0120FBE70120F9E70120F7E700BFA4
:102D400000100240000042420F4B5B6803F00C028F
:102D5000082A01D00D487047C3F383420C49885CB0
:102D600013F4803F0BD0084B5B68C3F34043094A20
:102D7000D35C064A02FB00F0B0FBF3F07047064B51
:102D800003FB00F0704700BF0010024000127A0001
:102D9000685A0008785A000800093D00002800F031
:102DA000A08070B50D460446524B1B6803F0070324
:102DB0008B420BD24F4A136823F007030B43136077
:102DC000136803F007038B4240F08D80236813F0F3
:102DD000020F17D013F0040F04D0474A536843F48E
:102DE000E0635360236813F0080F04D0424A53682D
:102DF00043F460535360404A536823F0F003A168E2
:102E00000B435360236813F0010F31D06368012B2B
:102E100020D0022B25D0384A126812F0020F64D05D
:102E200035494A6822F0030213434B60FFF780FBE9
:102E30000646314B5B6803F00C036268B3EB820F0C
:102E400016D0FFF775FB801B41F288339842F0D90A
:102E5000032045E0284A126812F4003FE0D1012027
:102E60003EE0254A126812F0007FD9D1012037E0F8
:102E7000204B1B6803F00703AB420AD91D4A1368B5
:102E800023F007032B431360136803F00703AB42DF
:102E90002DD1236813F0040F06D0174A536823F48A
:102EA000E063E1680B435360236813F0080F07D019
:102EB000114A536823F46053216943EAC103536004
:102EC000FFF742FF0C4B5B68C3F303130B4AD35C61
:102ED000D8400B4B18600B4B1868FDF7CFFF002054
:102EE00070BD012070470120FAE70120F8E70120BA
:102EF000F6E700BF00200240001002400859000819
:102F000000000020E0000020014B1868704700BF5F
:102F10000000002008B5FFF7F7FF044B5B68C3F320
:102F20000223034AD35CD84008BD00BF0010024012
:102F30001859000808B5FFF7E7FF044B5B68C3F3B7
:102F4000C223034AD35CD84008BD00BF0010024032
:102F5000185900080F2303600B4B5A6802F0030254
:102F600042605A6802F0F00282605A6802F4E0623D
:102F7000C2605B68DB0803F4E0630361034B1B681A
:102F800003F007030B60704700100240002002406E
:102F90007047000090F83D30DBB2012B27D10223AF
:102FA00080F83D300268D36843F00103D3600368C2
:102FB000114A934210D0B3F1804F0DD0A2F5943254
:102FC000934209D002F58062934205D01A6842F01C
:102FD00001021A60002070479A6802F00702062A70
:102FE00007D01A6842F001021A60002070470120E1
:102FF00070470020704700BF002C014070477047A9
:103000007047704710B5044603681A6912F0020F42
:1030100011D0DA6812F0020F0DD06FF002021A61BF
:103020000123037703689B6913F0030F70D0FFF748
:10303000E6FF0023237723681A6912F0040F12D0E9
:10304000DA6812F0040F0ED06FF004021A61022346
:10305000237723689B6913F4407F5FD02046FFF7F6
:10306000CEFF0023237723681A6912F0080F12D0CD
:10307000DA6812F0080F0ED06FF008021A6104230C
:1030800023772368DB6913F0030F4ED02046FFF748
:10309000B6FF0023237723681A6912F0100F12D0AD
:1030A000DA6812F0100F0ED06FF010021A610823C8
:1030B00023772368DB6913F4407F3DD02046FFF778
:1030C0009EFF0023237723681A6912F0010F03D0B3
:1030D000DA6812F0010F36D123681A6912F0800FF6
:1030E00003D0DA6812F0800F34D123681A6912F025
:1030F000400F03D0DA6812F0400F32D123681A690A
:1031000012F0200F03D0DA6812F0200F30D110BD7A
:10311000FFF774FF2046FFF773FF8AE72046FFF7AB
:103120006DFF2046FFF76CFF9BE72046FFF766FF29
:103130002046FFF765FFACE72046FFF75FFF20461C
:10314000FFF75EFFBDE76FF001021A612046FDF751
:10315000C3FCC1E76FF080021A61204600F077F8E7
:10316000C3E76FF040021A612046FFF74AFFC5E748
:103170006FF020021A61204600F068F8C7E70000EF
:1031800003681B4A90420AD0B0F1804F07D0A2F5E5
:103190009432904203D002F58062904203D123F032
:1031A00070034A681343124A90420AD0B0F1804F2C
:1031B00007D0A2F59432904203D002F5806290428B
:1031C00003D123F44073CA68134323F080034A6990
:1031D000134303608B68C3620B688362044B98429D
:1031E00002D00123436170470B690363F9E700BF15
:1031F000002C014040B310B5044690F83D30F3B1C7
:10320000022384F83D30214651F8040BFFF7B8FF44
:10321000012384F8463084F83E3084F83F3084F847
:10322000403084F8413084F8423084F8433084F8E8
:10323000443084F8453084F83D30002010BD80F8DB
:103240003C30FFF7A5FEDBE7012070477047704771
:10325000026802F10C0353E8003F23F490730C3230
:1032600042E800310029F3D1026802F1140353E867
:10327000003F23F00103143242E800310029F3D16A
:10328000036B012B05D0202380F842300023036319
:103290007047026802F10C0353E8003F23F010036B
:1032A0000C3242E800310029F3D1ECE790F84130CC
:1032B000DBB2212B01D0022070478368B3F5805F19
:1032C00017D0036A5A1C02621A7803685A60C38CCA
:1032D0009BB2013B9BB2C3844BB90268D36823F015
:1032E0008003D3600268D36843F04003D3600020BA
:1032F00070470369002BE4D1036A1B880268C3F39B
:1033000008035360036A02330362E0E710B5044622
:103310000268136923F44053C1680B431361836847
:103320000269134342691A430168CB6823F4B0531E
:1033300023F00C031343CB600268536923F44073FA
:1033400081690B4353610268134B9A4220D0FFF707
:10335000E1FD024602EB820202EB820263689B00FF
:10336000B2FBF3F20D48A0FB02314909642303FBD1
:1033700011231B013233A0FB03235B0903F0F0028E
:1033800002EB011203F00F03216813448B6010BDA0
:10339000FFF7D0FD0246DDE7003801401F85EB5105
:1033A0002DE9F84305460F4616469946DDF820807C
:1033B0002C68246837EA04030CBF4FF0010C4FF06F
:1033C000000CB4452DD1B8F1FF3FF1D0B8F1000F9A
:1033D00005D0FFF7ADF8A0EB09004045E8D92A6811
:1033E00002F10C0353E8003F23F4D0730C3242E89F
:1033F00000310029F3D12A6802F1140353E8003F99
:1034000023F00103143242E800310029F3D12023D4
:1034100085F8413085F84230002385F8403003209C
:1034200000E00020BDE8F88360B310B5044690F8D2
:10343000413013B3242384F841302268D36823F445
:103440000053D3602046FFF761FF2268136923F41D
:10345000904313612268536923F02A035361226861
:10346000D36843F40053D36000206064202384F8C1
:10347000413084F84230606310BD80F84030FDF781
:10348000C3FDD7E7012070472DE9F04182B01E4609
:1034900090F84130DBB2202B4BD104460D469046CC
:1034A00000294AD00AB9012044E0002343642123C3
:1034B00080F84130FFF73CF80746A4F82480A4F8D0
:1034C0002680A368B3F5805F02D04FF000080FE0BC
:1034D0002369FBB14FF000080AE038F8023B22688C
:1034E000C3F308035360E28C92B2013A92B2E284D1
:1034F000E38C9BB28BB100963B4600228021204694
:10350000FFF74EFFD8B9002DE7D015F8012B23683F
:103510005A60E8E7A8460025EAE700963B46002205
:1035200040212046FFF73CFF58B9202384F8413062
:1035300000E0022002B0BDE8F0810120FAE703209C
:10354000F8E70320F6E7704708B50168CA6822F07B
:103550004002CA60202280F84120FFF7F4FF0020DB
:1035600008BD704708B5406A0023C385C384FFF7D0
:10357000F8FF08BD704790F84230DBB2222B69D1CA
:103580008368B3F5805F4FD0826AB3F5805F04D063
:10359000002B56D10369002B53D103685B6813706D
:1035A000836A01338362C38D9BB2013B9BB2C385A7
:1035B000002B51D100B583B00268D36823F02003FB
:1035C000D3600268D36823F48073D36002685369C0
:1035D00023F001035361202380F84230002343632A
:1035E000036B012B33D100230363026802F10C0348
:1035F00053E8003F23F010030C3242E80031002969
:10360000F3D103681A6812F0100F06D0002201925D
:103610001A6801925B680193019B818DFFF7AAFFF5
:10362000002003B05DF804FB0269002AACD1826A75
:1036300003685B68C3F308031380836A0233836201
:10364000B1E703685B6803F07F031370A8E7FDF739
:103650008FFDE5E7022070470020704730B583B04A
:10366000044602681368D068516913F00F0505D14C
:1036700013F0200F02D010F0200F19D12DB111F04E
:10368000010119D110F4907F16D1216B01297DD051
:1036900013F0800F03D010F0800F40F0188113F06A
:1036A000400F03D010F0400F40F0158103B030BD43
:1036B0002046FFF760FFF9E713F0010F06D010F482
:1036C000807F03D0626C42F00102626413F0040F49
:1036D00004D019B1626C42F00202626413F0020F6E
:1036E00004D019B1626C42F00402626413F0080F56
:1036F00007D010F0200F00D119B1626C42F008021F
:103700006264626C002AD1D013F0200F02D010F056
:10371000200F29D123685B6903F04003626C12F02B
:10372000080F00D163B32046FFF792FD23685B6961
:1037300013F0400F20D0226802F1140353E8003F39
:1037400023F04003143242E800310029F3D1E36B47
:1037500073B1634A5A63E06BFEF76CFF0028A5D093
:10376000E06B436B9847A1E72046FFF704FFD1E7E2
:103770002046FFF7F6FE99E72046FFF7F2FE95E7B1
:103780002046FFF7EEFE002363648FE713F0100F6F
:103790003FF47EAF10F0100F3FF47AAF0023019397
:1037A0001368019353680193019B536913F0400F11
:1037B00051D0E26B13685B689BB2002B3FF476AF8D
:1037C000A18D99427FF672AFE3859369202B37D0A4
:1037D000226802F10C0353E8003F23F480730C329B
:1037E00042E800310029F3D1226802F1140353E8C2
:1037F000003F23F00103143242E800310029F3D1E5
:10380000226802F1140353E8003F23F0400314320E
:1038100042E800310029F3D1202384F8423000230C
:103820002363226802F10C0353E8003F23F01003E6
:103830000C3242E800310029F3D1E06BFEF7D6FEEE
:1038400002236363A18DE38D9BB2C91A89B220461E
:10385000FFF790FE2AE7A18DE38D9BB2C91A89B2CA
:10386000E38D9BB2002B3FF421AF00293FF41EAF44
:10387000226802F10C0353E8003F23F490730C32EA
:1038800042E800300028F3D1226802F1140353E823
:10389000003F23F00103143242E800300028F3D146
:1038A000202384F8423000232363226802F10C03B2
:1038B00053E8003F23F010030C3242E800300028A8
:1038C000F3D1022363632046FFF754FEEEE6204661
:1038D000FFF7ECFCEAE62046FFF736FEE6E600BF1F
:1038E0006535000881628285C285002343642223F6
:1038F00080F84230036923B10268D36843F48073CF
:10390000D3600268536943F0010353610268D368CE
:1039100043F02003D3600020704708B590F8423090
:10392000DBB2202B08D149B10AB9012008BD002320
:103930000363FFF7D7FFF9E70220F7E70120F5E778
:10394000842801D0033070470020704708B501F08B
:10395000E5F9002008BD2DE9F04387B004460F4685
:103960004569BDB18669AEB1D0F80480D0F8009049
:10397000B0F90800FFF7E4FF0296019500903B467E
:1039800022694946404601F05BF90590059807B069
:10399000BDE8F08365682668D4F81080B4F90800A3
:1039A000FFF7CEFF05AB019300903B461FFA88F26C
:1039B0003146284601F07EF90128E7D00020E6E7ED
:1039C00008B500B9012001F0F3FA002008BD1AB9CA
:1039D000084206D11046704731EA000303D00020A8
:1039E0007047012070470120704738B51C2000F057
:1039F0000BFB044628B1002540F8045B00F0F0F80A
:103A00002576204638BD2DE9F84378B10C46164698
:103A10001D46074611F07F4811D04FF0500383F345
:103A20001188BFF36F8FBFF34F8FFEE74FF0500346
:103A300083F31188BFF36F8FBFF34F8FFEE741B958
:103A40004FF0500383F31188BFF36F8FBFF34F8F95
:103A5000FEE701F041FC50B9089B43B14FF0500321
:103A600083F31188BFF36F8FBFF34F8FFEE701F031
:103A70008FF9D7F800902A4621464846FFF7A7FF5E
:103A8000F0B116B129EA04033B6001F015FAB8F170
:103A9000000F12D048B94FF0E0234FF08052C3F826
:103AA000042DBFF34F8FBFF36F8F01F03DFD8146B3
:103AB00010F0007F1AD029F07F494846BDE8F8830E
:103AC000089B83B166B941460DB141F08061089A07
:103AD0002143381D01F0F6FAC146DDF82080D4E715
:103AE0004FF08071F0E7DDF82080CEE700F012F9AA
:103AF000D7F800902A4621464846FFF768FF18B1DC
:103B000016B129EA04043C6000F026F9D3E770B14D
:103B100070B50C46054611F07F4F11D04FF05003A1
:103B200083F31188BFF36F8FBFF34F8FFEE74FF022
:103B3000500383F31188BFF36F8FBFF34F8FFEE7FE
:103B400000F0E8F82E6826EA04042C6000F004F97E
:103B5000304670BDF8B568B10D46044611F07F4798
:103B600011D04FF0500383F31188BFF36F8FBFF371
:103B70004F8FFEE74FF0500383F31188BFF36F8F31
:103B8000BFF34F8FFEE700F10C0601F001F9206949
:103B900023682B4323600AE0216832EA010105D142
:103BA00011E0216841F0007101F0FEFA2846B042B0
:103BB0000ED04568036823F07F4213F0806FEBD18D
:103BC00021681142F2D013F0807FEAD01743E8E772
:103BD000236823EA0703236001F06EF92068F8BD2B
:103BE00000F1080343604FF0FF328260C36003615D
:103BF00000230360704700230361704743684B60F4
:103C00009A688A60516099600861036801330360B3
:103C1000704730B40D68B5F1FF3F11D000F10803D3
:103C20001C465B681A68AA42FAD963684B609960BF
:103C30008C606160086103680133036030BC7047C9
:103C40000469F2E70369416882688A6041685160EB
:103C50005A68824206D0002202611A68013A1A604C
:103C60001868704782685A60F5E7000082B0002348
:103C700001930D4B1B68B3F1FF3F08D04FF0500389
:103C800083F31188BFF36F8FBFF34F8FFEE74FF0C1
:103C9000500383F31188BFF36F8FBFF34F8F019BE6
:103CA000002BFCD002B07047E400002006480068FA
:103CB000006880F3088862B661B6BFF34F8FBFF328
:103CC0006F8F00DF00BF000008ED00E04FF0807351
:103CD00040F8043C21F0010140F8081C034B40F877
:103CE0000C3C40F8202C4038704700BF6D3C000869
:103CF000074B19680868B0E8F00F80F30988BFF334
:103D00006F8F4FF0000080F311884EF00D0E70475A
:103D1000483700204FF0500383F31188BFF36F8FB3
:103D2000BFF34F8F0B4A136801331360012B00D090
:103D300070474FF0E023D3F8043D13F0FF0FF7D0A6
:103D40004FF0500383F31188BFF36F8FBFF34F8F92
:103D5000FEE700BFE4000020094B1B6843B94FF0A9
:103D6000500383F31188BFF36F8FBFF34F8FFEE7CC
:103D7000013B034A13600BB983F31188704700BFFE
:103D8000E40000200000000000000000000000002F
:103D9000EFF30980BFF36F8F0D4B1A6820E9F00F26
:103DA00010602DE908404FF0500080F3118801F0B9
:103DB00025F94FF0000080F31188BDE8084019682C
:103DC0000868B0E8F00F80F30988BFF36F8F704781
:103DD0004837002008B54FF0500383F31188BFF334
:103DE0006F8FBFF34F8F00F0DBFF28B14FF0E02360
:103DF0004FF08052C3F8042D002383F3118808BDCF
:103E00004FF0E022002313619361054B1B680549C5
:103E1000A1FB03139B09013B536107231361704707
:103E200000000020D34D621010B582B02A4B1A78E2
:103E3000D2B20192FF221A701B78DBB28DF80330E8
:103E40009DF8033003F05003244A1370244B0722DB
:103E50001A6009E0224A1368013B13609DF80330A1
:103E60005B00DBB28DF803309DF8033013F0800F58
:103E7000F0D11B4B1B68032B08D04FF0500383F38A
:103E80001188BFF36F8FBFF34F8FFEE71B02144AF9
:103E9000136003F4E0631360019BDBB20E4A1370FE
:103EA0004FF0E023D3F8202D42F47002C3F8202D08
:103EB000D3F8202D42F07042C3F8202DFFF7A0FF69
:103EC0000024084B1C60FFF7F1FE01F097F8FFF7A4
:103ED000CDFE204602B010BD00E400E0280B00201B
:103EE0002C0B0020E4000020EFF305830F2B0FD9EB
:103EF000114A9B5CDBB2114A12789A4208D94FF002
:103F0000500383F31188BFF36F8FBFF34F8FFEE72A
:103F10004FF0E023D3F80C3D03F4E063084A126845
:103F2000934208D94FF0500383F31188BFF36F8F8A
:103F3000BFF34F8FFEE77047F0E300E0280B00204F
:103F40002C0B0020124A12F0070F1ED0D11D21F0B9
:103F50000701C1F5305313440A460E4802600021A0
:103F600041601344083B23F007030B48036059608A
:103F70001960991A51601360084B1960084B196059
:103F8000084B4FF000421A6070474FF43053E4E79B
:103F9000340B002040370020300B00203C3700203D
:103FA0003837002034370020154B1A461B688342EF
:103FB000FBD3516802EB010C844509D0416800EB4A
:103FC000010C634509D00360904218D0106070471F
:103FD0004068014451601046F0E710B4094C246871
:103FE000A3420AD05B681944416013681B680360F0
:103FF000904200D0106010BC70470460F8E7704732
:1040000040370020300B002070B5054600F0C0FEA0
:10401000344B1B68A3B1344B1B681D424AD135B1E8
:10402000083515F0070F02D025F007050835002DDB
:1040300042D02E4B1B68AB424DD32D4A146804E08E
:10404000FFF780FFE7E722461C466368AB4202D2D7
:104050002368002BF7D1234B1B68A3423DD0166881
:1040600008362368136063685B1B102B10D9601936
:1040700010F0070F08D04FF0500383F31188BFF3FF
:104080006F8FBFF34F8FFEE743606560FFF78CFFD4
:10409000626816490B689B1A0B60164909688B42C7
:1040A00001D214490B60104B1B681343636000235B
:1040B000236002E0002600E0002600F0FDFE16F07E
:1040C000070F0CD04FF0500383F31188BFF36F8FAD
:1040D000BFF34F8FFEE70026EFE70026EDE73046FF
:1040E00070BD00BF300B002034370020383700206F
:1040F000403700203C37002080B338B50446A0F19B
:10410000080550F8043C164A1268134208D14FF0D3
:10411000500383F31188BFF36F8FBFF34F8FFEE718
:1041200050F8081C41B14FF0500383F31188BFF3DE
:104130006F8FBFF34F8FFEE723EA020340F8043C82
:1041400000F026FE54F8041C064A13680B44136062
:104150002846FFF729FF00F0AFFE38BD704700BFCB
:1041600034370020383700200346406A18B11B6BF3
:104170001868C0F10700704710B50446FFF7CAFD84
:10418000A26BE36B9A4204D00024FFF7E5FD2046C2
:1041900010BD0124F9E710B50446FFF7BBFDA36B82
:1041A00023B90124FFF7D8FD204610BD0024F9E70C
:1041B00070B504461546866B026C5AB903681BB18C
:1041C00000200136A66370BD406801F0F3F80023BB
:1041D0006360F6E76DB98068FBF7BAFF226CA368ED
:1041E0001344A3606268934219D32368A3602846EE
:1041F000E7E7C068FBF7ACFF226C5142E3689B1A0B
:10420000E3602268934202D263680B44E360022DAC
:1042100001D00020D5E726B1013E0020D1E7284695
:10422000CFE70020CDE708B50346026C62B108462F
:10423000D9681144D960D3F804C0614501D3196825
:10424000D960D968FBF784FF08BD38B50546FFF78C
:1042500061FD95F8454064B201E0013C64B2002C78
:104260000ADD6B6A43B105F1240000F057FF002816
:10427000F3D001F02BF8F0E7FF2385F84530FFF786
:104280006BFDFFF747FD95F8444064B201E0013C47
:1042900064B2002C0ADD2B6943B105F1100000F077
:1042A0003DFF0028F3D001F011F8F0E7FF2385F877
:1042B0004430FFF751FD38BD38B5E0B10D46044636
:1042C000FFF728FD2368E26B216C01FB0230606080
:1042D0000020A063A360013A02FB0133E360FF23E7
:1042E00084F8443084F84530FDB9236963B9FFF799
:1042F00033FD012038BD4FF0500383F31188BFF325
:104300006F8FBFF34F8FFEE704F1100000F006FF40
:104310000028ECD04FF0E0234FF08052C3F8042D7A
:10432000BFF34F8FBFF36F8FE1E704F11000FFF78A
:1043300057FC04F12400FFF753FCD8E710B50346FF
:1043400002980C4631B90060C36304640121FFF791
:10435000B3FF10BD0260F7E740B94FF0500383F39D
:104360001188BFF36F8FBFF34F8FFEE7F0B583B0B7
:104370000C4615460746A1B101FB00F04830FFF797
:1043800043FE064650B1002380F8463000902B468D
:1043900000F1480221463846FFF7D0FF304603B00F
:1043A000F0BD0846EAE7F0B585B0019288B10F4646
:1043B0001D460446B1B1022D20D1E36B012B1DD067
:1043C0004FF0500383F31188BFF36F8FBFF34F8F0C
:1043D000FEE74FF0500383F31188BFF36F8FBFF3F5
:1043E0004F8FFEE7036C002BE5D04FF0500383F3B3
:1043F0001188BFF36F8FBFF34F8FFEE700F06CFFA4
:10440000064658B9019B002B48D04FF0500383F368
:104410001188BFF36F8FBFF34F8FFEE700263DE09B
:104420002A4639462046FFF7C3FE636A7BB948B186
:104430004FF0E0234FF08052C3F8042DBFF34F8FAD
:10444000BFF36F8FFFF788FC012005B0F0BD04F1CA
:10445000240000F063FE0028F4D04FF0E0234FF07A
:104460008052C3F8042DBFF34F8FBFF36F8FE9E77E
:10447000FFF772FC0020E8E702A800F0D9FE012651
:1044800019E0002384F8443021E0002384F845300B
:1044900023E02046FFF7D9FE00F00EFDFFF73AFCBF
:1044A000A26BE36B9A42BBD3022DB9D0019B002BC8
:1044B000DED0002EE0D0FFF74FFC00F069FCFFF7E4
:1044C00029FC94F8442052B2B2F1FF3FD9D094F8BD
:1044D000452052B2B2F1FF3FD7D0FFF73DFC01A912
:1044E00002A800F0B1FED8B92046FFF745FE00282B
:1044F000CFD0019904F1100000F0CCFD2046FFF769
:10450000A4FE00F0D9FC0028C8D14FF0E0234FF002
:104510008052C3F8042DBFF34F8FBFF36F8FBDE7F9
:104520002046FFF792FE00F0C7FC00208DE748B15F
:1045300008B5002141600160C1600B460A46FFF7E3
:1045400032FF08BD704710B5024600210120FFF779
:1045500003FF0446FFF7EBFF204610BD2DE9F843AB
:1045600090B10F4616461C460546B1B1022C20D12B
:10457000EB6B012B1DD04FF0500383F31188BFF379
:104580006F8FBFF34F8FFEE74FF0500383F3118817
:10459000BFF36F8FBFF34F8FFEE7036C002BE5D0A7
:1045A0004FF0500383F31188BFF36F8FBFF34F8F2A
:1045B000FEE7FFF799FCEFF311894FF0500383F307
:1045C0001188BFF36F8FBFF34F8FAA6BEB6B9A42CB
:1045D00006D3022C04D0002089F31188BDE8F883AB
:1045E00095F845804FFA88F8224639462846FFF765
:1045F000DFFDB8F1FF3F06D008F101035BB285F89B
:1046000045300120E8E76B6A0BB90120E4E705F1CA
:10461000240000F083FD18B126B101203060DBE7F3
:104620000120D9E70120D7E7F0B585B0019290B11C
:104630000F460446C1B100F04FFE064600BB019B89
:10464000002B5ED04FF0500383F31188BFF36F8FC0
:10465000BFF34F8FFEE74FF0500383F31188BFF392
:104660006F8FBFF34F8FFEE7036C002BE3D04FF04B
:10467000500383F31188BFF36F8FBFF34F8FFEE7B3
:1046800000263EE039462046FFF7CDFD013DA563FB
:10469000236923B9FFF760FB012005B0F0BD04F1E9
:1046A000100000F03BFD0028F4D04FF0E0234FF065
:1046B0008052C3F8042DBFF34F8FBFF36F8FE9E72C
:1046C000FFF74AFB0020E8E702A800F0B1FD012651
:1046D00021E0002384F8443029E0002384F84530A9
:1046E0002BE02046FFF7B1FD00F0E6FB09E0204695
:1046F000FFF7ABFD00F0E0FB2046FFF74CFD002884
:104700003FD1FFF707FBA56B002DBBD1019B002B11
:10471000D6D0002ED8D0FFF71FFB00F039FBFFF7F3
:10472000F9FA94F844305BB2B3F1FF3FD1D094F87A
:1047300045305BB2B3F1FF3FCFD0FFF70DFB01A9CE
:1047400002A800F081FD0028D1D12046FFF723FD0B
:104750000028C6D0019904F1240000F09BFC2046FB
:10476000FFF773FD00F0A8FB0028CAD14FF0E0234B
:104770004FF08052C3F8042DBFF34F8FBFF36F8FFC
:10478000BFE7002089E770B584B0019158B10446B5
:10479000036C8BB14FF0500383F31188BFF36F8F1D
:1047A000BFF34F8FFEE74FF0500383F31188BFF341
:1047B0006F8FBFF34F8FFEE700F08EFD054650B9B7
:1047C000019B5BB14FF0500383F31188BFF36F8FF0
:1047D000BFF34F8FFEE70026354655E0064653E00F
:1047E000013BA36323683BB123694BB9FFF7B4FADC
:1047F0000126304604B070BD00F0A2FE6060F3E711
:1048000004F1100000F08AFC0028EFD04FF0E02304
:104810004FF08052C3F8042DBFF34F8FBFF36F8F5B
:10482000E4E746B14FF0500383F31188BFF36F8F75
:10483000BFF34F8FFEE7FFF78FFADAE702A800F029
:10484000F7FC01252AE0002384F8443032E00023FD
:1048500084F8453034E0FFF75DFA606800F04CFD05
:104860000646FFF779FA3BE02046FFF7EEFC00F042
:1048700023FB09E02046FFF7E8FC00F01DFB204683
:10488000FFF789FC002842D1FFF744FAA36B002B05
:10489000A6D1019B002BC4D0002DCFD0FFF75CFA2E
:1048A00000F076FAFFF736FA94F844305BB2B3F1D1
:1048B000FF3FC8D094F845305BB2B3F1FF3FC6D09C
:1048C000FFF74AFA01A902A800F0BEFC0028D1D1E6
:1048D0002046FFF760FC0028C6D02368002BBAD022
:1048E000019904F1240000F0D5FB2046FFF7ADFC50
:1048F00000F0E2FA0028C7D14FF0E0234FF08052D9
:10490000C3F8042DBFF34F8FBFF36F8FBCE70EB911
:1049100000266EE7FFF7FEF92046FFF725FC01466B
:10492000606800F0A1FDFFF717FAF1E7084B1B687C
:104930001B6823B9074B4FF0FF321A607047044BD6
:104940001B68DB68DB685A68024B1A60704700BF5F
:104950004C370020243800202DE9F04707469846C0
:10496000089DDDF824900A9C266B02F18042013AF2
:1049700006EB820626F007064FF0000CBCF10F0F85
:104980000BD811F80C2004EB0C0383F8342011F839
:104990000C3013B10CF1010CF0E7002384F8433024
:1049A000062D00D90625E56265644FF0000AC4F8BB
:1049B00048A0201DFFF71FF904F11800FFF71BF9AD
:1049C0002461C5F10705A5616462C4F84CA084F8B0
:1049D00050A0424639463046FFF778F92060B9F1D9
:1049E000000F01D0C9F80040BDE8F08738B50024B9
:1049F00007E004EB840293000E481844FFF7F0F838
:104A00000134062CF5D90C4D2846FFF7E9F80B4C7C
:104A10002046FFF7E5F80A48FFF7E2F80948FFF7F4
:104A2000DFF80948FFF7DCF8084B1D60084B1C60F5
:104A300038BD00BF54370020F83700200C38002064
:104A40002C38002058380020443800204C370020F3
:104A50005037002010B50446FFF75CF9214A13686F
:104A600001331360204B1B685BB1204B1B686BB993
:104A70001D4B1B68DA6AE36A9A4207D81A4B1C601E
:104A800004E0194B1C601368012B28D0184A1368E6
:104A900001331360E06A01238340164A11680B4317
:104AA000136000EB8000211D134B03EB8000FFF728
:104AB000A5F8FFF751F90D4B1B687BB10A4B1B683A
:104AC000DA6AE36A9A4209D24FF0E0234FF080524B
:104AD000C3F8042DBFF34F8FBFF36F8F10BDFFF7E7
:104AE00085FFD3E7E037002048370020403800201A
:104AF000F0370020F43700205437002010B504466A
:104B000090F8513063B1012B11D0022B0ED04FF031
:104B1000500383F31188BFF36F8FBFF34F8FFEE70E
:104B2000006BFFF7E9FA2046FFF7E6FA10BDFFF742
:104B3000E3FAFBE70F4B1B68D3B110B5FFF7EAF8B8
:104B40000D4BDB68DC68201DFFF77CF80B4A13680F
:104B5000013B1360074A1368013B1360FFF7FCF841
:104B60002046FFF7CBFF034B1B68002BE6D110BD9F
:104B7000704700BFE437002058380020E03700209D
:104B800008B5FFF7D7FF074B1B68012BF9D94FF08A
:104B9000E0234FF08052C3F8042DBFF34F8FBFF3D3
:104BA0006F8FEEE75437002070B504460D461D4B5D
:104BB0001E681D4B18680430FFF744F850B91A4BB3
:104BC0001B68DA6A012303FA02F218490B6823EA28
:104BD00002030B60B4F1FF3F0DD03444124B1B684D
:104BE0005C60A64210D9124B18680F4B196804314B
:104BF000FFF70FF870BD002DEFD00B4B1968043193
:104C00000C48FEF7FBFFF5E70B4B1868064B1968DD
:104C10000431FEF7FEFF094B1B68A342EAD9074B9C
:104C20001C60E7E76C38002048370020F43700208C
:104C300050370020443800204C3700202438002012
:104C400030B587B00B9C7CB10C9DB5B15425049553
:104C5000049D542D1AD04FF0500383F31188BFF3F5
:104C60006F8FBFF34F8FFEE74FF0500383F3118830
:104C7000BFF36F8FBFF34F8FFEE74FF0500383F307
:104C80001188BFF36F8FBFF34F8FFEE70C9D2C632E
:104C9000022485F8514000240394029505AC019448
:104CA0000A9C0094FFF758FE0C98FFF7D3FE059876
:104CB00007B030BD2DE9F04385B00746884614465D
:104CC0001E469000FFF7A0F900B381465420FFF77D
:104CD0009BF90546B0B1C0F83090E5B1002385F8E6
:104CE0005130039302950D9B01930C9B0093334627
:104CF000224641463846FFF72FFE2846FFF7AAFE18
:104D0000012005E04846FFF7F7F9E6E74FF0FF30EE
:104D100005B0BDE8F0834FF0FF30F9E710B588B07B
:104D200000240594069407AA06A905A8FBF77EFBB4
:104D3000059B0293069B019300942346079A0E4914
:104D40000E48FFF77DFF0E4B186090B14FF05003F7
:104D500083F31188BFF36F8FBFF34F8F094B4FF071
:104D6000FF321A60084B01221A60084B1C60FFF7E3
:104D70005BF808B010BD00BF7C5A0008814B0008EA
:104D80002038002024380020403800206C380020D3
:104D9000024A136801331360704700BFEC370020EC
:104DA000F8B53A4B1B68002B64D1394B1D680135AF
:104DB0001D60C5B9374B1B681B6843B14FF05003EA
:104DC00083F31188BFF36F8FBFF34F8FFEE7314A34
:104DD0001168314B186810601960304A136801334C
:104DE0001360FFF7A3FD2E4B1B68AB4238D9002799
:104DF0002C4B1B68DB6A03EB83039A002A4B9B58FE
:104E0000012B3CD901273AE00127224B1B681B6884
:104E100043B3204B1B68DB68DC6863689D4226D384
:104E2000261D3046FEF70EFFA36A1BB104F11800E1
:104E3000FEF708FFE36A01229A401C490868024312
:104E40000A6003EB83039A00314617481044FEF7CB
:104E5000D5FEE26A134B1B68DB6A9A42D4D2D4E7D0
:104E60000027D2E70E4B4FF0FF321A60C0E70C4A22
:104E70001360BDE70E4A13680133136000270D4B22
:104E80001B6803B101273846F8BD00BFEC3700208E
:104E90006C3800204C370020503700202838002084
:104EA000243800204837002054370020F4370020F1
:104EB000E83700207038002038B5354B1B6843B9FF
:104EC0004FF0500383F31188BFF36F8FBFF34F8F01
:104ED000FEE7FEF71FFF2E4B1A68013A1A601B68A7
:104EE000002B4FD12B4B1B680BB900244BE0002447
:104EF000294B1B681BB3284BDB68DC6804F11800E6
:104F0000FEF7A0FE251D2846FEF79CFEE06A012361
:104F10008340224A11680B43136000EB800029464E
:104F20001F4B03EB8000FEF769FEE26A1D4B1B6816
:104F3000DB6A9A42DCD31C4B01221A60D8E70CB121
:104F4000FFF7F4FC194B1C6884B9174B1C68D4B1EB
:104F50004FF0E0234FF08052C3F8042DBFF34F8F82
:104F6000BFF36F8F01240EE0013C07D0FFF718FF5D
:104F70000028F9D00C4B01221A60F5E70B4B0022F8
:104F80001A60E2E70024FEF7E7FE204638BD00BFC6
:104F9000EC370020E03700202C380020F4370020C8
:104FA000543700204837002070380020E8370020B0
:104FB00010B5A8B10446104B1B6843B14FF0500325
:104FC00083F31188BFF36F8FBFF34F8FFEE7FFF7B7
:104FD000DFFE00212046FFF7E7FDFFF76DFF48B930
:104FE0004FF0E0234FF08052C3F8042DBFF34F8FF2
:104FF000BFF36F8F10BD00BFEC370020204B1B6844
:105000001BB1204B01221A6070471E4B00221A6010
:105010001D4B1B68B3FA83F3DBB2C3F11F0303EB31
:1050200083018A0019498A5842B94FF0500383F32B
:105030001188BFF36F8FBFF34F8FFEE7134903EB68
:10504000830082000A4450684068506003EB830C80
:105050004FEA8C0208321144884209D003EB8303E3
:105060009A000A4B13445B68DA68094B1A60704770
:10507000406862469100054A0A445060EEE700BF6E
:10508000EC37002070380020F4370020543700201F
:105090004837002058B110B50C46094A116818313C
:1050A000FEF7B7FD01212046FFF77EFD10BD4FF052
:1050B000500383F31188BFF36F8FBFF34F8FFEE769
:1050C0004837002070B110B514460246114B1B68DA
:1050D0008BB94FF0500383F31188BFF36F8FBFF389
:1050E0004F8FFEE74FF0500383F31188BFF36F8FAC
:1050F000BFF34F8FFEE7084B186841F00041816114
:10510000196818311046FEF779FD01212046FFF796
:105110004BFD10BDEC3700204837002038B5C36880
:10512000DC6824B304F118052846FEF78BFD184B04
:105130001B682BBB251D2846FEF784FDE06A012372
:105140008340144A11680B43136000EB800029462A
:10515000114B03EB8000FEF751FDE26A0F4B1B6819
:10516000DB6A9A4211D901200D4B186038BD4FF00F
:10517000500383F31188BFF36F8FBFF34F8FFEE7A8
:1051800029460848FEF73AFDE7E70020EEE700BFB2
:10519000EC370020F4370020543700204837002037
:1051A000703800202C38002038B51C4B1B6843B9E0
:1051B0004FF0500383F31188BFF36F8FBFF34F8F0E
:1051C000FEE741F000410160C468F4B1FEF73AFD2A
:1051D000251D2846FEF736FDE06A01238340104A6C
:1051E00011680B43136000EB800029460D4B03EB65
:1051F0008000FEF703FDE26A0B4B1B68DB6A9A42F4
:1052000002D90A4B01221A6038BD4FF0500383F3D4
:105210001188BFF36F8FBFF34F8FFEE7EC3700208D
:10522000F437002054370020483700207038002021
:10523000034B1B680360034B1B684360704700BF50
:10524000283800206C380020D8B170B50C460546CF
:1052500001B3FEF75FFD1B4B19686B68C81A226823
:10526000B2F1FF3F27D0184E3668D5F800C0B445DC
:1052700001D08B4224D9824215D800232360012417
:105280001AE04FF0500383F31188BFF36F8FBFF321
:105290004F8FFEE74FF0500383F31188BFF36F8FFA
:1052A000BFF34F8FFEE75B1A134423602846FFF7D6
:1052B000BFFF002400E00024FEF74EFD204670BD35
:1052C0000124F9E76C38002028380020014B012226
:1052D0001A60704770380020054B1B6833B1054BCE
:1052E0001B680BB1002070470220704701207047F7
:1052F00040380020EC370020002851D038B5044653
:10530000C36A294A1268D26A934241D28269002A4A
:1053100005DB254A1268D26AC2F10702826161691F
:1053200003EB8303214A02EB8303994205D01E4B12
:105330001B68DB6AE362012038BD251D2846FEF7A5
:1053400081FCA0B1184B1B68D86AE062012404FA02
:1053500000F3174A11680B43136000EB80002946E5
:10536000124B03EB8000FEF749FC2046E4E7E26ABB
:1053700002EB82039B000D49CB58002BE2D10123A5
:1053800003FA02F20A490B6823EA02030B60D9E729
:10539000426C054B1B68DB6A9A4203D30020CBE7C3
:1053A000002070470120C7E748370020543700200D
:1053B000F437002000284CD038B50446274B1B6832
:1053C000834208D04FF0500383F31188BFF36F8FEF
:1053D000BFF34F8FFEE7836C43B94FF0500383F365
:1053E0001188BFF36F8FBFF34F8FFEE7013B8364DC
:1053F000C16A426C91422ED00BB1002038BD051D10
:105400002846FEF71FFC70B9E26A02EB82039B009C
:105410001349CB583BB9012303FA02F211490B6837
:1054200023EA02030B60606CE062C0F10703A36132
:10543000012404FA00F30B4A11680B43136000EBDC
:1054400080002946064B03EB8000FEF7D7FB204681
:10545000D4E7002070470020D0E700BF4837002085
:1054600054370020F4370020002856D038B50446C1
:10547000836C43B94FF0500383F31188BFF36F8FF0
:10548000BFF34F8FFEE7426C8A4200D20A46E16AC0
:10549000914201D0012B00D038BD204B1B68A342A4
:1054A00032D0E262A369002B02DBC2F10702A261E3
:1054B000626901EB81011A4B03EB81018A42EBD156
:1054C000251D2846FEF7BEFB70B9E26A02EB820397
:1054D0009B001349CB583BB9012303FA02F211494F
:1054E0000B6823EA02030B60E06A012383400D4A44
:1054F00011680B43136000EB80002946084B03EB57
:105500008000FEF77BFBC7E74FF0500383F3118861
:10551000BFF36F8FBFF34F8FFEE770474837002010
:1055200054370020F4370020044A13689869136840
:10553000DB6A1268C3F107039361704748370020A4
:10554000054B1B6823B1044B1A68936C01339364B9
:10555000014B1868704700BF4837002070B50D4EEA
:105560000D4D761BB61006D0002455F8043B0134CF
:105570009847A642F9D1094E094D00F003F9761B70
:10558000B61006D0002455F8043B01349847A642D3
:10559000F9D170BD885A0008885A0008905A00084E
:1055A000885A0008830730B548D0541E002A3FD0DF
:1055B0000346CAB201E0013C3AD303F8012B9D0730
:1055C000F9D1032C2DD9CDB245EA05250F2C45EA9A
:1055D000054536D9A4F1100222F00F0C03F1200E7C
:1055E000E6444FEA121C03F1100242E9045542E975
:1055F000025510327245F8D10CF1010214F00C0F73
:1056000003EB021204F00F0C13D0ACF1040323F0EF
:1056100003030433134442F8045B9342FBD10CF0C0
:1056200003042CB1CAB21C4403F8012B9C42FBD1E9
:1056300030BD64461346002CF4D1F9E70346144606
:10564000BFE71A46A446E0E720F0030110F003008C
:10565000C0F1000051F8043B00F1040C4FEACC0CFF
:105660006FF000021CBF22FA0CF213434FF0010C42
:105670004CEA0C2C4CEA0C4CA3EB0C0222EA030281
:1056800012EACC1204BF51F8043B0430F4D0C2F14A
:10569000000102EA0102B2FA82F2C2F11F0200EB3B
:1056A000D2007047024B13B1024800F005B87047B2
:1056B00000000000C5560008002301461A4618469F
:1056C00000F01AB838B5084B084D5B1B9C1007D08A
:1056D000043B1D44013C55F804399847002CF9D18E
:1056E000BDE8384000F054B8945A0008905A0008B9
:1056F000704700BF704700BF2DE9F047DFF87CA07E
:105700000646DAF8000098460F469146FFF7F0FF8C
:105710001B4B1B68D3F8484124B365681F2D26DC5A
:105720005EB96B1C0235DAF80000636044F825703E
:10573000FFF7E0FF0020BDE8F087012304EB8501BF
:10574000C1F88890D4F88821AB401A43022EC4F8DF
:105750008821C1F80881E4D1D4F88C211343C4F81E
:105760008C31DEE703F5A674C3F84841D5E7DAF8D3
:105770000000FFF7BFFF4FF0FF30DCE7100500200F
:10578000845A0008F8B500BFF8BC08BC9E467047B4
:0C579000F8B500BFF8BC08BC9E4670478E
:10579C00985800083D0200080000000000000000BE
:1057AC00800000000000000000000000A458000869
:1057BC005D020008030000000000000080000000F3
:1057CC000000000000000000B4580008CD090008DB
:1057DC00FFFF00000000000080000000000000003F
:1057EC0000000000C0580008FD0C0008FDFF000080
:1057FC00000000000001000000000000000000009C
:10580C00CC58000847020008FDFF00000000000013
:10581C00800000000000000000000000D8580008C4
:10582C00E91A0008FDFF00000000000080000000E5
:10583C000000000000000000E85800082D1B0008C4
:10584C00FDFF0000000000008000000000000000D0
:10585C0000000000F4580008F5140008FDFF0000DB
:10586C0000000000800000000000000000000000AC
:10587C00FC58000851020008FDFF00000000000069
:10588C0080000000000000000000000064656661FC
:10589C00756C745461736B0055617274315265612F
:1058AC006448616E646C65004750494F5461736B7A
:1058BC00000000006D757369635461736B00000028
:1058CC006D794153435461736B00000047616D6502
:1058DC00466C61675461736B0000000047616D6535
:1058EC005461736B00000000426F785461736B005D
:1058FC00446F6F725461736B000000000000000075
:10590C000000000001020304060708090000000063
:10591C00010203042F33322E6D7033002F30322EE0
:10592C006D7033002F32342E6D7033002F33312EC7
:10593C006D7033002F32392E6D7033002F33302EB3
:10594C006D7033002F32372E6D7033002F32352EA1
:10595C006D7033002F32382E6D7033002F32362E8F
:10596C006D7033002F30372E6D7033002F32302E88
:10597C006D7033002F34312E6D7033002F34322E76
:10598C006D7033002F34332E6D7033002F34342E62
:10599C006D7033002F34352E6D7033002F34362E4E
:1059AC006D7033002F34372E6D7033002F34382E3A
:1059BC006D7033002F31392E6D7033002F32312E34
:1059CC006D7033002F31342E6D7034002F31352E25
:1059DC006D7034002F30312E6D7033002F30332E1C
:1059EC006D7033002F30342E6D7033002F30352E08
:1059FC006D7033002F30362E6D7033002F30392EF2
:105A0C006D7033002F30382E6D7033002F31322EE5
:105A1C006D7033002F31332E6D7033002F31362ED5
:105A2C006D7033002F31382E6D7033002F32322EC3
:105A3C006D7033002F32332E6D7033002F33332EB5
:105A4C006D7033002F33342E6D7033002F33352EA1
:105A5C006D7033002F312E6D70330000020304057E
:105A6C00060708090A0B0C0D0E0F1010010200009E
:0C5A7C0049444C4500000000E8000020F8
:085A8800A556000835010008D5
:045A900011010008F8
:105A94000024F4001E1F1C1D141516172529262D7D
:105AA4002C2A242B28272F2E31325F3334363538D5
:105AB40037393B3A4E51504F525357585464565508
:105AC4004D4C3D3C44434241403F3E1312111007AC
