:020000040800F2
:10000000005000203D280008C50E0008C70E00085B
:10001000C90E0008CB0E0008CD0E0008000000003D
:1000200000000000000000000000000091400008F7
:10003000CF0E0008000000003141000875410008A3
:1000400085280008852800088528000885280008DC
:1000500085280008852800088528000885280008CC
:1000600085280008852800088528000885280008BC
:1000700085280008852800088528000885280008AC
:10008000852800088528000885280008852800089C
:10009000852800088528000885280008852800088C
:1000A000852800088528000885280008852800087C
:1000B000D10E00088528000885280008852800083A
:1000C000852800088528000885280008852800085C
:1000D00085280008E10E0008F10E0008010F000855
:1000E00085280008852800088528000800000000F1
:1000F0000000000000000000000000000000000000
:0C01000000000000000000005FF808F1A3
:1001100010B5054C237833B9044B13B10448AFF341
:1001200000800123237010BD440400200000000063
:10013000245B000808B5034B1BB103490348AFF328
:10014000008008BD0000000048040020245B000877
:10015000844641EA000313F0030349D1403A23D314
:100160000B6803604B6843608B688360CB68C36037
:100170000B6903614B6943618B698361CB69C3611F
:100180000B6A03624B6A43628B6A8362CB6AC36207
:100190000B6B03634B6B43638B6B8363CB6BC363EF
:1001A00040304031403ADBD230320BD30B68036031
:1001B0004B6843608B688360CB68C360103010313C
:1001C000103AF3D20C3205D351F8043B40F8043B0B
:1001D000043AF9D2043208D0D2071CBF11F8013B0F
:1001E00000F8013B01D30B8803806046704700BFD5
:1001F000082A13D38B07B1D010F00303AED0C3F19C
:100200000403D21ADB071CBF11F8013B00F8013BC5
:10021000A4D331F8023B20F8023B9FE7043AD9D33C
:10022000013A11F8013B00F8013BF9D20B78037059
:100230004B7843708B7883706046704708B5012017
:1002400003F088FDFBE708B5012003F083FDFBE721
:1002500000B5A7B098E09DF85430012B0FD0002BCB
:1002600040F092809DF853305A0903F01F0301219A
:100270009940624B53F8220003F013FE84E09DF88E
:1002800053305A0903F01F03012199405B4B53F887
:10029000220003F029FE77E09DF85330ADF80430DA
:1002A0009DF85430003B18BF01238DF80630002321
:1002B0001A4601A95248006804F045FA012863D0A3
:1002C000EE238DF851304FF0FF33BDF894200DF13F
:1002D00051014C4803F0A2FA56E04B4B01939DF8B4
:1002E00053308DF80830259A043A139215A90DF170
:1002F0000900FFF72DFF00231A4601A943480068B3
:1003000004F021FA01283FD0EE238DF851304FF050
:10031000FF33BDF894200DF151013A4803F07EFA05
:1003200032E03B4B01939DF853308DF80830259A0D
:10033000043A139215A90DF10900FFF709FF0023F4
:100340001A4601A93148006804F0FDF901281BD0C4
:10035000EE238DF851304FF0FF33BDF894200DF1AE
:100360005101284803F05AFA0EE09DF853308DF8F9
:1003700004309DF854308DF8053000231A4601A949
:100380002448006804F0DFF94FF0FF3214A9224B33
:10039000186804F019FB0128F6D19DF85230013B92
:1003A0000F2BF1D801A252F823F000BF570200082A
:1003B00099020008DB020008230300086B03000811
:1003C00089030008890300088903000889030008DD
:1003D00089030008890300088903000889030008CD
:1003E0008903000889030008ED03000800231A466A
:1003F00019460A48006804F0A6F9C5E77004002011
:100400008404002030080020780800207C040020AC
:10041000C0080020680400208C0400209C040020F8
:10042000034B0360034B0B6080231360704700BFD6
:10043000A0060020A004002010B5B2B0002405E002
:1004400003F09DFC5A4B43F824000134012CF7DDE6
:1004500003F095FC574B186000F062FF0322002167
:10046000012004F049F9544B1860002248210F2064
:1004700004F042F9514B1860002248210F2004F08B
:100480003BF94F4B1860002204210F2004F034F98F
:100490004C4B186000224C210F2004F02DF94A4BE0
:1004A0001860002202210F2004F026F9474B186043
:1004B000474C0DF1AC0CA646BEE80F00ACE80F00AF
:1004C0009EE807008CE8070000212BA803F00DFC34
:1004D000404B18600DF1900C04F11C0EBEE80F00AB
:1004E000ACE80F009EE807008CE80700002124A874
:1004F00003F0FBFB384B18600DF1740C04F1380E5F
:10050000BEE80F00ACE80F009EE807008CE807008B
:1005100000211DA803F0E9FB304B18600DF1580CC9
:1005200004F1540EBEE80F00ACE80F009EE807008F
:100530008CE80700002116A803F0D7FB284B1860B1
:100540000DF13C0C04F1700EBEE80F00ACE80F009A
:100550009EE807008CE8070000210FA803F0C5FB08
:10056000204B18600DF1200C04F18C0EBEE80F003A
:10057000ACE80F009EE807008CE80700002108A8FF
:1005800003F0B3FB184B18600DF1040E04F1A80C36
:10059000BCE80F00AEE80F009CE807008EE80700FB
:1005A000002101A803F0A1FB104B186032B010BD70
:1005B00070040020780400209C0400208C0400209B
:1005C00080040020840400207C04002068040020B3
:1005D0003C5B000890040020880400206004002098
:1005E0009404002098040020640400206C0400207F
:1005F0002DE9F04188B000240494059406940794F2
:100600002D4B9A6942F020029A619A6902F0200209
:100610000192019A9A6942F004029A619A6902F081
:1006200004020292029A9A6942F008029A619B6956
:1006300003F008030393039BDFF88080224648F20F
:10064000B001404602F025FB1D4D224643F2F83131
:10065000284602F01EFB0227049705940126069601
:1006600004A9404602F0FCF948F2B0030493059651
:100670000694079704A9404602F0F2F90423049374
:100680000594069604A9284602F0EAF943F2F833E5
:10069000049305960694079704A9284602F0E0F90A
:1006A0004FF4804304930594069404A9284602F06D
:1006B000D7F908B0BDE8F081001002400008014001
:1006C000000C014038B5044602784FF4004115484B
:1006D00002F0DFFA144D62780821284602F0D9FAB8
:1006E000A2781021284602F0D4FAE2782021284688
:1006F00002F0CFFA22794021284602F0CAFA627944
:100700008021284602F0C5FAA2794FF4807128466C
:1007100002F0BFFAE2794FF40071284602F0B9FA0C
:1007200038BD00BF00080140000C014070B506460E
:100730004C1E13E001228021154802F0AAFA144D44
:1007400000222021284602F0A4FA012003F002FB37
:1007500001222021284602F09CFA013C072C08DDEA
:10076000335D002BE6D100228021094802F091FA86
:10077000E5E7074C00221021204602F08AFA01200A
:1007800003F0E8FA01221021204602F082FA70BD3F
:100790000008014010B50446FFF794FF40212046B1
:1007A000FFF7C4FF10BD000000B583B0ADF8040032
:1007B0008DF8061000231A4601A90348006803F0CB
:1007C000C2FF03B05DF804FB84040020F8B50446C2
:1007D0000D46294E00224FF48051304602F059FA5E
:1007E000012003F0B7FA01224FF48051304602F0A5
:1007F00050FA012003F0AEFA4FF48041304602F087
:1008000041FAB0FA80F040092070012619E01A4F31
:1008100000224FF40051384602F03BFA012003F069
:1008200099FA01224FF40051384602F032FA4FF49F
:100830008041384602F026FAB0FA80F04009A0550F
:100840000136AE42E3DB4FF0000C0FE00CEB03008F
:1008500014F800E0C3F107026244A15C215404F8DB
:1008600002E00133032BF1DD0CF1080CAC4501DA99
:100870000023F7E7F8BD00BF000C0140014B185CF6
:10088000704700BFF4060020044B1A5C044B1B5C4D
:100890009A4201D00120704700207047F4060020E2
:1008A0005807002010B582B02021FFF78FFF0024E9
:1008B00018E02A4A82FB0432E317C3EBA20303EBDE
:1008C0004302A4EBC20201219140254A52F82300C1
:1008D00003F00AFB234B1B6813BB234B1A5D234B0E
:1008E0001A5501341F2C33DC2046FFF7CDFF0028BA
:1008F000F7D02046FFF7C2FF0128DAD0174A82FB63
:100900000432E317C3EBA20303EB4302A4EBC202DE
:1009100001219140124A52F8230003F0C2FAD9E7AC
:10092000CC238DF8003001238DF801308DF8024082
:100930002046FFF7A3FF8DF80300FF238DF8043056
:100940004FF0FF3305226946094802F067FFC4E70C
:10095000044B01221A6002B010BD00BFABAAAA2A44
:100960007004002014070020F4060020580700201F
:100970003008002010B584B066E0BDF80C203B4B79
:10098000995C9DF80E30994266D038498B54CC2141
:100990008DF8041002218DF805108DF80620012B2A
:1009A00014BF002301238DF80730FF238DF8083092
:1009B0004FF0FF33052201A92D4802F02FFF4BE035
:1009C00001341F2C18DC2B4B1B5D012BF8D1CC23E1
:1009D0008DF8043001238DF805308DF806408DF830
:1009E0000730FF238DF808304FF0FF33052201A9AF
:1009F0001F4802F013FFE3E7002400E001343F2C1E
:100A000019DC1A4B1B5D012BF8D1CC238DF8043077
:100A100002238DF805308DF8064001238DF807304C
:100A2000FF238DF808304FF0FF33052201A910484D
:100A300002F0F4FEE2E7012003F08CF90B48FFF727
:100A4000A9FE0C48FFF72EFF002203A90A4B1868E5
:100A500003F0BAFF012890D00021084B186804F079
:100A600062F80128E7D10024ABE700BF1807002097
:100A700030080020F4060020840400209C0400209C
:100A800008B50368B3F1804F00D008BD01F00EFF38
:100A9000FBE772B6FEE700B591B02822002106A858
:100AA00004F050FF002301930293039304930593F2
:100AB000012206924FF4803307930A9202220D928C
:100AC0000E934FF4E0130F9306A802F0FFF880B9DD
:100AD0000F23019302210291002303934FF48062BC
:100AE0000492059301A802F023FB20B911B05DF830
:100AF00004FBFFF7CEFFFFF7CCFF000008B501F0C5
:100B0000C3FEFFF7C8FFFFF773FD00F003FA00F024
:100B10001BFA00F033FA012209490A4803F0C7F82A
:100B200001220949094803F0C2F80122084909488D
:100B300003F0BDF8FFF780FC03F0D2F8FEE700BF3A
:100B400078070020300800209C070020780800204B
:100B5000C0070020C00800202DE9F04100AF80460A
:100B6000084611461E46DC1C0B3323F00703ADEB91
:100B7000030D6D468DF80000C0438DF801008DF81F
:100B8000026032460DF10300FFF7E2FA00210DF892
:100B9000041006E015F801C02B5D9C4405F804C064
:100BA0000131A142F6D3321D4FF0FF3392B22946F4
:100BB000404602F033FEC82003F0CCF8BD46BDE845
:100BC000F0810000402A00D970472DE9F04F95B020
:100BD00005460F4614461E464C22002101A804F08B
:100BE000B1FE01954FF00B0B8DF808B04FF00209E4
:100BF000CDF84C904FF004088DF808800A238DF84A
:100C000009304FF0010ACDF84CA0174D00231A46C9
:100C10000DEB0801286803F096FD8DF808B08DF8FB
:100C200009A08DF80A60CDF84C9000231A460DEB10
:100C30000801286803F087FD8DF8088007238DF8E8
:100C40000930224639460DF10A00FFF781FA544473
:100C5000139400231A460DEB0801286803F073FD76
:100C600015B0BDE8F08F00BF7C04002010B594B033
:100C700004464C22002101A804F064FE01940423E0
:100C80008DF808300123139303238DF809300023D6
:100C90001A4601A90248006803F055FD14B010BDC2
:100CA0007C04002070B5B6B00221434801F0EAFF91
:100CB00005460421414801F0E5FF044657E0359B15
:100CC0000DF191029DF890102398FFF745FF56E033
:100CD000CC238DF800309DF844308DF80130229EF1
:100CE00032460DF145010DF10200FFF731FA06F130
:100CF000DA036B44FF2203F8D82CF21C4FF0FF33C9
:100D000092B269462E4802F089FD40E002212A484D
:100D100001F0B8FF00283CD101212A4B186803F0EC
:100D2000C0F836E00221244801F0ACFF012832D19E
:100D30000121244B186803F0D7F82CE004211F4848
:100D400001F0A0FF48BB4FF480711E4B186803F000
:100D5000A8F822E00221184801F094FF054604217A
:100D6000164801F08FFF0446012002F0F3FF002235
:100D700023A9154B186803F027FE01289FD00022F5
:100D800011A9124B186803F01FFE0128A0D0012DF5
:100D9000BCD0002DC6D0012CD0D0002CDAD104213B
:100DA000064801F06FFF0128D4D14FF48071054B44
:100DB000186803F099F8CDE700080140000C0140E5
:100DC00030080020780400207C04002080040020EB
:100DD00000B583B0114B9A6942F001029A619A6999
:100DE00002F001020092009ADA6942F08052DA6160
:100DF000DB6903F080530193019B00220F216FF008
:100E0000010001F077FD064A536823F0E06343F0E8
:100E10000073536003B05DF804FB00BF0010024094
:100E20000000014030B589B00446224BDA6942F037
:100E30000102DA61DB6903F001030193019B02A95E
:100E400003A802F051FA069BD3B902F02DFA03462B
:100E50001948A0FB03239B0C013B18484FF080422C
:100E6000026040F2E732C2604360002303618360A6
:100E7000836102F089FB054630B1284609B030BDD8
:100E800002F012FA4300E3E70C4802F04DFA05467F
:100E90000028F2D11C2001F065FD0F2C01D901259D
:100EA000EBE7002221461C2001F024FD044B1C60CE
:100EB000E3E700BF0010024083DE1B43E40700208D
:100EC0000C000020FEE7FEE7FEE7FEE7FEE77047C6
:100ED00008B5024802F060FA08BD00BFE407002030
:100EE00008B5024802F084FD08BD00BF30080020AC
:100EF00008B5024802F07CFD08BD00BF780800205C
:100F000008B5024802F074FD08BD00BFC00800200B
:100F10007047000008B50A480A4B03604FF4E133FC
:100F2000436000238360C36003610C2242618361DC
:100F3000C36102F043FC00B908BDFFF7AAFDFBE75F
:100F4000300800200038014008B50A480A4B036009
:100F50004FF41653436000238360C36003610C2287
:100F600042618361C36102F029FC00B908BDFFF74B
:100F700090FDFBE7780800200044004008B50A48CF
:100F80000A4B03604FF41653436000238360C36031
:100F900003610C2242618361C36102F00FFC00B95E
:100FA00008BDFFF776FDFBE7C008002000480040C1
:100FB00030B58BB000230693079308930993036819
:100FC0004F4A934207D04F4A934236D04E4A9342FB
:100FD00063D00BB030BD4D4B9A6942F480429A61A8
:100FE0009A6902F480420092009A9A6942F00402DF
:100FF0009A619B6903F004030193019B4FF4007312
:1010000006930223079303230993414D06A928461B
:1010100001F026FD4FF480630693002407940894A2
:1010200006A9284601F01CFD22460521252001F0D5
:1010300061FC252001F096FCCBE7344BDA6942F4E1
:101040000032DA61DA6902F400320292029A9A6995
:1010500042F004029A619B6903F004030393039B2B
:10106000042306930223079303230993284D06A91B
:10107000284601F0F5FC0823069300240794089401
:1010800006A9284601F0ECFC22460521262001F0A5
:1010900031FC262001F066FC9BE71C4BDA6942F428
:1010A0008022DA61DA6902F480220492049A9A6951
:1010B00042F008029A619B6903F008030593059BBF
:1010C0004FF4806306930223079303230993114D82
:1010D00006A9284601F0C4FC4FF4006306930024DF
:1010E0000794089406A9284601F0BAFC2246052177
:1010F000272001F0FFFB272001F034FC69E700BF47
:101100000038014000440040004800400010024008
:1011100000080140000C014010B594B003686D4A0E
:10112000934208D06C4A934242D06C4A934200F0FA
:10113000888014B010BD6A4B1B786A4AD35CCC2BF4
:1011400018D0694B1B6863B103685868644B197801
:101150004A1CD2B21A70634B5854511E5B5CFF2B71
:101160000FD05F4B1B7801225E4919445F4802F0A3
:101170009EFDDEE75C4B01221A60594B00221A707B
:10118000DFE70024019402238DF8083013925549BB
:101190000DF10900FEF7DCFF234601AA02A954481D
:1011A000006803F0ABFB504B1C604D4B1C70D8E744
:1011B000504B1B78012B12D0022B24D04E4A1278B0
:1011C000D11C8B4227D001334A4A1370494B1B78FC
:1011D00001224A4919444A4802F069FDA9E7474AF1
:1011E00051781278D243D2B2914205D0414B0022BD
:1011F0001A70424B1970E9E7424A012111600B4411
:101200003C4A1370E2E73D4A91783B4A1170013342
:10121000384A1370DAE70024364B1C7003238DF82C
:1012200008300432139235490DF10900FEF790FFA2
:101230000194234601AA02A93348006803F05EFB2B
:10124000C4E7324B1B78012B12D0022B24D0304A3A
:101250001278D11C8B4227D001332C4A13702B4BB0
:101260001B7801222B4919442B4802F020FD60E72E
:10127000284A51781278D243D2B2914205D0234BFA
:1012800000221A70234B1970E9E7244A01211160EA
:101290000B441E4A1370E2E71E4A91781C4A1170F3
:1012A00001331A4A1370DAE70024184B1C70042328
:1012B0008DF808301A44139216490DF10900FEF713
:1012C00047FF0194234601AA02A90F48006803F0D2
:1012D00015FBC4E7003801400044004000480040CE
:1012E000980700207807002010090020300800200F
:1012F0008C040020BC0700202D0800209C07002043
:10130000780800200C09002080040020E00700205D
:101310002C080020C0070020C00800200809002079
:1013200008B5012003F0DFFA014B186008BD00BFCB
:101330001C09002000B583B04FF0FF3201A90B4B10
:10134000186803F041FB0128F6D1094C4FF0FF313A
:10135000206803F0E8FB9DF80520064B1A60002387
:101360001A461946206803F0EEF9E5E76804002004
:101370001C0900201809002003688B4201DC0020B2
:1013800070470023036001207047000070B586B0ED
:10139000002405942FE000213420FFF705FA0021F6
:1013A0003520FFF701FA4FF4967002F0D3FC0121CB
:1013B0003520FFF7F9F900230593C54A1368013377
:1013C0001360C34B1B68333B072B41F2EC81059B39
:1013D0000133059300231A461946BE48006803F0FE
:1013E000B2F9012002F0B6FCB94B1B68BA4A126888
:1013F000934241F0FF814FF0FF31B64B186803F084
:1014000092FBB34B1A68531E422BDAD801A151F854
:1014100023F000BF97130008211500083B150008B2
:101420009F150008F31500080D1600087116000836
:10143000B7160008FD1600085117000875170008B8
:10144000A1170008BB1700080F1800083318000880
:101450005F18000879180008D5180008F918000866
:10146000251900083F190008C3130008F5190008E2
:10147000551A00086F1A0008CB1A00083B1B000819
:10148000551B0008D71B0008F31B00080B1C0008A5
:10149000271C0008551C0008711C0008851C00084A
:1014A000AB1C0008C3130008CD1C0008FB1C00087F
:1014B000511D0008691D0008851D00088F1D0008CA
:1014C000B51D0008C91D0008C3130008F31D00085E
:1014D0001D1E0008431E00085B1E0008FF1E0008BA
:1014E000491F00086F1F0008A31F0008BD1F000848
:1014F000072000082320000869200008F7220008C0
:1015000013230008652300089F23000847240008D0
:10151000E924000805250008172500089D26000875
:1015200048F6B80105A8FFF727FF00283FF449AFA8
:10153000674A13680133136043E700213420FFF743
:1015400033F900213520FFF72FF9644B02AD93E802
:10155000030085E80300284604F046FA0246604E80
:10156000042329463046FFF72DFB01210020FFF719
:101570001BF940F2145002F0EDFB5A4B93E80300C4
:1015800085E80300284604F02FFA02460423294682
:101590003046FFF717FB4E4B00221A6011E700217F
:1015A0000846FFF701F900213420FFF7FDF800217C
:1015B0003520FFF7F9F84C4B02AD93E8030085E8BE
:1015C0000300284604F010FA02460423294647483F
:1015D000FFF7F8FA4FF4967002F0BCFB01213420BB
:1015E000FFF7E2F800230593394A136801331360CB
:1015F000E7E648F6B80105A8FFF7BEFE00283FF46D
:10160000E0AE334A136801331360DAE60021342078
:10161000FFF7CAF800213520FFF7C6F82F4B02ADBF
:1016200093E8030085E80300284604F0DDF902464C
:10163000042329462A48FFF7C5FA01210846FFF787
:10164000B3F840F2145002F085FB294B93E80300F5
:1016500085E80300284604F0C7F90246012329461D
:101660002248FFF7AFFA1A4A136801331360A8E65D
:101670000023009301231A4619461E48006802F011
:101680008CFB10F0010F3FF49CAE1B4B02AD93E8B6
:10169000030085E80300284604F0A6F90246042367
:1016A00029460F48FFF78EFA00230593084A13686E
:1016B0000133136085E64AF2280105A8FFF75CFEB6
:1016C00000283FF47EAE024A13680133136078E6C7
:1016D000180900201C09002004000020745C000888
:1016E000780800207C5C0008845C0008C0080020AA
:1016F0008C5C000870040020945C0008002101202C
:10170000FFF752F8AE4B02AD93E8030085E8030003
:10171000284604F069F9024604232946A948FFF740
:1017200051FA01210220FFF73FF8A74B93E803008D
:1017300085E80300284604F057F9024601232946AC
:10174000A248FFF73FFAA24A13680133136038E654
:101750000023009301231A4602219E48006802F0EC
:101760001CFB10F0020F3FF42CAE994A13680133B2
:10177000136026E6984B02AD93E8030085E803006A
:10178000284604F031F90246042329468D48FFF724
:1017900019FA002305938E4A13680133136010E68B
:1017A00048F2D04105A8FFF7E7FD00283FF409AE55
:1017B000874A13680133136003E600210220FEF715
:1017C000F3FF7F4B02AD93E8030085E80300284652
:1017D00004F00AF90246042329467A48FFF7F2F991
:1017E00001210320FEF7E0FF7C4B93E8030085E82E
:1017F0000300284604F0F8F80246012329467348FE
:10180000FFF7E0F9724A136801331360D9E500234A
:10181000009301231A4604216E48006802F0BDFAC5
:1018200010F0040F3FF4CDAD694A13680133136023
:10183000C7E56B4B02AD93E8030085E8030028463B
:1018400004F0D2F80246042329465E48FFF7BAF9AD
:10185000002305935E4A136801331360B1E54FF22C
:10186000302105A8FFF788FD00283FF4AAAD584AAB
:10187000136801331360A4E500210320FEF794FFF1
:101880004F4B02AD93E8030085E80300284604F0BF
:10189000ABF80246042329464A48FFF793F9012191
:1018A0000420FEF781FF01210520FEF77DFF4D4B4F
:1018B00093E8030085E80300284604F095F8024603
:1018C000012329464148FFF77DF9414A1368013356
:1018D000136076E50023009301231A4608213D4852
:1018E000006802F05AFA10F0080F3FF46AAD384A67
:1018F00013680133136064E53B4B02AD93E80300CA
:1019000085E80300284604F06FF8024604232946C0
:101910002C48FFF757F9002305932D4A136801332C
:1019200013604EE54AF2280105A8FFF725FD0028BF
:101930003FF447AD264A13680133136041E50021A7
:101940000420FEF731FF00210520FEF72DFF1C4B80
:1019500002AD93E8030085E80300284604F044F84C
:101960000246184E042329463046FFF72BF9012181
:101970000820FEF719FF40F2145002F0EBF91B4B60
:1019800093E8030085E80300284604F02DF802469A
:10199000012329460D48FFF715F9154B93E803007D
:1019A00085E80300284604F01FF802460423294670
:1019B0003046FFF707F9064A13680133136000E564
:1019C000745C0008780800209C5C0008C0080020B7
:1019D0001809002070040020A45C0008AC5C00081A
:1019E000B45C0008BC5C0008C45C0008CC5C000867
:1019F000D45C0008C84B02AD93E8030085E80300FF
:101A0000284603F0F1FF024604232946C348FFF7A6
:101A1000D9F8C34A2B4607CA03C31A80284603F0E5
:101A2000E3FF024604232946BE48FFF7CBF8002116
:101A30003320FEF7B9FE00213220FEF7B5FE01216A
:101A40003320FEF7B1FE00230593B74A1368013334
:101A50001360B6E447F2305105A8FFF78DFC00286B
:101A60003FF4AFACB04A136801331360A9E400211E
:101A70003320FEF799FE00213220FEF795FEAB4B96
:101A800002AD93E8030085E80300284603F0ACFFAD
:101A90000246A44E042329463046FFF793F840F24D
:101AA000145002F057F9A24B93E8030085E80300B5
:101AB000284603F099FF0246042329463046FFF7E3
:101AC00081F8994B00221A607BE400210820FEF780
:101AD0006BFE984A02AB07CA03C31A8002AD2846C0
:101AE00003F082FF0246012329468C48FFF76AF87B
:101AF000914B93E8030085E80300284603F074FF48
:101B00000246042329468748FFF75CF8002133206A
:101B1000FEF74AFE00213220FEF746FE4FF4967093
:101B200002F018F901213220FEF73EFE0023059352
:101B30007D4A13680133136043E448F6B80105A8F1
:101B4000FFF71AFC00283FF43CAC774A13680133D6
:101B5000136036E401210A20FEF726FE002133201F
:101B6000FEF722FE00213220FEF71EFE734B02AD6F
:101B700093E8030085E80300284603F035FF02469A
:101B8000012329466548FFF71DF86D4B93E80300D4
:101B900085E80300284603F027FF02460423294670
:101BA0006048FFF70FF801211C20FEF7FDFD012121
:101BB0000920FEF7F9FD4FF4967002F0CBF80021F2
:101BC0000920FEF7F1FD00230593574A13680133FE
:101BD0001360FFF7F6BB4FF47A5105A8FFF7CCFB73
:101BE00000283FF4EEAB504A136801331360FFF74F
:101BF000E8BB01211820FEF7D7FD002305934A4AD0
:101C0000136801331360FFF7DCBB4FF47A5105A86A
:101C1000FFF7B2FB00283FF4D4AB434A136801330B
:101C20001360FFF7CEBB474B02AD93E8030085E896
:101C30000300284603F0D8FE02460423294639480B
:101C4000FEF7C0FF00230593374A13680133136082
:101C5000FFF7B7BB42F2107105A8FFF78DFB002814
:101C60003FF4AFAB304A136801331360FFF7A9BBF1
:101C700001210A20FEF798FD2B4A136801331360F7
:101C8000FFF79FBB0023009301231A4640212E48F3
:101C9000006802F082F810F0400F3FF492AB224A45
:101CA000136801331360FFF78CBB00210C20FEF793
:101CB0007BFD00210A20FEF777FD01210D20FEF7B4
:101CC00073FD194B26221A60FFF77BBB1F4B02AD39
:101CD00093E8030085E80300284603F085FE0246EA
:101CE000042329460F48FEF76DFF002305930E4A93
:101CF000136801331360FFF764BB43F2C82105A8E2
:101D0000FFF73AFB00283FF45CAB074A1368013346
:101D10001360FFF756BB00BFDC5C0008C008002062
:101D2000E45C00087808002018090020745C0008B2
:101D3000F05C0008F85C0008045D00080C5D000819
:101D4000145D00081C5D000870040020245D00087C
:101D500001211720FEF728FD00230593B84A1368D8
:101D600001331360FFF72DBB43F2C82105A8FFF72D
:101D700003FB00283FF425ABB14A1368013313601D
:101D8000FFF71FBB0132AE4B1A60FFF71ABB0023EF
:101D9000009301231A468021AA48006801F0FDFF44
:101DA00010F0800F3FF40DABA54A136801331360A8
:101DB000FFF707BB00210F20FEF7F6FCA04A1368CF
:101DC00001331360FFF7FDBA0022009201234FF4A4
:101DD00080719C48006801F0E0FF10F4807F7FF480
:101DE000F0AA974A13680133136001331360FFF7B9
:101DF000E8BA954B02AD93E8030085E80300284656
:101E000003F0F2FD0246042329469048FEF7DAFE6D
:101E10008B4A136801331360FFF7D3BA0023009392
:101E200001231A4610218748006801F0B6FF10F020
:101E3000100F3FF4C6AA824A136801331360FFF7FC
:101E4000C0BA01211A20FEF7AFFC002305937C4A9B
:101E5000136801331360FFF7B4BA032C14BF0023D7
:101E60000123012C0DD963B9042C18BF022C27D0F3
:101E7000052C7FF4A6AA724A136801331360FFF79A
:101E8000A0BA0023009301231A464FF400716D4855
:101E9000006801F082FF10F4007F01D00134E7E711
:101EA0000023009301231A464FF40001654800689F
:101EB00001F073FF10F4000FDAD00024FFF781BAAD
:101EC0000023009301231A464FF400015D48006887
:101ED00001F063FF10F4000F01D00134C8E70023C4
:101EE000009301231A464FF400715648006801F030
:101EF00054FF10F4007FBBD00024FFF762BA00212A
:101F00003020FEF751FC01213120FEF74DFC00216D
:101F10000D20FEF749FC01211320FEF745FC4C4B38
:101F200002AD93E8030085E80300284603F05CFD5A
:101F30000246042329464548FEF744FE404A1368FA
:101F400001331360FFF73DBA0022009201234FF4E2
:101F500000613C48006801F020FF10F4006F7FF43E
:101F600030AA374A136801331360FFF72ABA394B96
:101F700002AD93E8030085E80300284603F034FD32
:101F80000246042329463148FEF71CFE3248FEF77C
:101F90006DFE002305932A4A136801331360FFF78F
:101FA00010BA2E4905A8FFF7E7F900283FF409AA5F
:101FB000234A136801331360FFF703BA284B02ADBD
:101FC00093E8030085E80300284603F00DFD024670
:101FD000042329461D48FEF7F5FD224B93E8030034
:101FE00085E80300284603F0FFFC0246012329464A
:101FF0001948FEF7E7FD00230593114A13680133E2
:102000001360FFF7DEB942F2107105A8FFF7B4F9CB
:1020100000283FF4D6A90A4A136801331360FFF77A
:10202000D0B901211420FEF7BFFB01211120FEF7DA
:10203000BBFB034A136801331360FFF7C2B900BF4B
:1020400018090020700400202C5D0008780800208A
:10205000345D00083C5D0008C0080020E87A0100FB
:10206000445D00084C5D00080023009301231A46DC
:102070004FF48011B348006801F08FFE10F4801F08
:102080003FF49FA90022009201234FF40051AD4874
:10209000006801F082FE10F4005F0BD10022009274
:1020A00001234FF48051A748006801F076FE10F438
:1020B000805F29D10022009201234FF40051A148F2
:1020C000006801F06AFE10F4005F0CD1002200925B
:1020D00001234FF480519B48006801F05EFE10F42C
:1020E000805F40F08980984B02AD93E8030085E85B
:1020F0000300284603F078FC02460423294693484F
:10210000FEF760FDFFF75DB90022009201234FF456
:1021100000418C48006801F040FE10F4004FC9D126
:102120000022009201234FF480418648006801F0AC
:1021300034FE10F4804FBDD00022009201234FF4F2
:1021400000318048006801F028FE10F4003FB1D053
:102150000022009201234FF480317A48006801F098
:102160001CFE10F4803FA5D10022009201234FF401
:1021700000217448006801F010FE10F4002F99D17E
:102180000022009201234FF480216E48006801F084
:1021900004FE10F4802F8DD00022009201234FF412
:1021A00000116848006801F0F8FD10F4001F81D1AB
:1021B000674B02AD93E8030085E80300284603F06F
:1021C00013FC0246042329466048FEF7FBFC614BE2
:1021D00093E8030085E80300284603F005FC024667
:1021E000042329465C48FEF7EDFC002305935B4B76
:1021F0003B221A60FFF7E5B80022009201234FF45A
:1022000000415048006801F0C8FD10F4004F7FF411
:102210006AAF0022009201234FF4804149480068D0
:1022200001F0BBFD10F4804F3FF45DAF002200923F
:1022300001234FF400314348006801F0AEFD10F473
:10224000003F7FF450AF0022009201234FF4803111
:102250003C48006801F0A1FD10F4803F7FF443AFDB
:102260000022009201234FF400213648006801F05B
:1022700094FD10F4002F3FF436AF002200920123AA
:102280004FF480212F48006801F087FD10F4802F63
:102290007FF429AF0022009201234FF40011294856
:1022A000006801F07AFD10F4001F7FF41CAF2C4B86
:1022B00002AD93E8030085E80300284603F094FB91
:1022C0000246042329462148FEF77CFC214B93E873
:1022D000030085E80300284603F086FB024604233A
:1022E00029461D48FEF76EFC002305931B4B3B223D
:1022F0001A60FFF766B84BF6803105A8FFF73CF887
:1023000000283FF45EA8154A136801331360FFF7F5
:1023100058B800211620FEF747FA00211620FEF7D4
:1023200043FA01211620FEF73FFA01211220FEF7A1
:102330003BFA00230593094A136801331360FFF742
:1023400040B800BF70040020545D000878080020E9
:102350005C5D0008645D0008C008002018090020CA
:102360006C5D00084EF6602105A8FFF705F818B16E
:10237000C24A1368013313600023009301231A46F5
:102380004FF48061BE48006801F007FD10F4806FD3
:102390003FF417A8B94B3F221A60FFF712B800218B
:1023A0001420FEF701FA00211120FEF7FDF90021AB
:1023B0003020FEF7F9F900213120FEF7F5F9002170
:1023C0001220FEF7F1F901213020FEF7EDF901218D
:1023D0001F20FEF7E9F901211D20FEF7E5F94FF472
:1023E000967001F0B7FC00211F20FEF7DDF90021F7
:1023F0001D20FEF7D9F9A34B02AD93E8030085E851
:102400000300284603F0F0FA0246042329469E48BA
:10241000FEF7D8FB42F2107001F09CFC9B4B93E856
:10242000030085E80300284603F0DEFA0246042391
:1024300029469748FEF7C6FB002305938F4B4022A1
:102440001A60FEF7BEBF00211420FEF7ADF900218F
:102450001120FEF7A9F900211220FEF7A5F90021AD
:102460000B20FEF7A1F900211320FEF79DF90121B1
:102470001E20FEF799F901211520FEF795F94FF47A
:10248000967001F067FC00211E20FEF78DF90021F7
:102490001520FEF789F97F4B02AD93E8030085E82C
:1024A0000300284603F0A0FA024604232946764892
:1024B000FEF788FB42F2107001F04CFC764B93E87B
:1024C000030085E80300284603F08EFA0246042341
:1024D00029466F48FEF776FB00230593674A136889
:1024E00001331360FEF76DBF4FF4FA5105A8FEF7F4
:1024F00043FF00283EF465AF604A13680133136060
:10250000FEF75FBF00210620FEF74EF95B4B00226D
:102510001A60FEF756BF01211B20FEF745F9012185
:102520001E20FEF741F94FF4967001F013FC0021D4
:102530001B20FEF739F900211E20FEF735F952481D
:10254000FEF794FB5248FEF791FB01210020FEF7B5
:102550002BF901210846FEF727F901210220FEF799
:1025600023F901210320FEF71FF901210420FEF7C2
:102570001BF901210520FEF717F901210720FEF7BD
:1025800013F901210620FEF70FF901210820FEF7BB
:102590000BF901210A20FEF707F901210B20FEF7B4
:1025A00003F901210C20FEF7FFF801210F20FEF7AF
:1025B000FBF801210D20FEF7F7F801211120FEF7AD
:1025C000F3F801211220FEF7EFF801211320FEF7A6
:1025D000EBF801211420FEF7E7F800211520FEF7A3
:1025E000E3F800211620FEF7DFF800211720FEF7A0
:1025F000DBF800211820FEF7D7F800211920FEF79C
:10260000D3F800211A20FEF7CFF800211C20FEF796
:10261000CBF800211D20FEF7C7F800213120FEF77E
:10262000C3F800213020FEF7BFF800213520FEF767
:10263000BBF800213420FEF7B7F800213320FEF765
:10264000B3F800213220FEF7AFF84FF4967001F096
:1026500081FB01213120FEF7A7F848F6B80001F010
:1026600079FB00213120FEF79FF800213020FEF792
:102670009BF80024014B1C60FEF7A3BE1809002044
:1026800070040020745D0008780800207C5D00085C
:10269000C0080020845D00088C5D00080021312006
:1026A000FEF782F800213020FEF77EF80021352069
:1026B000FEF77AF800213420FEF776F80021332067
:1026C000FEF772F800213220FEF76EF84FF4967094
:1026D00001F040FB01213020FEF766F80121342093
:1026E000FEF762F801213220FEF75EF848F6B800E6
:1026F00001F030FB00213120FEF756F80021302098
:10270000FEF752F800213520FEF74EF80021342064
:10271000FEF74AF800213320FEF746F80021322068
:10272000FEF742F800210D20FEF73EF80021084692
:10273000FEF73AF800210120FEF736F800210220CA
:10274000FEF732F800210320FEF72EF800210420C6
:10275000FEF72AF800210520FEF726F800210820C0
:10276000FEF722F800210A20FEF71EF800210B20B8
:10277000FEF71AF800210D20FEF716F800211120AF
:10278000FEF712F800211220FEF70EF800211320A8
:10279000FEF70AF800211420FEF706F8224B00226B
:1027A0001A60FEF70EBE00220092012320211F486E
:1027B000006801F0F2FA10F0200F0DD01C4B1B68DE
:1027C000002B7EF404AE01211920FDF7EDFF184B1C
:1027D00001221A60FEF7FBBD154B1B68012B7EF42E
:1027E000F6AD00211920FDF7DFFF114B00221A6022
:1027F000FEF7EDBDCC228DF8082005228DF80920CA
:1028000000218DF80A108DF80B30FF238DF80C3065
:102810004FF0FF3302A9074801F000F8024B1A6895
:10282000054B1A60FEF7E7BD180900207004002070
:10283000140900203008002004000020FEF768FB87
:102840000B480C490C4A002302E0D458C45004330E
:10285000C4188C42F9D3094A094C002301E01360E3
:102860000432A242FBD303F049F8FEF747F9704760
:102870000000002044040020C05D00084404002043
:1028800074360020FEE7000008B5074A136843F0DD
:1028900010031360032000F01BF80F20FEF7C2FAAC
:1028A000FEF796FA002008BD00200240034A116896
:1028B000034B1B780B441360704700BF20090020B6
:1028C00008000020014B1868704700BF2009002055
:1028D000074AD36823F4E0631B041B0C000200F4D6
:1028E000E060034343F0BF6343F40033D3607047B9
:1028F00000ED00E000B5194BDB68C3F30223C3F120
:10290000070CBCF1040F28BF4FF0040C03F1040EB8
:10291000BEF1060F18D9033B4FF0FF3E0EFA0CFC38
:1029200021EA0C0199400EFA03F322EA030319434A
:1029300000280BDB0901C9B200F1604000F56140DD
:1029400080F800135DF804FB0023E5E700F00F00BA
:102950000901C9B2024B1954F4E700BF00ED00E0D1
:1029600014ED00E0002807DB00F01F0240090123FE
:102970009340024A42F82030704700BF00E100E077
:1029800090F82130DBB2022B06D0042383630023AE
:1029900080F82030012070470268136823F00E038E
:1029A00013600268136823F001031360036CC16BAA
:1029B000012202FA03F34B6080F82120002380F803
:1029C000203018467047000008B590F82130DBB27F
:1029D000022B03D004238363012008BD026813681F
:1029E00023F00E0313600268136823F001031360E1
:1029F0000368194A934214D0143293421FD0143200
:102A000093421ED0143293421ED0143293421ED0F1
:102A10001432934202D04FF0807203E04FF48012E0
:102A200000E001220D4B5A60012380F82130002381
:102A300080F82030436B6BB198470020CDE710221F
:102A4000F0E74FF48072EDE74FF48052EAE74FF47D
:102A50008032E7E70020C0E70800024000000240A3
:102A600070B582B00024A446A6E0804DAA4210D0E2
:102A700007D97F4DAA420CD005F58035AA4208D06F
:102A800013E0A5F58015AA4203D005F57025AA42EA
:102A900007D18A68002A58D0012A51D043610824FE
:102AA00003E0A5F58015AA42F3D0BEF1FF0F4ED882
:102AB0000646BEF1FF0F4CD84FEA8C0233680F2553
:102AC000954023EA050304FA02F2134333604B688E
:102AD00013F0805F6ED0674B9A6942F001029A61F1
:102AE0009B6903F001030193019B4FEA9C02951C33
:102AF000614B53F825600CF003039D000F23AB409E
:102B000026EA03065D4B984229D003F5806398427C
:102B100000F08E8003F58063984200F08B8003F50F
:102B20008063984219D004231AE0CC68BDE7CC68D2
:102B30000434BAE7CC680834B7E7CC680C34B4E79F
:102B400003610824B1E70024AFE70424ADE7061DC4
:102B5000AFE7ACF108029200B0E7032300E00023E6
:102B6000AB4033430232444D45F822304B6813F4F6
:102B7000801F61D0424A936843EA0E0393604B681A
:102B800013F4001F5ED03E4AD36843EA0E03D360BD
:102B90004B6813F4003F5BD0394A536843EA0E0395
:102BA00053604B6813F4803F58D0354A136843EAAA
:102BB0000E0313600CF1010C0A6832FA0CF353D0C7
:102BC000012303FA0CF302EA030E33EA0202F1D105
:102BD0004A68122A3FF649AF122A3FF666AF01A5AE
:102BE00055F822F0932A00082B2B0008352B0008FB
:102BF000472B0008AB2A0008AB2A0008AB2A0008C4
:102C0000AB2A0008AB2A0008AB2A0008AB2A000850
:102C1000AB2A0008AB2A0008AB2A0008AB2A000840
:102C2000AB2A0008AB2A00082F2B00083B2B00081A
:102C3000012395E7022393E7114A936823EA0E03E1
:102C400093609CE70E4AD36823EA0E03D3609FE7A4
:102C50000B4A536823EA0E035360A2E7084A13683D
:102C600023EA0E031360A5E702B070BD0000221036
:102C70000000311000100240000001400008014037
:102C8000000401408368194201D0012070470020F0
:102C900070470AB101617047090401617047000083
:102CA00082B0084B1B68084AA2FB03235B0A00FBA7
:102CB00003F3019300BF019B5A1E0192002BF9D12F
:102CC00002B0704700000020D34D6210002800F0D1
:102CD000F18170B582B00446036813F0010F2CD067
:102CE000994B5B6803F00C03042B1DD0964B5B687B
:102CF00003F00C03082B12D06368B3F5803F41D07A
:102D0000002B55D103F1804303F504331A6822F4F4
:102D100080321A601A6822F480221A6037E08A4BE7
:102D20005B6813F4803FE7D0874B1B6813F4003FC8
:102D300003D06368002B00F0BF81236813F0020FFB
:102D400075D0814B5B6813F00C0F5FD07E4B5B68D6
:102D500003F00C03082B54D02369002B00F08A8069
:102D60007A4B01221A60FFF7ADFD0546764B1B68D2
:102D700013F0020F75D1FFF7A5FD401B0228F5D90E
:102D800003209EE1704A136843F480331360636844
:102D900043B3FFF797FD05466B4B1B6813F4003FE9
:102DA000CBD1FFF78FFD401B6428F5D9032088E1C4
:102DB000B3F5A02F09D0644B1A6822F480321A6050
:102DC0001A6822F480221A60E1E703F18043A3F538
:102DD0003C331A6842F480221A601A6842F4803246
:102DE0001A60D4E7FFF76EFD0546574B1B6813F4D6
:102DF000003FA2D0FFF766FD401B6428F5D90320F1
:102E00005FE1514B5B6813F4803FA5D14E4B1B68CB
:102E100013F0020F03D02369012B40F04F814A4A7F
:102E2000136823F0F803616943EAC1031360236860
:102E300013F0080F33D0A369002B5CD0434B012261
:102E4000C3F88024FFF73EFD05463F4B5B6A13F055
:102E5000020F21D1FFF736FD401B0228F5D90320D0
:102E60002FE1394A136823F0F803616943EAC1038B
:102E70001360DCE7354B00221A60FFF723FD05469F
:102E8000314B1B6813F0020FD1D0FFF71BFD401B25
:102E90000228F5D9032014E10120FFF701FF236880
:102EA00013F0040F00F09680274BDB6913F0805F6E
:102EB00034D1254BDA6942F08052DA61DB6903F0E4
:102EC00080530193019B0125214B1B6813F4807FE4
:102ED00026D0E368012B3DD0002B53D103F1804372
:102EE00003F504331A6A22F001021A621A6A22F008
:102EF00004021A6233E0154B0022C3F88024FFF766
:102F0000E1FC0546104B5B6A13F0020FC7D0FFF7D8
:102F1000D9FC401B0228F5D90320D2E00025D3E7D5
:102F20000B4A136843F480731360FFF7CBFC06462B
:102F3000074B1B6813F4807FCBD1FFF7C3FC801BCA
:102F40006428F5D90320BCE0001002400000424292
:102F5000007000405F4A136A43F001031362E368A4
:102F600033B3FFF7AFFC06465A4B1B6A13F0020F50
:102F70002FD1FFF7A7FC801B41F288339842F3D989
:102F800003209EE0052B09D0524B1A6A22F0010261
:102F90001A621A6A22F004021A62E0E74D4B1A6ABA
:102FA00042F004021A621A6A42F001021A62D6E77B
:102FB000FFF788FC0646474B1B6A13F0020F08D048
:102FC000FFF780FC801B41F288339842F3D903203D
:102FD00077E0E5B9E369002B72D03E4A526802F00F
:102FE0000C02082A56D0022B17D03B4B00221A663F
:102FF000FFF768FC0446374B1B6813F0007F47D08F
:10300000FFF760FC001B0228F5D9032059E0314A84
:10301000D36923F08053D361DCE72F4B00221A667B
:10302000FFF750FC05462B4B1B6813F0007F06D0C2
:10303000FFF748FC401B0228F5D9032041E0236A32
:10304000B3F5803F1AD023494B6823F47413226AE6
:10305000606A024313434B601F4B01221A66FFF75D
:1030600031FC04461B4B1B6813F0007F0ED1FFF7A9
:1030700029FC001B0228F5D9032022E0154A5368D9
:1030800023F40033A1680B435360DCE7002018E011
:10309000002016E0012B16D00E4B5B6803F4803144
:1030A000226A914211D103F47013626A93420ED1E5
:1030B000002006E001207047012002E0012000E02E
:1030C000002002B070BD0120FBE70120F9E70120DC
:1030D000F7E700BF00100240000042420F4B5B6860
:1030E00003F00C02082A01D00D487047C3F3834255
:1030F0000C49885C13F4803F0BD0084B5B68C3F32A
:103100004043094AD35C064A02FB00F0B0FBF3F0EF
:103110007047064B03FB00F0704700BF00100240F1
:1031200000127A00945D0008A45D000800093D00CB
:10313000002800F0A08070B50D460446524B1B6875
:1031400003F007038B420BD24F4A136823F00703A7
:103150000B431360136803F007038B4240F08D802C
:10316000236813F0020F17D013F0040F04D0474A5E
:10317000536843F4E0635360236813F0080F04D0EE
:10318000424A536843F460535360404A536823F003
:10319000F003A1680B435360236813F0010F31D093
:1031A0006368012B20D0022B25D0384A126812F018
:1031B000020F64D035494A6822F0030213434B6082
:1031C000FFF780FB0646314B5B6803F00C03626837
:1031D000B3EB820F16D0FFF775FB801B41F28833EB
:1031E0009842F0D9032045E0284A126812F4003FC3
:1031F000E0D101203EE0254A126812F0007FD9D1CB
:10320000012037E0204B1B6803F00703AB420AD9CB
:103210001D4A136823F007032B431360136803F060
:103220000703AB422DD1236813F0040F06D0174AD1
:10323000536823F4E063E1680B435360236813F0A1
:10324000080F07D0114A536823F46053216943EAF9
:10325000C1035360FFF742FF0C4B5B68C3F30313DA
:103260000B4AD35CD8400B4B18600B4B1868FDF72A
:10327000D9FD002070BD012070470120FAE7012030
:10328000F8E70120F6E700BF0020024000100240EE
:103290005C5C0008000000200C000020014B186856
:1032A000704700BF0000002008B5FFF7F7FF044B90
:1032B0005B68C3F30223034AD35CD84008BD00BF58
:1032C000001002406C5C000808B5FFF7E7FF044BF4
:1032D0005B68C3F3C223034AD35CD84008BD00BF78
:1032E000001002406C5C00080F2303600B4B5A680F
:1032F00002F0030242605A6802F0F00282605A68EB
:1033000002F4E062C2605B68DB0803F4E06303611F
:10331000034B1B6803F007030B607047001002406B
:10332000002002407047000090F83D30DBB2012BD6
:1033300027D1022380F83D300268D36843F00103AF
:10334000D3600368114A934210D0B3F1804F0DD07F
:10335000A2F59432934209D002F58062934205D0DF
:103360001A6842F001021A60002070479A6802F061
:103370000702062A07D01A6842F001021A600020EC
:103380007047012070470020704700BF002C0140AB
:10339000704770477047704710B5044603681A6954
:1033A00012F0020F11D0DA6812F0020F0DD06FF098
:1033B00002021A610123037703689B6913F0030F6C
:1033C00070D0FFF7E6FF0023237723681A6912F015
:1033D000040F12D0DA6812F0040F0ED06FF004025E
:1033E0001A610223237723689B6913F4407F5FD01F
:1033F0002046FFF7CEFF0023237723681A6912F0D7
:10340000080F12D0DA6812F0080F0ED06FF0080221
:103410001A61042323772368DB6913F0030F4ED06E
:103420002046FFF7B6FF0023237723681A6912F0BE
:10343000100F12D0DA6812F0100F0ED06FF01002D9
:103440001A61082323772368DB6913F4407F3DD09A
:103450002046FFF79EFF0023237723681A6912F0A6
:10346000010F03D0DA6812F0010F36D123681A6910
:1034700012F0800F03D0DA6812F0800F34D1236885
:103480001A6912F0400F03D0DA6812F0400F32D1FF
:1034900023681A6912F0200F03D0DA6812F0200FA7
:1034A00030D110BDFFF774FF2046FFF773FF8AE7A6
:1034B0002046FFF76DFF2046FFF76CFF9BE7204695
:1034C000FFF766FF2046FFF765FFACE72046FFF7F2
:1034D0005FFF2046FFF75EFFBDE76FF001021A6154
:1034E0002046FDF7CDFAC1E76FF080021A61204651
:1034F00000F077F8C3E76FF040021A612046FFF74B
:103500004AFFC5E76FF020021A61204600F068F814
:10351000C7E7000003681B4A90420AD0B0F1804F11
:1035200007D0A2F59432904203D002F58062904217
:1035300003D123F070034A681343124A90420AD021
:10354000B0F1804F07D0A2F59432904203D002F53B
:103550008062904203D123F44073CA68134323F07E
:1035600080034A69134303608B68C3620B688362FC
:10357000044B984202D00123436170470B690363F7
:10358000F9E700BF002C014040B310B5044690F8A5
:103590003D30F3B1022384F83D30214651F8040B4D
:1035A000FFF7B8FF012384F8463084F83E3084F8F2
:1035B0003F3084F8403084F8413084F8423084F859
:1035C000433084F8443084F8453084F83D3000209E
:1035D00010BD80F83C30FFF7A5FEDBE70120704707
:1035E00070477047026802F10C0353E8003F23F470
:1035F00090730C3242E800310029F3D1026802F1E5
:10360000140353E8003F23F00103143242E8003171
:103610000029F3D1036B012B05D0202380F8423021
:10362000002303637047026802F10C0353E8003F74
:1036300023F010030C3242E800310029F3D1ECE70B
:1036400090F84130DBB2212B01D002207047836813
:10365000B3F5805F17D0036A5A1C02621A780368B8
:103660005A60C38C9BB2013B9BB2C3844BB90268C6
:10367000D36823F08003D3600268D36843F040032B
:10368000D360002070470369002BE4D1036A1B88D4
:103690000268C3F308035360036A02330362E0E77E
:1036A00010B504460268136923F44053C1680B4304
:1036B000136183680269134342691A430168CB6846
:1036C00023F4B05323F00C031343CB600268536917
:1036D00023F4407381690B4353610268134B9A4290
:1036E00020D0FFF7E1FD024602EB820202EB8202EC
:1036F00063689B00B2FBF3F20D48A0FB023149095D
:10370000642303FB11231B013233A0FB03235B095A
:1037100003F0F00202EB011203F00F0321681344DF
:103720008B6010BDFFF7D0FD0246DDE70038014099
:103730001F85EB512DE9F84305460F46164699467D
:10374000DDF820802C68246837EA04030CBF4FF0B2
:10375000010C4FF0000CB4452DD1B8F1FF3FF1D072
:10376000B8F1000F05D0FFF7ADF8A0EB0900404518
:10377000E8D92A6802F10C0353E8003F23F4D07320
:103780000C3242E800310029F3D12A6802F1140317
:1037900053E8003F23F00103143242E800310029CE
:1037A000F3D1202385F8413085F84230002385F895
:1037B0004030032000E00020BDE8F88360B310B57E
:1037C000044690F8413013B3242384F84130226832
:1037D000D36823F40053D3602046FFF761FF2268CB
:1037E000136923F4904313612268536923F02A0379
:1037F00053612268D36843F40053D36000206064AF
:10380000202384F8413084F84230606310BD80F892
:103810004030FDF7CDFBD7E7012070472DE9F0419F
:1038200082B01E4690F84130DBB2202B4BD10446CB
:103830000D46904600294AD00AB9012044E00023F1
:103840004364212380F84130FFF73CF80746A4F891
:103850002480A4F82680A368B3F5805F02D04FF0DF
:1038600000080FE02369FBB14FF000080AE038F8C8
:10387000023B2268C3F308035360E28C92B2013A20
:1038800092B2E284E38C9BB28BB100963B4600225D
:1038900080212046FFF74EFFD8B9002DE7D015F85C
:1038A000012B23685A60E8E7A8460025EAE700965E
:1038B0003B46002240212046FFF73CFF58B9202319
:1038C00084F8413000E0022002B0BDE8F081012020
:1038D000FAE70320F8E70320F6E7704708B5016828
:1038E000CA6822F04002CA60202280F84120FFF717
:1038F000F4FF002008BD704708B5406A0023C38567
:10390000C384FFF7F8FF08BD704790F84230DBB280
:10391000222B69D18368B3F5805F4FD0826AB3F5FB
:10392000805F04D0002B56D10369002B53D103686C
:103930005B681370836A01338362C38D9BB2013B62
:103940009BB2C385002B51D100B583B00268D36808
:1039500023F02003D3600268D36823F48073D3601C
:103960000268536923F001035361202380F8423039
:1039700000234363036B012B33D1002303630268ED
:1039800002F10C0353E8003F23F010030C3242E82D
:1039900000310029F3D103681A6812F0100F06D025
:1039A000002201921A6801925B680193019B818D4C
:1039B000FFF7AAFF002003B05DF804FB0269002AAC
:1039C000ACD1826A03685B68C3F308031380836A1F
:1039D00002338362B1E703685B6803F07F0313700F
:1039E000A8E7FDF799FBE5E7022070470020704744
:1039F00030B583B0044602681368D068516913F08B
:103A00000F0505D113F0200F02D010F0200F19D1AF
:103A10002DB111F0010119D110F4907F16D1216B55
:103A200001297DD013F0800F03D010F0800F40F0FB
:103A3000188113F0400F03D010F0400F40F01581B3
:103A400003B030BD2046FFF760FFF9E713F0010F28
:103A500006D010F4807F03D0626C42F001026264F1
:103A600013F0040F04D019B1626C42F002026264D8
:103A700013F0020F04D019B1626C42F004026264C8
:103A800013F0080F07D010F0200F00D119B1626CAD
:103A900042F008026264626C002AD1D013F0200F59
:103AA00002D010F0200F29D123685B6903F0400396
:103AB000626C12F0080F00D163B32046FFF792FD4D
:103AC00023685B6913F0400F20D0226802F11403D1
:103AD00053E8003F23F04003143242E8003100294C
:103AE000F3D1E36B73B1634A5A63E06BFEF76CFF8B
:103AF0000028A5D0E06B436B9847A1E72046FFF76D
:103B000004FFD1E72046FFF7F6FE99E72046FFF7CE
:103B1000F2FE95E72046FFF7EEFE002363648FE791
:103B200013F0100F3FF47EAF10F0100F3FF47AAF98
:103B3000002301931368019353680193019B536918
:103B400013F0400F51D0E26B13685B689BB2002BFF
:103B50003FF476AFA18D99427FF672AFE38593690A
:103B6000202B37D0226802F10C0353E8003F23F4E6
:103B700080730C3242E800310029F3D1226802F14F
:103B8000140353E8003F23F00103143242E80031EC
:103B90000029F3D1226802F1140353E8003F23F017
:103BA0004003143242E800310029F3D1202384F885
:103BB000423000232363226802F10C0353E8003FE4
:103BC00023F010030C3242E800310029F3D1E06BFE
:103BD000FEF7D6FE02236363A18DE38D9BB2C91A63
:103BE00089B22046FFF790FE2AE7A18DE38D9BB2B4
:103BF000C91A89B2E38D9BB2002B3FF421AF002993
:103C00003FF41EAF226802F10C0353E8003F23F497
:103C100090730C3242E800300028F3D1226802F1A0
:103C2000140353E8003F23F00103143242E800304C
:103C30000028F3D1202384F8423000232363226834
:103C400002F10C0353E8003F23F010030C3242E86A
:103C500000300028F3D1022363632046FFF754FEAF
:103C6000EEE62046FFF7ECFCEAE62046FFF736FEDC
:103C7000E6E600BFF938000881628285C28500232C
:103C80004364222380F84230036923B10268D36879
:103C900043F48073D3600268536943F001035361B6
:103CA0000268D36843F02003D3600020704708B552
:103CB00090F84230DBB2202B08D149B10AB901207B
:103CC00008BD00230363FFF7D7FFF9E70220F7E7FA
:103CD0000120F5E7842801D00330704700207047A9
:103CE00008B501F0EBF9002008BD2DE9F04387B0DD
:103CF00004460F464569BDB18669AEB1D0F804806F
:103D0000D0F80090B0F90800FFF7E4FF02960195A3
:103D100000903B4622694946404601F061F9059012
:103D2000059807B0BDE8F08365682668D4F8108070
:103D3000B4F90800FFF7CEFF05AB019300903B46B6
:103D40001FFA88F23146284601F084F90128E7D0AD
:103D50000020E6E708B500B9012001F0F9FA0020DB
:103D600008BD1AB9084206D11046704731EA00036F
:103D700003D000207047012070470120704738B5FC
:103D80001C2000F011FB044628B1002540F8045B1C
:103D900000F0F0F82576204638BD2DE9F84378B1DB
:103DA0000C4616461D46074611F07F4811D04FF0CD
:103DB000500383F31188BFF36F8FBFF34F8FFEE77C
:103DC0004FF0500383F31188BFF36F8FBFF34F8F12
:103DD000FEE741B94FF0500383F31188BFF36F8FB3
:103DE000BFF34F8FFEE701F047FC50B9089B43B18A
:103DF0004FF0500383F31188BFF36F8FBFF34F8FE2
:103E0000FEE701F095F9D7F800902A46214648468A
:103E1000FFF7A7FFF0B116B129EA04033B6001F0F8
:103E20001BFAB8F1000F12D048B94FF0E0234FF061
:103E30008052C3F8042DBFF34F8FBFF36F8F01F093
:103E400043FD814610F0007F1AD029F07F49484693
:103E5000BDE8F883089B83B166B941460DB141F0D6
:103E60008061089A2143381D01F0FCFAC146DDF853
:103E70002080D4E74FF08071F0E7DDF82080CEE7B6
:103E800000F018F9D7F800902A4621464846FFF777
:103E900068FF18B116B129EA04043C6000F02CF95F
:103EA000D3E770B170B50C46054611F07F4F11D0C5
:103EB0004FF0500383F31188BFF36F8FBFF34F8F21
:103EC000FEE74FF0500383F31188BFF36F8FBFF30A
:103ED0004F8FFEE700F0EEF82E6826EA04042C600F
:103EE00000F00AF9304670BDF8B568B10D460446D9
:103EF00011F07F4711D04FF0500383F31188BFF3C7
:103F00006F8FBFF34F8FFEE74FF0500383F311889D
:103F1000BFF36F8FBFF34F8FFEE700F10C0601F088
:103F200007F9206923682B4323600AE0216832EAFD
:103F3000010105D111E0216841F0007101F004FB9D
:103F40002846B0420ED04568036823F07F4213F044
:103F5000806FEBD121681142F2D013F0807FEAD05C
:103F60001743E8E7236823EA0703236001F074F9A5
:103F70002068F8BD00F1080343604FF0FF32826013
:103F8000C36003610023036070470023036170472F
:103F900043684B609A688A60516099600861036861
:103FA00001330360704730B40D68B5F1FF3F11D0A5
:103FB00000F108031C465B681A68AA42FAD96368D4
:103FC0004B6099608C606160086103680133036035
:103FD00030BC70470469F2E70369416882688A600F
:103FE000416851605A68824206D0002202611A6814
:103FF000013A1A601868704782685A60F5E7000055
:1040000082B0002301930D4B1B68B3F1FF3F08D032
:104010004FF0500383F31188BFF36F8FBFF34F8FBF
:10402000FEE74FF0500383F31188BFF36F8FBFF3A8
:104030004F8F019B002BFCD002B070471000002076
:1040400006480068006880F3088862B661B6BFF36E
:104050004F8FBFF36F8F00DF00BF000008ED00E05F
:104060004FF0807340F8043C21F0010140F8081C37
:10407000034B40F80C3C40F8202C4038704700BF00
:1040800001400008000000000000000000000000E7
:10409000074B19680868B0E8F00F80F30988BFF390
:1040A0006F8F4FF0000080F311884EF00D0E7047B7
:1040B000443500204FF0500383F31188BFF36F8F16
:1040C000BFF34F8F0B4A136801331360012B00D0ED
:1040D00070474FF0E023D3F8043D13F0FF0FF7D003
:1040E0004FF0500383F31188BFF36F8FBFF34F8FEF
:1040F000FEE700BF10000020094B1B6843B94FF0DA
:10410000500383F31188BFF36F8FBFF34F8FFEE728
:10411000013B034A13600BB983F31188704700BF5A
:10412000100000200000000000000000000000005F
:10413000EFF30980BFF36F8F0D4B1A6820E9F00F82
:1041400010602DE908404FF0500080F3118801F015
:1041500025F94FF0000080F31188BDE80840196888
:104160000868B0E8F00F80F30988BFF36F8F7047DD
:104170004435002008B54FF0500383F31188BFF396
:104180006F8FBFF34F8F00F0DBFF28B14FF0E023BC
:104190004FF08052C3F8042D002383F3118808BD2B
:1041A0004FF0E022002313619361054B1B68054922
:1041B000A1FB03139B09013B536107231361704764
:1041C00000000020D34D621010B582B02A4B1A783F
:1041D000D2B20192FF221A701B78DBB28DF8033045
:1041E0009DF8033003F05003244A1370244B072238
:1041F0001A6009E0224A1368013B13609DF80330FE
:104200005B00DBB28DF803309DF8033013F0800FB4
:10421000F0D11B4B1B68032B08D04FF0500383F3E6
:104220001188BFF36F8FBFF34F8FFEE71B02144A55
:10423000136003F4E0631360019BDBB20E4A13705A
:104240004FF0E023D3F8202D42F47002C3F8202D64
:10425000D3F8202D42F07042C3F8202DFFF7A0FFC5
:104260000024084B1C60FFF7EBFE01F097F8FFF706
:10427000C7FE204602B010BD00E400E02409002083
:104280002809002010000020EFF305830F2B0FD921
:10429000114A9B5CDBB2114A12789A4208D94FF05E
:1042A000500383F31188BFF36F8FBFF34F8FFEE787
:1042B0004FF0E023D3F80C3D03F4E063084A1268A2
:1042C000934208D94FF0500383F31188BFF36F8FE7
:1042D000BFF34F8FFEE77047F0E300E024090020B2
:1042E00028090020124A12F0070F1ED0D11D21F01C
:1042F0000701C1F5305313440A460E4802600021FD
:1043000041601344083B23F007030B4803605960E6
:104310001960991A51601360084B1960084B1960B5
:10432000084B4FF000421A6070474FF43053E4E7F7
:10433000300900203C3500202C09002038350020B1
:104340003435002030350020154B1A461B68834257
:10435000FBD3516802EB010C844509D0416800EBA6
:10436000010C634509D00360904218D0106070477B
:104370004068014451601046F0E710B4094C2468CD
:10438000A3420AD05B681944416013681B6803604C
:10439000904200D0106010BC70470460F8E770478E
:1043A0003C3500202C09002070B5054600F0C0FE09
:1043B000344B1B68A3B1344B1B681D424AD135B145
:1043C000083515F0070F02D025F007050835002D38
:1043D00042D02E4B1B68AB424DD32D4A146804E0EB
:1043E000FFF780FFE7E722461C466368AB4202D234
:1043F0002368002BF7D1234B1B68A3423DD01668DE
:1044000008362368136063685B1B102B10D9601992
:1044100010F0070F08D04FF0500383F31188BFF35B
:104420006F8FBFF34F8FFEE743606560FFF78CFF30
:10443000626816490B689B1A0B60164909688B4223
:1044400001D214490B60104B1B68134363600023B7
:10445000236002E0002600E0002600F0FDFE16F0DA
:10446000070F0CD04FF0500383F31188BFF36F8F09
:10447000BFF34F8FFEE70026EFE70026EDE730465B
:1044800070BD00BF2C0900203035002034350020DD
:104490003C3500203835002080B338B50446A0F103
:1044A000080550F8043C164A1268134208D14FF030
:1044B000500383F31188BFF36F8FBFF34F8FFEE775
:1044C00050F8081C41B14FF0500383F31188BFF33B
:1044D0006F8FBFF34F8FFEE723EA020340F8043CDF
:1044E00000F026FE54F8041C064A13680B441360BF
:1044F0002846FFF729FF00F0AFFE38BD704700BF28
:1045000030350020343500200346406A18B11B6B5B
:104510001868C0F10700704710B50446FFF7CAFDE0
:10452000A26BE36B9A4204D00024FFF7E5FD20461E
:1045300010BD0124F9E710B50446FFF7BBFDA36BDE
:1045400023B90124FFF7D8FD204610BD0024F9E768
:1045500070B504461546866B026C5AB903681BB1E8
:1045600000200136A66370BD406801F0F3F8002317
:104570006360F6E76DB98068FBF7EAFD226CA3681B
:104580001344A3606268934219D32368A36028464A
:10459000E7E7C068FBF7DCFD226C5142E3689B1A39
:1045A000E3602268934202D263680B44E360022D09
:1045B00001D00020D5E726B1013E0020D1E72846F2
:1045C000CFE70020CDE708B50346026C62B108468C
:1045D000D9681144D960D3F804C0614501D3196882
:1045E000D960D968FBF7B4FD08BD38B50546FFF7BB
:1045F00061FD95F8454064B201E0013C64B2002CD5
:104600000ADD6B6A43B105F1240000F057FF002872
:10461000F3D001F02BF8F0E7FF2385F84530FFF7E2
:104620006BFDFFF747FD95F8444064B201E0013CA3
:1046300064B2002C0ADD2B6943B105F1100000F0D3
:104640003DFF0028F3D001F011F8F0E7FF2385F8D3
:104650004430FFF751FD38BD38B5E0B10D46044692
:10466000FFF728FD2368E26B216C01FB02306060DC
:104670000020A063A360013A02FB0133E360FF2343
:1046800084F8443084F84530FDB9236963B9FFF7F5
:1046900033FD012038BD4FF0500383F31188BFF381
:1046A0006F8FBFF34F8FFEE704F1100000F006FF9D
:1046B0000028ECD04FF0E0234FF08052C3F8042DD7
:1046C000BFF34F8FBFF36F8FE1E704F11000FFF7E7
:1046D00051FC04F12400FFF74DFCD8E710B5034668
:1046E00002980C4631B90060C36304640121FFF7EE
:1046F000B3FF10BD0260F7E740B94FF0500383F3FA
:104700001188BFF36F8FBFF34F8FFEE7F0B583B013
:104710000C4615460746A1B101FB00F04830FFF7F3
:1047200043FE064650B1002380F8463000902B46E9
:1047300000F1480221463846FFF7D0FF304603B06B
:10474000F0BD0846EAE7F0B585B0019288B10F46A2
:104750001D460446B1B1022D20D1E36B012B1DD0C3
:104760004FF0500383F31188BFF36F8FBFF34F8F68
:10477000FEE74FF0500383F31188BFF36F8FBFF351
:104780004F8FFEE7036C002BE5D04FF0500383F30F
:104790001188BFF36F8FBFF34F8FFEE700F06CFF00
:1047A000064658B9019B002B48D04FF0500383F3C5
:1047B0001188BFF36F8FBFF34F8FFEE700263DE0F8
:1047C0002A4639462046FFF7C3FE636A7BB948B1E3
:1047D0004FF0E0234FF08052C3F8042DBFF34F8F0A
:1047E000BFF36F8FFFF788FC012005B0F0BD04F127
:1047F000240000F063FE0028F4D04FF0E0234FF0D7
:104800008052C3F8042DBFF34F8FBFF36F8FE9E7DA
:10481000FFF772FC0020E8E702A800F0D9FE0126AD
:1048200019E0002384F8443021E0002384F8453067
:1048300023E02046FFF7D9FE00F00EFDFFF73AFC1B
:10484000A26BE36B9A42BBD3022DB9D0019B002B24
:10485000DED0002EE0D0FFF74FFC00F069FCFFF740
:1048600029FC94F8442052B2B2F1FF3FD9D094F819
:10487000452052B2B2F1FF3FD7D0FFF73DFC01A96E
:1048800002A800F0B1FED8B92046FFF745FE002887
:10489000CFD0019904F1100000F0CCFD2046FFF7C5
:1048A000A4FE00F0D9FC0028C8D14FF0E0234FF05F
:1048B0008052C3F8042DBFF34F8FBFF36F8FBDE756
:1048C0002046FFF792FE00F0C7FC00208DE748B1BC
:1048D00008B5002141600160C1600B460A46FFF740
:1048E00032FF08BD704710B5024600210120FFF7D6
:1048F00003FF0446FFF7EBFF204610BD2DE9F84308
:1049000090B10F4616461C460546B1B1022C20D187
:10491000EB6B012B1DD04FF0500383F31188BFF3D5
:104920006F8FBFF34F8FFEE74FF0500383F3118873
:10493000BFF36F8FBFF34F8FFEE7036C002BE5D003
:104940004FF0500383F31188BFF36F8FBFF34F8F86
:10495000FEE7FFF799FCEFF311894FF0500383F363
:104960001188BFF36F8FBFF34F8FAA6BEB6B9A4227
:1049700006D3022C04D0002089F31188BDE8F88307
:1049800095F845804FFA88F8224639462846FFF7C1
:10499000DFFDB8F1FF3F06D008F101035BB285F8F7
:1049A00045300120E8E76B6A0BB90120E4E705F127
:1049B000240000F083FD18B126B101203060DBE750
:1049C0000120D9E70120D7E7F0B585B0019290B179
:1049D0000F460446C1B100F04FFE064600BB019BE6
:1049E000002B5ED04FF0500383F31188BFF36F8F1D
:1049F000BFF34F8FFEE74FF0500383F31188BFF3EF
:104A00006F8FBFF34F8FFEE7036C002BE3D04FF0A7
:104A1000500383F31188BFF36F8FBFF34F8FFEE70F
:104A200000263EE039462046FFF7CDFD013DA56357
:104A3000236923B9FFF760FB012005B0F0BD04F145
:104A4000100000F03BFD0028F4D04FF0E0234FF0C1
:104A50008052C3F8042DBFF34F8FBFF36F8FE9E788
:104A6000FFF74AFB0020E8E702A800F0B1FD0126AD
:104A700021E0002384F8443029E0002384F8453005
:104A80002BE02046FFF7B1FD00F0E6FB09E02046F1
:104A9000FFF7ABFD00F0E0FB2046FFF74CFD0028E0
:104AA0003FD1FFF707FBA56B002DBBD1019B002B6E
:104AB000D6D0002ED8D0FFF71FFB00F039FBFFF750
:104AC000F9FA94F844305BB2B3F1FF3FD1D094F8D7
:104AD00045305BB2B3F1FF3FCFD0FFF70DFB01A92B
:104AE00002A800F081FD0028D1D12046FFF723FD68
:104AF0000028C6D0019904F1240000F09BFC204658
:104B0000FFF773FD00F0A8FB0028CAD14FF0E023A7
:104B10004FF08052C3F8042DBFF34F8FBFF36F8F58
:104B2000BFE7002089E770B584B0019158B1044611
:104B3000036C8BB14FF0500383F31188BFF36F8F79
:104B4000BFF34F8FFEE74FF0500383F31188BFF39D
:104B50006F8FBFF34F8FFEE700F08EFD054650B913
:104B6000019B5BB14FF0500383F31188BFF36F8F4C
:104B7000BFF34F8FFEE70026354655E0064653E06B
:104B8000013BA36323683BB123694BB9FFF7B4FA38
:104B90000126304604B070BD00F0A2FE6060F3E76D
:104BA00004F1100000F08AFC0028EFD04FF0E02361
:104BB0004FF08052C3F8042DBFF34F8FBFF36F8FB8
:104BC000E4E746B14FF0500383F31188BFF36F8FD2
:104BD000BFF34F8FFEE7FFF78FFADAE702A800F086
:104BE000F7FC01252AE0002384F8443032E000235A
:104BF00084F8453034E0FFF75DFA606800F04CFD62
:104C00000646FFF779FA3BE02046FFF7EEFC00F09E
:104C100023FB09E02046FFF7E8FC00F01DFB2046DF
:104C2000FFF789FC002842D1FFF744FAA36B002B61
:104C3000A6D1019B002BC4D0002DCFD0FFF75CFA8A
:104C400000F076FAFFF736FA94F844305BB2B3F12D
:104C5000FF3FC8D094F845305BB2B3F1FF3FC6D0F8
:104C6000FFF74AFA01A902A800F0BEFC0028D1D142
:104C70002046FFF760FC0028C6D02368002BBAD07E
:104C8000019904F1240000F0D5FB2046FFF7ADFCAC
:104C900000F0E2FA0028C7D14FF0E0234FF0805235
:104CA000C3F8042DBFF34F8FBFF36F8FBCE70EB96E
:104CB00000266EE7FFF7FEF92046FFF725FC0146C8
:104CC000606800F0A1FDFFF717FAF1E7084B1B68D9
:104CD0001B6823B9074B4FF0FF321A607047044B33
:104CE0001B68DB68DB685A68024B1A60704700BFBC
:104CF00048350020203600202DE9F0470746984629
:104D0000089DDDF824900A9C266B02F18042013A4E
:104D100006EB820626F007064FF0000CBCF10F0FE1
:104D20000BD811F80C2004EB0C0383F8342011F895
:104D30000C3013B10CF1010CF0E7002384F8433080
:104D4000062D00D90625E56265644FF0000AC4F817
:104D500048A0201DFFF719F904F11800FFF715F915
:104D60002461C5F10705A5616462C4F84CA084F80C
:104D700050A0424639463046FFF772F92060B9F13B
:104D8000000F01D0C9F80040BDE8F08738B5002415
:104D900007E004EB840293000E481844FFF7EAF89A
:104DA0000134062CF5D90C4D2846FFF7E3F80B4CDF
:104DB0002046FFF7DFF80A48FFF7DCF80948FFF75D
:104DC000D9F80948FFF7D6F8084B1D60084B1C605E
:104DD00038BD00BF50350020F435002008360020D3
:104DE0002836002054360020403600204835002068
:104DF0004C35002010B50446FFF75CF9214A1368D2
:104E000001331360204B1B685BB1204B1B686BB9EF
:104E10001D4B1B68DA6AE36A9A4207D81A4B1C607A
:104E200004E0194B1C601368012B28D0184A136842
:104E300001331360E06A01238340164A11680B4373
:104E4000136000EB8000211D134B03EB8000FFF784
:104E50009FF8FFF751F90D4B1B687BB10A4B1B689C
:104E6000DA6AE36A9A4209D24FF0E0234FF08052A7
:104E7000C3F8042DBFF34F8FBFF36F8F10BDFFF743
:104E800085FFD3E7DC350020443500203C36002088
:104E9000EC350020F03500205035002010B50446D8
:104EA00090F8513063B1012B11D0022B0ED04FF08E
:104EB000500383F31188BFF36F8FBFF34F8FFEE76B
:104EC000006BFFF7E9FA2046FFF7E6FA10BDFFF79F
:104ED000E3FAFBE70F4B1B68D3B110B5FFF7EAF815
:104EE0000D4BDB68DC68201DFFF776F80B4A136872
:104EF000013B1360074A1368013B1360FFF7FCF89E
:104F00002046FFF7CBFF034B1B68002BE6D110BDFB
:104F1000704700BFE035002054360020DC3500200B
:104F200008B5FFF7D7FF074B1B68012BF9D94FF0E6
:104F3000E0234FF08052C3F8042DBFF34F8FBFF32F
:104F40006F8FEEE75035002070B504460D461D4BBF
:104F50001E681D4B18680430FFF73EF850B91A4B15
:104F60001B68DA6A012303FA02F218490B6823EA84
:104F700002030B60B4F1FF3F0DD03444124B1B68A9
:104F80005C60A64210D9124B18680F4B19680431A7
:104F9000FFF709F870BD002DEFD00B4B19680431F5
:104FA0000C48FEF7F5FFF5E70B4B1868064B196840
:104FB0000431FEF7F8FF094B1B68A342EAD9074BFF
:104FC0001C60E7E76836002044350020F0350020FB
:104FD0004C35002040360020483500202036002087
:104FE00030B587B00B9C7CB10C9DB5B154250495B0
:104FF000049D542D1AD04FF0500383F31188BFF352
:105000006F8FBFF34F8FFEE74FF0500383F311888C
:10501000BFF36F8FBFF34F8FFEE74FF0500383F363
:105020001188BFF36F8FBFF34F8FFEE70C9D2C638A
:10503000022485F8514000240394029505AC0194A4
:105040000A9C0094FFF758FE0C98FFF7D3FE0598D2
:1050500007B030BD2DE9F04385B0074688461446B9
:105060001E469000FFF7A0F900B381465420FFF7D9
:105070009BF90546B0B1C0F83090E5B1002385F842
:105080005130039302950D9B01930C9B0093334683
:10509000224641463846FFF72FFE2846FFF7AAFE74
:1050A000012005E04846FFF7F7F9E6E74FF0FF304B
:1050B00005B0BDE8F0834FF0FF30F9E710B588B0D8
:1050C00000240594069407AA06A905A8FBF7A8F9E9
:1050D000059B0293069B019300942346079A0E4971
:1050E0000E48FFF77DFF0E4B186090B14FF0500354
:1050F00083F31188BFF36F8FBFF34F8F094B4FF0CE
:10510000FF321A60084B01221A60084B1C60FFF73F
:105110005BF808B010BD00BFA85D0008214F000873
:105120001C360020203600203C3600206836002047
:10513000024A136801331360704700BFE83500204E
:10514000F8B53A4B1B68002B64D1394B1D6801350B
:105150001D60C5B9374B1B681B6843B14FF0500346
:1051600083F31188BFF36F8FBFF34F8FFEE7314A90
:105170001168314B186810601960304A13680133A8
:105180001360FFF7A3FD2E4B1B68AB4238D90027F5
:105190002C4B1B68DB6A03EB83039A002A4B9B585A
:1051A000012B3CD901273AE00127224B1B681B68E1
:1051B00043B3204B1B68DB68DC6863689D4226D3E1
:1051C000261D3046FEF708FFA36A1BB104F1180044
:1051D000FEF702FFE36A01229A401C490868024375
:1051E0000A6003EB83039A00314617481044FEF728
:1051F000CFFEE26A134B1B68DB6A9A42D4D2D4E733
:105200000027D2E70E4B4FF0FF321A60C0E70C4A7E
:105210001360BDE70E4A13680133136000270D4B7E
:105220001B6803B101273846F8BD00BFE8350020F0
:1052300068360020483500204C35002024360020F8
:10524000203600204435002050350020F035002065
:10525000E43500206C36002038B5354B1B6843B967
:105260004FF0500383F31188BFF36F8FBFF34F8F5D
:10527000FEE7FEF71FFF2E4B1A68013A1A601B6803
:10528000002B4FD12B4B1B680BB900244BE00024A3
:10529000294B1B681BB3284BDB68DC6804F1180042
:1052A000FEF79AFE251D2846FEF796FEE06A0123CA
:1052B0008340224A11680B43136000EB80002946AB
:1052C0001F4B03EB8000FEF763FEE26A1D4B1B6879
:1052D000DB6A9A42DCD31C4B01221A60D8E70CB17E
:1052E000FFF7F4FC194B1C6884B9174B1C68D4B148
:1052F0004FF0E0234FF08052C3F8042DBFF34F8FDF
:10530000BFF36F8F01240EE0013C07D0FFF718FFB9
:105310000028F9D00C4B01221A60F5E70B4B002254
:105320001A60E2E70024FEF7E7FE204638BD00BF22
:10533000E8350020DC35002028360020F03500203C
:1053400050350020443500206C360020E435002024
:1053500010B5A8B10446104B1B6843B14FF0500381
:1053600083F31188BFF36F8FBFF34F8FFEE7FFF713
:10537000DFFE00212046FFF7E7FDFFF76DFF48B98C
:105380004FF0E0234FF08052C3F8042DBFF34F8F4E
:10539000BFF36F8F10BD00BFE8350020204B1B68A6
:1053A0001BB1204B01221A6070471E4B00221A606D
:1053B0001D4B1B68B3FA83F3DBB2C3F11F0303EB8E
:1053C00083018A0019498A5842B94FF0500383F388
:1053D0001188BFF36F8FBFF34F8FFEE7134903EBC5
:1053E000830082000A4450684068506003EB830CDD
:1053F0004FEA8C0208321144884209D003EB830340
:105400009A000A4B13445B68DA68094B1A607047CC
:10541000406862469100054A0A445060EEE700BFCA
:10542000E83500206C360020F03500205035002093
:105430004435002058B110B50C46094A116818319E
:10544000FEF7B1FD01212046FFF77EFD10BD4FF0B4
:10545000500383F31188BFF36F8FBFF34F8FFEE7C5
:105460004435002070B110B514460246114B1B683C
:105470008BB94FF0500383F31188BFF36F8FBFF3E5
:105480004F8FFEE74FF0500383F31188BFF36F8F08
:10549000BFF34F8FFEE7084B186841F00041816170
:1054A000196818311046FEF773FD01212046FFF7F9
:1054B0004BFD10BDE83500204435002038B5C368E9
:1054C000DC6824B304F118052846FEF785FD184B67
:1054D0001B682BBB251D2846FEF77EFDE06A0123D5
:1054E0008340144A11680B43136000EB8000294687
:1054F000114B03EB8000FEF74BFDE26A0F4B1B687C
:10550000DB6A9A4211D901200D4B186038BD4FF06B
:10551000500383F31188BFF36F8FBFF34F8FFEE704
:1055200029460848FEF734FDE7E70020EEE700BF14
:10553000E8350020F03500205035002044350020AB
:105540006C3600202836002038B51C4B1B6843B948
:105550004FF0500383F31188BFF36F8FBFF34F8F6A
:10556000FEE741F000410160C468F4B1FEF734FD8C
:10557000251D2846FEF730FDE06A01238340104ACE
:1055800011680B43136000EB800029460D4B03EBC1
:105590008000FEF7FDFCE26A0B4B1B68DB6A9A4257
:1055A00002D90A4B01221A6038BD4FF0500383F331
:1055B0001188BFF36F8FBFF34F8FFEE7E8350020F0
:1055C000F035002050350020443500206C36002096
:1055D000034B1B680360034B1B684360704700BFAD
:1055E0002436002068360020D8B170B50C46054638
:1055F00001B3FEF75FFD1B4B19686B68C81A226880
:10560000B2F1FF3F27D0184E3668D5F800C0B44538
:1056100001D08B4224D9824215D800232360012473
:105620001AE04FF0500383F31188BFF36F8FBFF37D
:105630004F8FFEE74FF0500383F31188BFF36F8F56
:10564000BFF34F8FFEE75B1A134423602846FFF732
:10565000BFFF002400E00024FEF74EFD204670BD91
:105660000124F9E76836002024360020014B01228E
:105670001A6070476C360020054B1B6833B1054B30
:105680001B680BB100207047022070470120704753
:105690003C360020E8350020002851D038B50446BB
:1056A000C36A294A1268D26A934241D28269002AA7
:1056B00005DB254A1268D26AC2F10702826161697C
:1056C00003EB8303214A02EB8303994205D01E4B6F
:1056D0001B68DB6AE362012038BD251D2846FEF702
:1056E0007BFCA0B1184B1B68D86AE062012404FA65
:1056F00000F3174A11680B43136000EB8000294642
:10570000124B03EB8000FEF743FC2046E4E7E26A1D
:1057100002EB82039B000D49CB58002BE2D1012301
:1057200003FA02F20A490B6823EA02030B60D9E785
:10573000426C054B1B68DB6A9A4203D30020CBE71F
:10574000002070470120C7E7443500205035002075
:10575000F035002000284CD038B50446274B1B6894
:10576000834208D04FF0500383F31188BFF36F8F4B
:10577000BFF34F8FFEE7836C43B94FF0500383F3C1
:105780001188BFF36F8FBFF34F8FFEE7013B836438
:10579000C16A426C91422ED00BB1002038BD051D6C
:1057A0002846FEF719FC70B9E26A02EB82039B00FF
:1057B0001349CB583BB9012303FA02F211490B6894
:1057C00023EA02030B60606CE062C0F10703A3618F
:1057D000012404FA00F30B4A11680B43136000EB39
:1057E00080002946064B03EB8000FEF7D1FB2046E4
:1057F000D4E7002070470020D0E700BF44350020E8
:1058000050350020F0350020002856D038B5044629
:10581000836C43B94FF0500383F31188BFF36F8F4C
:10582000BFF34F8FFEE7426C8A4200D20A46E16A1C
:10583000914201D0012B00D038BD204B1B68A34200
:1058400032D0E262A369002B02DBC2F10702A2613F
:10585000626901EB81011A4B03EB81018A42EBD1B2
:10586000251D2846FEF7B8FB70B9E26A02EB8203F9
:105870009B001349CB583BB9012303FA02F21149AB
:105880000B6823EA02030B60E06A012383400D4AA0
:1058900011680B43136000EB80002946084B03EBB3
:1058A0008000FEF775FBC7E74FF0500383F31188C4
:1058B000BFF36F8FBFF34F8FFEE770474435002073
:1058C00050350020F0350020044A136898691368A9
:1058D000DB6A1268C3F10703936170474435002007
:1058E000054B1B6823B1044B1A68936C0133936416
:1058F000014B1868704700BF4435002070B50D4E4D
:105900000D4D761BB61006D0002455F8043B01342B
:105910009847A642F9D1094E094D00F003F9761BCC
:10592000B61006D0002455F8043B01349847A6422F
:10593000F9D170BDB45D0008B45D0008BC5D00081D
:10594000B45D0008830730B548D0541E002A3FD00C
:105950000346CAB201E0013C3AD303F8012B9D078C
:10596000F9D1032C2DD9CDB245EA05250F2C45EAF6
:10597000054536D9A4F1100222F00F0C03F1200ED8
:10598000E6444FEA121C03F1100242E9045542E9D1
:10599000025510327245F8D10CF1010214F00C0FCF
:1059A00003EB021204F00F0C13D0ACF1040323F04C
:1059B00003030433134442F8045B9342FBD10CF01D
:1059C00003042CB1CAB21C4403F8012B9C42FBD146
:1059D00030BD64461346002CF4D1F9E70346144663
:1059E000BFE71A46A446E0E720F0030110F00300E9
:1059F000C0F1000051F8043B00F1040C4FEACC0C5C
:105A00006FF000021CBF22FA0CF213434FF0010C9E
:105A10004CEA0C2C4CEA0C4CA3EB0C0222EA0302DD
:105A200012EACC1204BF51F8043B0430F4D0C2F1A6
:105A3000000102EA0102B2FA82F2C2F11F0200EB97
:105A4000D2007047024B13B1024800F005B870470E
:105A500000000000655A0008002301461A46184657
:105A600000F01AB838B5084B084D5B1B9C1007D0E6
:105A7000043B1D44013C55F804399847002CF9D1EA
:105A8000BDE8384000F054B8C05D0008BC5D0008B7
:105A9000704700BF704700BF2DE9F047DFF87CA0DA
:105AA0000646DAF8000098460F469146FFF7F0FFE9
:105AB0001B4B1B68D3F8484124B365681F2D26DCB7
:105AC0005EB96B1C0235DAF80000636044F825709B
:105AD000FFF7E0FF0020BDE8F087012304EB85011C
