:020000040800F2
:1000000000500020E1230008C90E0008CB0E0008B4
:10001000CD0E0008CF0E0008D10E00080000000031
:10002000000000000000000000000000313C00085B
:10003000D30E000800000000D13C0008153D000868
:10004000292400082924000829240008292400085C
:10005000292400082924000829240008292400084C
:10006000292400082924000829240008292400083C
:10007000292400082924000829240008292400082C
:10008000292400082924000829240008292400081C
:10009000292400082924000829240008292400080C
:1000A00029240008292400082924000829240008FC
:1000B000D50E000829240008292400082924000856
:1000C00029240008292400082924000829240008DC
:1000D00029240008E50E0008F50E0008050F0008A9
:1000E0002924000829240008292400080000000011
:1000F0000000000000000000000000000000000000
:0C01000000000000000000005FF808F1A3
:1001100010B5054C237833B9044B13B10448AFF341
:1001200000800123237010BD4C040020000000005B
:10013000C456000808B5034B1BB103490348AFF38D
:10014000008008BD0000000050040020C4560008D4
:10015000844641EA000313F0030349D1403A23D314
:100160000B6803604B6843608B688360CB68C36037
:100170000B6903614B6943618B698361CB69C3611F
:100180000B6A03624B6A43628B6A8362CB6AC36207
:100190000B6B03634B6B43638B6B8363CB6BC363EF
:1001A00040304031403ADBD230320BD30B68036031
:1001B0004B6843608B688360CB68C360103010313C
:1001C000103AF3D20C3205D351F8043B40F8043B0B
:1001D000043AF9D2043208D0D2071CBF11F8013B0F
:1001E00000F8013B01D30B8803806046704700BFD5
:1001F000082A13D38B07B1D010F00303AED0C3F19C
:100200000403D21ADB071CBF11F8013B00F8013BC5
:10021000A4D331F8023B20F8023B9FE7043AD9D33C
:10022000013A11F8013B00F8013BF9D20B78037059
:100230004B7843708B7883706046704708B5012017
:1002400003F05AFBFBE708B5012003F055FBFBE781
:1002500000B5A7B098E09DF85430012B0FD0002BCB
:1002600040F092809DF853305A0903F01F0301219A
:100270009940624B53F8220003F0E5FB84E09DF8BF
:1002800053305A0903F01F03012199405B4B53F887
:10029000220003F0FBFB77E09DF85330ADF804300B
:1002A0009DF85430003B18BF01238DF80630002321
:1002B0001A4601A95248006804F015F8012863D0D5
:1002C000EE238DF851304FF0FF33BDF894200DF13F
:1002D00051014C4803F074F856E04B4B01939DF8E4
:1002E00053308DF80830259A043A139215A90DF170
:1002F0000900FFF72DFF00231A4601A943480068B3
:1003000003F0F1FF01283FD0EE238DF851304FF07C
:10031000FF33BDF894200DF151013A4803F050F835
:1003200032E03B4B01939DF853308DF80830259A0D
:10033000043A139215A90DF10900FFF709FF0023F4
:100340001A4601A93148006803F0CDFF01281BD0EF
:10035000EE238DF851304FF0FF33BDF894200DF1AE
:100360005101284803F02CF80EE09DF853308DF829
:1003700004309DF854308DF8053000231A4601A949
:100380002448006803F0AFFF4FF0FF3214A9224B5E
:10039000186804F0E9F80128F6D19DF85230013BC5
:1003A0000F2BF1D801A252F823F000BF570200082A
:1003B00099020008DB020008230300086B03000811
:1003C00089030008890300088903000889030008DD
:1003D00089030008890300088903000889030008CD
:1003E0008903000889030008ED03000800231A466A
:1003F00019460A48006803F076FFC5E77804002034
:10040000900400204C08002094080020880400205C
:10041000DC0800207004002098040020A8040020BC
:10042000034B0360034B0B6080231360704700BFD6
:10043000AC060020AC04002010B5B2B0002405E0EA
:1004400003F06FFA5B4B43F824000134022CF7DD14
:1004500003F067FA584B186000F064FF0322002194
:10046000012003F019FF554B1860002248210F208E
:1004700003F012FF524B1860002248210F2003F0B6
:100480000BFF504B1860002204214FF4807003F0E2
:1004900003FF4D4B186000224C210F2003F0FCFE9F
:1004A0004A4B1860002202210F2003F0F5FE484B52
:1004B0001860484C0DF1AC0CA646BEE80F00ACE845
:1004C0000F009EE807008CE8070000212BA803F02E
:1004D000DEF9414B18600DF1900C04F11C0EBEE8E2
:1004E0000F00ACE80F009EE807008CE80700002131
:1004F00024A803F0CCF9394B18600DF1740C04F109
:10050000380EBEE80F00ACE80F009EE807008CE84C
:10051000070000211DA803F0BAF9314B18600DF156
:10052000580C04F1540EBEE80F00ACE80F009EE832
:1005300007008CE80700002116A803F0A8F9294B52
:1005400018600DF13C0C04F1700EBEE80F00ACE831
:100550000F009EE807008CE8070000210FA803F0B9
:1005600096F9214B18600DF1200C04F18C0EBEE8B9
:100570000F00ACE80F009EE807008CE807000021A0
:1005800008A803F084F9194B18600DF1040E04F16A
:10059000A80CBCE80F00AEE80F009CE807008EE84E
:1005A0000700002101A803F072F9114B186032B066
:1005B00010BD00BF7804002084040020A80400209F
:1005C000980400208C04002090040020880400205F
:1005D00070040020DC5600089C04002094040020D5
:1005E00068040020A0040020A40400206C04002063
:1005F000740400202DE9F04188B00024049405948F
:10060000069407942D4B9A6942F020029A619A69E8
:1006100002F020020192019A9A6942F004029A6162
:100620009A6902F004020292029A9A6942F0080260
:100630009A619B6903F008030393039BDFF88080B2
:10064000224648F2B001404602F0F5F81D4D224620
:1006500043F2F831284602F0EEF802270497059499
:100660000126069604A9404601F0CCFF48F2B003EB
:10067000049305960694079704A9404601F0C2FF2B
:10068000042304930594069604A9284601F0BAFFB2
:1006900043F2F833049305960694079704A9284675
:1006A00001F0B0FF4FF4804304930594069404A92D
:1006B000284601F0A7FF08B0BDE8F0810010024015
:1006C00000080140000C014038B5044602784FF4A0
:1006D0000041154802F0AFF8144D62780821284611
:1006E00002F0A9F8A2781021284602F0A4F8E278D6
:1006F0002021284602F09FF822794021284602F066
:100700009AF862798021284602F095F8A2794FF490
:100710008071284602F08FF8E2794FF40071284684
:1007200002F089F838BD00BF00080140000C01400C
:1007300070B506464C1E13E001228021154802F0D8
:100740007AF8144D00222021284602F074F8012086
:1007500003F0D2F801222021284602F06CF8013C77
:10076000072C08DD335D002BE6D1002280210948EB
:1007700002F061F8E5E7074C00221021204602F064
:100780005AF8012003F0B8F801221021204602F0A7
:1007900052F870BD0008014010B50446FFF794FF01
:1007A00030212046FFF7C4FF10BD000000B583B024
:1007B000ADF804008DF8061000231A4601A903487D
:1007C000006803F090FD03B05DF804FB9004002086
:1007D000F8B504460D46294E00224FF480513046AC
:1007E00002F029F8012003F087F801224FF480512C
:1007F000304602F020F8012003F07EF84FF48041EB
:10080000304602F011F8B0FA80F04009207001265D
:1008100019E01A4F00224FF40051384602F00BF84D
:10082000012003F069F801224FF40051384602F02C
:1008300002F84FF48041384601F0F6FFB0FA80F03C
:100840004009A0550136AE42E3DB4FF0000C0FE04B
:100850000CEB030014F800E0C3F107026244A15C52
:10086000215404F802E00133032BF1DD0CF1080CF4
:10087000AC4501DA0023F7E7F8BD00BF000C0140EA
:10088000014B185C704700BF00070020044B1A5C46
:10089000044B1B5C9A4201D0012070470020704736
:1008A000000700206407002010B582B03021FFF758
:1008B0008FFF002418E02A4A82FB0432E317C3EBBF
:1008C000A20303EB4302A4EBC20201219140254A9B
:1008D00052F8230003F0DAF8234B1B6813BB234BB9
:1008E0001A5D234B1A5501342F2C33DC2046FFF7B9
:1008F000CDFF0028F7D02046FFF7C2FF0128DAD04D
:10090000174A82FB0432E317C3EBA20303EB430253
:10091000A4EBC20201219140124A52F8230003F0D5
:1009200092F8D9E7CC238DF8003001238DF80130FF
:100930008DF802402046FFF7A3FF8DF80300FF2348
:100940008DF804304FF0FF3305226946094802F064
:1009500037FDC4E7044B01221A6002B010BD00BF8E
:10096000ABAAAA2A78040020300700200007002044
:10097000640700204C08002010B584B066E0BDF884
:100980000C203B4B995C9DF80E30994266D038495B
:100990008B54CC218DF8041002218DF805108DF8B0
:1009A0000620012B14BF002301238DF80730FF23FD
:1009B0008DF808304FF0FF33052201A92D4802F0D1
:1009C000FFFC4BE001342F2C18DC2B4B1B5D012B63
:1009D000F8D1CC238DF8043001238DF805308DF843
:1009E00006408DF80730FF238DF808304FF0FF33B5
:1009F000052201A91F4802F0E3FCE3E7002400E020
:100A000001342F2C19DC1A4B1B5D012BF8D1CC23A0
:100A10008DF8043002238DF805308DF8064001234F
:100A20008DF80730FF238DF808304FF0FF33052293
:100A300001A9104802F0C4FCE2E7012002F05CFFCB
:100A40000B48FFF7A9FE0C48FFF72EFF002203A971
:100A50000A4B186803F088FD012890D00021084B4C
:100A6000186803F030FE0128E7D10024ABE700BF8F
:100A7000340700204C0800200007002090040020CC
:100A8000A804002008B50368B3F1804F00D008BD6A
:100A900001F0DEFCFBE772B6FEE700B591B028225C
:100AA000002106A804F01EFD002301930293039386
:100AB00004930593012206924FF4803307930A9220
:100AC00002220D920E934FF4E0130F9306A801F04B
:100AD000CFFE80B90F2301930221029100230393DB
:100AE0004FF480620492059301A802F0F3F820B954
:100AF00011B05DF804FBFFF7CEFFFFF7CCFF00005D
:100B000008B501F093FCFFF7C8FFFFF773FD00F095
:100B100003FA00F01BFA00F033FA012209490A48EF
:100B200002F097FE01220949094802F092FE0122D3
:100B30000849094802F08DFEFFF77EFC02F0A2FE94
:100B4000FEE700BF940700204C080020B8070020F3
:100B500094080020DC070020DC0800202DE9F0418B
:100B600000AF8046084611461E46DC1C0B3323F0BE
:100B70000703ADEB030D6D468DF80000C0438DF803
:100B800001008DF8026032460DF10300FFF7E0FA34
:100B900000210DF8041006E015F801C02B5D9C44FF
:100BA00005F804C00131A142F6D3321D4FF0FF33E6
:100BB00092B22946404602F003FCC82002F09CFE97
:100BC000BD46BDE8F0810000402A00D970472DE9FC
:100BD000F04F95B005460F4614461E464C220021A4
:100BE00001A804F07FFC01954FF00B0B8DF808B0C5
:100BF0004FF00209CDF84C904FF004088DF80880B2
:100C00000A238DF809304FF0010ACDF84CA0174D9A
:100C100000231A460DEB0801286803F064FB8DF8E9
:100C200008B08DF809A08DF80A60CDF84C9000232B
:100C30001A460DEB0801286803F055FB8DF8088073
:100C400007238DF80930224639460DF10A00FFF7D7
:100C50007FFA5444139400231A460DEB08012868C8
:100C600003F041FB15B0BDE8F08F00BF8804002001
:100C700010B594B004464C22002101A804F032FCC7
:100C8000019404238DF808300123139303238DF876
:100C9000093000231A4601A90248006803F023FB2B
:100CA00014B010BD8804002070B5B6B002214348CE
:100CB00001F0BAFD05460421414801F0B5FD0446A6
:100CC00057E0359B0DF191029DF890102398FFF7A6
:100CD00045FF56E0CC238DF800309DF844308DF868
:100CE0000130229E32460DF145010DF10200FFF761
:100CF0002FFA06F1DA036B44FF2203F8D82CF21C1A
:100D00004FF0FF3392B269462E4802F059FB40E0A3
:100D100002212A4801F088FD00283CD101212A4BFC
:100D2000186802F090FE36E00221244801F07CFDB4
:100D3000012832D10121244B186802F0A7FE2CE0D3
:100D400004211F4801F070FD48BB4FF480711E4B19
:100D5000186802F078FE22E00221184801F064FDD4
:100D600005460421164801F05FFD0446012002F00B
:100D7000C3FD002223A9154B186803F0F5FB0128D9
:100D80009FD0002211A9124B186803F0EDFB012837
:100D9000A0D0012DBCD0002DC6D0012CD0D0002C6D
:100DA000DAD10421064801F03FFD0128D4D14FF4E7
:100DB0008071054B186802F069FECDE7000801401C
:100DC000000C01404C08002084040020880400200E
:100DD0008C04002000B583B0114B9A6942F00102E7
:100DE0009A619A6902F001020092009ADA6942F06F
:100DF0008052DA61DB6903F080530193019B00228A
:100E00000F216FF0010001F047FB064A536823F001
:100E1000E06343F00073536003B05DF804FB00BF70
:100E2000001002400000014030B589B00446224B5A
:100E3000DA6942F00102DA61DB6903F00103019330
:100E4000019B02A903A802F021F8069BD3B901F087
:100E5000FDFF03461948A0FB03239B0C013B1848E8
:100E60004FF08042026040F2E732C26043600023EC
:100E700003618360836102F059F9054630B1284669
:100E800009B030BD01F0E2FF4300E3E70C4802F097
:100E90001DF805460028F2D11C2001F035FB0F2C6F
:100EA00001D90125EBE7002221461C2001F0F4FACC
:100EB000044B1C60E3E700BF0010024083DE1B43CD
:100EC0000008002014000020FEE7FEE7FEE7FEE732
:100ED000FEE7704708B5024802F030F808BD00BFD1
:100EE0000008002008B5024802F054FB08BD00BF0E
:100EF0004C08002008B5024802F04CFB08BD00BFBA
:100F00009408002008B5024802F044FB08BD00BF69
:100F1000DC0800207047000008B50A480A4B03604F
:100F20004FF4E133436000238360C36003610C220C
:100F300042618361C36102F013FA00B908BDFFF793
:100F4000AAFDFBE74C0800200038014008B50A481C
:100F50000A4B03604FF41653436000238360C36061
:100F600003610C2242618361C36102F0F9F900B9A7
:100F700008BDFFF790FDFBE7940800200044004007
:100F800008B50A480A4B03604FF416534360002328
:100F90008360C36003610C2242618361C36102F01C
:100FA000DFF900B908BDFFF776FDFBE7DC0800209C
:100FB0000048004030B58BB0002306930793089398
:100FC000099303684F4A934207D04F4A934236D061
:100FD0004E4A934263D00BB030BD4D4B9A6942F4F8
:100FE00080429A619A6902F480420092009A9A695A
:100FF00042F004029A619B6903F004030193019B90
:101000004FF4007306930223079303230993414D82
:1010100006A9284601F0F6FA4FF4806306930024EF
:101020000794089406A9284601F0ECFA2246052107
:10103000252001F031FA252001F066FACBE7344B88
:10104000DA6942F40032DA61DA6902F400320292BB
:10105000029A9A6942F004029A619B6903F00403C0
:101060000393039B0423069302230793032309930B
:10107000284D06A9284601F0C5FA08230693002446
:101080000794089406A9284601F0BCFA22460521D7
:10109000262001F001FA262001F036FA9BE71C4BCE
:1010A000DA6942F48022DA61DA6902F48022049279
:1010B000049A9A6942F008029A619B6903F0080356
:1010C0000593059B4FF48063069302230793032344
:1010D0000993114D06A9284601F094FA4FF40063D4
:1010E000069300240794089406A9284601F08AFA7A
:1010F00022460521272001F0CFF9272001F004FA2C
:1011000069E700BF0038014000440040004800404B
:101110000010024000080140000C014010B594B0DE
:1011200003686D4A934208D06C4A934242D06C4A9D
:10113000934200F0888014B010BD6A4B1B786A4A55
:10114000D35CCC2B18D0694B1B6863B1036858681B
:10115000644B19784A1CD2B21A70634B5854511E12
:101160005B5CFF2B0FD05F4B1B7801225E4919445B
:101170005F4802F06EFBDEE75C4B01221A60594BC0
:1011800000221A70DFE70024019402238DF8083052
:10119000139255490DF10900FEF7DAFF234601AA23
:1011A00002A95448006803F079F9504B1C604D4B7C
:1011B0001C70D8E7504B1B78012B12D0022B24D087
:1011C0004E4A1278D11C8B4227D001334A4A137001
:1011D000494B1B7801224A4919444A4802F039FB1D
:1011E000A9E7474A51781278D243D2B2914205D04A
:1011F000414B00221A70424B1970E9E7424A012123
:1012000011600B443C4A1370E2E73D4A91783B4A37
:1012100011700133384A1370DAE70024364B1C7022
:1012200003238DF808300432139235490DF109007B
:10123000FEF78EFF0194234601AA02A933480068F5
:1012400003F02CF9C4E7324B1B78012B12D0022B90
:1012500024D0304A1278D11C8B4227D001332C4A3B
:1012600013702B4B1B7801222B4919442B4802F099
:10127000F0FA60E7284A51781278D243D2B291420C
:1012800005D0234B00221A70234B1970E9E7244A3A
:10129000012111600B441E4A1370E2E71E4A917847
:1012A0001C4A117001331A4A1370DAE70024184BF4
:1012B0001C7004238DF808301A44139216490DF15E
:1012C0000900FEF745FF0194234601AA02A90F4831
:1012D000006803F0E3F8C4E7003801400044004030
:1012E00000480040B4070020940700202C0900208B
:1012F0004C08002098040020D8070020490800204E
:10130000B807002094080020280900208C04002041
:10131000FC07002048080020DC070020DC08002033
:101320002409002010B50024002C00DD10BD012090
:1013300003F0A9F8024B43F824000134F4E700BF9E
:101340008409002000B583B04FF0FF3201A90F4B94
:10135000186803F009F90128F6D19DF804300C4C07
:101360004FF0FF3154F8230003F0ADF99DF804006D
:101370009DF80520074B43F8202000231A46194604
:1013800054F8200002F0AFFFDEE700BF7004002039
:10139000840900200800002003688B4201DC002043
:1013A00070470023036001207047000070B586B0CD
:1013B000002305937BE00023009301231A4619467E
:1013C000C048006802F0BBFA10F0010F30D0BE4AEE
:1013D0001368013313602BE0BC4DBD4C0123072281
:1013E00029462046FFF7F0FB4FF4967002F084FA8E
:1013F0000123072229462046FFF7E6FBB54DB64CF0
:101400000423072229462046FFF7DEFB4FF496709F
:1014100002F072FA0423072229462046FFF7D4FB84
:1014200001210320FFF7C2F9A74A136801331360B3
:10143000A54B1B68193B192B40F2708400231A46F8
:101440001946A648006802F04EFF059B013305933C
:10145000012002F051FA9C4B1B68A14A126893428A
:1014600040F09087984B1B689E4A1268934217D0B1
:10147000CC228DF80C2005228DF80D2000218DF84E
:101480000E108DF80F30FF238DF810304FF0FF3322
:1014900003A9954801F094FF8B4B1A68914B1A6091
:1014A00000231A4619468D48006802F01CFF4FF0D1
:1014B000FF318A4B186803F006F9834B1B68352B04
:1014C000B6D801A252F823F0B7130008D9130008C8
:1014D000A1150008C7150008DD150008031600084F
:1014E00015160008391600084F1600087316000874
:1014F00089160008AD160008FD160008231700081D
:101500004F170008691700087B170008A11700088B
:10151000B3170008D7170008E91700080F180008CC
:10152000251800083F18000859180008731800080B
:1015300085180008A9180008CF180008F518000839
:1015400017190008311900085F19000887190008E9
:10155000A1190008DD190008031A0008191A00086B
:101560003D1A0008531A0008791A0008971A000853
:10157000BB1A0008D51A0008EF1A0008051B00085E
:10158000291B00083F1B0008631B0008811B000883
:10159000A51B000831140008C31B0008691C0008C3
:1015A0000023009301231A464FF4001145480068B8
:1015B00002F0C5F910F4001F3FF43AAF424A136835
:1015C0000133136034E70423072248494248FFF7F8
:1015D000FBFA3D4A13680133136029E700230093A7
:1015E00001231A464FF480313648406802F0A7F9CB
:1015F00010F4803F3FF41CAF334A1368013313608B
:1016000016E700210120FFF7D1F82F4A13680133B4
:1016100013600DE70023009301231A460221294895
:10162000006802F08CF910F0020F3FF401AF264A77
:10163000136801331360FBE6042307222C49264874
:10164000FFF7C2FA204A136801331360F0E6002363
:10165000009301231A4604211A48006802F06FF92A
:1016600010F0040F3FF4E4AE174A1368013313601F
:10167000DEE6042307221F491748FFF7A5FA124A9E
:10168000136801331360D3E60023009301231A4645
:1016900002210C48006802F052F910F0020F3FF4EA
:1016A000C7AE094A136801331360C1E60423072259
:1016B00011490948FFF788FA034A13680133136098
:1016C000B6E600BF78040020080000201458000887
:1016D000DC0800201C580008940800208409002021
:1016E0000C000020040000204C08002024580008B2
:1016F0002C580008345800083C5800080023009378
:1017000001231A464FF40011AB48006802F017F9A4
:1017100010F4001F3FF48CAEA84A13680133136025
:1017200086E6A74B03AC93E8030084E80300204659
:1017300003F02AFF024604232146A248FFF744FA99
:101740009E4A1368013313600023059370E642F646
:10175000F82105A8FFF720FE00283FF469AE974A5C
:1017600013680133136063E600210920FFF71EF8B8
:10177000924A1368013313605AE600230093012351
:101780001A464FF400318C48406802F0D8F810F443
:10179000003F3FF44DAE894A13680133136047E6BA
:1017A00000210C20FFF702F8844A1368013313600C
:1017B0003EE60023009301231A4619467E484068FE
:1017C00002F0BDF810F0010F3FF432AE7B4A13680F
:1017D000013313602CE601211020FEF7E7FF774A62
:1017E00013680133136023E60023009301231A4694
:1017F0004FF480417048006802F0A1F810F4804F67
:101800003FF416AE6D4A13680133136010E60021F1
:101810000A20FEF7CBFF694A1368013313600023E7
:10182000059305E641F2883105A8FFF7B5FD0028CC
:101830003FF4FEAD614A136801331360F8E50423F9
:10184000072261495F48FFF7BFF95C4A136801331B
:10185000136000230593EBE544F6206105A8FFF72C
:101860009BFD00283FF4E4AD544A13680133136034
:10187000DEE500210420FEF799FF504A136801338A
:101880001360D5E50023009301231A4680214A48BE
:10189000406802F054F810F0800F3FF4C9AD474A99
:1018A000136801331360C3E5042307224749454801
:1018B000FFF78AF900210620FEF778FF00210720B4
:1018C000FEF774FF3D4A136801331360B0E500234F
:1018D000009301231A464FF400013748006802F0D4
:1018E0002EF810F4000F3FF4A3AD344A136801330F
:1018F00013609DE50423072235493248FFF764F958
:1019000000210820FEF752FF2C4A136801331360B0
:10191000002305938CE541F6583105A8FFF73CFDFF
:1019200000283FF485AD254A1368013313607FE535
:101930000423072227492348FFF746F901210D20F8
:10194000FEF734FF4FF4FA7001F0D6FF00210D20AE
:10195000FEF72CFF194A13680133136068E5002372
:10196000009301231A4640211348406801F0E7FF25
:1019700010F0400F3FF45CAD104A13680133136060
:101980000023059354E541F2707105A8FFF704FDAB
:1019900000283FF44DAD094A13680133136047E551
:1019A000042307220C490748FFF70EF9034A13687E
:1019B000013313603CE500BF7804002008000020DC
:1019C0005459000894080020445800084C58000856
:1019D000545800085C58000864580008002300931D
:1019E00001231A464FF48051C048006801F0A7FF58
:1019F00010F4805F3FF41CADBD4A136801331360DF
:101A000016E504230722BB49BB48FFF7DDF8B84AB7
:101A10001368013313600BE50023009301231A467A
:101A20000221B248406801F08AFF10F0020F3FF433
:101A3000FFACAF4A136801331360F9E404230722B3
:101A4000AE49AD48FFF7C0F8A94A136801331360E7
:101A5000EEE40023009301231A464FF48051A3487B
:101A6000006801F06CFF10F4805F3FF4E1ACA04A25
:101A7000136801331360DBE400210220FEF796FEB9
:101A8000042307229E499C48FFF79EF8984A136852
:101A900001331360CCE40023009301231A46202174
:101AA0009248406801F04BFF10F0200F3FF4C0ACAB
:101AB0008F4A136801331360BAE404230722914963
:101AC0008D48FFF781F88A4A1368013313600023B9
:101AD0000593ADE443F6982105A8FFF75DFC0028C7
:101AE0003FF4A6AC824A136801331360A0E40423D8
:101AF000072285498048FFF767F87D4A136801335C
:101B0000136095E40023009301231A4604217748CB
:101B1000406801F014FF10F0040F3FF489AC744AE0
:101B200013680133136083E4042307227749724862
:101B3000FFF74AF86E4A13680133136078E4002314
:101B4000009301231A4608216848406801F0F7FE17
:101B500010F0080F3FF46CAC654A13680133136052
:101B600066E400210B20FEF721FE042307226849CA
:101B70006148FFF729F85E4A13680133136057E4A0
:101B80000023009301231A4610215848406801F0B1
:101B9000D6FE10F0100F3FF44BAC554A13680133DA
:101BA000136045E400210F20FEF700FE0423072206
:101BB00058495148FFF708F84D4A1368013313603C
:101BC00036E401210020FEF7F1FD01210846FEF771
:101BD000EDFD01210220FEF7E9FD01210320FEF7C2
:101BE000E5FD01210420FEF7E1FD01210520FEF7BE
:101BF000DDFD01210620FEF7D9FD01210720FEF7BA
:101C0000D5FD01210820FEF7D1FD01210920FEF7B5
:101C1000CDFD01210A20FEF7C9FD01210B20FEF7B1
:101C2000C5FD01210C20FEF7C1FD01210F20FEF7AB
:101C3000BDFD01211020FEF7B9FD2F48FFF718F870
:101C40003548FFF715F801210E20FEF7AFFD4FF4E0
:101C5000FA7001F051FE00210E20FEF7A7FD244B83
:101C600033221A60FFF7E4BB01210020FEF79EFD3E
:101C700001210846FEF79AFD01210220FEF796FD9C
:101C800000210320FEF792FD01210420FEF78EFDC6
:101C900000210520FEF78AFD01210620FEF786FDC2
:101CA00001210720FEF782FD01210820FEF77EFDBD
:101CB00001210920FEF77AFD01210A20FEF776FDB9
:101CC00001210B20FEF772FD01210C20FEF76EFDB5
:101CD00001210F20FEF76AFD00211020FEF766FDAE
:101CE000034B33221A60FFF7A3BB00BF7804002028
:101CF000080000206C580008940800207458000860
:101D00007C580008845800088C5800089458000833
:101D10009C580008A4580008DC08002000219B4BB8
:101D2000186801F090FE044610F0800504D0984B2E
:101D30001B68002B00F01C8125B9954B1B68012BFB
:101D400000F0308114F0080504D0914B5B68002B43
:101D500000F0328125B98E4B5B68012B00F03A818F
:101D600014F0200504D08A4B9B68002B00F03C81C6
:101D700025B9874B9B68012B00F0448114F48075D2
:101D800004D0834BDB68002B00F0478125B9804BE2
:101D9000DB68012B00F04F8114F4007504D07C4BFC
:101DA0001B69002B00F0518125B9794B1B69012B70
:101DB00000F0598114F0100504D0754B5B69002BBD
:101DC00000F05B8125B9724B5B69012B00F06381E8
:101DD00014F0400504D06E4B9B69002B00F0658128
:101DE00025B96B4B9B69012B00F06D8114F4806564
:101DF00004D0674BDB69002B00F06F8125B9644B81
:101E0000DB69012B00F0778114F4006404D0604B8F
:101E10001B6A002B00F0798124B95D4B1B6A012BF2
:101E200000F081815B4B1B68193B192B3FF606AB19
:101E30000021564B186801F006FE044600F4C03538
:101E4000B5F5C03F00F0798125B9534B1B68012BD4
:101E500000F0828104F41025B5F5102F00F0838185
:101E600025B94D4B5B68012B00F08C8104F488157B
:101E7000B5F5881F00F08D8125B9474B9B68012B74
:101E800000F0968104F44035B5F5403F00F09781AD
:101E900025B9414BDB68012B00F0A08104F4C0257B
:101EA000B5F5C02F00F0A18125B93B4B1B69012B73
:101EB00000F0AA8104F42025B5F5202F00F0AB81B5
:101EC00025B9354B5B69012B00F0B48104F484150E
:101ED000B5F5841F00F0B58125B92F4B9B69012B07
:101EE00000F0E28104F49015B5F5901F00F0E38155
:101EF00025B9294BDB69012B00F0EC8104F4203576
:101F0000B5F5203F00F0ED8125B9234B1B6A012B6D
:101F100000F0F68104F49025B5F5902F00F0F781DC
:101F200025B91D4B5B6A012B00F0008204F40825E3
:101F3000B5F5082F00F0018225B9174B9B6A012BDC
:101F400000F00A8204F4A024B4F5A02F00F00B8264
:101F5000002C7FF473AA104BDB6A012B7FF46EAA6E
:101F60000E48FEF785FE0C4B0022DA62FFF766BAD8
:101F70000126074B1E600423072209490748FEF784
:101F800023FE31460520FEF711FCD5E6780400203B
:101F9000600900200800002030090020940800207B
:101FA000AC580008AE48FEF763FE0021AD4B196047
:101FB0000520FEF7FBFBC5E60126AA4B5E60042365
:101FC0000722A949A648FEF7FFFD31460520FEF786
:101FD000EDFBBFE6A248FEF74BFE0021A14B596086
:101FE0000520FEF7E3FBBBE601269E4B9E60042323
:101FF00007229E499A48FEF7E7FD31460520FEF785
:10200000D5FBB5E69648FEF733FE00210520FEF726
:10201000CDFB944B00229A60B0E60126914BDE6026
:102020000423072292498E48FEF7CEFD3146052053
:10203000FEF7BCFBAAE68A48FEF71AFE0021894B90
:10204000D9600520FEF7B2FBA6E60126854B1E618E
:102050000423072287498248FEF7B6FD3146052052
:10206000FEF7A4FBA0E67E48FEF702FE00217D4BB2
:1020700019610520FEF79AFB9CE60126794B5E610B
:10208000042307227C497648FEF79EFD3146052051
:10209000FEF78CFB96E67248FEF7EAFD0021714BD5
:1020A00059610520FEF782FB92E601266D4B9E6189
:1020B0000423072271496A48FEF786FD3146052050
:1020C000FEF774FB8CE66648FEF7D2FD0021654BF7
:1020D00099610520FEF76AFB88E60126614BDE6107
:1020E0000423072266495E48FEF76EFD314605204F
:1020F000FEF75CFB82E65A48FEF7BAFD0021594B19
:10210000D9610520FEF752FB7EE60125554B1D6285
:10211000042307225B495248FEF756FD2946052055
:10212000FEF744FB78E64E48FEF7A2FD00214D4B3A
:1021300019620520FEF73AFB74E6534B1B68002B2F
:102140007FF482AE504B01221A60042307224F49CC
:102150004348FEF739FD77E64148FEF789FD4A4BD3
:1021600000221A6076E6484B5B68002B7FF478AE5D
:10217000454B01225A600423072245493848FEF79F
:1021800023FD6DE63648FEF773FD3F4B00225A6093
:102190006CE63D4B9B68002B7FF46EAE3A4B012200
:1021A0009A60042307223B492D48FEF70DFD63E6A4
:1021B0002B48FEF75DFD344B00229A6062E6324BFD
:1021C000DB68002B7FF464AE2F4B0122DA6004231E
:1021D000072231492248FEF7F7FC59E62048FEF76E
:1021E00047FD294B0022DA6058E6274B1B69002B7C
:1021F0007FF45AAE244B01221A6104230722274997
:102200001748FEF7E1FC4FE61548FEF731FD1E4B7F
:1022100000221A614EE61C4B5B69002B7FF450AE26
:10222000194B01225A61042307221D490C48FEF76D
:10223000CBFC45E60A48FEF71BFD134B00225A6112
:1022400044E6114B9B69002B7FF446AE0E4B0122F6
:102250009A610423072213490148FEF7B5FC3BE6C7
:102260009408002060090020B4580008BC580008F9
:10227000C4580008CC580008D4580008DC5800089E
:10228000E4580008EC58000830090020F458000811
:10229000FC580008045900080C590008145900089B
:1022A0001C590008245900084348FEF7E1FC434B41
:1022B00000229A6116E6414BDB69002B7FF418AED1
:1022C0003E4B0122DA61042307223D493A48FEF7DA
:1022D0007BFC0DE63848FEF7CBFC384B0022DA6178
:1022E0000CE6364B1B6A002B7FF40EAE334B0122FB
:1022F0001A620423072233492F48FEF765FC03E6E0
:102300002D48FEF7B5FC2D4B00221A6202E62B4B3E
:102310005B6A002B7FF404AE284B01225A6204232F
:10232000072229492448FEF74FFCF9E52248FEF729
:102330009FFC224B00225A62F8E5204B9B6A002B3F
:102340007FF4FAAD1D4B01229A62042307221F4934
:102350001948FEF739FCEFE51748FEF789FC174BE3
:1023600000229A62EEE5154BDB6A002B7FF4F0AD9C
:10237000124B0122DA620423072215490E48FEF7A8
:1023800023FCE5E5CC228DF80C2005228DF80D20EC
:1023900000218DF80E108DF80F30FF238DF81030CE
:1023A0004FF0FF3303A90B4801F00AF80A4B1A68F3
:1023B0000A4B1A60FFF756B8940800203009002035
:1023C0002C590008345900083C59000844590008A9
:1023D0004C5900084C080020080000200C00002088
:1023E000FEF798FD0B480C490C4A002302E0D45834
:1023F000C4500433C4188C42F9D3094A094C002351
:1024000001E013600432A242FBD303F047F8FEF769
:1024100077FB7047000000204C040020885900081A
:102420004C040020DC360020FEE7000008B5074A17
:10243000136843F010031360032000F01BF80F2013
:10244000FEF7F2FCFEF7C6FC002008BD00200240AB
:10245000034A1168034B1B780B441360704700BF9D
:102460008809002010000020014B1868704700BF49
:1024700088090020074AD36823F4E0631B041B0C7F
:10248000000200F4E060034343F0BF6343F4003311
:10249000D360704700ED00E000B5194BDB68C3F373
:1024A0000223C3F1070CBCF1040F28BF4FF0040C4A
:1024B00003F1040EBEF1060F18D9033B4FF0FF3EA7
:1024C0000EFA0CFC21EA0C0199400EFA03F322EA01
:1024D0000303194300280BDB0901C9B200F1604076
:1024E00000F5614080F800135DF804FB0023E5E788
:1024F00000F00F000901C9B2024B1954F4E700BF04
:1025000000ED00E014ED00E0002807DB00F01F0202
:10251000400901239340024A42F82030704700BF2F
:1025200000E100E090F82130DBB2022B06D004235A
:102530008363002380F8203001207047026813680D
:1025400023F00E0313600268136823F00103136085
:10255000036CC16B012202FA03F34B6080F8212067
:10256000002380F8203018467047000008B590F826
:102570002130DBB2022B03D004238363012008BD8A
:102580000268136823F00E0313600268136823F0D7
:10259000010313600368194A934214D01432934222
:1025A0001FD0143293421ED0143293421ED01432E4
:1025B00093421ED01432934202D04FF0807203E057
:1025C0004FF4801200E001220D4B5A60012380F885
:1025D0002130002380F82030436B6BB198470020F6
:1025E000CDE71022F0E74FF48072EDE74FF4805210
:1025F000EAE74FF48032E7E70020C0E70800024036
:102600000000024070B582B00024A446A6E0804DD0
:10261000AA4210D007D97F4DAA420CD005F58035CB
:10262000AA4208D013E0A5F58015AA4203D005F50B
:102630007025AA4207D18A68002A58D0012A51D0B1
:102640004361082403E0A5F58015AA42F3D0BEF14A
:10265000FF0F4ED80646BEF1FF0F4CD84FEA8C0252
:1026600033680F25954023EA050304FA02F2134369
:1026700033604B6813F0805F6ED0674B9A6942F00D
:1026800001029A619B6903F001030193019B4FEAE8
:102690009C02951C614B53F825600CF003039D00D0
:1026A0000F23AB4026EA03065D4B984229D003F581
:1026B0008063984200F08E8003F58063984200F0BA
:1026C0008B8003F58063984219D004231AE0CC680C
:1026D000BDE7CC680434BAE7CC680834B7E7CC6807
:1026E0000C34B4E703610824B1E70024AFE7042405
:1026F000ADE7061DAFE7ACF108029200B0E7032397
:1027000000E00023AB4033430232444D45F8223011
:102710004B6813F4801F61D0424A936843EA0E036A
:1027200093604B6813F4001F5ED03E4AD36843EABF
:102730000E03D3604B6813F4003F5BD0394A5368F3
:1027400043EA0E0353604B6813F4803F58D0354A78
:10275000136843EA0E0313600CF1010C0A6832FAA5
:102760000CF353D0012303FA0CF302EA030E33EA0D
:102770000202F1D14A68122A3FF649AF122A3FF607
:1027800066AF01A555F822F037260008CF260008CD
:10279000D9260008EB2600084F2600084F2600081F
:1027A0004F2600084F2600084F2600084F26000835
:1027B0004F2600084F2600084F2600084F26000825
:1027C0004F2600084F2600084F260008D326000891
:1027D000DF260008012395E7022393E7114A936857
:1027E00023EA0E0393609CE70E4AD36823EA0E03A4
:1027F000D3609FE70B4A536823EA0E035360A2E7B6
:10280000084A136823EA0E031360A5E702B070BDFF
:1028100000002210000031100010024000000140B2
:1028200000080140000401408368194201D00120E2
:102830007047002070470AB10161704709040161C7
:102840007047000082B0084B1B68084AA2FB0323B4
:102850005B0A00FB03F3019300BF019B5A1E019228
:10286000002BF9D102B0704700000020D34D621058
:10287000002800F0F18170B582B00446036813F0BF
:10288000010F2CD0994B5B6803F00C03042B1DD077
:10289000964B5B6803F00C03082B12D06368B3F50A
:1028A000803F41D0002B55D103F1804303F5043321
:1028B0001A6822F480321A601A6822F480221A60A0
:1028C00037E08A4B5B6813F4803FE7D0874B1B6887
:1028D00013F4003F03D06368002B00F0BF8123682E
:1028E00013F0020F75D0814B5B6813F00C0F5FD0B3
:1028F0007E4B5B6803F00C03082B54D02369002B3C
:1029000000F08A807A4B01221A60FFF7ADFD054680
:10291000764B1B6813F0020F75D1FFF7A5FD401B26
:102920000228F5D903209EE1704A136843F48033EE
:102930001360636843B3FFF797FD05466B4B1B6855
:1029400013F4003FCBD1FFF78FFD401B6428F5D96E
:10295000032088E1B3F5A02F09D0644B1A6822F454
:1029600080321A601A6822F480221A60E1E703F1CB
:102970008043A3F53C331A6842F480221A601A6837
:1029800042F480321A60D4E7FFF76EFD0546574BDC
:102990001B6813F4003FA2D0FFF766FD401B6428BC
:1029A000F5D903205FE1514B5B6813F4803FA5D15B
:1029B0004E4B1B6813F0020F03D02369012B40F02C
:1029C0004F814A4A136823F0F803616943EAC1035F
:1029D0001360236813F0080F33D0A369002B5CD079
:1029E000434B0122C3F88024FFF73EFD05463F4BD1
:1029F0005B6A13F0020F21D1FFF736FD401B02285E
:102A0000F5D903202FE1394A136823F0F8036169EF
:102A100043EAC1031360DCE7354B00221A60FFF77D
:102A200023FD0546314B1B6813F0020FD1D0FFF791
:102A30001BFD401B0228F5D9032014E10120FFF7FC
:102A400001FF236813F0040F00F09680274BDB6929
:102A500013F0805F34D1254BDA6942F08052DA619D
:102A6000DB6903F080530193019B0125214B1B6817
:102A700013F4807F26D0E368012B3DD0002B53D187
:102A800003F1804303F504331A6A22F001021A624B
:102A90001A6A22F004021A6233E0154B0022C3F8CE
:102AA0008024FFF7E1FC0546104B5B6A13F0020F30
:102AB000C7D0FFF7D9FC401B0228F5D90320D2E08C
:102AC0000025D3E70B4A136843F480731360FFF7C4
:102AD000CBFC0646074B1B6813F4807FCBD1FFF776
:102AE000C3FC801B6428F5D90320BCE00010024021
:102AF00000004242007000405F4A136A43F0010345
:102B00001362E36833B3FFF7AFFC06465A4B1B6A08
:102B100013F0020F2FD1FFF7A7FC801B41F288337F
:102B20009842F3D903209EE0052B09D0524B1A6A34
:102B300022F001021A621A6A22F004021A62E0E725
:102B40004D4B1A6A42F004021A621A6A42F00102FC
:102B50001A62D6E7FFF788FC0646474B1B6A13F05C
:102B6000020F08D0FFF780FC801B41F288339842A7
:102B7000F3D9032077E0E5B9E369002B72D03E4A30
:102B8000526802F00C02082A56D0022B17D03B4B99
:102B900000221A66FFF768FC0446374B1B6813F0E7
:102BA000007F47D0FFF760FC001B0228F5D9032007
:102BB00059E0314AD36923F08053D361DCE72F4BCE
:102BC00000221A66FFF750FC05462B4B1B6813F0DA
:102BD000007F06D0FFF748FC401B0228F5D90320F0
:102BE00041E0236AB3F5803F1AD023494B6823F4B0
:102BF0007413226A606A024313434B601F4B012225
:102C00001A66FFF731FC04461B4B1B6813F0007F6C
:102C10000ED1FFF729FC001B0228F5D9032022E082
:102C2000154A536823F40033A1680B435360DCE773
:102C3000002018E0002016E0012B16D00E4B5B6838
:102C400003F48031226A914211D103F47013626A55
:102C500093420ED1002006E001207047012002E0DF
:102C6000012000E0002002B070BD0120FBE7012040
:102C7000F9E70120F7E700BF0010024000004242E0
:102C80000F4B5B6803F00C02082A01D00D48704717
:102C9000C3F383420C49885C13F4803F0BD0084B8C
:102CA0005B68C3F34043094AD35C064A02FB00F069
:102CB000B0FBF3F07047064B03FB00F0704700BF1A
:102CC0000010024000127A005C5900086C5900089C
:102CD00000093D00002800F0A08070B50D460446B4
:102CE000524B1B6803F007038B420BD24F4A136809
:102CF00023F007030B431360136803F007038B42B1
:102D000040F08D80236813F0020F17D013F0040FEA
:102D100004D0474A536843F4E0635360236813F0D8
:102D2000080F04D0424A536843F460535360404A4A
:102D3000536823F0F003A1680B435360236813F03A
:102D4000010F31D06368012B20D0022B25D0384AE7
:102D5000126812F0020F64D035494A6822F003026B
:102D600013434B60FFF780FB0646314B5B6803F073
:102D70000C036268B3EB820F16D0FFF775FB801B64
:102D800041F288339842F0D9032045E0284A12687E
:102D900012F4003FE0D101203EE0254A126812F013
:102DA000007FD9D1012037E0204B1B6803F00703D7
:102DB000AB420AD91D4A136823F007032B43136063
:102DC000136803F00703AB422DD1236813F0040FFF
:102DD00006D0174A536823F4E063E1680B4353605D
:102DE000236813F0080F07D0114A536823F4605387
:102DF000216943EAC1035360FFF742FF0C4B5B6854
:102E0000C3F303130B4AD35CD8400B4B18600B4B36
:102E10001868FEF709F8002070BD012070470120F6
:102E2000FAE70120F8E70120F6E700BF00200240A2
:102E300000100240FC570008000000201400002091
:102E4000014B1868704700BF0000002008B5FFF76D
:102E5000F7FF044B5B68C3F30223034AD35CD840FB
:102E600008BD00BF001002400C58000808B5FFF76D
:102E7000E7FF044B5B68C3F3C223034AD35CD8402B
:102E800008BD00BF001002400C5800080F2303606B
:102E90000B4B5A6802F0030242605A6802F0F002DB
:102EA00082605A6802F4E062C2605B68DB0803F487
:102EB000E0630361034B1B6803F007030B6070477B
:102EC00000100240002002407047000090F83D30A2
:102ED000DBB2012B27D1022380F83D300268D36892
:102EE00043F00103D3600368114A934210D0B3F159
:102EF000804F0DD0A2F59432934209D002F5806242
:102F0000934205D01A6842F001021A60002070470F
:102F10009A6802F00702062A07D01A6842F00102F6
:102F20001A6000207047012070470020704700BFE2
:102F3000002C0140704770477047704710B5044639
:102F400003681A6912F0020F11D0DA6812F0020F4A
:102F50000DD06FF002021A610123037703689B69A9
:102F600013F0030F70D0FFF7E6FF002323772368E9
:102F70001A6912F0040F12D0DA6812F0040F0ED0A2
:102F80006FF004021A610223237723689B6913F40C
:102F9000407F5FD02046FFF7CEFF002323772368D2
:102FA0001A6912F0080F12D0DA6812F0080F0ED06A
:102FB0006FF008021A61042323772368DB6913F09A
:102FC000030F4ED02046FFF7B6FF00232377236878
:102FD0001A6912F0100F12D0DA6812F0100F0ED02A
:102FE0006FF010021A61082323772368DB6913F45A
:102FF000407F3DD02046FFF79EFF002323772368C4
:103000001A6912F0010F03D0DA6812F0010F36D1FD
:1030100023681A6912F0800F03D0DA6812F0800F6B
:1030200034D123681A6912F0400F03D0DA6812F025
:10303000400F32D123681A6912F0200F03D0DA68EA
:1030400012F0200F30D110BDFFF774FF2046FFF7BC
:1030500073FF8AE72046FFF76DFF2046FFF76CFFFE
:103060009BE72046FFF766FF2046FFF765FFACE7CA
:103070002046FFF75FFF2046FFF75EFFBDE76FF0DA
:1030800001021A612046FDF7FDFCC1E76FF08002E6
:103090001A61204600F077F8C3E76FF040021A612A
:1030A0002046FFF74AFFC5E76FF020021A6120466D
:1030B00000F068F8C7E7000003681B4A90420AD096
:1030C000B0F1804F07D0A2F59432904203D002F5C0
:1030D0008062904203D123F070034A681343124A7E
:1030E00090420AD0B0F1804F07D0A2F594329042BE
:1030F00003D002F58062904203D123F44073CA6882
:10310000134323F080034A69134303608B68C3624F
:103110000B688362044B984202D0012343617047DD
:103120000B690363F9E700BF002C014040B310B501
:10313000044690F83D30F3B1022384F83D30214637
:1031400051F8040BFFF7B8FF012384F8463084F8E8
:103150003E3084F83F3084F8403084F8413084F8C1
:10316000423084F8433084F8443084F8453084F8A1
:103170003D30002010BD80F83C30FFF7A5FEDBE7B6
:103180000120704770477047026802F10C0353E852
:10319000003F23F490730C3242E800310029F3D150
:1031A000026802F1140353E8003F23F001031432D4
:1031B00042E800310029F3D1036B012B05D0202315
:1031C00080F84230002303637047026802F10C0369
:1031D00053E8003F23F010030C3242E8003100298D
:1031E000F3D1ECE790F84130DBB2212B01D0022083
:1031F00070478368B3F5805F17D0036A5A1C026278
:103200001A7803685A60C38C9BB2013B9BB2C3849B
:103210004BB90268D36823F08003D3600268D36897
:1032200043F04003D360002070470369002BE4D1D2
:10323000036A1B880268C3F308035360036A0233FE
:103240000362E0E710B504460268136923F44053B3
:10325000C1680B43136183680269134342691A43CF
:103260000168CB6823F4B05323F00C031343CB6005
:103270000268536923F4407381690B435361026808
:10328000134B9A4220D0FFF7E1FD024602EB820287
:1032900002EB820263689B00B2FBF3F20D48A0FBD5
:1032A00002314909642303FB11231B013233A0FBC4
:1032B00003235B0903F0F00202EB011203F00F039A
:1032C000216813448B6010BDFFF7D0FD0246DDE797
:1032D000003801401F85EB512DE9F84305460F46A4
:1032E00016469946DDF820802C68246837EA0403E6
:1032F0000CBF4FF0010C4FF0000CB4452DD1B8F1CC
:10330000FF3FF1D0B8F1000F05D0FFF7ADF8A0EB0B
:1033100009004045E8D92A6802F10C0353E8003F50
:1033200023F4D0730C3242E800310029F3D12A682B
:1033300002F1140353E8003F23F00103143242E882
:1033400000310029F3D1202385F8413085F842303F
:10335000002385F84030032000E00020BDE8F8831A
:1033600060B310B5044690F8413013B3242384F8B9
:1033700041302268D36823F40053D3602046FFF71E
:1033800061FF2268136923F4904313612268536933
:1033900023F02A0353612268D36843F40053D360B7
:1033A00000206064202384F8413084F84230606358
:1033B00010BD80F84030FDF7FDFDD7E701207047D4
:1033C0002DE9F04182B01E4690F84130DBB2202B4F
:1033D0004BD104460D46904600294AD00AB9012037
:1033E00044E000234364212380F84130FFF73CF898
:1033F0000746A4F82480A4F82680A368B3F5805F6C
:1034000002D04FF000080FE02369FBB14FF0000835
:103410000AE038F8023B2268C3F308035360E28CE9
:1034200092B2013A92B2E284E38C9BB28BB10096E5
:103430003B46002280212046FFF74EFFD8B9002DE1
:10344000E7D015F8012B23685A60E8E7A846002565
:10345000EAE700963B46002240212046FFF73CFF6A
:1034600058B9202384F8413000E0022002B0BDE8C2
:10347000F0810120FAE70320F8E70320F6E7704720
:1034800008B50168CA6822F04002CA60202280F8AC
:103490004120FFF7F4FF002008BD704708B5406ADF
:1034A0000023C385C384FFF7F8FF08BD704790F879
:1034B0004230DBB2222B69D18368B3F5805F4FD0F5
:1034C000826AB3F5805F04D0002B56D10369002BCC
:1034D00053D103685B681370836A01338362C38DC1
:1034E0009BB2013B9BB2C385002B51D100B583B089
:1034F0000268D36823F02003D3600268D36823F402
:103500008073D3600268536923F001035361202361
:1035100080F8423000234363036B012B33D1002337
:103520000363026802F10C0353E8003F23F0100329
:103530000C3242E800310029F3D103681A6812F016
:10354000100F06D0002201921A6801925B68019365
:10355000019B818DFFF7AAFF002003B05DF804FBFB
:103560000269002AACD1826A03685B68C3F308036E
:103570001380836A02338362B1E703685B6803F0F8
:103580007F031370A8E7FDF7C9FDE5E70220704748
:103590000020704730B583B0044602681368D068D5
:1035A000516913F00F0505D113F0200F02D010F070
:1035B000200F19D12DB111F0010119D110F4907F14
:1035C00016D1216B01297DD013F0800F03D010F0AC
:1035D000800F40F0188113F0400F03D010F0400F1F
:1035E00040F0158103B030BD2046FFF760FFF9E7DA
:1035F00013F0010F06D010F4807F03D0626C42F00C
:103600000102626413F0040F04D019B1626C42F03D
:103610000202626413F0020F04D019B1626C42F02E
:103620000402626413F0080F07D010F0200F00D1DD
:1036300019B1626C42F008026264626C002AD1D057
:1036400013F0200F02D010F0200F29D123685B69FE
:1036500003F04003626C12F0080F00D163B3204600
:10366000FFF792FD23685B6913F0400F20D02268BA
:1036700002F1140353E8003F23F04003143242E800
:1036800000310029F3D1E36B73B1634A5A63E06BF5
:10369000FEF76CFF0028A5D0E06B436B9847A1E7CD
:1036A0002046FFF704FFD1E72046FFF7F6FE99E733
:1036B0002046FFF7F2FE95E72046FFF7EEFE0023D7
:1036C00063648FE713F0100F3FF47EAF10F0100F1C
:1036D0003FF47AAF00230193136801935368019379
:1036E000019B536913F0400F51D0E26B13685B6884
:1036F0009BB2002B3FF476AFA18D99427FF672AF5B
:10370000E3859369202B37D0226802F10C0353E83C
:10371000003F23F480730C3242E800310029F3D1DA
:10372000226802F1140353E8003F23F0010314322E
:1037300042E800310029F3D1226802F1140353E872
:10374000003F23F04003143242E800310029F3D156
:10375000202384F8423000232363226802F10C0303
:1037600053E8003F23F010030C3242E800310029F7
:10377000F3D1E06BFEF7D6FE02236363A18DE38DE8
:103780009BB2C91A89B22046FFF790FE2AE7A18DA5
:10379000E38D9BB2C91A89B2E38D9BB2002B3FF433
:1037A00021AF00293FF41EAF226802F10C0353E859
:1037B000003F23F490730C3242E800300028F3D12C
:1037C000226802F1140353E8003F23F0010314328E
:1037D00042E800300028F3D1202384F8423000234F
:1037E0002363226802F10C0353E8003F23F0100327
:1037F0000C3242E800300028F3D1022363632046F4
:10380000FFF754FEEEE62046FFF7ECFCEAE6204622
:10381000FFF736FEE6E600BF9D3400088162828530
:10382000C28500234364222380F84230036923B118
:103830000268D36843F48073D3600268536943F02D
:10384000010353610268D36843F02003D360002072
:10385000704708B590F84230DBB2202B08D149B14F
:103860000AB9012008BD00230363FFF7D7FFF9E77A
:103870000220F7E70120F5E7842801D003307047E4
:103880000020704708B501F0E9F9002008BD2DE9D6
:10389000F04387B004460F464569BDB18669AEB1B5
:1038A000D0F80480D0F80090B0F90800FFF7E4FFEA
:1038B0000296019500903B4622694946404601F038
:1038C0005FF90590059807B0BDE8F0836568266844
:1038D000D4F81080B4F90800FFF7CEFF05AB0193D0
:1038E00000903B461FFA88F23146284601F082F9E3
:1038F0000128E7D00020E6E708B500B9012001F073
:10390000F7FA002008BD1AB9084206D110467047E0
:1039100031EA000303D000207047012070470120E6
:10392000704738B51C2000F00FFB044628B1002575
:1039300040F8045B00F0F0F82576204638BD2DE90C
:10394000F84378B10C4616461D46074611F07F48ED
:1039500011D04FF0500383F31188BFF36F8FBFF383
:103960004F8FFEE74FF0500383F31188BFF36F8F43
:10397000BFF34F8FFEE741B94FF0500383F3118837
:10398000BFF36F8FBFF34F8FFEE701F045FC50B9D7
:10399000089B43B14FF0500383F31188BFF36F8F3F
:1039A000BFF34F8FFEE701F093F9D7F800902A4656
:1039B00021464846FFF7A7FFF0B116B129EA0403F4
:1039C0003B6001F019FAB8F1000F12D048B94FF07E
:1039D000E0234FF08052C3F8042DBFF34F8FBFF3A5
:1039E0006F8F01F041FD814610F0007F1AD029F061
:1039F0007F494846BDE8F883089B83B166B94146D4
:103A00000DB141F08061089A2143381D01F0FAFAA6
:103A1000C146DDF82080D4E74FF08071F0E7DDF893
:103A20002080CEE700F016F9D7F800902A4621460C
:103A30004846FFF768FF18B116B129EA04043C6054
:103A400000F02AF9D3E770B170B50C46054611F0C5
:103A50007F4F11D04FF0500383F31188BFF36F8F66
:103A6000BFF34F8FFEE74FF0500383F31188BFF38E
:103A70006F8FBFF34F8FFEE700F0ECF82E6826EA59
:103A800004042C6000F008F9304670BDF8B568B148
:103A90000D46044611F07F4711D04FF0500383F3D9
:103AA0001188BFF36F8FBFF34F8FFEE74FF05003C6
:103AB00083F31188BFF36F8FBFF34F8FFEE700F1E1
:103AC0000C0601F005F9206923682B4323600AE006
:103AD000216832EA010105D111E0216841F000714D
:103AE00001F002FB2846B0420ED04568036823F07F
:103AF0007F4213F0806FEBD121681142F2D013F0B6
:103B0000807FEAD01743E8E7236823EA07032360AE
:103B100001F072F92068F8BD00F1080343604FF02E
:103B2000FF328260C360036100230360704700239B
:103B30000361704743684B609A688A60516099607E
:103B40000861036801330360704730B40D68B5F154
:103B5000FF3F11D000F108031C465B681A68AA42B7
:103B6000FAD963684B6099608C6061600861036892
:103B70000133036030BC70470469F2E703694168B0
:103B800082688A60416851605A68824206D0002289
:103B900002611A68013A1A601868704782685A60B0
:103BA000F5E7000082B0002301930D4B1B68B3F1D1
:103BB000FF3F08D04FF0500383F31188BFF36F8F9E
:103BC000BFF34F8FFEE74FF0500383F31188BFF32D
:103BD0006F8FBFF34F8F019B002BFCD002B070475B
:103BE0001800002006480068006880F3088862B664
:103BF00061B6BFF34F8FBFF36F8F00DF00BF0000D0
:103C000008ED00E04FF0807340F8043C21F0010122
:103C100040F8081C034B40F80C3C40F8202C40387E
:103C2000704700BFA53B0008000000000000000036
:103C3000074B19680868B0E8F00F80F30988BFF3F4
:103C40006F8F4FF0000080F311884EF00D0E70471B
:103C5000AC3500204FF0500383F31188BFF36F8F12
:103C6000BFF34F8F0B4A136801331360012B00D051
:103C700070474FF0E023D3F8043D13F0FF0FF7D067
:103C80004FF0500383F31188BFF36F8FBFF34F8F53
:103C9000FEE700BF18000020094B1B6843B94FF036
:103CA000500383F31188BFF36F8FBFF34F8FFEE78D
:103CB000013B034A13600BB983F31188704700BFBF
:103CC00018000020000000000000000000000000BC
:103CD000EFF30980BFF36F8F0D4B1A6820E9F00FE7
:103CE00010602DE908404FF0500080F3118801F07A
:103CF00025F94FF0000080F31188BDE808401968ED
:103D00000868B0E8F00F80F30988BFF36F8F704741
:103D1000AC35002008B54FF0500383F31188BFF392
:103D20006F8FBFF34F8F00F0DBFF28B14FF0E02320
:103D30004FF08052C3F8042D002383F3118808BD8F
:103D40004FF0E022002313619361054B1B68054986
:103D5000A1FB03139B09013B5361072313617047C8
:103D600000000020D34D621010B582B02A4B1A78A3
:103D7000D2B20192FF221A701B78DBB28DF80330A9
:103D80009DF8033003F05003244A1370244B07229C
:103D90001A6009E0224A1368013B13609DF8033062
:103DA0005B00DBB28DF803309DF8033013F0800F19
:103DB000F0D11B4B1B68032B08D04FF0500383F34B
:103DC0001188BFF36F8FBFF34F8FFEE71B02144ABA
:103DD000136003F4E0631360019BDBB20E4A1370BF
:103DE0004FF0E023D3F8202D42F47002C3F8202DC9
:103DF000D3F8202D42F07042C3F8202DFFF7A0FF2A
:103E00000024084B1C60FFF7EDFE01F097F8FFF768
:103E1000C9FE204602B010BD00E400E08C0900207D
:103E20009009002018000020EFF305830F2B0FD915
:103E3000114A9B5CDBB2114A12789A4208D94FF0C2
:103E4000500383F31188BFF36F8FBFF34F8FFEE7EB
:103E50004FF0E023D3F80C3D03F4E063084A126806
:103E6000934208D94FF0500383F31188BFF36F8F4B
:103E7000BFF34F8FFEE77047F0E300E08C090020AE
:103E800090090020124A12F0070F1ED0D11D21F018
:103E90000701C1F5305313440A460E480260002161
:103EA00041601344083B23F007030B48036059604B
:103EB0001960991A51601360084B1960084B19601A
:103EC000084B4FF000421A6070474FF43053E4E75C
:103ED00098090020A435002094090020A035002076
:103EE0009C35002098350020154B1A461B688342EC
:103EF000FBD3516802EB010C844509D0416800EB0B
:103F0000010C634509D00360904218D010607047DF
:103F10004068014451601046F0E710B4094C246831
:103F2000A3420AD05B681944416013681B680360B0
:103F3000904200D0106010BC70470460F8E77047F2
:103F4000A43500209409002070B5054600F0C0FE9D
:103F5000344B1B68A3B1344B1B681D424AD135B1A9
:103F6000083515F0070F02D025F007050835002D9C
:103F700042D02E4B1B68AB424DD32D4A146804E04F
:103F8000FFF780FFE7E722461C466368AB4202D298
:103F90002368002BF7D1234B1B68A3423DD0166842
:103FA00008362368136063685B1B102B10D96019F7
:103FB00010F0070F08D04FF0500383F31188BFF3C0
:103FC0006F8FBFF34F8FFEE743606560FFF78CFF95
:103FD000626816490B689B1A0B60164909688B4288
:103FE00001D214490B60104B1B681343636000231C
:103FF000236002E0002600E0002600F0FDFE16F03F
:10400000070F0CD04FF0500383F31188BFF36F8F6D
:10401000BFF34F8FFEE70026EFE70026EDE73046BF
:1040200070BD00BF94090020983500209C35002009
:10403000A4350020A035002080B338B50446A0F197
:10404000080550F8043C164A1268134208D14FF094
:10405000500383F31188BFF36F8FBFF34F8FFEE7D9
:1040600050F8081C41B14FF0500383F31188BFF39F
:104070006F8FBFF34F8FFEE723EA020340F8043C43
:1040800000F026FE54F8041C064A13680B44136023
:104090002846FFF729FF00F0AFFE38BD704700BF8C
:1040A000983500209C3500200346406A18B11B6BF0
:1040B0001868C0F10700704710B50446FFF7CAFD45
:1040C000A26BE36B9A4204D00024FFF7E5FD204683
:1040D00010BD0124F9E710B50446FFF7BBFDA36B43
:1040E00023B90124FFF7D8FD204610BD0024F9E7CD
:1040F00070B504461546866B026C5AB903681BB14D
:1041000000200136A66370BD406801F0F3F800237B
:104110006360F6E76DB98068FCF71AF8226CA36853
:104120001344A3606268934219D32368A3602846AE
:10413000E7E7C068FCF70CF8226C5142E3689B1A71
:10414000E3602268934202D263680B44E360022D6D
:1041500001D00020D5E726B1013E0020D1E7284656
:10416000CFE70020CDE708B50346026C62B10846F0
:10417000D9681144D960D3F804C0614501D31968E6
:10418000D960D968FBF7E4FF08BD38B50546FFF7ED
:1041900061FD95F8454064B201E0013C64B2002C39
:1041A0000ADD6B6A43B105F1240000F057FF0028D7
:1041B000F3D001F02BF8F0E7FF2385F84530FFF747
:1041C0006BFDFFF747FD95F8444064B201E0013C08
:1041D00064B2002C0ADD2B6943B105F1100000F038
:1041E0003DFF0028F3D001F011F8F0E7FF2385F838
:1041F0004430FFF751FD38BD38B5E0B10D460446F7
:10420000FFF728FD2368E26B216C01FB0230606040
:104210000020A063A360013A02FB0133E360FF23A7
:1042200084F8443084F84530FDB9236963B9FFF759
:1042300033FD012038BD4FF0500383F31188BFF3E5
:104240006F8FBFF34F8FFEE704F1100000F006FF01
:104250000028ECD04FF0E0234FF08052C3F8042D3B
:10426000BFF34F8FBFF36F8FE1E704F11000FFF74B
:1042700053FC04F12400FFF74FFCD8E710B50346C8
:1042800002980C4631B90060C36304640121FFF752
:10429000B3FF10BD0260F7E740B94FF0500383F35E
:1042A0001188BFF36F8FBFF34F8FFEE7F0B583B078
:1042B0000C4615460746A1B101FB00F04830FFF758
:1042C00043FE064650B1002380F8463000902B464E
:1042D00000F1480221463846FFF7D0FF304603B0D0
:1042E000F0BD0846EAE7F0B585B0019288B10F4607
:1042F0001D460446B1B1022D20D1E36B012B1DD028
:104300004FF0500383F31188BFF36F8FBFF34F8FCC
:10431000FEE74FF0500383F31188BFF36F8FBFF3B5
:104320004F8FFEE7036C002BE5D04FF0500383F373
:104330001188BFF36F8FBFF34F8FFEE700F06CFF64
:10434000064658B9019B002B48D04FF0500383F329
:104350001188BFF36F8FBFF34F8FFEE700263DE05C
:104360002A4639462046FFF7C3FE636A7BB948B147
:104370004FF0E0234FF08052C3F8042DBFF34F8F6E
:10438000BFF36F8FFFF788FC012005B0F0BD04F18B
:10439000240000F063FE0028F4D04FF0E0234FF03B
:1043A0008052C3F8042DBFF34F8FBFF36F8FE9E73F
:1043B000FFF772FC0020E8E702A800F0D9FE012612
:1043C00019E0002384F8443021E0002384F84530CC
:1043D00023E02046FFF7D9FE00F00EFDFFF73AFC80
:1043E000A26BE36B9A42BBD3022DB9D0019B002B89
:1043F000DED0002EE0D0FFF74FFC00F069FCFFF7A5
:1044000029FC94F8442052B2B2F1FF3FD9D094F87D
:10441000452052B2B2F1FF3FD7D0FFF73DFC01A9D2
:1044200002A800F0B1FED8B92046FFF745FE0028EB
:10443000CFD0019904F1100000F0CCFD2046FFF729
:10444000A4FE00F0D9FC0028C8D14FF0E0234FF0C3
:104450008052C3F8042DBFF34F8FBFF36F8FBDE7BA
:104460002046FFF792FE00F0C7FC00208DE748B120
:1044700008B5002141600160C1600B460A46FFF7A4
:1044800032FF08BD704710B5024600210120FFF73A
:1044900003FF0446FFF7EBFF204610BD2DE9F8436C
:1044A00090B10F4616461C460546B1B1022C20D1EC
:1044B000EB6B012B1DD04FF0500383F31188BFF33A
:1044C0006F8FBFF34F8FFEE74FF0500383F31188D8
:1044D000BFF36F8FBFF34F8FFEE7036C002BE5D068
:1044E0004FF0500383F31188BFF36F8FBFF34F8FEB
:1044F000FEE7FFF799FCEFF311894FF0500383F3C8
:104500001188BFF36F8FBFF34F8FAA6BEB6B9A428B
:1045100006D3022C04D0002089F31188BDE8F8836B
:1045200095F845804FFA88F8224639462846FFF725
:10453000DFFDB8F1FF3F06D008F101035BB285F85B
:1045400045300120E8E76B6A0BB90120E4E705F18B
:10455000240000F083FD18B126B101203060DBE7B4
:104560000120D9E70120D7E7F0B585B0019290B1DD
:104570000F460446C1B100F04FFE064600BB019B4A
:10458000002B5ED04FF0500383F31188BFF36F8F81
:10459000BFF34F8FFEE74FF0500383F31188BFF353
:1045A0006F8FBFF34F8FFEE7036C002BE3D04FF00C
:1045B000500383F31188BFF36F8FBFF34F8FFEE774
:1045C00000263EE039462046FFF7CDFD013DA563BC
:1045D000236923B9FFF760FB012005B0F0BD04F1AA
:1045E000100000F03BFD0028F4D04FF0E0234FF026
:1045F0008052C3F8042DBFF34F8FBFF36F8FE9E7ED
:10460000FFF74AFB0020E8E702A800F0B1FD012611
:1046100021E0002384F8443029E0002384F8453069
:104620002BE02046FFF7B1FD00F0E6FB09E0204655
:10463000FFF7ABFD00F0E0FB2046FFF74CFD002844
:104640003FD1FFF707FBA56B002DBBD1019B002BD2
:10465000D6D0002ED8D0FFF71FFB00F039FBFFF7B4
:10466000F9FA94F844305BB2B3F1FF3FD1D094F83B
:1046700045305BB2B3F1FF3FCFD0FFF70DFB01A98F
:1046800002A800F081FD0028D1D12046FFF723FDCC
:104690000028C6D0019904F1240000F09BFC2046BC
:1046A000FFF773FD00F0A8FB0028CAD14FF0E0230C
:1046B0004FF08052C3F8042DBFF34F8FBFF36F8FBD
:1046C000BFE7002089E770B584B0019158B1044676
:1046D000036C8BB14FF0500383F31188BFF36F8FDE
:1046E000BFF34F8FFEE74FF0500383F31188BFF302
:1046F0006F8FBFF34F8FFEE700F08EFD054650B978
:10470000019B5BB14FF0500383F31188BFF36F8FB0
:10471000BFF34F8FFEE70026354655E0064653E0CF
:10472000013BA36323683BB123694BB9FFF7B4FA9C
:104730000126304604B070BD00F0A2FE6060F3E7D1
:1047400004F1100000F08AFC0028EFD04FF0E023C5
:104750004FF08052C3F8042DBFF34F8FBFF36F8F1C
:10476000E4E746B14FF0500383F31188BFF36F8F36
:10477000BFF34F8FFEE7FFF78FFADAE702A800F0EA
:10478000F7FC01252AE0002384F8443032E00023BE
:1047900084F8453034E0FFF75DFA606800F04CFDC6
:1047A0000646FFF779FA3BE02046FFF7EEFC00F003
:1047B00023FB09E02046FFF7E8FC00F01DFB204644
:1047C000FFF789FC002842D1FFF744FAA36B002BC6
:1047D000A6D1019B002BC4D0002DCFD0FFF75CFAEF
:1047E00000F076FAFFF736FA94F844305BB2B3F192
:1047F000FF3FC8D094F845305BB2B3F1FF3FC6D05D
:10480000FFF74AFA01A902A800F0BEFC0028D1D1A6
:104810002046FFF760FC0028C6D02368002BBAD0E2
:10482000019904F1240000F0D5FB2046FFF7ADFC10
:1048300000F0E2FA0028C7D14FF0E0234FF0805299
:10484000C3F8042DBFF34F8FBFF36F8FBCE70EB9D2
:1048500000266EE7FFF7FEF92046FFF725FC01462C
:10486000606800F0A1FDFFF717FAF1E7084B1B683D
:104870001B6823B9074B4FF0FF321A607047044B97
:104880001B68DB68DB685A68024B1A60704700BF20
:10489000B0350020883600202DE9F04707469846BD
:1048A000089DDDF824900A9C266B02F18042013AB3
:1048B00006EB820626F007064FF0000CBCF10F0F46
:1048C0000BD811F80C2004EB0C0383F8342011F8FA
:1048D0000C3013B10CF1010CF0E7002384F84330E5
:1048E000062D00D90625E56265644FF0000AC4F87C
:1048F00048A0201DFFF71BF904F11800FFF717F976
:104900002461C5F10705A5616462C4F84CA084F870
:1049100050A0424639463046FFF774F92060B9F19D
:10492000000F01D0C9F80040BDE8F08738B5002479
:1049300007E004EB840293000E481844FFF7ECF8FC
:104940000134062CF5D90C4D2846FFF7E5F80B4C41
:104950002046FFF7E1F80A48FFF7DEF80948FFF7BD
:10496000DBF80948FFF7D8F8084B1D60084B1C60BE
:1049700038BD00BFB83500205C36002070360020FE
:1049800090360020BC360020A8360020B03500202C
:10499000B435002010B50446FFF75CF9214A1368CE
:1049A00001331360204B1B685BB1204B1B686BB954
:1049B0001D4B1B68DA6AE36A9A4207D81A4B1C60DF
:1049C00004E0194B1C601368012B28D0184A1368A7
:1049D00001331360E06A01238340164A11680B43D8
:1049E000136000EB8000211D134B03EB8000FFF7E9
:1049F000A1F8FFF751F90D4B1B687BB10A4B1B68FF
:104A0000DA6AE36A9A4209D24FF0E0234FF080520B
:104A1000C3F8042DBFF34F8FBFF36F8F10BDFFF7A7
:104A200085FFD3E744360020AC350020A4360020B3
:104A30005436002058360020B835002010B5044602
:104A400090F8513063B1012B11D0022B0ED04FF0F2
:104A5000500383F31188BFF36F8FBFF34F8FFEE7CF
:104A6000006BFFF7E9FA2046FFF7E6FA10BDFFF703
:104A7000E3FAFBE70F4B1B68D3B110B5FFF7EAF879
:104A80000D4BDB68DC68201DFFF778F80B4A1368D4
:104A9000013B1360074A1368013B1360FFF7FCF802
:104AA0002046FFF7CBFF034B1B68002BE6D110BD60
:104AB000704700BF48360020BC3600204436002036
:104AC00008B5FFF7D7FF074B1B68012BF9D94FF04B
:104AD000E0234FF08052C3F8042DBFF34F8FBFF394
:104AE0006F8FEEE7B835002070B504460D461D4BBC
:104AF0001E681D4B18680430FFF740F850B91A4B78
:104B00001B68DA6A012303FA02F218490B6823EAE8
:104B100002030B60B4F1FF3F0DD03444124B1B680D
:104B20005C60A64210D9124B18680F4B196804310B
:104B3000FFF70BF870BD002DEFD00B4B1968043157
:104B40000C48FEF7F7FFF5E70B4B1868064B1968A2
:104B50000431FEF7FAFF094B1B68A342EAD9074B61
:104B60001C60E7E7D0360020AC3500205836002026
:104B7000B4350020A8360020B0350020883600204B
:104B800030B587B00B9C7CB10C9DB5B15425049514
:104B9000049D542D1AD04FF0500383F31188BFF3B6
:104BA0006F8FBFF34F8FFEE74FF0500383F31188F1
:104BB000BFF36F8FBFF34F8FFEE74FF0500383F3C8
:104BC0001188BFF36F8FBFF34F8FFEE70C9D2C63EF
:104BD000022485F8514000240394029505AC019409
:104BE0000A9C0094FFF758FE0C98FFF7D3FE059837
:104BF00007B030BD2DE9F04385B00746884614461E
:104C00001E469000FFF7A0F900B381465420FFF73D
:104C10009BF90546B0B1C0F83090E5B1002385F8A6
:104C20005130039302950D9B01930C9B00933346E7
:104C3000224641463846FFF72FFE2846FFF7AAFED8
:104C4000012005E04846FFF7F7F9E6E74FF0FF30AF
:104C500005B0BDE8F0834FF0FF30F9E710B588B03C
:104C600000240594069407AA06A905A8FBF7D8FB1B
:104C7000059B0293069B019300942346079A0E49D5
:104C80000E48FFF77DFF0E4B186090B14FF05003B8
:104C900083F31188BFF36F8FBFF34F8F094B4FF032
:104CA000FF321A60084B01221A60084B1C60FFF7A4
:104CB0005BF808B010BD00BF70590008C14A000879
:104CC0008436002088360020A4360020D03600200C
:104CD000024A136801331360704700BF503600204A
:104CE000F8B53A4B1B68002B64D1394B1D68013570
:104CF0001D60C5B9374B1B681B6843B14FF05003AB
:104D000083F31188BFF36F8FBFF34F8FFEE7314AF4
:104D10001168314B186810601960304A136801330C
:104D20001360FFF7A3FD2E4B1B68AB4238D9002759
:104D30002C4B1B68DB6A03EB83039A002A4B9B58BE
:104D4000012B3CD901273AE00127224B1B681B6845
:104D500043B3204B1B68DB68DC6863689D4226D345
:104D6000261D3046FEF70AFFA36A1BB104F11800A6
:104D7000FEF704FFE36A01229A401C4908680243D7
:104D80000A6003EB83039A00314617481044FEF78C
:104D9000D1FEE26A134B1B68DB6A9A42D4D2D4E795
:104DA0000027D2E70E4B4FF0FF321A60C0E70C4AE3
:104DB0001360BDE70E4A13680133136000270D4BE3
:104DC0001B6803B101273846F8BD00BF50360020EC
:104DD000D0360020B0350020B43500208C360020BD
:104DE00088360020AC350020B83500205836002029
:104DF0004C360020D436002038B5354B1B6843B9FB
:104E00004FF0500383F31188BFF36F8FBFF34F8FC1
:104E1000FEE7FEF71FFF2E4B1A68013A1A601B6867
:104E2000002B4FD12B4B1B680BB900244BE0002407
:104E3000294B1B681BB3284BDB68DC6804F11800A6
:104E4000FEF79CFE251D2846FEF798FEE06A01232A
:104E50008340224A11680B43136000EB800029460F
:104E60001F4B03EB8000FEF765FEE26A1D4B1B68DB
:104E7000DB6A9A42DCD31C4B01221A60D8E70CB1E2
:104E8000FFF7F4FC194B1C6884B9174B1C68D4B1AC
:104E90004FF0E0234FF08052C3F8042DBFF34F8F43
:104EA000BFF36F8F01240EE0013C07D0FFF718FF1E
:104EB0000028F9D00C4B01221A60F5E70B4B0022B9
:104EC0001A60E2E70024FEF7E7FE204638BD00BF87
:104ED00050360020443600209036002058360020FE
:104EE000B8350020AC350020D43600204C360020E8
:104EF00010B5A8B10446104B1B6843B14FF05003E6
:104F000083F31188BFF36F8FBFF34F8FFEE7FFF777
:104F1000DFFE00212046FFF7E7FDFFF76DFF48B9F0
:104F20004FF0E0234FF08052C3F8042DBFF34F8FB2
:104F3000BFF36F8F10BD00BF50360020204B1B68A1
:104F40001BB1204B01221A6070471E4B00221A60D1
:104F50001D4B1B68B3FA83F3DBB2C3F11F0303EBF2
:104F600083018A0019498A5842B94FF0500383F3EC
:104F70001188BFF36F8FBFF34F8FFEE7134903EB29
:104F8000830082000A4450684068506003EB830C41
:104F90004FEA8C0208321144884209D003EB8303A4
:104FA0009A000A4B13445B68DA68094B1A60704731
:104FB000406862469100054A0A445060EEE700BF2F
:104FC00050360020D436002058360020B835002056
:104FD000AC35002058B110B50C46094A116818319B
:104FE000FEF7B3FD01212046FFF77EFD10BD4FF017
:104FF000500383F31188BFF36F8FBFF34F8FFEE72A
:10500000AC35002070B110B514460246114B1B6838
:105010008BB94FF0500383F31188BFF36F8FBFF349
:105020004F8FFEE74FF0500383F31188BFF36F8F6C
:10503000BFF34F8FFEE7084B186841F000418161D4
:10504000196818311046FEF775FD01212046FFF75B
:105050004BFD10BD50360020AC35002038B5C3687C
:10506000DC6824B304F118052846FEF787FD184BC9
:105070001B682BBB251D2846FEF780FDE06A012337
:105080008340144A11680B43136000EB80002946EB
:10509000114B03EB8000FEF74DFDE26A0F4B1B68DE
:1050A000DB6A9A4211D901200D4B186038BD4FF0D0
:1050B000500383F31188BFF36F8FBFF34F8FFEE769
:1050C00029460848FEF736FDE7E70020EEE700BF77
:1050D0005036002058360020B8350020AC3500206E
:1050E000D43600209036002038B51C4B1B6843B9DD
:1050F0004FF0500383F31188BFF36F8FBFF34F8FCF
:10510000FEE741F000410160C468F4B1FEF736FDEE
:10511000251D2846FEF732FDE06A01238340104A30
:1051200011680B43136000EB800029460D4B03EB25
:105130008000FEF7FFFCE26A0B4B1B68DB6A9A42B9
:1051400002D90A4B01221A6038BD4FF0500383F395
:105150001188BFF36F8FBFF34F8FFEE750360020EB
:1051600058360020B8350020AC350020D436002059
:10517000034B1B680360034B1B684360704700BF11
:105180008C360020D0360020D8B170B50C460546CC
:1051900001B3FEF75FFD1B4B19686B68C81A2268E4
:1051A000B2F1FF3F27D0184E3668D5F800C0B4459D
:1051B00001D08B4224D9824215D8002323600124D8
:1051C0001AE04FF0500383F31188BFF36F8FBFF3E2
:1051D0004F8FFEE74FF0500383F31188BFF36F8FBB
:1051E000BFF34F8FFEE75B1A134423602846FFF797
:1051F000BFFF002400E00024FEF74EFD204670BDF6
:105200000124F9E7D03600208C360020014B012222
:105210001A607047D4360020054B1B6833B1054B2C
:105220001B680BB1002070470220704701207047B7
:10523000A436002050360020002851D038B504464E
:10524000C36A294A1268D26A934241D28269002A0B
:1052500005DB254A1268D26AC2F1070282616169E0
:1052600003EB8303214A02EB8303994205D01E4BD3
:105270001B68DB6AE362012038BD251D2846FEF766
:105280007DFCA0B1184B1B68D86AE062012404FAC7
:1052900000F3174A11680B43136000EB80002946A6
:1052A000124B03EB8000FEF745FC2046E4E7E26A80
:1052B00002EB82039B000D49CB58002BE2D1012366
:1052C00003FA02F20A490B6823EA02030B60D9E7EA
:1052D000426C054B1B68DB6A9A4203D30020CBE784
:1052E000002070470120C7E7AC350020B83500200A
:1052F0005836002000284CD038B50446274B1B6890
:10530000834208D04FF0500383F31188BFF36F8FAF
:10531000BFF34F8FFEE7836C43B94FF0500383F325
:105320001188BFF36F8FBFF34F8FFEE7013B83649C
:10533000C16A426C91422ED00BB1002038BD051DD0
:105340002846FEF71BFC70B9E26A02EB82039B0061
:105350001349CB583BB9012303FA02F211490B68F8
:1053600023EA02030B60606CE062C0F10703A361F3
:10537000012404FA00F30B4A11680B43136000EB9D
:1053800080002946064B03EB8000FEF7D3FB204646
:10539000D4E7002070470020D0E700BFAC350020E4
:1053A000B835002058360020002856D038B50446BD
:1053B000836C43B94FF0500383F31188BFF36F8FB1
:1053C000BFF34F8FFEE7426C8A4200D20A46E16A81
:1053D000914201D0012B00D038BD204B1B68A34265
:1053E00032D0E262A369002B02DBC2F10702A261A4
:1053F000626901EB81011A4B03EB81018A42EBD117
:10540000251D2846FEF7BAFB70B9E26A02EB82035B
:105410009B001349CB583BB9012303FA02F211490F
:105420000B6823EA02030B60E06A012383400D4A04
:1054300011680B43136000EB80002946084B03EB17
:105440008000FEF777FBC7E74FF0500383F3118826
:10545000BFF36F8FBFF34F8FFEE77047AC3500206F
:10546000B835002058360020044A1368986913683C
:10547000DB6A1268C3F1070393617047AC35002003
:10548000054B1B6823B1044B1A68936C013393647A
:10549000014B1868704700BFAC35002070B50D4E49
:1054A0000D4D761BB61006D0002455F8043B013490
:1054B0009847A642F9D1094E094D00F003F9761B31
:1054C000B61006D0002455F8043B01349847A64294
:1054D000F9D170BD7C5900087C5900088459000836
:1054E0007C590008830730B548D0541E002A3FD0AD
:1054F0000346CAB201E0013C3AD303F8012B9D07F1
:10550000F9D1032C2DD9CDB245EA05250F2C45EA5A
:10551000054536D9A4F1100222F00F0C03F1200E3C
:10552000E6444FEA121C03F1100242E9045542E935
:10553000025510327245F8D10CF1010214F00C0F33
:1055400003EB021204F00F0C13D0ACF1040323F0B0
:1055500003030433134442F8045B9342FBD10CF081
:1055600003042CB1CAB21C4403F8012B9C42FBD1AA
:1055700030BD64461346002CF4D1F9E703461446C7
:10558000BFE71A46A446E0E720F0030110F003004D
:10559000C0F1000051F8043B00F1040C4FEACC0CC0
:1055A0006FF000021CBF22FA0CF213434FF0010C03
:1055B0004CEA0C2C4CEA0C4CA3EB0C0222EA030242
:1055C00012EACC1204BF51F8043B0430F4D0C2F10B
:1055D000000102EA0102B2FA82F2C2F11F0200EBFC
:1055E000D2007047024B13B1024800F005B8704773
:1055F0000000000005560008002301461A46184620
:1056000000F01AB838B5084B084D5B1B9C1007D04A
:10561000043B1D44013C55F804399847002CF9D14E
:10562000BDE8384000F054B8885900088459000893
:10563000704700BF704700BF2DE9F047DFF87CA03E
:105640000646DAF8000098460F469146FFF7F0FF4D
:105650001B4B1B68D3F8484124B365681F2D26DC1B
:105660005EB96B1C0235DAF80000636044F82570FF
:10567000FFF7E0FF0020BDE8F087012304EB850180
:10568000C1F88890D4F88821AB401A43022EC4F8A0
:105690008821C1F80881E4D1D4F88C211343C4F8DF
:1056A0008C31DEE703F5A674C3F84841D5E7DAF894
:1056B0000000FFF7BFFF4FF0FF30DCE74804002099
:1056C00078590008F8B500BFF8BC08BC9E46704782
:0C56D000F8B500BFF8BC08BC9E4670474F
:1056DC00A05700083D020008000000000000000078
:1056EC00800000000000000000000000AC57000823
:1056FC0051020008030000000000000080000000C0
:10570C000000000000000000BC57000879090008E8
:10571C00FFFF0000000000008000000000000000FF
:10572C0000000000C8570008A90C0008FDFF00008D
:10573C00000000000001000000000000000000005C
:10574C00D457000847020008FDFF000000000000CD
:10575C00800000000000000000000000E05700087E
:10576C0045130008FDFF0000000000008000000051
:10577C000000000000000000F0570008AD13000806
:10578C00FDFF000000000000800000000000000091
:10579C000000000064656661756C745461736B0085
:1057AC0055617274315265616448616E646C650058
:1057BC004750494F5461736B000000006D7573695D
:1057CC00635461736B0000006D79415343546173F2
:1057DC006B00000047616D65466C61675461736BCB
:1057EC000000000047616D655461736B00000000A0
:1057FC000000000000000000010203040607080975
:10580C0000000000010203042F36382E6D703300A7
:10581C002F30312E6D7033002F30322E6D703300DF
:10582C002F30332E6D7033002F30342E6D703300CB
:10583C002F30352E6D7033002F30372E6D703300B6
:10584C002F31322E6D7033002F31342E6D703300AA
:10585C002F31352E6D7033002F31382E6D70330093
:10586C002F31392E6D7033002F32302E6D70330086
:10587C002F32312E6D7033002F32322E6D7033007B
:10588C002F32332E6D7033002F32342E6D70330067
:10589C002F32352E6D7033002F33302E6D70330058
:1058AC002F30382E6D7033002F30392E6D70330041
:1058BC002F31302E6D7033002F31312E6D7033003F
:1058CC002F31332E6D7033002F32362E6D70330026
:1058DC002F32372E6D7033002F32392E6D7033000E
:1058EC002F32382E6D7033002F37302E6D70330001
:1058FC002F37382E6D7033002F37362E6D703300E6
:10590C002F37372E6D7033002F37332E6D703300D9
:10591C002F37322E6D7033002F37342E6D703300CD
:10592C002F37312E6D7033002F38302E6D703300C1
:10593C002F37352E6D7033002F37392E6D703300A5
:10594C002F36392E6D7033002F30362E6D7033009C
:10595C0002030405060708090A0B0C0D0E0F1010A4
:10596C000102000049444C450000000020000020CA
:08597C00E555000835010008A3
:045984001101000805
:105988000024F4003300000033000000640000002D
:105998000100000010000000AAAAAAAA0000000046
:1059A800000000000C03002074030020DC0300202A
:1059B80000000000000000000000000000000000DF
:1059C80000000000000000000000000000000000CF
:1059D80000000000000000000000000000000000BF
:1059E80000000000000000000000000000000000AF
:1059F800000000000000000000000000000000009F
:105A0800000000000000000000000000000000008E
:105A1800000000000000000000000000000000007E
:105A2800000000000000000000000000000000006E
:105A3800000000000000000000000000000000005E
:105A4800000000000000000001000000000000004D
:105A58000E33CDAB34126DE6ECDE05000B00000012
:105A6800000000000000000000000000000000002E
:105A7800000000000000000000000000000000001E
:105A8800000000000000000000000000000000000E
:105A980000000000000000000000000000000000FE
:0C5DC8000000000000000000D8360020A1
:04000005080023E1EB
:00000001FF
